{
  "_format": "hh-sol-artifact-1",
  "contractName": "WorkerMetaTx",
  "sourceName": "contracts/WorkerMetaTx.sol",
  "abi": [
    {
      "anonymous": false,
      "inputs": [
        {
          "indexed": false,
          "internalType": "address",
          "name": "userAddress",
          "type": "address"
        },
        {
          "indexed": false,
          "internalType": "address payable",
          "name": "relayerAddress",
          "type": "address"
        },
        {
          "indexed": false,
          "internalType": "bytes",
          "name": "functionSignature",
          "type": "bytes"
        }
      ],
      "name": "MetaTransactionExecuted",
      "type": "event"
    },
    {
      "inputs": [],
      "name": "CONTRACT_ERC712_NAME",
      "outputs": [
        {
          "internalType": "string",
          "name": "",
          "type": "string"
        }
      ],
      "stateMutability": "view",
      "type": "function"
    },
    {
      "inputs": [],
      "name": "CONTRACT_ERC712_VERSION",
      "outputs": [
        {
          "internalType": "string",
          "name": "",
          "type": "string"
        }
      ],
      "stateMutability": "view",
      "type": "function"
    },
    {
      "inputs": [],
      "name": "EIP712_DOMAIN_TYPEHASH",
      "outputs": [
        {
          "internalType": "bytes32",
          "name": "",
          "type": "bytes32"
        }
      ],
      "stateMutability": "view",
      "type": "function"
    },
    {
      "inputs": [
        {
          "internalType": "string",
          "name": "name",
          "type": "string"
        },
        {
          "internalType": "string",
          "name": "version",
          "type": "string"
        }
      ],
      "name": "encodeDomainSeperator",
      "outputs": [
        {
          "internalType": "bytes32",
          "name": "",
          "type": "bytes32"
        }
      ],
      "stateMutability": "view",
      "type": "function"
    },
    {
      "inputs": [
        {
          "internalType": "string",
          "name": "name",
          "type": "string"
        },
        {
          "internalType": "string",
          "name": "version",
          "type": "string"
        }
      ],
      "name": "encodeWorkerDomainSeperator",
      "outputs": [
        {
          "internalType": "bytes32",
          "name": "",
          "type": "bytes32"
        }
      ],
      "stateMutability": "view",
      "type": "function"
    },
    {
      "inputs": [
        {
          "internalType": "address",
          "name": "userAddress",
          "type": "address"
        },
        {
          "internalType": "bytes",
          "name": "functionSignature",
          "type": "bytes"
        },
        {
          "internalType": "bytes32",
          "name": "sigR",
          "type": "bytes32"
        },
        {
          "internalType": "bytes32",
          "name": "sigS",
          "type": "bytes32"
        },
        {
          "internalType": "uint8",
          "name": "sigV",
          "type": "uint8"
        }
      ],
      "name": "executeMetaTransaction",
      "outputs": [
        {
          "internalType": "bytes",
          "name": "",
          "type": "bytes"
        }
      ],
      "stateMutability": "payable",
      "type": "function"
    },
    {
      "inputs": [],
      "name": "getChainId",
      "outputs": [
        {
          "internalType": "uint256",
          "name": "",
          "type": "uint256"
        }
      ],
      "stateMutability": "pure",
      "type": "function"
    },
    {
      "inputs": [],
      "name": "getDomainSeperator",
      "outputs": [
        {
          "internalType": "bytes32",
          "name": "",
          "type": "bytes32"
        }
      ],
      "stateMutability": "view",
      "type": "function"
    },
    {
      "inputs": [
        {
          "internalType": "address",
          "name": "user",
          "type": "address"
        }
      ],
      "name": "getNonce",
      "outputs": [
        {
          "internalType": "uint256",
          "name": "nonce",
          "type": "uint256"
        }
      ],
      "stateMutability": "view",
      "type": "function"
    },
    {
      "inputs": [],
      "name": "getWorkerDomainSeperator",
      "outputs": [
        {
          "internalType": "bytes32",
          "name": "",
          "type": "bytes32"
        }
      ],
      "stateMutability": "view",
      "type": "function"
    },
    {
      "inputs": [],
      "name": "isLocalContract",
      "outputs": [
        {
          "internalType": "bool",
          "name": "",
          "type": "bool"
        }
      ],
      "stateMutability": "pure",
      "type": "function"
    },
    {
      "inputs": [
        {
          "internalType": "address",
          "name": "contract_",
          "type": "address"
        },
        {
          "internalType": "bool",
          "name": "isLocal_",
          "type": "bool"
        }
      ],
      "name": "updateLocalContract",
      "outputs": [],
      "stateMutability": "nonpayable",
      "type": "function"
    },
    {
      "inputs": [
        {
          "internalType": "address",
          "name": "userAddress_",
          "type": "address"
        },
        {
          "internalType": "bytes32",
          "name": "replayPrevention_",
          "type": "bytes32"
        },
        {
          "internalType": "bytes",
          "name": "functionSignature_",
          "type": "bytes"
        },
        {
          "internalType": "bytes32",
          "name": "sigR_",
          "type": "bytes32"
        },
        {
          "internalType": "bytes32",
          "name": "sigS_",
          "type": "bytes32"
        },
        {
          "internalType": "uint8",
          "name": "sigV_",
          "type": "uint8"
        }
      ],
      "name": "workerExecuteMetaTransaction",
      "outputs": [
        {
          "internalType": "bytes",
          "name": "",
          "type": "bytes"
        }
      ],
      "stateMutability": "payable",
      "type": "function"
    }
  ],
  "bytecode": "0x608060405234801561001057600080fd5b506113d1806100206000396000f3fe6080604052600436106100c25760003560e01c80635958b3011161007f578063ad2ded2b11610059578063ad2ded2b146101e0578063c7977be7146101f3578063e1a1a66c14610208578063f40c96ab1461021d576100c2565b80635958b3011461017c5780636d4b99e01461019e578063765d6cce146101be576100c2565b80630c53c51c146100c7578063161e650d146100f057806320379ee51461011257806327430a42146101275780632d0335ab146101475780633408e47014610167575b600080fd5b6100da6100d5366004610e89565b610232565b6040516100e791906110db565b60405180910390f35b3480156100fc57600080fd5b506101056103d9565b6040516100e79190611064565b34801561011e57600080fd5b50610105610510565b34801561013357600080fd5b50610105610142366004610f15565b610641565b34801561015357600080fd5b50610105610162366004610dc1565b6106fe565b34801561017357600080fd5b5061010561072b565b34801561018857600080fd5b5061019c610197366004610ddb565b61072f565b005b3480156101aa57600080fd5b506101056101b9366004610f15565b610733565b3480156101ca57600080fd5b506101d361075d565b6040516100e79190611059565b6100da6101ee366004610e11565b610762565b3480156101ff57600080fd5b50610105610947565b34801561021457600080fd5b506100da61096a565b34801561022957600080fd5b506100da610a0b565b6060600061023e610a76565b9050610248610cd6565b50604080516060810182526001600160a01b0389166000818152600685016020908152908490205483528201529081018790526102888882888888610a9a565b6102ad5760405162461bcd60e51b81526004016102a490611191565b60405180910390fd5b6001600160a01b03881660009081526006830160205260409020546102d3906001610b2d565b6001600160a01b03891660009081526006840160205260409081902091909155517f5845892132946850460bff5a0083f71031bc5bf9aadcd40f1de79423eac9b10b90610325908a9033908b90611024565b60405180910390a160006060306001600160a01b0316898b60405160200161034e929190610fbe565b60408051601f198184030181529082905261036891610fa2565b6000604051808303816000865af19150503d80600081146103a5576040519150601f19603f3d011682016040523d82523d6000602084013e6103aa565b606091505b5091509150816103cc5760405162461bcd60e51b81526004016102a490611123565b9998505050505050505050565b6000806103e4610a76565b60088101805460408051602060026001851615610100026000190190941693909304601f810184900484028201840190925281815293945061050a9392918301828280156104735780601f1061044857610100808354040283529160200191610473565b820191906000526020600020905b81548152906001019060200180831161045657829003601f168201915b5050505060078401805460408051602060026001851615610100026000190190941693909304601f81018490048402820184019092528181529350908301828280156105005780601f106104d557610100808354040283529160200191610500565b820191906000526020600020905b8154815290600101906020018083116104e357829003601f168201915b5050505050610641565b91505090565b60008061051b610a76565b60088101805460408051602060026001851615610100026000190190941693909304601f810184900484028201840190925281815293945061050a9392918301828280156105aa5780601f1061057f576101008083540402835291602001916105aa565b820191906000526020600020905b81548152906001019060200180831161058d57829003601f168201915b5050505060078401805460408051602060026001851615610100026000190190941693909304601f81018490048402820184019092528181529350908301828280156106375780601f1061060c57610100808354040283529160200191610637565b820191906000526020600020905b81548152906001019060200180831161061a57829003601f168201915b5050505050610733565b60008061064c61072b565b9050806089148061065d5750806001145b61067b5780620138811461067357617a69610676565b60055b61067e565b60015b61ffff169050806106a15760405162461bcd60e51b81526004016102a49061123a565b6040518060800160405280605281526020016112f66052913980516020918201208551868301208551868401206040516106df948691309101611091565b6040516020818303038152906040528051906020012091505092915050565b600080610709610a76565b6001600160a01b03909316600090815260069093016020525050604090205490565b4690565b5050565b60008061073e61072b565b9050806106a15760405162461bcd60e51b81526004016102a49061123a565b600190565b6060600061076e610a76565b9050610778610b59565b6107945760405162461bcd60e51b81526004016102a4906111d2565b61079c610d00565b50604080516060810182528881526001600160a01b038a1660208201529081018790526107cc8982888888610be8565b6107e85760405162461bcd60e51b81526004016102a490611191565b6001600160a01b038916600090815260058301602090815260408083208b845290915290205460ff161561082e5760405162461bcd60e51b81526004016102a4906110ee565b6001600160a01b038916600090815260058301602090815260408083208b845290915290819020805460ff19166001179055517f5845892132946850460bff5a0083f71031bc5bf9aadcd40f1de79423eac9b10b90610892908b9033908b90611024565b60405180910390a160006060306001600160a01b0316898c6040516020016108bb929190610fbe565b60408051601f19818403018152908290526108d591610fa2565b6000604051808303816000865af19150503d8060008114610912576040519150601f19603f3d011682016040523d82523d6000602084013e610917565b606091505b5091509150816109395760405162461bcd60e51b81526004016102a490611123565b9a9950505050505050505050565b6040518060800160405280605281526020016112f6605291398051906020012081565b60606000610976610a76565b600881018054604080516020601f60026000196101006001881615020190951694909404938401819004810282018101909252828152939450830182828015610a005780601f106109d557610100808354040283529160200191610a00565b820191906000526020600020905b8154815290600101906020018083116109e357829003601f168201915b505050505091505090565b60606000610a17610a76565b600781018054604080516020601f60026000196101006001881615020190951694909404938401819004810282018101909252828152939450830182828015610a005780601f106109d557610100808354040283529160200191610a00565b7fc8fcad8db84d3cc18b4c41d551ea0ee66dd599cde068d998e57d5e09332c131c90565b60006001600160a01b03861615801590610b2357506001610ac2610abd87610c10565b610c6f565b83868660405160008152602001604052604051610ae294939291906110bd565b6020604051602081039080840390855afa158015610b04573d6000803e3d6000fd5b505050602060405103516001600160a01b0316866001600160a01b0316145b9695505050505050565b600082820183811015610b525760405162461bcd60e51b81526004016102a49061115a565b9392505050565b600080610b64610a76565b6004808201546040516317937a0760e01b81529293506001600160a01b0316916317937a0791610b9691339101611010565b602060405180830381600087803b158015610bb057600080fd5b505af1158015610bc4573d6000803e3d6000fd5b505050506040513d601f19601f8201168201806040525081019061050a9190610ef9565b60006001600160a01b03861615801590610b2357506001610ac2610c0b87610c8b565b610ccc565b60006040518060800160405280604381526020016112b36043913980516020918201208351848301516040808701518051908601209051610c51950161106d565b6040516020818303038152906040528051906020012090505b919050565b6000610c79610510565b82604051602001610c51929190610ff5565b60006040518060800160405280605481526020016113486054913980516020918201208351848301516040808701518051908601209051610c51950161106d565b6000610c796103d9565b60405180606001604052806000815260200160006001600160a01b03168152602001606081525090565b6040805160608082018352600080835260208301529181019190915290565b80356001600160a01b0381168114610c6a57600080fd5b600082601f830112610d46578081fd5b813567ffffffffffffffff80821115610d5b57fe5b604051601f8301601f191681016020018281118282101715610d7957fe5b604052828152925082848301602001861015610d9457600080fd5b8260208601602083013760006020848301015250505092915050565b803560ff81168114610c6a57600080fd5b600060208284031215610dd2578081fd5b610b5282610d1f565b60008060408385031215610ded578081fd5b610df683610d1f565b91506020830135610e06816112a1565b809150509250929050565b60008060008060008060c08789031215610e29578182fd5b610e3287610d1f565b955060208701359450604087013567ffffffffffffffff811115610e54578283fd5b610e6089828a01610d36565b9450506060870135925060808701359150610e7d60a08801610db0565b90509295509295509295565b600080600080600060a08688031215610ea0578081fd5b610ea986610d1f565b9450602086013567ffffffffffffffff811115610ec4578182fd5b610ed088828901610d36565b9450506040860135925060608601359150610eed60808701610db0565b90509295509295909350565b600060208284031215610f0a578081fd5b8151610b52816112a1565b60008060408385031215610f27578182fd5b823567ffffffffffffffff80821115610f3e578384fd5b610f4a86838701610d36565b93506020850135915080821115610f5f578283fd5b50610f6c85828601610d36565b9150509250929050565b60008151808452610f8e816020860160208601611271565b601f01601f19169290920160200192915050565b60008251610fb4818460208701611271565b9190910192915050565b60008351610fd0818460208801611271565b60609390931b6bffffffffffffffffffffffff19169190920190815260140192915050565b61190160f01b81526002810192909252602282015260420190565b6001600160a01b0391909116815260200190565b6001600160a01b0384811682528316602082015260606040820181905260009061105090830184610f76565b95945050505050565b901515815260200190565b90815260200190565b93845260208401929092526001600160a01b03166040830152606082015260800190565b9485526020850193909352604084019190915260608301526001600160a01b0316608082015260a00190565b93845260ff9290921660208401526040830152606082015260800190565b600060208252610b526020830184610f76565b6020808252818101527f5245504c4159206f6620612070726576696f7573207472616e73616374696f6e604082015260600190565b6020808252601c908201527f46756e6374696f6e2063616c6c206e6f74207375636365737366756c00000000604082015260600190565b6020808252601b908201527f536166654d6174683a206164646974696f6e206f766572666c6f770000000000604082015260600190565b60208082526021908201527f5369676e657220616e64207369676e617475726520646f206e6f74206d6174636040820152600d60fb1b606082015260800190565b60208082526042908201527f576f726b6572204d6574612d5472616e73616374696f6e2073656e742062792060408201527f6163636f756e74206f74686572207468616e206120776f726b65722f6d696e6960608201526137b760f11b608082015260a00190565b60208082526019908201527f636861696e204944206d757374206e6f74206265207a65726f00000000000000604082015260600190565b60005b8381101561128c578181015183820152602001611274565b8381111561129b576000848401525b50505050565b80151581146112af57600080fd5b5056fe4d6574615472616e73616374696f6e2875696e74323536206e6f6e63652c616464726573732066726f6d2c62797465732066756e6374696f6e5369676e617475726529454950373132446f6d61696e28737472696e67206e616d652c737472696e672076657273696f6e2c75696e7432353620636861696e49642c6164647265737320766572696679696e67436f6e747261637429576f726b65724d6574615472616e73616374696f6e2862797465733332207265706c617950726576656e74696f6e2c616464726573732066726f6d2c62797465732066756e6374696f6e5369676e617475726529a26469706673582212203ecbf7073be53ef345dd51047a7b7d3ec5831284f6fe7dd85dcb9071ac2df4b064736f6c63430007030033",
  "linkReferences": {},
  "deployedLinkReferences": {}
}