{
  "_format": "hh-sol-artifact-1",
  "contractName": "bondingSale",
  "sourceName": "contracts/bondingSale.sol",
  "abi": [
    {
      "inputs": [
        {
          "internalType": "address",
          "name": "_gameToken",
          "type": "address"
        },
        {
          "internalType": "address",
          "name": "_gameAdmin",
          "type": "address"
        },
        {
          "internalType": "address",
          "name": "_gameMaster",
          "type": "address"
        }
      ],
      "stateMutability": "nonpayable",
      "type": "constructor"
    },
    {
      "anonymous": false,
      "inputs": [
        {
          "indexed": true,
          "internalType": "address",
          "name": "account",
          "type": "address"
        },
        {
          "indexed": true,
          "internalType": "address",
          "name": "operator",
          "type": "address"
        },
        {
          "indexed": false,
          "internalType": "bool",
          "name": "approved",
          "type": "bool"
        }
      ],
      "name": "ApprovalForAll",
      "type": "event"
    },
    {
      "anonymous": false,
      "inputs": [
        {
          "indexed": false,
          "internalType": "address",
          "name": "userAddress",
          "type": "address"
        },
        {
          "indexed": false,
          "internalType": "address payable",
          "name": "relayerAddress",
          "type": "address"
        },
        {
          "indexed": false,
          "internalType": "bytes",
          "name": "functionSignature",
          "type": "bytes"
        }
      ],
      "name": "MetaTransactionExecuted",
      "type": "event"
    },
    {
      "anonymous": false,
      "inputs": [
        {
          "indexed": true,
          "internalType": "bytes32",
          "name": "role",
          "type": "bytes32"
        },
        {
          "indexed": true,
          "internalType": "bytes32",
          "name": "previousAdminRole",
          "type": "bytes32"
        },
        {
          "indexed": true,
          "internalType": "bytes32",
          "name": "newAdminRole",
          "type": "bytes32"
        }
      ],
      "name": "RoleAdminChanged",
      "type": "event"
    },
    {
      "anonymous": false,
      "inputs": [
        {
          "indexed": true,
          "internalType": "bytes32",
          "name": "role",
          "type": "bytes32"
        },
        {
          "indexed": true,
          "internalType": "address",
          "name": "account",
          "type": "address"
        },
        {
          "indexed": true,
          "internalType": "address",
          "name": "sender",
          "type": "address"
        }
      ],
      "name": "RoleGranted",
      "type": "event"
    },
    {
      "anonymous": false,
      "inputs": [
        {
          "indexed": true,
          "internalType": "bytes32",
          "name": "role",
          "type": "bytes32"
        },
        {
          "indexed": true,
          "internalType": "address",
          "name": "account",
          "type": "address"
        },
        {
          "indexed": true,
          "internalType": "address",
          "name": "sender",
          "type": "address"
        }
      ],
      "name": "RoleRevoked",
      "type": "event"
    },
    {
      "anonymous": false,
      "inputs": [
        {
          "indexed": true,
          "internalType": "address",
          "name": "to",
          "type": "address"
        },
        {
          "indexed": false,
          "internalType": "uint256",
          "name": "id",
          "type": "uint256"
        },
        {
          "indexed": false,
          "internalType": "uint256",
          "name": "pricePaid",
          "type": "uint256"
        },
        {
          "indexed": false,
          "internalType": "uint256",
          "name": "nextPrintPrice",
          "type": "uint256"
        },
        {
          "indexed": false,
          "internalType": "uint256",
          "name": "nextBurnPrice",
          "type": "uint256"
        },
        {
          "indexed": false,
          "internalType": "uint256",
          "name": "tokenSupply",
          "type": "uint256"
        },
        {
          "indexed": false,
          "internalType": "uint256",
          "name": "royaltyPaid",
          "type": "uint256"
        },
        {
          "indexed": false,
          "internalType": "uint256",
          "name": "reserve",
          "type": "uint256"
        },
        {
          "indexed": true,
          "internalType": "address",
          "name": "royaltyRecipient",
          "type": "address"
        }
      ],
      "name": "TokenBought",
      "type": "event"
    },
    {
      "anonymous": false,
      "inputs": [
        {
          "indexed": true,
          "internalType": "address",
          "name": "to",
          "type": "address"
        },
        {
          "indexed": false,
          "internalType": "uint256",
          "name": "id",
          "type": "uint256"
        },
        {
          "indexed": false,
          "internalType": "uint256",
          "name": "priceReceived",
          "type": "uint256"
        },
        {
          "indexed": false,
          "internalType": "uint256",
          "name": "nextPrintPrice",
          "type": "uint256"
        },
        {
          "indexed": false,
          "internalType": "uint256",
          "name": "nextBurnPrice",
          "type": "uint256"
        },
        {
          "indexed": false,
          "internalType": "uint256",
          "name": "printsSupply",
          "type": "uint256"
        },
        {
          "indexed": false,
          "internalType": "uint256",
          "name": "reserve",
          "type": "uint256"
        }
      ],
      "name": "TokenBurned",
      "type": "event"
    },
    {
      "anonymous": false,
      "inputs": [
        {
          "indexed": false,
          "internalType": "uint256",
          "name": "tokenId",
          "type": "uint256"
        },
        {
          "indexed": false,
          "internalType": "string",
          "name": "json",
          "type": "string"
        },
        {
          "indexed": false,
          "internalType": "uint256",
          "name": "curve",
          "type": "uint256"
        },
        {
          "indexed": false,
          "internalType": "uint256",
          "name": "multiplier",
          "type": "uint256"
        }
      ],
      "name": "TokenData",
      "type": "event"
    },
    {
      "anonymous": false,
      "inputs": [
        {
          "indexed": false,
          "internalType": "uint256",
          "name": "id",
          "type": "uint256"
        },
        {
          "indexed": false,
          "internalType": "uint256",
          "name": "date",
          "type": "uint256"
        }
      ],
      "name": "TokenOnSale",
      "type": "event"
    },
    {
      "anonymous": false,
      "inputs": [
        {
          "indexed": true,
          "internalType": "address",
          "name": "operator",
          "type": "address"
        },
        {
          "indexed": true,
          "internalType": "address",
          "name": "from",
          "type": "address"
        },
        {
          "indexed": true,
          "internalType": "address",
          "name": "to",
          "type": "address"
        },
        {
          "indexed": false,
          "internalType": "uint256[]",
          "name": "ids",
          "type": "uint256[]"
        },
        {
          "indexed": false,
          "internalType": "uint256[]",
          "name": "values",
          "type": "uint256[]"
        }
      ],
      "name": "TransferBatch",
      "type": "event"
    },
    {
      "anonymous": false,
      "inputs": [
        {
          "indexed": true,
          "internalType": "address",
          "name": "operator",
          "type": "address"
        },
        {
          "indexed": true,
          "internalType": "address",
          "name": "from",
          "type": "address"
        },
        {
          "indexed": true,
          "internalType": "address",
          "name": "to",
          "type": "address"
        },
        {
          "indexed": false,
          "internalType": "uint256",
          "name": "id",
          "type": "uint256"
        },
        {
          "indexed": false,
          "internalType": "uint256",
          "name": "value",
          "type": "uint256"
        }
      ],
      "name": "TransferSingle",
      "type": "event"
    },
    {
      "anonymous": false,
      "inputs": [
        {
          "indexed": false,
          "internalType": "string",
          "name": "value",
          "type": "string"
        },
        {
          "indexed": true,
          "internalType": "uint256",
          "name": "id",
          "type": "uint256"
        }
      ],
      "name": "URI",
      "type": "event"
    },
    {
      "inputs": [],
      "name": "BURNER",
      "outputs": [
        {
          "internalType": "bytes32",
          "name": "",
          "type": "bytes32"
        }
      ],
      "stateMutability": "view",
      "type": "function"
    },
    {
      "inputs": [
        {
          "internalType": "uint256",
          "name": "creatorId",
          "type": "uint256"
        },
        {
          "internalType": "string",
          "name": "json",
          "type": "string"
        },
        {
          "internalType": "uint256",
          "name": "curve",
          "type": "uint256"
        },
        {
          "internalType": "uint256",
          "name": "multiplier",
          "type": "uint256"
        }
      ],
      "name": "CreateToken",
      "outputs": [],
      "stateMutability": "nonpayable",
      "type": "function"
    },
    {
      "inputs": [],
      "name": "DEFAULT_ADMIN_ROLE",
      "outputs": [
        {
          "internalType": "bytes32",
          "name": "",
          "type": "bytes32"
        }
      ],
      "stateMutability": "view",
      "type": "function"
    },
    {
      "inputs": [],
      "name": "EIP712_DOMAIN_TYPEHASH",
      "outputs": [
        {
          "internalType": "bytes32",
          "name": "",
          "type": "bytes32"
        }
      ],
      "stateMutability": "view",
      "type": "function"
    },
    {
      "inputs": [],
      "name": "MAX_PRICE",
      "outputs": [
        {
          "internalType": "uint256",
          "name": "",
          "type": "uint256"
        }
      ],
      "stateMutability": "view",
      "type": "function"
    },
    {
      "inputs": [],
      "name": "METADATA_ADMIN",
      "outputs": [
        {
          "internalType": "bytes32",
          "name": "",
          "type": "bytes32"
        }
      ],
      "stateMutability": "view",
      "type": "function"
    },
    {
      "inputs": [],
      "name": "MINTER",
      "outputs": [
        {
          "internalType": "bytes32",
          "name": "",
          "type": "bytes32"
        }
      ],
      "stateMutability": "view",
      "type": "function"
    },
    {
      "inputs": [
        {
          "internalType": "uint256",
          "name": "tokenId",
          "type": "uint256"
        },
        {
          "internalType": "uint256",
          "name": "onSaleDate",
          "type": "uint256"
        }
      ],
      "name": "SetTokenOnSaleDate",
      "outputs": [],
      "stateMutability": "nonpayable",
      "type": "function"
    },
    {
      "inputs": [
        {
          "internalType": "uint256",
          "name": "",
          "type": "uint256"
        }
      ],
      "name": "TokenSupply",
      "outputs": [
        {
          "internalType": "uint256",
          "name": "",
          "type": "uint256"
        }
      ],
      "stateMutability": "view",
      "type": "function"
    },
    {
      "inputs": [
        {
          "internalType": "uint256",
          "name": "tokenId",
          "type": "uint256"
        },
        {
          "internalType": "string",
          "name": "json",
          "type": "string"
        },
        {
          "internalType": "uint256",
          "name": "curve",
          "type": "uint256"
        },
        {
          "internalType": "uint256",
          "name": "multiplier",
          "type": "uint256"
        }
      ],
      "name": "UpdateTokenData",
      "outputs": [],
      "stateMutability": "nonpayable",
      "type": "function"
    },
    {
      "inputs": [
        {
          "internalType": "uint256",
          "name": "",
          "type": "uint256"
        }
      ],
      "name": "_tokenURIs",
      "outputs": [
        {
          "internalType": "string",
          "name": "",
          "type": "string"
        }
      ],
      "stateMutability": "view",
      "type": "function"
    },
    {
      "inputs": [
        {
          "internalType": "address",
          "name": "account",
          "type": "address"
        },
        {
          "internalType": "uint256",
          "name": "id",
          "type": "uint256"
        }
      ],
      "name": "balanceOf",
      "outputs": [
        {
          "internalType": "uint256",
          "name": "",
          "type": "uint256"
        }
      ],
      "stateMutability": "view",
      "type": "function"
    },
    {
      "inputs": [
        {
          "internalType": "address[]",
          "name": "accounts",
          "type": "address[]"
        },
        {
          "internalType": "uint256[]",
          "name": "ids",
          "type": "uint256[]"
        }
      ],
      "name": "balanceOfBatch",
      "outputs": [
        {
          "internalType": "uint256[]",
          "name": "",
          "type": "uint256[]"
        }
      ],
      "stateMutability": "view",
      "type": "function"
    },
    {
      "inputs": [
        {
          "internalType": "uint256",
          "name": "tokenId",
          "type": "uint256"
        }
      ],
      "name": "burn",
      "outputs": [],
      "stateMutability": "nonpayable",
      "type": "function"
    },
    {
      "inputs": [
        {
          "internalType": "uint256",
          "name": "id",
          "type": "uint256"
        },
        {
          "internalType": "uint256",
          "name": "value",
          "type": "uint256"
        }
      ],
      "name": "burn",
      "outputs": [],
      "stateMutability": "nonpayable",
      "type": "function"
    },
    {
      "inputs": [
        {
          "internalType": "uint256[]",
          "name": "ids",
          "type": "uint256[]"
        },
        {
          "internalType": "uint256[]",
          "name": "values",
          "type": "uint256[]"
        }
      ],
      "name": "burnBatch",
      "outputs": [],
      "stateMutability": "nonpayable",
      "type": "function"
    },
    {
      "inputs": [],
      "name": "burningActive",
      "outputs": [
        {
          "internalType": "bool",
          "name": "",
          "type": "bool"
        }
      ],
      "stateMutability": "view",
      "type": "function"
    },
    {
      "inputs": [
        {
          "internalType": "uint256",
          "name": "tokenId",
          "type": "uint256"
        },
        {
          "internalType": "uint256",
          "name": "maxPrice",
          "type": "uint256"
        }
      ],
      "name": "buyNFTwithGAME",
      "outputs": [],
      "stateMutability": "nonpayable",
      "type": "function"
    },
    {
      "inputs": [
        {
          "internalType": "uint256",
          "name": "c",
          "type": "uint256"
        }
      ],
      "name": "creatorAddress",
      "outputs": [
        {
          "internalType": "address",
          "name": "",
          "type": "address"
        }
      ],
      "stateMutability": "view",
      "type": "function"
    },
    {
      "inputs": [
        {
          "internalType": "uint256",
          "name": "",
          "type": "uint256"
        }
      ],
      "name": "curves",
      "outputs": [
        {
          "internalType": "uint256",
          "name": "",
          "type": "uint256"
        }
      ],
      "stateMutability": "view",
      "type": "function"
    },
    {
      "inputs": [
        {
          "internalType": "string",
          "name": "name",
          "type": "string"
        },
        {
          "internalType": "string",
          "name": "version",
          "type": "string"
        }
      ],
      "name": "encodeDomainSeperator",
      "outputs": [
        {
          "internalType": "bytes32",
          "name": "",
          "type": "bytes32"
        }
      ],
      "stateMutability": "view",
      "type": "function"
    },
    {
      "inputs": [
        {
          "internalType": "string",
          "name": "name",
          "type": "string"
        },
        {
          "internalType": "string",
          "name": "version",
          "type": "string"
        }
      ],
      "name": "encodeWorkerDomainSeperator",
      "outputs": [
        {
          "internalType": "bytes32",
          "name": "",
          "type": "bytes32"
        }
      ],
      "stateMutability": "view",
      "type": "function"
    },
    {
      "inputs": [
        {
          "internalType": "address",
          "name": "userAddress",
          "type": "address"
        },
        {
          "internalType": "bytes",
          "name": "functionSignature",
          "type": "bytes"
        },
        {
          "internalType": "bytes32",
          "name": "sigR",
          "type": "bytes32"
        },
        {
          "internalType": "bytes32",
          "name": "sigS",
          "type": "bytes32"
        },
        {
          "internalType": "uint8",
          "name": "sigV",
          "type": "uint8"
        }
      ],
      "name": "executeMetaTransaction",
      "outputs": [
        {
          "internalType": "bytes",
          "name": "",
          "type": "bytes"
        }
      ],
      "stateMutability": "payable",
      "type": "function"
    },
    {
      "inputs": [],
      "name": "gameAdmin",
      "outputs": [
        {
          "internalType": "contract iGAME_Game",
          "name": "",
          "type": "address"
        }
      ],
      "stateMutability": "view",
      "type": "function"
    },
    {
      "inputs": [],
      "name": "gameToken",
      "outputs": [
        {
          "internalType": "contract iGAME_ERC20",
          "name": "",
          "type": "address"
        }
      ],
      "stateMutability": "view",
      "type": "function"
    },
    {
      "inputs": [
        {
          "internalType": "uint256",
          "name": "tokenId",
          "type": "uint256"
        }
      ],
      "name": "getBuyPrice",
      "outputs": [
        {
          "internalType": "uint256",
          "name": "",
          "type": "uint256"
        }
      ],
      "stateMutability": "view",
      "type": "function"
    },
    {
      "inputs": [],
      "name": "getChainId",
      "outputs": [
        {
          "internalType": "uint256",
          "name": "",
          "type": "uint256"
        }
      ],
      "stateMutability": "pure",
      "type": "function"
    },
    {
      "inputs": [],
      "name": "getDomainSeperator",
      "outputs": [
        {
          "internalType": "bytes32",
          "name": "",
          "type": "bytes32"
        }
      ],
      "stateMutability": "view",
      "type": "function"
    },
    {
      "inputs": [
        {
          "internalType": "uint256",
          "name": "creator",
          "type": "uint256"
        }
      ],
      "name": "getNextTokenID",
      "outputs": [
        {
          "internalType": "uint256",
          "name": "",
          "type": "uint256"
        }
      ],
      "stateMutability": "view",
      "type": "function"
    },
    {
      "inputs": [
        {
          "internalType": "address",
          "name": "user",
          "type": "address"
        }
      ],
      "name": "getNonce",
      "outputs": [
        {
          "internalType": "uint256",
          "name": "nonce",
          "type": "uint256"
        }
      ],
      "stateMutability": "view",
      "type": "function"
    },
    {
      "inputs": [
        {
          "internalType": "uint256",
          "name": "tokenId",
          "type": "uint256"
        },
        {
          "internalType": "uint256",
          "name": "printNumber",
          "type": "uint256"
        }
      ],
      "name": "getPrintPrice",
      "outputs": [
        {
          "internalType": "uint256",
          "name": "price",
          "type": "uint256"
        }
      ],
      "stateMutability": "view",
      "type": "function"
    },
    {
      "inputs": [
        {
          "internalType": "bytes32",
          "name": "role",
          "type": "bytes32"
        }
      ],
      "name": "getRoleAdmin",
      "outputs": [
        {
          "internalType": "bytes32",
          "name": "",
          "type": "bytes32"
        }
      ],
      "stateMutability": "view",
      "type": "function"
    },
    {
      "inputs": [
        {
          "internalType": "bytes32",
          "name": "role",
          "type": "bytes32"
        },
        {
          "internalType": "uint256",
          "name": "index",
          "type": "uint256"
        }
      ],
      "name": "getRoleMember",
      "outputs": [
        {
          "internalType": "address",
          "name": "",
          "type": "address"
        }
      ],
      "stateMutability": "view",
      "type": "function"
    },
    {
      "inputs": [
        {
          "internalType": "bytes32",
          "name": "role",
          "type": "bytes32"
        }
      ],
      "name": "getRoleMemberCount",
      "outputs": [
        {
          "internalType": "uint256",
          "name": "",
          "type": "uint256"
        }
      ],
      "stateMutability": "view",
      "type": "function"
    },
    {
      "inputs": [
        {
          "internalType": "uint256",
          "name": "tokenId",
          "type": "uint256"
        }
      ],
      "name": "getSellPrice",
      "outputs": [
        {
          "internalType": "uint256",
          "name": "",
          "type": "uint256"
        }
      ],
      "stateMutability": "view",
      "type": "function"
    },
    {
      "inputs": [
        {
          "internalType": "uint256",
          "name": "_creatorID",
          "type": "uint256"
        },
        {
          "internalType": "uint256",
          "name": "token",
          "type": "uint256"
        }
      ],
      "name": "getTokenID",
      "outputs": [
        {
          "internalType": "uint256",
          "name": "",
          "type": "uint256"
        }
      ],
      "stateMutability": "view",
      "type": "function"
    },
    {
      "inputs": [],
      "name": "getWorkerDomainSeperator",
      "outputs": [
        {
          "internalType": "bytes32",
          "name": "",
          "type": "bytes32"
        }
      ],
      "stateMutability": "view",
      "type": "function"
    },
    {
      "inputs": [
        {
          "internalType": "bytes32",
          "name": "role",
          "type": "bytes32"
        },
        {
          "internalType": "address",
          "name": "account",
          "type": "address"
        }
      ],
      "name": "grantRole",
      "outputs": [],
      "stateMutability": "nonpayable",
      "type": "function"
    },
    {
      "inputs": [
        {
          "internalType": "uint256",
          "name": "id",
          "type": "uint256"
        }
      ],
      "name": "hasMinted",
      "outputs": [
        {
          "internalType": "bool",
          "name": "",
          "type": "bool"
        }
      ],
      "stateMutability": "view",
      "type": "function"
    },
    {
      "inputs": [
        {
          "internalType": "bytes32",
          "name": "role",
          "type": "bytes32"
        },
        {
          "internalType": "address",
          "name": "account",
          "type": "address"
        }
      ],
      "name": "hasRole",
      "outputs": [
        {
          "internalType": "bool",
          "name": "",
          "type": "bool"
        }
      ],
      "stateMutability": "view",
      "type": "function"
    },
    {
      "inputs": [
        {
          "internalType": "uint256",
          "name": "",
          "type": "uint256"
        }
      ],
      "name": "initialized",
      "outputs": [
        {
          "internalType": "bool",
          "name": "",
          "type": "bool"
        }
      ],
      "stateMutability": "view",
      "type": "function"
    },
    {
      "inputs": [
        {
          "internalType": "address",
          "name": "account",
          "type": "address"
        },
        {
          "internalType": "address",
          "name": "operator",
          "type": "address"
        }
      ],
      "name": "isApprovedForAll",
      "outputs": [
        {
          "internalType": "bool",
          "name": "",
          "type": "bool"
        }
      ],
      "stateMutability": "view",
      "type": "function"
    },
    {
      "inputs": [],
      "name": "isLocalContract",
      "outputs": [
        {
          "internalType": "bool",
          "name": "",
          "type": "bool"
        }
      ],
      "stateMutability": "pure",
      "type": "function"
    },
    {
      "inputs": [],
      "name": "masterContract",
      "outputs": [
        {
          "internalType": "contract iGAME_Master",
          "name": "",
          "type": "address"
        }
      ],
      "stateMutability": "view",
      "type": "function"
    },
    {
      "inputs": [
        {
          "internalType": "address",
          "name": "to",
          "type": "address"
        },
        {
          "internalType": "uint256",
          "name": "id",
          "type": "uint256"
        },
        {
          "internalType": "uint256",
          "name": "value",
          "type": "uint256"
        },
        {
          "internalType": "bytes",
          "name": "data",
          "type": "bytes"
        }
      ],
      "name": "mint",
      "outputs": [],
      "stateMutability": "nonpayable",
      "type": "function"
    },
    {
      "inputs": [
        {
          "internalType": "address",
          "name": "to",
          "type": "address"
        },
        {
          "internalType": "uint256[]",
          "name": "ids",
          "type": "uint256[]"
        },
        {
          "internalType": "uint256[]",
          "name": "values",
          "type": "uint256[]"
        },
        {
          "internalType": "bytes",
          "name": "data",
          "type": "bytes"
        }
      ],
      "name": "mintBatch",
      "outputs": [],
      "stateMutability": "nonpayable",
      "type": "function"
    },
    {
      "inputs": [],
      "name": "mintingActive",
      "outputs": [
        {
          "internalType": "bool",
          "name": "",
          "type": "bool"
        }
      ],
      "stateMutability": "view",
      "type": "function"
    },
    {
      "inputs": [],
      "name": "multiple",
      "outputs": [
        {
          "internalType": "uint256",
          "name": "",
          "type": "uint256"
        }
      ],
      "stateMutability": "view",
      "type": "function"
    },
    {
      "inputs": [
        {
          "internalType": "uint256",
          "name": "",
          "type": "uint256"
        }
      ],
      "name": "multipliers",
      "outputs": [
        {
          "internalType": "uint256",
          "name": "",
          "type": "uint256"
        }
      ],
      "stateMutability": "view",
      "type": "function"
    },
    {
      "inputs": [
        {
          "internalType": "uint256",
          "name": "",
          "type": "uint256"
        }
      ],
      "name": "nextTokenIDs",
      "outputs": [
        {
          "internalType": "uint256",
          "name": "",
          "type": "uint256"
        }
      ],
      "stateMutability": "view",
      "type": "function"
    },
    {
      "inputs": [],
      "name": "nextTokenId",
      "outputs": [
        {
          "internalType": "uint256",
          "name": "",
          "type": "uint256"
        }
      ],
      "stateMutability": "view",
      "type": "function"
    },
    {
      "inputs": [
        {
          "internalType": "bytes32",
          "name": "role",
          "type": "bytes32"
        },
        {
          "internalType": "address",
          "name": "account",
          "type": "address"
        }
      ],
      "name": "renounceRole",
      "outputs": [],
      "stateMutability": "nonpayable",
      "type": "function"
    },
    {
      "inputs": [
        {
          "internalType": "bytes32",
          "name": "role",
          "type": "bytes32"
        },
        {
          "internalType": "address",
          "name": "account",
          "type": "address"
        }
      ],
      "name": "revokeRole",
      "outputs": [],
      "stateMutability": "nonpayable",
      "type": "function"
    },
    {
      "inputs": [
        {
          "internalType": "address",
          "name": "from",
          "type": "address"
        },
        {
          "internalType": "address",
          "name": "to",
          "type": "address"
        },
        {
          "internalType": "uint256[]",
          "name": "ids",
          "type": "uint256[]"
        },
        {
          "internalType": "uint256[]",
          "name": "amounts",
          "type": "uint256[]"
        },
        {
          "internalType": "bytes",
          "name": "data",
          "type": "bytes"
        }
      ],
      "name": "safeBatchTransferFrom",
      "outputs": [],
      "stateMutability": "nonpayable",
      "type": "function"
    },
    {
      "inputs": [
        {
          "internalType": "address",
          "name": "from",
          "type": "address"
        },
        {
          "internalType": "address",
          "name": "to",
          "type": "address"
        },
        {
          "internalType": "uint256",
          "name": "id",
          "type": "uint256"
        },
        {
          "internalType": "uint256",
          "name": "amount",
          "type": "uint256"
        },
        {
          "internalType": "bytes",
          "name": "data",
          "type": "bytes"
        }
      ],
      "name": "safeTransferFrom",
      "outputs": [],
      "stateMutability": "nonpayable",
      "type": "function"
    },
    {
      "inputs": [
        {
          "internalType": "uint256",
          "name": "",
          "type": "uint256"
        }
      ],
      "name": "saleStarts",
      "outputs": [
        {
          "internalType": "uint256",
          "name": "",
          "type": "uint256"
        }
      ],
      "stateMutability": "view",
      "type": "function"
    },
    {
      "inputs": [
        {
          "internalType": "address",
          "name": "operator",
          "type": "address"
        },
        {
          "internalType": "bool",
          "name": "approved",
          "type": "bool"
        }
      ],
      "name": "setApprovalForAll",
      "outputs": [],
      "stateMutability": "nonpayable",
      "type": "function"
    },
    {
      "inputs": [
        {
          "internalType": "string",
          "name": "newuri",
          "type": "string"
        }
      ],
      "name": "setBaseURI",
      "outputs": [],
      "stateMutability": "nonpayable",
      "type": "function"
    },
    {
      "inputs": [
        {
          "internalType": "address",
          "name": "a",
          "type": "address"
        }
      ],
      "name": "setFEERECEIVER",
      "outputs": [],
      "stateMutability": "nonpayable",
      "type": "function"
    },
    {
      "inputs": [
        {
          "internalType": "string",
          "name": "newuri",
          "type": "string"
        },
        {
          "internalType": "uint256",
          "name": "id",
          "type": "uint256"
        }
      ],
      "name": "setURI",
      "outputs": [],
      "stateMutability": "nonpayable",
      "type": "function"
    },
    {
      "inputs": [
        {
          "internalType": "bytes4",
          "name": "interfaceId",
          "type": "bytes4"
        }
      ],
      "name": "supportsInterface",
      "outputs": [
        {
          "internalType": "bool",
          "name": "",
          "type": "bool"
        }
      ],
      "stateMutability": "view",
      "type": "function"
    },
    {
      "inputs": [],
      "name": "toggleTokenBurning",
      "outputs": [],
      "stateMutability": "nonpayable",
      "type": "function"
    },
    {
      "inputs": [],
      "name": "toggleTokenMinting",
      "outputs": [],
      "stateMutability": "nonpayable",
      "type": "function"
    },
    {
      "inputs": [
        {
          "internalType": "address",
          "name": "contract_",
          "type": "address"
        },
        {
          "internalType": "bool",
          "name": "isLocal_",
          "type": "bool"
        }
      ],
      "name": "updateLocalContract",
      "outputs": [],
      "stateMutability": "nonpayable",
      "type": "function"
    },
    {
      "inputs": [
        {
          "internalType": "uint256",
          "name": "tokenid",
          "type": "uint256"
        }
      ],
      "name": "uri",
      "outputs": [
        {
          "internalType": "string",
          "name": "",
          "type": "string"
        }
      ],
      "stateMutability": "view",
      "type": "function"
    },
    {
      "inputs": [
        {
          "internalType": "address",
          "name": "userAddress_",
          "type": "address"
        },
        {
          "internalType": "bytes32",
          "name": "replayPrevention_",
          "type": "bytes32"
        },
        {
          "internalType": "bytes",
          "name": "functionSignature_",
          "type": "bytes"
        },
        {
          "internalType": "bytes32",
          "name": "sigR_",
          "type": "bytes32"
        },
        {
          "internalType": "bytes32",
          "name": "sigS_",
          "type": "bytes32"
        },
        {
          "internalType": "uint8",
          "name": "sigV_",
          "type": "uint8"
        }
      ],
      "name": "workerExecuteMetaTransaction",
      "outputs": [
        {
          "internalType": "bytes",
          "name": "",
          "type": "bytes"
        }
      ],
      "stateMutability": "payable",
      "type": "function"
    }
  ],
  "bytecode": "0x60806040526003600d55670de0b6b3a7640000600e556ec097ce7bc90715b34b9f1000000000600f5562989680601a553480156200003c57600080fd5b50604051620062fb380380620062fb833981810160405260608110156200006257600080fd5b508051602080830151604093840151845180860186526007815266626f6e64696e6760c81b818501528551808701875260018152603160f81b81860152865180880190975260048752631d195cdd60e21b94870194909452939491939092909182908290620000d86301ffc9a760e01b62000203565b620000ea636cdb3d1360e11b62000203565b620000fc6303a24d0760e21b62000203565b6200011260006200010c62000288565b6200028c565b62000130600080516020620062898339815191526200010c62000288565b6200014e600080516020620062698339815191526200010c62000288565b6200016a6000600080516020620062698339815191526200029c565b620001866000600080516020620062898339815191526200029c565b80516200019b90600690602084019062000568565b50620001aa90508282620002ee565b600855620001b98282620003c7565b6009555050601180546001600160a01b039687166001600160a01b031991821617909155601280549587169582169590951790945550506013805491909316911617905562000604565b6001600160e01b0319808216141562000263576040805162461bcd60e51b815260206004820152601c60248201527f4552433136353a20696e76616c696420696e7465726661636520696400000000604482015290519081900360640190fd5b6001600160e01b0319166000908152602081905260409020805460ff19166001179055565b3390565b62000298828262000464565b5050565b600082815260056020526040808220600201549051839285917fbd79b86ffe0ab8e8776151514217cd7cacd52c909f66475c3af44e129f0b00ff9190a460009182526005602052604090912060020155565b600080620002fb620004df565b90508062000350576040805162461bcd60e51b815260206004820152601960248201527f636861696e204944206d757374206e6f74206265207a65726f00000000000000604482015290519081900360640190fd5b604051806080016040528060528152602001620062a9605291398051602091820120855186830120855186840120604080518086019490945283810192909252606083015260808201939093523060a0808301919091528351808303909101815260c0909101909252815191012090505b92915050565b600080620003d4620004df565b90508060891480620003e65750806001145b6200040857806201388114620003ff57617a6962000402565b60055b6200040b565b60015b61ffff1690508062000350576040805162461bcd60e51b815260206004820152601960248201527f636861696e204944206d757374206e6f74206265207a65726f00000000000000604482015290519081900360640190fd5b60008281526005602090815260409091206200048b918390620041ef620004e3821b17901c565b1562000298576200049b62000288565b6001600160a01b0316816001600160a01b0316837f2f8788117e7eff1d82e926ec794901d17c78024a50270940304540a733656f0d60405160405180910390a45050565b4690565b6000620004fa836001600160a01b03841662000501565b9392505050565b60006200050f838362000550565b6200054757508154600181810184556000848152602080822090930184905584548482528286019093526040902091909155620003c1565b506000620003c1565b60009081526001919091016020526040902054151590565b828054600181600116156101000203166002900490600052602060002090601f016020900481019282601f10620005ab57805160ff1916838001178555620005db565b82800160010185558215620005db579182015b82811115620005db578251825591602001919060010190620005be565b50620005e9929150620005ed565b5090565b5b80821115620005e95760008155600101620005ee565b615c5580620006146000396000f3fe6080604052600436106103d85760003560e01c80635958b301116101fd578063ad2ded2b11610118578063c7977be7116100ab578063e5b955951161007a578063e5b955951461198c578063e985e9c5146119b6578063ec798257146119f1578063f242432a14611a1b578063fe6d812414611af1576103d8565b8063c7977be7146118ff578063ca15c87314611914578063cd446e221461193e578063d547741f14611953576103d8565b8063ba730e53116100e7578063ba730e53146117d3578063ba84be07146117fd578063c3dfdae6146118ba578063c707562d146118cf576103d8565b8063ad2ded2b1461169d578063b1de303e14611764578063b2a999c714611779578063b390c0ab146117a3576103d8565b806383ca4b6f11610190578063979711601161015f57806397971160146115f9578063a217fddf14611623578063a22cb46514611638578063ac7fc26314611673576103d8565b806383ca4b6f146114365780638749474f146115665780639010d07c1461159057806391d14854146115c0576103d8565b8063731133e9116101cc578063731133e91461130e57806375794a3c146113db578063765d6cce146113f057806376adcba514611405576103d8565b80635958b3011461102d578063654d13331461106857806367db3b8f146111255780636d4b99e0146111d8576103d8565b806321c7cf4d116102f857806331f9c9191161028b5780633f8973001161025a5780633f89730014610d9357806342966c6814610dbd578063437a8ae614610de75780634e1273f414610dfc57806355f804b314610f7c576103d8565b806331f9c91914610d065780633408e47014610d1b57806336568abe14610d305780633d24265514610d69576103d8565b80632b606d2c116102c75780632b606d2c14610a9c5780632d0335ab14610acc5780632eb2c2d614610aff5780632f2ff15d14610ccd576103d8565b806321c7cf4d14610912578063248a9ca31461092757806326150e951461095157806327430a4214610966576103d8565b80631490185c116103705780631c7c25981161033f5780631c7c2598146106f05780631d84003f146107055780631f7fdffa1461073857806320379ee5146108fd576103d8565b80631490185c1461064f578063161e650d1461067f578063186d4432146106945780631bf7d749146106c6576103d8565b80630bb78ec1116103ac5780630bb78ec1146104af5780630c53c51c1461054e5780630e89341c14610610578063118c4f131461063a576103d8565b8062fdd58e146103dd57806301c11d961461042857806301ffc9a71461043d57806308d4db1414610485575b600080fd5b3480156103e957600080fd5b506104166004803603604081101561040057600080fd5b506001600160a01b038135169060200135611b06565b60408051918252519081900360200190f35b34801561043457600080fd5b50610416611b78565b34801561044957600080fd5b506104716004803603602081101561046057600080fd5b50356001600160e01b031916611b7e565b604080519115158252519081900360200190f35b34801561049157600080fd5b50610416600480360360208110156104a857600080fd5b5035611ba1565b3480156104bb57600080fd5b506104d9600480360360208110156104d257600080fd5b5035611bc4565b6040805160208082528351818301528351919283929083019185019080838360005b838110156105135781810151838201526020016104fb565b50505050905090810190601f1680156105405780820380516001836020036101000a031916815260200191505b509250505060405180910390f35b6104d9600480360360a081101561056457600080fd5b6001600160a01b038235169190810190604081016020820135600160201b81111561058e57600080fd5b8201836020820111156105a057600080fd5b803590602001918460018302840111600160201b831117156105c157600080fd5b91908080601f016020809104026020016040519081016040528093929190818152602001838380828437600092019190915250929550508235935050506020810135906040013560ff16611c5f565b34801561061c57600080fd5b506104d96004803603602081101561063357600080fd5b5035611f6c565b34801561064657600080fd5b506104166121d0565b34801561065b57600080fd5b506104166004803603604081101561067257600080fd5b50803590602001356121f4565b34801561068b57600080fd5b506104166121ff565b3480156106a057600080fd5b506106c4600480360360408110156106b757600080fd5b5080359060200135612206565b005b3480156106d257600080fd5b50610416600480360360208110156106e957600080fd5b50356125e3565b3480156106fc57600080fd5b506104716125f5565b34801561071157600080fd5b506106c46004803603602081101561072857600080fd5b50356001600160a01b0316612603565b34801561074457600080fd5b506106c46004803603608081101561075b57600080fd5b6001600160a01b038235169190810190604081016020820135600160201b81111561078557600080fd5b82018360208201111561079757600080fd5b803590602001918460208302840111600160201b831117156107b857600080fd5b9190808060200260200160405190810160405280939291908181526020018383602002808284376000920191909152509295949360208101935035915050600160201b81111561080757600080fd5b82018360208201111561081957600080fd5b803590602001918460208302840111600160201b8311171561083a57600080fd5b9190808060200260200160405190810160405280939291908181526020018383602002808284376000920191909152509295949360208101935035915050600160201b81111561088957600080fd5b82018360208201111561089b57600080fd5b803590602001918460018302840111600160201b831117156108bc57600080fd5b91908080601f016020809104026020016040519081016040528093929190818152602001838380828437600092019190915250929550612639945050505050565b34801561090957600080fd5b5061041661267e565b34801561091e57600080fd5b506106c4612684565b34801561093357600080fd5b506104166004803603602081101561094a57600080fd5b50356126b5565b34801561095d57600080fd5b506106c46126ca565b34801561097257600080fd5b506104166004803603604081101561098957600080fd5b810190602081018135600160201b8111156109a357600080fd5b8201836020820111156109b557600080fd5b803590602001918460018302840111600160201b831117156109d657600080fd5b91908080601f0160208091040260200160405190810160405280939291908181526020018383808284376000920191909152509295949360208101935035915050600160201b811115610a2857600080fd5b820183602082011115610a3a57600080fd5b803590602001918460018302840111600160201b83111715610a5b57600080fd5b91908080601f0160208091040260200160405190810160405280939291908181526020018383808284376000920191909152509295506126f2945050505050565b348015610aa857600080fd5b5061041660048036036040811015610abf57600080fd5b50803590602001356127f8565b348015610ad857600080fd5b5061041660048036036020811015610aef57600080fd5b50356001600160a01b031661288d565b348015610b0b57600080fd5b506106c4600480360360a0811015610b2257600080fd5b6001600160a01b038235811692602081013590911691810190606081016040820135600160201b811115610b5557600080fd5b820183602082011115610b6757600080fd5b803590602001918460208302840111600160201b83111715610b8857600080fd5b9190808060200260200160405190810160405280939291908181526020018383602002808284376000920191909152509295949360208101935035915050600160201b811115610bd757600080fd5b820183602082011115610be957600080fd5b803590602001918460208302840111600160201b83111715610c0a57600080fd5b9190808060200260200160405190810160405280939291908181526020018383602002808284376000920191909152509295949360208101935035915050600160201b811115610c5957600080fd5b820183602082011115610c6b57600080fd5b803590602001918460018302840111600160201b83111715610c8c57600080fd5b91908080601f0160208091040260200160405190810160405280939291908181526020018383808284376000920191909152509295506128a8945050505050565b348015610cd957600080fd5b506106c460048036036040811015610cf057600080fd5b50803590602001356001600160a01b0316612ba6565b348015610d1257600080fd5b50610471612c12565b348015610d2757600080fd5b50610416612c1b565b348015610d3c57600080fd5b506106c460048036036040811015610d5357600080fd5b50803590602001356001600160a01b0316612c1f565b348015610d7557600080fd5b5061041660048036036020811015610d8c57600080fd5b5035612c80565b348015610d9f57600080fd5b5061041660048036036020811015610db657600080fd5b5035612c92565b348015610dc957600080fd5b506106c460048036036020811015610de057600080fd5b5035612ca4565b348015610df357600080fd5b50610416612ea4565b348015610e0857600080fd5b50610f2c60048036036040811015610e1f57600080fd5b810190602081018135600160201b811115610e3957600080fd5b820183602082011115610e4b57600080fd5b803590602001918460208302840111600160201b83111715610e6c57600080fd5b9190808060200260200160405190810160405280939291908181526020018383602002808284376000920191909152509295949360208101935035915050600160201b811115610ebb57600080fd5b820183602082011115610ecd57600080fd5b803590602001918460208302840111600160201b83111715610eee57600080fd5b919080806020026020016040519081016040528093929190818152602001838360200280828437600092019190915250929550612eaa945050505050565b60408051602080825283518183015283519192839290830191858101910280838360005b83811015610f68578181015183820152602001610f50565b505050509050019250505060405180910390f35b348015610f8857600080fd5b506106c460048036036020811015610f9f57600080fd5b810190602081018135600160201b811115610fb957600080fd5b820183602082011115610fcb57600080fd5b803590602001918460018302840111600160201b83111715610fec57600080fd5b91908080601f016020809104026020016040519081016040528093929190818152602001838380828437600092019190915250929550613028945050505050565b34801561103957600080fd5b506106c46004803603604081101561105057600080fd5b506001600160a01b0381351690602001351515612c0e565b34801561107457600080fd5b506106c46004803603608081101561108b57600080fd5b81359190810190604081016020820135600160201b8111156110ac57600080fd5b8201836020820111156110be57600080fd5b803590602001918460018302840111600160201b831117156110df57600080fd5b91908080601f016020809104026020016040519081016040528093929190818152602001838380828437600092019190915250929550508235935050506020013561306e565b34801561113157600080fd5b506106c46004803603604081101561114857600080fd5b810190602081018135600160201b81111561116257600080fd5b82018360208201111561117457600080fd5b803590602001918460018302840111600160201b8311171561119557600080fd5b91908080601f0160208091040260200160405190810160405280939291908181526020018383808284376000920191909152509295505091359250613385915050565b3480156111e457600080fd5b50610416600480360360408110156111fb57600080fd5b810190602081018135600160201b81111561121557600080fd5b82018360208201111561122757600080fd5b803590602001918460018302840111600160201b8311171561124857600080fd5b91908080601f0160208091040260200160405190810160405280939291908181526020018383808284376000920191909152509295949360208101935035915050600160201b81111561129a57600080fd5b8201836020820111156112ac57600080fd5b803590602001918460018302840111600160201b831117156112cd57600080fd5b91908080601f0160208091040260200160405190810160405280939291908181526020018383808284376000920191909152509295506133dc945050505050565b34801561131a57600080fd5b506106c46004803603608081101561133157600080fd5b6001600160a01b038235169160208101359160408201359190810190608081016060820135600160201b81111561136757600080fd5b82018360208201111561137957600080fd5b803590602001918460018302840111600160201b8311171561139a57600080fd5b91908080601f016020809104026020016040519081016040528093929190818152602001838380828437600092019190915250929550613437945050505050565b3480156113e757600080fd5b50610416613476565b3480156113fc57600080fd5b5061047161347c565b34801561141157600080fd5b5061141a613481565b604080516001600160a01b039092168252519081900360200190f35b34801561144257600080fd5b506106c46004803603604081101561145957600080fd5b810190602081018135600160201b81111561147357600080fd5b82018360208201111561148557600080fd5b803590602001918460208302840111600160201b831117156114a657600080fd5b9190808060200260200160405190810160405280939291908181526020018383602002808284376000920191909152509295949360208101935035915050600160201b8111156114f557600080fd5b82018360208201111561150757600080fd5b803590602001918460208302840111600160201b8311171561152857600080fd5b919080806020026020016040519081016040528093929190818152602001838360200280828437600092019190915250929550613490945050505050565b34801561157257600080fd5b506104166004803603602081101561158957600080fd5b503561349b565b34801561159c57600080fd5b5061141a600480360360408110156115b357600080fd5b50803590602001356134ad565b3480156115cc57600080fd5b50610471600480360360408110156115e357600080fd5b50803590602001356001600160a01b03166134c5565b34801561160557600080fd5b506104716004803603602081101561161c57600080fd5b50356134dd565b34801561162f57600080fd5b506104166134f2565b34801561164457600080fd5b506106c46004803603604081101561165b57600080fd5b506001600160a01b03813516906020013515156134f7565b34801561167f57600080fd5b506104166004803603602081101561169657600080fd5b50356135e6565b6104d9600480360360c08110156116b357600080fd5b6001600160a01b0382351691602081013591810190606081016040820135600160201b8111156116e257600080fd5b8201836020820111156116f457600080fd5b803590602001918460018302840111600160201b8311171561171557600080fd5b91908080601f016020809104026020016040519081016040528093929190818152602001838380828437600092019190915250929550508235935050506020810135906040013560ff166135f8565b34801561177057600080fd5b50610416613989565b34801561178557600080fd5b5061141a6004803603602081101561179c57600080fd5b5035612203565b3480156117af57600080fd5b506106c4600480360360408110156117c657600080fd5b50803590602001356139ad565b3480156117df57600080fd5b50610416600480360360208110156117f657600080fd5b50356139b8565b34801561180957600080fd5b506106c46004803603608081101561182057600080fd5b81359190810190604081016020820135600160201b81111561184157600080fd5b82018360208201111561185357600080fd5b803590602001918460018302840111600160201b8311171561187457600080fd5b91908080601f01602080910402602001604051908101604052809392919081815260200183838082843760009201919091525092955050823593505050602001356139db565b3480156118c657600080fd5b5061141a613d07565b3480156118db57600080fd5b506106c4600480360360408110156118f257600080fd5b5080359060200135613d16565b34801561190b57600080fd5b50610416613f09565b34801561192057600080fd5b506104166004803603602081101561193757600080fd5b5035613f2c565b34801561194a57600080fd5b5061141a613f43565b34801561195f57600080fd5b506106c46004803603604081101561197657600080fd5b50803590602001356001600160a01b0316613f52565b34801561199857600080fd5b50610471600480360360208110156119af57600080fd5b5035613fab565b3480156119c257600080fd5b50610471600480360360408110156119d957600080fd5b506001600160a01b0381358116916020013516613fc0565b3480156119fd57600080fd5b5061041660048036036020811015611a1457600080fd5b5035613fee565b348015611a2757600080fd5b506106c4600480360360a0811015611a3e57600080fd5b6001600160a01b03823581169260208101359091169160408201359160608101359181019060a081016080820135600160201b811115611a7d57600080fd5b820183602082011115611a8f57600080fd5b803590602001918460018302840111600160201b83111715611ab057600080fd5b91908080601f016020809104026020016040519081016040528093929190818152602001838380828437600092019190915250929550614000945050505050565b348015611afd57600080fd5b506104166141cb565b60006001600160a01b038316611b4d5760405162461bcd60e51b815260040180806020018281038252602b815260200180615849602b913960400191505060405180910390fd5b5060008181526001602090815260408083206001600160a01b03861684529091529020545b92915050565b600f5481565b6001600160e01b0319811660009081526020819052604090205460ff165b919050565b600081815260176020526040812054611bbd83600183016127f8565b9392505050565b60076020908152600091825260409182902080548351601f600260001961010060018616150201909316929092049182018490048402810184019094528084529091830182828015611c575780601f10611c2c57610100808354040283529160200191611c57565b820191906000526020600020905b815481529060010190602001808311611c3a57829003601f168201915b505050505081565b6060611c696155f3565b50604080516060810182526001600160a01b0388166000818152600a602090815290849020548352820152908101869052611ca78782878787614204565b611ce25760405162461bcd60e51b8152600401808060200182810382526021815260200180615af36021913960400191505060405180910390fd5b6001600160a01b0387166000908152600a6020526040902054611d069060016142ac565b600a6000896001600160a01b03166001600160a01b03168152602001908152602001600020819055507f5845892132946850460bff5a0083f71031bc5bf9aadcd40f1de79423eac9b10b87338860405180846001600160a01b03168152602001836001600160a01b0316815260200180602001828103825283818151815260200191508051906020019080838360005b83811015611dae578181015183820152602001611d96565b50505050905090810190601f168015611ddb5780820380516001836020036101000a031916815260200191505b5094505050505060405180910390a160006060306001600160a01b0316888a6040516020018083805190602001908083835b60208310611e2c5780518252601f199092019160209182019101611e0d565b6001836020036101000a038019825116818451168082178552505050505050905001826001600160a01b031660601b8152601401925050506040516020818303038152906040526040518082805190602001908083835b60208310611ea25780518252601f199092019160209182019101611e83565b6001836020036101000a0380198251168184511680821785525050505050509050019150506000604051808303816000865af19150503d8060008114611f04576040519150601f19603f3d011682016040523d82523d6000602084013e611f09565b606091505b509150915081611f60576040805162461bcd60e51b815260206004820152601c60248201527f46756e6374696f6e2063616c6c206e6f74207375636365737366756c00000000604482015290519081900360640190fd5b98975050505050505050565b6000818152600760209081526040918290208054835160026001831615610100026000190190921691909104601f810184900484028201840190945283815260609384939192918301828280156120045780601f10611fd957610100808354040283529160200191612004565b820191906000526020600020905b815481529060010190602001808311611fe757829003601f168201915b50506006549394505050506002600019610100600184161502019091160461202d579050611b9c565b8051156120fe5760068160405160200180838054600181600116156101000203166002900480156120955780601f10612073576101008083540402835291820191612095565b820191906000526020600020905b815481529060010190602001808311612081575b5050825160208401908083835b602083106120c15780518252601f1990920191602091820191016120a2565b6001836020036101000a03801982511681845116808217855250505050505090500192505050604051602081830303815290604052915050611b9c565b600661210984614306565b60405160200180838054600181600116156101000203166002900480156121675780601f10612145576101008083540402835291820191612167565b820191906000526020600020905b815481529060010190602001808311612153575b5050825160208401908083835b602083106121935780518252601f199092019160209182019101612174565b6001836020036101000a03801982511681845116808217855250505050505090500192505050604051602081830303815290604052915050919050565b7f9667e80708b6eeeb0053fa0cca44e028ff548e2a9f029edfeac87c118b08b7c881565b600e54919091020190565b6009545b90565b60008281526016602052604090205442118015612230575060008281526016602052604090205415155b612281576040805162461bcd60e51b815260206004820152601860248201527f73616c6520686173206e6f742073746172746564207965740000000000000000604482015290519081900360640190fd5b6000600e54838161228e57fe5b049050600061229c84611ba1565b90506000811180156122ae5750828111155b6122ef576040805162461bcd60e51b815260206004820152600d60248201526c696e76616c696420707269636560981b604482015290519081900360640190fd5b6000848152601760205260409020805460010190556011546001600160a01b031663e2b8e7d361231d6143e1565b30846040518463ffffffff1660e01b815260040180846001600160a01b03168152602001836001600160a01b031681526020018281526020019350505050600060405180830381600087803b15801561237557600080fd5b505af1158015612389573d6000803e3d6000fd5b5050505060006123a36032836143e590919063ffffffff16565b905060006123bd60646123b7856008614427565b906143e5565b90506123e26123ca6143e1565b87600160405180602001604052806000815250614480565b836001600160a01b03166123f46143e1565b6001600160a01b03167fa8f60c2735df0121f6c1fb70fdc37e927e3b21f7266de2beeace3ed35b8634d088866124298b611ba1565b6124328c6139b8565b60008d8152601760209081526040918290205460115483516370a0823160e01b8152306004820152935191938c936001600160a01b03909216926370a0823192602480840193919291829003018186803b15801561248f57600080fd5b505afa1580156124a3573d6000803e3d6000fd5b505050506040513d60208110156124b957600080fd5b5051604080519788526020880196909652868601949094526060860192909252608085015260a084015260c0830152519081900360e00190a36011546010546040805163e2b8e7d360e01b81523060048201526001600160a01b039283166024820152604481018690529051919092169163e2b8e7d391606480830192600092919082900301818387803b15801561255057600080fd5b505af1158015612564573d6000803e3d6000fd5b50506011546040805163e2b8e7d360e01b81523060048201526001600160a01b03898116602483015260448201879052915191909216935063e2b8e7d39250606480830192600092919082900301818387803b1580156125c357600080fd5b505af11580156125d7573d6000803e3d6000fd5b50505050505050505050565b60146020526000908152604090205481565b600c54610100900460ff1681565b61260e6000336134c5565b61261757600080fd5b601080546001600160a01b0319166001600160a01b0392909216919091179055565b6126637ff0887ba65ee2024ea881d91b74c2450ef19e1557f03bed3ea9f16b037cbe2dc9336134c5565b61266c57600080fd5b612678848484846145b8565b50505050565b60085490565b61268f6000336134c5565b61269857600080fd5b600c805461ff001981166101009182900460ff1615909102179055565b60009081526005602052604090206002015490565b6126d56000336134c5565b6126de57600080fd5b600c805460ff19811660ff90911615179055565b6000806126fd612c1b565b9050806089148061270e5750806001145b61272c5780620138811461272457617a69612727565b60055b61272f565b60015b61ffff16905080612783576040805162461bcd60e51b8152602060048201526019602482015278636861696e204944206d757374206e6f74206265207a65726f60381b604482015290519081900360640190fd5b604051806080016040528060528152602001615a09605291398051602091820120855186830120855186840120604080518086019490945283810192909252606083015260808201939093523060a0808301919091528351808303909101815260c09091019092528151910120905092915050565b6000828152601460209081526040808320546018909252822054600d54600a0a603284612830600986900a6123b760038a0a86614427565b905061284a612843866123b78a87614427565b82906142ac565b90506128596128438385614427565b90506128756103e86123b78661286f858a6143e5565b90614427565b9050611f60836123b783670de0b6b3a7640000614427565b6001600160a01b03166000908152600a602052604090205490565b81518351146128e85760405162461bcd60e51b8152600401808060200182810382526028815260200180615ba86028913960400191505060405180910390fd5b6001600160a01b03841661292d5760405162461bcd60e51b81526004018080602001828103825260258152602001806159656025913960400191505060405180910390fd5b6129356143e1565b6001600160a01b0316856001600160a01b0316148061296057506129608561295b6143e1565b613fc0565b61299b5760405162461bcd60e51b815260040180806020018281038252603281526020018061598a6032913960400191505060405180910390fd5b60006129a56143e1565b90506129b5818787878787612b9e565b60005b8451811015612ab65760008582815181106129cf57fe5b6020026020010151905060008583815181106129e757fe5b60200260200101519050612a54816040518060600160405280602a81526020016159df602a91396001600086815260200190815260200160002060008d6001600160a01b03166001600160a01b03168152602001908152602001600020546148789092919063ffffffff16565b60008381526001602090815260408083206001600160a01b038e811685529252808320939093558a1681522054612a8b90826142ac565b60009283526001602081815260408086206001600160a01b038d1687529091529093205550016129b8565b50846001600160a01b0316866001600160a01b0316826001600160a01b03167f4a39dc06d4c0dbc64b70af90fd698a233a518aa5d07e595d983b8c0526c8f7fb8787604051808060200180602001838103835285818151815260200191508051906020019060200280838360005b83811015612b3c578181015183820152602001612b24565b50505050905001838103825284818151815260200191508051906020019060200280838360005b83811015612b7b578181015183820152602001612b63565b5050505090500194505050505060405180910390a4612b9e81878787878761490f565b505050505050565b600082815260056020526040902060020154612bc990612bc46143e1565b6134c5565b612c045760405162461bcd60e51b815260040180806020018281038252602f8152602001806157f9602f913960400191505060405180910390fd5b612c0e8282614b8e565b5050565b600c5460ff1681565b4690565b612c276143e1565b6001600160a01b0316816001600160a01b031614612c765760405162461bcd60e51b815260040180806020018281038252602f815260200180615bf1602f913960400191505060405180910390fd5b612c0e8282614bf7565b60176020526000908152604090205481565b60196020526000908152604090205481565b6001612cb03383611b06565b1015612ced5760405162461bcd60e51b8152600401808060200182810382526023815260200180615a5b6023913960400191505060405180910390fd5b6000612cf8826139b8565b600083815260176020526040902080546000190190559050612d23612d1b6143e1565b836001614c60565b612d2b6143e1565b6001600160a01b03167f7f189ad2df0843ce2bba34028497b567ecb15a53dbfb381e8b7a3f1d5ca87d718383612d6086611ba1565b612d69876139b8565b6000888152601760209081526040918290205460115483516370a0823160e01b8152306004820152935191936001600160a01b03909116926370a0823192602480840193829003018186803b158015612dc157600080fd5b505afa158015612dd5573d6000803e3d6000fd5b505050506040513d6020811015612deb57600080fd5b5051604080519687526020870195909552858501939093526060850191909152608084015260a0830152519081900360c00190a26011546001600160a01b031663e2b8e7d330612e396143e1565b846040518463ffffffff1660e01b815260040180846001600160a01b03168152602001836001600160a01b031681526020018281526020019350505050600060405180830381600087803b158015612e9057600080fd5b505af1158015612b9e573d6000803e3d6000fd5b601a5481565b60608151835114612eec5760405162461bcd60e51b8152600401808060200182810382526029815260200180615b7f6029913960400191505060405180910390fd5b6060835167ffffffffffffffff81118015612f0657600080fd5b50604051908082528060200260200182016040528015612f30578160200160208202803683370190505b50905060005b84518110156130205760006001600160a01b0316858281518110612f5657fe5b60200260200101516001600160a01b03161415612fa45760405162461bcd60e51b81526004018080602001828103825260318152602001806158746031913960400191505060405180910390fd5b60016000858381518110612fb457fe5b602002602001015181526020019081526020016000206000868381518110612fd857fe5b60200260200101516001600160a01b03166001600160a01b031681526020019081526020016000205482828151811061300d57fe5b6020908102919091010152600101612f36565b509392505050565b6130527ff6e33f9720e4529cb1c710e3344dc00830589a3239198ffa39b07117085d250e336134c5565b61305b57600080fd5b8051612c0e90600690602084019061561d565b60008481526019602052604081208054600101905561308c8561349b565b9050620f424081106130dc576040805162461bcd60e51b815260206004820152601460248201527306d617820746f6b656e206f6620313030303030360641b604482015290519081900360640190fd5b6000831180156130ed575060148311155b80156130f95750600082115b80156131085750620f42408211155b613159576040805162461bcd60e51b815260206004820152601b60248201527f76616c696420637572766520616e64206d756c7469706c696572730000000000604482015290519081900360640190fd5b60018451116131a4576040805162461bcd60e51b81526020600482015260126024820152711a9cdbdb881b5d5cdd081b9bdb881b9d5b1b60721b604482015290519081900360640190fd5b6012546001600160a01b0316634ba3d748866131be6143e1565b6040518363ffffffff1660e01b815260040180838152602001826001600160a01b0316815260200192505050602060405180830381600087803b15801561320457600080fd5b505af1158015613218573d6000803e3d6000fd5b505050506040513d602081101561322e57600080fd5b50511515600114613286576040805162461bcd60e51b815260206004820152601f60248201527f73656e646572206d757374206265206d696e696f6e206f7220776f726b657200604482015290519081900360640190fd5b600061329286836121f4565b60008181526014602090815260408083208890556018825280832087905560158252808320805460ff1916600117905580518481529081018890526060810187905260808183018181528a519183019190915289519495507f855f2403a3717b569ca6483cb3250554954ef4734871df9005e45eb9bffce8cf9486948b948b948b949093909260a0850192880191908190849084905b83811015613340578181015183820152602001613328565b50505050905090810190601f16801561336d5780820380516001836020036101000a031916815260200191505b509550505050505060405180910390a1505050505050565b6133af7ff6e33f9720e4529cb1c710e3344dc00830589a3239198ffa39b07117085d250e336134c5565b6133b857600080fd5b600081815260076020908152604090912083516133d79285019061561d565b505050565b6000806133e7612c1b565b905080612783576040805162461bcd60e51b8152602060048201526019602482015278636861696e204944206d757374206e6f74206265207a65726f60381b604482015290519081900360640190fd5b6134617ff0887ba65ee2024ea881d91b74c2450ef19e1557f03bed3ea9f16b037cbe2dc9336134c5565b61346a57600080fd5b61267884848484614480565b601b5481565b600190565b6012546001600160a01b031681565b612c0e338383614d93565b60009081526019602052604090205490565b6000828152600560205260408120611bbd9083615001565b6000828152600560205260408120611bbd908361500d565b60156020526000908152604090205460ff1681565b600081565b816001600160a01b03166135096143e1565b6001600160a01b0316141561354f5760405162461bcd60e51b8152600401808060200182810382526029815260200180615b566029913960400191505060405180910390fd5b806003600061355c6143e1565b6001600160a01b03908116825260208083019390935260409182016000908120918716808252919093529120805460ff1916921515929092179091556135a06143e1565b6001600160a01b03167f17307eab39ab6107e8899845ad3d59bd9653f200f220920489ca2b5937696c318360405180821515815260200191505060405180910390a35050565b60186020526000908152604090205481565b6060613602615022565b61363d5760405162461bcd60e51b8152600401808060200182810382526042815260200180615b146042913960600191505060405180910390fd5b61364561569b565b50604080516060810182528781526001600160a01b0389166020820152908101869052613675888287878761509f565b6136b05760405162461bcd60e51b8152600401808060200182810382526021815260200180615af36021913960400191505060405180910390fd5b6001600160a01b0388166000908152600b602090815260408083208a845290915290205460ff1615613729576040805162461bcd60e51b815260206004820181905260248201527f5245504c4159206f6620612070726576696f7573207472616e73616374696f6e604482015290519081900360640190fd5b6001600160a01b0388166000818152600b602090815260408083208b84528252808320805460ff1916600117905580519384523384830181905260609185018281528b51928601929092528a517f5845892132946850460bff5a0083f71031bc5bf9aadcd40f1de79423eac9b10b958e9592948d94919391926080850192918601918190849084905b838110156137ca5781810151838201526020016137b2565b50505050905090810190601f1680156137f75780820380516001836020036101000a031916815260200191505b5094505050505060405180910390a160006060306001600160a01b0316888b6040516020018083805190602001908083835b602083106138485780518252601f199092019160209182019101613829565b6001836020036101000a038019825116818451168082178552505050505050905001826001600160a01b031660601b8152601401925050506040516020818303038152906040526040518082805190602001908083835b602083106138be5780518252601f19909201916020918201910161389f565b6001836020036101000a0380198251168184511680821785525050505050509050019150506000604051808303816000865af19150503d8060008114613920576040519150601f19603f3d011682016040523d82523d6000602084013e613925565b606091505b50915091508161397c576040805162461bcd60e51b815260206004820152601c60248201527f46756e6374696f6e2063616c6c206e6f74207375636365737366756c00000000604482015290519081900360640190fd5b9998505050505050505050565b7ff6e33f9720e4529cb1c710e3344dc00830589a3239198ffa39b07117085d250e81565b612c0e338383614c60565b600081815260176020526040812054611bbd60646123b7605a61286f87866127f8565b6000600e5485816139e857fe5b0490506139f485613fab565b15613a42576040805162461bcd60e51b81526020600482015260196024820152781d1bdad95b881a185cc81b9bdd081899595b881b5a5b9d1959603a1b604482015290519081900360640190fd5b6012546001600160a01b0316634ba3d74882613a5c6143e1565b6040518363ffffffff1660e01b815260040180838152602001826001600160a01b0316815260200192505050602060405180830381600087803b158015613aa257600080fd5b505af1158015613ab6573d6000803e3d6000fd5b505050506040513d6020811015613acc57600080fd5b50511515600114613b0e5760405162461bcd60e51b81526004018080602001828103825260218152602001806158286021913960400191505060405180910390fd5b600083118015613b1f575060148311155b8015613b2b5750600082115b8015613b3a5750620f42408211155b613b8b576040805162461bcd60e51b815260206004820152601c60248201527f696e76616c6964206375727665206f72206d756c7469706c6965727300000000604482015290519081900360640190fd5b6001845111613bd6576040805162461bcd60e51b81526020600482015260126024820152711a9cdbdb881b5d5cdd081b9bdb881b9d5b1b60721b604482015290519081900360640190fd5b600085815260146020526040902054613c2a576040805162461bcd60e51b815260206004820152601160248201527018dd5c9d99481b5d5cdd081899481cd95d607a1b604482015290519081900360640190fd5b600085815260146020908152604080832086905560188252808320859055805188815290810186905260608101859052608081830181815288519183019190915287517f855f2403a3717b569ca6483cb3250554954ef4734871df9005e45eb9bffce8cf948a948a948a948a949193909260a0850192908801918190849084905b83811015613cc3578181015183820152602001613cab565b50505050905090810190601f168015613cf05780820380516001836020036101000a031916815260200191505b509550505050505060405180910390a15050505050565b6011546001600160a01b031681565b613d1f82613fab565b15613d6d576040805162461bcd60e51b81526020600482015260196024820152781d1bdad95b881a185cc81b9bdd081899595b881b5a5b9d1959603a1b604482015290519081900360640190fd5b600082815260146020526040902054613dc1576040805162461bcd60e51b815260206004820152601160248201527018dd5c9d99481b5d5cdd081899481cd95d607a1b604482015290519081900360640190fd5b6000600e548381613dce57fe5b60125491900491506001600160a01b0316634ba3d74882613ded6143e1565b6040518363ffffffff1660e01b815260040180838152602001826001600160a01b0316815260200192505050602060405180830381600087803b158015613e3357600080fd5b505af1158015613e47573d6000803e3d6000fd5b505050506040513d6020811015613e5d57600080fd5b50511515600114613e9f5760405162461bcd60e51b81526004018080602001828103825260218152602001806158286021913960400191505060405180910390fd5b4282108015613eae5750600082115b15613eb7574291505b600083815260166020908152604091829020849055815185815290810184905281517f6ce538f9e575f548476b624a738c3bc0bdf1ec4e465cacb3f7c67bef3926e20e929181900390910190a1505050565b604051806080016040528060528152602001615a09605291398051906020012081565b6000818152600560205260408120611b72906150c7565b6013546001600160a01b031681565b600082815260056020526040902060020154613f7090612bc46143e1565b612c765760405162461bcd60e51b81526004018080602001828103825260308152602001806159356030913960400191505060405180910390fd5b60009081526002602052604090205460ff1690565b6001600160a01b03918216600090815260036020908152604080832093909416825291909152205460ff1690565b60166020526000908152604090205481565b6001600160a01b0384166140455760405162461bcd60e51b81526004018080602001828103825260258152602001806159656025913960400191505060405180910390fd5b61404d6143e1565b6001600160a01b0316856001600160a01b0316148061407357506140738561295b6143e1565b6140ae5760405162461bcd60e51b815260040180806020018281038252602981526020018061590c6029913960400191505060405180910390fd5b60006140b86143e1565b90506140d88187876140c9886150d2565b6140d2886150d2565b87612b9e565b61411f836040518060600160405280602a81526020016159df602a913960008781526001602090815260408083206001600160a01b038d1684529091529020549190614878565b60008581526001602090815260408083206001600160a01b038b8116855292528083209390935587168152205461415690846142ac565b60008581526001602090815260408083206001600160a01b03808b168086529184529382902094909455805188815291820187905280518a8416938616927fc3d58168c5ae7397731d063d5bbf3d657854427343f4c083240f7aacaa2d0f6292908290030190a4612b9e818787878787615116565b7ff0887ba65ee2024ea881d91b74c2450ef19e1557f03bed3ea9f16b037cbe2dc981565b6000611bbd836001600160a01b038416615287565b60006001600160a01b038616158015906142a25750600161422c614227876152d1565b615354565b83868660405160008152602001604052604051808581526020018460ff1681526020018381526020018281526020019450505050506020604051602081039080840390855afa158015614283573d6000803e3d6000fd5b505050602060405103516001600160a01b0316866001600160a01b0316145b9695505050505050565b600082820183811015611bbd576040805162461bcd60e51b815260206004820152601b60248201527f536166654d6174683a206164646974696f6e206f766572666c6f770000000000604482015290519081900360640190fd5b60608161432b57506040805180820190915260018152600360fc1b6020820152611b9c565b8160005b811561434357600101600a8204915061432f565b60608167ffffffffffffffff8111801561435c57600080fd5b506040519080825280601f01601f191660200182016040528015614387576020820181803683370190505b50859350905060001982015b83156143d857600a840660300160f81b828280600190039350815181106143b657fe5b60200101906001600160f81b031916908160001a905350600a84049350614393565b50949350505050565b3390565b6000611bbd83836040518060400160405280601a81526020017f536166654d6174683a206469766973696f6e206279207a65726f0000000000008152506153a0565b60008261443657506000611b72565b8282028284828161444357fe5b0414611bbd5760405162461bcd60e51b8152600401808060200182810382526021815260200180615ad26021913960400191505060405180910390fd5b6001600160a01b0384166144c55760405162461bcd60e51b8152600401808060200182810382526021815260200180615bd06021913960400191505060405180910390fd5b60008381526002602052604090205460ff166144f5576000838152600260205260409020805460ff191660011790555b60006144ff6143e1565b9050614511816000876140c9886150d2565b60008481526001602090815260408083206001600160a01b038916845290915290205461453e90846142ac565b60008581526001602090815260408083206001600160a01b03808b16808652918452828520959095558151898152928301889052815190948616927fc3d58168c5ae7397731d063d5bbf3d657854427343f4c083240f7aacaa2d0f6292908290030190a46145b181600087878787615116565b5050505050565b6001600160a01b0384166145fd5760405162461bcd60e51b8152600401808060200182810382526021815260200180615bd06021913960400191505060405180910390fd5b815183511461463d5760405162461bcd60e51b8152600401808060200182810382526028815260200180615ba86028913960400191505060405180910390fd5b60006146476143e1565b905061465881600087878787612b9e565b60005b845181101561478e576002600086838151811061467457fe5b60209081029190910181015182528101919091526040016000205460ff166146d6576001600260008784815181106146a857fe5b6020026020010151815260200190815260200160002060006101000a81548160ff0219169083151502179055505b614745600160008784815181106146e957fe5b602002602001015181526020019081526020016000206000886001600160a01b03166001600160a01b031681526020019081526020016000205485838151811061472f57fe5b60200260200101516142ac90919063ffffffff16565b6001600087848151811061475557fe5b602090810291909101810151825281810192909252604090810160009081206001600160a01b038b16825290925290205560010161465b565b50846001600160a01b031660006001600160a01b0316826001600160a01b03167f4a39dc06d4c0dbc64b70af90fd698a233a518aa5d07e595d983b8c0526c8f7fb8787604051808060200180602001838103835285818151815260200191508051906020019060200280838360005b838110156148155781810151838201526020016147fd565b50505050905001838103825284818151815260200191508051906020019060200280838360005b8381101561485457818101518382015260200161483c565b5050505090500194505050505060405180910390a46145b18160008787878761490f565b600081848411156149075760405162461bcd60e51b81526004018080602001828103825283818151815260200191508051906020019080838360005b838110156148cc5781810151838201526020016148b4565b50505050905090810190601f1680156148f95780820380516001836020036101000a031916815260200191505b509250505060405180910390fd5b505050900390565b614921846001600160a01b0316615405565b15612b9e57836001600160a01b031663bc197c8187878686866040518663ffffffff1660e01b815260040180866001600160a01b03168152602001856001600160a01b03168152602001806020018060200180602001848103845287818151815260200191508051906020019060200280838360005b838110156149af578181015183820152602001614997565b50505050905001848103835286818151815260200191508051906020019060200280838360005b838110156149ee5781810151838201526020016149d6565b50505050905001848103825285818151815260200191508051906020019080838360005b83811015614a2a578181015183820152602001614a12565b50505050905090810190601f168015614a575780820380516001836020036101000a031916815260200191505b5098505050505050505050602060405180830381600087803b158015614a7c57600080fd5b505af1925050508015614aa157506040513d6020811015614a9c57600080fd5b505160015b614b3657614aad6156d5565b80614ab85750614aff565b60405162461bcd60e51b81526020600482018181528351602484015283518493919283926044019190850190808383600083156148cc5781810151838201526020016148b4565b60405162461bcd60e51b815260040180806020018281038252603481526020018061577b6034913960400191505060405180910390fd5b6001600160e01b0319811663bc197c8160e01b14614b855760405162461bcd60e51b81526004018080602001828103825260288152602001806157d16028913960400191505060405180910390fd5b50505050505050565b6000828152600560205260409020614ba690826141ef565b15612c0e57614bb36143e1565b6001600160a01b0316816001600160a01b0316837f2f8788117e7eff1d82e926ec794901d17c78024a50270940304540a733656f0d60405160405180910390a45050565b6000828152600560205260409020614c0f908261540b565b15612c0e57614c1c6143e1565b6001600160a01b0316816001600160a01b0316837ff6391f5c32d9c69d2a47ea670b442974b53935d1edc7fd64eb21e047a839171b60405160405180910390a45050565b6001600160a01b038316614ca55760405162461bcd60e51b81526004018080602001828103825260238152602001806159bc6023913960400191505060405180910390fd5b6000614caf6143e1565b9050614cdf81856000614cc1876150d2565b614cca876150d2565b60405180602001604052806000815250612b9e565b614d26826040518060600160405280602481526020016158e86024913960008681526001602090815260408083206001600160a01b038b1684529091529020549190614878565b60008481526001602090815260408083206001600160a01b03808a16808652918452828520959095558151888152928301879052815193949093908616927fc3d58168c5ae7397731d063d5bbf3d657854427343f4c083240f7aacaa2d0f6292908290030190a450505050565b6001600160a01b038316614dd85760405162461bcd60e51b81526004018080602001828103825260238152602001806159bc6023913960400191505060405180910390fd5b8051825114614e185760405162461bcd60e51b8152600401808060200182810382526028815260200180615ba86028913960400191505060405180910390fd5b6000614e226143e1565b9050614e4281856000868660405180602001604052806000815250612b9e565b60005b8351811015614f2057614ed7838281518110614e5d57fe5b60200260200101516040518060600160405280602481526020016158e86024913960016000888681518110614e8e57fe5b602002602001015181526020019081526020016000206000896001600160a01b03166001600160a01b03168152602001908152602001600020546148789092919063ffffffff16565b60016000868481518110614ee757fe5b602090810291909101810151825281810192909252604090810160009081206001600160a01b038a168252909252902055600101614e45565b5060006001600160a01b0316846001600160a01b0316826001600160a01b03167f4a39dc06d4c0dbc64b70af90fd698a233a518aa5d07e595d983b8c0526c8f7fb8686604051808060200180602001838103835285818151815260200191508051906020019060200280838360005b83811015614fa7578181015183820152602001614f8f565b50505050905001838103825284818151815260200191508051906020019060200280838360005b83811015614fe6578181015183820152602001614fce565b5050505090500194505050505060405180910390a450505050565b6000611bbd8383615420565b6000611bbd836001600160a01b038416615484565b601354604080516317937a0760e01b815233600482015290516000926001600160a01b0316916317937a0791602480830192602092919082900301818787803b15801561506e57600080fd5b505af1158015615082573d6000803e3d6000fd5b505050506040513d602081101561509857600080fd5b5051905090565b60006001600160a01b038616158015906142a25750600161422c6150c28761549c565b61551f565b6000611b7282615529565b60408051600180825281830190925260609182919060208083019080368337019050509050828160008151811061510557fe5b602090810291909101015292915050565b615128846001600160a01b0316615405565b15612b9e57836001600160a01b031663f23a6e6187878686866040518663ffffffff1660e01b815260040180866001600160a01b03168152602001856001600160a01b0316815260200184815260200183815260200180602001828103825283818151815260200191508051906020019080838360005b838110156151b757818101518382015260200161519f565b50505050905090810190601f1680156151e45780820380516001836020036101000a031916815260200191505b509650505050505050602060405180830381600087803b15801561520757600080fd5b505af192505050801561522c57506040513d602081101561522757600080fd5b505160015b61523857614aad6156d5565b6001600160e01b0319811663f23a6e6160e01b14614b855760405162461bcd60e51b81526004018080602001828103825260288152602001806157d16028913960400191505060405180910390fd5b60006152938383615484565b6152c957508154600181810184556000848152602080822090930184905584548482528286019093526040902091909155611b72565b506000611b72565b60006040518060800160405280604381526020016158a560439139805190602001208260000151836020015184604001518051906020012060405160200180858152602001848152602001836001600160a01b03168152602001828152602001945050505050604051602081830303815290604052805190602001209050919050565b600061535e61267e565b82604051602001808061190160f01b81525060020183815260200182815260200192505050604051602081830303815290604052805190602001209050919050565b600081836153ef5760405162461bcd60e51b81526020600482018181528351602484015283519092839260449091019190850190808383600083156148cc5781810151838201526020016148b4565b5060008385816153fb57fe5b0495945050505050565b3b151590565b6000611bbd836001600160a01b03841661552d565b815460009082106154625760405162461bcd60e51b81526004018080602001828103825260228152602001806157af6022913960400191505060405180910390fd5b82600001828154811061547157fe5b9060005260206000200154905092915050565b60009081526001919091016020526040902054151590565b6000604051806080016040528060548152602001615a7e60549139805190602001208260000151836020015184604001518051906020012060405160200180858152602001848152602001836001600160a01b03168152602001828152602001945050505050604051602081830303815290604052805190602001209050919050565b600061535e6121ff565b5490565b600081815260018301602052604081205480156155e9578354600019808301919081019060009087908390811061556057fe5b906000526020600020015490508087600001848154811061557d57fe5b6000918252602080832090910192909255828152600189810190925260409020908401905586548790806155ad57fe5b60019003818190600052602060002001600090559055866001016000878152602001908152602001600020600090556001945050505050611b72565b6000915050611b72565b60405180606001604052806000815260200160006001600160a01b03168152602001606081525090565b828054600181600116156101000203166002900490600052602060002090601f016020900481019282601f1061565e57805160ff191683800117855561568b565b8280016001018555821561568b579182015b8281111561568b578251825591602001919060010190615670565b506156979291506156ba565b5090565b6040805160608082018352600080835260208301529181019190915290565b5b8082111561569757600081556001016156bb565b60e01c90565b600060443d10156156e557612203565b600481823e6308c379a06156f982516156cf565b1461570357612203565b6040513d600319016004823e80513d67ffffffffffffffff81602484011181841117156157335750505050612203565b8284019250825191508082111561574d5750505050612203565b503d8301602082840101111561576557505050612203565b601f01601f191681016020016040529150509056fe455243313135353a207472616e7366657220746f206e6f6e2045524331313535526563656976657220696d706c656d656e746572456e756d657261626c655365743a20696e646578206f7574206f6620626f756e6473455243313135353a204552433131353552656365697665722072656a656374656420746f6b656e73416363657373436f6e74726f6c3a2073656e646572206d75737420626520616e2061646d696e20746f206772616e7473656e646572206d757374206265206f70657261746f72206f7220776f726b6572455243313135353a2062616c616e636520717565727920666f7220746865207a65726f2061646472657373455243313135353a2062617463682062616c616e636520717565727920666f7220746865207a65726f20616464726573734d6574615472616e73616374696f6e2875696e74323536206e6f6e63652c616464726573732066726f6d2c62797465732066756e6374696f6e5369676e617475726529455243313135353a206275726e20616d6f756e7420657863656564732062616c616e6365455243313135353a2063616c6c6572206973206e6f74206f776e6572206e6f7220617070726f766564416363657373436f6e74726f6c3a2073656e646572206d75737420626520616e2061646d696e20746f207265766f6b65455243313135353a207472616e7366657220746f20746865207a65726f2061646472657373455243313135353a207472616e736665722063616c6c6572206973206e6f74206f776e6572206e6f7220617070726f766564455243313135353a206275726e2066726f6d20746865207a65726f2061646472657373455243313135353a20696e73756666696369656e742062616c616e636520666f72207472616e73666572454950373132446f6d61696e28737472696e67206e616d652c737472696e672076657273696f6e2c75696e7432353620636861696e49642c6164647265737320766572696679696e67436f6e74726163742973656e646572206d7573742068617665206174206c65617374206f6e6520746f6b656e576f726b65724d6574615472616e73616374696f6e2862797465733332207265706c617950726576656e74696f6e2c616464726573732066726f6d2c62797465732066756e6374696f6e5369676e617475726529536166654d6174683a206d756c7469706c69636174696f6e206f766572666c6f775369676e657220616e64207369676e617475726520646f206e6f74206d61746368576f726b6572204d6574612d5472616e73616374696f6e2073656e74206279206163636f756e74206f74686572207468616e206120776f726b65722f6d696e696f6e455243313135353a2073657474696e6720617070726f76616c2073746174757320666f722073656c66455243313135353a206163636f756e747320616e6420696473206c656e677468206d69736d61746368455243313135353a2069647320616e6420616d6f756e7473206c656e677468206d69736d61746368455243313135353a206d696e7420746f20746865207a65726f2061646472657373416363657373436f6e74726f6c3a2063616e206f6e6c792072656e6f756e636520726f6c657320666f722073656c66a264697066735822122023c0f8081b01fb9a0ed2fa6a23d9d514f213d3e2cf6a2ba96773790e070c526d64736f6c63430007030033f0887ba65ee2024ea881d91b74c2450ef19e1557f03bed3ea9f16b037cbe2dc9f6e33f9720e4529cb1c710e3344dc00830589a3239198ffa39b07117085d250e454950373132446f6d61696e28737472696e67206e616d652c737472696e672076657273696f6e2c75696e7432353620636861696e49642c6164647265737320766572696679696e67436f6e747261637429",
  "linkReferences": {},
  "deployedLinkReferences": {}
}