{
  "_format": "hh-sol-artifact-1",
  "contractName": "bondingSale",
  "sourceName": "contracts/bondingSale.sol",
  "abi": [
    {
      "inputs": [
        {
          "internalType": "address",
          "name": "_gameToken",
          "type": "address"
        },
        {
          "internalType": "address",
          "name": "_gameAdmin",
          "type": "address"
        },
        {
          "internalType": "address",
          "name": "_gameMaster",
          "type": "address"
        }
      ],
      "stateMutability": "nonpayable",
      "type": "constructor"
    },
    {
      "anonymous": false,
      "inputs": [
        {
          "indexed": true,
          "internalType": "address",
          "name": "account",
          "type": "address"
        },
        {
          "indexed": true,
          "internalType": "address",
          "name": "operator",
          "type": "address"
        },
        {
          "indexed": false,
          "internalType": "bool",
          "name": "approved",
          "type": "bool"
        }
      ],
      "name": "ApprovalForAll",
      "type": "event"
    },
    {
      "anonymous": false,
      "inputs": [
        {
          "indexed": false,
          "internalType": "address",
          "name": "userAddress",
          "type": "address"
        },
        {
          "indexed": false,
          "internalType": "address payable",
          "name": "relayerAddress",
          "type": "address"
        },
        {
          "indexed": false,
          "internalType": "bytes",
          "name": "functionSignature",
          "type": "bytes"
        }
      ],
      "name": "MetaTransactionExecuted",
      "type": "event"
    },
    {
      "anonymous": false,
      "inputs": [
        {
          "indexed": true,
          "internalType": "bytes32",
          "name": "role",
          "type": "bytes32"
        },
        {
          "indexed": true,
          "internalType": "bytes32",
          "name": "previousAdminRole",
          "type": "bytes32"
        },
        {
          "indexed": true,
          "internalType": "bytes32",
          "name": "newAdminRole",
          "type": "bytes32"
        }
      ],
      "name": "RoleAdminChanged",
      "type": "event"
    },
    {
      "anonymous": false,
      "inputs": [
        {
          "indexed": true,
          "internalType": "bytes32",
          "name": "role",
          "type": "bytes32"
        },
        {
          "indexed": true,
          "internalType": "address",
          "name": "account",
          "type": "address"
        },
        {
          "indexed": true,
          "internalType": "address",
          "name": "sender",
          "type": "address"
        }
      ],
      "name": "RoleGranted",
      "type": "event"
    },
    {
      "anonymous": false,
      "inputs": [
        {
          "indexed": true,
          "internalType": "bytes32",
          "name": "role",
          "type": "bytes32"
        },
        {
          "indexed": true,
          "internalType": "address",
          "name": "account",
          "type": "address"
        },
        {
          "indexed": true,
          "internalType": "address",
          "name": "sender",
          "type": "address"
        }
      ],
      "name": "RoleRevoked",
      "type": "event"
    },
    {
      "anonymous": false,
      "inputs": [
        {
          "indexed": true,
          "internalType": "address",
          "name": "to",
          "type": "address"
        },
        {
          "indexed": false,
          "internalType": "uint256",
          "name": "id",
          "type": "uint256"
        },
        {
          "indexed": false,
          "internalType": "uint256",
          "name": "pricePaid",
          "type": "uint256"
        },
        {
          "indexed": false,
          "internalType": "uint256",
          "name": "nextPrintPrice",
          "type": "uint256"
        },
        {
          "indexed": false,
          "internalType": "uint256",
          "name": "nextBurnPrice",
          "type": "uint256"
        },
        {
          "indexed": false,
          "internalType": "uint256",
          "name": "tokenSupply",
          "type": "uint256"
        },
        {
          "indexed": false,
          "internalType": "uint256",
          "name": "royaltyPaid",
          "type": "uint256"
        },
        {
          "indexed": false,
          "internalType": "uint256",
          "name": "reserve",
          "type": "uint256"
        },
        {
          "indexed": true,
          "internalType": "address",
          "name": "royaltyRecipient",
          "type": "address"
        }
      ],
      "name": "TokenBought",
      "type": "event"
    },
    {
      "anonymous": false,
      "inputs": [
        {
          "indexed": true,
          "internalType": "address",
          "name": "to",
          "type": "address"
        },
        {
          "indexed": false,
          "internalType": "uint256",
          "name": "id",
          "type": "uint256"
        },
        {
          "indexed": false,
          "internalType": "uint256",
          "name": "priceReceived",
          "type": "uint256"
        },
        {
          "indexed": false,
          "internalType": "uint256",
          "name": "nextPrintPrice",
          "type": "uint256"
        },
        {
          "indexed": false,
          "internalType": "uint256",
          "name": "nextBurnPrice",
          "type": "uint256"
        },
        {
          "indexed": false,
          "internalType": "uint256",
          "name": "printsSupply",
          "type": "uint256"
        },
        {
          "indexed": false,
          "internalType": "uint256",
          "name": "reserve",
          "type": "uint256"
        }
      ],
      "name": "TokenBurned",
      "type": "event"
    },
    {
      "anonymous": false,
      "inputs": [
        {
          "indexed": false,
          "internalType": "uint256",
          "name": "tokenId",
          "type": "uint256"
        },
        {
          "indexed": false,
          "internalType": "string",
          "name": "json",
          "type": "string"
        },
        {
          "indexed": false,
          "internalType": "uint256",
          "name": "curve",
          "type": "uint256"
        },
        {
          "indexed": false,
          "internalType": "uint256",
          "name": "multiplier",
          "type": "uint256"
        }
      ],
      "name": "TokenData",
      "type": "event"
    },
    {
      "anonymous": false,
      "inputs": [
        {
          "indexed": false,
          "internalType": "uint256",
          "name": "id",
          "type": "uint256"
        },
        {
          "indexed": false,
          "internalType": "uint256",
          "name": "date",
          "type": "uint256"
        }
      ],
      "name": "TokenOnSale",
      "type": "event"
    },
    {
      "anonymous": false,
      "inputs": [
        {
          "indexed": true,
          "internalType": "address",
          "name": "operator",
          "type": "address"
        },
        {
          "indexed": true,
          "internalType": "address",
          "name": "from",
          "type": "address"
        },
        {
          "indexed": true,
          "internalType": "address",
          "name": "to",
          "type": "address"
        },
        {
          "indexed": false,
          "internalType": "uint256[]",
          "name": "ids",
          "type": "uint256[]"
        },
        {
          "indexed": false,
          "internalType": "uint256[]",
          "name": "values",
          "type": "uint256[]"
        }
      ],
      "name": "TransferBatch",
      "type": "event"
    },
    {
      "anonymous": false,
      "inputs": [
        {
          "indexed": true,
          "internalType": "address",
          "name": "operator",
          "type": "address"
        },
        {
          "indexed": true,
          "internalType": "address",
          "name": "from",
          "type": "address"
        },
        {
          "indexed": true,
          "internalType": "address",
          "name": "to",
          "type": "address"
        },
        {
          "indexed": false,
          "internalType": "uint256",
          "name": "id",
          "type": "uint256"
        },
        {
          "indexed": false,
          "internalType": "uint256",
          "name": "value",
          "type": "uint256"
        }
      ],
      "name": "TransferSingle",
      "type": "event"
    },
    {
      "anonymous": false,
      "inputs": [
        {
          "indexed": false,
          "internalType": "string",
          "name": "value",
          "type": "string"
        },
        {
          "indexed": true,
          "internalType": "uint256",
          "name": "id",
          "type": "uint256"
        }
      ],
      "name": "URI",
      "type": "event"
    },
    {
      "inputs": [],
      "name": "BURNER",
      "outputs": [
        {
          "internalType": "bytes32",
          "name": "",
          "type": "bytes32"
        }
      ],
      "stateMutability": "view",
      "type": "function"
    },
    {
      "inputs": [],
      "name": "CONTRACT_ERC712_NAME",
      "outputs": [
        {
          "internalType": "string",
          "name": "",
          "type": "string"
        }
      ],
      "stateMutability": "view",
      "type": "function"
    },
    {
      "inputs": [],
      "name": "CONTRACT_ERC712_VERSION",
      "outputs": [
        {
          "internalType": "string",
          "name": "",
          "type": "string"
        }
      ],
      "stateMutability": "view",
      "type": "function"
    },
    {
      "inputs": [
        {
          "internalType": "uint256",
          "name": "creatorId",
          "type": "uint256"
        },
        {
          "internalType": "string",
          "name": "json",
          "type": "string"
        },
        {
          "internalType": "uint256",
          "name": "curve",
          "type": "uint256"
        },
        {
          "internalType": "uint256",
          "name": "multiplier",
          "type": "uint256"
        }
      ],
      "name": "CreateToken",
      "outputs": [],
      "stateMutability": "nonpayable",
      "type": "function"
    },
    {
      "inputs": [],
      "name": "DEFAULT_ADMIN_ROLE",
      "outputs": [
        {
          "internalType": "bytes32",
          "name": "",
          "type": "bytes32"
        }
      ],
      "stateMutability": "view",
      "type": "function"
    },
    {
      "inputs": [],
      "name": "EIP712_DOMAIN_TYPEHASH",
      "outputs": [
        {
          "internalType": "bytes32",
          "name": "",
          "type": "bytes32"
        }
      ],
      "stateMutability": "view",
      "type": "function"
    },
    {
      "inputs": [],
      "name": "MAX_PRICE",
      "outputs": [
        {
          "internalType": "uint256",
          "name": "",
          "type": "uint256"
        }
      ],
      "stateMutability": "view",
      "type": "function"
    },
    {
      "inputs": [],
      "name": "METADATA_ADMIN",
      "outputs": [
        {
          "internalType": "bytes32",
          "name": "",
          "type": "bytes32"
        }
      ],
      "stateMutability": "view",
      "type": "function"
    },
    {
      "inputs": [],
      "name": "MINTER",
      "outputs": [
        {
          "internalType": "bytes32",
          "name": "",
          "type": "bytes32"
        }
      ],
      "stateMutability": "view",
      "type": "function"
    },
    {
      "inputs": [
        {
          "internalType": "uint256",
          "name": "tokenId",
          "type": "uint256"
        },
        {
          "internalType": "uint256",
          "name": "onSaleDate",
          "type": "uint256"
        }
      ],
      "name": "SetTokenOnSaleDate",
      "outputs": [],
      "stateMutability": "nonpayable",
      "type": "function"
    },
    {
      "inputs": [
        {
          "internalType": "uint256",
          "name": "",
          "type": "uint256"
        }
      ],
      "name": "TokenSupply",
      "outputs": [
        {
          "internalType": "uint256",
          "name": "",
          "type": "uint256"
        }
      ],
      "stateMutability": "view",
      "type": "function"
    },
    {
      "inputs": [
        {
          "internalType": "uint256",
          "name": "tokenId",
          "type": "uint256"
        },
        {
          "internalType": "string",
          "name": "json",
          "type": "string"
        },
        {
          "internalType": "uint256",
          "name": "curve",
          "type": "uint256"
        },
        {
          "internalType": "uint256",
          "name": "multiplier",
          "type": "uint256"
        }
      ],
      "name": "UpdateTokenData",
      "outputs": [],
      "stateMutability": "nonpayable",
      "type": "function"
    },
    {
      "inputs": [
        {
          "internalType": "uint256",
          "name": "",
          "type": "uint256"
        }
      ],
      "name": "_tokenURIs",
      "outputs": [
        {
          "internalType": "string",
          "name": "",
          "type": "string"
        }
      ],
      "stateMutability": "view",
      "type": "function"
    },
    {
      "inputs": [
        {
          "internalType": "address",
          "name": "account",
          "type": "address"
        },
        {
          "internalType": "uint256",
          "name": "id",
          "type": "uint256"
        }
      ],
      "name": "balanceOf",
      "outputs": [
        {
          "internalType": "uint256",
          "name": "",
          "type": "uint256"
        }
      ],
      "stateMutability": "view",
      "type": "function"
    },
    {
      "inputs": [
        {
          "internalType": "address[]",
          "name": "accounts",
          "type": "address[]"
        },
        {
          "internalType": "uint256[]",
          "name": "ids",
          "type": "uint256[]"
        }
      ],
      "name": "balanceOfBatch",
      "outputs": [
        {
          "internalType": "uint256[]",
          "name": "",
          "type": "uint256[]"
        }
      ],
      "stateMutability": "view",
      "type": "function"
    },
    {
      "inputs": [
        {
          "internalType": "uint256",
          "name": "tokenId",
          "type": "uint256"
        }
      ],
      "name": "burn",
      "outputs": [],
      "stateMutability": "nonpayable",
      "type": "function"
    },
    {
      "inputs": [],
      "name": "burningActive",
      "outputs": [
        {
          "internalType": "bool",
          "name": "",
          "type": "bool"
        }
      ],
      "stateMutability": "view",
      "type": "function"
    },
    {
      "inputs": [
        {
          "internalType": "uint256",
          "name": "tokenId",
          "type": "uint256"
        },
        {
          "internalType": "uint256",
          "name": "maxPrice",
          "type": "uint256"
        }
      ],
      "name": "buyNFTwithGAME",
      "outputs": [],
      "stateMutability": "nonpayable",
      "type": "function"
    },
    {
      "inputs": [
        {
          "internalType": "uint256",
          "name": "",
          "type": "uint256"
        }
      ],
      "name": "curves",
      "outputs": [
        {
          "internalType": "uint256",
          "name": "",
          "type": "uint256"
        }
      ],
      "stateMutability": "view",
      "type": "function"
    },
    {
      "inputs": [
        {
          "internalType": "string",
          "name": "name",
          "type": "string"
        },
        {
          "internalType": "string",
          "name": "version",
          "type": "string"
        }
      ],
      "name": "encodeDomainSeperator",
      "outputs": [
        {
          "internalType": "bytes32",
          "name": "",
          "type": "bytes32"
        }
      ],
      "stateMutability": "view",
      "type": "function"
    },
    {
      "inputs": [
        {
          "internalType": "string",
          "name": "name",
          "type": "string"
        },
        {
          "internalType": "string",
          "name": "version",
          "type": "string"
        }
      ],
      "name": "encodeWorkerDomainSeperator",
      "outputs": [
        {
          "internalType": "bytes32",
          "name": "",
          "type": "bytes32"
        }
      ],
      "stateMutability": "view",
      "type": "function"
    },
    {
      "inputs": [
        {
          "internalType": "address",
          "name": "userAddress",
          "type": "address"
        },
        {
          "internalType": "bytes",
          "name": "functionSignature",
          "type": "bytes"
        },
        {
          "internalType": "bytes32",
          "name": "sigR",
          "type": "bytes32"
        },
        {
          "internalType": "bytes32",
          "name": "sigS",
          "type": "bytes32"
        },
        {
          "internalType": "uint8",
          "name": "sigV",
          "type": "uint8"
        }
      ],
      "name": "executeMetaTransaction",
      "outputs": [
        {
          "internalType": "bytes",
          "name": "",
          "type": "bytes"
        }
      ],
      "stateMutability": "payable",
      "type": "function"
    },
    {
      "inputs": [],
      "name": "gameAdmin",
      "outputs": [
        {
          "internalType": "contract iGAME_Game",
          "name": "",
          "type": "address"
        }
      ],
      "stateMutability": "view",
      "type": "function"
    },
    {
      "inputs": [],
      "name": "gameToken",
      "outputs": [
        {
          "internalType": "contract iGAME_ERC20",
          "name": "",
          "type": "address"
        }
      ],
      "stateMutability": "view",
      "type": "function"
    },
    {
      "inputs": [
        {
          "internalType": "uint256",
          "name": "tokenId",
          "type": "uint256"
        }
      ],
      "name": "getBuyPrice",
      "outputs": [
        {
          "internalType": "uint256",
          "name": "",
          "type": "uint256"
        }
      ],
      "stateMutability": "view",
      "type": "function"
    },
    {
      "inputs": [],
      "name": "getChainId",
      "outputs": [
        {
          "internalType": "uint256",
          "name": "",
          "type": "uint256"
        }
      ],
      "stateMutability": "pure",
      "type": "function"
    },
    {
      "inputs": [],
      "name": "getDomainSeperator",
      "outputs": [
        {
          "internalType": "bytes32",
          "name": "",
          "type": "bytes32"
        }
      ],
      "stateMutability": "view",
      "type": "function"
    },
    {
      "inputs": [
        {
          "internalType": "uint256",
          "name": "creator",
          "type": "uint256"
        }
      ],
      "name": "getNextTokenID",
      "outputs": [
        {
          "internalType": "uint256",
          "name": "",
          "type": "uint256"
        }
      ],
      "stateMutability": "view",
      "type": "function"
    },
    {
      "inputs": [
        {
          "internalType": "address",
          "name": "user",
          "type": "address"
        }
      ],
      "name": "getNonce",
      "outputs": [
        {
          "internalType": "uint256",
          "name": "nonce",
          "type": "uint256"
        }
      ],
      "stateMutability": "view",
      "type": "function"
    },
    {
      "inputs": [
        {
          "internalType": "uint256",
          "name": "tokenId",
          "type": "uint256"
        },
        {
          "internalType": "uint256",
          "name": "printNumber",
          "type": "uint256"
        }
      ],
      "name": "getPrintPrice",
      "outputs": [
        {
          "internalType": "uint256",
          "name": "",
          "type": "uint256"
        }
      ],
      "stateMutability": "view",
      "type": "function"
    },
    {
      "inputs": [
        {
          "internalType": "bytes32",
          "name": "role",
          "type": "bytes32"
        }
      ],
      "name": "getRoleAdmin",
      "outputs": [
        {
          "internalType": "bytes32",
          "name": "",
          "type": "bytes32"
        }
      ],
      "stateMutability": "view",
      "type": "function"
    },
    {
      "inputs": [
        {
          "internalType": "bytes32",
          "name": "role",
          "type": "bytes32"
        },
        {
          "internalType": "uint256",
          "name": "index",
          "type": "uint256"
        }
      ],
      "name": "getRoleMember",
      "outputs": [
        {
          "internalType": "address",
          "name": "",
          "type": "address"
        }
      ],
      "stateMutability": "view",
      "type": "function"
    },
    {
      "inputs": [
        {
          "internalType": "bytes32",
          "name": "role",
          "type": "bytes32"
        }
      ],
      "name": "getRoleMemberCount",
      "outputs": [
        {
          "internalType": "uint256",
          "name": "",
          "type": "uint256"
        }
      ],
      "stateMutability": "view",
      "type": "function"
    },
    {
      "inputs": [
        {
          "internalType": "uint256",
          "name": "tokenId",
          "type": "uint256"
        }
      ],
      "name": "getSellPrice",
      "outputs": [
        {
          "internalType": "uint256",
          "name": "",
          "type": "uint256"
        }
      ],
      "stateMutability": "view",
      "type": "function"
    },
    {
      "inputs": [
        {
          "internalType": "uint256",
          "name": "_creatorID",
          "type": "uint256"
        },
        {
          "internalType": "uint256",
          "name": "token",
          "type": "uint256"
        }
      ],
      "name": "getTokenID",
      "outputs": [
        {
          "internalType": "uint256",
          "name": "",
          "type": "uint256"
        }
      ],
      "stateMutability": "view",
      "type": "function"
    },
    {
      "inputs": [],
      "name": "getWorkerDomainSeperator",
      "outputs": [
        {
          "internalType": "bytes32",
          "name": "",
          "type": "bytes32"
        }
      ],
      "stateMutability": "view",
      "type": "function"
    },
    {
      "inputs": [
        {
          "internalType": "bytes32",
          "name": "role",
          "type": "bytes32"
        },
        {
          "internalType": "address",
          "name": "account",
          "type": "address"
        }
      ],
      "name": "grantRole",
      "outputs": [],
      "stateMutability": "nonpayable",
      "type": "function"
    },
    {
      "inputs": [
        {
          "internalType": "uint256",
          "name": "id",
          "type": "uint256"
        }
      ],
      "name": "hasMinted",
      "outputs": [
        {
          "internalType": "bool",
          "name": "",
          "type": "bool"
        }
      ],
      "stateMutability": "view",
      "type": "function"
    },
    {
      "inputs": [
        {
          "internalType": "bytes32",
          "name": "role",
          "type": "bytes32"
        },
        {
          "internalType": "address",
          "name": "account",
          "type": "address"
        }
      ],
      "name": "hasRole",
      "outputs": [
        {
          "internalType": "bool",
          "name": "",
          "type": "bool"
        }
      ],
      "stateMutability": "view",
      "type": "function"
    },
    {
      "inputs": [
        {
          "internalType": "address",
          "name": "account",
          "type": "address"
        },
        {
          "internalType": "address",
          "name": "operator",
          "type": "address"
        }
      ],
      "name": "isApprovedForAll",
      "outputs": [
        {
          "internalType": "bool",
          "name": "",
          "type": "bool"
        }
      ],
      "stateMutability": "view",
      "type": "function"
    },
    {
      "inputs": [],
      "name": "isLocalContract",
      "outputs": [
        {
          "internalType": "bool",
          "name": "",
          "type": "bool"
        }
      ],
      "stateMutability": "pure",
      "type": "function"
    },
    {
      "inputs": [],
      "name": "masterContract",
      "outputs": [
        {
          "internalType": "contract iGAME_Master",
          "name": "",
          "type": "address"
        }
      ],
      "stateMutability": "view",
      "type": "function"
    },
    {
      "inputs": [],
      "name": "mintingActive",
      "outputs": [
        {
          "internalType": "bool",
          "name": "",
          "type": "bool"
        }
      ],
      "stateMutability": "view",
      "type": "function"
    },
    {
      "inputs": [],
      "name": "multiple",
      "outputs": [
        {
          "internalType": "uint256",
          "name": "",
          "type": "uint256"
        }
      ],
      "stateMutability": "view",
      "type": "function"
    },
    {
      "inputs": [
        {
          "internalType": "uint256",
          "name": "",
          "type": "uint256"
        }
      ],
      "name": "multipliers",
      "outputs": [
        {
          "internalType": "uint256",
          "name": "",
          "type": "uint256"
        }
      ],
      "stateMutability": "view",
      "type": "function"
    },
    {
      "inputs": [
        {
          "internalType": "uint256",
          "name": "",
          "type": "uint256"
        }
      ],
      "name": "nextTokenIDs",
      "outputs": [
        {
          "internalType": "uint256",
          "name": "",
          "type": "uint256"
        }
      ],
      "stateMutability": "view",
      "type": "function"
    },
    {
      "inputs": [
        {
          "internalType": "bytes32",
          "name": "role",
          "type": "bytes32"
        },
        {
          "internalType": "address",
          "name": "account",
          "type": "address"
        }
      ],
      "name": "renounceRole",
      "outputs": [],
      "stateMutability": "nonpayable",
      "type": "function"
    },
    {
      "inputs": [
        {
          "internalType": "bytes32",
          "name": "role",
          "type": "bytes32"
        },
        {
          "internalType": "address",
          "name": "account",
          "type": "address"
        }
      ],
      "name": "revokeRole",
      "outputs": [],
      "stateMutability": "nonpayable",
      "type": "function"
    },
    {
      "inputs": [
        {
          "internalType": "address",
          "name": "from",
          "type": "address"
        },
        {
          "internalType": "address",
          "name": "to",
          "type": "address"
        },
        {
          "internalType": "uint256[]",
          "name": "ids",
          "type": "uint256[]"
        },
        {
          "internalType": "uint256[]",
          "name": "amounts",
          "type": "uint256[]"
        },
        {
          "internalType": "bytes",
          "name": "data",
          "type": "bytes"
        }
      ],
      "name": "safeBatchTransferFrom",
      "outputs": [],
      "stateMutability": "nonpayable",
      "type": "function"
    },
    {
      "inputs": [
        {
          "internalType": "address",
          "name": "from",
          "type": "address"
        },
        {
          "internalType": "address",
          "name": "to",
          "type": "address"
        },
        {
          "internalType": "uint256",
          "name": "id",
          "type": "uint256"
        },
        {
          "internalType": "uint256",
          "name": "amount",
          "type": "uint256"
        },
        {
          "internalType": "bytes",
          "name": "data",
          "type": "bytes"
        }
      ],
      "name": "safeTransferFrom",
      "outputs": [],
      "stateMutability": "nonpayable",
      "type": "function"
    },
    {
      "inputs": [
        {
          "internalType": "uint256",
          "name": "",
          "type": "uint256"
        }
      ],
      "name": "saleStarts",
      "outputs": [
        {
          "internalType": "uint256",
          "name": "",
          "type": "uint256"
        }
      ],
      "stateMutability": "view",
      "type": "function"
    },
    {
      "inputs": [
        {
          "internalType": "address",
          "name": "operator",
          "type": "address"
        },
        {
          "internalType": "bool",
          "name": "approved",
          "type": "bool"
        }
      ],
      "name": "setApprovalForAll",
      "outputs": [],
      "stateMutability": "nonpayable",
      "type": "function"
    },
    {
      "inputs": [
        {
          "internalType": "string",
          "name": "newuri",
          "type": "string"
        }
      ],
      "name": "setBaseURI",
      "outputs": [],
      "stateMutability": "nonpayable",
      "type": "function"
    },
    {
      "inputs": [
        {
          "internalType": "address",
          "name": "a",
          "type": "address"
        }
      ],
      "name": "setFEERECEIVER",
      "outputs": [],
      "stateMutability": "nonpayable",
      "type": "function"
    },
    {
      "inputs": [
        {
          "internalType": "string",
          "name": "newuri",
          "type": "string"
        },
        {
          "internalType": "uint256",
          "name": "id",
          "type": "uint256"
        }
      ],
      "name": "setURI",
      "outputs": [],
      "stateMutability": "nonpayable",
      "type": "function"
    },
    {
      "inputs": [
        {
          "internalType": "bytes4",
          "name": "interfaceId",
          "type": "bytes4"
        }
      ],
      "name": "supportsInterface",
      "outputs": [
        {
          "internalType": "bool",
          "name": "",
          "type": "bool"
        }
      ],
      "stateMutability": "view",
      "type": "function"
    },
    {
      "inputs": [],
      "name": "toggleTokenBurning",
      "outputs": [],
      "stateMutability": "nonpayable",
      "type": "function"
    },
    {
      "inputs": [],
      "name": "toggleTokenMinting",
      "outputs": [],
      "stateMutability": "nonpayable",
      "type": "function"
    },
    {
      "inputs": [
        {
          "internalType": "address",
          "name": "contract_",
          "type": "address"
        },
        {
          "internalType": "bool",
          "name": "isLocal_",
          "type": "bool"
        }
      ],
      "name": "updateLocalContract",
      "outputs": [],
      "stateMutability": "nonpayable",
      "type": "function"
    },
    {
      "inputs": [
        {
          "internalType": "uint256",
          "name": "tokenid",
          "type": "uint256"
        }
      ],
      "name": "uri",
      "outputs": [
        {
          "internalType": "string",
          "name": "",
          "type": "string"
        }
      ],
      "stateMutability": "view",
      "type": "function"
    },
    {
      "inputs": [
        {
          "internalType": "address",
          "name": "userAddress_",
          "type": "address"
        },
        {
          "internalType": "bytes32",
          "name": "replayPrevention_",
          "type": "bytes32"
        },
        {
          "internalType": "bytes",
          "name": "functionSignature_",
          "type": "bytes"
        },
        {
          "internalType": "bytes32",
          "name": "sigR_",
          "type": "bytes32"
        },
        {
          "internalType": "bytes32",
          "name": "sigS_",
          "type": "bytes32"
        },
        {
          "internalType": "uint8",
          "name": "sigV_",
          "type": "uint8"
        }
      ],
      "name": "workerExecuteMetaTransaction",
      "outputs": [
        {
          "internalType": "bytes",
          "name": "",
          "type": "bytes"
        }
      ],
      "stateMutability": "payable",
      "type": "function"
    }
  ],
  "bytecode": "0x60806040526003600f55670de0b6b3a76400006010556ec097ce7bc90715b34b9f100000000060115562989680601c553480156200003c57600080fd5b5060405162005bc638038062005bc6833981810160405260608110156200006257600080fd5b50805160208083015160409384015184518086018652601381527f47414d4520426f6e64696e672043757276657300000000000000000000000000818501528551808701875260018152603160f81b81860152865180880190975260048752631d195cdd60e21b94870194909452939491939092909182908290620000ee6301ffc9a760e01b62000245565b62000100636cdb3d1360e11b62000245565b620001126303a24d0760e21b62000245565b62000128600062000122620002ca565b620002ce565b6200014660008051602062005b5483398151915262000122620002ca565b6200016460008051602062005b3483398151915262000122620002ca565b62000180600060008051602062005b34833981519152620002de565b6200019c600060008051602062005b54833981519152620002de565b8051620001b1906006906020840190620005aa565b50620001c09050828262000330565b600855620001cf828262000409565b60095550508051620001e990600b906020840190620005aa565b508151620001ff90600c906020850190620005aa565b5050601380546001600160a01b039586166001600160a01b0319918216179091556014805494861694821694909417909355506015805491909316911617905562000646565b6001600160e01b03198082161415620002a5576040805162461bcd60e51b815260206004820152601c60248201527f4552433136353a20696e76616c696420696e7465726661636520696400000000604482015290519081900360640190fd5b6001600160e01b0319166000908152602081905260409020805460ff19166001179055565b3390565b620002da8282620004a6565b5050565b600082815260056020526040808220600201549051839285917fbd79b86ffe0ab8e8776151514217cd7cacd52c909f66475c3af44e129f0b00ff9190a460009182526005602052604090912060020155565b6000806200033d62000521565b90508062000392576040805162461bcd60e51b815260206004820152601960248201527f636861696e204944206d757374206e6f74206265207a65726f00000000000000604482015290519081900360640190fd5b60405180608001604052806052815260200162005b74605291398051602091820120855186830120855186840120604080518086019490945283810192909252606083015260808201939093523060a0808301919091528351808303909101815260c0909101909252815191012090505b92915050565b6000806200041662000521565b90508060891480620004285750806001145b6200044a578062013881146200044157617a6962000444565b60055b6200044d565b60015b61ffff1690508062000392576040805162461bcd60e51b815260206004820152601960248201527f636861696e204944206d757374206e6f74206265207a65726f00000000000000604482015290519081900360640190fd5b6000828152600560209081526040909120620004cd91839062003e8362000525821b17901c565b15620002da57620004dd620002ca565b6001600160a01b0316816001600160a01b0316837f2f8788117e7eff1d82e926ec794901d17c78024a50270940304540a733656f0d60405160405180910390a45050565b4690565b60006200053c836001600160a01b03841662000543565b9392505050565b600062000551838362000592565b620005895750815460018181018455600084815260208082209093018490558454848252828601909352604090209190915562000403565b50600062000403565b60009081526001919091016020526040902054151590565b828054600181600116156101000203166002900490600052602060002090601f016020900481019282601f10620005ed57805160ff19168380011785556200061d565b828001600101855582156200061d579182015b828111156200061d57825182559160200191906001019062000600565b506200062b9291506200062f565b5090565b5b808211156200062b576000815560010162000630565b6154de80620006566000396000f3fe6080604052600436106103a15760003560e01c80634e1273f4116101e7578063b1de303e1161010d578063d547741f116100a0578063ec7982571161006f578063ec79825714611574578063f242432a1461159e578063f40c96ab14611674578063fe6d812414611689576103a1565b8063d547741f146114c1578063e1a1a66c146114fa578063e5b955951461150f578063e985e9c514611539576103a1565b8063c707562d116100dc578063c707562d1461143d578063c7977be71461146d578063ca15c87314611482578063cd446e22146114ac576103a1565b8063b1de303e1461132c578063ba730e5314611341578063ba84be071461136b578063c3dfdae614611428576103a1565b806376adcba511610185578063a217fddf11610154578063a217fddf146111eb578063a22cb46514611200578063ac7fc2631461123b578063ad2ded2b14611265576103a1565b806376adcba5146111275780638749474f146111585780639010d07c1461118257806391d14854146111b2576103a1565b8063654d1333116101c1578063654d133314610e6c57806367db3b8f14610f295780636d4b99e014610fdc578063765d6cce14611112576103a1565b80634e1273f414610c0057806355f804b314610d805780635958b30114610e31576103a1565b806321c7cf4d116102cc5780632f2ff15d1161026a5780633d242655116102395780633d24265514610b6d5780633f89730014610b9757806342966c6814610bc1578063437a8ae614610beb576103a1565b80632f2ff15d14610ad157806331f9c91914610b0a5780633408e47014610b1f57806336568abe14610b34576103a1565b806327430a42116102a657806327430a421461076a5780632b606d2c146108a05780632d0335ab146108d05780632eb2c2d614610903576103a1565b806321c7cf4d14610716578063248a9ca31461072b57806326150e9514610755576103a1565b8063118c4f13116103445780631bf7d749116103135780631bf7d7491461068f5780631c7c2598146106b95780631d84003f146106ce57806320379ee514610701576103a1565b8063118c4f13146106035780631490185c14610618578063161e650d14610648578063186d44321461065d576103a1565b806308d4db141161038057806308d4db141461044e5780630bb78ec1146104785780630c53c51c146105175780630e89341c146105d9576103a1565b8062fdd58e146103a657806301c11d96146103f157806301ffc9a714610406575b600080fd5b3480156103b257600080fd5b506103df600480360360408110156103c957600080fd5b506001600160a01b03813516906020013561169e565b60408051918252519081900360200190f35b3480156103fd57600080fd5b506103df611710565b34801561041257600080fd5b5061043a6004803603602081101561042957600080fd5b50356001600160e01b031916611716565b604080519115158252519081900360200190f35b34801561045a57600080fd5b506103df6004803603602081101561047157600080fd5b5035611739565b34801561048457600080fd5b506104a26004803603602081101561049b57600080fd5b503561175c565b6040805160208082528351818301528351919283929083019185019080838360005b838110156104dc5781810151838201526020016104c4565b50505050905090810190601f1680156105095780820380516001836020036101000a031916815260200191505b509250505060405180910390f35b6104a2600480360360a081101561052d57600080fd5b6001600160a01b038235169190810190604081016020820135600160201b81111561055757600080fd5b82018360208201111561056957600080fd5b803590602001918460018302840111600160201b8311171561058a57600080fd5b91908080601f016020809104026020016040519081016040528093929190818152602001838380828437600092019190915250929550508235935050506020810135906040013560ff166117f7565b3480156105e557600080fd5b506104a2600480360360208110156105fc57600080fd5b5035611b04565b34801561060f57600080fd5b506103df611d68565b34801561062457600080fd5b506103df6004803603604081101561063b57600080fd5b5080359060200135611d8c565b34801561065457600080fd5b506103df611d97565b34801561066957600080fd5b5061068d6004803603604081101561068057600080fd5b5080359060200135611d9e565b005b34801561069b57600080fd5b506103df600480360360208110156106b257600080fd5b5035612233565b3480156106c557600080fd5b5061043a612245565b3480156106da57600080fd5b5061068d600480360360208110156106f157600080fd5b50356001600160a01b0316612253565b34801561070d57600080fd5b506103df612289565b34801561072257600080fd5b5061068d61228f565b34801561073757600080fd5b506103df6004803603602081101561074e57600080fd5b50356122c0565b34801561076157600080fd5b5061068d6122d5565b34801561077657600080fd5b506103df6004803603604081101561078d57600080fd5b810190602081018135600160201b8111156107a757600080fd5b8201836020820111156107b957600080fd5b803590602001918460018302840111600160201b831117156107da57600080fd5b91908080601f0160208091040260200160405190810160405280939291908181526020018383808284376000920191909152509295949360208101935035915050600160201b81111561082c57600080fd5b82018360208201111561083e57600080fd5b803590602001918460018302840111600160201b8311171561085f57600080fd5b91908080601f0160208091040260200160405190810160405280939291908181526020018383808284376000920191909152509295506122fd945050505050565b3480156108ac57600080fd5b506103df600480360360408110156108c357600080fd5b5080359060200135612403565b3480156108dc57600080fd5b506103df600480360360208110156108f357600080fd5b50356001600160a01b0316612498565b34801561090f57600080fd5b5061068d600480360360a081101561092657600080fd5b6001600160a01b038235811692602081013590911691810190606081016040820135600160201b81111561095957600080fd5b82018360208201111561096b57600080fd5b803590602001918460208302840111600160201b8311171561098c57600080fd5b9190808060200260200160405190810160405280939291908181526020018383602002808284376000920191909152509295949360208101935035915050600160201b8111156109db57600080fd5b8201836020820111156109ed57600080fd5b803590602001918460208302840111600160201b83111715610a0e57600080fd5b9190808060200260200160405190810160405280939291908181526020018383602002808284376000920191909152509295949360208101935035915050600160201b811115610a5d57600080fd5b820183602082011115610a6f57600080fd5b803590602001918460018302840111600160201b83111715610a9057600080fd5b91908080601f0160208091040260200160405190810160405280939291908181526020018383808284376000920191909152509295506124b3945050505050565b348015610add57600080fd5b5061068d60048036036040811015610af457600080fd5b50803590602001356001600160a01b03166127b1565b348015610b1657600080fd5b5061043a61281d565b348015610b2b57600080fd5b506103df612826565b348015610b4057600080fd5b5061068d60048036036040811015610b5757600080fd5b50803590602001356001600160a01b031661282a565b348015610b7957600080fd5b506103df60048036036020811015610b9057600080fd5b503561288b565b348015610ba357600080fd5b506103df60048036036020811015610bba57600080fd5b503561289d565b348015610bcd57600080fd5b5061068d60048036036020811015610be457600080fd5b50356128af565b348015610bf757600080fd5b506103df612b03565b348015610c0c57600080fd5b50610d3060048036036040811015610c2357600080fd5b810190602081018135600160201b811115610c3d57600080fd5b820183602082011115610c4f57600080fd5b803590602001918460208302840111600160201b83111715610c7057600080fd5b9190808060200260200160405190810160405280939291908181526020018383602002808284376000920191909152509295949360208101935035915050600160201b811115610cbf57600080fd5b820183602082011115610cd157600080fd5b803590602001918460208302840111600160201b83111715610cf257600080fd5b919080806020026020016040519081016040528093929190818152602001838360200280828437600092019190915250929550612b09945050505050565b60408051602080825283518183015283519192839290830191858101910280838360005b83811015610d6c578181015183820152602001610d54565b505050509050019250505060405180910390f35b348015610d8c57600080fd5b5061068d60048036036020811015610da357600080fd5b810190602081018135600160201b811115610dbd57600080fd5b820183602082011115610dcf57600080fd5b803590602001918460018302840111600160201b83111715610df057600080fd5b91908080601f016020809104026020016040519081016040528093929190818152602001838380828437600092019190915250929550612c87945050505050565b348015610e3d57600080fd5b5061068d60048036036040811015610e5457600080fd5b506001600160a01b0381351690602001351515612819565b348015610e7857600080fd5b5061068d60048036036080811015610e8f57600080fd5b81359190810190604081016020820135600160201b811115610eb057600080fd5b820183602082011115610ec257600080fd5b803590602001918460018302840111600160201b83111715610ee357600080fd5b91908080601f0160208091040260200160405190810160405280939291908181526020018383808284376000920191909152509295505082359350505060200135612ccd565b348015610f3557600080fd5b5061068d60048036036040811015610f4c57600080fd5b810190602081018135600160201b811115610f6657600080fd5b820183602082011115610f7857600080fd5b803590602001918460018302840111600160201b83111715610f9957600080fd5b91908080601f0160208091040260200160405190810160405280939291908181526020018383808284376000920191909152509295505091359250612fd3915050565b348015610fe857600080fd5b506103df60048036036040811015610fff57600080fd5b810190602081018135600160201b81111561101957600080fd5b82018360208201111561102b57600080fd5b803590602001918460018302840111600160201b8311171561104c57600080fd5b91908080601f0160208091040260200160405190810160405280939291908181526020018383808284376000920191909152509295949360208101935035915050600160201b81111561109e57600080fd5b8201836020820111156110b057600080fd5b803590602001918460018302840111600160201b831117156110d157600080fd5b91908080601f01602080910402602001604051908101604052809392919081815260200183838082843760009201919091525092955061302a945050505050565b34801561111e57600080fd5b5061043a613085565b34801561113357600080fd5b5061113c61308a565b604080516001600160a01b039092168252519081900360200190f35b34801561116457600080fd5b506103df6004803603602081101561117b57600080fd5b5035613099565b34801561118e57600080fd5b5061113c600480360360408110156111a557600080fd5b50803590602001356130ab565b3480156111be57600080fd5b5061043a600480360360408110156111d557600080fd5b50803590602001356001600160a01b03166130c3565b3480156111f757600080fd5b506103df6130db565b34801561120c57600080fd5b5061068d6004803603604081101561122357600080fd5b506001600160a01b03813516906020013515156130e0565b34801561124757600080fd5b506103df6004803603602081101561125e57600080fd5b50356131cf565b6104a2600480360360c081101561127b57600080fd5b6001600160a01b0382351691602081013591810190606081016040820135600160201b8111156112aa57600080fd5b8201836020820111156112bc57600080fd5b803590602001918460018302840111600160201b831117156112dd57600080fd5b91908080601f016020809104026020016040519081016040528093929190818152602001838380828437600092019190915250929550508235935050506020810135906040013560ff166131e1565b34801561133857600080fd5b506103df613572565b34801561134d57600080fd5b506103df6004803603602081101561136457600080fd5b5035613596565b34801561137757600080fd5b5061068d6004803603608081101561138e57600080fd5b81359190810190604081016020820135600160201b8111156113af57600080fd5b8201836020820111156113c157600080fd5b803590602001918460018302840111600160201b831117156113e257600080fd5b91908080601f01602080910402602001604051908101604052809392919081815260200183838082843760009201919091525092955050823593505050602001356135b9565b34801561143457600080fd5b5061113c6138e5565b34801561144957600080fd5b5061068d6004803603604081101561146057600080fd5b50803590602001356138f4565b34801561147957600080fd5b506103df613ae7565b34801561148e57600080fd5b506103df600480360360208110156114a557600080fd5b5035613b0a565b3480156114b857600080fd5b5061113c613b21565b3480156114cd57600080fd5b5061068d600480360360408110156114e457600080fd5b50803590602001356001600160a01b0316613b30565b34801561150657600080fd5b506104a2613b89565b34801561151b57600080fd5b5061043a6004803603602081101561153257600080fd5b5035613be4565b34801561154557600080fd5b5061043a6004803603604081101561155c57600080fd5b506001600160a01b0381358116916020013516613bf9565b34801561158057600080fd5b506103df6004803603602081101561159757600080fd5b5035613c27565b3480156115aa57600080fd5b5061068d600480360360a08110156115c157600080fd5b6001600160a01b03823581169260208101359091169160408201359160608101359181019060a081016080820135600160201b81111561160057600080fd5b82018360208201111561161257600080fd5b803590602001918460018302840111600160201b8311171561163357600080fd5b91908080601f016020809104026020016040519081016040528093929190818152602001838380828437600092019190915250929550613c39945050505050565b34801561168057600080fd5b506104a2613e04565b34801561169557600080fd5b506103df613e5f565b60006001600160a01b0383166116e55760405162461bcd60e51b815260040180806020018281038252602b8152602001806150d2602b913960400191505060405180910390fd5b5060008181526001602090815260408083206001600160a01b03861684529091529020545b92915050565b60115481565b6001600160e01b0319811660009081526020819052604090205460ff165b919050565b6000818152601860205260408120546117558360018301612403565b9392505050565b60076020908152600091825260409182902080548351601f6002600019610100600186161502019093169290920491820184900484028101840190945280845290918301828280156117ef5780601f106117c4576101008083540402835291602001916117ef565b820191906000526020600020905b8154815290600101906020018083116117d257829003601f168201915b505050505081565b6060611801614e7c565b50604080516060810182526001600160a01b0388166000818152600a60209081529084902054835282015290810186905261183f8782878787613e98565b61187a5760405162461bcd60e51b815260040180806020018281038252602181526020018061537c6021913960400191505060405180910390fd5b6001600160a01b0387166000908152600a602052604090205461189e906001613f40565b600a6000896001600160a01b03166001600160a01b03168152602001908152602001600020819055507f5845892132946850460bff5a0083f71031bc5bf9aadcd40f1de79423eac9b10b87338860405180846001600160a01b03168152602001836001600160a01b0316815260200180602001828103825283818151815260200191508051906020019080838360005b8381101561194657818101518382015260200161192e565b50505050905090810190601f1680156119735780820380516001836020036101000a031916815260200191505b5094505050505060405180910390a160006060306001600160a01b0316888a6040516020018083805190602001908083835b602083106119c45780518252601f1990920191602091820191016119a5565b6001836020036101000a038019825116818451168082178552505050505050905001826001600160a01b031660601b8152601401925050506040516020818303038152906040526040518082805190602001908083835b60208310611a3a5780518252601f199092019160209182019101611a1b565b6001836020036101000a0380198251168184511680821785525050505050509050019150506000604051808303816000865af19150503d8060008114611a9c576040519150601f19603f3d011682016040523d82523d6000602084013e611aa1565b606091505b509150915081611af8576040805162461bcd60e51b815260206004820152601c60248201527f46756e6374696f6e2063616c6c206e6f74207375636365737366756c00000000604482015290519081900360640190fd5b98975050505050505050565b6000818152600760209081526040918290208054835160026001831615610100026000190190921691909104601f81018490048402820184019094528381526060938493919291830182828015611b9c5780601f10611b7157610100808354040283529160200191611b9c565b820191906000526020600020905b815481529060010190602001808311611b7f57829003601f168201915b505060065493945050505060026000196101006001841615020190911604611bc5579050611734565b805115611c96576006816040516020018083805460018160011615610100020316600290048015611c2d5780601f10611c0b576101008083540402835291820191611c2d565b820191906000526020600020905b815481529060010190602001808311611c19575b5050825160208401908083835b60208310611c595780518252601f199092019160209182019101611c3a565b6001836020036101000a03801982511681845116808217855250505050505090500192505050604051602081830303815290604052915050611734565b6006611ca184613f9a565b6040516020018083805460018160011615610100020316600290048015611cff5780601f10611cdd576101008083540402835291820191611cff565b820191906000526020600020905b815481529060010190602001808311611ceb575b5050825160208401908083835b60208310611d2b5780518252601f199092019160209182019101611d0c565b6001836020036101000a03801982511681845116808217855250505050505090500192505050604051602081830303815290604052915050919050565b7f9667e80708b6eeeb0053fa0cca44e028ff548e2a9f029edfeac87c118b08b7c881565b601054919091020190565b6009545b90565b600e5460ff16611ded576040805162461bcd60e51b81526020600482015260156024820152746d696e74696e67206973206e6f742061637469766560581b604482015290519081900360640190fd5b60008281526017602052604090205442118015611e17575060008281526017602052604090205415155b611e68576040805162461bcd60e51b815260206004820152601860248201527f73616c6520686173206e6f742073746172746564207965740000000000000000604482015290519081900360640190fd5b43601b6000611e75614075565b6001600160a01b03166001600160a01b031681526020019081526020016000205410611ea057600080fd5b43601b6000611ead614075565b6001600160a01b03166001600160a01b031681526020019081526020016000208190555060006010548381611ede57fe5b0490506000611eec84611739565b9050600081118015611efe5750828111155b611f3f576040805162461bcd60e51b815260206004820152600d60248201526c696e76616c696420707269636560981b604482015290519081900360640190fd5b6000848152601860205260409020805460010190556013546001600160a01b031663e2b8e7d3611f6d614075565b30846040518463ffffffff1660e01b815260040180846001600160a01b03168152602001836001600160a01b031681526020018281526020019350505050600060405180830381600087803b158015611fc557600080fd5b505af1158015611fd9573d6000803e3d6000fd5b505050506000611ff360328361407990919063ffffffff16565b9050600061200d60646120078560086140bb565b90614079565b905061203261201a614075565b87600160405180602001604052806000815250614114565b836001600160a01b0316612044614075565b6001600160a01b03167fa8f60c2735df0121f6c1fb70fdc37e927e3b21f7266de2beeace3ed35b8634d088866120798b611739565b6120828c613596565b60008d8152601860209081526040918290205460135483516370a0823160e01b8152306004820152935191938c936001600160a01b03909216926370a0823192602480840193919291829003018186803b1580156120df57600080fd5b505afa1580156120f3573d6000803e3d6000fd5b505050506040513d602081101561210957600080fd5b5051604080519788526020880196909652868601949094526060860192909252608085015260a084015260c0830152519081900360e00190a36013546012546040805163e2b8e7d360e01b81523060048201526001600160a01b039283166024820152604481018690529051919092169163e2b8e7d391606480830192600092919082900301818387803b1580156121a057600080fd5b505af11580156121b4573d6000803e3d6000fd5b50506013546040805163e2b8e7d360e01b81523060048201526001600160a01b03898116602483015260448201879052915191909216935063e2b8e7d39250606480830192600092919082900301818387803b15801561221357600080fd5b505af1158015612227573d6000803e3d6000fd5b50505050505050505050565b60166020526000908152604090205481565b600e54610100900460ff1681565b61225e6000336130c3565b61226757600080fd5b601280546001600160a01b0319166001600160a01b0392909216919091179055565b60085490565b61229a6000336130c3565b6122a357600080fd5b600e805461ff001981166101009182900460ff1615909102179055565b60009081526005602052604090206002015490565b6122e06000336130c3565b6122e957600080fd5b600e805460ff19811660ff90911615179055565b600080612308612826565b905080608914806123195750806001145b6123375780620138811461232f57617a69612332565b60055b61233a565b60015b61ffff1690508061238e576040805162461bcd60e51b8152602060048201526019602482015278636861696e204944206d757374206e6f74206265207a65726f60381b604482015290519081900360640190fd5b604051806080016040528060528152602001615292605291398051602091820120855186830120855186840120604080518086019490945283810192909252606083015260808201939093523060a0808301919091528351808303909101815260c09091019092528151910120905092915050565b6000828152601660209081526040808320546019909252822054600f54600a0a60328461243b600986900a61200760038a0a866140bb565b905061245561244e866120078a876140bb565b8290613f40565b905061246461244e83856140bb565b90506124806103e86120078661247a858a614079565b906140bb565b9050611af88361200783670de0b6b3a76400006140bb565b6001600160a01b03166000908152600a602052604090205490565b81518351146124f35760405162461bcd60e51b81526004018080602001828103825260288152602001806154316028913960400191505060405180910390fd5b6001600160a01b0384166125385760405162461bcd60e51b81526004018080602001828103825260258152602001806151ee6025913960400191505060405180910390fd5b612540614075565b6001600160a01b0316856001600160a01b0316148061256b575061256b85612566614075565b613bf9565b6125a65760405162461bcd60e51b81526004018080602001828103825260328152602001806152136032913960400191505060405180910390fd5b60006125b0614075565b90506125c081878787878761424c565b60005b84518110156126c15760008582815181106125da57fe5b6020026020010151905060008583815181106125f257fe5b6020026020010151905061265f816040518060600160405280602a8152602001615268602a91396001600086815260200190815260200160002060008d6001600160a01b03166001600160a01b031681526020019081526020016000205461436f9092919063ffffffff16565b60008381526001602090815260408083206001600160a01b038e811685529252808320939093558a16815220546126969082613f40565b60009283526001602081815260408086206001600160a01b038d1687529091529093205550016125c3565b50846001600160a01b0316866001600160a01b0316826001600160a01b03167f4a39dc06d4c0dbc64b70af90fd698a233a518aa5d07e595d983b8c0526c8f7fb8787604051808060200180602001838103835285818151815260200191508051906020019060200280838360005b8381101561274757818101518382015260200161272f565b50505050905001838103825284818151815260200191508051906020019060200280838360005b8381101561278657818101518382015260200161276e565b5050505090500194505050505060405180910390a46127a9818787878787614406565b505050505050565b6000828152600560205260409020600201546127d4906127cf614075565b6130c3565b61280f5760405162461bcd60e51b815260040180806020018281038252602f815260200180615082602f913960400191505060405180910390fd5b6128198282614685565b5050565b600e5460ff1681565b4690565b612832614075565b6001600160a01b0316816001600160a01b0316146128815760405162461bcd60e51b815260040180806020018281038252602f81526020018061547a602f913960400191505060405180910390fd5b61281982826146ee565b60186020526000908152604090205481565b601a6020526000908152604090205481565b600e54610100900460ff16612903576040805162461bcd60e51b81526020600482015260156024820152746275726e696e67206973206e6f742061637469766560581b604482015290519081900360640190fd5b600161290f338361169e565b101561294c5760405162461bcd60e51b81526004018080602001828103825260238152602001806152e46023913960400191505060405180910390fd5b600061295782613596565b60008381526018602052604090208054600019019055905061298261297a614075565b836001614757565b61298a614075565b6001600160a01b03167f7f189ad2df0843ce2bba34028497b567ecb15a53dbfb381e8b7a3f1d5ca87d7183836129bf86611739565b6129c887613596565b6000888152601860209081526040918290205460135483516370a0823160e01b8152306004820152935191936001600160a01b03909116926370a0823192602480840193829003018186803b158015612a2057600080fd5b505afa158015612a34573d6000803e3d6000fd5b505050506040513d6020811015612a4a57600080fd5b5051604080519687526020870195909552858501939093526060850191909152608084015260a0830152519081900360c00190a26013546001600160a01b031663e2b8e7d330612a98614075565b846040518463ffffffff1660e01b815260040180846001600160a01b03168152602001836001600160a01b031681526020018281526020019350505050600060405180830381600087803b158015612aef57600080fd5b505af11580156127a9573d6000803e3d6000fd5b601c5481565b60608151835114612b4b5760405162461bcd60e51b81526004018080602001828103825260298152602001806154086029913960400191505060405180910390fd5b6060835167ffffffffffffffff81118015612b6557600080fd5b50604051908082528060200260200182016040528015612b8f578160200160208202803683370190505b50905060005b8451811015612c7f5760006001600160a01b0316858281518110612bb557fe5b60200260200101516001600160a01b03161415612c035760405162461bcd60e51b81526004018080602001828103825260318152602001806150fd6031913960400191505060405180910390fd5b60016000858381518110612c1357fe5b602002602001015181526020019081526020016000206000868381518110612c3757fe5b60200260200101516001600160a01b03166001600160a01b0316815260200190815260200160002054828281518110612c6c57fe5b6020908102919091010152600101612b95565b509392505050565b612cb17ff6e33f9720e4529cb1c710e3344dc00830589a3239198ffa39b07117085d250e336130c3565b612cba57600080fd5b8051612819906006906020840190614ea6565b6000848152601a60205260409020805460010190819055620f42408110612d32576040805162461bcd60e51b815260206004820152601460248201527306d617820746f6b656e206f6620313030303030360641b604482015290519081900360640190fd5b600083118015612d43575060148311155b8015612d4f5750600082115b8015612d5e5750620f42408211155b612daf576040805162461bcd60e51b815260206004820152601d60248201527f696e76616c696420637572766520616e64206d756c7469706c69657273000000604482015290519081900360640190fd5b6001845111612dfa576040805162461bcd60e51b81526020600482015260126024820152711a9cdbdb881b5d5cdd081b9bdb881b9d5b1b60721b604482015290519081900360640190fd5b6014546001600160a01b0316634ba3d74886612e14614075565b6040518363ffffffff1660e01b815260040180838152602001826001600160a01b0316815260200192505050602060405180830381600087803b158015612e5a57600080fd5b505af1158015612e6e573d6000803e3d6000fd5b505050506040513d6020811015612e8457600080fd5b50511515600114612edc576040805162461bcd60e51b815260206004820152601f60248201527f73656e646572206d757374206265206d696e696f6e206f7220776f726b657200604482015290519081900360640190fd5b6000612ee88683611d8c565b90508360166000838152602001908152602001600020819055508260196000838152602001908152602001600020819055507f855f2403a3717b569ca6483cb3250554954ef4734871df9005e45eb9bffce8cf818686866040518085815260200180602001848152602001838152602001828103825285818151815260200191508051906020019080838360005b83811015612f8e578181015183820152602001612f76565b50505050905090810190601f168015612fbb5780820380516001836020036101000a031916815260200191505b509550505050505060405180910390a1505050505050565b612ffd7ff6e33f9720e4529cb1c710e3344dc00830589a3239198ffa39b07117085d250e336130c3565b61300657600080fd5b6000818152600760209081526040909120835161302592850190614ea6565b505050565b600080613035612826565b90508061238e576040805162461bcd60e51b8152602060048201526019602482015278636861696e204944206d757374206e6f74206265207a65726f60381b604482015290519081900360640190fd5b600190565b6014546001600160a01b031681565b6000908152601a602052604090205490565b6000828152600560205260408120611755908361488a565b60008281526005602052604081206117559083614896565b600081565b816001600160a01b03166130f2614075565b6001600160a01b031614156131385760405162461bcd60e51b81526004018080602001828103825260298152602001806153df6029913960400191505060405180910390fd5b8060036000613145614075565b6001600160a01b03908116825260208083019390935260409182016000908120918716808252919093529120805460ff191692151592909217909155613189614075565b6001600160a01b03167f17307eab39ab6107e8899845ad3d59bd9653f200f220920489ca2b5937696c318360405180821515815260200191505060405180910390a35050565b60196020526000908152604090205481565b60606131eb6148ab565b6132265760405162461bcd60e51b815260040180806020018281038252604281526020018061539d6042913960600191505060405180910390fd5b61322e614f24565b50604080516060810182528781526001600160a01b038916602082015290810186905261325e8882878787614928565b6132995760405162461bcd60e51b815260040180806020018281038252602181526020018061537c6021913960400191505060405180910390fd5b6001600160a01b0388166000908152600d602090815260408083208a845290915290205460ff1615613312576040805162461bcd60e51b815260206004820181905260248201527f5245504c4159206f6620612070726576696f7573207472616e73616374696f6e604482015290519081900360640190fd5b6001600160a01b0388166000818152600d602090815260408083208b84528252808320805460ff1916600117905580519384523384830181905260609185018281528b51928601929092528a517f5845892132946850460bff5a0083f71031bc5bf9aadcd40f1de79423eac9b10b958e9592948d94919391926080850192918601918190849084905b838110156133b357818101518382015260200161339b565b50505050905090810190601f1680156133e05780820380516001836020036101000a031916815260200191505b5094505050505060405180910390a160006060306001600160a01b0316888b6040516020018083805190602001908083835b602083106134315780518252601f199092019160209182019101613412565b6001836020036101000a038019825116818451168082178552505050505050905001826001600160a01b031660601b8152601401925050506040516020818303038152906040526040518082805190602001908083835b602083106134a75780518252601f199092019160209182019101613488565b6001836020036101000a0380198251168184511680821785525050505050509050019150506000604051808303816000865af19150503d8060008114613509576040519150601f19603f3d011682016040523d82523d6000602084013e61350e565b606091505b509150915081613565576040805162461bcd60e51b815260206004820152601c60248201527f46756e6374696f6e2063616c6c206e6f74207375636365737366756c00000000604482015290519081900360640190fd5b9998505050505050505050565b7ff6e33f9720e4529cb1c710e3344dc00830589a3239198ffa39b07117085d250e81565b6000818152601860205260408120546117556064612007605a61247a8786612403565b600060105485816135c657fe5b0490506135d285613be4565b15613620576040805162461bcd60e51b81526020600482015260196024820152781d1bdad95b881a185cc81b9bdd081899595b881b5a5b9d1959603a1b604482015290519081900360640190fd5b6014546001600160a01b0316634ba3d7488261363a614075565b6040518363ffffffff1660e01b815260040180838152602001826001600160a01b0316815260200192505050602060405180830381600087803b15801561368057600080fd5b505af1158015613694573d6000803e3d6000fd5b505050506040513d60208110156136aa57600080fd5b505115156001146136ec5760405162461bcd60e51b81526004018080602001828103825260218152602001806150b16021913960400191505060405180910390fd5b6000831180156136fd575060148311155b80156137095750600082115b80156137185750620f42408211155b613769576040805162461bcd60e51b815260206004820152601c60248201527f696e76616c6964206375727665206f72206d756c7469706c6965727300000000604482015290519081900360640190fd5b60018451116137b4576040805162461bcd60e51b81526020600482015260126024820152711a9cdbdb881b5d5cdd081b9bdb881b9d5b1b60721b604482015290519081900360640190fd5b600085815260166020526040902054613808576040805162461bcd60e51b815260206004820152601160248201527018dd5c9d99481b5d5cdd081899481cd95d607a1b604482015290519081900360640190fd5b600085815260166020908152604080832086905560198252808320859055805188815290810186905260608101859052608081830181815288519183019190915287517f855f2403a3717b569ca6483cb3250554954ef4734871df9005e45eb9bffce8cf948a948a948a948a949193909260a0850192908801918190849084905b838110156138a1578181015183820152602001613889565b50505050905090810190601f1680156138ce5780820380516001836020036101000a031916815260200191505b509550505050505060405180910390a15050505050565b6013546001600160a01b031681565b6138fd82613be4565b1561394b576040805162461bcd60e51b81526020600482015260196024820152781d1bdad95b881a185cc81b9bdd081899595b881b5a5b9d1959603a1b604482015290519081900360640190fd5b60008281526016602052604090205461399f576040805162461bcd60e51b815260206004820152601160248201527018dd5c9d99481b5d5cdd081899481cd95d607a1b604482015290519081900360640190fd5b600060105483816139ac57fe5b60145491900491506001600160a01b0316634ba3d748826139cb614075565b6040518363ffffffff1660e01b815260040180838152602001826001600160a01b0316815260200192505050602060405180830381600087803b158015613a1157600080fd5b505af1158015613a25573d6000803e3d6000fd5b505050506040513d6020811015613a3b57600080fd5b50511515600114613a7d5760405162461bcd60e51b81526004018080602001828103825260218152602001806150b16021913960400191505060405180910390fd5b4282108015613a8c5750600082115b15613a95574291505b600083815260176020908152604091829020849055815185815290810184905281517f6ce538f9e575f548476b624a738c3bc0bdf1ec4e465cacb3f7c67bef3926e20e929181900390910190a1505050565b604051806080016040528060528152602001615292605291398051906020012081565b600081815260056020526040812061170a90614950565b6015546001600160a01b031681565b600082815260056020526040902060020154613b4e906127cf614075565b6128815760405162461bcd60e51b81526004018080602001828103825260308152602001806151be6030913960400191505060405180910390fd5b600c805460408051602060026001851615610100026000190190941693909304601f810184900484028201840190925281815292918301828280156117ef5780601f106117c4576101008083540402835291602001916117ef565b60009081526002602052604090205460ff1690565b6001600160a01b03918216600090815260036020908152604080832093909416825291909152205460ff1690565b60176020526000908152604090205481565b6001600160a01b038416613c7e5760405162461bcd60e51b81526004018080602001828103825260258152602001806151ee6025913960400191505060405180910390fd5b613c86614075565b6001600160a01b0316856001600160a01b03161480613cac5750613cac85612566614075565b613ce75760405162461bcd60e51b81526004018080602001828103825260298152602001806151956029913960400191505060405180910390fd5b6000613cf1614075565b9050613d11818787613d028861495b565b613d0b8861495b565b8761424c565b613d58836040518060600160405280602a8152602001615268602a913960008781526001602090815260408083206001600160a01b038d168452909152902054919061436f565b60008581526001602090815260408083206001600160a01b038b81168552925280832093909355871681522054613d8f9084613f40565b60008581526001602090815260408083206001600160a01b03808b168086529184529382902094909455805188815291820187905280518a8416938616927fc3d58168c5ae7397731d063d5bbf3d657854427343f4c083240f7aacaa2d0f6292908290030190a46127a981878787878761499f565b600b805460408051602060026001851615610100026000190190941693909304601f810184900484028201840190925281815292918301828280156117ef5780601f106117c4576101008083540402835291602001916117ef565b7ff0887ba65ee2024ea881d91b74c2450ef19e1557f03bed3ea9f16b037cbe2dc981565b6000611755836001600160a01b038416614b10565b60006001600160a01b03861615801590613f3657506001613ec0613ebb87614b5a565b614bdd565b83868660405160008152602001604052604051808581526020018460ff1681526020018381526020018281526020019450505050506020604051602081039080840390855afa158015613f17573d6000803e3d6000fd5b505050602060405103516001600160a01b0316866001600160a01b0316145b9695505050505050565b600082820183811015611755576040805162461bcd60e51b815260206004820152601b60248201527f536166654d6174683a206164646974696f6e206f766572666c6f770000000000604482015290519081900360640190fd5b606081613fbf57506040805180820190915260018152600360fc1b6020820152611734565b8160005b8115613fd757600101600a82049150613fc3565b60608167ffffffffffffffff81118015613ff057600080fd5b506040519080825280601f01601f19166020018201604052801561401b576020820181803683370190505b50859350905060001982015b831561406c57600a840660300160f81b8282806001900393508151811061404a57fe5b60200101906001600160f81b031916908160001a905350600a84049350614027565b50949350505050565b3390565b600061175583836040518060400160405280601a81526020017f536166654d6174683a206469766973696f6e206279207a65726f000000000000815250614c29565b6000826140ca5750600061170a565b828202828482816140d757fe5b04146117555760405162461bcd60e51b815260040180806020018281038252602181526020018061535b6021913960400191505060405180910390fd5b6001600160a01b0384166141595760405162461bcd60e51b81526004018080602001828103825260218152602001806154596021913960400191505060405180910390fd5b60008381526002602052604090205460ff16614189576000838152600260205260409020805460ff191660011790555b6000614193614075565b90506141a581600087613d028861495b565b60008481526001602090815260408083206001600160a01b03891684529091529020546141d29084613f40565b60008581526001602090815260408083206001600160a01b03808b16808652918452828520959095558151898152928301889052815190948616927fc3d58168c5ae7397731d063d5bbf3d657854427343f4c083240f7aacaa2d0f6292908290030190a46142458160008787878761499f565b5050505050565b6001600160a01b038416156143615760005b82518110156142cc5782818151811061427357fe5b60200260200101516001146142c4576040805162461bcd60e51b8152602060048201526012602482015271416d6f756e742073686f756c64206265203160701b604482015290519081900360640190fd5b60010161425e565b506001600160a01b038516156143615760005b835181101561435f57614305858583815181106142f857fe5b602002602001015161169e565b15614357576040805162461bcd60e51b815260206004820152601f60248201527f746f5f616464726573732073686f756c64206f776e2030206f66206561636800604482015290519081900360640190fd5b6001016142df565b505b6127a98686868686866127a9565b600081848411156143fe5760405162461bcd60e51b81526004018080602001828103825283818151815260200191508051906020019080838360005b838110156143c35781810151838201526020016143ab565b50505050905090810190601f1680156143f05780820380516001836020036101000a031916815260200191505b509250505060405180910390fd5b505050900390565b614418846001600160a01b0316614c8e565b156127a957836001600160a01b031663bc197c8187878686866040518663ffffffff1660e01b815260040180866001600160a01b03168152602001856001600160a01b03168152602001806020018060200180602001848103845287818151815260200191508051906020019060200280838360005b838110156144a657818101518382015260200161448e565b50505050905001848103835286818151815260200191508051906020019060200280838360005b838110156144e55781810151838201526020016144cd565b50505050905001848103825285818151815260200191508051906020019080838360005b83811015614521578181015183820152602001614509565b50505050905090810190601f16801561454e5780820380516001836020036101000a031916815260200191505b5098505050505050505050602060405180830381600087803b15801561457357600080fd5b505af192505050801561459857506040513d602081101561459357600080fd5b505160015b61462d576145a4614f5e565b806145af57506145f6565b60405162461bcd60e51b81526020600482018181528351602484015283518493919283926044019190850190808383600083156143c35781810151838201526020016143ab565b60405162461bcd60e51b81526004018080602001828103825260348152602001806150046034913960400191505060405180910390fd5b6001600160e01b0319811663bc197c8160e01b1461467c5760405162461bcd60e51b815260040180806020018281038252602881526020018061505a6028913960400191505060405180910390fd5b50505050505050565b600082815260056020526040902061469d9082613e83565b15612819576146aa614075565b6001600160a01b0316816001600160a01b0316837f2f8788117e7eff1d82e926ec794901d17c78024a50270940304540a733656f0d60405160405180910390a45050565b60008281526005602052604090206147069082614c94565b1561281957614713614075565b6001600160a01b0316816001600160a01b0316837ff6391f5c32d9c69d2a47ea670b442974b53935d1edc7fd64eb21e047a839171b60405160405180910390a45050565b6001600160a01b03831661479c5760405162461bcd60e51b81526004018080602001828103825260238152602001806152456023913960400191505060405180910390fd5b60006147a6614075565b90506147d6818560006147b88761495b565b6147c18761495b565b6040518060200160405280600081525061424c565b61481d826040518060600160405280602481526020016151716024913960008681526001602090815260408083206001600160a01b038b168452909152902054919061436f565b60008481526001602090815260408083206001600160a01b03808a16808652918452828520959095558151888152928301879052815193949093908616927fc3d58168c5ae7397731d063d5bbf3d657854427343f4c083240f7aacaa2d0f6292908290030190a450505050565b60006117558383614ca9565b6000611755836001600160a01b038416614d0d565b601554604080516317937a0760e01b815233600482015290516000926001600160a01b0316916317937a0791602480830192602092919082900301818787803b1580156148f757600080fd5b505af115801561490b573d6000803e3d6000fd5b505050506040513d602081101561492157600080fd5b5051905090565b60006001600160a01b03861615801590613f3657506001613ec061494b87614d25565b614da8565b600061170a82614db2565b60408051600180825281830190925260609182919060208083019080368337019050509050828160008151811061498e57fe5b602090810291909101015292915050565b6149b1846001600160a01b0316614c8e565b156127a957836001600160a01b031663f23a6e6187878686866040518663ffffffff1660e01b815260040180866001600160a01b03168152602001856001600160a01b0316815260200184815260200183815260200180602001828103825283818151815260200191508051906020019080838360005b83811015614a40578181015183820152602001614a28565b50505050905090810190601f168015614a6d5780820380516001836020036101000a031916815260200191505b509650505050505050602060405180830381600087803b158015614a9057600080fd5b505af1925050508015614ab557506040513d6020811015614ab057600080fd5b505160015b614ac1576145a4614f5e565b6001600160e01b0319811663f23a6e6160e01b1461467c5760405162461bcd60e51b815260040180806020018281038252602881526020018061505a6028913960400191505060405180910390fd5b6000614b1c8383614d0d565b614b525750815460018181018455600084815260208082209093018490558454848252828601909352604090209190915561170a565b50600061170a565b600060405180608001604052806043815260200161512e60439139805190602001208260000151836020015184604001518051906020012060405160200180858152602001848152602001836001600160a01b03168152602001828152602001945050505050604051602081830303815290604052805190602001209050919050565b6000614be7612289565b82604051602001808061190160f01b81525060020183815260200182815260200192505050604051602081830303815290604052805190602001209050919050565b60008183614c785760405162461bcd60e51b81526020600482018181528351602484015283519092839260449091019190850190808383600083156143c35781810151838201526020016143ab565b506000838581614c8457fe5b0495945050505050565b3b151590565b6000611755836001600160a01b038416614db6565b81546000908210614ceb5760405162461bcd60e51b81526004018080602001828103825260228152602001806150386022913960400191505060405180910390fd5b826000018281548110614cfa57fe5b9060005260206000200154905092915050565b60009081526001919091016020526040902054151590565b600060405180608001604052806054815260200161530760549139805190602001208260000151836020015184604001518051906020012060405160200180858152602001848152602001836001600160a01b03168152602001828152602001945050505050604051602081830303815290604052805190602001209050919050565b6000614be7611d97565b5490565b60008181526001830160205260408120548015614e725783546000198083019190810190600090879083908110614de957fe5b9060005260206000200154905080876000018481548110614e0657fe5b600091825260208083209091019290925582815260018981019092526040902090840190558654879080614e3657fe5b6001900381819060005260206000200160009055905586600101600087815260200190815260200160002060009055600194505050505061170a565b600091505061170a565b60405180606001604052806000815260200160006001600160a01b03168152602001606081525090565b828054600181600116156101000203166002900490600052602060002090601f016020900481019282601f10614ee757805160ff1916838001178555614f14565b82800160010185558215614f14579182015b82811115614f14578251825591602001919060010190614ef9565b50614f20929150614f43565b5090565b6040805160608082018352600080835260208301529181019190915290565b5b80821115614f205760008155600101614f44565b60e01c90565b600060443d1015614f6e57611d9b565b600481823e6308c379a0614f828251614f58565b14614f8c57611d9b565b6040513d600319016004823e80513d67ffffffffffffffff8160248401118184111715614fbc5750505050611d9b565b82840192508251915080821115614fd65750505050611d9b565b503d83016020828401011115614fee57505050611d9b565b601f01601f191681016020016040529150509056fe455243313135353a207472616e7366657220746f206e6f6e2045524331313535526563656976657220696d706c656d656e746572456e756d657261626c655365743a20696e646578206f7574206f6620626f756e6473455243313135353a204552433131353552656365697665722072656a656374656420746f6b656e73416363657373436f6e74726f6c3a2073656e646572206d75737420626520616e2061646d696e20746f206772616e7473656e646572206d757374206265206f70657261746f72206f7220776f726b6572455243313135353a2062616c616e636520717565727920666f7220746865207a65726f2061646472657373455243313135353a2062617463682062616c616e636520717565727920666f7220746865207a65726f20616464726573734d6574615472616e73616374696f6e2875696e74323536206e6f6e63652c616464726573732066726f6d2c62797465732066756e6374696f6e5369676e617475726529455243313135353a206275726e20616d6f756e7420657863656564732062616c616e6365455243313135353a2063616c6c6572206973206e6f74206f776e6572206e6f7220617070726f766564416363657373436f6e74726f6c3a2073656e646572206d75737420626520616e2061646d696e20746f207265766f6b65455243313135353a207472616e7366657220746f20746865207a65726f2061646472657373455243313135353a207472616e736665722063616c6c6572206973206e6f74206f776e6572206e6f7220617070726f766564455243313135353a206275726e2066726f6d20746865207a65726f2061646472657373455243313135353a20696e73756666696369656e742062616c616e636520666f72207472616e73666572454950373132446f6d61696e28737472696e67206e616d652c737472696e672076657273696f6e2c75696e7432353620636861696e49642c6164647265737320766572696679696e67436f6e74726163742973656e646572206d7573742068617665206174206c65617374206f6e6520746f6b656e576f726b65724d6574615472616e73616374696f6e2862797465733332207265706c617950726576656e74696f6e2c616464726573732066726f6d2c62797465732066756e6374696f6e5369676e617475726529536166654d6174683a206d756c7469706c69636174696f6e206f766572666c6f775369676e657220616e64207369676e617475726520646f206e6f74206d61746368576f726b6572204d6574612d5472616e73616374696f6e2073656e74206279206163636f756e74206f74686572207468616e206120776f726b65722f6d696e696f6e455243313135353a2073657474696e6720617070726f76616c2073746174757320666f722073656c66455243313135353a206163636f756e747320616e6420696473206c656e677468206d69736d61746368455243313135353a2069647320616e6420616d6f756e7473206c656e677468206d69736d61746368455243313135353a206d696e7420746f20746865207a65726f2061646472657373416363657373436f6e74726f6c3a2063616e206f6e6c792072656e6f756e636520726f6c657320666f722073656c66a26469706673582212207f8ff1db9a2e15a192b5084dd3880dc0b91a02fe70440b287c55a8b1bb81dbea64736f6c63430007030033f0887ba65ee2024ea881d91b74c2450ef19e1557f03bed3ea9f16b037cbe2dc9f6e33f9720e4529cb1c710e3344dc00830589a3239198ffa39b07117085d250e454950373132446f6d61696e28737472696e67206e616d652c737472696e672076657273696f6e2c75696e7432353620636861696e49642c6164647265737320766572696679696e67436f6e747261637429",
  "linkReferences": {},
  "deployedLinkReferences": {}
}