{
  "_format": "hh-sol-artifact-1",
  "contractName": "bondingSale",
  "sourceName": "contracts/bondingSale.sol",
  "abi": [
    {
      "inputs": [
        {
          "internalType": "address",
          "name": "_gameToken",
          "type": "address"
        },
        {
          "internalType": "address",
          "name": "_gameMaster",
          "type": "address"
        }
      ],
      "stateMutability": "nonpayable",
      "type": "constructor"
    },
    {
      "anonymous": false,
      "inputs": [
        {
          "indexed": true,
          "internalType": "address",
          "name": "account",
          "type": "address"
        },
        {
          "indexed": true,
          "internalType": "address",
          "name": "operator",
          "type": "address"
        },
        {
          "indexed": false,
          "internalType": "bool",
          "name": "approved",
          "type": "bool"
        }
      ],
      "name": "ApprovalForAll",
      "type": "event"
    },
    {
      "anonymous": false,
      "inputs": [
        {
          "indexed": true,
          "internalType": "address",
          "name": "to",
          "type": "address"
        },
        {
          "indexed": false,
          "internalType": "uint256",
          "name": "creator",
          "type": "uint256"
        },
        {
          "indexed": false,
          "internalType": "uint256",
          "name": "id",
          "type": "uint256"
        },
        {
          "indexed": true,
          "internalType": "uint256",
          "name": "seed",
          "type": "uint256"
        },
        {
          "indexed": false,
          "internalType": "uint256",
          "name": "priceReceived",
          "type": "uint256"
        },
        {
          "indexed": false,
          "internalType": "uint256",
          "name": "nextPrintPrice",
          "type": "uint256"
        },
        {
          "indexed": false,
          "internalType": "uint256",
          "name": "nextBurnPrice",
          "type": "uint256"
        },
        {
          "indexed": false,
          "internalType": "uint256",
          "name": "printsSupply",
          "type": "uint256"
        },
        {
          "indexed": false,
          "internalType": "uint256",
          "name": "reserve",
          "type": "uint256"
        }
      ],
      "name": "PrintBurned",
      "type": "event"
    },
    {
      "anonymous": false,
      "inputs": [
        {
          "indexed": true,
          "internalType": "address",
          "name": "to",
          "type": "address"
        },
        {
          "indexed": false,
          "internalType": "uint256",
          "name": "creator",
          "type": "uint256"
        },
        {
          "indexed": false,
          "internalType": "uint256",
          "name": "id",
          "type": "uint256"
        },
        {
          "indexed": true,
          "internalType": "uint256",
          "name": "seed",
          "type": "uint256"
        },
        {
          "indexed": false,
          "internalType": "uint256",
          "name": "pricePaid",
          "type": "uint256"
        },
        {
          "indexed": false,
          "internalType": "uint256",
          "name": "nextPrintPrice",
          "type": "uint256"
        },
        {
          "indexed": false,
          "internalType": "uint256",
          "name": "nextBurnPrice",
          "type": "uint256"
        },
        {
          "indexed": false,
          "internalType": "uint256",
          "name": "printsSupply",
          "type": "uint256"
        },
        {
          "indexed": false,
          "internalType": "uint256",
          "name": "royaltyPaid",
          "type": "uint256"
        },
        {
          "indexed": false,
          "internalType": "uint256",
          "name": "reserve",
          "type": "uint256"
        },
        {
          "indexed": true,
          "internalType": "address",
          "name": "royaltyRecipient",
          "type": "address"
        }
      ],
      "name": "PrintMinted",
      "type": "event"
    },
    {
      "anonymous": false,
      "inputs": [
        {
          "indexed": true,
          "internalType": "bytes32",
          "name": "role",
          "type": "bytes32"
        },
        {
          "indexed": true,
          "internalType": "bytes32",
          "name": "previousAdminRole",
          "type": "bytes32"
        },
        {
          "indexed": true,
          "internalType": "bytes32",
          "name": "newAdminRole",
          "type": "bytes32"
        }
      ],
      "name": "RoleAdminChanged",
      "type": "event"
    },
    {
      "anonymous": false,
      "inputs": [
        {
          "indexed": true,
          "internalType": "bytes32",
          "name": "role",
          "type": "bytes32"
        },
        {
          "indexed": true,
          "internalType": "address",
          "name": "account",
          "type": "address"
        },
        {
          "indexed": true,
          "internalType": "address",
          "name": "sender",
          "type": "address"
        }
      ],
      "name": "RoleGranted",
      "type": "event"
    },
    {
      "anonymous": false,
      "inputs": [
        {
          "indexed": true,
          "internalType": "bytes32",
          "name": "role",
          "type": "bytes32"
        },
        {
          "indexed": true,
          "internalType": "address",
          "name": "account",
          "type": "address"
        },
        {
          "indexed": true,
          "internalType": "address",
          "name": "sender",
          "type": "address"
        }
      ],
      "name": "RoleRevoked",
      "type": "event"
    },
    {
      "anonymous": false,
      "inputs": [
        {
          "indexed": false,
          "internalType": "uint256",
          "name": "tokenId",
          "type": "uint256"
        },
        {
          "indexed": false,
          "internalType": "string",
          "name": "json",
          "type": "string"
        },
        {
          "indexed": false,
          "internalType": "uint256",
          "name": "curve",
          "type": "uint256"
        },
        {
          "indexed": false,
          "internalType": "uint256",
          "name": "multiplier",
          "type": "uint256"
        }
      ],
      "name": "TokenData",
      "type": "event"
    },
    {
      "anonymous": false,
      "inputs": [
        {
          "indexed": false,
          "internalType": "uint256",
          "name": "id",
          "type": "uint256"
        },
        {
          "indexed": false,
          "internalType": "uint256",
          "name": "date",
          "type": "uint256"
        }
      ],
      "name": "TokenOnSale",
      "type": "event"
    },
    {
      "anonymous": false,
      "inputs": [
        {
          "indexed": true,
          "internalType": "address",
          "name": "operator",
          "type": "address"
        },
        {
          "indexed": true,
          "internalType": "address",
          "name": "from",
          "type": "address"
        },
        {
          "indexed": true,
          "internalType": "address",
          "name": "to",
          "type": "address"
        },
        {
          "indexed": false,
          "internalType": "uint256[]",
          "name": "ids",
          "type": "uint256[]"
        },
        {
          "indexed": false,
          "internalType": "uint256[]",
          "name": "values",
          "type": "uint256[]"
        }
      ],
      "name": "TransferBatch",
      "type": "event"
    },
    {
      "anonymous": false,
      "inputs": [
        {
          "indexed": true,
          "internalType": "address",
          "name": "operator",
          "type": "address"
        },
        {
          "indexed": true,
          "internalType": "address",
          "name": "from",
          "type": "address"
        },
        {
          "indexed": true,
          "internalType": "address",
          "name": "to",
          "type": "address"
        },
        {
          "indexed": false,
          "internalType": "uint256",
          "name": "id",
          "type": "uint256"
        },
        {
          "indexed": false,
          "internalType": "uint256",
          "name": "value",
          "type": "uint256"
        }
      ],
      "name": "TransferSingle",
      "type": "event"
    },
    {
      "anonymous": false,
      "inputs": [
        {
          "indexed": false,
          "internalType": "string",
          "name": "value",
          "type": "string"
        },
        {
          "indexed": true,
          "internalType": "uint256",
          "name": "id",
          "type": "uint256"
        }
      ],
      "name": "URI",
      "type": "event"
    },
    {
      "inputs": [],
      "name": "BURNER",
      "outputs": [
        {
          "internalType": "bytes32",
          "name": "",
          "type": "bytes32"
        }
      ],
      "stateMutability": "view",
      "type": "function"
    },
    {
      "inputs": [
        {
          "internalType": "uint256",
          "name": "creatorId",
          "type": "uint256"
        },
        {
          "internalType": "string",
          "name": "json",
          "type": "string"
        },
        {
          "internalType": "uint256",
          "name": "curve",
          "type": "uint256"
        },
        {
          "internalType": "uint256",
          "name": "multiplier",
          "type": "uint256"
        }
      ],
      "name": "CreateToken",
      "outputs": [],
      "stateMutability": "nonpayable",
      "type": "function"
    },
    {
      "inputs": [],
      "name": "DEFAULT_ADMIN_ROLE",
      "outputs": [
        {
          "internalType": "bytes32",
          "name": "",
          "type": "bytes32"
        }
      ],
      "stateMutability": "view",
      "type": "function"
    },
    {
      "inputs": [],
      "name": "MAX_PRICE",
      "outputs": [
        {
          "internalType": "uint256",
          "name": "",
          "type": "uint256"
        }
      ],
      "stateMutability": "view",
      "type": "function"
    },
    {
      "inputs": [],
      "name": "METADATA_ADMIN",
      "outputs": [
        {
          "internalType": "bytes32",
          "name": "",
          "type": "bytes32"
        }
      ],
      "stateMutability": "view",
      "type": "function"
    },
    {
      "inputs": [],
      "name": "MINTER",
      "outputs": [
        {
          "internalType": "bytes32",
          "name": "",
          "type": "bytes32"
        }
      ],
      "stateMutability": "view",
      "type": "function"
    },
    {
      "inputs": [
        {
          "internalType": "uint256",
          "name": "tokenId",
          "type": "uint256"
        },
        {
          "internalType": "uint256",
          "name": "onSaleDate",
          "type": "uint256"
        }
      ],
      "name": "SetTokenOnSaleDate",
      "outputs": [],
      "stateMutability": "nonpayable",
      "type": "function"
    },
    {
      "inputs": [
        {
          "internalType": "uint256",
          "name": "",
          "type": "uint256"
        }
      ],
      "name": "TokenSupply",
      "outputs": [
        {
          "internalType": "uint256",
          "name": "",
          "type": "uint256"
        }
      ],
      "stateMutability": "view",
      "type": "function"
    },
    {
      "inputs": [
        {
          "internalType": "uint256",
          "name": "tokenId",
          "type": "uint256"
        },
        {
          "internalType": "string",
          "name": "json",
          "type": "string"
        },
        {
          "internalType": "uint256",
          "name": "curve",
          "type": "uint256"
        },
        {
          "internalType": "uint256",
          "name": "multiplier",
          "type": "uint256"
        }
      ],
      "name": "UpdateTokenData",
      "outputs": [],
      "stateMutability": "nonpayable",
      "type": "function"
    },
    {
      "inputs": [
        {
          "internalType": "uint256",
          "name": "",
          "type": "uint256"
        }
      ],
      "name": "_tokenURIs",
      "outputs": [
        {
          "internalType": "string",
          "name": "",
          "type": "string"
        }
      ],
      "stateMutability": "view",
      "type": "function"
    },
    {
      "inputs": [
        {
          "internalType": "address",
          "name": "account",
          "type": "address"
        },
        {
          "internalType": "uint256",
          "name": "id",
          "type": "uint256"
        }
      ],
      "name": "balanceOf",
      "outputs": [
        {
          "internalType": "uint256",
          "name": "",
          "type": "uint256"
        }
      ],
      "stateMutability": "view",
      "type": "function"
    },
    {
      "inputs": [
        {
          "internalType": "address[]",
          "name": "accounts",
          "type": "address[]"
        },
        {
          "internalType": "uint256[]",
          "name": "ids",
          "type": "uint256[]"
        }
      ],
      "name": "balanceOfBatch",
      "outputs": [
        {
          "internalType": "uint256[]",
          "name": "",
          "type": "uint256[]"
        }
      ],
      "stateMutability": "view",
      "type": "function"
    },
    {
      "inputs": [
        {
          "internalType": "uint256",
          "name": "tokenId",
          "type": "uint256"
        }
      ],
      "name": "burn",
      "outputs": [],
      "stateMutability": "nonpayable",
      "type": "function"
    },
    {
      "inputs": [
        {
          "internalType": "uint256",
          "name": "id",
          "type": "uint256"
        },
        {
          "internalType": "uint256",
          "name": "value",
          "type": "uint256"
        }
      ],
      "name": "burn",
      "outputs": [],
      "stateMutability": "nonpayable",
      "type": "function"
    },
    {
      "inputs": [
        {
          "internalType": "uint256[]",
          "name": "ids",
          "type": "uint256[]"
        },
        {
          "internalType": "uint256[]",
          "name": "values",
          "type": "uint256[]"
        }
      ],
      "name": "burnBatch",
      "outputs": [],
      "stateMutability": "nonpayable",
      "type": "function"
    },
    {
      "inputs": [
        {
          "internalType": "uint256",
          "name": "tokenId",
          "type": "uint256"
        },
        {
          "internalType": "uint256",
          "name": "maxPrice",
          "type": "uint256"
        }
      ],
      "name": "buyNFTwithGAME",
      "outputs": [],
      "stateMutability": "nonpayable",
      "type": "function"
    },
    {
      "inputs": [
        {
          "internalType": "uint256",
          "name": "",
          "type": "uint256"
        }
      ],
      "name": "curves",
      "outputs": [
        {
          "internalType": "uint256",
          "name": "",
          "type": "uint256"
        }
      ],
      "stateMutability": "view",
      "type": "function"
    },
    {
      "inputs": [],
      "name": "gameAdmin",
      "outputs": [
        {
          "internalType": "contract iGAME_Master",
          "name": "",
          "type": "address"
        }
      ],
      "stateMutability": "view",
      "type": "function"
    },
    {
      "inputs": [],
      "name": "gameToken",
      "outputs": [
        {
          "internalType": "contract iGAME_ERC20",
          "name": "",
          "type": "address"
        }
      ],
      "stateMutability": "view",
      "type": "function"
    },
    {
      "inputs": [
        {
          "internalType": "uint256",
          "name": "tokenId",
          "type": "uint256"
        }
      ],
      "name": "getBuyPrice",
      "outputs": [
        {
          "internalType": "uint256",
          "name": "",
          "type": "uint256"
        }
      ],
      "stateMutability": "view",
      "type": "function"
    },
    {
      "inputs": [
        {
          "internalType": "uint256",
          "name": "tokenId",
          "type": "uint256"
        },
        {
          "internalType": "uint256",
          "name": "printNumber",
          "type": "uint256"
        }
      ],
      "name": "getPrintPrice",
      "outputs": [
        {
          "internalType": "uint256",
          "name": "price",
          "type": "uint256"
        }
      ],
      "stateMutability": "view",
      "type": "function"
    },
    {
      "inputs": [
        {
          "internalType": "bytes32",
          "name": "role",
          "type": "bytes32"
        }
      ],
      "name": "getRoleAdmin",
      "outputs": [
        {
          "internalType": "bytes32",
          "name": "",
          "type": "bytes32"
        }
      ],
      "stateMutability": "view",
      "type": "function"
    },
    {
      "inputs": [
        {
          "internalType": "bytes32",
          "name": "role",
          "type": "bytes32"
        },
        {
          "internalType": "uint256",
          "name": "index",
          "type": "uint256"
        }
      ],
      "name": "getRoleMember",
      "outputs": [
        {
          "internalType": "address",
          "name": "",
          "type": "address"
        }
      ],
      "stateMutability": "view",
      "type": "function"
    },
    {
      "inputs": [
        {
          "internalType": "bytes32",
          "name": "role",
          "type": "bytes32"
        }
      ],
      "name": "getRoleMemberCount",
      "outputs": [
        {
          "internalType": "uint256",
          "name": "",
          "type": "uint256"
        }
      ],
      "stateMutability": "view",
      "type": "function"
    },
    {
      "inputs": [
        {
          "internalType": "uint256",
          "name": "tokenId",
          "type": "uint256"
        }
      ],
      "name": "getSellPrice",
      "outputs": [
        {
          "internalType": "uint256",
          "name": "",
          "type": "uint256"
        }
      ],
      "stateMutability": "view",
      "type": "function"
    },
    {
      "inputs": [
        {
          "internalType": "bytes32",
          "name": "role",
          "type": "bytes32"
        },
        {
          "internalType": "address",
          "name": "account",
          "type": "address"
        }
      ],
      "name": "grantRole",
      "outputs": [],
      "stateMutability": "nonpayable",
      "type": "function"
    },
    {
      "inputs": [
        {
          "internalType": "uint256",
          "name": "id",
          "type": "uint256"
        }
      ],
      "name": "hasMinted",
      "outputs": [
        {
          "internalType": "bool",
          "name": "",
          "type": "bool"
        }
      ],
      "stateMutability": "view",
      "type": "function"
    },
    {
      "inputs": [
        {
          "internalType": "bytes32",
          "name": "role",
          "type": "bytes32"
        },
        {
          "internalType": "address",
          "name": "account",
          "type": "address"
        }
      ],
      "name": "hasRole",
      "outputs": [
        {
          "internalType": "bool",
          "name": "",
          "type": "bool"
        }
      ],
      "stateMutability": "view",
      "type": "function"
    },
    {
      "inputs": [
        {
          "internalType": "uint256",
          "name": "",
          "type": "uint256"
        }
      ],
      "name": "initialized",
      "outputs": [
        {
          "internalType": "bool",
          "name": "",
          "type": "bool"
        }
      ],
      "stateMutability": "view",
      "type": "function"
    },
    {
      "inputs": [
        {
          "internalType": "address",
          "name": "account",
          "type": "address"
        },
        {
          "internalType": "address",
          "name": "operator",
          "type": "address"
        }
      ],
      "name": "isApprovedForAll",
      "outputs": [
        {
          "internalType": "bool",
          "name": "",
          "type": "bool"
        }
      ],
      "stateMutability": "view",
      "type": "function"
    },
    {
      "inputs": [
        {
          "internalType": "address",
          "name": "to",
          "type": "address"
        },
        {
          "internalType": "uint256",
          "name": "id",
          "type": "uint256"
        },
        {
          "internalType": "uint256",
          "name": "value",
          "type": "uint256"
        },
        {
          "internalType": "bytes",
          "name": "data",
          "type": "bytes"
        }
      ],
      "name": "mint",
      "outputs": [],
      "stateMutability": "nonpayable",
      "type": "function"
    },
    {
      "inputs": [
        {
          "internalType": "address",
          "name": "to",
          "type": "address"
        },
        {
          "internalType": "uint256[]",
          "name": "ids",
          "type": "uint256[]"
        },
        {
          "internalType": "uint256[]",
          "name": "values",
          "type": "uint256[]"
        },
        {
          "internalType": "bytes",
          "name": "data",
          "type": "bytes"
        }
      ],
      "name": "mintBatch",
      "outputs": [],
      "stateMutability": "nonpayable",
      "type": "function"
    },
    {
      "inputs": [],
      "name": "mintingActive",
      "outputs": [
        {
          "internalType": "bool",
          "name": "",
          "type": "bool"
        }
      ],
      "stateMutability": "view",
      "type": "function"
    },
    {
      "inputs": [],
      "name": "mintingEnabled",
      "outputs": [
        {
          "internalType": "bool",
          "name": "",
          "type": "bool"
        }
      ],
      "stateMutability": "view",
      "type": "function"
    },
    {
      "inputs": [],
      "name": "multiple",
      "outputs": [
        {
          "internalType": "uint256",
          "name": "",
          "type": "uint256"
        }
      ],
      "stateMutability": "view",
      "type": "function"
    },
    {
      "inputs": [
        {
          "internalType": "uint256",
          "name": "",
          "type": "uint256"
        }
      ],
      "name": "multipliers",
      "outputs": [
        {
          "internalType": "uint256",
          "name": "",
          "type": "uint256"
        }
      ],
      "stateMutability": "view",
      "type": "function"
    },
    {
      "inputs": [],
      "name": "nextTokenId",
      "outputs": [
        {
          "internalType": "uint256",
          "name": "",
          "type": "uint256"
        }
      ],
      "stateMutability": "view",
      "type": "function"
    },
    {
      "inputs": [
        {
          "internalType": "bytes32",
          "name": "role",
          "type": "bytes32"
        },
        {
          "internalType": "address",
          "name": "account",
          "type": "address"
        }
      ],
      "name": "renounceRole",
      "outputs": [],
      "stateMutability": "nonpayable",
      "type": "function"
    },
    {
      "inputs": [
        {
          "internalType": "bytes32",
          "name": "role",
          "type": "bytes32"
        },
        {
          "internalType": "address",
          "name": "account",
          "type": "address"
        }
      ],
      "name": "revokeRole",
      "outputs": [],
      "stateMutability": "nonpayable",
      "type": "function"
    },
    {
      "inputs": [
        {
          "internalType": "address",
          "name": "from",
          "type": "address"
        },
        {
          "internalType": "address",
          "name": "to",
          "type": "address"
        },
        {
          "internalType": "uint256[]",
          "name": "ids",
          "type": "uint256[]"
        },
        {
          "internalType": "uint256[]",
          "name": "amounts",
          "type": "uint256[]"
        },
        {
          "internalType": "bytes",
          "name": "data",
          "type": "bytes"
        }
      ],
      "name": "safeBatchTransferFrom",
      "outputs": [],
      "stateMutability": "nonpayable",
      "type": "function"
    },
    {
      "inputs": [
        {
          "internalType": "address",
          "name": "from",
          "type": "address"
        },
        {
          "internalType": "address",
          "name": "to",
          "type": "address"
        },
        {
          "internalType": "uint256",
          "name": "id",
          "type": "uint256"
        },
        {
          "internalType": "uint256",
          "name": "amount",
          "type": "uint256"
        },
        {
          "internalType": "bytes",
          "name": "data",
          "type": "bytes"
        }
      ],
      "name": "safeTransferFrom",
      "outputs": [],
      "stateMutability": "nonpayable",
      "type": "function"
    },
    {
      "inputs": [
        {
          "internalType": "uint256",
          "name": "",
          "type": "uint256"
        }
      ],
      "name": "saleStarts",
      "outputs": [
        {
          "internalType": "uint256",
          "name": "",
          "type": "uint256"
        }
      ],
      "stateMutability": "view",
      "type": "function"
    },
    {
      "inputs": [
        {
          "internalType": "address",
          "name": "operator",
          "type": "address"
        },
        {
          "internalType": "bool",
          "name": "approved",
          "type": "bool"
        }
      ],
      "name": "setApprovalForAll",
      "outputs": [],
      "stateMutability": "nonpayable",
      "type": "function"
    },
    {
      "inputs": [
        {
          "internalType": "string",
          "name": "newuri",
          "type": "string"
        }
      ],
      "name": "setBaseURI",
      "outputs": [],
      "stateMutability": "nonpayable",
      "type": "function"
    },
    {
      "inputs": [
        {
          "internalType": "string",
          "name": "newuri",
          "type": "string"
        },
        {
          "internalType": "uint256",
          "name": "id",
          "type": "uint256"
        }
      ],
      "name": "setURI",
      "outputs": [],
      "stateMutability": "nonpayable",
      "type": "function"
    },
    {
      "inputs": [
        {
          "internalType": "bytes4",
          "name": "interfaceId",
          "type": "bytes4"
        }
      ],
      "name": "supportsInterface",
      "outputs": [
        {
          "internalType": "bool",
          "name": "",
          "type": "bool"
        }
      ],
      "stateMutability": "view",
      "type": "function"
    },
    {
      "inputs": [
        {
          "internalType": "uint256",
          "name": "tokenid",
          "type": "uint256"
        }
      ],
      "name": "uri",
      "outputs": [
        {
          "internalType": "string",
          "name": "",
          "type": "string"
        }
      ],
      "stateMutability": "view",
      "type": "function"
    }
  ],
  "bytecode": "0x60806040526012600b55670de0b6b3a7640000600c55629896806015553480156200002957600080fd5b50604051620066e6380380620066e6833981810160405260408110156200004f57600080fd5b810190808051906020019092919080519060200190929190505050620000826301ffc9a760e01b6200024c60201b60201c565b6200009a63d9b67a2660e01b6200024c60201b60201c565b620000b2630e89341c60e01b6200024c60201b60201c565b620000d66000801b620000ca6200035560201b60201c565b6200035d60201b60201c565b620001177ff6e33f9720e4529cb1c710e3344dc00830589a3239198ffa39b07117085d250e6200010b6200035560201b60201c565b6200035d60201b60201c565b620001587ff0887ba65ee2024ea881d91b74c2450ef19e1557f03bed3ea9f16b037cbe2dc96200014c6200035560201b60201c565b6200035d60201b60201c565b6200018d6000801b7ff0887ba65ee2024ea881d91b74c2450ef19e1557f03bed3ea9f16b037cbe2dc96200037360201b60201c565b620001c26000801b7ff6e33f9720e4529cb1c710e3344dc00830589a3239198ffa39b07117085d250e6200037360201b60201c565b81600860006101000a81548173ffffffffffffffffffffffffffffffffffffffff021916908373ffffffffffffffffffffffffffffffffffffffff16021790555080600960006101000a81548173ffffffffffffffffffffffffffffffffffffffff021916908373ffffffffffffffffffffffffffffffffffffffff160217905550505062000550565b63ffffffff60e01b817bffffffffffffffffffffffffffffffffffffffffffffffffffffffff19161415620002e9576040517f08c379a000000000000000000000000000000000000000000000000000000000815260040180806020018281038252601c8152602001807f4552433136353a20696e76616c696420696e746572666163652069640000000081525060200191505060405180910390fd5b6001600080837bffffffffffffffffffffffffffffffffffffffffffffffffffffffff19167bffffffffffffffffffffffffffffffffffffffffffffffffffffffff1916815260200190815260200160002060006101000a81548160ff02191690831515021790555050565b600033905090565b6200036f8282620003d760201b60201c565b5050565b806005600084815260200190815260200160002060020154837fbd79b86ffe0ab8e8776151514217cd7cacd52c909f66475c3af44e129f0b00ff60405160405180910390a48060056000848152602001908152602001600020600201819055505050565b6200040681600560008581526020019081526020016000206000016200047b60201b6200419c1790919060201c565b1562000477576200041c6200035560201b60201c565b73ffffffffffffffffffffffffffffffffffffffff168173ffffffffffffffffffffffffffffffffffffffff16837f2f8788117e7eff1d82e926ec794901d17c78024a50270940304540a733656f0d60405160405180910390a45b5050565b6000620004ab836000018373ffffffffffffffffffffffffffffffffffffffff1660001b620004b360201b60201c565b905092915050565b6000620004c783836200052d60201b60201c565b6200052257826000018290806001815401808255809150506001900390600052602060002001600090919091909150558260000180549050836001016000848152602001908152602001600020819055506001905062000527565b600090505b92915050565b600080836001016000848152602001908152602001600020541415905092915050565b61618680620005606000396000f3fe608060405234801561001057600080fd5b50600436106102945760003560e01c8063731133e911610167578063b390c0ab116100ce578063d547741f11610087578063d547741f14611622578063e5b9559514611670578063e985e9c5146116b4578063ec7982571461172e578063f242432a14611770578063fe6d81241461187f57610294565b8063b390c0ab14611421578063ba730e5314611459578063ba84be071461149b578063c3dfdae614611574578063c707562d146115a8578063ca15c873146115e057610294565b8063979711601161012057806397971160146112ef5780639fd6db1214611333578063a217fddf14611353578063a22cb46514611371578063ac7fc263146113c1578063b1de303e1461140357610294565b8063731133e914610f9c57806375794a3c1461108b57806376adcba5146110a957806383ca4b6f146110dd5780639010d07c1461122957806391d148541461128b57610294565b80632b606d2c1161020b57806342966c68116101c457806342966c6814610b56578063437a8ae614610b845780634e1273f414610ba257806355f804b314610d43578063654d133314610dfe57806367db3b8f14610ed757610294565b80632b606d2c146107e95780632eb2c2d6146108355780632f2ff15d14610a5857806331f9c91914610aa657806336568abe14610ac65780633d24265514610b1457610294565b80630e89341c1161025d5780630e89341c14610465578063118c4f131461050c578063186d44321461052a5780631bf7d749146105625780631f7fdffa146105a4578063248a9ca3146107a757610294565b8062fdd58e1461029957806301c11d96146102fb57806301ffc9a71461031957806308d4db141461037c5780630bb78ec1146103be575b600080fd5b6102e5600480360360408110156102af57600080fd5b81019080803573ffffffffffffffffffffffffffffffffffffffff1690602001909291908035906020019092919050505061189d565b6040518082815260200191505060405180910390f35b61030361197d565b6040518082815260200191505060405180910390f35b6103646004803603602081101561032f57600080fd5b8101908080357bffffffffffffffffffffffffffffffffffffffffffffffffffffffff19169060200190929190505050611983565b60405180821515815260200191505060405180910390f35b6103a86004803603602081101561039257600080fd5b81019080803590602001909291905050506119ea565b6040518082815260200191505060405180910390f35b6103ea600480360360208110156103d457600080fd5b8101908080359060200190929190505050611a18565b6040518080602001828103825283818151815260200191508051906020019080838360005b8381101561042a57808201518184015260208101905061040f565b50505050905090810190601f1680156104575780820380516001836020036101000a031916815260200191505b509250505060405180910390f35b6104916004803603602081101561047b57600080fd5b8101908080359060200190929190505050611ac8565b6040518080602001828103825283818151815260200191508051906020019080838360005b838110156104d15780820151818401526020810190506104b6565b50505050905090810190601f1680156104fe5780820380516001836020036101000a031916815260200191505b509250505060405180910390f35b610514611d52565b6040518082815260200191505060405180910390f35b6105606004803603604081101561054057600080fd5b810190808035906020019092919080359060200190929190505050611d76565b005b61058e6004803603602081101561057857600080fd5b8101908080359060200190929190505050612224565b6040518082815260200191505060405180910390f35b6107a5600480360360808110156105ba57600080fd5b81019080803573ffffffffffffffffffffffffffffffffffffffff169060200190929190803590602001906401000000008111156105f757600080fd5b82018360208201111561060957600080fd5b8035906020019184602083028401116401000000008311171561062b57600080fd5b919080806020026020016040519081016040528093929190818152602001838360200280828437600081840152601f19601f8201169050808301925050505050505091929192908035906020019064010000000081111561068b57600080fd5b82018360208201111561069d57600080fd5b803590602001918460208302840111640100000000831117156106bf57600080fd5b919080806020026020016040519081016040528093929190818152602001838360200280828437600081840152601f19601f8201169050808301925050505050505091929192908035906020019064010000000081111561071f57600080fd5b82018360208201111561073157600080fd5b8035906020019184600183028401116401000000008311171561075357600080fd5b91908080601f016020809104026020016040519081016040528093929190818152602001838380828437600081840152601f19601f82011690508083019250505050505050919291929050505061223c565b005b6107d3600480360360208110156107bd57600080fd5b8101908080359060200190929190505050612281565b6040518082815260200191505060405180910390f35b61081f600480360360408110156107ff57600080fd5b8101908080359060200190929190803590602001909291905050506122a1565b6040518082815260200191505060405180910390f35b610a56600480360360a081101561084b57600080fd5b81019080803573ffffffffffffffffffffffffffffffffffffffff169060200190929190803573ffffffffffffffffffffffffffffffffffffffff169060200190929190803590602001906401000000008111156108a857600080fd5b8201836020820111156108ba57600080fd5b803590602001918460208302840111640100000000831117156108dc57600080fd5b919080806020026020016040519081016040528093929190818152602001838360200280828437600081840152601f19601f8201169050808301925050505050505091929192908035906020019064010000000081111561093c57600080fd5b82018360208201111561094e57600080fd5b8035906020019184602083028401116401000000008311171561097057600080fd5b919080806020026020016040519081016040528093929190818152602001838360200280828437600081840152601f19601f820116905080830192505050505050509192919290803590602001906401000000008111156109d057600080fd5b8201836020820111156109e257600080fd5b80359060200191846001830284011164010000000083111715610a0457600080fd5b91908080601f016020809104026020016040519081016040528093929190818152602001838380828437600081840152601f19601f8201169050808301925050505050505091929192905050506123e6565b005b610aa460048036036040811015610a6e57600080fd5b8101908080359060200190929190803573ffffffffffffffffffffffffffffffffffffffff169060200190929190505050612871565b005b610aae6128fb565b60405180821515815260200191505060405180910390f35b610b1260048036036040811015610adc57600080fd5b8101908080359060200190929190803573ffffffffffffffffffffffffffffffffffffffff16906020019092919050505061290e565b005b610b4060048036036020811015610b2a57600080fd5b81019080803590602001909291905050506129a7565b6040518082815260200191505060405180910390f35b610b8260048036036020811015610b6c57600080fd5b81019080803590602001909291905050506129bf565b005b610b8c612b2a565b6040518082815260200191505060405180910390f35b610cec60048036036040811015610bb857600080fd5b8101908080359060200190640100000000811115610bd557600080fd5b820183602082011115610be757600080fd5b80359060200191846020830284011164010000000083111715610c0957600080fd5b919080806020026020016040519081016040528093929190818152602001838360200280828437600081840152601f19601f82011690508083019250505050505050919291929080359060200190640100000000811115610c6957600080fd5b820183602082011115610c7b57600080fd5b80359060200191846020830284011164010000000083111715610c9d57600080fd5b919080806020026020016040519081016040528093929190818152602001838360200280828437600081840152601f19601f820116905080830192505050505050509192919290505050612b30565b6040518080602001828103825283818151815260200191508051906020019060200280838360005b83811015610d2f578082015181840152602081019050610d14565b505050509050019250505060405180910390f35b610dfc60048036036020811015610d5957600080fd5b8101908080359060200190640100000000811115610d7657600080fd5b820183602082011115610d8857600080fd5b80359060200191846001830284011164010000000083111715610daa57600080fd5b91908080601f016020809104026020016040519081016040528093929190818152602001838380828437600081840152601f19601f820116905080830192505050505050509192919290505050612d22565b005b610ed560048036036080811015610e1457600080fd5b810190808035906020019092919080359060200190640100000000811115610e3b57600080fd5b820183602082011115610e4d57600080fd5b80359060200191846001830284011164010000000083111715610e6f57600080fd5b91908080601f016020809104026020016040519081016040528093929190818152602001838380828437600081840152601f19601f8201169050808301925050505050505091929192908035906020019092919080359060200190929190505050612d6f565b005b610f9a60048036036040811015610eed57600080fd5b8101908080359060200190640100000000811115610f0a57600080fd5b820183602082011115610f1c57600080fd5b80359060200191846001830284011164010000000083111715610f3e57600080fd5b91908080601f016020809104026020016040519081016040528093929190818152602001838380828437600081840152601f19601f820116905080830192505050505050509192919290803590602001909291905050506130b5565b005b61108960048036036080811015610fb257600080fd5b81019080803573ffffffffffffffffffffffffffffffffffffffff16906020019092919080359060200190929190803590602001909291908035906020019064010000000081111561100357600080fd5b82018360208201111561101557600080fd5b8035906020019184600183028401116401000000008311171561103757600080fd5b91908080601f016020809104026020016040519081016040528093929190818152602001838380828437600081840152601f19601f820116905080830192505050505050509192919290505050613114565b005b611093613159565b6040518082815260200191505060405180910390f35b6110b161315f565b604051808273ffffffffffffffffffffffffffffffffffffffff16815260200191505060405180910390f35b611227600480360360408110156110f357600080fd5b810190808035906020019064010000000081111561111057600080fd5b82018360208201111561112257600080fd5b8035906020019184602083028401116401000000008311171561114457600080fd5b919080806020026020016040519081016040528093929190818152602001838360200280828437600081840152601f19601f820116905080830192505050505050509192919290803590602001906401000000008111156111a457600080fd5b8201836020820111156111b657600080fd5b803590602001918460208302840111640100000000831117156111d857600080fd5b919080806020026020016040519081016040528093929190818152602001838360200280828437600081840152601f19601f820116905080830192505050505050509192919290505050613185565b005b61125f6004803603604081101561123f57600080fd5b810190808035906020019092919080359060200190929190505050613194565b604051808273ffffffffffffffffffffffffffffffffffffffff16815260200191505060405180910390f35b6112d7600480360360408110156112a157600080fd5b8101908080359060200190929190803573ffffffffffffffffffffffffffffffffffffffff1690602001909291905050506131c6565b60405180821515815260200191505060405180910390f35b61131b6004803603602081101561130557600080fd5b81019080803590602001909291905050506131f8565b60405180821515815260200191505060405180910390f35b61133b613218565b60405180821515815260200191505060405180910390f35b61135b61322b565b6040518082815260200191505060405180910390f35b6113bf6004803603604081101561138757600080fd5b81019080803573ffffffffffffffffffffffffffffffffffffffff169060200190929190803515159060200190929190505050613232565b005b6113ed600480360360208110156113d757600080fd5b81019080803590602001909291905050506133cb565b6040518082815260200191505060405180910390f35b61140b6133e3565b6040518082815260200191505060405180910390f35b6114576004803603604081101561143757600080fd5b810190808035906020019092919080359060200190929190505050613407565b005b6114856004803603602081101561146f57600080fd5b8101908080359060200190929190505050613416565b6040518082815260200191505060405180910390f35b611572600480360360808110156114b157600080fd5b8101908080359060200190929190803590602001906401000000008111156114d857600080fd5b8201836020820111156114ea57600080fd5b8035906020019184600183028401116401000000008311171561150c57600080fd5b91908080601f016020809104026020016040519081016040528093929190818152602001838380828437600081840152601f19601f8201169050808301925050505050505091929192908035906020019092919080359060200190929190505050613467565b005b61157c6138b3565b604051808273ffffffffffffffffffffffffffffffffffffffff16815260200191505060405180910390f35b6115de600480360360408110156115be57600080fd5b8101908080359060200190929190803590602001909291905050506138d9565b005b61160c600480360360208110156115f657600080fd5b8101908080359060200190929190505050613c7c565b6040518082815260200191505060405180910390f35b61166e6004803603604081101561163857600080fd5b8101908080359060200190929190803573ffffffffffffffffffffffffffffffffffffffff169060200190929190505050613ca3565b005b61169c6004803603602081101561168657600080fd5b8101908080359060200190929190505050613d2d565b60405180821515815260200191505060405180910390f35b611716600480360360408110156116ca57600080fd5b81019080803573ffffffffffffffffffffffffffffffffffffffff169060200190929190803573ffffffffffffffffffffffffffffffffffffffff169060200190929190505050613d57565b60405180821515815260200191505060405180910390f35b61175a6004803603602081101561174457600080fd5b8101908080359060200190929190505050613deb565b6040518082815260200191505060405180910390f35b61187d600480360360a081101561178657600080fd5b81019080803573ffffffffffffffffffffffffffffffffffffffff169060200190929190803573ffffffffffffffffffffffffffffffffffffffff1690602001909291908035906020019092919080359060200190929190803590602001906401000000008111156117f757600080fd5b82018360208201111561180957600080fd5b8035906020019184600183028401116401000000008311171561182b57600080fd5b91908080601f016020809104026020016040519081016040528093929190818152602001838380828437600081840152601f19601f820116905080830192505050505050509192919290505050613e03565b005b611887614178565b6040518082815260200191505060405180910390f35b60008073ffffffffffffffffffffffffffffffffffffffff168373ffffffffffffffffffffffffffffffffffffffff161415611924576040517f08c379a000000000000000000000000000000000000000000000000000000000815260040180806020018281038252602b815260200180615ec6602b913960400191505060405180910390fd5b6001600083815260200190815260200160002060008473ffffffffffffffffffffffffffffffffffffffff1673ffffffffffffffffffffffffffffffffffffffff16815260200190815260200160002054905092915050565b600d5481565b6000806000837bffffffffffffffffffffffffffffffffffffffffffffffffffffffff19167bffffffffffffffffffffffffffffffffffffffffffffffffffffffff1916815260200190815260200160002060009054906101000a900460ff169050919050565b60008060126000848152602001908152602001600020549050611a1083600183016122a1565b915050919050565b60076020528060005260406000206000915090508054600181600116156101000203166002900480601f016020809104026020016040519081016040528092919081815260200182805460018160011615610100020316600290048015611ac05780601f10611a9557610100808354040283529160200191611ac0565b820191906000526020600020905b815481529060010190602001808311611aa357829003601f168201915b505050505081565b606080600760008481526020019081526020016000208054600181600116156101000203166002900480601f016020809104026020016040519081016040528092919081815260200182805460018160011615610100020316600290048015611b725780601f10611b4757610100808354040283529160200191611b72565b820191906000526020600020905b815481529060010190602001808311611b5557829003601f168201915b50505050509050600060068054600181600116156101000203166002900490501415611ba15780915050611d4d565b600081511115611c7a576006816040516020018083805460018160011615610100020316600290048015611c0c5780601f10611bea576101008083540402835291820191611c0c565b820191906000526020600020905b815481529060010190602001808311611bf8575b505082805190602001908083835b60208310611c3d5780518252602082019150602081019050602083039250611c1a565b6001836020036101000a03801982511681845116808217855250505050505090500192505050604051602081830303815290604052915050611d4d565b6006611c85846141cc565b6040516020018083805460018160011615610100020316600290048015611ce35780601f10611cc1576101008083540402835291820191611ce3565b820191906000526020600020905b815481529060010190602001808311611ccf575b505082805190602001908083835b60208310611d145780518252602082019150602081019050602083039250611cf1565b6001836020036101000a038019825116818451168082178552505050505050905001925050506040516020818303038152906040529150505b919050565b7f9667e80708b6eeeb0053fa0cca44e028ff548e2a9f029edfeac87c118b08b7c881565b601160008381526020019081526020016000205442118015611dab575060006011600084815260200190815260200160002054115b611df8576040517f08c379a0000000000000000000000000000000000000000000000000000000008152600401808060200182810382526000815260200160200191505060405180910390fd5b6000611e178360126000868152602001908152602001600020546122a1565b9050600081118015611e2a5750600d5481105b611e3357600080fd5b60016012600085815260200190815260200160002060008282540192505081905550600860009054906101000a900473ffffffffffffffffffffffffffffffffffffffff1673ffffffffffffffffffffffffffffffffffffffff1663e2b8e7d33330846040518463ffffffff1660e01b8152600401808473ffffffffffffffffffffffffffffffffffffffff1681526020018373ffffffffffffffffffffffffffffffffffffffff1681526020018281526020019350505050600060405180830381600087803b158015611f0657600080fd5b505af1158015611f1a573d6000803e3d6000fd5b50505050600860009054906101000a900473ffffffffffffffffffffffffffffffffffffffff1673ffffffffffffffffffffffffffffffffffffffff1663e2b8e7d33033611f71858761431390919063ffffffff16565b6040518463ffffffff1660e01b8152600401808473ffffffffffffffffffffffffffffffffffffffff1681526020018373ffffffffffffffffffffffffffffffffffffffff1681526020018281526020019350505050600060405180830381600087803b158015611fe157600080fd5b505af1158015611ff5573d6000803e3d6000fd5b50505050600061200f60328361435d90919063ffffffff16565b9050600061203a607d61202c600a866143a790919063ffffffff16565b61435d90919063ffffffff16565b9050600860009054906101000a900473ffffffffffffffffffffffffffffffffffffffff1673ffffffffffffffffffffffffffffffffffffffff1663e2b8e7d330600a60009054906101000a900473ffffffffffffffffffffffffffffffffffffffff16866040518463ffffffff1660e01b8152600401808473ffffffffffffffffffffffffffffffffffffffff1681526020018373ffffffffffffffffffffffffffffffffffffffff1681526020018281526020019350505050600060405180830381600087803b15801561210f57600080fd5b505af1158015612123573d6000803e3d6000fd5b505050506000601554868161213457fe5b049050600860009054906101000a900473ffffffffffffffffffffffffffffffffffffffff1673ffffffffffffffffffffffffffffffffffffffff1663e2b8e7d33083856040518463ffffffff1660e01b8152600401808473ffffffffffffffffffffffffffffffffffffffff1681526020018373ffffffffffffffffffffffffffffffffffffffff1681526020018281526020019350505050600060405180830381600087803b1580156121e857600080fd5b505af11580156121fc573d6000803e3d6000fd5b5050505061221c338760016040518060200160405280600081525061442d565b505050505050565b600f6020528060005260406000206000915090505481565b6122667ff0887ba65ee2024ea881d91b74c2450ef19e1557f03bed3ea9f16b037cbe2dc9336131c6565b61226f57600080fd5b61227b8484848461468a565b50505050565b600060056000838152602001908152602001600020600201549050919050565b600080600f60008581526020019081526020016000205490506000601360008681526020019081526020016000205490506000600b54600a0a9050600060329050600061230f8560090a6123018560038b0a6143a790919063ffffffff16565b61435d90919063ffffffff16565b90506123486123398661232b868b6143a790919063ffffffff16565b61435d90919063ffffffff16565b82614a2c90919063ffffffff16565b905061236f61236084846143a790919063ffffffff16565b82614a2c90919063ffffffff16565b90506123aa6103e861239c8661238e898661435d90919063ffffffff16565b6143a790919063ffffffff16565b61435d90919063ffffffff16565b90506123d9836123cb670de0b6b3a7640000846143a790919063ffffffff16565b61435d90919063ffffffff16565b9050505050505092915050565b8151835114612440576040517f08c379a00000000000000000000000000000000000000000000000000000000081526004018080602001828103825260288152602001806160d96028913960400191505060405180910390fd5b600073ffffffffffffffffffffffffffffffffffffffff168473ffffffffffffffffffffffffffffffffffffffff1614156124c6576040517f08c379a0000000000000000000000000000000000000000000000000000000008152600401808060200182810382526025815260200180615f9f6025913960400191505060405180910390fd5b6124ce614ab4565b73ffffffffffffffffffffffffffffffffffffffff168573ffffffffffffffffffffffffffffffffffffffff16148061251457506125138561250e614ab4565b613d57565b5b612569576040517f08c379a0000000000000000000000000000000000000000000000000000000008152600401808060200182810382526032815260200180615fc46032913960400191505060405180910390fd5b6000612573614ab4565b9050612583818787878787614abc565b60005b845181101561275457600085828151811061259d57fe5b6020026020010151905060008583815181106125b557fe5b6020026020010151905061263c816040518060600160405280602a8152602001616019602a91396001600086815260200190815260200160002060008d73ffffffffffffffffffffffffffffffffffffffff1673ffffffffffffffffffffffffffffffffffffffff16815260200190815260200160002054614ac49092919063ffffffff16565b6001600084815260200190815260200160002060008b73ffffffffffffffffffffffffffffffffffffffff1673ffffffffffffffffffffffffffffffffffffffff168152602001908152602001600020819055506126f3816001600085815260200190815260200160002060008b73ffffffffffffffffffffffffffffffffffffffff1673ffffffffffffffffffffffffffffffffffffffff16815260200190815260200160002054614a2c90919063ffffffff16565b6001600084815260200190815260200160002060008a73ffffffffffffffffffffffffffffffffffffffff1673ffffffffffffffffffffffffffffffffffffffff168152602001908152602001600020819055505050806001019050612586565b508473ffffffffffffffffffffffffffffffffffffffff168673ffffffffffffffffffffffffffffffffffffffff168273ffffffffffffffffffffffffffffffffffffffff167f4a39dc06d4c0dbc64b70af90fd698a233a518aa5d07e595d983b8c0526c8f7fb8787604051808060200180602001838103835285818151815260200191508051906020019060200280838360005b838110156128045780820151818401526020810190506127e9565b50505050905001838103825284818151815260200191508051906020019060200280838360005b8381101561284657808201518184015260208101905061282b565b5050505090500194505050505060405180910390a4612869818787878787614b84565b505050505050565b6128986005600084815260200190815260200160002060020154612893614ab4565b6131c6565b6128ed576040517f08c379a000000000000000000000000000000000000000000000000000000000815260040180806020018281038252602f815260200180615e76602f913960400191505060405180910390fd5b6128f78282614f13565b5050565b600e60009054906101000a900460ff1681565b612916614ab4565b73ffffffffffffffffffffffffffffffffffffffff168173ffffffffffffffffffffffffffffffffffffffff1614612999576040517f08c379a000000000000000000000000000000000000000000000000000000000815260040180806020018281038252602f815260200180616122602f913960400191505060405180910390fd5b6129a38282614fa7565b5050565b60126020528060005260406000206000915090505481565b60016129cb338361189d565b1015612a22576040517f08c379a00000000000000000000000000000000000000000000000000000000081526004018080602001828103825260238152602001806160436023913960400191505060405180910390fd5b6000612a2d82613416565b905060016012600084815260200190815260200160002060008282540392505081905550612a5d3383600161503b565b600860009054906101000a900473ffffffffffffffffffffffffffffffffffffffff1673ffffffffffffffffffffffffffffffffffffffff1663e2b8e7d33033846040518463ffffffff1660e01b8152600401808473ffffffffffffffffffffffffffffffffffffffff1681526020018373ffffffffffffffffffffffffffffffffffffffff1681526020018281526020019350505050600060405180830381600087803b158015612b0e57600080fd5b505af1158015612b22573d6000803e3d6000fd5b505050505050565b60155481565b60608151835114612b8c576040517f08c379a00000000000000000000000000000000000000000000000000000000081526004018080602001828103825260298152602001806160b06029913960400191505060405180910390fd5b6060835167ffffffffffffffff81118015612ba657600080fd5b50604051908082528060200260200182016040528015612bd55781602001602082028036833780820191505090505b50905060005b8451811015612d1757600073ffffffffffffffffffffffffffffffffffffffff16858281518110612c0857fe5b602002602001015173ffffffffffffffffffffffffffffffffffffffff161415612c7d576040517f08c379a0000000000000000000000000000000000000000000000000000000008152600401808060200182810382526031815260200180615ef16031913960400191505060405180910390fd5b60016000858381518110612c8d57fe5b602002602001015181526020019081526020016000206000868381518110612cb157fe5b602002602001015173ffffffffffffffffffffffffffffffffffffffff1673ffffffffffffffffffffffffffffffffffffffff16815260200190815260200160002054828281518110612d0057fe5b602002602001018181525050806001019050612bdb565b508091505092915050565b612d4c7ff6e33f9720e4529cb1c710e3344dc00830589a3239198ffa39b07117085d250e336131c6565b612d5557600080fd5b8060069080519060200190612d6b929190615c86565b5050565b620f424060165410612dc4576040517f08c379a0000000000000000000000000000000000000000000000000000000008152600401808060200182810382526000815260200160200191505060405180910390fd5b600082118015612dd5575060148211155b8015612de15750600081115b8015612df05750620f42408111155b612e62576040517f08c379a000000000000000000000000000000000000000000000000000000000815260040180806020018281038252601b8152602001807f76616c696420637572766520616e64206d756c7469706c69657273000000000081525060200191505060405180910390fd5b60011515600960009054906101000a900473ffffffffffffffffffffffffffffffffffffffff1673ffffffffffffffffffffffffffffffffffffffff1663c2babfd7336040518263ffffffff1660e01b8152600401808273ffffffffffffffffffffffffffffffffffffffff16815260200191505060206040518083038186803b158015612eef57600080fd5b505afa158015612f03573d6000803e3d6000fd5b505050506040513d6020811015612f1957600080fd5b8101908080519060200190929190505050151514612f82576040517f08c379a0000000000000000000000000000000000000000000000000000000008152600401808060200182810382526021815260200180615ea56021913960400191505060405180910390fd5b6000601654828602019050600160166000828254019250508190555082600f60008381526020019081526020016000208190555081601360008381526020019081526020016000208190555060016010600083815260200190815260200160002060006101000a81548160ff0219169083151502179055507f855f2403a3717b569ca6483cb3250554954ef4734871df9005e45eb9bffce8cf818585856040518085815260200180602001848152602001838152602001828103825285818151815260200191508051906020019080838360005b83811015613071578082015181840152602081019050613056565b50505050905090810190601f16801561309e5780820380516001836020036101000a031916815260200191505b509550505050505060405180910390a15050505050565b6130df7ff6e33f9720e4529cb1c710e3344dc00830589a3239198ffa39b07117085d250e336131c6565b6130e857600080fd5b8160076000838152602001908152602001600020908051906020019061310f929190615c86565b505050565b61313e7ff0887ba65ee2024ea881d91b74c2450ef19e1557f03bed3ea9f16b037cbe2dc9336131c6565b61314757600080fd5b6131538484848461442d565b50505050565b60165481565b600960009054906101000a900473ffffffffffffffffffffffffffffffffffffffff1681565b613190338383615257565b5050565b60006131be826005600086815260200190815260200160002060000161559290919063ffffffff16565b905092915050565b60006131f082600560008681526020019081526020016000206000016155ac90919063ffffffff16565b905092915050565b60106020528060005260406000206000915054906101000a900460ff1681565b601460009054906101000a900460ff1681565b6000801b81565b8173ffffffffffffffffffffffffffffffffffffffff16613251614ab4565b73ffffffffffffffffffffffffffffffffffffffff1614156132be576040517f08c379a00000000000000000000000000000000000000000000000000000000081526004018080602001828103825260298152602001806160876029913960400191505060405180910390fd5b80600360006132cb614ab4565b73ffffffffffffffffffffffffffffffffffffffff1673ffffffffffffffffffffffffffffffffffffffff16815260200190815260200160002060008473ffffffffffffffffffffffffffffffffffffffff1673ffffffffffffffffffffffffffffffffffffffff16815260200190815260200160002060006101000a81548160ff0219169083151502179055508173ffffffffffffffffffffffffffffffffffffffff16613378614ab4565b73ffffffffffffffffffffffffffffffffffffffff167f17307eab39ab6107e8899845ad3d59bd9653f200f220920489ca2b5937696c318360405180821515815260200191505060405180910390a35050565b60136020528060005260406000206000915090505481565b7ff6e33f9720e4529cb1c710e3344dc00830589a3239198ffa39b07117085d250e81565b61341233838361503b565b5050565b6000806012600084815260200190815260200160002054905061345f6064613451605a61344387866122a1565b6143a790919063ffffffff16565b61435d90919063ffffffff16565b915050919050565b6000151561347485613d2d565b1515146134e9576040517f08c379a00000000000000000000000000000000000000000000000000000000081526004018080602001828103825260198152602001807f746f6b656e20686173206e6f74206265656e206d696e7465640000000000000081525060200191505060405180910390fd5b60011515600960009054906101000a900473ffffffffffffffffffffffffffffffffffffffff1673ffffffffffffffffffffffffffffffffffffffff1663c2babfd7336040518263ffffffff1660e01b8152600401808273ffffffffffffffffffffffffffffffffffffffff16815260200191505060206040518083038186803b15801561357657600080fd5b505afa15801561358a573d6000803e3d6000fd5b505050506040513d60208110156135a057600080fd5b8101908080519060200190929190505050151514613609576040517f08c379a0000000000000000000000000000000000000000000000000000000008152600401808060200182810382526021815260200180615ea56021913960400191505060405180910390fd5b60008211801561361a575060148211155b80156136265750600081115b80156136355750620f42408111155b6136a7576040517f08c379a000000000000000000000000000000000000000000000000000000000815260040180806020018281038252601b8152602001807f76616c696420637572766520616e64206d756c7469706c69657273000000000081525060200191505060405180910390fd5b600183511161371e576040517f08c379a00000000000000000000000000000000000000000000000000000000081526004018080602001828103825260128152602001807f6a736f6e206d757374206e6f6e206e756c6c000000000000000000000000000081525060200191505060405180910390fd5b600115156010600086815260200190815260200160002060009054906101000a900460ff161515146137b8576040517f08c379a00000000000000000000000000000000000000000000000000000000081526004018080602001828103825260198152602001807f746f6b656e206d75737420626520696e697469616c697a65640000000000000081525060200191505060405180910390fd5b600060155485816137c557fe5b04905082600f6000878152602001908152602001600020819055508160136000878152602001908152602001600020819055507f855f2403a3717b569ca6483cb3250554954ef4734871df9005e45eb9bffce8cf858585856040518085815260200180602001848152602001838152602001828103825285818151815260200191508051906020019080838360005b8381101561386f578082015181840152602081019050613854565b50505050905090810190601f16801561389c5780820380516001836020036101000a031916815260200191505b509550505050505060405180910390a15050505050565b600860009054906101000a900473ffffffffffffffffffffffffffffffffffffffff1681565b600015156138e683613d2d565b15151461395b576040517f08c379a00000000000000000000000000000000000000000000000000000000081526004018080602001828103825260158152602001807f746f6b656e20686173206265656e206d696e746564000000000000000000000081525060200191505060405180910390fd5b6000600f600084815260200190815260200160002054116139e4576040517f08c379a00000000000000000000000000000000000000000000000000000000081526004018080602001828103825260118152602001807f6375727665206d7573742062652073657400000000000000000000000000000081525060200191505060405180910390fd5b60008111613a5a576040517f08c379a00000000000000000000000000000000000000000000000000000000081526004018080602001828103825260198152602001807f73616c652064617465206d757374206265206e6f6e7a65726f0000000000000081525060200191505060405180910390fd5b600115156010600084815260200190815260200160002060009054906101000a900460ff16151514613af4576040517f08c379a00000000000000000000000000000000000000000000000000000000081526004018080602001828103825260198152602001807f746f6b656e206d75737420626520696e697469616c697a65640000000000000081525060200191505060405180910390fd5b60011515600960009054906101000a900473ffffffffffffffffffffffffffffffffffffffff1673ffffffffffffffffffffffffffffffffffffffff1663c2babfd7336040518263ffffffff1660e01b8152600401808273ffffffffffffffffffffffffffffffffffffffff16815260200191505060206040518083038186803b158015613b8157600080fd5b505afa158015613b95573d6000803e3d6000fd5b505050506040513d6020811015613bab57600080fd5b8101908080519060200190929190505050151514613c14576040517f08c379a0000000000000000000000000000000000000000000000000000000008152600401808060200182810382526021815260200180615ea56021913960400191505060405180910390fd5b6001811415613c21574290505b8060116000848152602001908152602001600020819055507f6ce538f9e575f548476b624a738c3bc0bdf1ec4e465cacb3f7c67bef3926e20e8282604051808381526020018281526020019250505060405180910390a15050565b6000613c9c600560008481526020019081526020016000206000016155dc565b9050919050565b613cca6005600084815260200190815260200160002060020154613cc5614ab4565b6131c6565b613d1f576040517f08c379a0000000000000000000000000000000000000000000000000000000008152600401808060200182810382526030815260200180615f6f6030913960400191505060405180910390fd5b613d298282614fa7565b5050565b60006002600083815260200190815260200160002060009054906101000a900460ff169050919050565b6000600360008473ffffffffffffffffffffffffffffffffffffffff1673ffffffffffffffffffffffffffffffffffffffff16815260200190815260200160002060008373ffffffffffffffffffffffffffffffffffffffff1673ffffffffffffffffffffffffffffffffffffffff16815260200190815260200160002060009054906101000a900460ff16905092915050565b60116020528060005260406000206000915090505481565b600073ffffffffffffffffffffffffffffffffffffffff168473ffffffffffffffffffffffffffffffffffffffff161415613e89576040517f08c379a0000000000000000000000000000000000000000000000000000000008152600401808060200182810382526025815260200180615f9f6025913960400191505060405180910390fd5b613e91614ab4565b73ffffffffffffffffffffffffffffffffffffffff168573ffffffffffffffffffffffffffffffffffffffff161480613ed75750613ed685613ed1614ab4565b613d57565b5b613f2c576040517f08c379a0000000000000000000000000000000000000000000000000000000008152600401808060200182810382526029815260200180615f466029913960400191505060405180910390fd5b6000613f36614ab4565b9050613f56818787613f47886155f1565b613f50886155f1565b87614abc565b613fd3836040518060600160405280602a8152602001616019602a91396001600088815260200190815260200160002060008a73ffffffffffffffffffffffffffffffffffffffff1673ffffffffffffffffffffffffffffffffffffffff16815260200190815260200160002054614ac49092919063ffffffff16565b6001600086815260200190815260200160002060008873ffffffffffffffffffffffffffffffffffffffff1673ffffffffffffffffffffffffffffffffffffffff1681526020019081526020016000208190555061408a836001600087815260200190815260200160002060008873ffffffffffffffffffffffffffffffffffffffff1673ffffffffffffffffffffffffffffffffffffffff16815260200190815260200160002054614a2c90919063ffffffff16565b6001600086815260200190815260200160002060008773ffffffffffffffffffffffffffffffffffffffff1673ffffffffffffffffffffffffffffffffffffffff168152602001908152602001600020819055508473ffffffffffffffffffffffffffffffffffffffff168673ffffffffffffffffffffffffffffffffffffffff168273ffffffffffffffffffffffffffffffffffffffff167fc3d58168c5ae7397731d063d5bbf3d657854427343f4c083240f7aacaa2d0f628787604051808381526020018281526020019250505060405180910390a4614170818787878787615661565b505050505050565b7ff0887ba65ee2024ea881d91b74c2450ef19e1557f03bed3ea9f16b037cbe2dc981565b60006141c4836000018373ffffffffffffffffffffffffffffffffffffffff1660001b61596e565b905092915050565b60606000821415614214576040518060400160405280600181526020017f3000000000000000000000000000000000000000000000000000000000000000815250905061430e565b600082905060005b6000821461423e578080600101915050600a828161423657fe5b04915061421c565b60608167ffffffffffffffff8111801561425757600080fd5b506040519080825280601f01601f19166020018201604052801561428a5781602001600182028036833780820191505090505b50905060006001830390508593505b6000841461430657600a84816142ab57fe5b0660300160f81b828280600190039350815181106142c557fe5b60200101907effffffffffffffffffffffffffffffffffffffffffffffffffffffffffffff1916908160001a905350600a84816142fe57fe5b049350614299565b819450505050505b919050565b600061435583836040518060400160405280601e81526020017f536166654d6174683a207375627472616374696f6e206f766572666c6f770000815250614ac4565b905092915050565b600061439f83836040518060400160405280601a81526020017f536166654d6174683a206469766973696f6e206279207a65726f0000000000008152506159de565b905092915050565b6000808314156143ba5760009050614427565b60008284029050828482816143cb57fe5b0414614422576040517f08c379a00000000000000000000000000000000000000000000000000000000081526004018080602001828103825260218152602001806160666021913960400191505060405180910390fd5b809150505b92915050565b600073ffffffffffffffffffffffffffffffffffffffff168473ffffffffffffffffffffffffffffffffffffffff1614156144b3576040517f08c379a00000000000000000000000000000000000000000000000000000000081526004018080602001828103825260218152602001806161016021913960400191505060405180910390fd5b600015156002600085815260200190815260200160002060009054906101000a900460ff161515141561450d5760016002600085815260200190815260200160002060006101000a81548160ff0219169083151502179055505b6000614517614ab4565b905061453881600087614529886155f1565b614532886155f1565b87614abc565b61459b836001600087815260200190815260200160002060008873ffffffffffffffffffffffffffffffffffffffff1673ffffffffffffffffffffffffffffffffffffffff16815260200190815260200160002054614a2c90919063ffffffff16565b6001600086815260200190815260200160002060008773ffffffffffffffffffffffffffffffffffffffff1673ffffffffffffffffffffffffffffffffffffffff168152602001908152602001600020819055508473ffffffffffffffffffffffffffffffffffffffff16600073ffffffffffffffffffffffffffffffffffffffff168273ffffffffffffffffffffffffffffffffffffffff167fc3d58168c5ae7397731d063d5bbf3d657854427343f4c083240f7aacaa2d0f628787604051808381526020018281526020019250505060405180910390a461468381600087878787615661565b5050505050565b600073ffffffffffffffffffffffffffffffffffffffff168473ffffffffffffffffffffffffffffffffffffffff161415614710576040517f08c379a00000000000000000000000000000000000000000000000000000000081526004018080602001828103825260218152602001806161016021913960400191505060405180910390fd5b815183511461476a576040517f08c379a00000000000000000000000000000000000000000000000000000000081526004018080602001828103825260288152602001806160d96028913960400191505060405180910390fd5b6000614774614ab4565b905061478581600087878787614abc565b60005b845181101561490e5760001515600260008784815181106147a557fe5b6020026020010151815260200190815260200160002060009054906101000a900460ff1615151415614811576001600260008784815181106147e357fe5b6020026020010151815260200190815260200160002060006101000a81548160ff0219169083151502179055505b61489a6001600087848151811061482457fe5b6020026020010151815260200190815260200160002060008873ffffffffffffffffffffffffffffffffffffffff1673ffffffffffffffffffffffffffffffffffffffff1681526020019081526020016000205485838151811061488457fe5b6020026020010151614a2c90919063ffffffff16565b600160008784815181106148aa57fe5b6020026020010151815260200190815260200160002060008873ffffffffffffffffffffffffffffffffffffffff1673ffffffffffffffffffffffffffffffffffffffff168152602001908152602001600020819055508080600101915050614788565b508473ffffffffffffffffffffffffffffffffffffffff16600073ffffffffffffffffffffffffffffffffffffffff168273ffffffffffffffffffffffffffffffffffffffff167f4a39dc06d4c0dbc64b70af90fd698a233a518aa5d07e595d983b8c0526c8f7fb8787604051808060200180602001838103835285818151815260200191508051906020019060200280838360005b838110156149bf5780820151818401526020810190506149a4565b50505050905001838103825284818151815260200191508051906020019060200280838360005b83811015614a015780820151818401526020810190506149e6565b5050505090500194505050505060405180910390a4614a2581600087878787614b84565b5050505050565b600080828401905083811015614aaa576040517f08c379a000000000000000000000000000000000000000000000000000000000815260040180806020018281038252601b8152602001807f536166654d6174683a206164646974696f6e206f766572666c6f77000000000081525060200191505060405180910390fd5b8091505092915050565b600033905090565b505050505050565b6000838311158290614b71576040517f08c379a00000000000000000000000000000000000000000000000000000000081526004018080602001828103825283818151815260200191508051906020019080838360005b83811015614b36578082015181840152602081019050614b1b565b50505050905090810190601f168015614b635780820380516001836020036101000a031916815260200191505b509250505060405180910390fd5b5060008385039050809150509392505050565b614ba38473ffffffffffffffffffffffffffffffffffffffff16615aa4565b15614f0b578373ffffffffffffffffffffffffffffffffffffffff1663bc197c8187878686866040518663ffffffff1660e01b8152600401808673ffffffffffffffffffffffffffffffffffffffff1681526020018573ffffffffffffffffffffffffffffffffffffffff168152602001806020018060200180602001848103845287818151815260200191508051906020019060200280838360005b83811015614c5b578082015181840152602081019050614c40565b50505050905001848103835286818151815260200191508051906020019060200280838360005b83811015614c9d578082015181840152602081019050614c82565b50505050905001848103825285818151815260200191508051906020019080838360005b83811015614cdc578082015181840152602081019050614cc1565b50505050905090810190601f168015614d095780820380516001836020036101000a031916815260200191505b5098505050505050505050602060405180830381600087803b158015614d2e57600080fd5b505af1925050508015614d6257506040513d6020811015614d4e57600080fd5b810190808051906020019092919050505060015b614e6c57614d6e615d41565b80614d795750614e1b565b806040517f08c379a00000000000000000000000000000000000000000000000000000000081526004018080602001828103825283818151815260200191508051906020019080838360005b83811015614de0578082015181840152602081019050614dc5565b50505050905090810190601f168015614e0d5780820380516001836020036101000a031916815260200191505b509250505060405180910390fd5b6040517f08c379a0000000000000000000000000000000000000000000000000000000008152600401808060200182810382526034815260200180615df86034913960400191505060405180910390fd5b63bc197c8160e01b7bffffffffffffffffffffffffffffffffffffffffffffffffffffffff1916817bffffffffffffffffffffffffffffffffffffffffffffffffffffffff191614614f09576040517f08c379a0000000000000000000000000000000000000000000000000000000008152600401808060200182810382526028815260200180615e4e6028913960400191505060405180910390fd5b505b505050505050565b614f3b816005600085815260200190815260200160002060000161419c90919063ffffffff16565b15614fa357614f48614ab4565b73ffffffffffffffffffffffffffffffffffffffff168173ffffffffffffffffffffffffffffffffffffffff16837f2f8788117e7eff1d82e926ec794901d17c78024a50270940304540a733656f0d60405160405180910390a45b5050565b614fcf8160056000858152602001908152602001600020600001615ab790919063ffffffff16565b1561503757614fdc614ab4565b73ffffffffffffffffffffffffffffffffffffffff168173ffffffffffffffffffffffffffffffffffffffff16837ff6391f5c32d9c69d2a47ea670b442974b53935d1edc7fd64eb21e047a839171b60405160405180910390a45b5050565b600073ffffffffffffffffffffffffffffffffffffffff168373ffffffffffffffffffffffffffffffffffffffff1614156150c1576040517f08c379a0000000000000000000000000000000000000000000000000000000008152600401808060200182810382526023815260200180615ff66023913960400191505060405180910390fd5b60006150cb614ab4565b90506150fb818560006150dd876155f1565b6150e6876155f1565b60405180602001604052806000815250614abc565b61517882604051806060016040528060248152602001615f22602491396001600087815260200190815260200160002060008873ffffffffffffffffffffffffffffffffffffffff1673ffffffffffffffffffffffffffffffffffffffff16815260200190815260200160002054614ac49092919063ffffffff16565b6001600085815260200190815260200160002060008673ffffffffffffffffffffffffffffffffffffffff1673ffffffffffffffffffffffffffffffffffffffff16815260200190815260200160002081905550600073ffffffffffffffffffffffffffffffffffffffff168473ffffffffffffffffffffffffffffffffffffffff168273ffffffffffffffffffffffffffffffffffffffff167fc3d58168c5ae7397731d063d5bbf3d657854427343f4c083240f7aacaa2d0f628686604051808381526020018281526020019250505060405180910390a450505050565b600073ffffffffffffffffffffffffffffffffffffffff168373ffffffffffffffffffffffffffffffffffffffff1614156152dd576040517f08c379a0000000000000000000000000000000000000000000000000000000008152600401808060200182810382526023815260200180615ff66023913960400191505060405180910390fd5b8051825114615337576040517f08c379a00000000000000000000000000000000000000000000000000000000081526004018080602001828103825260288152602001806160d96028913960400191505060405180910390fd5b6000615341614ab4565b905061536181856000868660405180602001604052806000815250614abc565b60005b83518110156154845761541083828151811061537c57fe5b6020026020010151604051806060016040528060248152602001615f2260249139600160008886815181106153ad57fe5b6020026020010151815260200190815260200160002060008973ffffffffffffffffffffffffffffffffffffffff1673ffffffffffffffffffffffffffffffffffffffff16815260200190815260200160002054614ac49092919063ffffffff16565b6001600086848151811061542057fe5b6020026020010151815260200190815260200160002060008773ffffffffffffffffffffffffffffffffffffffff1673ffffffffffffffffffffffffffffffffffffffff168152602001908152602001600020819055508080600101915050615364565b50600073ffffffffffffffffffffffffffffffffffffffff168473ffffffffffffffffffffffffffffffffffffffff168273ffffffffffffffffffffffffffffffffffffffff167f4a39dc06d4c0dbc64b70af90fd698a233a518aa5d07e595d983b8c0526c8f7fb8686604051808060200180602001838103835285818151815260200191508051906020019060200280838360005b8381101561553557808201518184015260208101905061551a565b50505050905001838103825284818151815260200191508051906020019060200280838360005b8381101561557757808201518184015260208101905061555c565b5050505090500194505050505060405180910390a450505050565b60006155a18360000183615ae7565b60001c905092915050565b60006155d4836000018373ffffffffffffffffffffffffffffffffffffffff1660001b615b6a565b905092915050565b60006155ea82600001615b8d565b9050919050565b606080600167ffffffffffffffff8111801561560c57600080fd5b5060405190808252806020026020018201604052801561563b5781602001602082028036833780820191505090505b509050828160008151811061564c57fe5b60200260200101818152505080915050919050565b6156808473ffffffffffffffffffffffffffffffffffffffff16615aa4565b15615966578373ffffffffffffffffffffffffffffffffffffffff1663f23a6e6187878686866040518663ffffffff1660e01b8152600401808673ffffffffffffffffffffffffffffffffffffffff1681526020018573ffffffffffffffffffffffffffffffffffffffff16815260200184815260200183815260200180602001828103825283818151815260200191508051906020019080838360005b8381101561573957808201518184015260208101905061571e565b50505050905090810190601f1680156157665780820380516001836020036101000a031916815260200191505b509650505050505050602060405180830381600087803b15801561578957600080fd5b505af19250505080156157bd57506040513d60208110156157a957600080fd5b810190808051906020019092919050505060015b6158c7576157c9615d41565b806157d45750615876565b806040517f08c379a00000000000000000000000000000000000000000000000000000000081526004018080602001828103825283818151815260200191508051906020019080838360005b8381101561583b578082015181840152602081019050615820565b50505050905090810190601f1680156158685780820380516001836020036101000a031916815260200191505b509250505060405180910390fd5b6040517f08c379a0000000000000000000000000000000000000000000000000000000008152600401808060200182810382526034815260200180615df86034913960400191505060405180910390fd5b63f23a6e6160e01b7bffffffffffffffffffffffffffffffffffffffffffffffffffffffff1916817bffffffffffffffffffffffffffffffffffffffffffffffffffffffff191614615964576040517f08c379a0000000000000000000000000000000000000000000000000000000008152600401808060200182810382526028815260200180615e4e6028913960400191505060405180910390fd5b505b505050505050565b600061597a8383615b6a565b6159d35782600001829080600181540180825580915050600190039060005260206000200160009091909190915055826000018054905083600101600084815260200190815260200160002081905550600190506159d8565b600090505b92915050565b60008083118290615a8a576040517f08c379a00000000000000000000000000000000000000000000000000000000081526004018080602001828103825283818151815260200191508051906020019080838360005b83811015615a4f578082015181840152602081019050615a34565b50505050905090810190601f168015615a7c5780820380516001836020036101000a031916815260200191505b509250505060405180910390fd5b506000838581615a9657fe5b049050809150509392505050565b600080823b905060008111915050919050565b6000615adf836000018373ffffffffffffffffffffffffffffffffffffffff1660001b615b9e565b905092915050565b600081836000018054905011615b48576040517f08c379a0000000000000000000000000000000000000000000000000000000008152600401808060200182810382526022815260200180615e2c6022913960400191505060405180910390fd5b826000018281548110615b5757fe5b9060005260206000200154905092915050565b600080836001016000848152602001908152602001600020541415905092915050565b600081600001805490509050919050565b60008083600101600084815260200190815260200160002054905060008114615c7a5760006001820390506000600186600001805490500390506000866000018281548110615be957fe5b9060005260206000200154905080876000018481548110615c0657fe5b9060005260206000200181905550600183018760010160008381526020019081526020016000208190555086600001805480615c3e57fe5b60019003818190600052602060002001600090559055866001016000878152602001908152602001600020600090556001945050505050615c80565b60009150505b92915050565b828054600181600116156101000203166002900490600052602060002090601f016020900481019282601f10615cc757805160ff1916838001178555615cf5565b82800160010185558215615cf5579182015b82811115615cf4578251825591602001919060010190615cd9565b5b509050615d029190615d06565b5090565b5b80821115615d1f576000816000905550600101615d07565b5090565b6000601f19601f8301169050919050565b60008160e01c9050919050565b600060443d1015615d5157615df4565b60046000803e615d62600051615d34565b6308c379a08114615d735750615df4565b60405160043d036004823e80513d602482011167ffffffffffffffff82111715615d9f57505050615df4565b808201805167ffffffffffffffff811115615dbe575050505050615df4565b8060208301013d8501811115615dd957505050505050615df4565b615de282615d23565b60208401016040528296505050505050505b9056fe455243313135353a207472616e7366657220746f206e6f6e2045524331313535526563656976657220696d706c656d656e746572456e756d657261626c655365743a20696e646578206f7574206f6620626f756e6473455243313135353a204552433131353552656365697665722072656a656374656420746f6b656e73416363657373436f6e74726f6c3a2073656e646572206d75737420626520616e2061646d696e20746f206772616e7473656e646572206d757374206265206f70657261746f72206f7220776f726b6572455243313135353a2062616c616e636520717565727920666f7220746865207a65726f2061646472657373455243313135353a2062617463682062616c616e636520717565727920666f7220746865207a65726f2061646472657373455243313135353a206275726e20616d6f756e7420657863656564732062616c616e6365455243313135353a2063616c6c6572206973206e6f74206f776e6572206e6f7220617070726f766564416363657373436f6e74726f6c3a2073656e646572206d75737420626520616e2061646d696e20746f207265766f6b65455243313135353a207472616e7366657220746f20746865207a65726f2061646472657373455243313135353a207472616e736665722063616c6c6572206973206e6f74206f776e6572206e6f7220617070726f766564455243313135353a206275726e2066726f6d20746865207a65726f2061646472657373455243313135353a20696e73756666696369656e742062616c616e636520666f72207472616e7366657273656e646572206d7573742068617665206174206c65617374206f6e6520746f6b656e536166654d6174683a206d756c7469706c69636174696f6e206f766572666c6f77455243313135353a2073657474696e6720617070726f76616c2073746174757320666f722073656c66455243313135353a206163636f756e747320616e6420696473206c656e677468206d69736d61746368455243313135353a2069647320616e6420616d6f756e7473206c656e677468206d69736d61746368455243313135353a206d696e7420746f20746865207a65726f2061646472657373416363657373436f6e74726f6c3a2063616e206f6e6c792072656e6f756e636520726f6c657320666f722073656c66a264697066735822122081b422dd35504518dfea2bf71d39004f22a66d803651732b23e31f22961ab84c64736f6c63430007030033",
  "linkReferences": {},
  "deployedLinkReferences": {}
}