{
  "_format": "hh-sol-artifact-1",
  "contractName": "bondingSale",
  "sourceName": "contracts/bondingSale.sol",
  "abi": [
    {
      "inputs": [
        {
          "internalType": "address",
          "name": "_gameToken",
          "type": "address"
        },
        {
          "internalType": "address",
          "name": "_gameMaster",
          "type": "address"
        }
      ],
      "stateMutability": "nonpayable",
      "type": "constructor"
    },
    {
      "anonymous": false,
      "inputs": [
        {
          "indexed": true,
          "internalType": "address",
          "name": "account",
          "type": "address"
        },
        {
          "indexed": true,
          "internalType": "address",
          "name": "operator",
          "type": "address"
        },
        {
          "indexed": false,
          "internalType": "bool",
          "name": "approved",
          "type": "bool"
        }
      ],
      "name": "ApprovalForAll",
      "type": "event"
    },
    {
      "anonymous": false,
      "inputs": [
        {
          "indexed": true,
          "internalType": "address",
          "name": "to",
          "type": "address"
        },
        {
          "indexed": false,
          "internalType": "uint256",
          "name": "creator",
          "type": "uint256"
        },
        {
          "indexed": false,
          "internalType": "uint256",
          "name": "id",
          "type": "uint256"
        },
        {
          "indexed": true,
          "internalType": "uint256",
          "name": "seed",
          "type": "uint256"
        },
        {
          "indexed": false,
          "internalType": "uint256",
          "name": "priceReceived",
          "type": "uint256"
        },
        {
          "indexed": false,
          "internalType": "uint256",
          "name": "nextPrintPrice",
          "type": "uint256"
        },
        {
          "indexed": false,
          "internalType": "uint256",
          "name": "nextBurnPrice",
          "type": "uint256"
        },
        {
          "indexed": false,
          "internalType": "uint256",
          "name": "printsSupply",
          "type": "uint256"
        },
        {
          "indexed": false,
          "internalType": "uint256",
          "name": "reserve",
          "type": "uint256"
        }
      ],
      "name": "PrintBurned",
      "type": "event"
    },
    {
      "anonymous": false,
      "inputs": [
        {
          "indexed": true,
          "internalType": "address",
          "name": "to",
          "type": "address"
        },
        {
          "indexed": false,
          "internalType": "uint256",
          "name": "creator",
          "type": "uint256"
        },
        {
          "indexed": false,
          "internalType": "uint256",
          "name": "id",
          "type": "uint256"
        },
        {
          "indexed": true,
          "internalType": "uint256",
          "name": "seed",
          "type": "uint256"
        },
        {
          "indexed": false,
          "internalType": "uint256",
          "name": "pricePaid",
          "type": "uint256"
        },
        {
          "indexed": false,
          "internalType": "uint256",
          "name": "nextPrintPrice",
          "type": "uint256"
        },
        {
          "indexed": false,
          "internalType": "uint256",
          "name": "nextBurnPrice",
          "type": "uint256"
        },
        {
          "indexed": false,
          "internalType": "uint256",
          "name": "printsSupply",
          "type": "uint256"
        },
        {
          "indexed": false,
          "internalType": "uint256",
          "name": "royaltyPaid",
          "type": "uint256"
        },
        {
          "indexed": false,
          "internalType": "uint256",
          "name": "reserve",
          "type": "uint256"
        },
        {
          "indexed": true,
          "internalType": "address",
          "name": "royaltyRecipient",
          "type": "address"
        }
      ],
      "name": "PrintMinted",
      "type": "event"
    },
    {
      "anonymous": false,
      "inputs": [
        {
          "indexed": true,
          "internalType": "bytes32",
          "name": "role",
          "type": "bytes32"
        },
        {
          "indexed": true,
          "internalType": "bytes32",
          "name": "previousAdminRole",
          "type": "bytes32"
        },
        {
          "indexed": true,
          "internalType": "bytes32",
          "name": "newAdminRole",
          "type": "bytes32"
        }
      ],
      "name": "RoleAdminChanged",
      "type": "event"
    },
    {
      "anonymous": false,
      "inputs": [
        {
          "indexed": true,
          "internalType": "bytes32",
          "name": "role",
          "type": "bytes32"
        },
        {
          "indexed": true,
          "internalType": "address",
          "name": "account",
          "type": "address"
        },
        {
          "indexed": true,
          "internalType": "address",
          "name": "sender",
          "type": "address"
        }
      ],
      "name": "RoleGranted",
      "type": "event"
    },
    {
      "anonymous": false,
      "inputs": [
        {
          "indexed": true,
          "internalType": "bytes32",
          "name": "role",
          "type": "bytes32"
        },
        {
          "indexed": true,
          "internalType": "address",
          "name": "account",
          "type": "address"
        },
        {
          "indexed": true,
          "internalType": "address",
          "name": "sender",
          "type": "address"
        }
      ],
      "name": "RoleRevoked",
      "type": "event"
    },
    {
      "anonymous": false,
      "inputs": [
        {
          "indexed": false,
          "internalType": "uint256",
          "name": "id",
          "type": "uint256"
        },
        {
          "indexed": false,
          "internalType": "address",
          "name": "account",
          "type": "address"
        },
        {
          "indexed": false,
          "internalType": "uint256",
          "name": "supply",
          "type": "uint256"
        }
      ],
      "name": "TokenBought",
      "type": "event"
    },
    {
      "anonymous": false,
      "inputs": [
        {
          "indexed": false,
          "internalType": "uint256",
          "name": "tokenId",
          "type": "uint256"
        },
        {
          "indexed": false,
          "internalType": "string",
          "name": "json",
          "type": "string"
        },
        {
          "indexed": false,
          "internalType": "uint256",
          "name": "curve",
          "type": "uint256"
        },
        {
          "indexed": false,
          "internalType": "uint256",
          "name": "multiplier",
          "type": "uint256"
        }
      ],
      "name": "TokenData",
      "type": "event"
    },
    {
      "anonymous": false,
      "inputs": [
        {
          "indexed": false,
          "internalType": "uint256",
          "name": "id",
          "type": "uint256"
        },
        {
          "indexed": false,
          "internalType": "uint256",
          "name": "date",
          "type": "uint256"
        }
      ],
      "name": "TokenOnSale",
      "type": "event"
    },
    {
      "anonymous": false,
      "inputs": [
        {
          "indexed": true,
          "internalType": "address",
          "name": "operator",
          "type": "address"
        },
        {
          "indexed": true,
          "internalType": "address",
          "name": "from",
          "type": "address"
        },
        {
          "indexed": true,
          "internalType": "address",
          "name": "to",
          "type": "address"
        },
        {
          "indexed": false,
          "internalType": "uint256[]",
          "name": "ids",
          "type": "uint256[]"
        },
        {
          "indexed": false,
          "internalType": "uint256[]",
          "name": "values",
          "type": "uint256[]"
        }
      ],
      "name": "TransferBatch",
      "type": "event"
    },
    {
      "anonymous": false,
      "inputs": [
        {
          "indexed": true,
          "internalType": "address",
          "name": "operator",
          "type": "address"
        },
        {
          "indexed": true,
          "internalType": "address",
          "name": "from",
          "type": "address"
        },
        {
          "indexed": true,
          "internalType": "address",
          "name": "to",
          "type": "address"
        },
        {
          "indexed": false,
          "internalType": "uint256",
          "name": "id",
          "type": "uint256"
        },
        {
          "indexed": false,
          "internalType": "uint256",
          "name": "value",
          "type": "uint256"
        }
      ],
      "name": "TransferSingle",
      "type": "event"
    },
    {
      "anonymous": false,
      "inputs": [
        {
          "indexed": false,
          "internalType": "string",
          "name": "value",
          "type": "string"
        },
        {
          "indexed": true,
          "internalType": "uint256",
          "name": "id",
          "type": "uint256"
        }
      ],
      "name": "URI",
      "type": "event"
    },
    {
      "inputs": [],
      "name": "BURNER",
      "outputs": [
        {
          "internalType": "bytes32",
          "name": "",
          "type": "bytes32"
        }
      ],
      "stateMutability": "view",
      "type": "function"
    },
    {
      "inputs": [
        {
          "internalType": "uint256",
          "name": "creatorId",
          "type": "uint256"
        },
        {
          "internalType": "string",
          "name": "json",
          "type": "string"
        },
        {
          "internalType": "uint256",
          "name": "curve",
          "type": "uint256"
        },
        {
          "internalType": "uint256",
          "name": "multiplier",
          "type": "uint256"
        }
      ],
      "name": "CreateToken",
      "outputs": [],
      "stateMutability": "nonpayable",
      "type": "function"
    },
    {
      "inputs": [],
      "name": "DEFAULT_ADMIN_ROLE",
      "outputs": [
        {
          "internalType": "bytes32",
          "name": "",
          "type": "bytes32"
        }
      ],
      "stateMutability": "view",
      "type": "function"
    },
    {
      "inputs": [],
      "name": "MAX_PRICE",
      "outputs": [
        {
          "internalType": "uint256",
          "name": "",
          "type": "uint256"
        }
      ],
      "stateMutability": "view",
      "type": "function"
    },
    {
      "inputs": [],
      "name": "METADATA_ADMIN",
      "outputs": [
        {
          "internalType": "bytes32",
          "name": "",
          "type": "bytes32"
        }
      ],
      "stateMutability": "view",
      "type": "function"
    },
    {
      "inputs": [],
      "name": "MINTER",
      "outputs": [
        {
          "internalType": "bytes32",
          "name": "",
          "type": "bytes32"
        }
      ],
      "stateMutability": "view",
      "type": "function"
    },
    {
      "inputs": [
        {
          "internalType": "uint256",
          "name": "tokenId",
          "type": "uint256"
        },
        {
          "internalType": "uint256",
          "name": "onSaleDate",
          "type": "uint256"
        }
      ],
      "name": "SetTokenOnSaleDate",
      "outputs": [],
      "stateMutability": "nonpayable",
      "type": "function"
    },
    {
      "inputs": [
        {
          "internalType": "uint256",
          "name": "",
          "type": "uint256"
        }
      ],
      "name": "TokenSupply",
      "outputs": [
        {
          "internalType": "uint256",
          "name": "",
          "type": "uint256"
        }
      ],
      "stateMutability": "view",
      "type": "function"
    },
    {
      "inputs": [
        {
          "internalType": "uint256",
          "name": "tokenId",
          "type": "uint256"
        },
        {
          "internalType": "string",
          "name": "json",
          "type": "string"
        },
        {
          "internalType": "uint256",
          "name": "curve",
          "type": "uint256"
        },
        {
          "internalType": "uint256",
          "name": "multiplier",
          "type": "uint256"
        }
      ],
      "name": "UpdateTokenData",
      "outputs": [],
      "stateMutability": "nonpayable",
      "type": "function"
    },
    {
      "inputs": [
        {
          "internalType": "uint256",
          "name": "",
          "type": "uint256"
        }
      ],
      "name": "_tokenURIs",
      "outputs": [
        {
          "internalType": "string",
          "name": "",
          "type": "string"
        }
      ],
      "stateMutability": "view",
      "type": "function"
    },
    {
      "inputs": [
        {
          "internalType": "address",
          "name": "account",
          "type": "address"
        },
        {
          "internalType": "uint256",
          "name": "id",
          "type": "uint256"
        }
      ],
      "name": "balanceOf",
      "outputs": [
        {
          "internalType": "uint256",
          "name": "",
          "type": "uint256"
        }
      ],
      "stateMutability": "view",
      "type": "function"
    },
    {
      "inputs": [
        {
          "internalType": "address[]",
          "name": "accounts",
          "type": "address[]"
        },
        {
          "internalType": "uint256[]",
          "name": "ids",
          "type": "uint256[]"
        }
      ],
      "name": "balanceOfBatch",
      "outputs": [
        {
          "internalType": "uint256[]",
          "name": "",
          "type": "uint256[]"
        }
      ],
      "stateMutability": "view",
      "type": "function"
    },
    {
      "inputs": [
        {
          "internalType": "uint256",
          "name": "tokenId",
          "type": "uint256"
        }
      ],
      "name": "burn",
      "outputs": [],
      "stateMutability": "nonpayable",
      "type": "function"
    },
    {
      "inputs": [
        {
          "internalType": "uint256",
          "name": "id",
          "type": "uint256"
        },
        {
          "internalType": "uint256",
          "name": "value",
          "type": "uint256"
        }
      ],
      "name": "burn",
      "outputs": [],
      "stateMutability": "nonpayable",
      "type": "function"
    },
    {
      "inputs": [
        {
          "internalType": "uint256[]",
          "name": "ids",
          "type": "uint256[]"
        },
        {
          "internalType": "uint256[]",
          "name": "values",
          "type": "uint256[]"
        }
      ],
      "name": "burnBatch",
      "outputs": [],
      "stateMutability": "nonpayable",
      "type": "function"
    },
    {
      "inputs": [],
      "name": "burningActive",
      "outputs": [
        {
          "internalType": "bool",
          "name": "",
          "type": "bool"
        }
      ],
      "stateMutability": "view",
      "type": "function"
    },
    {
      "inputs": [
        {
          "internalType": "uint256",
          "name": "tokenId",
          "type": "uint256"
        },
        {
          "internalType": "uint256",
          "name": "maxPrice",
          "type": "uint256"
        }
      ],
      "name": "buyNFTwithGAME",
      "outputs": [],
      "stateMutability": "nonpayable",
      "type": "function"
    },
    {
      "inputs": [
        {
          "internalType": "uint256",
          "name": "",
          "type": "uint256"
        }
      ],
      "name": "curves",
      "outputs": [
        {
          "internalType": "uint256",
          "name": "",
          "type": "uint256"
        }
      ],
      "stateMutability": "view",
      "type": "function"
    },
    {
      "inputs": [],
      "name": "gameAdmin",
      "outputs": [
        {
          "internalType": "contract iGAME_Master",
          "name": "",
          "type": "address"
        }
      ],
      "stateMutability": "view",
      "type": "function"
    },
    {
      "inputs": [],
      "name": "gameToken",
      "outputs": [
        {
          "internalType": "contract iGAME_ERC20",
          "name": "",
          "type": "address"
        }
      ],
      "stateMutability": "view",
      "type": "function"
    },
    {
      "inputs": [
        {
          "internalType": "uint256",
          "name": "tokenId",
          "type": "uint256"
        }
      ],
      "name": "getBuyPrice",
      "outputs": [
        {
          "internalType": "uint256",
          "name": "",
          "type": "uint256"
        }
      ],
      "stateMutability": "view",
      "type": "function"
    },
    {
      "inputs": [
        {
          "internalType": "uint256",
          "name": "tokenId",
          "type": "uint256"
        },
        {
          "internalType": "uint256",
          "name": "printNumber",
          "type": "uint256"
        }
      ],
      "name": "getPrintPrice",
      "outputs": [
        {
          "internalType": "uint256",
          "name": "price",
          "type": "uint256"
        }
      ],
      "stateMutability": "view",
      "type": "function"
    },
    {
      "inputs": [
        {
          "internalType": "bytes32",
          "name": "role",
          "type": "bytes32"
        }
      ],
      "name": "getRoleAdmin",
      "outputs": [
        {
          "internalType": "bytes32",
          "name": "",
          "type": "bytes32"
        }
      ],
      "stateMutability": "view",
      "type": "function"
    },
    {
      "inputs": [
        {
          "internalType": "bytes32",
          "name": "role",
          "type": "bytes32"
        },
        {
          "internalType": "uint256",
          "name": "index",
          "type": "uint256"
        }
      ],
      "name": "getRoleMember",
      "outputs": [
        {
          "internalType": "address",
          "name": "",
          "type": "address"
        }
      ],
      "stateMutability": "view",
      "type": "function"
    },
    {
      "inputs": [
        {
          "internalType": "bytes32",
          "name": "role",
          "type": "bytes32"
        }
      ],
      "name": "getRoleMemberCount",
      "outputs": [
        {
          "internalType": "uint256",
          "name": "",
          "type": "uint256"
        }
      ],
      "stateMutability": "view",
      "type": "function"
    },
    {
      "inputs": [
        {
          "internalType": "uint256",
          "name": "tokenId",
          "type": "uint256"
        }
      ],
      "name": "getSellPrice",
      "outputs": [
        {
          "internalType": "uint256",
          "name": "",
          "type": "uint256"
        }
      ],
      "stateMutability": "view",
      "type": "function"
    },
    {
      "inputs": [
        {
          "internalType": "bytes32",
          "name": "role",
          "type": "bytes32"
        },
        {
          "internalType": "address",
          "name": "account",
          "type": "address"
        }
      ],
      "name": "grantRole",
      "outputs": [],
      "stateMutability": "nonpayable",
      "type": "function"
    },
    {
      "inputs": [
        {
          "internalType": "uint256",
          "name": "id",
          "type": "uint256"
        }
      ],
      "name": "hasMinted",
      "outputs": [
        {
          "internalType": "bool",
          "name": "",
          "type": "bool"
        }
      ],
      "stateMutability": "view",
      "type": "function"
    },
    {
      "inputs": [
        {
          "internalType": "bytes32",
          "name": "role",
          "type": "bytes32"
        },
        {
          "internalType": "address",
          "name": "account",
          "type": "address"
        }
      ],
      "name": "hasRole",
      "outputs": [
        {
          "internalType": "bool",
          "name": "",
          "type": "bool"
        }
      ],
      "stateMutability": "view",
      "type": "function"
    },
    {
      "inputs": [
        {
          "internalType": "uint256",
          "name": "",
          "type": "uint256"
        }
      ],
      "name": "initialized",
      "outputs": [
        {
          "internalType": "bool",
          "name": "",
          "type": "bool"
        }
      ],
      "stateMutability": "view",
      "type": "function"
    },
    {
      "inputs": [
        {
          "internalType": "address",
          "name": "account",
          "type": "address"
        },
        {
          "internalType": "address",
          "name": "operator",
          "type": "address"
        }
      ],
      "name": "isApprovedForAll",
      "outputs": [
        {
          "internalType": "bool",
          "name": "",
          "type": "bool"
        }
      ],
      "stateMutability": "view",
      "type": "function"
    },
    {
      "inputs": [
        {
          "internalType": "address",
          "name": "to",
          "type": "address"
        },
        {
          "internalType": "uint256",
          "name": "id",
          "type": "uint256"
        },
        {
          "internalType": "uint256",
          "name": "value",
          "type": "uint256"
        },
        {
          "internalType": "bytes",
          "name": "data",
          "type": "bytes"
        }
      ],
      "name": "mint",
      "outputs": [],
      "stateMutability": "nonpayable",
      "type": "function"
    },
    {
      "inputs": [
        {
          "internalType": "address",
          "name": "to",
          "type": "address"
        },
        {
          "internalType": "uint256[]",
          "name": "ids",
          "type": "uint256[]"
        },
        {
          "internalType": "uint256[]",
          "name": "values",
          "type": "uint256[]"
        },
        {
          "internalType": "bytes",
          "name": "data",
          "type": "bytes"
        }
      ],
      "name": "mintBatch",
      "outputs": [],
      "stateMutability": "nonpayable",
      "type": "function"
    },
    {
      "inputs": [],
      "name": "mintingActive",
      "outputs": [
        {
          "internalType": "bool",
          "name": "",
          "type": "bool"
        }
      ],
      "stateMutability": "view",
      "type": "function"
    },
    {
      "inputs": [],
      "name": "mintingEnabled",
      "outputs": [
        {
          "internalType": "bool",
          "name": "",
          "type": "bool"
        }
      ],
      "stateMutability": "view",
      "type": "function"
    },
    {
      "inputs": [],
      "name": "multiple",
      "outputs": [
        {
          "internalType": "uint256",
          "name": "",
          "type": "uint256"
        }
      ],
      "stateMutability": "view",
      "type": "function"
    },
    {
      "inputs": [
        {
          "internalType": "uint256",
          "name": "",
          "type": "uint256"
        }
      ],
      "name": "multipliers",
      "outputs": [
        {
          "internalType": "uint256",
          "name": "",
          "type": "uint256"
        }
      ],
      "stateMutability": "view",
      "type": "function"
    },
    {
      "inputs": [],
      "name": "nextTokenId",
      "outputs": [
        {
          "internalType": "uint256",
          "name": "",
          "type": "uint256"
        }
      ],
      "stateMutability": "view",
      "type": "function"
    },
    {
      "inputs": [
        {
          "internalType": "bytes32",
          "name": "role",
          "type": "bytes32"
        },
        {
          "internalType": "address",
          "name": "account",
          "type": "address"
        }
      ],
      "name": "renounceRole",
      "outputs": [],
      "stateMutability": "nonpayable",
      "type": "function"
    },
    {
      "inputs": [
        {
          "internalType": "bytes32",
          "name": "role",
          "type": "bytes32"
        },
        {
          "internalType": "address",
          "name": "account",
          "type": "address"
        }
      ],
      "name": "revokeRole",
      "outputs": [],
      "stateMutability": "nonpayable",
      "type": "function"
    },
    {
      "inputs": [
        {
          "internalType": "address",
          "name": "from",
          "type": "address"
        },
        {
          "internalType": "address",
          "name": "to",
          "type": "address"
        },
        {
          "internalType": "uint256[]",
          "name": "ids",
          "type": "uint256[]"
        },
        {
          "internalType": "uint256[]",
          "name": "amounts",
          "type": "uint256[]"
        },
        {
          "internalType": "bytes",
          "name": "data",
          "type": "bytes"
        }
      ],
      "name": "safeBatchTransferFrom",
      "outputs": [],
      "stateMutability": "nonpayable",
      "type": "function"
    },
    {
      "inputs": [
        {
          "internalType": "address",
          "name": "from",
          "type": "address"
        },
        {
          "internalType": "address",
          "name": "to",
          "type": "address"
        },
        {
          "internalType": "uint256",
          "name": "id",
          "type": "uint256"
        },
        {
          "internalType": "uint256",
          "name": "amount",
          "type": "uint256"
        },
        {
          "internalType": "bytes",
          "name": "data",
          "type": "bytes"
        }
      ],
      "name": "safeTransferFrom",
      "outputs": [],
      "stateMutability": "nonpayable",
      "type": "function"
    },
    {
      "inputs": [
        {
          "internalType": "uint256",
          "name": "",
          "type": "uint256"
        }
      ],
      "name": "saleStarts",
      "outputs": [
        {
          "internalType": "uint256",
          "name": "",
          "type": "uint256"
        }
      ],
      "stateMutability": "view",
      "type": "function"
    },
    {
      "inputs": [
        {
          "internalType": "address",
          "name": "operator",
          "type": "address"
        },
        {
          "internalType": "bool",
          "name": "approved",
          "type": "bool"
        }
      ],
      "name": "setApprovalForAll",
      "outputs": [],
      "stateMutability": "nonpayable",
      "type": "function"
    },
    {
      "inputs": [
        {
          "internalType": "string",
          "name": "newuri",
          "type": "string"
        }
      ],
      "name": "setBaseURI",
      "outputs": [],
      "stateMutability": "nonpayable",
      "type": "function"
    },
    {
      "inputs": [
        {
          "internalType": "string",
          "name": "newuri",
          "type": "string"
        },
        {
          "internalType": "uint256",
          "name": "id",
          "type": "uint256"
        }
      ],
      "name": "setURI",
      "outputs": [],
      "stateMutability": "nonpayable",
      "type": "function"
    },
    {
      "inputs": [
        {
          "internalType": "bytes4",
          "name": "interfaceId",
          "type": "bytes4"
        }
      ],
      "name": "supportsInterface",
      "outputs": [
        {
          "internalType": "bool",
          "name": "",
          "type": "bool"
        }
      ],
      "stateMutability": "view",
      "type": "function"
    },
    {
      "inputs": [],
      "name": "toggleTokenMinting",
      "outputs": [],
      "stateMutability": "nonpayable",
      "type": "function"
    },
    {
      "inputs": [
        {
          "internalType": "uint256",
          "name": "tokenid",
          "type": "uint256"
        }
      ],
      "name": "uri",
      "outputs": [
        {
          "internalType": "string",
          "name": "",
          "type": "string"
        }
      ],
      "stateMutability": "view",
      "type": "function"
    }
  ],
  "bytecode": "0x60806040526012600b55670de0b6b3a7640000600c55629896806015553480156200002957600080fd5b50604051620068f1380380620068f1833981810160405260408110156200004f57600080fd5b8101908080519060200190929190805190602001909291905050506040518060400160405280600481526020017f7465737400000000000000000000000000000000000000000000000000000000815250620000b86301ffc9a760e01b6200029c60201b60201c565b620000d063d9b67a2660e01b6200029c60201b60201c565b620000e8630e89341c60e01b6200029c60201b60201c565b6200010c6000801b62000100620003a560201b60201c565b620003ad60201b60201c565b6200014d7ff6e33f9720e4529cb1c710e3344dc00830589a3239198ffa39b07117085d250e62000141620003a560201b60201c565b620003ad60201b60201c565b6200018e7ff0887ba65ee2024ea881d91b74c2450ef19e1557f03bed3ea9f16b037cbe2dc962000182620003a560201b60201c565b620003ad60201b60201c565b620001c36000801b7ff0887ba65ee2024ea881d91b74c2450ef19e1557f03bed3ea9f16b037cbe2dc9620003c360201b60201c565b620001f86000801b7ff6e33f9720e4529cb1c710e3344dc00830589a3239198ffa39b07117085d250e620003c360201b60201c565b806006908051906020019062000210929190620005a0565b505081600860006101000a81548173ffffffffffffffffffffffffffffffffffffffff021916908373ffffffffffffffffffffffffffffffffffffffff16021790555080600960006101000a81548173ffffffffffffffffffffffffffffffffffffffff021916908373ffffffffffffffffffffffffffffffffffffffff160217905550505062000646565b63ffffffff60e01b817bffffffffffffffffffffffffffffffffffffffffffffffffffffffff1916141562000339576040517f08c379a000000000000000000000000000000000000000000000000000000000815260040180806020018281038252601c8152602001807f4552433136353a20696e76616c696420696e746572666163652069640000000081525060200191505060405180910390fd5b6001600080837bffffffffffffffffffffffffffffffffffffffffffffffffffffffff19167bffffffffffffffffffffffffffffffffffffffffffffffffffffffff1916815260200190815260200160002060006101000a81548160ff02191690831515021790555050565b600033905090565b620003bf82826200042760201b60201c565b5050565b806005600084815260200190815260200160002060020154837fbd79b86ffe0ab8e8776151514217cd7cacd52c909f66475c3af44e129f0b00ff60405160405180910390a48060056000848152602001908152602001600020600201819055505050565b620004568160056000858152602001908152602001600020600001620004cb60201b620042b11790919060201c565b15620004c7576200046c620003a560201b60201c565b73ffffffffffffffffffffffffffffffffffffffff168173ffffffffffffffffffffffffffffffffffffffff16837f2f8788117e7eff1d82e926ec794901d17c78024a50270940304540a733656f0d60405160405180910390a45b5050565b6000620004fb836000018373ffffffffffffffffffffffffffffffffffffffff1660001b6200050360201b60201c565b905092915050565b60006200051783836200057d60201b60201c565b6200057257826000018290806001815401808255809150506001900390600052602060002001600090919091909150558260000180549050836001016000848152602001908152602001600020819055506001905062000577565b600090505b92915050565b600080836001016000848152602001908152602001600020541415905092915050565b828054600181600116156101000203166002900490600052602060002090601f016020900481019282601f10620005e357805160ff191683800117855562000614565b8280016001018555821562000614579182015b8281111562000613578251825591602001919060010190620005f6565b5b50905062000623919062000627565b5090565b5b808211156200064257600081600090555060010162000628565b5090565b61629b80620006566000396000f3fe608060405234801561001057600080fd5b50600436106102ba5760003560e01c806367db3b8f11610182578063b1de303e116100e9578063ca15c873116100a2578063e985e9c51161007c578063e985e9c514611704578063ec7982571461177e578063f242432a146117c0578063fe6d8124146118cf576102ba565b8063ca15c87314611630578063d547741f14611672578063e5b95595146116c0576102ba565b8063b1de303e14611453578063b390c0ab14611471578063ba730e53146114a9578063ba84be07146114eb578063c3dfdae6146115c4578063c707562d146115f8576102ba565b806391d148541161013b57806391d14854146112db578063979711601461133f5780639fd6db1214611383578063a217fddf146113a3578063a22cb465146113c1578063ac7fc26314611411576102ba565b806367db3b8f14610f27578063731133e914610fec57806375794a3c146110db57806376adcba5146110f957806383ca4b6f1461112d5780639010d07c14611279576102ba565b806326150e95116102265780633d242655116101df5780633d24265514610b6457806342966c6814610ba6578063437a8ae614610bd45780634e1273f414610bf257806355f804b314610d93578063654d133314610e4e576102ba565b806326150e951461082f5780632b606d2c146108395780632eb2c2d6146108855780632f2ff15d14610aa857806331f9c91914610af657806336568abe14610b16576102ba565b8063118c4f1311610278578063118c4f1314610532578063186d4432146105505780631bf7d749146105885780631c7c2598146105ca5780631f7fdffa146105ea578063248a9ca3146107ed576102ba565b8062fdd58e146102bf57806301c11d961461032157806301ffc9a71461033f57806308d4db14146103a25780630bb78ec1146103e45780630e89341c1461048b575b600080fd5b61030b600480360360408110156102d557600080fd5b81019080803573ffffffffffffffffffffffffffffffffffffffff169060200190929190803590602001909291905050506118ed565b6040518082815260200191505060405180910390f35b6103296119cd565b6040518082815260200191505060405180910390f35b61038a6004803603602081101561035557600080fd5b8101908080357bffffffffffffffffffffffffffffffffffffffffffffffffffffffff191690602001909291905050506119d3565b60405180821515815260200191505060405180910390f35b6103ce600480360360208110156103b857600080fd5b8101908080359060200190929190505050611a3a565b6040518082815260200191505060405180910390f35b610410600480360360208110156103fa57600080fd5b8101908080359060200190929190505050611a68565b6040518080602001828103825283818151815260200191508051906020019080838360005b83811015610450578082015181840152602081019050610435565b50505050905090810190601f16801561047d5780820380516001836020036101000a031916815260200191505b509250505060405180910390f35b6104b7600480360360208110156104a157600080fd5b8101908080359060200190929190505050611b18565b6040518080602001828103825283818151815260200191508051906020019080838360005b838110156104f75780820151818401526020810190506104dc565b50505050905090810190601f1680156105245780820380516001836020036101000a031916815260200191505b509250505060405180910390f35b61053a611da2565b6040518082815260200191505060405180910390f35b6105866004803603604081101561056657600080fd5b810190808035906020019092919080359060200190929190505050611dc6565b005b6105b46004803603602081101561059e57600080fd5b81019080803590602001909291905050506122e4565b6040518082815260200191505060405180910390f35b6105d26122fc565b60405180821515815260200191505060405180910390f35b6107eb6004803603608081101561060057600080fd5b81019080803573ffffffffffffffffffffffffffffffffffffffff1690602001909291908035906020019064010000000081111561063d57600080fd5b82018360208201111561064f57600080fd5b8035906020019184602083028401116401000000008311171561067157600080fd5b919080806020026020016040519081016040528093929190818152602001838360200280828437600081840152601f19601f820116905080830192505050505050509192919290803590602001906401000000008111156106d157600080fd5b8201836020820111156106e357600080fd5b8035906020019184602083028401116401000000008311171561070557600080fd5b919080806020026020016040519081016040528093929190818152602001838360200280828437600081840152601f19601f8201169050808301925050505050505091929192908035906020019064010000000081111561076557600080fd5b82018360208201111561077757600080fd5b8035906020019184600183028401116401000000008311171561079957600080fd5b91908080601f016020809104026020016040519081016040528093929190818152602001838380828437600081840152601f19601f82011690508083019250505050505050919291929050505061230f565b005b6108196004803603602081101561080357600080fd5b8101908080359060200190929190505050612354565b6040518082815260200191505060405180910390f35b610837612374565b005b61086f6004803603604081101561084f57600080fd5b8101908080359060200190929190803590602001909291905050506123b6565b6040518082815260200191505060405180910390f35b610aa6600480360360a081101561089b57600080fd5b81019080803573ffffffffffffffffffffffffffffffffffffffff169060200190929190803573ffffffffffffffffffffffffffffffffffffffff169060200190929190803590602001906401000000008111156108f857600080fd5b82018360208201111561090a57600080fd5b8035906020019184602083028401116401000000008311171561092c57600080fd5b919080806020026020016040519081016040528093929190818152602001838360200280828437600081840152601f19601f8201169050808301925050505050505091929192908035906020019064010000000081111561098c57600080fd5b82018360208201111561099e57600080fd5b803590602001918460208302840111640100000000831117156109c057600080fd5b919080806020026020016040519081016040528093929190818152602001838360200280828437600081840152601f19601f82011690508083019250505050505050919291929080359060200190640100000000811115610a2057600080fd5b820183602082011115610a3257600080fd5b80359060200191846001830284011164010000000083111715610a5457600080fd5b91908080601f016020809104026020016040519081016040528093929190818152602001838380828437600081840152601f19601f8201169050808301925050505050505091929192905050506124fb565b005b610af460048036036040811015610abe57600080fd5b8101908080359060200190929190803573ffffffffffffffffffffffffffffffffffffffff169060200190929190505050612986565b005b610afe612a10565b60405180821515815260200191505060405180910390f35b610b6260048036036040811015610b2c57600080fd5b8101908080359060200190929190803573ffffffffffffffffffffffffffffffffffffffff169060200190929190505050612a23565b005b610b9060048036036020811015610b7a57600080fd5b8101908080359060200190929190505050612abc565b6040518082815260200191505060405180910390f35b610bd260048036036020811015610bbc57600080fd5b8101908080359060200190929190505050612ad4565b005b610bdc612c3f565b6040518082815260200191505060405180910390f35b610d3c60048036036040811015610c0857600080fd5b8101908080359060200190640100000000811115610c2557600080fd5b820183602082011115610c3757600080fd5b80359060200191846020830284011164010000000083111715610c5957600080fd5b919080806020026020016040519081016040528093929190818152602001838360200280828437600081840152601f19601f82011690508083019250505050505050919291929080359060200190640100000000811115610cb957600080fd5b820183602082011115610ccb57600080fd5b80359060200191846020830284011164010000000083111715610ced57600080fd5b919080806020026020016040519081016040528093929190818152602001838360200280828437600081840152601f19601f820116905080830192505050505050509192919290505050612c45565b6040518080602001828103825283818151815260200191508051906020019060200280838360005b83811015610d7f578082015181840152602081019050610d64565b505050509050019250505060405180910390f35b610e4c60048036036020811015610da957600080fd5b8101908080359060200190640100000000811115610dc657600080fd5b820183602082011115610dd857600080fd5b80359060200191846001830284011164010000000083111715610dfa57600080fd5b91908080601f016020809104026020016040519081016040528093929190818152602001838380828437600081840152601f19601f820116905080830192505050505050509192919290505050612e37565b005b610f2560048036036080811015610e6457600080fd5b810190808035906020019092919080359060200190640100000000811115610e8b57600080fd5b820183602082011115610e9d57600080fd5b80359060200191846001830284011164010000000083111715610ebf57600080fd5b91908080601f016020809104026020016040519081016040528093929190818152602001838380828437600081840152601f19601f8201169050808301925050505050505091929192908035906020019092919080359060200190929190505050612e84565b005b610fea60048036036040811015610f3d57600080fd5b8101908080359060200190640100000000811115610f5a57600080fd5b820183602082011115610f6c57600080fd5b80359060200191846001830284011164010000000083111715610f8e57600080fd5b91908080601f016020809104026020016040519081016040528093929190818152602001838380828437600081840152601f19601f820116905080830192505050505050509192919290803590602001909291905050506131ca565b005b6110d96004803603608081101561100257600080fd5b81019080803573ffffffffffffffffffffffffffffffffffffffff16906020019092919080359060200190929190803590602001909291908035906020019064010000000081111561105357600080fd5b82018360208201111561106557600080fd5b8035906020019184600183028401116401000000008311171561108757600080fd5b91908080601f016020809104026020016040519081016040528093929190818152602001838380828437600081840152601f19601f820116905080830192505050505050509192919290505050613229565b005b6110e361326e565b6040518082815260200191505060405180910390f35b611101613274565b604051808273ffffffffffffffffffffffffffffffffffffffff16815260200191505060405180910390f35b6112776004803603604081101561114357600080fd5b810190808035906020019064010000000081111561116057600080fd5b82018360208201111561117257600080fd5b8035906020019184602083028401116401000000008311171561119457600080fd5b919080806020026020016040519081016040528093929190818152602001838360200280828437600081840152601f19601f820116905080830192505050505050509192919290803590602001906401000000008111156111f457600080fd5b82018360208201111561120657600080fd5b8035906020019184602083028401116401000000008311171561122857600080fd5b919080806020026020016040519081016040528093929190818152602001838360200280828437600081840152601f19601f82011690508083019250505050505050919291929050505061329a565b005b6112af6004803603604081101561128f57600080fd5b8101908080359060200190929190803590602001909291905050506132a9565b604051808273ffffffffffffffffffffffffffffffffffffffff16815260200191505060405180910390f35b611327600480360360408110156112f157600080fd5b8101908080359060200190929190803573ffffffffffffffffffffffffffffffffffffffff1690602001909291905050506132db565b60405180821515815260200191505060405180910390f35b61136b6004803603602081101561135557600080fd5b810190808035906020019092919050505061330d565b60405180821515815260200191505060405180910390f35b61138b61332d565b60405180821515815260200191505060405180910390f35b6113ab613340565b6040518082815260200191505060405180910390f35b61140f600480360360408110156113d757600080fd5b81019080803573ffffffffffffffffffffffffffffffffffffffff169060200190929190803515159060200190929190505050613347565b005b61143d6004803603602081101561142757600080fd5b81019080803590602001909291905050506134e0565b6040518082815260200191505060405180910390f35b61145b6134f8565b6040518082815260200191505060405180910390f35b6114a76004803603604081101561148757600080fd5b81019080803590602001909291908035906020019092919050505061351c565b005b6114d5600480360360208110156114bf57600080fd5b810190808035906020019092919050505061352b565b6040518082815260200191505060405180910390f35b6115c26004803603608081101561150157600080fd5b81019080803590602001909291908035906020019064010000000081111561152857600080fd5b82018360208201111561153a57600080fd5b8035906020019184600183028401116401000000008311171561155c57600080fd5b91908080601f016020809104026020016040519081016040528093929190818152602001838380828437600081840152601f19601f820116905080830192505050505050509192919290803590602001909291908035906020019092919050505061357c565b005b6115cc6139c8565b604051808273ffffffffffffffffffffffffffffffffffffffff16815260200191505060405180910390f35b61162e6004803603604081101561160e57600080fd5b8101908080359060200190929190803590602001909291905050506139ee565b005b61165c6004803603602081101561164657600080fd5b8101908080359060200190929190505050613d91565b6040518082815260200191505060405180910390f35b6116be6004803603604081101561168857600080fd5b8101908080359060200190929190803573ffffffffffffffffffffffffffffffffffffffff169060200190929190505050613db8565b005b6116ec600480360360208110156116d657600080fd5b8101908080359060200190929190505050613e42565b60405180821515815260200191505060405180910390f35b6117666004803603604081101561171a57600080fd5b81019080803573ffffffffffffffffffffffffffffffffffffffff169060200190929190803573ffffffffffffffffffffffffffffffffffffffff169060200190929190505050613e6c565b60405180821515815260200191505060405180910390f35b6117aa6004803603602081101561179457600080fd5b8101908080359060200190929190505050613f00565b6040518082815260200191505060405180910390f35b6118cd600480360360a08110156117d657600080fd5b81019080803573ffffffffffffffffffffffffffffffffffffffff169060200190929190803573ffffffffffffffffffffffffffffffffffffffff16906020019092919080359060200190929190803590602001909291908035906020019064010000000081111561184757600080fd5b82018360208201111561185957600080fd5b8035906020019184600183028401116401000000008311171561187b57600080fd5b91908080601f016020809104026020016040519081016040528093929190818152602001838380828437600081840152601f19601f820116905080830192505050505050509192919290505050613f18565b005b6118d761428d565b6040518082815260200191505060405180910390f35b60008073ffffffffffffffffffffffffffffffffffffffff168373ffffffffffffffffffffffffffffffffffffffff161415611974576040517f08c379a000000000000000000000000000000000000000000000000000000000815260040180806020018281038252602b815260200180615fdb602b913960400191505060405180910390fd5b6001600083815260200190815260200160002060008473ffffffffffffffffffffffffffffffffffffffff1673ffffffffffffffffffffffffffffffffffffffff16815260200190815260200160002054905092915050565b600d5481565b6000806000837bffffffffffffffffffffffffffffffffffffffffffffffffffffffff19167bffffffffffffffffffffffffffffffffffffffffffffffffffffffff1916815260200190815260200160002060009054906101000a900460ff169050919050565b60008060126000848152602001908152602001600020549050611a6083600183016123b6565b915050919050565b60076020528060005260406000206000915090508054600181600116156101000203166002900480601f016020809104026020016040519081016040528092919081815260200182805460018160011615610100020316600290048015611b105780601f10611ae557610100808354040283529160200191611b10565b820191906000526020600020905b815481529060010190602001808311611af357829003601f168201915b505050505081565b606080600760008481526020019081526020016000208054600181600116156101000203166002900480601f016020809104026020016040519081016040528092919081815260200182805460018160011615610100020316600290048015611bc25780601f10611b9757610100808354040283529160200191611bc2565b820191906000526020600020905b815481529060010190602001808311611ba557829003601f168201915b50505050509050600060068054600181600116156101000203166002900490501415611bf15780915050611d9d565b600081511115611cca576006816040516020018083805460018160011615610100020316600290048015611c5c5780601f10611c3a576101008083540402835291820191611c5c565b820191906000526020600020905b815481529060010190602001808311611c48575b505082805190602001908083835b60208310611c8d5780518252602082019150602081019050602083039250611c6a565b6001836020036101000a03801982511681845116808217855250505050505090500192505050604051602081830303815290604052915050611d9d565b6006611cd5846142e1565b6040516020018083805460018160011615610100020316600290048015611d335780601f10611d11576101008083540402835291820191611d33565b820191906000526020600020905b815481529060010190602001808311611d1f575b505082805190602001908083835b60208310611d645780518252602082019150602081019050602083039250611d41565b6001836020036101000a038019825116818451168082178552505050505050905001925050506040516020818303038152906040529150505b919050565b7f9667e80708b6eeeb0053fa0cca44e028ff548e2a9f029edfeac87c118b08b7c881565b601160008381526020019081526020016000205442118015611dfb575060006011600084815260200190815260200160002054115b611e48576040517f08c379a0000000000000000000000000000000000000000000000000000000008152600401808060200182810382526000815260200160200191505060405180910390fd5b6000611e678360126000868152602001908152602001600020546123b6565b9050600081118015611e7a5750600d5481105b611e8357600080fd5b60016012600085815260200190815260200160002060008282540192505081905550600860009054906101000a900473ffffffffffffffffffffffffffffffffffffffff1673ffffffffffffffffffffffffffffffffffffffff1663e2b8e7d33330846040518463ffffffff1660e01b8152600401808473ffffffffffffffffffffffffffffffffffffffff1681526020018373ffffffffffffffffffffffffffffffffffffffff1681526020018281526020019350505050600060405180830381600087803b158015611f5657600080fd5b505af1158015611f6a573d6000803e3d6000fd5b50505050600860009054906101000a900473ffffffffffffffffffffffffffffffffffffffff1673ffffffffffffffffffffffffffffffffffffffff1663e2b8e7d33033611fc1858761442890919063ffffffff16565b6040518463ffffffff1660e01b8152600401808473ffffffffffffffffffffffffffffffffffffffff1681526020018373ffffffffffffffffffffffffffffffffffffffff1681526020018281526020019350505050600060405180830381600087803b15801561203157600080fd5b505af1158015612045573d6000803e3d6000fd5b50505050600061205f60328361447290919063ffffffff16565b9050600061208a607d61207c600a866144bc90919063ffffffff16565b61447290919063ffffffff16565b9050600860009054906101000a900473ffffffffffffffffffffffffffffffffffffffff1673ffffffffffffffffffffffffffffffffffffffff1663e2b8e7d330600a60009054906101000a900473ffffffffffffffffffffffffffffffffffffffff16866040518463ffffffff1660e01b8152600401808473ffffffffffffffffffffffffffffffffffffffff1681526020018373ffffffffffffffffffffffffffffffffffffffff1681526020018281526020019350505050600060405180830381600087803b15801561215f57600080fd5b505af1158015612173573d6000803e3d6000fd5b505050506000601554868161218457fe5b049050600860009054906101000a900473ffffffffffffffffffffffffffffffffffffffff1673ffffffffffffffffffffffffffffffffffffffff1663e2b8e7d33083856040518463ffffffff1660e01b8152600401808473ffffffffffffffffffffffffffffffffffffffff1681526020018373ffffffffffffffffffffffffffffffffffffffff1681526020018281526020019350505050600060405180830381600087803b15801561223857600080fd5b505af115801561224c573d6000803e3d6000fd5b5050505061226c3387600160405180602001604052806000815250614542565b7f787925e050e8cb8dba61a675397ced37ba5304fc76b70c50b62753eed7c9ef648633601260008a815260200190815260200160002054604051808481526020018373ffffffffffffffffffffffffffffffffffffffff168152602001828152602001935050505060405180910390a1505050505050565b600f6020528060005260406000206000915090505481565b600e60019054906101000a900460ff1681565b6123397ff0887ba65ee2024ea881d91b74c2450ef19e1557f03bed3ea9f16b037cbe2dc9336132db565b61234257600080fd5b61234e8484848461479f565b50505050565b600060056000838152602001908152602001600020600201549050919050565b6123816000801b336132db565b61238a57600080fd5b600e60009054906101000a900460ff1615600e60006101000a81548160ff021916908315150217905550565b600080600f60008581526020019081526020016000205490506000601360008681526020019081526020016000205490506000600b54600a0a905060006032905060006124248560090a6124168560038b0a6144bc90919063ffffffff16565b61447290919063ffffffff16565b905061245d61244e86612440868b6144bc90919063ffffffff16565b61447290919063ffffffff16565b82614b4190919063ffffffff16565b905061248461247584846144bc90919063ffffffff16565b82614b4190919063ffffffff16565b90506124bf6103e86124b1866124a3898661447290919063ffffffff16565b6144bc90919063ffffffff16565b61447290919063ffffffff16565b90506124ee836124e0670de0b6b3a7640000846144bc90919063ffffffff16565b61447290919063ffffffff16565b9050505050505092915050565b8151835114612555576040517f08c379a00000000000000000000000000000000000000000000000000000000081526004018080602001828103825260288152602001806161ee6028913960400191505060405180910390fd5b600073ffffffffffffffffffffffffffffffffffffffff168473ffffffffffffffffffffffffffffffffffffffff1614156125db576040517f08c379a00000000000000000000000000000000000000000000000000000000081526004018080602001828103825260258152602001806160b46025913960400191505060405180910390fd5b6125e3614bc9565b73ffffffffffffffffffffffffffffffffffffffff168573ffffffffffffffffffffffffffffffffffffffff161480612629575061262885612623614bc9565b613e6c565b5b61267e576040517f08c379a00000000000000000000000000000000000000000000000000000000081526004018080602001828103825260328152602001806160d96032913960400191505060405180910390fd5b6000612688614bc9565b9050612698818787878787614bd1565b60005b84518110156128695760008582815181106126b257fe5b6020026020010151905060008583815181106126ca57fe5b60200260200101519050612751816040518060600160405280602a815260200161612e602a91396001600086815260200190815260200160002060008d73ffffffffffffffffffffffffffffffffffffffff1673ffffffffffffffffffffffffffffffffffffffff16815260200190815260200160002054614bd99092919063ffffffff16565b6001600084815260200190815260200160002060008b73ffffffffffffffffffffffffffffffffffffffff1673ffffffffffffffffffffffffffffffffffffffff16815260200190815260200160002081905550612808816001600085815260200190815260200160002060008b73ffffffffffffffffffffffffffffffffffffffff1673ffffffffffffffffffffffffffffffffffffffff16815260200190815260200160002054614b4190919063ffffffff16565b6001600084815260200190815260200160002060008a73ffffffffffffffffffffffffffffffffffffffff1673ffffffffffffffffffffffffffffffffffffffff16815260200190815260200160002081905550505080600101905061269b565b508473ffffffffffffffffffffffffffffffffffffffff168673ffffffffffffffffffffffffffffffffffffffff168273ffffffffffffffffffffffffffffffffffffffff167f4a39dc06d4c0dbc64b70af90fd698a233a518aa5d07e595d983b8c0526c8f7fb8787604051808060200180602001838103835285818151815260200191508051906020019060200280838360005b838110156129195780820151818401526020810190506128fe565b50505050905001838103825284818151815260200191508051906020019060200280838360005b8381101561295b578082015181840152602081019050612940565b5050505090500194505050505060405180910390a461297e818787878787614c99565b505050505050565b6129ad60056000848152602001908152602001600020600201546129a8614bc9565b6132db565b612a02576040517f08c379a000000000000000000000000000000000000000000000000000000000815260040180806020018281038252602f815260200180615f8b602f913960400191505060405180910390fd5b612a0c8282615028565b5050565b600e60009054906101000a900460ff1681565b612a2b614bc9565b73ffffffffffffffffffffffffffffffffffffffff168173ffffffffffffffffffffffffffffffffffffffff1614612aae576040517f08c379a000000000000000000000000000000000000000000000000000000000815260040180806020018281038252602f815260200180616237602f913960400191505060405180910390fd5b612ab882826150bc565b5050565b60126020528060005260406000206000915090505481565b6001612ae033836118ed565b1015612b37576040517f08c379a00000000000000000000000000000000000000000000000000000000081526004018080602001828103825260238152602001806161586023913960400191505060405180910390fd5b6000612b428261352b565b905060016012600084815260200190815260200160002060008282540392505081905550612b7233836001615150565b600860009054906101000a900473ffffffffffffffffffffffffffffffffffffffff1673ffffffffffffffffffffffffffffffffffffffff1663e2b8e7d33033846040518463ffffffff1660e01b8152600401808473ffffffffffffffffffffffffffffffffffffffff1681526020018373ffffffffffffffffffffffffffffffffffffffff1681526020018281526020019350505050600060405180830381600087803b158015612c2357600080fd5b505af1158015612c37573d6000803e3d6000fd5b505050505050565b60155481565b60608151835114612ca1576040517f08c379a00000000000000000000000000000000000000000000000000000000081526004018080602001828103825260298152602001806161c56029913960400191505060405180910390fd5b6060835167ffffffffffffffff81118015612cbb57600080fd5b50604051908082528060200260200182016040528015612cea5781602001602082028036833780820191505090505b50905060005b8451811015612e2c57600073ffffffffffffffffffffffffffffffffffffffff16858281518110612d1d57fe5b602002602001015173ffffffffffffffffffffffffffffffffffffffff161415612d92576040517f08c379a00000000000000000000000000000000000000000000000000000000081526004018080602001828103825260318152602001806160066031913960400191505060405180910390fd5b60016000858381518110612da257fe5b602002602001015181526020019081526020016000206000868381518110612dc657fe5b602002602001015173ffffffffffffffffffffffffffffffffffffffff1673ffffffffffffffffffffffffffffffffffffffff16815260200190815260200160002054828281518110612e1557fe5b602002602001018181525050806001019050612cf0565b508091505092915050565b612e617ff6e33f9720e4529cb1c710e3344dc00830589a3239198ffa39b07117085d250e336132db565b612e6a57600080fd5b8060069080519060200190612e80929190615d9b565b5050565b620f424060165410612ed9576040517f08c379a0000000000000000000000000000000000000000000000000000000008152600401808060200182810382526000815260200160200191505060405180910390fd5b600082118015612eea575060148211155b8015612ef65750600081115b8015612f055750620f42408111155b612f77576040517f08c379a000000000000000000000000000000000000000000000000000000000815260040180806020018281038252601b8152602001807f76616c696420637572766520616e64206d756c7469706c69657273000000000081525060200191505060405180910390fd5b60011515600960009054906101000a900473ffffffffffffffffffffffffffffffffffffffff1673ffffffffffffffffffffffffffffffffffffffff1663c2babfd7336040518263ffffffff1660e01b8152600401808273ffffffffffffffffffffffffffffffffffffffff16815260200191505060206040518083038186803b15801561300457600080fd5b505afa158015613018573d6000803e3d6000fd5b505050506040513d602081101561302e57600080fd5b8101908080519060200190929190505050151514613097576040517f08c379a0000000000000000000000000000000000000000000000000000000008152600401808060200182810382526021815260200180615fba6021913960400191505060405180910390fd5b6000601654828602019050600160166000828254019250508190555082600f60008381526020019081526020016000208190555081601360008381526020019081526020016000208190555060016010600083815260200190815260200160002060006101000a81548160ff0219169083151502179055507f855f2403a3717b569ca6483cb3250554954ef4734871df9005e45eb9bffce8cf818585856040518085815260200180602001848152602001838152602001828103825285818151815260200191508051906020019080838360005b8381101561318657808201518184015260208101905061316b565b50505050905090810190601f1680156131b35780820380516001836020036101000a031916815260200191505b509550505050505060405180910390a15050505050565b6131f47ff6e33f9720e4529cb1c710e3344dc00830589a3239198ffa39b07117085d250e336132db565b6131fd57600080fd5b81600760008381526020019081526020016000209080519060200190613224929190615d9b565b505050565b6132537ff0887ba65ee2024ea881d91b74c2450ef19e1557f03bed3ea9f16b037cbe2dc9336132db565b61325c57600080fd5b61326884848484614542565b50505050565b60165481565b600960009054906101000a900473ffffffffffffffffffffffffffffffffffffffff1681565b6132a533838361536c565b5050565b60006132d382600560008681526020019081526020016000206000016156a790919063ffffffff16565b905092915050565b600061330582600560008681526020019081526020016000206000016156c190919063ffffffff16565b905092915050565b60106020528060005260406000206000915054906101000a900460ff1681565b601460009054906101000a900460ff1681565b6000801b81565b8173ffffffffffffffffffffffffffffffffffffffff16613366614bc9565b73ffffffffffffffffffffffffffffffffffffffff1614156133d3576040517f08c379a000000000000000000000000000000000000000000000000000000000815260040180806020018281038252602981526020018061619c6029913960400191505060405180910390fd5b80600360006133e0614bc9565b73ffffffffffffffffffffffffffffffffffffffff1673ffffffffffffffffffffffffffffffffffffffff16815260200190815260200160002060008473ffffffffffffffffffffffffffffffffffffffff1673ffffffffffffffffffffffffffffffffffffffff16815260200190815260200160002060006101000a81548160ff0219169083151502179055508173ffffffffffffffffffffffffffffffffffffffff1661348d614bc9565b73ffffffffffffffffffffffffffffffffffffffff167f17307eab39ab6107e8899845ad3d59bd9653f200f220920489ca2b5937696c318360405180821515815260200191505060405180910390a35050565b60136020528060005260406000206000915090505481565b7ff6e33f9720e4529cb1c710e3344dc00830589a3239198ffa39b07117085d250e81565b613527338383615150565b5050565b600080601260008481526020019081526020016000205490506135746064613566605a61355887866123b6565b6144bc90919063ffffffff16565b61447290919063ffffffff16565b915050919050565b6000151561358985613e42565b1515146135fe576040517f08c379a00000000000000000000000000000000000000000000000000000000081526004018080602001828103825260198152602001807f746f6b656e20686173206e6f74206265656e206d696e7465640000000000000081525060200191505060405180910390fd5b60011515600960009054906101000a900473ffffffffffffffffffffffffffffffffffffffff1673ffffffffffffffffffffffffffffffffffffffff1663c2babfd7336040518263ffffffff1660e01b8152600401808273ffffffffffffffffffffffffffffffffffffffff16815260200191505060206040518083038186803b15801561368b57600080fd5b505afa15801561369f573d6000803e3d6000fd5b505050506040513d60208110156136b557600080fd5b810190808051906020019092919050505015151461371e576040517f08c379a0000000000000000000000000000000000000000000000000000000008152600401808060200182810382526021815260200180615fba6021913960400191505060405180910390fd5b60008211801561372f575060148211155b801561373b5750600081115b801561374a5750620f42408111155b6137bc576040517f08c379a000000000000000000000000000000000000000000000000000000000815260040180806020018281038252601b8152602001807f76616c696420637572766520616e64206d756c7469706c69657273000000000081525060200191505060405180910390fd5b6001835111613833576040517f08c379a00000000000000000000000000000000000000000000000000000000081526004018080602001828103825260128152602001807f6a736f6e206d757374206e6f6e206e756c6c000000000000000000000000000081525060200191505060405180910390fd5b600115156010600086815260200190815260200160002060009054906101000a900460ff161515146138cd576040517f08c379a00000000000000000000000000000000000000000000000000000000081526004018080602001828103825260198152602001807f746f6b656e206d75737420626520696e697469616c697a65640000000000000081525060200191505060405180910390fd5b600060155485816138da57fe5b04905082600f6000878152602001908152602001600020819055508160136000878152602001908152602001600020819055507f855f2403a3717b569ca6483cb3250554954ef4734871df9005e45eb9bffce8cf858585856040518085815260200180602001848152602001838152602001828103825285818151815260200191508051906020019080838360005b83811015613984578082015181840152602081019050613969565b50505050905090810190601f1680156139b15780820380516001836020036101000a031916815260200191505b509550505050505060405180910390a15050505050565b600860009054906101000a900473ffffffffffffffffffffffffffffffffffffffff1681565b600015156139fb83613e42565b151514613a70576040517f08c379a00000000000000000000000000000000000000000000000000000000081526004018080602001828103825260158152602001807f746f6b656e20686173206265656e206d696e746564000000000000000000000081525060200191505060405180910390fd5b6000600f60008481526020019081526020016000205411613af9576040517f08c379a00000000000000000000000000000000000000000000000000000000081526004018080602001828103825260118152602001807f6375727665206d7573742062652073657400000000000000000000000000000081525060200191505060405180910390fd5b60008111613b6f576040517f08c379a00000000000000000000000000000000000000000000000000000000081526004018080602001828103825260198152602001807f73616c652064617465206d757374206265206e6f6e7a65726f0000000000000081525060200191505060405180910390fd5b600115156010600084815260200190815260200160002060009054906101000a900460ff16151514613c09576040517f08c379a00000000000000000000000000000000000000000000000000000000081526004018080602001828103825260198152602001807f746f6b656e206d75737420626520696e697469616c697a65640000000000000081525060200191505060405180910390fd5b60011515600960009054906101000a900473ffffffffffffffffffffffffffffffffffffffff1673ffffffffffffffffffffffffffffffffffffffff1663c2babfd7336040518263ffffffff1660e01b8152600401808273ffffffffffffffffffffffffffffffffffffffff16815260200191505060206040518083038186803b158015613c9657600080fd5b505afa158015613caa573d6000803e3d6000fd5b505050506040513d6020811015613cc057600080fd5b8101908080519060200190929190505050151514613d29576040517f08c379a0000000000000000000000000000000000000000000000000000000008152600401808060200182810382526021815260200180615fba6021913960400191505060405180910390fd5b6001811415613d36574290505b8060116000848152602001908152602001600020819055507f6ce538f9e575f548476b624a738c3bc0bdf1ec4e465cacb3f7c67bef3926e20e8282604051808381526020018281526020019250505060405180910390a15050565b6000613db1600560008481526020019081526020016000206000016156f1565b9050919050565b613ddf6005600084815260200190815260200160002060020154613dda614bc9565b6132db565b613e34576040517f08c379a00000000000000000000000000000000000000000000000000000000081526004018080602001828103825260308152602001806160846030913960400191505060405180910390fd5b613e3e82826150bc565b5050565b60006002600083815260200190815260200160002060009054906101000a900460ff169050919050565b6000600360008473ffffffffffffffffffffffffffffffffffffffff1673ffffffffffffffffffffffffffffffffffffffff16815260200190815260200160002060008373ffffffffffffffffffffffffffffffffffffffff1673ffffffffffffffffffffffffffffffffffffffff16815260200190815260200160002060009054906101000a900460ff16905092915050565b60116020528060005260406000206000915090505481565b600073ffffffffffffffffffffffffffffffffffffffff168473ffffffffffffffffffffffffffffffffffffffff161415613f9e576040517f08c379a00000000000000000000000000000000000000000000000000000000081526004018080602001828103825260258152602001806160b46025913960400191505060405180910390fd5b613fa6614bc9565b73ffffffffffffffffffffffffffffffffffffffff168573ffffffffffffffffffffffffffffffffffffffff161480613fec5750613feb85613fe6614bc9565b613e6c565b5b614041576040517f08c379a000000000000000000000000000000000000000000000000000000000815260040180806020018281038252602981526020018061605b6029913960400191505060405180910390fd5b600061404b614bc9565b905061406b81878761405c88615706565b61406588615706565b87614bd1565b6140e8836040518060600160405280602a815260200161612e602a91396001600088815260200190815260200160002060008a73ffffffffffffffffffffffffffffffffffffffff1673ffffffffffffffffffffffffffffffffffffffff16815260200190815260200160002054614bd99092919063ffffffff16565b6001600086815260200190815260200160002060008873ffffffffffffffffffffffffffffffffffffffff1673ffffffffffffffffffffffffffffffffffffffff1681526020019081526020016000208190555061419f836001600087815260200190815260200160002060008873ffffffffffffffffffffffffffffffffffffffff1673ffffffffffffffffffffffffffffffffffffffff16815260200190815260200160002054614b4190919063ffffffff16565b6001600086815260200190815260200160002060008773ffffffffffffffffffffffffffffffffffffffff1673ffffffffffffffffffffffffffffffffffffffff168152602001908152602001600020819055508473ffffffffffffffffffffffffffffffffffffffff168673ffffffffffffffffffffffffffffffffffffffff168273ffffffffffffffffffffffffffffffffffffffff167fc3d58168c5ae7397731d063d5bbf3d657854427343f4c083240f7aacaa2d0f628787604051808381526020018281526020019250505060405180910390a4614285818787878787615776565b505050505050565b7ff0887ba65ee2024ea881d91b74c2450ef19e1557f03bed3ea9f16b037cbe2dc981565b60006142d9836000018373ffffffffffffffffffffffffffffffffffffffff1660001b615a83565b905092915050565b60606000821415614329576040518060400160405280600181526020017f30000000000000000000000000000000000000000000000000000000000000008152509050614423565b600082905060005b60008214614353578080600101915050600a828161434b57fe5b049150614331565b60608167ffffffffffffffff8111801561436c57600080fd5b506040519080825280601f01601f19166020018201604052801561439f5781602001600182028036833780820191505090505b50905060006001830390508593505b6000841461441b57600a84816143c057fe5b0660300160f81b828280600190039350815181106143da57fe5b60200101907effffffffffffffffffffffffffffffffffffffffffffffffffffffffffffff1916908160001a905350600a848161441357fe5b0493506143ae565b819450505050505b919050565b600061446a83836040518060400160405280601e81526020017f536166654d6174683a207375627472616374696f6e206f766572666c6f770000815250614bd9565b905092915050565b60006144b483836040518060400160405280601a81526020017f536166654d6174683a206469766973696f6e206279207a65726f000000000000815250615af3565b905092915050565b6000808314156144cf576000905061453c565b60008284029050828482816144e057fe5b0414614537576040517f08c379a000000000000000000000000000000000000000000000000000000000815260040180806020018281038252602181526020018061617b6021913960400191505060405180910390fd5b809150505b92915050565b600073ffffffffffffffffffffffffffffffffffffffff168473ffffffffffffffffffffffffffffffffffffffff1614156145c8576040517f08c379a00000000000000000000000000000000000000000000000000000000081526004018080602001828103825260218152602001806162166021913960400191505060405180910390fd5b600015156002600085815260200190815260200160002060009054906101000a900460ff16151514156146225760016002600085815260200190815260200160002060006101000a81548160ff0219169083151502179055505b600061462c614bc9565b905061464d8160008761463e88615706565b61464788615706565b87614bd1565b6146b0836001600087815260200190815260200160002060008873ffffffffffffffffffffffffffffffffffffffff1673ffffffffffffffffffffffffffffffffffffffff16815260200190815260200160002054614b4190919063ffffffff16565b6001600086815260200190815260200160002060008773ffffffffffffffffffffffffffffffffffffffff1673ffffffffffffffffffffffffffffffffffffffff168152602001908152602001600020819055508473ffffffffffffffffffffffffffffffffffffffff16600073ffffffffffffffffffffffffffffffffffffffff168273ffffffffffffffffffffffffffffffffffffffff167fc3d58168c5ae7397731d063d5bbf3d657854427343f4c083240f7aacaa2d0f628787604051808381526020018281526020019250505060405180910390a461479881600087878787615776565b5050505050565b600073ffffffffffffffffffffffffffffffffffffffff168473ffffffffffffffffffffffffffffffffffffffff161415614825576040517f08c379a00000000000000000000000000000000000000000000000000000000081526004018080602001828103825260218152602001806162166021913960400191505060405180910390fd5b815183511461487f576040517f08c379a00000000000000000000000000000000000000000000000000000000081526004018080602001828103825260288152602001806161ee6028913960400191505060405180910390fd5b6000614889614bc9565b905061489a81600087878787614bd1565b60005b8451811015614a235760001515600260008784815181106148ba57fe5b6020026020010151815260200190815260200160002060009054906101000a900460ff1615151415614926576001600260008784815181106148f857fe5b6020026020010151815260200190815260200160002060006101000a81548160ff0219169083151502179055505b6149af6001600087848151811061493957fe5b6020026020010151815260200190815260200160002060008873ffffffffffffffffffffffffffffffffffffffff1673ffffffffffffffffffffffffffffffffffffffff1681526020019081526020016000205485838151811061499957fe5b6020026020010151614b4190919063ffffffff16565b600160008784815181106149bf57fe5b6020026020010151815260200190815260200160002060008873ffffffffffffffffffffffffffffffffffffffff1673ffffffffffffffffffffffffffffffffffffffff16815260200190815260200160002081905550808060010191505061489d565b508473ffffffffffffffffffffffffffffffffffffffff16600073ffffffffffffffffffffffffffffffffffffffff168273ffffffffffffffffffffffffffffffffffffffff167f4a39dc06d4c0dbc64b70af90fd698a233a518aa5d07e595d983b8c0526c8f7fb8787604051808060200180602001838103835285818151815260200191508051906020019060200280838360005b83811015614ad4578082015181840152602081019050614ab9565b50505050905001838103825284818151815260200191508051906020019060200280838360005b83811015614b16578082015181840152602081019050614afb565b5050505090500194505050505060405180910390a4614b3a81600087878787614c99565b5050505050565b600080828401905083811015614bbf576040517f08c379a000000000000000000000000000000000000000000000000000000000815260040180806020018281038252601b8152602001807f536166654d6174683a206164646974696f6e206f766572666c6f77000000000081525060200191505060405180910390fd5b8091505092915050565b600033905090565b505050505050565b6000838311158290614c86576040517f08c379a00000000000000000000000000000000000000000000000000000000081526004018080602001828103825283818151815260200191508051906020019080838360005b83811015614c4b578082015181840152602081019050614c30565b50505050905090810190601f168015614c785780820380516001836020036101000a031916815260200191505b509250505060405180910390fd5b5060008385039050809150509392505050565b614cb88473ffffffffffffffffffffffffffffffffffffffff16615bb9565b15615020578373ffffffffffffffffffffffffffffffffffffffff1663bc197c8187878686866040518663ffffffff1660e01b8152600401808673ffffffffffffffffffffffffffffffffffffffff1681526020018573ffffffffffffffffffffffffffffffffffffffff168152602001806020018060200180602001848103845287818151815260200191508051906020019060200280838360005b83811015614d70578082015181840152602081019050614d55565b50505050905001848103835286818151815260200191508051906020019060200280838360005b83811015614db2578082015181840152602081019050614d97565b50505050905001848103825285818151815260200191508051906020019080838360005b83811015614df1578082015181840152602081019050614dd6565b50505050905090810190601f168015614e1e5780820380516001836020036101000a031916815260200191505b5098505050505050505050602060405180830381600087803b158015614e4357600080fd5b505af1925050508015614e7757506040513d6020811015614e6357600080fd5b810190808051906020019092919050505060015b614f8157614e83615e56565b80614e8e5750614f30565b806040517f08c379a00000000000000000000000000000000000000000000000000000000081526004018080602001828103825283818151815260200191508051906020019080838360005b83811015614ef5578082015181840152602081019050614eda565b50505050905090810190601f168015614f225780820380516001836020036101000a031916815260200191505b509250505060405180910390fd5b6040517f08c379a0000000000000000000000000000000000000000000000000000000008152600401808060200182810382526034815260200180615f0d6034913960400191505060405180910390fd5b63bc197c8160e01b7bffffffffffffffffffffffffffffffffffffffffffffffffffffffff1916817bffffffffffffffffffffffffffffffffffffffffffffffffffffffff19161461501e576040517f08c379a0000000000000000000000000000000000000000000000000000000008152600401808060200182810382526028815260200180615f636028913960400191505060405180910390fd5b505b505050505050565b61505081600560008581526020019081526020016000206000016142b190919063ffffffff16565b156150b85761505d614bc9565b73ffffffffffffffffffffffffffffffffffffffff168173ffffffffffffffffffffffffffffffffffffffff16837f2f8788117e7eff1d82e926ec794901d17c78024a50270940304540a733656f0d60405160405180910390a45b5050565b6150e48160056000858152602001908152602001600020600001615bcc90919063ffffffff16565b1561514c576150f1614bc9565b73ffffffffffffffffffffffffffffffffffffffff168173ffffffffffffffffffffffffffffffffffffffff16837ff6391f5c32d9c69d2a47ea670b442974b53935d1edc7fd64eb21e047a839171b60405160405180910390a45b5050565b600073ffffffffffffffffffffffffffffffffffffffff168373ffffffffffffffffffffffffffffffffffffffff1614156151d6576040517f08c379a000000000000000000000000000000000000000000000000000000000815260040180806020018281038252602381526020018061610b6023913960400191505060405180910390fd5b60006151e0614bc9565b9050615210818560006151f287615706565b6151fb87615706565b60405180602001604052806000815250614bd1565b61528d82604051806060016040528060248152602001616037602491396001600087815260200190815260200160002060008873ffffffffffffffffffffffffffffffffffffffff1673ffffffffffffffffffffffffffffffffffffffff16815260200190815260200160002054614bd99092919063ffffffff16565b6001600085815260200190815260200160002060008673ffffffffffffffffffffffffffffffffffffffff1673ffffffffffffffffffffffffffffffffffffffff16815260200190815260200160002081905550600073ffffffffffffffffffffffffffffffffffffffff168473ffffffffffffffffffffffffffffffffffffffff168273ffffffffffffffffffffffffffffffffffffffff167fc3d58168c5ae7397731d063d5bbf3d657854427343f4c083240f7aacaa2d0f628686604051808381526020018281526020019250505060405180910390a450505050565b600073ffffffffffffffffffffffffffffffffffffffff168373ffffffffffffffffffffffffffffffffffffffff1614156153f2576040517f08c379a000000000000000000000000000000000000000000000000000000000815260040180806020018281038252602381526020018061610b6023913960400191505060405180910390fd5b805182511461544c576040517f08c379a00000000000000000000000000000000000000000000000000000000081526004018080602001828103825260288152602001806161ee6028913960400191505060405180910390fd5b6000615456614bc9565b905061547681856000868660405180602001604052806000815250614bd1565b60005b83518110156155995761552583828151811061549157fe5b602002602001015160405180606001604052806024815260200161603760249139600160008886815181106154c257fe5b6020026020010151815260200190815260200160002060008973ffffffffffffffffffffffffffffffffffffffff1673ffffffffffffffffffffffffffffffffffffffff16815260200190815260200160002054614bd99092919063ffffffff16565b6001600086848151811061553557fe5b6020026020010151815260200190815260200160002060008773ffffffffffffffffffffffffffffffffffffffff1673ffffffffffffffffffffffffffffffffffffffff168152602001908152602001600020819055508080600101915050615479565b50600073ffffffffffffffffffffffffffffffffffffffff168473ffffffffffffffffffffffffffffffffffffffff168273ffffffffffffffffffffffffffffffffffffffff167f4a39dc06d4c0dbc64b70af90fd698a233a518aa5d07e595d983b8c0526c8f7fb8686604051808060200180602001838103835285818151815260200191508051906020019060200280838360005b8381101561564a57808201518184015260208101905061562f565b50505050905001838103825284818151815260200191508051906020019060200280838360005b8381101561568c578082015181840152602081019050615671565b5050505090500194505050505060405180910390a450505050565b60006156b68360000183615bfc565b60001c905092915050565b60006156e9836000018373ffffffffffffffffffffffffffffffffffffffff1660001b615c7f565b905092915050565b60006156ff82600001615ca2565b9050919050565b606080600167ffffffffffffffff8111801561572157600080fd5b506040519080825280602002602001820160405280156157505781602001602082028036833780820191505090505b509050828160008151811061576157fe5b60200260200101818152505080915050919050565b6157958473ffffffffffffffffffffffffffffffffffffffff16615bb9565b15615a7b578373ffffffffffffffffffffffffffffffffffffffff1663f23a6e6187878686866040518663ffffffff1660e01b8152600401808673ffffffffffffffffffffffffffffffffffffffff1681526020018573ffffffffffffffffffffffffffffffffffffffff16815260200184815260200183815260200180602001828103825283818151815260200191508051906020019080838360005b8381101561584e578082015181840152602081019050615833565b50505050905090810190601f16801561587b5780820380516001836020036101000a031916815260200191505b509650505050505050602060405180830381600087803b15801561589e57600080fd5b505af19250505080156158d257506040513d60208110156158be57600080fd5b810190808051906020019092919050505060015b6159dc576158de615e56565b806158e9575061598b565b806040517f08c379a00000000000000000000000000000000000000000000000000000000081526004018080602001828103825283818151815260200191508051906020019080838360005b83811015615950578082015181840152602081019050615935565b50505050905090810190601f16801561597d5780820380516001836020036101000a031916815260200191505b509250505060405180910390fd5b6040517f08c379a0000000000000000000000000000000000000000000000000000000008152600401808060200182810382526034815260200180615f0d6034913960400191505060405180910390fd5b63f23a6e6160e01b7bffffffffffffffffffffffffffffffffffffffffffffffffffffffff1916817bffffffffffffffffffffffffffffffffffffffffffffffffffffffff191614615a79576040517f08c379a0000000000000000000000000000000000000000000000000000000008152600401808060200182810382526028815260200180615f636028913960400191505060405180910390fd5b505b505050505050565b6000615a8f8383615c7f565b615ae8578260000182908060018154018082558091505060019003906000526020600020016000909190919091505582600001805490508360010160008481526020019081526020016000208190555060019050615aed565b600090505b92915050565b60008083118290615b9f576040517f08c379a00000000000000000000000000000000000000000000000000000000081526004018080602001828103825283818151815260200191508051906020019080838360005b83811015615b64578082015181840152602081019050615b49565b50505050905090810190601f168015615b915780820380516001836020036101000a031916815260200191505b509250505060405180910390fd5b506000838581615bab57fe5b049050809150509392505050565b600080823b905060008111915050919050565b6000615bf4836000018373ffffffffffffffffffffffffffffffffffffffff1660001b615cb3565b905092915050565b600081836000018054905011615c5d576040517f08c379a0000000000000000000000000000000000000000000000000000000008152600401808060200182810382526022815260200180615f416022913960400191505060405180910390fd5b826000018281548110615c6c57fe5b9060005260206000200154905092915050565b600080836001016000848152602001908152602001600020541415905092915050565b600081600001805490509050919050565b60008083600101600084815260200190815260200160002054905060008114615d8f5760006001820390506000600186600001805490500390506000866000018281548110615cfe57fe5b9060005260206000200154905080876000018481548110615d1b57fe5b9060005260206000200181905550600183018760010160008381526020019081526020016000208190555086600001805480615d5357fe5b60019003818190600052602060002001600090559055866001016000878152602001908152602001600020600090556001945050505050615d95565b60009150505b92915050565b828054600181600116156101000203166002900490600052602060002090601f016020900481019282601f10615ddc57805160ff1916838001178555615e0a565b82800160010185558215615e0a579182015b82811115615e09578251825591602001919060010190615dee565b5b509050615e179190615e1b565b5090565b5b80821115615e34576000816000905550600101615e1c565b5090565b6000601f19601f8301169050919050565b60008160e01c9050919050565b600060443d1015615e6657615f09565b60046000803e615e77600051615e49565b6308c379a08114615e885750615f09565b60405160043d036004823e80513d602482011167ffffffffffffffff82111715615eb457505050615f09565b808201805167ffffffffffffffff811115615ed3575050505050615f09565b8060208301013d8501811115615eee57505050505050615f09565b615ef782615e38565b60208401016040528296505050505050505b9056fe455243313135353a207472616e7366657220746f206e6f6e2045524331313535526563656976657220696d706c656d656e746572456e756d657261626c655365743a20696e646578206f7574206f6620626f756e6473455243313135353a204552433131353552656365697665722072656a656374656420746f6b656e73416363657373436f6e74726f6c3a2073656e646572206d75737420626520616e2061646d696e20746f206772616e7473656e646572206d757374206265206f70657261746f72206f7220776f726b6572455243313135353a2062616c616e636520717565727920666f7220746865207a65726f2061646472657373455243313135353a2062617463682062616c616e636520717565727920666f7220746865207a65726f2061646472657373455243313135353a206275726e20616d6f756e7420657863656564732062616c616e6365455243313135353a2063616c6c6572206973206e6f74206f776e6572206e6f7220617070726f766564416363657373436f6e74726f6c3a2073656e646572206d75737420626520616e2061646d696e20746f207265766f6b65455243313135353a207472616e7366657220746f20746865207a65726f2061646472657373455243313135353a207472616e736665722063616c6c6572206973206e6f74206f776e6572206e6f7220617070726f766564455243313135353a206275726e2066726f6d20746865207a65726f2061646472657373455243313135353a20696e73756666696369656e742062616c616e636520666f72207472616e7366657273656e646572206d7573742068617665206174206c65617374206f6e6520746f6b656e536166654d6174683a206d756c7469706c69636174696f6e206f766572666c6f77455243313135353a2073657474696e6720617070726f76616c2073746174757320666f722073656c66455243313135353a206163636f756e747320616e6420696473206c656e677468206d69736d61746368455243313135353a2069647320616e6420616d6f756e7473206c656e677468206d69736d61746368455243313135353a206d696e7420746f20746865207a65726f2061646472657373416363657373436f6e74726f6c3a2063616e206f6e6c792072656e6f756e636520726f6c657320666f722073656c66a264697066735822122088acc117a8791aa215ac423930b4c7814aaa175ddf83dd23ec616a8800ba441d64736f6c63430007030033",
  "linkReferences": {},
  "deployedLinkReferences": {}
}