{
  "_format": "hh-sol-artifact-1",
  "contractName": "bondingSale",
  "sourceName": "contracts/bondingSale.sol",
  "abi": [
    {
      "inputs": [
        {
          "internalType": "address",
          "name": "_gameToken",
          "type": "address"
        },
        {
          "internalType": "address",
          "name": "_gameMaster",
          "type": "address"
        }
      ],
      "stateMutability": "nonpayable",
      "type": "constructor"
    },
    {
      "anonymous": false,
      "inputs": [
        {
          "indexed": true,
          "internalType": "address",
          "name": "account",
          "type": "address"
        },
        {
          "indexed": true,
          "internalType": "address",
          "name": "operator",
          "type": "address"
        },
        {
          "indexed": false,
          "internalType": "bool",
          "name": "approved",
          "type": "bool"
        }
      ],
      "name": "ApprovalForAll",
      "type": "event"
    },
    {
      "anonymous": false,
      "inputs": [
        {
          "indexed": true,
          "internalType": "bytes32",
          "name": "role",
          "type": "bytes32"
        },
        {
          "indexed": true,
          "internalType": "bytes32",
          "name": "previousAdminRole",
          "type": "bytes32"
        },
        {
          "indexed": true,
          "internalType": "bytes32",
          "name": "newAdminRole",
          "type": "bytes32"
        }
      ],
      "name": "RoleAdminChanged",
      "type": "event"
    },
    {
      "anonymous": false,
      "inputs": [
        {
          "indexed": true,
          "internalType": "bytes32",
          "name": "role",
          "type": "bytes32"
        },
        {
          "indexed": true,
          "internalType": "address",
          "name": "account",
          "type": "address"
        },
        {
          "indexed": true,
          "internalType": "address",
          "name": "sender",
          "type": "address"
        }
      ],
      "name": "RoleGranted",
      "type": "event"
    },
    {
      "anonymous": false,
      "inputs": [
        {
          "indexed": true,
          "internalType": "bytes32",
          "name": "role",
          "type": "bytes32"
        },
        {
          "indexed": true,
          "internalType": "address",
          "name": "account",
          "type": "address"
        },
        {
          "indexed": true,
          "internalType": "address",
          "name": "sender",
          "type": "address"
        }
      ],
      "name": "RoleRevoked",
      "type": "event"
    },
    {
      "anonymous": false,
      "inputs": [
        {
          "indexed": false,
          "internalType": "uint256",
          "name": "id",
          "type": "uint256"
        },
        {
          "indexed": false,
          "internalType": "address",
          "name": "account",
          "type": "address"
        },
        {
          "indexed": false,
          "internalType": "uint256",
          "name": "supply",
          "type": "uint256"
        }
      ],
      "name": "TokenBought",
      "type": "event"
    },
    {
      "anonymous": false,
      "inputs": [
        {
          "indexed": false,
          "internalType": "uint256",
          "name": "tokenId",
          "type": "uint256"
        },
        {
          "indexed": false,
          "internalType": "string",
          "name": "json",
          "type": "string"
        },
        {
          "indexed": false,
          "internalType": "uint256",
          "name": "curve",
          "type": "uint256"
        },
        {
          "indexed": false,
          "internalType": "uint256",
          "name": "multiplier",
          "type": "uint256"
        }
      ],
      "name": "TokenData",
      "type": "event"
    },
    {
      "anonymous": false,
      "inputs": [
        {
          "indexed": false,
          "internalType": "uint256",
          "name": "id",
          "type": "uint256"
        },
        {
          "indexed": false,
          "internalType": "uint256",
          "name": "date",
          "type": "uint256"
        }
      ],
      "name": "TokenOnSale",
      "type": "event"
    },
    {
      "anonymous": false,
      "inputs": [
        {
          "indexed": true,
          "internalType": "address",
          "name": "operator",
          "type": "address"
        },
        {
          "indexed": true,
          "internalType": "address",
          "name": "from",
          "type": "address"
        },
        {
          "indexed": true,
          "internalType": "address",
          "name": "to",
          "type": "address"
        },
        {
          "indexed": false,
          "internalType": "uint256[]",
          "name": "ids",
          "type": "uint256[]"
        },
        {
          "indexed": false,
          "internalType": "uint256[]",
          "name": "values",
          "type": "uint256[]"
        }
      ],
      "name": "TransferBatch",
      "type": "event"
    },
    {
      "anonymous": false,
      "inputs": [
        {
          "indexed": true,
          "internalType": "address",
          "name": "operator",
          "type": "address"
        },
        {
          "indexed": true,
          "internalType": "address",
          "name": "from",
          "type": "address"
        },
        {
          "indexed": true,
          "internalType": "address",
          "name": "to",
          "type": "address"
        },
        {
          "indexed": false,
          "internalType": "uint256",
          "name": "id",
          "type": "uint256"
        },
        {
          "indexed": false,
          "internalType": "uint256",
          "name": "value",
          "type": "uint256"
        }
      ],
      "name": "TransferSingle",
      "type": "event"
    },
    {
      "anonymous": false,
      "inputs": [
        {
          "indexed": false,
          "internalType": "string",
          "name": "value",
          "type": "string"
        },
        {
          "indexed": true,
          "internalType": "uint256",
          "name": "id",
          "type": "uint256"
        }
      ],
      "name": "URI",
      "type": "event"
    },
    {
      "inputs": [],
      "name": "BURNER",
      "outputs": [
        {
          "internalType": "bytes32",
          "name": "",
          "type": "bytes32"
        }
      ],
      "stateMutability": "view",
      "type": "function"
    },
    {
      "inputs": [
        {
          "internalType": "uint256",
          "name": "creatorId",
          "type": "uint256"
        },
        {
          "internalType": "string",
          "name": "json",
          "type": "string"
        },
        {
          "internalType": "uint256",
          "name": "curve",
          "type": "uint256"
        },
        {
          "internalType": "uint256",
          "name": "multiplier",
          "type": "uint256"
        }
      ],
      "name": "CreateToken",
      "outputs": [],
      "stateMutability": "nonpayable",
      "type": "function"
    },
    {
      "inputs": [],
      "name": "DEFAULT_ADMIN_ROLE",
      "outputs": [
        {
          "internalType": "bytes32",
          "name": "",
          "type": "bytes32"
        }
      ],
      "stateMutability": "view",
      "type": "function"
    },
    {
      "inputs": [],
      "name": "MAX_PRICE",
      "outputs": [
        {
          "internalType": "uint256",
          "name": "",
          "type": "uint256"
        }
      ],
      "stateMutability": "view",
      "type": "function"
    },
    {
      "inputs": [],
      "name": "METADATA_ADMIN",
      "outputs": [
        {
          "internalType": "bytes32",
          "name": "",
          "type": "bytes32"
        }
      ],
      "stateMutability": "view",
      "type": "function"
    },
    {
      "inputs": [],
      "name": "MINTER",
      "outputs": [
        {
          "internalType": "bytes32",
          "name": "",
          "type": "bytes32"
        }
      ],
      "stateMutability": "view",
      "type": "function"
    },
    {
      "inputs": [
        {
          "internalType": "uint256",
          "name": "tokenId",
          "type": "uint256"
        },
        {
          "internalType": "uint256",
          "name": "onSaleDate",
          "type": "uint256"
        }
      ],
      "name": "SetTokenOnSaleDate",
      "outputs": [],
      "stateMutability": "nonpayable",
      "type": "function"
    },
    {
      "inputs": [
        {
          "internalType": "uint256",
          "name": "",
          "type": "uint256"
        }
      ],
      "name": "TokenSupply",
      "outputs": [
        {
          "internalType": "uint256",
          "name": "",
          "type": "uint256"
        }
      ],
      "stateMutability": "view",
      "type": "function"
    },
    {
      "inputs": [
        {
          "internalType": "uint256",
          "name": "tokenId",
          "type": "uint256"
        },
        {
          "internalType": "string",
          "name": "json",
          "type": "string"
        },
        {
          "internalType": "uint256",
          "name": "curve",
          "type": "uint256"
        },
        {
          "internalType": "uint256",
          "name": "multiplier",
          "type": "uint256"
        }
      ],
      "name": "UpdateTokenData",
      "outputs": [],
      "stateMutability": "nonpayable",
      "type": "function"
    },
    {
      "inputs": [
        {
          "internalType": "uint256",
          "name": "",
          "type": "uint256"
        }
      ],
      "name": "_tokenURIs",
      "outputs": [
        {
          "internalType": "string",
          "name": "",
          "type": "string"
        }
      ],
      "stateMutability": "view",
      "type": "function"
    },
    {
      "inputs": [
        {
          "internalType": "address",
          "name": "account",
          "type": "address"
        },
        {
          "internalType": "uint256",
          "name": "id",
          "type": "uint256"
        }
      ],
      "name": "balanceOf",
      "outputs": [
        {
          "internalType": "uint256",
          "name": "",
          "type": "uint256"
        }
      ],
      "stateMutability": "view",
      "type": "function"
    },
    {
      "inputs": [
        {
          "internalType": "address[]",
          "name": "accounts",
          "type": "address[]"
        },
        {
          "internalType": "uint256[]",
          "name": "ids",
          "type": "uint256[]"
        }
      ],
      "name": "balanceOfBatch",
      "outputs": [
        {
          "internalType": "uint256[]",
          "name": "",
          "type": "uint256[]"
        }
      ],
      "stateMutability": "view",
      "type": "function"
    },
    {
      "inputs": [
        {
          "internalType": "uint256",
          "name": "tokenId",
          "type": "uint256"
        }
      ],
      "name": "burn",
      "outputs": [],
      "stateMutability": "nonpayable",
      "type": "function"
    },
    {
      "inputs": [
        {
          "internalType": "uint256",
          "name": "id",
          "type": "uint256"
        },
        {
          "internalType": "uint256",
          "name": "value",
          "type": "uint256"
        }
      ],
      "name": "burn",
      "outputs": [],
      "stateMutability": "nonpayable",
      "type": "function"
    },
    {
      "inputs": [
        {
          "internalType": "uint256[]",
          "name": "ids",
          "type": "uint256[]"
        },
        {
          "internalType": "uint256[]",
          "name": "values",
          "type": "uint256[]"
        }
      ],
      "name": "burnBatch",
      "outputs": [],
      "stateMutability": "nonpayable",
      "type": "function"
    },
    {
      "inputs": [],
      "name": "burningActive",
      "outputs": [
        {
          "internalType": "bool",
          "name": "",
          "type": "bool"
        }
      ],
      "stateMutability": "view",
      "type": "function"
    },
    {
      "inputs": [
        {
          "internalType": "uint256",
          "name": "tokenId",
          "type": "uint256"
        },
        {
          "internalType": "uint256",
          "name": "maxPrice",
          "type": "uint256"
        }
      ],
      "name": "buyNFTwithGAME",
      "outputs": [],
      "stateMutability": "nonpayable",
      "type": "function"
    },
    {
      "inputs": [
        {
          "internalType": "uint256",
          "name": "",
          "type": "uint256"
        }
      ],
      "name": "curves",
      "outputs": [
        {
          "internalType": "uint256",
          "name": "",
          "type": "uint256"
        }
      ],
      "stateMutability": "view",
      "type": "function"
    },
    {
      "inputs": [],
      "name": "gameAdmin",
      "outputs": [
        {
          "internalType": "contract iGAME_Master",
          "name": "",
          "type": "address"
        }
      ],
      "stateMutability": "view",
      "type": "function"
    },
    {
      "inputs": [],
      "name": "gameToken",
      "outputs": [
        {
          "internalType": "contract iGAME_ERC20",
          "name": "",
          "type": "address"
        }
      ],
      "stateMutability": "view",
      "type": "function"
    },
    {
      "inputs": [
        {
          "internalType": "uint256",
          "name": "tokenId",
          "type": "uint256"
        }
      ],
      "name": "getBuyPrice",
      "outputs": [
        {
          "internalType": "uint256",
          "name": "",
          "type": "uint256"
        }
      ],
      "stateMutability": "view",
      "type": "function"
    },
    {
      "inputs": [
        {
          "internalType": "uint256",
          "name": "tokenId",
          "type": "uint256"
        },
        {
          "internalType": "uint256",
          "name": "printNumber",
          "type": "uint256"
        }
      ],
      "name": "getPrintPrice",
      "outputs": [
        {
          "internalType": "uint256",
          "name": "price",
          "type": "uint256"
        }
      ],
      "stateMutability": "view",
      "type": "function"
    },
    {
      "inputs": [
        {
          "internalType": "bytes32",
          "name": "role",
          "type": "bytes32"
        }
      ],
      "name": "getRoleAdmin",
      "outputs": [
        {
          "internalType": "bytes32",
          "name": "",
          "type": "bytes32"
        }
      ],
      "stateMutability": "view",
      "type": "function"
    },
    {
      "inputs": [
        {
          "internalType": "bytes32",
          "name": "role",
          "type": "bytes32"
        },
        {
          "internalType": "uint256",
          "name": "index",
          "type": "uint256"
        }
      ],
      "name": "getRoleMember",
      "outputs": [
        {
          "internalType": "address",
          "name": "",
          "type": "address"
        }
      ],
      "stateMutability": "view",
      "type": "function"
    },
    {
      "inputs": [
        {
          "internalType": "bytes32",
          "name": "role",
          "type": "bytes32"
        }
      ],
      "name": "getRoleMemberCount",
      "outputs": [
        {
          "internalType": "uint256",
          "name": "",
          "type": "uint256"
        }
      ],
      "stateMutability": "view",
      "type": "function"
    },
    {
      "inputs": [
        {
          "internalType": "uint256",
          "name": "tokenId",
          "type": "uint256"
        }
      ],
      "name": "getSellPrice",
      "outputs": [
        {
          "internalType": "uint256",
          "name": "",
          "type": "uint256"
        }
      ],
      "stateMutability": "view",
      "type": "function"
    },
    {
      "inputs": [
        {
          "internalType": "uint256",
          "name": "_creatorID",
          "type": "uint256"
        },
        {
          "internalType": "uint256",
          "name": "token",
          "type": "uint256"
        }
      ],
      "name": "getTokenID",
      "outputs": [
        {
          "internalType": "uint256",
          "name": "",
          "type": "uint256"
        }
      ],
      "stateMutability": "view",
      "type": "function"
    },
    {
      "inputs": [
        {
          "internalType": "bytes32",
          "name": "role",
          "type": "bytes32"
        },
        {
          "internalType": "address",
          "name": "account",
          "type": "address"
        }
      ],
      "name": "grantRole",
      "outputs": [],
      "stateMutability": "nonpayable",
      "type": "function"
    },
    {
      "inputs": [
        {
          "internalType": "uint256",
          "name": "id",
          "type": "uint256"
        }
      ],
      "name": "hasMinted",
      "outputs": [
        {
          "internalType": "bool",
          "name": "",
          "type": "bool"
        }
      ],
      "stateMutability": "view",
      "type": "function"
    },
    {
      "inputs": [
        {
          "internalType": "bytes32",
          "name": "role",
          "type": "bytes32"
        },
        {
          "internalType": "address",
          "name": "account",
          "type": "address"
        }
      ],
      "name": "hasRole",
      "outputs": [
        {
          "internalType": "bool",
          "name": "",
          "type": "bool"
        }
      ],
      "stateMutability": "view",
      "type": "function"
    },
    {
      "inputs": [
        {
          "internalType": "uint256",
          "name": "",
          "type": "uint256"
        }
      ],
      "name": "initialized",
      "outputs": [
        {
          "internalType": "bool",
          "name": "",
          "type": "bool"
        }
      ],
      "stateMutability": "view",
      "type": "function"
    },
    {
      "inputs": [
        {
          "internalType": "address",
          "name": "account",
          "type": "address"
        },
        {
          "internalType": "address",
          "name": "operator",
          "type": "address"
        }
      ],
      "name": "isApprovedForAll",
      "outputs": [
        {
          "internalType": "bool",
          "name": "",
          "type": "bool"
        }
      ],
      "stateMutability": "view",
      "type": "function"
    },
    {
      "inputs": [
        {
          "internalType": "address",
          "name": "to",
          "type": "address"
        },
        {
          "internalType": "uint256",
          "name": "id",
          "type": "uint256"
        },
        {
          "internalType": "uint256",
          "name": "value",
          "type": "uint256"
        },
        {
          "internalType": "bytes",
          "name": "data",
          "type": "bytes"
        }
      ],
      "name": "mint",
      "outputs": [],
      "stateMutability": "nonpayable",
      "type": "function"
    },
    {
      "inputs": [
        {
          "internalType": "address",
          "name": "to",
          "type": "address"
        },
        {
          "internalType": "uint256[]",
          "name": "ids",
          "type": "uint256[]"
        },
        {
          "internalType": "uint256[]",
          "name": "values",
          "type": "uint256[]"
        },
        {
          "internalType": "bytes",
          "name": "data",
          "type": "bytes"
        }
      ],
      "name": "mintBatch",
      "outputs": [],
      "stateMutability": "nonpayable",
      "type": "function"
    },
    {
      "inputs": [],
      "name": "mintingActive",
      "outputs": [
        {
          "internalType": "bool",
          "name": "",
          "type": "bool"
        }
      ],
      "stateMutability": "view",
      "type": "function"
    },
    {
      "inputs": [],
      "name": "mintingEnabled",
      "outputs": [
        {
          "internalType": "bool",
          "name": "",
          "type": "bool"
        }
      ],
      "stateMutability": "view",
      "type": "function"
    },
    {
      "inputs": [],
      "name": "multiple",
      "outputs": [
        {
          "internalType": "uint256",
          "name": "",
          "type": "uint256"
        }
      ],
      "stateMutability": "view",
      "type": "function"
    },
    {
      "inputs": [
        {
          "internalType": "uint256",
          "name": "",
          "type": "uint256"
        }
      ],
      "name": "multipliers",
      "outputs": [
        {
          "internalType": "uint256",
          "name": "",
          "type": "uint256"
        }
      ],
      "stateMutability": "view",
      "type": "function"
    },
    {
      "inputs": [],
      "name": "nextTokenId",
      "outputs": [
        {
          "internalType": "uint256",
          "name": "",
          "type": "uint256"
        }
      ],
      "stateMutability": "view",
      "type": "function"
    },
    {
      "inputs": [
        {
          "internalType": "bytes32",
          "name": "role",
          "type": "bytes32"
        },
        {
          "internalType": "address",
          "name": "account",
          "type": "address"
        }
      ],
      "name": "renounceRole",
      "outputs": [],
      "stateMutability": "nonpayable",
      "type": "function"
    },
    {
      "inputs": [
        {
          "internalType": "bytes32",
          "name": "role",
          "type": "bytes32"
        },
        {
          "internalType": "address",
          "name": "account",
          "type": "address"
        }
      ],
      "name": "revokeRole",
      "outputs": [],
      "stateMutability": "nonpayable",
      "type": "function"
    },
    {
      "inputs": [
        {
          "internalType": "address",
          "name": "from",
          "type": "address"
        },
        {
          "internalType": "address",
          "name": "to",
          "type": "address"
        },
        {
          "internalType": "uint256[]",
          "name": "ids",
          "type": "uint256[]"
        },
        {
          "internalType": "uint256[]",
          "name": "amounts",
          "type": "uint256[]"
        },
        {
          "internalType": "bytes",
          "name": "data",
          "type": "bytes"
        }
      ],
      "name": "safeBatchTransferFrom",
      "outputs": [],
      "stateMutability": "nonpayable",
      "type": "function"
    },
    {
      "inputs": [
        {
          "internalType": "address",
          "name": "from",
          "type": "address"
        },
        {
          "internalType": "address",
          "name": "to",
          "type": "address"
        },
        {
          "internalType": "uint256",
          "name": "id",
          "type": "uint256"
        },
        {
          "internalType": "uint256",
          "name": "amount",
          "type": "uint256"
        },
        {
          "internalType": "bytes",
          "name": "data",
          "type": "bytes"
        }
      ],
      "name": "safeTransferFrom",
      "outputs": [],
      "stateMutability": "nonpayable",
      "type": "function"
    },
    {
      "inputs": [
        {
          "internalType": "uint256",
          "name": "",
          "type": "uint256"
        }
      ],
      "name": "saleStarts",
      "outputs": [
        {
          "internalType": "uint256",
          "name": "",
          "type": "uint256"
        }
      ],
      "stateMutability": "view",
      "type": "function"
    },
    {
      "inputs": [
        {
          "internalType": "address",
          "name": "operator",
          "type": "address"
        },
        {
          "internalType": "bool",
          "name": "approved",
          "type": "bool"
        }
      ],
      "name": "setApprovalForAll",
      "outputs": [],
      "stateMutability": "nonpayable",
      "type": "function"
    },
    {
      "inputs": [
        {
          "internalType": "string",
          "name": "newuri",
          "type": "string"
        }
      ],
      "name": "setBaseURI",
      "outputs": [],
      "stateMutability": "nonpayable",
      "type": "function"
    },
    {
      "inputs": [
        {
          "internalType": "address",
          "name": "a",
          "type": "address"
        }
      ],
      "name": "setFEERECEIVER",
      "outputs": [],
      "stateMutability": "nonpayable",
      "type": "function"
    },
    {
      "inputs": [
        {
          "internalType": "string",
          "name": "newuri",
          "type": "string"
        },
        {
          "internalType": "uint256",
          "name": "id",
          "type": "uint256"
        }
      ],
      "name": "setURI",
      "outputs": [],
      "stateMutability": "nonpayable",
      "type": "function"
    },
    {
      "inputs": [
        {
          "internalType": "bytes4",
          "name": "interfaceId",
          "type": "bytes4"
        }
      ],
      "name": "supportsInterface",
      "outputs": [
        {
          "internalType": "bool",
          "name": "",
          "type": "bool"
        }
      ],
      "stateMutability": "view",
      "type": "function"
    },
    {
      "inputs": [],
      "name": "toggleTokenMinting",
      "outputs": [],
      "stateMutability": "nonpayable",
      "type": "function"
    },
    {
      "inputs": [
        {
          "internalType": "uint256",
          "name": "tokenid",
          "type": "uint256"
        }
      ],
      "name": "uri",
      "outputs": [
        {
          "internalType": "string",
          "name": "",
          "type": "string"
        }
      ],
      "stateMutability": "view",
      "type": "function"
    }
  ],
  "bytecode": "0x60806040526012600b55670de0b6b3a7640000600c55683635c9adc5dea00000600d55629896806015553480156200003657600080fd5b50604051620049e5380380620049e5833981810160405260408110156200005c57600080fd5b5080516020918201516040805180820190915260048152631d195cdd60e21b938101939093529091620000966301ffc9a760e01b6200018d565b620000a8636cdb3d1360e11b6200018d565b620000ba6303a24d0760e21b6200018d565b620000d06000620000ca62000212565b62000216565b620000ee600080516020620049c5833981519152620000ca62000212565b6200010c600080516020620049a5833981519152620000ca62000212565b620001286000600080516020620049a583398151915262000226565b620001446000600080516020620049c583398151915262000226565b8051620001599060069060208401906200037a565b5050600880546001600160a01b039384166001600160a01b0319918216179091556009805492909316911617905562000416565b6001600160e01b03198082161415620001ed576040805162461bcd60e51b815260206004820152601c60248201527f4552433136353a20696e76616c696420696e7465726661636520696400000000604482015290519081900360640190fd5b6001600160e01b0319166000908152602081905260409020805460ff19166001179055565b3390565b62000222828262000278565b5050565b600082815260056020526040808220600201549051839285917fbd79b86ffe0ab8e8776151514217cd7cacd52c909f66475c3af44e129f0b00ff9190a460009182526005602052604090912060020155565b60008281526005602090815260409091206200029f91839062002eaf620002f3821b17901c565b156200022257620002af62000212565b6001600160a01b0316816001600160a01b0316837f2f8788117e7eff1d82e926ec794901d17c78024a50270940304540a733656f0d60405160405180910390a45050565b60006200030a836001600160a01b03841662000313565b90505b92915050565b600062000321838362000362565b62000359575081546001818101845560008481526020808220909301849055845484825282860190935260409020919091556200030d565b5060006200030d565b60009081526001919091016020526040902054151590565b828054600181600116156101000203166002900490600052602060002090601f016020900481019282601f10620003bd57805160ff1916838001178555620003ed565b82800160010185558215620003ed579182015b82811115620003ed578251825591602001919060010190620003d0565b50620003fb929150620003ff565b5090565b5b80821115620003fb576000815560010162000400565b61457f80620004266000396000f3fe608060405234801561001057600080fd5b50600436106102f05760003560e01c8063654d13331161019d578063b1de303e116100e9578063ca15c873116100a2578063e985e9c51161007c578063e985e9c51461110c578063ec7982571461113a578063f242432a14611157578063fe6d812414611220576102f0565b8063ca15c873146110a6578063d547741f146110c3578063e5b95595146110ef576102f0565b8063b1de303e14610f83578063b390c0ab14610f8b578063ba730e5314610fae578063ba84be0714610fcb578063c3dfdae61461107b578063c707562d14611083576102f0565b80639010d07c116101565780639fd6db12116101305780639fd6db1214610f28578063a217fddf14610f30578063a22cb46514610f38578063ac7fc26314610f66576102f0565b80639010d07c14610ebc57806391d1485414610edf5780639797116014610f0b576102f0565b8063654d133314610b5757806367db3b8f14610c07578063731133e914610cad57806375794a3c14610d6d57806376adcba514610d7557806383ca4b6f14610d99576102f0565b80631f7fdffa1161025c57806331f9c9191161021557806342966c68116101ef57806342966c681461091b578063437a8ae6146109385780634e1273f41461094057806355f804b314610ab3576102f0565b806331f9c919146108ca57806336568abe146108d25780633d242655146108fe576102f0565b80631f7fdffa146104dd578063248a9ca31461069557806326150e95146106b25780632b606d2c146106ba5780632eb2c2d6146106dd5780632f2ff15d1461089e576102f0565b8063118c4f13116102ae578063118c4f13146104425780631490185c1461044a578063186d44321461046d5780631bf7d749146104925780631c7c2598146104af5780631d84003f146104b7576102f0565b8062fdd58e146102f557806301c11d961461033357806301ffc9a71461033b57806308d4db14146103765780630bb78ec1146103935780630e89341c14610425575b600080fd5b6103216004803603604081101561030b57600080fd5b506001600160a01b038135169060200135611228565b60408051918252519081900360200190f35b61032161129a565b6103626004803603602081101561035157600080fd5b50356001600160e01b0319166112a0565b604080519115158252519081900360200190f35b6103216004803603602081101561038c57600080fd5b50356112c3565b6103b0600480360360208110156103a957600080fd5b50356112e6565b6040805160208082528351818301528351919283929083019185019080838360005b838110156103ea5781810151838201526020016103d2565b50505050905090810190601f1680156104175780820380516001836020036101000a031916815260200191505b509250505060405180910390f35b6103b06004803603602081101561043b57600080fd5b5035611381565b6103216115e5565b6103216004803603604081101561046057600080fd5b5080359060200135611609565b6104906004803603604081101561048357600080fd5b5080359060200135611614565b005b610321600480360360208110156104a857600080fd5b50356119ab565b6103626119bd565b610490600480360360208110156104cd57600080fd5b50356001600160a01b03166119cb565b610490600480360360808110156104f357600080fd5b6001600160a01b038235169190810190604081016020820135600160201b81111561051d57600080fd5b82018360208201111561052f57600080fd5b803590602001918460208302840111600160201b8311171561055057600080fd5b9190808060200260200160405190810160405280939291908181526020018383602002808284376000920191909152509295949360208101935035915050600160201b81111561059f57600080fd5b8201836020820111156105b157600080fd5b803590602001918460208302840111600160201b831117156105d257600080fd5b9190808060200260200160405190810160405280939291908181526020018383602002808284376000920191909152509295949360208101935035915050600160201b81111561062157600080fd5b82018360208201111561063357600080fd5b803590602001918460018302840111600160201b8311171561065457600080fd5b91908080601f016020809104026020016040519081016040528093929190818152602001838380828437600092019190915250929550611a01945050505050565b610321600480360360208110156106ab57600080fd5b5035611a46565b610490611a5b565b610321600480360360408110156106d057600080fd5b5080359060200135611a83565b610490600480360360a08110156106f357600080fd5b6001600160a01b038235811692602081013590911691810190606081016040820135600160201b81111561072657600080fd5b82018360208201111561073857600080fd5b803590602001918460208302840111600160201b8311171561075957600080fd5b9190808060200260200160405190810160405280939291908181526020018383602002808284376000920191909152509295949360208101935035915050600160201b8111156107a857600080fd5b8201836020820111156107ba57600080fd5b803590602001918460208302840111600160201b831117156107db57600080fd5b9190808060200260200160405190810160405280939291908181526020018383602002808284376000920191909152509295949360208101935035915050600160201b81111561082a57600080fd5b82018360208201111561083c57600080fd5b803590602001918460018302840111600160201b8311171561085d57600080fd5b91908080601f016020809104026020016040519081016040528093929190818152602001838380828437600092019190915250929550611b31945050505050565b610490600480360360408110156108b457600080fd5b50803590602001356001600160a01b0316611e2f565b610362611e9b565b610490600480360360408110156108e857600080fd5b50803590602001356001600160a01b0316611ea4565b6103216004803603602081101561091457600080fd5b5035611f05565b6104906004803603602081101561093157600080fd5b5035611f17565b610321611ffc565b610a636004803603604081101561095657600080fd5b810190602081018135600160201b81111561097057600080fd5b82018360208201111561098257600080fd5b803590602001918460208302840111600160201b831117156109a357600080fd5b9190808060200260200160405190810160405280939291908181526020018383602002808284376000920191909152509295949360208101935035915050600160201b8111156109f257600080fd5b820183602082011115610a0457600080fd5b803590602001918460208302840111600160201b83111715610a2557600080fd5b919080806020026020016040519081016040528093929190818152602001838360200280828437600092019190915250929550612002945050505050565b60408051602080825283518183015283519192839290830191858101910280838360005b83811015610a9f578181015183820152602001610a87565b505050509050019250505060405180910390f35b61049060048036036020811015610ac957600080fd5b810190602081018135600160201b811115610ae357600080fd5b820183602082011115610af557600080fd5b803590602001918460018302840111600160201b83111715610b1657600080fd5b91908080601f016020809104026020016040519081016040528093929190818152602001838380828437600092019190915250929550612180945050505050565b61049060048036036080811015610b6d57600080fd5b81359190810190604081016020820135600160201b811115610b8e57600080fd5b820183602082011115610ba057600080fd5b803590602001918460018302840111600160201b83111715610bc157600080fd5b91908080601f01602080910402602001604051908101604052809392919081815260200183838082843760009201919091525092955050823593505050602001356121c6565b61049060048036036040811015610c1d57600080fd5b810190602081018135600160201b811115610c3757600080fd5b820183602082011115610c4957600080fd5b803590602001918460018302840111600160201b83111715610c6a57600080fd5b91908080601f0160208091040260200160405190810160405280939291908181526020018383808284376000920191909152509295505091359250612438915050565b61049060048036036080811015610cc357600080fd5b6001600160a01b038235169160208101359160408201359190810190608081016060820135600160201b811115610cf957600080fd5b820183602082011115610d0b57600080fd5b803590602001918460018302840111600160201b83111715610d2c57600080fd5b91908080601f01602080910402602001604051908101604052809392919081815260200183838082843760009201919091525092955061248f945050505050565b6103216124ce565b610d7d6124d4565b604080516001600160a01b039092168252519081900360200190f35b61049060048036036040811015610daf57600080fd5b810190602081018135600160201b811115610dc957600080fd5b820183602082011115610ddb57600080fd5b803590602001918460208302840111600160201b83111715610dfc57600080fd5b9190808060200260200160405190810160405280939291908181526020018383602002808284376000920191909152509295949360208101935035915050600160201b811115610e4b57600080fd5b820183602082011115610e5d57600080fd5b803590602001918460208302840111600160201b83111715610e7e57600080fd5b9190808060200260200160405190810160405280939291908181526020018383602002808284376000920191909152509295506124e3945050505050565b610d7d60048036036040811015610ed257600080fd5b50803590602001356124ee565b61036260048036036040811015610ef557600080fd5b50803590602001356001600160a01b0316612506565b61036260048036036020811015610f2157600080fd5b503561251e565b610362612533565b61032161253c565b61049060048036036040811015610f4e57600080fd5b506001600160a01b0381351690602001351515612541565b61032160048036036020811015610f7c57600080fd5b5035612630565b610321612642565b61049060048036036040811015610fa157600080fd5b5080359060200135612666565b61032160048036036020811015610fc457600080fd5b5035612671565b61049060048036036080811015610fe157600080fd5b81359190810190604081016020820135600160201b81111561100257600080fd5b82018360208201111561101457600080fd5b803590602001918460018302840111600160201b8311171561103557600080fd5b91908080601f0160208091040260200160405190810160405280939291908181526020018383808284376000920191909152509295505082359350505060200135612694565b610d7d612978565b6104906004803603604081101561109957600080fd5b5080359060200135612987565b610321600480360360208110156110bc57600080fd5b5035612bfb565b610490600480360360408110156110d957600080fd5b50803590602001356001600160a01b0316612c12565b6103626004803603602081101561110557600080fd5b5035612c6b565b6103626004803603604081101561112257600080fd5b506001600160a01b0381358116916020013516612c80565b6103216004803603602081101561115057600080fd5b5035612cae565b610490600480360360a081101561116d57600080fd5b6001600160a01b03823581169260208101359091169160408201359160608101359181019060a081016080820135600160201b8111156111ac57600080fd5b8201836020820111156111be57600080fd5b803590602001918460018302840111600160201b831117156111df57600080fd5b91908080601f016020809104026020016040519081016040528093929190818152602001838380828437600092019190915250929550612cc0945050505050565b610321612e8b565b60006001600160a01b03831661126f5760405162461bcd60e51b815260040180806020018281038252602b8152602001806142bf602b913960400191505060405180910390fd5b5060008181526001602090815260408083206001600160a01b03861684529091529020545b92915050565b600d5481565b6001600160e01b0319811660009081526020819052604090205460ff165b919050565b6000818152601260205260408120546112df8360018301611a83565b9392505050565b60076020908152600091825260409182902080548351601f6002600019610100600186161502019093169290920491820184900484028101840190945280845290918301828280156113795780601f1061134e57610100808354040283529160200191611379565b820191906000526020600020905b81548152906001019060200180831161135c57829003601f168201915b505050505081565b6000818152600760209081526040918290208054835160026001831615610100026000190190921691909104601f810184900484028201840190945283815260609384939192918301828280156114195780601f106113ee57610100808354040283529160200191611419565b820191906000526020600020905b8154815290600101906020018083116113fc57829003601f168201915b5050600654939450505050600260001961010060018416150201909116046114425790506112be565b8051156115135760068160405160200180838054600181600116156101000203166002900480156114aa5780601f106114885761010080835404028352918201916114aa565b820191906000526020600020905b815481529060010190602001808311611496575b5050825160208401908083835b602083106114d65780518252601f1990920191602091820191016114b7565b6001836020036101000a038019825116818451168082178552505050505050905001925050506040516020818303038152906040529150506112be565b600661151e84612ec4565b604051602001808380546001816001161561010002031660029004801561157c5780601f1061155a57610100808354040283529182019161157c565b820191906000526020600020905b815481529060010190602001808311611568575b5050825160208401908083835b602083106115a85780518252601f199092019160209182019101611589565b6001836020036101000a03801982511681845116808217855250505050505090500192505050604051602081830303815290604052915050919050565b7f9667e80708b6eeeb0053fa0cca44e028ff548e2a9f029edfeac87c118b08b7c881565b600c54919091020190565b6000828152601160205260409020544211801561163e575060008281526011602052604090205415155b61168f576040805162461bcd60e51b815260206004820152601860248201527f73616c6520686173206e6f742073746172746564207965740000000000000000604482015290519081900360640190fd5b6000828152601260205260408120546116a9908490611a83565b90506000811180156116bc5750600d5481105b6116fd576040805162461bcd60e51b815260206004820152600d60248201526c696e76616c696420707269636560981b604482015290519081900360640190fd5b60008381526012602052604080822080546001019055600854815163e2b8e7d360e01b81523360048201523060248201526044810185905291516001600160a01b039091169263e2b8e7d3926064808201939182900301818387803b15801561176557600080fd5b505af1158015611779573d6000803e3d6000fd5b50506008546001600160a01b0316915063e2b8e7d39050303361179c8686612f9f565b6040518463ffffffff1660e01b815260040180846001600160a01b03168152602001836001600160a01b031681526020018281526020019350505050600060405180830381600087803b1580156117f257600080fd5b505af1158015611806573d6000803e3d6000fd5b505050506000611820603283612fe190919063ffffffff16565b9050600061183a607d61183485600a613023565b90612fe1565b600854600a546040805163e2b8e7d360e01b81523060048201526001600160a01b03928316602482015260448101879052905193945091169163e2b8e7d39160648082019260009290919082900301818387803b15801561189a57600080fd5b505af11580156118ae573d6000803e3d6000fd5b50505050600060155486816118bf57fe5b6008546040805163e2b8e7d360e01b8152306004820152939092046001600160a01b03818116602486015260448501879052925190945091169163e2b8e7d391606480830192600092919082900301818387803b15801561191f57600080fd5b505af1158015611933573d6000803e3d6000fd5b50505050611953338760016040518060200160405280600081525061307c565b60008681526012602090815260409182902054825189815233928101929092528183015290517f787925e050e8cb8dba61a675397ced37ba5304fc76b70c50b62753eed7c9ef649181900360600190a1505050505050565b600f6020526000908152604090205481565b600e54610100900460ff1681565b6119d6600033612506565b6119df57600080fd5b600a80546001600160a01b0319166001600160a01b0392909216919091179055565b611a2b7ff0887ba65ee2024ea881d91b74c2450ef19e1557f03bed3ea9f16b037cbe2dc933612506565b611a3457600080fd5b611a40848484846131b4565b50505050565b60009081526005602052604090206002015490565b611a66600033612506565b611a6f57600080fd5b600e805460ff19811660ff90911615179055565b6000828152600f60209081526040808320546013909252822054600b54600a0a603284611abb600986900a61183460038a0a86613023565b9050611ac681613474565b611ade611ad7866118348a87613023565b82906134b8565b9050611ae981613474565b611af6611ad78385613023565b9050611b0181613474565b611b1b6103e861183486611b15858a612fe1565b90613023565b9050611b2681613474565b979650505050505050565b8151835114611b715760405162461bcd60e51b81526004018080602001828103825260288152602001806144d26028913960400191505060405180910390fd5b6001600160a01b038416611bb65760405162461bcd60e51b81526004018080602001828103825260258152602001806143986025913960400191505060405180910390fd5b611bbe613512565b6001600160a01b0316856001600160a01b03161480611be95750611be985611be4613512565b612c80565b611c245760405162461bcd60e51b81526004018080602001828103825260328152602001806143bd6032913960400191505060405180910390fd5b6000611c2e613512565b9050611c3e818787878787611e27565b60005b8451811015611d3f576000858281518110611c5857fe5b602002602001015190506000858381518110611c7057fe5b60200260200101519050611cdd816040518060600160405280602a8152602001614412602a91396001600086815260200190815260200160002060008d6001600160a01b03166001600160a01b03168152602001908152602001600020546135179092919063ffffffff16565b60008381526001602090815260408083206001600160a01b038e811685529252808320939093558a1681522054611d1490826134b8565b60009283526001602081815260408086206001600160a01b038d168752909152909320555001611c41565b50846001600160a01b0316866001600160a01b0316826001600160a01b03167f4a39dc06d4c0dbc64b70af90fd698a233a518aa5d07e595d983b8c0526c8f7fb8787604051808060200180602001838103835285818151815260200191508051906020019060200280838360005b83811015611dc5578181015183820152602001611dad565b50505050905001838103825284818151815260200191508051906020019060200280838360005b83811015611e04578181015183820152602001611dec565b5050505090500194505050505060405180910390a4611e278187878787876135ae565b505050505050565b600082815260056020526040902060020154611e5290611e4d613512565b612506565b611e8d5760405162461bcd60e51b815260040180806020018281038252602f81526020018061426f602f913960400191505060405180910390fd5b611e97828261382d565b5050565b600e5460ff1681565b611eac613512565b6001600160a01b0316816001600160a01b031614611efb5760405162461bcd60e51b815260040180806020018281038252602f81526020018061451b602f913960400191505060405180910390fd5b611e978282613896565b60126020526000908152604090205481565b6001611f233383611228565b1015611f605760405162461bcd60e51b815260040180806020018281038252602381526020018061443c6023913960400191505060405180910390fd5b6000611f6b82612671565b600083815260126020526040902080546000190190559050611f8f338360016138ff565b6008546040805163e2b8e7d360e01b81523060048201523360248201526044810184905290516001600160a01b039092169163e2b8e7d39160648082019260009290919082900301818387803b158015611fe857600080fd5b505af1158015611e27573d6000803e3d6000fd5b60155481565b606081518351146120445760405162461bcd60e51b81526004018080602001828103825260298152602001806144a96029913960400191505060405180910390fd5b6060835167ffffffffffffffff8111801561205e57600080fd5b50604051908082528060200260200182016040528015612088578160200160208202803683370190505b50905060005b84518110156121785760006001600160a01b03168582815181106120ae57fe5b60200260200101516001600160a01b031614156120fc5760405162461bcd60e51b81526004018080602001828103825260318152602001806142ea6031913960400191505060405180910390fd5b6001600085838151811061210c57fe5b60200260200101518152602001908152602001600020600086838151811061213057fe5b60200260200101516001600160a01b03166001600160a01b031681526020019081526020016000205482828151811061216557fe5b602090810291909101015260010161208e565b509392505050565b6121aa7ff6e33f9720e4529cb1c710e3344dc00830589a3239198ffa39b07117085d250e33612506565b6121b357600080fd5b8051611e979060069060208401906140b2565b620f4240601654106121f9576040805162461bcd60e51b8152602060048201526000602482015290519081900360640190fd5b60008211801561220a575060148211155b80156122165750600081115b80156122255750620f42408111155b612276576040805162461bcd60e51b815260206004820152601b60248201527f76616c696420637572766520616e64206d756c7469706c696572730000000000604482015290519081900360640190fd5b6009546040805163c2babfd760e01b815233600482015290516001600160a01b039092169163c2babfd791602480820192602092909190829003018186803b1580156122c157600080fd5b505afa1580156122d5573d6000803e3d6000fd5b505050506040513d60208110156122eb57600080fd5b5051151560011461232d5760405162461bcd60e51b815260040180806020018281038252602181526020018061429e6021913960400191505060405180910390fd5b6016805460010190819055600090612346908690611609565b6000818152600f602090815260408083208790556013825280832086905560108252808320805460ff19166001179055805184815290810187905260608101869052608081830181815289519183019190915288519495507f855f2403a3717b569ca6483cb3250554954ef4734871df9005e45eb9bffce8cf9486948a948a948a949093909260a0850192880191908190849084905b838110156123f45781810151838201526020016123dc565b50505050905090810190601f1680156124215780820380516001836020036101000a031916815260200191505b509550505050505060405180910390a15050505050565b6124627ff6e33f9720e4529cb1c710e3344dc00830589a3239198ffa39b07117085d250e33612506565b61246b57600080fd5b6000818152600760209081526040909120835161248a928501906140b2565b505050565b6124b97ff0887ba65ee2024ea881d91b74c2450ef19e1557f03bed3ea9f16b037cbe2dc933612506565b6124c257600080fd5b611a408484848461307c565b60165481565b6009546001600160a01b031681565b611e97338383613a32565b60008281526005602052604081206112df9083613ca0565b60008281526005602052604081206112df9083613cac565b60106020526000908152604090205460ff1681565b60145460ff1681565b600081565b816001600160a01b0316612553613512565b6001600160a01b031614156125995760405162461bcd60e51b81526004018080602001828103825260298152602001806144806029913960400191505060405180910390fd5b80600360006125a6613512565b6001600160a01b03908116825260208083019390935260409182016000908120918716808252919093529120805460ff1916921515929092179091556125ea613512565b6001600160a01b03167f17307eab39ab6107e8899845ad3d59bd9653f200f220920489ca2b5937696c318360405180821515815260200191505060405180910390a35050565b60136020526000908152604090205481565b7ff6e33f9720e4529cb1c710e3344dc00830589a3239198ffa39b07117085d250e81565b611e973383836138ff565b6000818152601260205260408120546112df6064611834605a611b158786611a83565b61269d84612c6b565b156126ef576040805162461bcd60e51b815260206004820152601960248201527f746f6b656e20686173206e6f74206265656e206d696e74656400000000000000604482015290519081900360640190fd5b6009546040805163c2babfd760e01b815233600482015290516001600160a01b039092169163c2babfd791602480820192602092909190829003018186803b15801561273a57600080fd5b505afa15801561274e573d6000803e3d6000fd5b505050506040513d602081101561276457600080fd5b505115156001146127a65760405162461bcd60e51b815260040180806020018281038252602181526020018061429e6021913960400191505060405180910390fd5b6000821180156127b7575060148211155b80156127c35750600081115b80156127d25750620f42408111155b612823576040805162461bcd60e51b815260206004820152601b60248201527f76616c696420637572766520616e64206d756c7469706c696572730000000000604482015290519081900360640190fd5b600183511161286e576040805162461bcd60e51b81526020600482015260126024820152711a9cdbdb881b5d5cdd081b9bdb881b9d5b1b60721b604482015290519081900360640190fd5b60008481526010602052604090205460ff1615156001146128d2576040805162461bcd60e51b81526020600482015260196024820152781d1bdad95b881b5d5cdd081899481a5b9a5d1a585b1a5e9959603a1b604482015290519081900360640190fd5b600060155485816128df57fe5b6000878152600f602090815260408083208890556013825280832087905580518a81529081018890526060810187905260808183018181528a519183019190915289519590940495507f855f2403a3717b569ca6483cb3250554954ef4734871df9005e45eb9bffce8cf948a948a948a948a949360a08501929188019181908490849083156123f45781810151838201526020016123dc565b6008546001600160a01b031681565b61299082612c6b565b156129da576040805162461bcd60e51b81526020600482015260156024820152741d1bdad95b881a185cc81899595b881b5a5b9d1959605a1b604482015290519081900360640190fd5b6000828152600f6020526040902054612a2e576040805162461bcd60e51b815260206004820152601160248201527018dd5c9d99481b5d5cdd081899481cd95d607a1b604482015290519081900360640190fd5b60008111612a83576040805162461bcd60e51b815260206004820152601960248201527f73616c652064617465206d757374206265206e6f6e7a65726f00000000000000604482015290519081900360640190fd5b60008281526010602052604090205460ff161515600114612ae7576040805162461bcd60e51b81526020600482015260196024820152781d1bdad95b881b5d5cdd081899481a5b9a5d1a585b1a5e9959603a1b604482015290519081900360640190fd5b6009546040805163c2babfd760e01b815233600482015290516001600160a01b039092169163c2babfd791602480820192602092909190829003018186803b158015612b3257600080fd5b505afa158015612b46573d6000803e3d6000fd5b505050506040513d6020811015612b5c57600080fd5b50511515600114612b9e5760405162461bcd60e51b815260040180806020018281038252602181526020018061429e6021913960400191505060405180910390fd5b8060011415612baa5750425b600082815260116020908152604091829020839055815184815290810183905281517f6ce538f9e575f548476b624a738c3bc0bdf1ec4e465cacb3f7c67bef3926e20e929181900390910190a15050565b600081815260056020526040812061129490613cc1565b600082815260056020526040902060020154612c3090611e4d613512565b611efb5760405162461bcd60e51b81526004018080602001828103825260308152602001806143686030913960400191505060405180910390fd5b60009081526002602052604090205460ff1690565b6001600160a01b03918216600090815260036020908152604080832093909416825291909152205460ff1690565b60116020526000908152604090205481565b6001600160a01b038416612d055760405162461bcd60e51b81526004018080602001828103825260258152602001806143986025913960400191505060405180910390fd5b612d0d613512565b6001600160a01b0316856001600160a01b03161480612d335750612d3385611be4613512565b612d6e5760405162461bcd60e51b815260040180806020018281038252602981526020018061433f6029913960400191505060405180910390fd5b6000612d78613512565b9050612d98818787612d8988613ccc565b612d9288613ccc565b87611e27565b612ddf836040518060600160405280602a8152602001614412602a913960008781526001602090815260408083206001600160a01b038d1684529091529020549190613517565b60008581526001602090815260408083206001600160a01b038b81168552925280832093909355871681522054612e1690846134b8565b60008581526001602090815260408083206001600160a01b03808b168086529184529382902094909455805188815291820187905280518a8416938616927fc3d58168c5ae7397731d063d5bbf3d657854427343f4c083240f7aacaa2d0f6292908290030190a4611e27818787878787613d10565b7ff0887ba65ee2024ea881d91b74c2450ef19e1557f03bed3ea9f16b037cbe2dc981565b60006112df836001600160a01b038416613e81565b606081612ee957506040805180820190915260018152600360fc1b60208201526112be565b8160005b8115612f0157600101600a82049150612eed565b60608167ffffffffffffffff81118015612f1a57600080fd5b506040519080825280601f01601f191660200182016040528015612f45576020820181803683370190505b50859350905060001982015b8315612f9657600a840660300160f81b82828060019003935081518110612f7457fe5b60200101906001600160f81b031916908160001a905350600a84049350612f51565b50949350505050565b60006112df83836040518060400160405280601e81526020017f536166654d6174683a207375627472616374696f6e206f766572666c6f770000815250613517565b60006112df83836040518060400160405280601a81526020017f536166654d6174683a206469766973696f6e206279207a65726f000000000000815250613ecb565b60008261303257506000611294565b8282028284828161303f57fe5b04146112df5760405162461bcd60e51b815260040180806020018281038252602181526020018061445f6021913960400191505060405180910390fd5b6001600160a01b0384166130c15760405162461bcd60e51b81526004018080602001828103825260218152602001806144fa6021913960400191505060405180910390fd5b60008381526002602052604090205460ff166130f1576000838152600260205260409020805460ff191660011790555b60006130fb613512565b905061310d81600087612d8988613ccc565b60008481526001602090815260408083206001600160a01b038916845290915290205461313a90846134b8565b60008581526001602090815260408083206001600160a01b03808b16808652918452828520959095558151898152928301889052815190948616927fc3d58168c5ae7397731d063d5bbf3d657854427343f4c083240f7aacaa2d0f6292908290030190a46131ad81600087878787613d10565b5050505050565b6001600160a01b0384166131f95760405162461bcd60e51b81526004018080602001828103825260218152602001806144fa6021913960400191505060405180910390fd5b81518351146132395760405162461bcd60e51b81526004018080602001828103825260288152602001806144d26028913960400191505060405180910390fd5b6000613243613512565b905061325481600087878787611e27565b60005b845181101561338a576002600086838151811061327057fe5b60209081029190910181015182528101919091526040016000205460ff166132d2576001600260008784815181106132a457fe5b6020026020010151815260200190815260200160002060006101000a81548160ff0219169083151502179055505b613341600160008784815181106132e557fe5b602002602001015181526020019081526020016000206000886001600160a01b03166001600160a01b031681526020019081526020016000205485838151811061332b57fe5b60200260200101516134b890919063ffffffff16565b6001600087848151811061335157fe5b602090810291909101810151825281810192909252604090810160009081206001600160a01b038b168252909252902055600101613257565b50846001600160a01b031660006001600160a01b0316826001600160a01b03167f4a39dc06d4c0dbc64b70af90fd698a233a518aa5d07e595d983b8c0526c8f7fb8787604051808060200180602001838103835285818151815260200191508051906020019060200280838360005b838110156134115781810151838201526020016133f9565b50505050905001838103825284818151815260200191508051906020019060200280838360005b83811015613450578181015183820152602001613438565b5050505090500194505050505060405180910390a46131ad816000878787876135ae565b6040805160248082018490528251808303909101815260449091019091526020810180516001600160e01b031663f5b1bba960e01b1790526134b590613f30565b50565b6000828201838110156112df576040805162461bcd60e51b815260206004820152601b60248201527f536166654d6174683a206164646974696f6e206f766572666c6f770000000000604482015290519081900360640190fd5b335b90565b600081848411156135a65760405162461bcd60e51b81526004018080602001828103825283818151815260200191508051906020019080838360005b8381101561356b578181015183820152602001613553565b50505050905090810190601f1680156135985780820380516001836020036101000a031916815260200191505b509250505060405180910390fd5b505050900390565b6135c0846001600160a01b0316613f51565b15611e2757836001600160a01b031663bc197c8187878686866040518663ffffffff1660e01b815260040180866001600160a01b03168152602001856001600160a01b03168152602001806020018060200180602001848103845287818151815260200191508051906020019060200280838360005b8381101561364e578181015183820152602001613636565b50505050905001848103835286818151815260200191508051906020019060200280838360005b8381101561368d578181015183820152602001613675565b50505050905001848103825285818151815260200191508051906020019080838360005b838110156136c95781810151838201526020016136b1565b50505050905090810190601f1680156136f65780820380516001836020036101000a031916815260200191505b5098505050505050505050602060405180830381600087803b15801561371b57600080fd5b505af192505050801561374057506040513d602081101561373b57600080fd5b505160015b6137d55761374c61414b565b80613757575061379e565b60405162461bcd60e51b815260206004820181815283516024840152835184939192839260440191908501908083836000831561356b578181015183820152602001613553565b60405162461bcd60e51b81526004018080602001828103825260348152602001806141f16034913960400191505060405180910390fd5b6001600160e01b0319811663bc197c8160e01b146138245760405162461bcd60e51b81526004018080602001828103825260288152602001806142476028913960400191505060405180910390fd5b50505050505050565b60008281526005602052604090206138459082612eaf565b15611e9757613852613512565b6001600160a01b0316816001600160a01b0316837f2f8788117e7eff1d82e926ec794901d17c78024a50270940304540a733656f0d60405160405180910390a45050565b60008281526005602052604090206138ae9082613f57565b15611e97576138bb613512565b6001600160a01b0316816001600160a01b0316837ff6391f5c32d9c69d2a47ea670b442974b53935d1edc7fd64eb21e047a839171b60405160405180910390a45050565b6001600160a01b0383166139445760405162461bcd60e51b81526004018080602001828103825260238152602001806143ef6023913960400191505060405180910390fd5b600061394e613512565b905061397e8185600061396087613ccc565b61396987613ccc565b60405180602001604052806000815250611e27565b6139c58260405180606001604052806024815260200161431b6024913960008681526001602090815260408083206001600160a01b038b1684529091529020549190613517565b60008481526001602090815260408083206001600160a01b03808a16808652918452828520959095558151888152928301879052815193949093908616927fc3d58168c5ae7397731d063d5bbf3d657854427343f4c083240f7aacaa2d0f6292908290030190a450505050565b6001600160a01b038316613a775760405162461bcd60e51b81526004018080602001828103825260238152602001806143ef6023913960400191505060405180910390fd5b8051825114613ab75760405162461bcd60e51b81526004018080602001828103825260288152602001806144d26028913960400191505060405180910390fd5b6000613ac1613512565b9050613ae181856000868660405180602001604052806000815250611e27565b60005b8351811015613bbf57613b76838281518110613afc57fe5b602002602001015160405180606001604052806024815260200161431b6024913960016000888681518110613b2d57fe5b602002602001015181526020019081526020016000206000896001600160a01b03166001600160a01b03168152602001908152602001600020546135179092919063ffffffff16565b60016000868481518110613b8657fe5b602090810291909101810151825281810192909252604090810160009081206001600160a01b038a168252909252902055600101613ae4565b5060006001600160a01b0316846001600160a01b0316826001600160a01b03167f4a39dc06d4c0dbc64b70af90fd698a233a518aa5d07e595d983b8c0526c8f7fb8686604051808060200180602001838103835285818151815260200191508051906020019060200280838360005b83811015613c46578181015183820152602001613c2e565b50505050905001838103825284818151815260200191508051906020019060200280838360005b83811015613c85578181015183820152602001613c6d565b5050505090500194505050505060405180910390a450505050565b60006112df8383613f6c565b60006112df836001600160a01b038416613fd0565b600061129482613fe8565b604080516001808252818301909252606091829190602080830190803683370190505090508281600081518110613cff57fe5b602090810291909101015292915050565b613d22846001600160a01b0316613f51565b15611e2757836001600160a01b031663f23a6e6187878686866040518663ffffffff1660e01b815260040180866001600160a01b03168152602001856001600160a01b0316815260200184815260200183815260200180602001828103825283818151815260200191508051906020019080838360005b83811015613db1578181015183820152602001613d99565b50505050905090810190601f168015613dde5780820380516001836020036101000a031916815260200191505b509650505050505050602060405180830381600087803b158015613e0157600080fd5b505af1925050508015613e2657506040513d6020811015613e2157600080fd5b505160015b613e325761374c61414b565b6001600160e01b0319811663f23a6e6160e01b146138245760405162461bcd60e51b81526004018080602001828103825260288152602001806142476028913960400191505060405180910390fd5b6000613e8d8383613fd0565b613ec357508154600181810184556000848152602080822090930184905584548482528286019093526040902091909155611294565b506000611294565b60008183613f1a5760405162461bcd60e51b815260206004820181815283516024840152835190928392604490910191908501908083836000831561356b578181015183820152602001613553565b506000838581613f2657fe5b0495945050505050565b80516a636f6e736f6c652e6c6f67602083016000808483855afa5050505050565b3b151590565b60006112df836001600160a01b038416613fec565b81546000908210613fae5760405162461bcd60e51b81526004018080602001828103825260228152602001806142256022913960400191505060405180910390fd5b826000018281548110613fbd57fe5b9060005260206000200154905092915050565b60009081526001919091016020526040902054151590565b5490565b600081815260018301602052604081205480156140a8578354600019808301919081019060009087908390811061401f57fe5b906000526020600020015490508087600001848154811061403c57fe5b60009182526020808320909101929092558281526001898101909252604090209084019055865487908061406c57fe5b60019003818190600052602060002001600090559055866001016000878152602001908152602001600020600090556001945050505050611294565b6000915050611294565b828054600181600116156101000203166002900490600052602060002090601f016020900481019282601f106140f357805160ff1916838001178555614120565b82800160010185558215614120579182015b82811115614120578251825591602001919060010190614105565b5061412c929150614130565b5090565b5b8082111561412c5760008155600101614131565b60e01c90565b600060443d101561415b57613514565b600481823e6308c379a061416f8251614145565b1461417957613514565b6040513d600319016004823e80513d67ffffffffffffffff81602484011181841117156141a95750505050613514565b828401925082519150808211156141c35750505050613514565b503d830160208284010111156141db57505050613514565b601f01601f191681016020016040529150509056fe455243313135353a207472616e7366657220746f206e6f6e2045524331313535526563656976657220696d706c656d656e746572456e756d657261626c655365743a20696e646578206f7574206f6620626f756e6473455243313135353a204552433131353552656365697665722072656a656374656420746f6b656e73416363657373436f6e74726f6c3a2073656e646572206d75737420626520616e2061646d696e20746f206772616e7473656e646572206d757374206265206f70657261746f72206f7220776f726b6572455243313135353a2062616c616e636520717565727920666f7220746865207a65726f2061646472657373455243313135353a2062617463682062616c616e636520717565727920666f7220746865207a65726f2061646472657373455243313135353a206275726e20616d6f756e7420657863656564732062616c616e6365455243313135353a2063616c6c6572206973206e6f74206f776e6572206e6f7220617070726f766564416363657373436f6e74726f6c3a2073656e646572206d75737420626520616e2061646d696e20746f207265766f6b65455243313135353a207472616e7366657220746f20746865207a65726f2061646472657373455243313135353a207472616e736665722063616c6c6572206973206e6f74206f776e6572206e6f7220617070726f766564455243313135353a206275726e2066726f6d20746865207a65726f2061646472657373455243313135353a20696e73756666696369656e742062616c616e636520666f72207472616e7366657273656e646572206d7573742068617665206174206c65617374206f6e6520746f6b656e536166654d6174683a206d756c7469706c69636174696f6e206f766572666c6f77455243313135353a2073657474696e6720617070726f76616c2073746174757320666f722073656c66455243313135353a206163636f756e747320616e6420696473206c656e677468206d69736d61746368455243313135353a2069647320616e6420616d6f756e7473206c656e677468206d69736d61746368455243313135353a206d696e7420746f20746865207a65726f2061646472657373416363657373436f6e74726f6c3a2063616e206f6e6c792072656e6f756e636520726f6c657320666f722073656c66a2646970667358221220d54d679c6925e722774b1ba9406fe957f2036f6e73ab8d89c3f35dd3ca7c3c3764736f6c63430007030033f0887ba65ee2024ea881d91b74c2450ef19e1557f03bed3ea9f16b037cbe2dc9f6e33f9720e4529cb1c710e3344dc00830589a3239198ffa39b07117085d250e",
  "linkReferences": {},
  "deployedLinkReferences": {}
}