{
  "_format": "hh-sol-artifact-1",
  "contractName": "BondingSale",
  "sourceName": "contracts/BondingSale.sol",
  "abi": [
    {
      "inputs": [
        {
          "components": [
            {
              "internalType": "address",
              "name": "facetAddress",
              "type": "address"
            },
            {
              "internalType": "enum IDiamondCut.FacetCutAction",
              "name": "action",
              "type": "uint8"
            },
            {
              "internalType": "bytes4[]",
              "name": "functionSelectors",
              "type": "bytes4[]"
            }
          ],
          "internalType": "struct IDiamondCut.FacetCut[]",
          "name": "_diamondCut",
          "type": "tuple[]"
        },
        {
          "components": [
            {
              "internalType": "address",
              "name": "gameToken",
              "type": "address"
            },
            {
              "internalType": "address",
              "name": "gameAdmin",
              "type": "address"
            },
            {
              "internalType": "address",
              "name": "gameMaster",
              "type": "address"
            },
            {
              "internalType": "address",
              "name": "feeReceiver",
              "type": "address"
            }
          ],
          "internalType": "struct BondingSale.DiamondArgs",
          "name": "_args",
          "type": "tuple"
        }
      ],
      "stateMutability": "payable",
      "type": "constructor"
    },
    {
      "anonymous": false,
      "inputs": [
        {
          "indexed": true,
          "internalType": "address",
          "name": "account",
          "type": "address"
        },
        {
          "indexed": true,
          "internalType": "address",
          "name": "operator",
          "type": "address"
        },
        {
          "indexed": false,
          "internalType": "bool",
          "name": "approved",
          "type": "bool"
        }
      ],
      "name": "ApprovalForAll",
      "type": "event"
    },
    {
      "anonymous": false,
      "inputs": [
        {
          "indexed": true,
          "internalType": "bytes32",
          "name": "role",
          "type": "bytes32"
        },
        {
          "indexed": true,
          "internalType": "bytes32",
          "name": "previousAdminRole",
          "type": "bytes32"
        },
        {
          "indexed": true,
          "internalType": "bytes32",
          "name": "newAdminRole",
          "type": "bytes32"
        }
      ],
      "name": "RoleAdminChanged",
      "type": "event"
    },
    {
      "anonymous": false,
      "inputs": [
        {
          "indexed": true,
          "internalType": "bytes32",
          "name": "role",
          "type": "bytes32"
        },
        {
          "indexed": true,
          "internalType": "address",
          "name": "account",
          "type": "address"
        },
        {
          "indexed": true,
          "internalType": "address",
          "name": "sender",
          "type": "address"
        }
      ],
      "name": "RoleGranted",
      "type": "event"
    },
    {
      "anonymous": false,
      "inputs": [
        {
          "indexed": true,
          "internalType": "bytes32",
          "name": "role",
          "type": "bytes32"
        },
        {
          "indexed": true,
          "internalType": "address",
          "name": "account",
          "type": "address"
        },
        {
          "indexed": true,
          "internalType": "address",
          "name": "sender",
          "type": "address"
        }
      ],
      "name": "RoleRevoked",
      "type": "event"
    },
    {
      "anonymous": false,
      "inputs": [
        {
          "indexed": true,
          "internalType": "address",
          "name": "to",
          "type": "address"
        },
        {
          "indexed": false,
          "internalType": "uint256",
          "name": "id",
          "type": "uint256"
        },
        {
          "indexed": false,
          "internalType": "uint256",
          "name": "pricePaid",
          "type": "uint256"
        },
        {
          "indexed": false,
          "internalType": "uint256",
          "name": "nextPrintPrice",
          "type": "uint256"
        },
        {
          "indexed": false,
          "internalType": "uint256",
          "name": "nextBurnPrice",
          "type": "uint256"
        },
        {
          "indexed": false,
          "internalType": "uint256",
          "name": "tokenSupply",
          "type": "uint256"
        },
        {
          "indexed": false,
          "internalType": "uint256",
          "name": "royaltyPaid",
          "type": "uint256"
        },
        {
          "indexed": false,
          "internalType": "uint256",
          "name": "reserve",
          "type": "uint256"
        },
        {
          "indexed": true,
          "internalType": "address",
          "name": "royaltyRecipient",
          "type": "address"
        }
      ],
      "name": "TokenBought",
      "type": "event"
    },
    {
      "anonymous": false,
      "inputs": [
        {
          "indexed": true,
          "internalType": "address",
          "name": "to",
          "type": "address"
        },
        {
          "indexed": false,
          "internalType": "uint256",
          "name": "id",
          "type": "uint256"
        },
        {
          "indexed": false,
          "internalType": "uint256",
          "name": "priceReceived",
          "type": "uint256"
        },
        {
          "indexed": false,
          "internalType": "uint256",
          "name": "nextPrintPrice",
          "type": "uint256"
        },
        {
          "indexed": false,
          "internalType": "uint256",
          "name": "nextBurnPrice",
          "type": "uint256"
        },
        {
          "indexed": false,
          "internalType": "uint256",
          "name": "printsSupply",
          "type": "uint256"
        },
        {
          "indexed": false,
          "internalType": "uint256",
          "name": "reserve",
          "type": "uint256"
        }
      ],
      "name": "TokenBurned",
      "type": "event"
    },
    {
      "anonymous": false,
      "inputs": [
        {
          "indexed": false,
          "internalType": "uint256",
          "name": "tokenId",
          "type": "uint256"
        },
        {
          "indexed": false,
          "internalType": "string",
          "name": "json",
          "type": "string"
        },
        {
          "indexed": false,
          "internalType": "uint256",
          "name": "curve",
          "type": "uint256"
        },
        {
          "indexed": false,
          "internalType": "uint256",
          "name": "multiplier",
          "type": "uint256"
        }
      ],
      "name": "TokenData",
      "type": "event"
    },
    {
      "anonymous": false,
      "inputs": [
        {
          "indexed": false,
          "internalType": "uint256",
          "name": "id",
          "type": "uint256"
        },
        {
          "indexed": false,
          "internalType": "uint256",
          "name": "date",
          "type": "uint256"
        }
      ],
      "name": "TokenOnSale",
      "type": "event"
    },
    {
      "anonymous": false,
      "inputs": [
        {
          "indexed": true,
          "internalType": "address",
          "name": "operator",
          "type": "address"
        },
        {
          "indexed": true,
          "internalType": "address",
          "name": "from",
          "type": "address"
        },
        {
          "indexed": true,
          "internalType": "address",
          "name": "to",
          "type": "address"
        },
        {
          "indexed": false,
          "internalType": "uint256[]",
          "name": "ids",
          "type": "uint256[]"
        },
        {
          "indexed": false,
          "internalType": "uint256[]",
          "name": "values",
          "type": "uint256[]"
        }
      ],
      "name": "TransferBatch",
      "type": "event"
    },
    {
      "anonymous": false,
      "inputs": [
        {
          "indexed": true,
          "internalType": "address",
          "name": "operator",
          "type": "address"
        },
        {
          "indexed": true,
          "internalType": "address",
          "name": "from",
          "type": "address"
        },
        {
          "indexed": true,
          "internalType": "address",
          "name": "to",
          "type": "address"
        },
        {
          "indexed": false,
          "internalType": "uint256",
          "name": "id",
          "type": "uint256"
        },
        {
          "indexed": false,
          "internalType": "uint256",
          "name": "value",
          "type": "uint256"
        }
      ],
      "name": "TransferSingle",
      "type": "event"
    },
    {
      "anonymous": false,
      "inputs": [
        {
          "indexed": false,
          "internalType": "string",
          "name": "value",
          "type": "string"
        },
        {
          "indexed": true,
          "internalType": "uint256",
          "name": "id",
          "type": "uint256"
        }
      ],
      "name": "URI",
      "type": "event"
    },
    {
      "stateMutability": "payable",
      "type": "fallback"
    },
    {
      "inputs": [],
      "name": "DEFAULT_ADMIN_ROLE",
      "outputs": [
        {
          "internalType": "bytes32",
          "name": "",
          "type": "bytes32"
        }
      ],
      "stateMutability": "view",
      "type": "function"
    },
    {
      "inputs": [],
      "name": "MAX_PRICE",
      "outputs": [
        {
          "internalType": "uint256",
          "name": "",
          "type": "uint256"
        }
      ],
      "stateMutability": "view",
      "type": "function"
    },
    {
      "inputs": [],
      "name": "METADATA_ADMIN",
      "outputs": [
        {
          "internalType": "bytes32",
          "name": "",
          "type": "bytes32"
        }
      ],
      "stateMutability": "view",
      "type": "function"
    },
    {
      "inputs": [
        {
          "internalType": "uint256",
          "name": "",
          "type": "uint256"
        }
      ],
      "name": "_tokenURIs",
      "outputs": [
        {
          "internalType": "string",
          "name": "",
          "type": "string"
        }
      ],
      "stateMutability": "view",
      "type": "function"
    },
    {
      "inputs": [
        {
          "internalType": "address",
          "name": "account",
          "type": "address"
        },
        {
          "internalType": "uint256",
          "name": "id",
          "type": "uint256"
        }
      ],
      "name": "balanceOf",
      "outputs": [
        {
          "internalType": "uint256",
          "name": "",
          "type": "uint256"
        }
      ],
      "stateMutability": "view",
      "type": "function"
    },
    {
      "inputs": [
        {
          "internalType": "address[]",
          "name": "accounts",
          "type": "address[]"
        },
        {
          "internalType": "uint256[]",
          "name": "ids",
          "type": "uint256[]"
        }
      ],
      "name": "balanceOfBatch",
      "outputs": [
        {
          "internalType": "uint256[]",
          "name": "",
          "type": "uint256[]"
        }
      ],
      "stateMutability": "view",
      "type": "function"
    },
    {
      "inputs": [
        {
          "internalType": "uint256",
          "name": "tokenId",
          "type": "uint256"
        }
      ],
      "name": "burn",
      "outputs": [],
      "stateMutability": "nonpayable",
      "type": "function"
    },
    {
      "inputs": [],
      "name": "burningActive",
      "outputs": [
        {
          "internalType": "bool",
          "name": "",
          "type": "bool"
        }
      ],
      "stateMutability": "view",
      "type": "function"
    },
    {
      "inputs": [
        {
          "internalType": "uint256",
          "name": "tokenId",
          "type": "uint256"
        },
        {
          "internalType": "uint256",
          "name": "maxPrice",
          "type": "uint256"
        },
        {
          "internalType": "address[]",
          "name": "path",
          "type": "address[]"
        }
      ],
      "name": "buyNFTwithERC20",
      "outputs": [],
      "stateMutability": "nonpayable",
      "type": "function"
    },
    {
      "inputs": [
        {
          "internalType": "uint256",
          "name": "tokenId",
          "type": "uint256"
        },
        {
          "internalType": "uint256",
          "name": "maxPrice",
          "type": "uint256"
        }
      ],
      "name": "buyNFTwithGAME",
      "outputs": [],
      "stateMutability": "nonpayable",
      "type": "function"
    },
    {
      "inputs": [
        {
          "internalType": "uint256",
          "name": "tokenId",
          "type": "uint256"
        },
        {
          "internalType": "uint256",
          "name": "maxPrice",
          "type": "uint256"
        },
        {
          "internalType": "address[]",
          "name": "path",
          "type": "address[]"
        }
      ],
      "name": "buyNFTwithMatic",
      "outputs": [],
      "stateMutability": "payable",
      "type": "function"
    },
    {
      "inputs": [
        {
          "internalType": "uint256",
          "name": "creatorId",
          "type": "uint256"
        },
        {
          "internalType": "string",
          "name": "json",
          "type": "string"
        },
        {
          "internalType": "uint256",
          "name": "curve",
          "type": "uint256"
        },
        {
          "internalType": "uint256",
          "name": "multiplier",
          "type": "uint256"
        }
      ],
      "name": "createToken",
      "outputs": [],
      "stateMutability": "nonpayable",
      "type": "function"
    },
    {
      "inputs": [
        {
          "internalType": "uint256",
          "name": "",
          "type": "uint256"
        }
      ],
      "name": "curves",
      "outputs": [
        {
          "internalType": "uint256",
          "name": "",
          "type": "uint256"
        }
      ],
      "stateMutability": "view",
      "type": "function"
    },
    {
      "inputs": [],
      "name": "gameAdmin",
      "outputs": [
        {
          "internalType": "contract iGAME_Game",
          "name": "",
          "type": "address"
        }
      ],
      "stateMutability": "view",
      "type": "function"
    },
    {
      "inputs": [],
      "name": "gameToken",
      "outputs": [
        {
          "internalType": "contract iGAME_ERC20",
          "name": "",
          "type": "address"
        }
      ],
      "stateMutability": "view",
      "type": "function"
    },
    {
      "inputs": [
        {
          "internalType": "uint256",
          "name": "tokenId",
          "type": "uint256"
        }
      ],
      "name": "getBuyPrice",
      "outputs": [
        {
          "internalType": "uint256",
          "name": "",
          "type": "uint256"
        }
      ],
      "stateMutability": "view",
      "type": "function"
    },
    {
      "inputs": [
        {
          "internalType": "uint256",
          "name": "tokenId",
          "type": "uint256"
        },
        {
          "internalType": "uint256",
          "name": "printNumber",
          "type": "uint256"
        }
      ],
      "name": "getPrintPrice",
      "outputs": [
        {
          "internalType": "uint256",
          "name": "",
          "type": "uint256"
        }
      ],
      "stateMutability": "view",
      "type": "function"
    },
    {
      "inputs": [
        {
          "internalType": "bytes32",
          "name": "role",
          "type": "bytes32"
        }
      ],
      "name": "getRoleAdmin",
      "outputs": [
        {
          "internalType": "bytes32",
          "name": "",
          "type": "bytes32"
        }
      ],
      "stateMutability": "view",
      "type": "function"
    },
    {
      "inputs": [
        {
          "internalType": "bytes32",
          "name": "role",
          "type": "bytes32"
        },
        {
          "internalType": "uint256",
          "name": "index",
          "type": "uint256"
        }
      ],
      "name": "getRoleMember",
      "outputs": [
        {
          "internalType": "address",
          "name": "",
          "type": "address"
        }
      ],
      "stateMutability": "view",
      "type": "function"
    },
    {
      "inputs": [
        {
          "internalType": "bytes32",
          "name": "role",
          "type": "bytes32"
        }
      ],
      "name": "getRoleMemberCount",
      "outputs": [
        {
          "internalType": "uint256",
          "name": "",
          "type": "uint256"
        }
      ],
      "stateMutability": "view",
      "type": "function"
    },
    {
      "inputs": [
        {
          "internalType": "uint256",
          "name": "tokenId",
          "type": "uint256"
        }
      ],
      "name": "getSellPrice",
      "outputs": [
        {
          "internalType": "uint256",
          "name": "",
          "type": "uint256"
        }
      ],
      "stateMutability": "view",
      "type": "function"
    },
    {
      "inputs": [
        {
          "internalType": "uint256",
          "name": "_creatorID",
          "type": "uint256"
        },
        {
          "internalType": "uint256",
          "name": "token",
          "type": "uint256"
        }
      ],
      "name": "getTokenID",
      "outputs": [
        {
          "internalType": "uint256",
          "name": "",
          "type": "uint256"
        }
      ],
      "stateMutability": "view",
      "type": "function"
    },
    {
      "inputs": [
        {
          "internalType": "bytes32",
          "name": "role",
          "type": "bytes32"
        },
        {
          "internalType": "address",
          "name": "account",
          "type": "address"
        }
      ],
      "name": "grantRole",
      "outputs": [],
      "stateMutability": "nonpayable",
      "type": "function"
    },
    {
      "inputs": [
        {
          "internalType": "uint256",
          "name": "id",
          "type": "uint256"
        }
      ],
      "name": "hasMinted",
      "outputs": [
        {
          "internalType": "bool",
          "name": "",
          "type": "bool"
        }
      ],
      "stateMutability": "view",
      "type": "function"
    },
    {
      "inputs": [
        {
          "internalType": "bytes32",
          "name": "role",
          "type": "bytes32"
        },
        {
          "internalType": "address",
          "name": "account",
          "type": "address"
        }
      ],
      "name": "hasRole",
      "outputs": [
        {
          "internalType": "bool",
          "name": "",
          "type": "bool"
        }
      ],
      "stateMutability": "view",
      "type": "function"
    },
    {
      "inputs": [
        {
          "internalType": "address",
          "name": "account",
          "type": "address"
        },
        {
          "internalType": "address",
          "name": "operator",
          "type": "address"
        }
      ],
      "name": "isApprovedForAll",
      "outputs": [
        {
          "internalType": "bool",
          "name": "",
          "type": "bool"
        }
      ],
      "stateMutability": "view",
      "type": "function"
    },
    {
      "inputs": [],
      "name": "mintingActive",
      "outputs": [
        {
          "internalType": "bool",
          "name": "",
          "type": "bool"
        }
      ],
      "stateMutability": "view",
      "type": "function"
    },
    {
      "inputs": [
        {
          "internalType": "uint256",
          "name": "",
          "type": "uint256"
        }
      ],
      "name": "multipliers",
      "outputs": [
        {
          "internalType": "uint256",
          "name": "",
          "type": "uint256"
        }
      ],
      "stateMutability": "view",
      "type": "function"
    },
    {
      "inputs": [
        {
          "internalType": "uint256",
          "name": "",
          "type": "uint256"
        }
      ],
      "name": "nextTokenIDs",
      "outputs": [
        {
          "internalType": "uint256",
          "name": "",
          "type": "uint256"
        }
      ],
      "stateMutability": "view",
      "type": "function"
    },
    {
      "inputs": [
        {
          "internalType": "bytes32",
          "name": "role",
          "type": "bytes32"
        },
        {
          "internalType": "address",
          "name": "account",
          "type": "address"
        }
      ],
      "name": "renounceRole",
      "outputs": [],
      "stateMutability": "nonpayable",
      "type": "function"
    },
    {
      "inputs": [
        {
          "internalType": "bytes32",
          "name": "role",
          "type": "bytes32"
        },
        {
          "internalType": "address",
          "name": "account",
          "type": "address"
        }
      ],
      "name": "revokeRole",
      "outputs": [],
      "stateMutability": "nonpayable",
      "type": "function"
    },
    {
      "inputs": [
        {
          "internalType": "address",
          "name": "from",
          "type": "address"
        },
        {
          "internalType": "address",
          "name": "to",
          "type": "address"
        },
        {
          "internalType": "uint256[]",
          "name": "ids",
          "type": "uint256[]"
        },
        {
          "internalType": "uint256[]",
          "name": "amounts",
          "type": "uint256[]"
        },
        {
          "internalType": "bytes",
          "name": "data",
          "type": "bytes"
        }
      ],
      "name": "safeBatchTransferFrom",
      "outputs": [],
      "stateMutability": "nonpayable",
      "type": "function"
    },
    {
      "inputs": [
        {
          "internalType": "address",
          "name": "from",
          "type": "address"
        },
        {
          "internalType": "address",
          "name": "to",
          "type": "address"
        },
        {
          "internalType": "uint256",
          "name": "id",
          "type": "uint256"
        },
        {
          "internalType": "uint256",
          "name": "amount",
          "type": "uint256"
        },
        {
          "internalType": "bytes",
          "name": "data",
          "type": "bytes"
        }
      ],
      "name": "safeTransferFrom",
      "outputs": [],
      "stateMutability": "nonpayable",
      "type": "function"
    },
    {
      "inputs": [
        {
          "internalType": "uint256",
          "name": "",
          "type": "uint256"
        }
      ],
      "name": "saleStarts",
      "outputs": [
        {
          "internalType": "uint256",
          "name": "",
          "type": "uint256"
        }
      ],
      "stateMutability": "view",
      "type": "function"
    },
    {
      "inputs": [
        {
          "internalType": "address",
          "name": "operator",
          "type": "address"
        },
        {
          "internalType": "bool",
          "name": "approved",
          "type": "bool"
        }
      ],
      "name": "setApprovalForAll",
      "outputs": [],
      "stateMutability": "nonpayable",
      "type": "function"
    },
    {
      "inputs": [
        {
          "internalType": "string",
          "name": "newuri",
          "type": "string"
        }
      ],
      "name": "setBaseURI",
      "outputs": [],
      "stateMutability": "nonpayable",
      "type": "function"
    },
    {
      "inputs": [
        {
          "internalType": "address",
          "name": "a",
          "type": "address"
        }
      ],
      "name": "setFEERECEIVER",
      "outputs": [],
      "stateMutability": "nonpayable",
      "type": "function"
    },
    {
      "inputs": [
        {
          "internalType": "uint256",
          "name": "tokenId",
          "type": "uint256"
        },
        {
          "internalType": "uint256",
          "name": "onSaleDate",
          "type": "uint256"
        }
      ],
      "name": "setTokenOnSaleDate",
      "outputs": [],
      "stateMutability": "nonpayable",
      "type": "function"
    },
    {
      "inputs": [
        {
          "internalType": "string",
          "name": "newuri",
          "type": "string"
        },
        {
          "internalType": "uint256",
          "name": "id",
          "type": "uint256"
        }
      ],
      "name": "setURI",
      "outputs": [],
      "stateMutability": "nonpayable",
      "type": "function"
    },
    {
      "inputs": [
        {
          "internalType": "address",
          "name": "uniswapRouter_",
          "type": "address"
        }
      ],
      "name": "setUniswapRouter",
      "outputs": [],
      "stateMutability": "nonpayable",
      "type": "function"
    },
    {
      "inputs": [
        {
          "internalType": "bytes4",
          "name": "interfaceId",
          "type": "bytes4"
        }
      ],
      "name": "supportsInterface",
      "outputs": [
        {
          "internalType": "bool",
          "name": "",
          "type": "bool"
        }
      ],
      "stateMutability": "view",
      "type": "function"
    },
    {
      "inputs": [],
      "name": "toggleTokenBurning",
      "outputs": [],
      "stateMutability": "nonpayable",
      "type": "function"
    },
    {
      "inputs": [],
      "name": "toggleTokenMinting",
      "outputs": [],
      "stateMutability": "nonpayable",
      "type": "function"
    },
    {
      "inputs": [
        {
          "internalType": "uint256",
          "name": "",
          "type": "uint256"
        }
      ],
      "name": "tokenSupply",
      "outputs": [
        {
          "internalType": "uint256",
          "name": "",
          "type": "uint256"
        }
      ],
      "stateMutability": "view",
      "type": "function"
    },
    {
      "inputs": [],
      "name": "uniswapRouter",
      "outputs": [
        {
          "internalType": "contract IUniswapV2Router02",
          "name": "",
          "type": "address"
        }
      ],
      "stateMutability": "view",
      "type": "function"
    },
    {
      "inputs": [
        {
          "internalType": "uint256",
          "name": "tokenId",
          "type": "uint256"
        },
        {
          "internalType": "string",
          "name": "json",
          "type": "string"
        },
        {
          "internalType": "uint256",
          "name": "curve",
          "type": "uint256"
        },
        {
          "internalType": "uint256",
          "name": "multiplier",
          "type": "uint256"
        }
      ],
      "name": "updateTokenData",
      "outputs": [],
      "stateMutability": "nonpayable",
      "type": "function"
    },
    {
      "inputs": [
        {
          "internalType": "uint256",
          "name": "tokenid",
          "type": "uint256"
        }
      ],
      "name": "uri",
      "outputs": [
        {
          "internalType": "string",
          "name": "",
          "type": "string"
        }
      ],
      "stateMutability": "view",
      "type": "function"
    }
  ],
  "bytecode": "0x6080604052670de0b6b3a76400006009556003600a556ec097ce7bc90715b34b9f1000000000600c5560405162007034380380620070348339810160408190526200004a9162001172565b6040805180820190915260048152631d195cdd60e21b6020820152620000776301ffc9a760e01b6200027c565b62000089636cdb3d1360e11b6200027c565b6200009b6303a24d0760e21b6200027c565b620000b16000620000ab620002d7565b62000337565b620000e07ff6e33f9720e4529cb1c710e3344dc00830589a3239198ffa39b07117085d250e620000ab620002d7565b8051620000f590600690602084019062000fa9565b5050600160085560408051600080825260208201909252620001249184916200034760201b6200278b1760201c565b60006200013b620004fe60201b6200290e1760201c565b8251600e80546001600160a01b03199081166001600160a01b0393841617909155602080860151600f8054841691851691909117905560408087015160048601805485169186169190911790556060870151600d805490941694169390931790915581518083019092526001808352603160f81b92909101918252919250620001ca9160078401919062000fa9565b506040805180820190915260108082526f47414d4520426f6e646564204e46547360801b60209092019182526200020691600884019162000fa9565b506301ffc9a760e01b600090815260039091016020526040808220805460ff1990811660019081179092556307e4c70760e21b845282842080548216831790556348e2b09360e01b845282842080548216831790556307f5828d60e41b8452919092208054909116909117905550620018339050565b6001600160e01b03198082161415620002b25760405162461bcd60e51b8152600401620002a990620014d9565b60405180910390fd5b6001600160e01b0319166000908152602081905260409020805460ff19166001179055565b600033301415620003315760606000368080601f0160208091040260200160405190810160405280939291908181526020018383808284376000920191909152505050503601516001600160a01b03169150620003349050565b50335b90565b62000343828262000522565b5050565b60005b8351811015620004af5760008482815181106200036357fe5b6020026020010151602001519050600060028111156200037f57fe5b8160028111156200038c57fe5b1415620003db57620003d5858381518110620003a457fe5b602002602001015160000151868481518110620003bd57fe5b6020026020010151604001516200059d60201b60201c565b620004a5565b6001816002811115620003ea57fe5b14156200043357620003d58583815181106200040257fe5b6020026020010151600001518684815181106200041b57fe5b602002602001015160400151620007b060201b60201c565b60028160028111156200044257fe5b14156200048b57620003d58583815181106200045a57fe5b6020026020010151600001518684815181106200047357fe5b602002602001015160400151620009da60201b60201c565b60405162461bcd60e51b8152600401620002a9906200156d565b506001016200034a565b507f8faa70878671ccd212d20771b795c50af8fd3ff6cf27f4bde57e5d4de0aeb673838383604051620004e593929190620012e6565b60405180910390a1620004f9828262000aa1565b505050565b7fc8fcad8db84d3cc18b4c41d551ea0ee66dd599cde068d998e57d5e09332c131c90565b6000828152600560209081526040909120620005499183906200293262000bdb821b17901c565b15620003435762000559620002d7565b6001600160a01b0316816001600160a01b0316837f2f8788117e7eff1d82e926ec794901d17c78024a50270940304540a733656f0d60405160405180910390a45050565b6000815111620005c15760405162461bcd60e51b8152600401620002a9906200148e565b6000620005cd620004fe565b90506001600160a01b038316620005f85760405162461bcd60e51b8152600401620002a990620015b4565b6001600160a01b038316600090815260018201602052604090205461ffff81166200069e576200064284604051806060016040528060248152602001620070106024913962000bfb565b6002820180546001600160a01b038616600081815260018087016020908152604083208201805461ffff191661ffff90961695909517909455845490810185559381529190912090910180546001600160a01b03191690911790555b60005b8351811015620007a9576000848281518110620006ba57fe5b6020908102919091018101516001600160e01b031981166000908152918690526040909120549091506001600160a01b031680156200070d5760405162461bcd60e51b8152600401620002a990620016ab565b506001600160a01b0386166000818152600186810160209081526040808420805480850182559085528285206008820401805463ffffffff60079093166004026101000a928302191660e089901c929092029190911790556001600160e01b0319909516835287905292902080546001600160a01b03191690911761ffff60a01b1916600160a01b61ffff8616021790559182019101620006a1565b5050505050565b6000815111620007d45760405162461bcd60e51b8152600401620002a9906200148e565b6000620007e0620004fe565b90506001600160a01b0383166200080b5760405162461bcd60e51b8152600401620002a990620015b4565b6001600160a01b038316600090815260018201602052604090205461ffff8116620008b1576200085584604051806060016040528060248152602001620070106024913962000bfb565b6002820180546001600160a01b038616600081815260018087016020908152604083208201805461ffff191661ffff90961695909517909455845490810185559381529190912090910180546001600160a01b03191690911790555b60005b8351811015620007a9576000848281518110620008cd57fe5b6020908102919091018101516001600160e01b031981166000908152918690526040909120549091506001600160a01b03908116908716811415620009265760405162461bcd60e51b8152600401620002a99062001708565b62000932818362000c1f565b506001600160e01b03198116600081815260208681526040808320805461ffff60a01b1916600160a01b61ffff8a16021781556001600160a01b038b168085526001808b018552928520805480850182559086528486206008820401805463ffffffff60079093166004026101000a928302191660e09990991c91909102979097179096559390925286905281546001600160a01b03191690921790559182019101620008b4565b6000815111620009fe5760405162461bcd60e51b8152600401620002a9906200148e565b600062000a0a620004fe565b90506001600160a01b0383161562000a365760405162461bcd60e51b8152600401620002a99062001765565b60005b825181101562000a9b57600083828151811062000a5257fe5b6020908102919091018101516001600160e01b031981166000908152918590526040909120549091506001600160a01b031662000a90818362000c1f565b505060010162000a39565b50505050565b6001600160a01b03821662000ad85780511562000ad25760405162461bcd60e51b8152600401620002a990620013eb565b62000343565b600081511162000afc5760405162461bcd60e51b8152600401620002a99062001600565b6001600160a01b038216301462000b325762000b328260405180606001604052806028815260200162006fe86028913962000bfb565b60006060836001600160a01b03168360405162000b509190620012c8565b600060405180830381855af49150503d806000811462000b8d576040519150601f19603f3d011682016040523d82523d6000602084013e62000b92565b606091505b50915091508162000a9b5780511562000bc1578060405162461bcd60e51b8152600401620002a99190620013d6565b60405162461bcd60e51b8152600401620002a99062001448565b600062000bf2836001600160a01b03841662000f42565b90505b92915050565b813b818162000a9b5760405162461bcd60e51b8152600401620002a99190620013d6565b600062000c2b620004fe565b90506001600160a01b03831662000c565760405162461bcd60e51b8152600401620002a99062001510565b6001600160a01b03831630141562000c825760405162461bcd60e51b8152600401620002a9906200165d565b6001600160e01b03198216600090815260208281526040808320546001600160a01b03871684526001850190925290912054600160a01b90910461ffff16906000190180821462000da6576001600160a01b0385166000908152600184016020526040812080548390811062000cf457fe5b600091825260208083206008830401546001600160a01b038a168452600188019091526040909220805460079092166004026101000a90920460e01b92508291908590811062000d4057fe5b600091825260208083206008830401805463ffffffff60079094166004026101000a938402191660e09590951c929092029390931790556001600160e01b031992909216825284905260409020805461ffff60a01b1916600160a01b61ffff8516021790555b6001600160a01b0385166000908152600184016020526040902080548062000dca57fe5b60008281526020808220600860001990940193840401805463ffffffff600460078716026101000a0219169055919092556001600160e01b0319861682528490526040902080546001600160b01b031916905580620007a95760028301546001600160a01b03861660009081526001858101602052604090912001546000199091019061ffff1680821462000ee257600085600201838154811062000e6b57fe5b6000918252602090912001546002870180546001600160a01b03909216925082918490811062000e9757fe5b600091825260208083209190910180546001600160a01b0319166001600160a01b0394851617905592909116815260018781019092526040902001805461ffff191661ffff83161790555b8460020180548062000ef057fe5b60008281526020808220830160001990810180546001600160a01b03191690559092019092556001600160a01b03891682526001878101909152604090912001805461ffff1916905550505050505050565b600062000f50838362000f91565b62000f885750815460018181018455600084815260208082209093018490558454848252828601909352604090209190915562000bf5565b50600062000bf5565b60009081526001919091016020526040902054151590565b828054600181600116156101000203166002900490600052602060002090601f016020900481019282601f1062000fec57805160ff19168380011785556200101c565b828001600101855582156200101c579182015b828111156200101c57825182559160200191906001019062000fff565b506200102a9291506200102e565b5090565b5b808211156200102a57600081556001016200102f565b80516001600160a01b03811681146200105d57600080fd5b919050565b600082601f83011262001073578081fd5b81516200108a6200108482620017e6565b620017c2565b818152915060208083019084810181840286018201871015620010ac57600080fd5b6000805b85811015620010e45782516001600160e01b031981168114620010d1578283fd5b85529383019391830191600101620010b0565b50505050505092915050565b60006080828403121562001102578081fd5b604051608081016001600160401b03811182821017156200111f57fe5b604052905080620011308362001045565b8152620011406020840162001045565b6020820152620011536040840162001045565b6040820152620011666060840162001045565b60608201525092915050565b60008060a0838503121562001185578182fd5b82516001600160401b03808211156200119c578384fd5b818501915085601f830112620011b0578384fd5b8151620011c16200108482620017e6565b81815260208082019190858101885b858110156200126b57815188016060818e03601f19011215620011f1578a8bfd5b604051606081018181108a821117156200120757fe5b6040526200121782860162001045565b81526040820151600381106200122b578c8dfd5b8186015260608201518981111562001241578c8dfd5b620012518f878386010162001062565b6040830152508652509382019390820190600101620011d0565b50508197506200127e8a828b01620010f0565b96505050505050509250929050565b6001600160a01b03169052565b60008151808452620012b481602086016020860162001804565b601f01601f19169290920160200192915050565b60008251620012dc81846020870162001804565b9190910192915050565b606080825284518282018190526000919060809081850190602080820287018401818b01875b84811015620013a357898303607f19018652815180516001600160a01b031684528481015189850190600381106200134057fe5b858701526040918201519185018a9052815190819052908501908a90898601905b808310156200138d5783516001600160e01b031916825292870192600192909201919087019062001361565b509786019794505050908301906001016200130c565b5050620013b38289018b6200128d565b8781036040890152620013c7818a6200129a565b9b9a5050505050505050505050565b60006020825262000bf260208301846200129a565b6020808252603c908201527f4c69624469616d6f6e644375743a205f696e697420697320616464726573732860408201527f3029206275745f63616c6c64617461206973206e6f7420656d70747900000000606082015260800190565b60208082526026908201527f4c69624469616d6f6e644375743a205f696e69742066756e6374696f6e2072656040820152651d995c9d195960d21b606082015260800190565b6020808252602b908201527f4c69624469616d6f6e644375743a204e6f2073656c6563746f727320696e206660408201526a1858d95d081d1bc818dd5d60aa1b606082015260800190565b6020808252601c908201527f4552433136353a20696e76616c696420696e7465726661636520696400000000604082015260600190565b60208082526037908201527f4c69624469616d6f6e644375743a2043616e27742072656d6f76652066756e6360408201527f74696f6e207468617420646f65736e2774206578697374000000000000000000606082015260800190565b60208082526027908201527f4c69624469616d6f6e644375743a20496e636f727265637420466163657443756040820152663a20b1ba34b7b760c91b606082015260800190565b6020808252602c908201527f4c69624469616d6f6e644375743a204164642066616365742063616e2774206260408201526b65206164647265737328302960a01b606082015260800190565b6020808252603d908201527f4c69624469616d6f6e644375743a205f63616c6c6461746120697320656d707460408201527f7920627574205f696e6974206973206e6f742061646472657373283029000000606082015260800190565b6020808252602e908201527f4c69624469616d6f6e644375743a2043616e27742072656d6f766520696d6d7560408201526d3a30b1363290333ab731ba34b7b760911b606082015260800190565b60208082526035908201527f4c69624469616d6f6e644375743a2043616e2774206164642066756e6374696f60408201527f6e207468617420616c7265616479206578697374730000000000000000000000606082015260800190565b60208082526038908201527f4c69624469616d6f6e644375743a2043616e2774207265706c6163652066756e60408201527f6374696f6e20776974682073616d652066756e6374696f6e0000000000000000606082015260800190565b60208082526036908201527f4c69624469616d6f6e644375743a2052656d6f7665206661636574206164647260408201527f657373206d757374206265206164647265737328302900000000000000000000606082015260800190565b6040518181016001600160401b0381118282101715620017de57fe5b604052919050565b60006001600160401b03821115620017fa57fe5b5060209081020190565b60005b838110156200182157818101518382015260200162001807565b8381111562000a9b5750506000910152565b6157a580620018436000396000f3fe6080604052600436106102875760003560e01c806342966c681161015a578063b1de303e116100c1578063d547741f1161007a578063d547741f14610809578063e5b9559514610829578063e6d65b0014610849578063e985e9c514610869578063ec79825714610889578063f242432a146108a957610287565b8063b1de303e1461075f578063ba730e5314610774578063bc097d7914610794578063bea9849e146107b4578063c3dfdae6146107d4578063ca15c873146107e957610287565b80638160ed6c116101135780638160ed6c146106b75780639010d07c146106ca57806391d14854146106ea578063a217fddf1461070a578063a22cb4651461071f578063ac7fc2631461073f57610287565b806342966c68146105f35780634e1273f41461061357806355f804b31461064057806367db3b8f14610660578063735de9f71461068057806376adcba5146106a257610287565b80631d84003f116101fe5780632eb2c2d6116101b75780632eb2c2d61461053e5780632f2ff15d1461055e57806331f9c9191461057e57806336568abe146105935780633a42ab55146105b35780633f897300146105d357610287565b80631d84003f1461049457806321c7cf4d146104b4578063248a9ca3146104c957806326150e95146104e95780632693ebf2146104fe5780632b606d2c1461051e57610287565b80630bb78ec1116102505780630bb78ec1146103d25780630e89341c146103ff5780631490185c1461041f578063186d44321461043f5780631bf7d7491461045f5780631c7c25981461047f57610287565b8062fdd58e1461031857806301c11d961461034e57806301ffc9a71461036357806308d4db14146103905780630b7e9ca8146103b0575b600080356001600160e01b03191681527fc8fcad8db84d3cc18b4c41d551ea0ee66dd599cde068d998e57d5e09332c131c602081905260409091205481906001600160a01b0316806102f45760405162461bcd60e51b81526004016102eb90614ede565b60405180910390fd5b3660008037600080366000845af43d6000803e808015610313573d6000f35b3d6000fd5b34801561032457600080fd5b50610338610333366004614167565b6108c9565b6040516103459190614858565b60405180910390f35b34801561035a57600080fd5b5061033861091c565b34801561036f57600080fd5b5061038361037e366004614356565b610922565b604051610345919061484d565b34801561039c57600080fd5b506103386103ab3660046142fb565b610945565b3480156103bc57600080fd5b506103d06103cb366004614335565b610968565b005b3480156103de57600080fd5b506103f26103ed3660046142fb565b610add565b6040516103459190614861565b34801561040b57600080fd5b506103f261041a3660046142fb565b610b78565b34801561042b57600080fd5b5061033861043a366004614335565b610c9e565b34801561044b57600080fd5b506103d061045a366004614335565b610ca9565b34801561046b57600080fd5b5061033861047a3660046142fb565b610e3e565b34801561048b57600080fd5b50610383610e50565b3480156104a057600080fd5b506103d06104af366004613fde565b610e59565b3480156104c057600080fd5b506103d0610e91565b3480156104d557600080fd5b506103386104e43660046142fb565b610ebb565b3480156104f557600080fd5b506103d0610ed0565b34801561050a57600080fd5b506103386105193660046142fb565b610f03565b34801561052a57600080fd5b50610338610539366004614335565b610f15565b34801561054a57600080fd5b506103d061055936600461402a565b610fbc565b34801561056a57600080fd5b506103d0610579366004614313565b6111d6565b34801561058a57600080fd5b5061038361121e565b34801561059f57600080fd5b506103d06105ae366004614313565b61122c565b3480156105bf57600080fd5b506103d06105ce366004614476565b61126e565b3480156105df57600080fd5b506103386105ee3660046142fb565b611826565b3480156105ff57600080fd5b506103d061060e3660046142fb565b611838565b34801561061f57600080fd5b5061063361062e366004614190565b611a18565b604051610345919061480c565b34801561064c57600080fd5b506103d061065b36600461438e565b611b57565b34801561066c57600080fd5b506103d061067b3660046143c8565b611b9f565b34801561068c57600080fd5b50610695611bf8565b604051610345919061463d565b3480156106ae57600080fd5b50610695611c07565b6103d06106c5366004614476565b611c16565b3480156106d657600080fd5b506106956106e5366004614335565b612018565b3480156106f657600080fd5b50610383610705366004614313565b612030565b34801561071657600080fd5b50610338612048565b34801561072b57600080fd5b506103d061073a366004614131565b61204d565b34801561074b57600080fd5b5061033861075a3660046142fb565b61211b565b34801561076b57600080fd5b5061033861212d565b34801561078057600080fd5b5061033861078f3660046142fb565b612151565b3480156107a057600080fd5b506103d06107af366004614422565b612174565b3480156107c057600080fd5b506103d06107cf366004613fde565b612333565b3480156107e057600080fd5b5061069561236b565b3480156107f557600080fd5b506103386108043660046142fb565b61237a565b34801561081557600080fd5b506103d0610824366004614313565b612391565b34801561083557600080fd5b506103836108443660046142fb565b6123cb565b34801561085557600080fd5b506103d0610864366004614422565b6123e0565b34801561087557600080fd5b50610383610884366004613ff8565b6125b7565b34801561089557600080fd5b506103386108a43660046142fb565b6125e5565b3480156108b557600080fd5b506103d06108c43660046140cf565b6125f7565b60006001600160a01b0383166108f15760405162461bcd60e51b81526004016102eb90614a88565b5060008181526001602090815260408083206001600160a01b03861684529091529020545b92915050565b600c5481565b6001600160e01b0319811660009081526020819052604090205460ff165b919050565b6000818152601360205260408120546109618360018301610f15565b9392505050565b610971826123cb565b1561098e5760405162461bcd60e51b81526004016102eb90614d8f565b6000828152601160205260409020546109b95760405162461bcd60e51b81526004016102eb90614c71565b600060095483816109c657fe5b600f5491900491506001600160a01b0316634ba3d748826109e5612947565b6040518363ffffffff1660e01b8152600401610a02929190615463565b602060405180830381600087803b158015610a1c57600080fd5b505af1158015610a30573d6000803e3d6000fd5b505050506040513d601f19601f82011682018060405250810190610a5491906142df565b1515600114610a755760405162461bcd60e51b81526004016102eb90615171565b4282108015610a845750600082115b15610a8d574291505b60008381526012602052604090819020839055517f6ce538f9e575f548476b624a738c3bc0bdf1ec4e465cacb3f7c67bef3926e20e90610ad090859085906154f7565b60405180910390a1505050565b60076020908152600091825260409182902080548351601f600260001961010060018616150201909316929092049182018490048402810184019094528084529091830182828015610b705780601f10610b4557610100808354040283529160200191610b70565b820191906000526020600020905b815481529060010190602001808311610b5357829003601f168201915b505050505081565b6000818152600760209081526040918290208054835160026001831615610100026000190190921691909104601f81018490048402820184019094528381526060938493919291830182828015610c105780601f10610be557610100808354040283529160200191610c10565b820191906000526020600020905b815481529060010190602001808311610bf357829003601f168201915b505060065493945050505060026000196101006001841615020190911604610c39579050610940565b805115610c6b57600681604051602001610c549291906145bc565b604051602081830303815290604052915050610940565b6006610c76846129a5565b604051602001610c879291906145bc565b604051602081830303815290604052915050919050565b600954919091020190565b600b548290610100900460ff16610cd25760405162461bcd60e51b81526004016102eb906153e5565b60008181526012602052604090205442118015610cfc575060008181526012602052604090205415155b610d185760405162461bcd60e51b81526004016102eb90614d58565b4360166000610d25612947565b6001600160a01b03166001600160a01b031681526020019081526020016000205410610d5057600080fd5b4360166000610d5d612947565b6001600160a01b03166001600160a01b03168152602001908152602001600020819055506000610d8b612947565b90506000610d9885610945565b9050600081118015610daa5750838111155b610dc65760405162461bcd60e51b81526004016102eb90614eb7565b600e5460405163e2b8e7d360e01b81526001600160a01b039091169063e2b8e7d390610dfa90859030908690600401614651565b600060405180830381600087803b158015610e1457600080fd5b505af1158015610e28573d6000803e3d6000fd5b50505050610e37858284612a7f565b5050505050565b60116020526000908152604090205481565b600b5460ff1681565b610e666000610705612947565b610e6f57600080fd5b600d80546001600160a01b0319166001600160a01b0392909216919091179055565b610e9e6000610705612947565b610ea757600080fd5b600b805460ff19811660ff90911615179055565b60009081526005602052604090206002015490565b610edd6000610705612947565b610ee657600080fd5b600b805461ff001981166101009182900460ff1615909102179055565b60136020526000908152604090205481565b6000828152601160209081526040808320546014909252822054600a8054900a603284610f53600986900a610f4d60038a0a86612cb2565b90612cec565b9050610f6d610f6686610f4d8a87612cb2565b8290612d2e565b9050610f7c610f668385612cb2565b9050610f986103e8610f4d86610f92858a612cec565b90612cb2565b9050610fb083610f4d83670de0b6b3a7640000612cb2565b98975050505050505050565b8151835114610fdd5760405162461bcd60e51b81526004016102eb906152f7565b6001600160a01b0384166110035760405162461bcd60e51b81526004016102eb90614f13565b61100b612947565b6001600160a01b0316856001600160a01b03161480611031575061103185610884612947565b61104d5760405162461bcd60e51b81526004016102eb90614f58565b6000611057612947565b90506110678187878787876111ce565b60005b845181101561116857600085828151811061108157fe5b60200260200101519050600085838151811061109957fe5b60200260200101519050611106816040518060600160405280602a8152602001615746602a91396001600086815260200190815260200160002060008d6001600160a01b03166001600160a01b0316815260200190815260200160002054612d539092919063ffffffff16565b60008381526001602090815260408083206001600160a01b038e811685529252808320939093558a168152205461113d9082612d2e565b60009283526001602081815260408086206001600160a01b038d16875290915290932055500161106a565b50846001600160a01b0316866001600160a01b0316826001600160a01b03167f4a39dc06d4c0dbc64b70af90fd698a233a518aa5d07e595d983b8c0526c8f7fb87876040516111b892919061481f565b60405180910390a46111ce818787878787612d7f565b505050505050565b6000828152600560205260409020600201546111f490610705612947565b6112105760405162461bcd60e51b81526004016102eb906149f5565b61121a8282612e96565b5050565b600b54610100900460ff1681565b611234612947565b6001600160a01b0316816001600160a01b0316146112645760405162461bcd60e51b81526004016102eb90615414565b61121a8282612eff565b600260085414156112915760405162461bcd60e51b81526004016102eb90615380565b6002600855600b548490610100900460ff166112bf5760405162461bcd60e51b81526004016102eb906153e5565b600081815260126020526040902054421180156112e9575060008181526012602052604090205415155b6113055760405162461bcd60e51b81526004016102eb90614d58565b4360166000611312612947565b6001600160a01b03166001600160a01b03168152602001908152602001600020541061133d57600080fd5b436016600061134a612947565b6001600160a01b031681526020810191909152604001600020556001821180156113ab5750600e546001600160a01b03168383600019810181811061138b57fe5b90506020020160208101906113a09190613fde565b6001600160a01b0316145b6113c75760405162461bcd60e51b81526004016102eb90614e45565b60006113d1612947565b905060006113de87610945565b6010546040516307c0329d60e21b81529192506060916001600160a01b0390911690631f00ca74906114189085908a908a9060040161547a565b60006040518083038186803b15801561143057600080fd5b505afa158015611444573d6000803e3d6000fd5b505050506040513d6000823e601f3d908101601f1916820160405261146c9190810190614250565b905060008160008151811061147d57fe5b60200260200101511180156114a65750868160008151811061149b57fe5b602002602001015111155b6114c25760405162461bcd60e51b81526004016102eb90614eb7565b858560008181106114cf57fe5b90506020020160208101906114e49190613fde565b6001600160a01b03166323b872dd84308460008151811061150157fe5b60200260200101516040518463ffffffff1660e01b815260040161152793929190614651565b602060405180830381600087803b15801561154157600080fd5b505af1158015611555573d6000803e3d6000fd5b505050506040513d601f19601f8201168201806040525081019061157991906142df565b61158257600080fd5b8585600081811061158f57fe5b90506020020160208101906115a49190613fde565b60105482516001600160a01b039283169263095ea7b392169084906000906115c857fe5b60200260200101516040518363ffffffff1660e01b81526004016115ed92919061470c565b602060405180830381600087803b15801561160757600080fd5b505af115801561161b573d6000803e3d6000fd5b505050506040513d601f19601f8201168201806040525081019061163f91906142df565b61164857600080fd5b60105481516060916001600160a01b031690638803dbee908590859060009061166d57fe5b60200260200101518a8a30426064016040518763ffffffff1660e01b815260040161169d96959493929190615505565b600060405180830381600087803b1580156116b757600080fd5b505af11580156116cb573d6000803e3d6000fd5b505050506040513d6000823e601f3d908101601f191682016040526116f39190810190614250565b90508160008151811061170257fe5b60200260200101518160008151811061171757fe5b6020026020010151101561180b578686600081811061173257fe5b90506020020160208101906117479190613fde565b6001600160a01b03166323b872dd30866117928560008151811061176757fe5b60200260200101518760008151811061177c57fe5b6020026020010151612f6890919063ffffffff16565b6040518463ffffffff1660e01b81526004016117b093929190614651565b602060405180830381600087803b1580156117ca57600080fd5b505af11580156117de573d6000803e3d6000fd5b505050506040513d601f19601f8201168201806040525081019061180291906142df565b61180b57600080fd5b611816898486612a7f565b5050600160085550505050505050565b60156020526000908152604090205481565b600b5460ff1661185a5760405162461bcd60e51b81526004016102eb90614dc6565b600161186d611867612947565b836108c9565b101561188b5760405162461bcd60e51b81526004016102eb90615098565b600061189682612151565b6000838152601360205260409020805460001901905590506118c16118b9612947565b836001612faa565b6118c9612947565b6001600160a01b03167f7f189ad2df0843ce2bba34028497b567ecb15a53dbfb381e8b7a3f1d5ca87d7183836118fe86610945565b61190787612151565b6000888152601360205260409081902054600e5491516370a0823160e01b815290916001600160a01b0316906370a082319061194790309060040161463d565b60206040518083038186803b15801561195f57600080fd5b505afa158015611973573d6000803e3d6000fd5b505050506040513d601f19601f82011682018060405250810190611997919061440a565b6040516119a996959493929190615543565b60405180910390a2600e546001600160a01b031663e2b8e7d3306119cb612947565b846040518463ffffffff1660e01b81526004016119ea93929190614651565b600060405180830381600087803b158015611a0457600080fd5b505af11580156111ce573d6000803e3d6000fd5b60608151835114611a3b5760405162461bcd60e51b81526004016102eb906152ae565b606083516001600160401b0381118015611a5457600080fd5b50604051908082528060200260200182016040528015611a7e578160200160208202803683370190505b50905060005b8451811015611b4f5760006001600160a01b0316858281518110611aa457fe5b60200260200101516001600160a01b03161415611ad35760405162461bcd60e51b81526004016102eb90614ad3565b60016000858381518110611ae357fe5b602002602001015181526020019081526020016000206000868381518110611b0757fe5b60200260200101516001600160a01b03166001600160a01b0316815260200190815260200160002054828281518110611b3c57fe5b6020908102919091010152600101611a84565b509392505050565b611b837ff6e33f9720e4529cb1c710e3344dc00830589a3239198ffa39b07117085d250e610705612947565b611b8c57600080fd5b805161121a906006906020840190613e60565b611bcb7ff6e33f9720e4529cb1c710e3344dc00830589a3239198ffa39b07117085d250e610705612947565b611bd457600080fd5b60008181526007602090815260409091208351611bf392850190613e60565b505050565b6010546001600160a01b031681565b600f546001600160a01b031681565b60026008541415611c395760405162461bcd60e51b81526004016102eb90615380565b6002600855600b548490610100900460ff16611c675760405162461bcd60e51b81526004016102eb906153e5565b60008181526012602052604090205442118015611c91575060008181526012602052604090205415155b611cad5760405162461bcd60e51b81526004016102eb90614d58565b4360166000611cba612947565b6001600160a01b03166001600160a01b031681526020019081526020016000205410611ce557600080fd5b4360166000611cf2612947565b6001600160a01b03168152602081019190915260400160002055600182118015611d535750600e546001600160a01b031683836000198101818110611d3357fe5b9050602002016020810190611d489190613fde565b6001600160a01b0316145b611d6f5760405162461bcd60e51b81526004016102eb90614e45565b6000611d79612947565b90506000611d8687610945565b6010546040516307c0329d60e21b81529192506060916001600160a01b0390911690631f00ca7490611dc09085908a908a9060040161547a565b60006040518083038186803b158015611dd857600080fd5b505afa158015611dec573d6000803e3d6000fd5b505050506040513d6000823e601f3d908101601f19168201604052611e149190810190614250565b9050600081600081518110611e2557fe5b6020026020010151118015611e4e57508681600081518110611e4357fe5b602002602001015111155b611e6a5760405162461bcd60e51b81526004016102eb90614eb7565b80600081518110611e7757fe5b6020026020010151341015611e9e5760405162461bcd60e51b81526004016102eb90614a44565b60105481516060916001600160a01b03169063fb3bdb41908490600090611ec157fe5b6020026020010151858a8a30426064016040518763ffffffff1660e01b8152600401611ef1959493929190615494565b6000604051808303818588803b158015611f0a57600080fd5b505af1158015611f1e573d6000803e3d6000fd5b50505050506040513d6000823e601f3d908101601f19168201604052611f479190810190614250565b90503481600081518110611f5757fe5b6020026020010151101561180b57611f94611f8f82600081518110611f7857fe5b602002602001015134612f6890919063ffffffff16565b6130c0565b6000846001600160a01b0316611fb083600081518110611f7857fe5b604051611fbc906129a2565b60006040518083038185875af1925050503d8060008114611ff9576040519150601f19603f3d011682016040523d82523d6000602084013e611ffe565b606091505b505090508061200c57600080fd5b50611816898486612a7f565b60008281526005602052604081206109619083613106565b60008281526005602052604081206109619083613112565b600081565b816001600160a01b031661205f612947565b6001600160a01b031614156120865760405162461bcd60e51b81526004016102eb90615265565b8060036000612093612947565b6001600160a01b03908116825260208083019390935260409182016000908120918716808252919093529120805460ff1916921515929092179091556120d7612947565b6001600160a01b03167f17307eab39ab6107e8899845ad3d59bd9653f200f220920489ca2b5937696c318360405161210f919061484d565b60405180910390a35050565b60146020526000908152604090205481565b7ff6e33f9720e4529cb1c710e3344dc00830589a3239198ffa39b07117085d250e81565b6000818152601360205260408120546109616064610f4d605a610f928786610f15565b6000848152601560205260409020805460010190819055620f424081106121ad5760405162461bcd60e51b81526004016102eb906153b7565b6000831180156121be575060148311155b80156121ca5750600082115b80156121d95750620f42408211155b6121f55760405162461bcd60e51b81526004016102eb90614b24565b60018451116122165760405162461bcd60e51b81526004016102eb90614c9c565b600f546001600160a01b0316634ba3d74886612230612947565b6040518363ffffffff1660e01b815260040161224d929190615463565b602060405180830381600087803b15801561226757600080fd5b505af115801561227b573d6000803e3d6000fd5b505050506040513d601f19601f8201168201806040525081019061229f91906142df565b15156001146122c05760405162461bcd60e51b81526004016102eb90615171565b60006122cc8683610c9e565b6000818152601160209081526040808320889055601490915290819020859055519091507f855f2403a3717b569ca6483cb3250554954ef4734871df9005e45eb9bffce8cf906123239083908890889088906154cb565b60405180910390a1505050505050565b6123406000610705612947565b61234957600080fd5b601080546001600160a01b0319166001600160a01b0392909216919091179055565b600e546001600160a01b031681565b600081815260056020526040812061091690613127565b6000828152600560205260409020600201546123af90610705612947565b6112645760405162461bcd60e51b81526004016102eb90614df5565b60009081526002602052604090205460ff1690565b600060095485816123ed57fe5b0490506123f9856123cb565b156124165760405162461bcd60e51b81526004016102eb90614d8f565b600f546001600160a01b0316634ba3d74882612430612947565b6040518363ffffffff1660e01b815260040161244d929190615463565b602060405180830381600087803b15801561246757600080fd5b505af115801561247b573d6000803e3d6000fd5b505050506040513d601f19601f8201168201806040525081019061249f91906142df565b15156001146124c05760405162461bcd60e51b81526004016102eb90615171565b6000831180156124d1575060148311155b80156124dd5750600082115b80156124ec5750620f42408211155b6125085760405162461bcd60e51b81526004016102eb90614c3a565b60018451116125295760405162461bcd60e51b81526004016102eb90614c9c565b6000858152601160205260409020546125545760405162461bcd60e51b81526004016102eb90614c71565b6000858152601160209081526040808320869055601490915290819020839055517f855f2403a3717b569ca6483cb3250554954ef4734871df9005e45eb9bffce8cf906125a89087908790879087906154cb565b60405180910390a15050505050565b6001600160a01b03918216600090815260036020908152604080832093909416825291909152205460ff1690565b60126020526000908152604090205481565b6001600160a01b03841661261d5760405162461bcd60e51b81526004016102eb90614f13565b612625612947565b6001600160a01b0316856001600160a01b0316148061264b575061264b85610884612947565b6126675760405162461bcd60e51b81526004016102eb90614cc8565b6000612671612947565b905061269181878761268288613132565b61268b88613132565b876111ce565b6126d8836040518060600160405280602a8152602001615746602a913960008781526001602090815260408083206001600160a01b038d1684529091529020549190612d53565b60008581526001602090815260408083206001600160a01b038b8116855292528083209390935587168152205461270f9084612d2e565b60008581526001602090815260408083206001600160a01b03808b168086529190935292819020939093559151909188811691908416907fc3d58168c5ae7397731d063d5bbf3d657854427343f4c083240f7aacaa2d0f629061277590899089906154f7565b60405180910390a46111ce818787878787613176565b60005b83518110156128c85760008482815181106127a557fe5b6020026020010151602001519050600060028111156127c057fe5b8160028111156127cc57fe5b141561280f5761280a8583815181106127e157fe5b6020026020010151600001518684815181106127f957fe5b602002602001015160400151613247565b6128bf565b600181600281111561281d57fe5b141561285b5761280a85838151811061283257fe5b60200260200101516000015186848151811061284a57fe5b602002602001015160400151613441565b600281600281111561286957fe5b14156128a75761280a85838151811061287e57fe5b60200260200101516000015186848151811061289657fe5b602002602001015160400151613657565b60405162461bcd60e51b81526004016102eb90614d11565b5060010161278e565b507f8faa70878671ccd212d20771b795c50af8fd3ff6cf27f4bde57e5d4de0aeb6738383836040516128fc93929190614725565b60405180910390a1611bf38282613711565b7fc8fcad8db84d3cc18b4c41d551ea0ee66dd599cde068d998e57d5e09332c131c90565b6000610961836001600160a01b038416613835565b60003330141561299f5760606000368080601f0160208091040260200160405190810160405280939291908181526020018383808284376000920191909152505050503601516001600160a01b031691506129a29050565b50335b90565b6060816129ca57506040805180820190915260018152600360fc1b6020820152610940565b8160005b81156129e257600101600a820491506129ce565b6060816001600160401b03811180156129fa57600080fd5b506040519080825280601f01601f191660200182016040528015612a25576020820181803683370190505b50859350905060001982015b8315612a7657600a840660300160f81b82828060019003935081518110612a5457fe5b60200101906001600160f81b031916908160001a905350600a84049350612a31565b50949350505050565b60006009548481612a8c57fe5b0490506000612a9c846032612cec565b90506000612aab826004612cb2565b6000878152601360209081526040808320805460019081019091558151928301909152918152919250612ae1918691899161387f565b826001600160a01b0316846001600160a01b03167fa8f60c2735df0121f6c1fb70fdc37e927e3b21f7266de2beeace3ed35b8634d08888612b218b610945565b612b2a8c612151565b60008d8152601360205260409081902054600e5491516370a0823160e01b815290918a916001600160a01b03909116906370a0823190612b6e90309060040161463d565b60206040518083038186803b158015612b8657600080fd5b505afa158015612b9a573d6000803e3d6000fd5b505050506040513d601f19601f82011682018060405250810190612bbe919061440a565b604051612bd1979695949392919061556b565b60405180910390a3600e54600d5460405163e2b8e7d360e01b81526001600160a01b039283169263e2b8e7d392612c12923092909116908790600401614651565b600060405180830381600087803b158015612c2c57600080fd5b505af1158015612c40573d6000803e3d6000fd5b5050600e5460405163e2b8e7d360e01b81526001600160a01b03909116925063e2b8e7d39150612c7890309087908690600401614651565b600060405180830381600087803b158015612c9257600080fd5b505af1158015612ca6573d6000803e3d6000fd5b50505050505050505050565b600082612cc157506000610916565b82820282848281612cce57fe5b04146109615760405162461bcd60e51b81526004016102eb906150db565b600061096183836040518060400160405280601a81526020017f536166654d6174683a206469766973696f6e206279207a65726f000000000000815250613993565b6000828201838110156109615760405162461bcd60e51b81526004016102eb90614c03565b60008184841115612d775760405162461bcd60e51b81526004016102eb9190614861565b505050900390565b612d91846001600160a01b03166139ca565b156111ce5760405163bc197c8160e01b81526001600160a01b0385169063bc197c8190612dca9089908990889088908890600401614675565b602060405180830381600087803b158015612de457600080fd5b505af1925050508015612e14575060408051601f3d908101601f19168201909252612e1191810190614372565b60015b612e5d57612e2061560d565b80612e2b5750612e45565b8060405162461bcd60e51b81526004016102eb9190614861565b60405162461bcd60e51b81526004016102eb90614874565b6001600160e01b0319811663bc197c8160e01b14612e8d5760405162461bcd60e51b81526004016102eb90614967565b50505050505050565b6000828152600560205260409020612eae9082612932565b1561121a57612ebb612947565b6001600160a01b0316816001600160a01b0316837f2f8788117e7eff1d82e926ec794901d17c78024a50270940304540a733656f0d60405160405180910390a45050565b6000828152600560205260409020612f1790826139d0565b1561121a57612f24612947565b6001600160a01b0316816001600160a01b0316837ff6391f5c32d9c69d2a47ea670b442974b53935d1edc7fd64eb21e047a839171b60405160405180910390a45050565b600061096183836040518060400160405280601e81526020017f536166654d6174683a207375627472616374696f6e206f766572666c6f770000815250612d53565b6001600160a01b038316612fd05760405162461bcd60e51b81526004016102eb90615007565b6000612fda612947565b905061300a81856000612fec87613132565b612ff587613132565b604051806020016040528060008152506111ce565b613051826040518060600160405280602481526020016156d66024913960008681526001602090815260408083206001600160a01b038b1684529091529020549190612d53565b60008481526001602090815260408083206001600160a01b03808a16808652919093528184209490945551919291908416907fc3d58168c5ae7397731d063d5bbf3d657854427343f4c083240f7aacaa2d0f62906130b290889088906154f7565b60405180910390a450505050565b613103816040516024016130d49190614858565b60408051601f198184030181529190526020810180516001600160e01b031663f5b1bba960e01b1790526139e5565b50565b60006109618383613a06565b6000610961836001600160a01b038416613a4b565b600061091682613a63565b60408051600180825281830190925260609182919060208083019080368337019050509050828160008151811061316557fe5b602090810291909101015292915050565b613188846001600160a01b03166139ca565b156111ce5760405163f23a6e6160e01b81526001600160a01b0385169063f23a6e61906131c190899089908890889088906004016146c7565b602060405180830381600087803b1580156131db57600080fd5b505af192505050801561320b575060408051601f3d908101601f1916820190925261320891810190614372565b60015b61321757612e2061560d565b6001600160e01b0319811663f23a6e6160e01b14612e8d5760405162461bcd60e51b81526004016102eb90614967565b60008151116132685760405162461bcd60e51b81526004016102eb90614b5b565b600061327261290e565b90506001600160a01b03831661329a5760405162461bcd60e51b81526004016102eb90614e6b565b6001600160a01b038316600090815260018201602052604090205461ffff811661333c576132e08460405180606001604052806024815260200161572260249139613a67565b6002820180546001600160a01b038616600081815260018087016020908152604083208201805461ffff191661ffff90961695909517909455845490810185559381529190912090910180546001600160a01b03191690911790555b60005b8351811015610e3757600084828151811061335657fe5b6020908102919091018101516001600160e01b031981166000908152918690526040909120549091506001600160a01b031680156133a65760405162461bcd60e51b81526004016102eb9061511c565b506001600160a01b0386166000818152600186810160209081526040808420805480850182559085528285206008820401805463ffffffff60079093166004026101000a928302191660e089901c929092029190911790556001600160e01b0319909516835287905292902080546001600160a01b03191690911761ffff60a01b1916600160a01b61ffff861602179055918201910161333f565b60008151116134625760405162461bcd60e51b81526004016102eb90614b5b565b600061346c61290e565b90506001600160a01b0383166134945760405162461bcd60e51b81526004016102eb90614e6b565b6001600160a01b038316600090815260018201602052604090205461ffff8116613536576134da8460405180606001604052806024815260200161572260249139613a67565b6002820180546001600160a01b038616600081815260018087016020908152604083208201805461ffff191661ffff90961695909517909455845490810185559381529190912090910180546001600160a01b03191690911790555b60005b8351811015610e3757600084828151811061355057fe5b6020908102919091018101516001600160e01b031981166000908152918690526040909120549091506001600160a01b039081169087168114156135a65760405162461bcd60e51b81526004016102eb906151b2565b6135b08183613a88565b506001600160e01b03198116600081815260208681526040808320805461ffff60a01b1916600160a01b61ffff8a16021781556001600160a01b038b168085526001808b018552928520805480850182559086528486206008820401805463ffffffff60079093166004026101000a928302191660e09990991c91909102979097179096559390925286905281546001600160a01b03191690921790559182019101613539565b60008151116136785760405162461bcd60e51b81526004016102eb90614b5b565b600061368261290e565b90506001600160a01b038316156136ab5760405162461bcd60e51b81526004016102eb9061520f565b60005b825181101561370b5760008382815181106136c557fe5b6020908102919091018101516001600160e01b031981166000908152918590526040909120549091506001600160a01b03166137018183613a88565b50506001016136ae565b50505050565b6001600160a01b0382166137435780511561373e5760405162461bcd60e51b81526004016102eb9061490a565b61121a565b60008151116137645760405162461bcd60e51b81526004016102eb90614faa565b6001600160a01b038216301461379657613796826040518060600160405280602881526020016156fa60289139613a67565b60006060836001600160a01b0316836040516137b291906145a0565b600060405180830381855af49150503d80600081146137ed576040519150601f19603f3d011682016040523d82523d6000602084013e6137f2565b606091505b50915091508161370b5780511561381d578060405162461bcd60e51b81526004016102eb9190614861565b60405162461bcd60e51b81526004016102eb906149af565b60006138418383613a4b565b61387757508154600181810184556000848152602080822090930184905584548482528286019093526040902091909155610916565b506000610916565b6001600160a01b0384166138a55760405162461bcd60e51b81526004016102eb9061533f565b60008381526002602052604090205460ff166138d5576000838152600260205260409020805460ff191660011790555b60006138df612947565b90506138f18160008761268288613132565b60008481526001602090815260408083206001600160a01b038916845290915290205461391e9084612d2e565b60008581526001602090815260408083206001600160a01b03808b16808652919093528184209490945551908416907fc3d58168c5ae7397731d063d5bbf3d657854427343f4c083240f7aacaa2d0f629061397c90899089906154f7565b60405180910390a4610e3781600087878787613176565b600081836139b45760405162461bcd60e51b81526004016102eb9190614861565b5060008385816139c057fe5b0495945050505050565b3b151590565b6000610961836001600160a01b038416613d9a565b80516a636f6e736f6c652e6c6f67602083016000808483855afa5050505050565b81546000908210613a295760405162461bcd60e51b81526004016102eb906148c8565b826000018281548110613a3857fe5b9060005260206000200154905092915050565b60009081526001919091016020526040902054151590565b5490565b813b818161370b5760405162461bcd60e51b81526004016102eb9190614861565b6000613a9261290e565b90506001600160a01b038316613aba5760405162461bcd60e51b81526004016102eb90614ba6565b6001600160a01b038316301415613ae35760405162461bcd60e51b81526004016102eb9061504a565b6001600160e01b03198216600090815260208281526040808320546001600160a01b03871684526001850190925290912054600160a01b90910461ffff169060001901808214613c04576001600160a01b03851660009081526001840160205260408120805483908110613b5357fe5b600091825260208083206008830401546001600160a01b038a168452600188019091526040909220805460079092166004026101000a90920460e01b925082919085908110613b9e57fe5b600091825260208083206008830401805463ffffffff60079094166004026101000a938402191660e09590951c929092029390931790556001600160e01b031992909216825284905260409020805461ffff60a01b1916600160a01b61ffff8516021790555b6001600160a01b03851660009081526001840160205260409020805480613c2757fe5b60008281526020808220600860001990940193840401805463ffffffff600460078716026101000a0219169055919092556001600160e01b0319861682528490526040902080546001600160b01b031916905580610e375760028301546001600160a01b03861660009081526001858101602052604090912001546000199091019061ffff16808214613d3b576000856002018381548110613cc557fe5b6000918252602090912001546002870180546001600160a01b039092169250829184908110613cf057fe5b600091825260208083209190910180546001600160a01b0319166001600160a01b0394851617905592909116815260018781019092526040902001805461ffff191661ffff83161790555b84600201805480613d4857fe5b60008281526020808220830160001990810180546001600160a01b03191690559092019092556001600160a01b03891682526001878101909152604090912001805461ffff1916905550505050505050565b60008181526001830160205260408120548015613e565783546000198083019190810190600090879083908110613dcd57fe5b9060005260206000200154905080876000018481548110613dea57fe5b600091825260208083209091019290925582815260018981019092526040902090840190558654879080613e1a57fe5b60019003818190600052602060002001600090559055866001016000878152602001908152602001600020600090556001945050505050610916565b6000915050610916565b828054600181600116156101000203166002900490600052602060002090601f016020900481019282601f10613ea157805160ff1916838001178555613ece565b82800160010185558215613ece579182015b82811115613ece578251825591602001919060010190613eb3565b50613eda929150613ede565b5090565b5b80821115613eda5760008155600101613edf565b80356001600160a01b038116811461094057600080fd5b600082601f830112613f1a578081fd5b8135613f2d613f28826155be565b61559b565b818152915060208083019084810181840286018201871015613f4e57600080fd5b60005b84811015613f6d57813584529282019290820190600101613f51565b505050505092915050565b600082601f830112613f88578081fd5b81356001600160401b03811115613f9b57fe5b613fae601f8201601f191660200161559b565b9150808252836020828501011115613fc557600080fd5b8060208401602084013760009082016020015292915050565b600060208284031215613fef578081fd5b61096182613ef3565b6000806040838503121561400a578081fd5b61401383613ef3565b915061402160208401613ef3565b90509250929050565b600080600080600060a08688031215614041578081fd5b61404a86613ef3565b945061405860208701613ef3565b935060408601356001600160401b0380821115614073578283fd5b61407f89838a01613f0a565b94506060880135915080821115614094578283fd5b6140a089838a01613f0a565b935060808801359150808211156140b5578283fd5b506140c288828901613f78565b9150509295509295909350565b600080600080600060a086880312156140e6578081fd5b6140ef86613ef3565b94506140fd60208701613ef3565b9350604086013592506060860135915060808601356001600160401b03811115614125578182fd5b6140c288828901613f78565b60008060408385031215614143578182fd5b61414c83613ef3565b9150602083013561415c816156b1565b809150509250929050565b60008060408385031215614179578182fd5b61418283613ef3565b946020939093013593505050565b600080604083850312156141a2578182fd5b82356001600160401b03808211156141b8578384fd5b818501915085601f8301126141cb578384fd5b81356141d9613f28826155be565b80828252602080830192508086018a8283870289010111156141f9578889fd5b8896505b848710156142225761420e81613ef3565b8452600196909601959281019281016141fd565b509096508701359350505080821115614239578283fd5b5061424685828601613f0a565b9150509250929050565b60006020808385031215614262578182fd5b82516001600160401b03811115614277578283fd5b8301601f81018513614287578283fd5b8051614295613f28826155be565b81815283810190838501858402850186018910156142b1578687fd5b8694505b838510156142d35780518352600194909401939185019185016142b5565b50979650505050505050565b6000602082840312156142f0578081fd5b8151610961816156b1565b60006020828403121561430c578081fd5b5035919050565b60008060408385031215614325578182fd5b8235915061402160208401613ef3565b60008060408385031215614347578182fd5b50508035926020909101359150565b600060208284031215614367578081fd5b8135610961816156bf565b600060208284031215614383578081fd5b8151610961816156bf565b60006020828403121561439f578081fd5b81356001600160401b038111156143b4578182fd5b6143c084828501613f78565b949350505050565b600080604083850312156143da578182fd5b82356001600160401b038111156143ef578283fd5b6143fb85828601613f78565b95602094909401359450505050565b60006020828403121561441b578081fd5b5051919050565b60008060008060808587031215614437578182fd5b8435935060208501356001600160401b03811115614453578283fd5b61445f87828801613f78565b949794965050505060408301359260600135919050565b6000806000806060858703121561448b578182fd5b843593506020850135925060408501356001600160401b03808211156144af578384fd5b818701915087601f8301126144c2578384fd5b8135818111156144d0578485fd5b88602080830285010111156144e3578485fd5b95989497505060200194505050565b6001600160a01b03169052565b60008284526020808501945082825b8581101561453a576001600160a01b0361452783613ef3565b168752958201959082019060010161450e565b509495945050505050565b6000815180845260208085019450808401835b8381101561453a57815187529582019590820190600101614558565b6000815180845261458c8160208601602086016155db565b601f01601f19169290920160200192915050565b600082516145b28184602087016155db565b9190910192915050565b60008084546001808216600081146145db57600181146145f257614621565b60ff198316865260028304607f1686019350614621565b600283048886526020808720875b838110156146195781548a820152908501908201614600565b505050860193505b50505083516146348183602088016155db565b01949350505050565b6001600160a01b0391909116815260200190565b6001600160a01b039384168152919092166020820152604081019190915260600190565b6001600160a01b0386811682528516602082015260a0604082018190526000906146a190830186614545565b82810360608401526146b38186614545565b90508281036080840152610fb08185614574565b6001600160a01b03868116825285166020820152604081018490526060810183905260a06080820181905260009061470190830184614574565b979650505050505050565b6001600160a01b03929092168252602082015260400190565b606080825284518282018190526000919060809081850190602080820287018401818b01875b848110156147dd57898303607f19018652815180516001600160a01b0316845284810151898501906003811061477d57fe5b858701526040918201519185018a9052815190819052908501908a90898601905b808310156147c85783516001600160e01b031916825292870192600192909201919087019061479e565b5097860197945050509083019060010161474b565b50506147eb8289018b6144f2565b87810360408901526147fd818a614574565b9b9a5050505050505050505050565b6000602082526109616020830184614545565b6000604082526148326040830185614545565b82810360208401526148448185614545565b95945050505050565b901515815260200190565b90815260200190565b6000602082526109616020830184614574565b60208082526034908201527f455243313135353a207472616e7366657220746f206e6f6e20455243313135356040820152732932b1b2b4bb32b91034b6b83632b6b2b73a32b960611b606082015260800190565b60208082526022908201527f456e756d657261626c655365743a20696e646578206f7574206f6620626f756e604082015261647360f01b606082015260800190565b6020808252603c908201527f4c69624469616d6f6e644375743a205f696e697420697320616464726573732860408201527f3029206275745f63616c6c64617461206973206e6f7420656d70747900000000606082015260800190565b60208082526028908201527f455243313135353a204552433131353552656365697665722072656a656374656040820152676420746f6b656e7360c01b606082015260800190565b60208082526026908201527f4c69624469616d6f6e644375743a205f696e69742066756e6374696f6e2072656040820152651d995c9d195960d21b606082015260800190565b6020808252602f908201527f416363657373436f6e74726f6c3a2073656e646572206d75737420626520616e60408201526e0818591b5a5b881d1bc819dc985b9d608a1b606082015260800190565b60208082526024908201527f6275794e4654776974684d617469633a2076616c7565206973206e6f7420656e6040820152630deeaced60e31b606082015260800190565b6020808252602b908201527f455243313135353a2062616c616e636520717565727920666f7220746865207a60408201526a65726f206164647265737360a81b606082015260800190565b60208082526031908201527f455243313135353a2062617463682062616c616e636520717565727920666f7260408201527020746865207a65726f206164647265737360781b606082015260800190565b6020808252601d908201527f696e76616c696420637572766520616e64206d756c7469706c69657273000000604082015260600190565b6020808252602b908201527f4c69624469616d6f6e644375743a204e6f2073656c6563746f727320696e206660408201526a1858d95d081d1bc818dd5d60aa1b606082015260800190565b60208082526037908201527f4c69624469616d6f6e644375743a2043616e27742072656d6f76652066756e6360408201527f74696f6e207468617420646f65736e2774206578697374000000000000000000606082015260800190565b6020808252601b908201527f536166654d6174683a206164646974696f6e206f766572666c6f770000000000604082015260600190565b6020808252601c908201527f696e76616c6964206375727665206f72206d756c7469706c6965727300000000604082015260600190565b60208082526011908201527018dd5c9d99481b5d5cdd081899481cd95d607a1b604082015260600190565b6020808252601290820152711a9cdbdb881b5d5cdd081b9bdb881b9d5b1b60721b604082015260600190565b60208082526029908201527f455243313135353a2063616c6c6572206973206e6f74206f776e6572206e6f7260408201526808185c1c1c9bdd995960ba1b606082015260800190565b60208082526027908201527f4c69624469616d6f6e644375743a20496e636f727265637420466163657443756040820152663a20b1ba34b7b760c91b606082015260800190565b60208082526018908201527f73616c6520686173206e6f742073746172746564207965740000000000000000604082015260600190565b60208082526019908201527f746f6b656e20686173206e6f74206265656e206d696e74656400000000000000604082015260600190565b6020808252601590820152746275726e696e67206973206e6f742061637469766560581b604082015260600190565b60208082526030908201527f416363657373436f6e74726f6c3a2073656e646572206d75737420626520616e60408201526f2061646d696e20746f207265766f6b6560801b606082015260800190565b6020808252600c908201526b0d2dcecc2d8d2c840e0c2e8d60a31b604082015260600190565b6020808252602c908201527f4c69624469616d6f6e644375743a204164642066616365742063616e2774206260408201526b65206164647265737328302960a01b606082015260800190565b6020808252600d908201526c696e76616c696420707269636560981b604082015260600190565b6020808252818101527f4469616d6f6e643a2046756e6374696f6e20646f6573206e6f74206578697374604082015260600190565b60208082526025908201527f455243313135353a207472616e7366657220746f20746865207a65726f206164604082015264647265737360d81b606082015260800190565b60208082526032908201527f455243313135353a207472616e736665722063616c6c6572206973206e6f74206040820152711bdddb995c881b9bdc88185c1c1c9bdd995960721b606082015260800190565b6020808252603d908201527f4c69624469616d6f6e644375743a205f63616c6c6461746120697320656d707460408201527f7920627574205f696e6974206973206e6f742061646472657373283029000000606082015260800190565b60208082526023908201527f455243313135353a206275726e2066726f6d20746865207a65726f206164647260408201526265737360e81b606082015260800190565b6020808252602e908201527f4c69624469616d6f6e644375743a2043616e27742072656d6f766520696d6d7560408201526d3a30b1363290333ab731ba34b7b760911b606082015260800190565b60208082526023908201527f73656e646572206d7573742068617665206174206c65617374206f6e6520746f60408201526235b2b760e91b606082015260800190565b60208082526021908201527f536166654d6174683a206d756c7469706c69636174696f6e206f766572666c6f6040820152607760f81b606082015260800190565b60208082526035908201527f4c69624469616d6f6e644375743a2043616e2774206164642066756e6374696f6040820152746e207468617420616c72656164792065786973747360581b606082015260800190565b60208082526021908201527f73656e646572206d757374206265206f70657261746f72206f72206d696e696f6040820152603760f91b606082015260800190565b60208082526038908201527f4c69624469616d6f6e644375743a2043616e2774207265706c6163652066756e60408201527f6374696f6e20776974682073616d652066756e6374696f6e0000000000000000606082015260800190565b60208082526036908201527f4c69624469616d6f6e644375743a2052656d6f76652066616365742061646472604082015275657373206d757374206265206164647265737328302960501b606082015260800190565b60208082526029908201527f455243313135353a2073657474696e6720617070726f76616c20737461747573604082015268103337b91039b2b63360b91b606082015260800190565b60208082526029908201527f455243313135353a206163636f756e747320616e6420696473206c656e677468604082015268040dad2e6dac2e8c6d60bb1b606082015260800190565b60208082526028908201527f455243313135353a2069647320616e6420616d6f756e7473206c656e677468206040820152670dad2e6dac2e8c6d60c31b606082015260800190565b60208082526021908201527f455243313135353a206d696e7420746f20746865207a65726f206164647265736040820152607360f81b606082015260800190565b6020808252601f908201527f5265656e7472616e637947756172643a207265656e7472616e742063616c6c00604082015260600190565b60208082526014908201527306d617820746f6b656e206f6620313030303030360641b604082015260600190565b6020808252601590820152746d696e74696e67206973206e6f742061637469766560581b604082015260600190565b6020808252602f908201527f416363657373436f6e74726f6c3a2063616e206f6e6c792072656e6f756e636560408201526e103937b632b9903337b91039b2b63360891b606082015260800190565b9182526001600160a01b0316602082015260400190565b6000848252604060208301526148446040830184866144ff565b6000868252608060208301526154ae6080830186886144ff565b6001600160a01b0394909416604083015250606001529392505050565b6000858252608060208301526154e46080830186614574565b6040830194909452506060015292915050565b918252602082015260400190565b600087825286602083015260a0604083015261552560a0830186886144ff565b6001600160a01b039490941660608301525060800152949350505050565b958652602086019490945260408501929092526060840152608083015260a082015260c00190565b968752602087019590955260408601939093526060850191909152608084015260a083015260c082015260e00190565b6040518181016001600160401b03811182821017156155b657fe5b604052919050565b60006001600160401b038211156155d157fe5b5060209081020190565b60005b838110156155f65781810151838201526020016155de565b8381111561370b5750506000910152565b60e01c90565b600060443d101561561d576129a2565b600481823e6308c379a06156318251615607565b1461563b576129a2565b6040513d600319016004823e80513d6001600160401b03816024840111818411171561566a57505050506129a2565b8284019250825191508082111561568457505050506129a2565b503d8301602082840101111561569c575050506129a2565b601f01601f1916810160200160405291505090565b801515811461310357600080fd5b6001600160e01b03198116811461310357600080fdfe455243313135353a206275726e20616d6f756e7420657863656564732062616c616e63654c69624469616d6f6e644375743a205f696e6974206164647265737320686173206e6f20636f64654c69624469616d6f6e644375743a204e657720666163657420686173206e6f20636f6465455243313135353a20696e73756666696369656e742062616c616e636520666f72207472616e73666572a264697066735822122042f3c5a3d908fd385aa6c68d40fdc2d32721a277aba956229f290789a683a79664736f6c634300070300334c69624469616d6f6e644375743a205f696e6974206164647265737320686173206e6f20636f64654c69624469616d6f6e644375743a204e657720666163657420686173206e6f20636f6465",
  "linkReferences": {},
  "deployedLinkReferences": {}
}