{
  "_format": "hh-sol-artifact-1",
  "contractName": "BondingSale",
  "sourceName": "contracts/BondingSale.sol",
  "abi": [
    {
      "inputs": [
        {
          "components": [
            {
              "internalType": "address",
              "name": "facetAddress",
              "type": "address"
            },
            {
              "internalType": "enum IDiamondCut.FacetCutAction",
              "name": "action",
              "type": "uint8"
            },
            {
              "internalType": "bytes4[]",
              "name": "functionSelectors",
              "type": "bytes4[]"
            }
          ],
          "internalType": "struct IDiamondCut.FacetCut[]",
          "name": "_diamondCut",
          "type": "tuple[]"
        },
        {
          "components": [
            {
              "internalType": "address",
              "name": "gameToken",
              "type": "address"
            },
            {
              "internalType": "address",
              "name": "gameAdmin",
              "type": "address"
            },
            {
              "internalType": "address",
              "name": "gameMaster",
              "type": "address"
            }
          ],
          "internalType": "struct BondingSale.DiamondArgs",
          "name": "_args",
          "type": "tuple"
        }
      ],
      "stateMutability": "payable",
      "type": "constructor"
    },
    {
      "anonymous": false,
      "inputs": [
        {
          "indexed": true,
          "internalType": "address",
          "name": "account",
          "type": "address"
        },
        {
          "indexed": true,
          "internalType": "address",
          "name": "operator",
          "type": "address"
        },
        {
          "indexed": false,
          "internalType": "bool",
          "name": "approved",
          "type": "bool"
        }
      ],
      "name": "ApprovalForAll",
      "type": "event"
    },
    {
      "anonymous": false,
      "inputs": [
        {
          "indexed": true,
          "internalType": "bytes32",
          "name": "role",
          "type": "bytes32"
        },
        {
          "indexed": true,
          "internalType": "bytes32",
          "name": "previousAdminRole",
          "type": "bytes32"
        },
        {
          "indexed": true,
          "internalType": "bytes32",
          "name": "newAdminRole",
          "type": "bytes32"
        }
      ],
      "name": "RoleAdminChanged",
      "type": "event"
    },
    {
      "anonymous": false,
      "inputs": [
        {
          "indexed": true,
          "internalType": "bytes32",
          "name": "role",
          "type": "bytes32"
        },
        {
          "indexed": true,
          "internalType": "address",
          "name": "account",
          "type": "address"
        },
        {
          "indexed": true,
          "internalType": "address",
          "name": "sender",
          "type": "address"
        }
      ],
      "name": "RoleGranted",
      "type": "event"
    },
    {
      "anonymous": false,
      "inputs": [
        {
          "indexed": true,
          "internalType": "bytes32",
          "name": "role",
          "type": "bytes32"
        },
        {
          "indexed": true,
          "internalType": "address",
          "name": "account",
          "type": "address"
        },
        {
          "indexed": true,
          "internalType": "address",
          "name": "sender",
          "type": "address"
        }
      ],
      "name": "RoleRevoked",
      "type": "event"
    },
    {
      "anonymous": false,
      "inputs": [
        {
          "indexed": true,
          "internalType": "address",
          "name": "to",
          "type": "address"
        },
        {
          "indexed": false,
          "internalType": "uint256",
          "name": "id",
          "type": "uint256"
        },
        {
          "indexed": false,
          "internalType": "uint256",
          "name": "pricePaid",
          "type": "uint256"
        },
        {
          "indexed": false,
          "internalType": "uint256",
          "name": "nextPrintPrice",
          "type": "uint256"
        },
        {
          "indexed": false,
          "internalType": "uint256",
          "name": "nextBurnPrice",
          "type": "uint256"
        },
        {
          "indexed": false,
          "internalType": "uint256",
          "name": "tokenSupply",
          "type": "uint256"
        },
        {
          "indexed": false,
          "internalType": "uint256",
          "name": "royaltyPaid",
          "type": "uint256"
        },
        {
          "indexed": false,
          "internalType": "uint256",
          "name": "reserve",
          "type": "uint256"
        },
        {
          "indexed": true,
          "internalType": "address",
          "name": "royaltyRecipient",
          "type": "address"
        }
      ],
      "name": "TokenBought",
      "type": "event"
    },
    {
      "anonymous": false,
      "inputs": [
        {
          "indexed": true,
          "internalType": "address",
          "name": "to",
          "type": "address"
        },
        {
          "indexed": false,
          "internalType": "uint256",
          "name": "id",
          "type": "uint256"
        },
        {
          "indexed": false,
          "internalType": "uint256",
          "name": "priceReceived",
          "type": "uint256"
        },
        {
          "indexed": false,
          "internalType": "uint256",
          "name": "nextPrintPrice",
          "type": "uint256"
        },
        {
          "indexed": false,
          "internalType": "uint256",
          "name": "nextBurnPrice",
          "type": "uint256"
        },
        {
          "indexed": false,
          "internalType": "uint256",
          "name": "printsSupply",
          "type": "uint256"
        },
        {
          "indexed": false,
          "internalType": "uint256",
          "name": "reserve",
          "type": "uint256"
        }
      ],
      "name": "TokenBurned",
      "type": "event"
    },
    {
      "anonymous": false,
      "inputs": [
        {
          "indexed": false,
          "internalType": "uint256",
          "name": "tokenId",
          "type": "uint256"
        },
        {
          "indexed": false,
          "internalType": "string",
          "name": "json",
          "type": "string"
        },
        {
          "indexed": false,
          "internalType": "uint256",
          "name": "curve",
          "type": "uint256"
        },
        {
          "indexed": false,
          "internalType": "uint256",
          "name": "multiplier",
          "type": "uint256"
        }
      ],
      "name": "TokenData",
      "type": "event"
    },
    {
      "anonymous": false,
      "inputs": [
        {
          "indexed": false,
          "internalType": "uint256",
          "name": "id",
          "type": "uint256"
        },
        {
          "indexed": false,
          "internalType": "uint256",
          "name": "date",
          "type": "uint256"
        }
      ],
      "name": "TokenOnSale",
      "type": "event"
    },
    {
      "anonymous": false,
      "inputs": [
        {
          "indexed": true,
          "internalType": "address",
          "name": "operator",
          "type": "address"
        },
        {
          "indexed": true,
          "internalType": "address",
          "name": "from",
          "type": "address"
        },
        {
          "indexed": true,
          "internalType": "address",
          "name": "to",
          "type": "address"
        },
        {
          "indexed": false,
          "internalType": "uint256[]",
          "name": "ids",
          "type": "uint256[]"
        },
        {
          "indexed": false,
          "internalType": "uint256[]",
          "name": "values",
          "type": "uint256[]"
        }
      ],
      "name": "TransferBatch",
      "type": "event"
    },
    {
      "anonymous": false,
      "inputs": [
        {
          "indexed": true,
          "internalType": "address",
          "name": "operator",
          "type": "address"
        },
        {
          "indexed": true,
          "internalType": "address",
          "name": "from",
          "type": "address"
        },
        {
          "indexed": true,
          "internalType": "address",
          "name": "to",
          "type": "address"
        },
        {
          "indexed": false,
          "internalType": "uint256",
          "name": "id",
          "type": "uint256"
        },
        {
          "indexed": false,
          "internalType": "uint256",
          "name": "value",
          "type": "uint256"
        }
      ],
      "name": "TransferSingle",
      "type": "event"
    },
    {
      "anonymous": false,
      "inputs": [
        {
          "indexed": false,
          "internalType": "string",
          "name": "value",
          "type": "string"
        },
        {
          "indexed": true,
          "internalType": "uint256",
          "name": "id",
          "type": "uint256"
        }
      ],
      "name": "URI",
      "type": "event"
    },
    {
      "stateMutability": "payable",
      "type": "fallback"
    },
    {
      "inputs": [],
      "name": "BURNER",
      "outputs": [
        {
          "internalType": "bytes32",
          "name": "",
          "type": "bytes32"
        }
      ],
      "stateMutability": "view",
      "type": "function"
    },
    {
      "inputs": [
        {
          "internalType": "uint256",
          "name": "creatorId",
          "type": "uint256"
        },
        {
          "internalType": "string",
          "name": "json",
          "type": "string"
        },
        {
          "internalType": "uint256",
          "name": "curve",
          "type": "uint256"
        },
        {
          "internalType": "uint256",
          "name": "multiplier",
          "type": "uint256"
        }
      ],
      "name": "CreateToken",
      "outputs": [],
      "stateMutability": "nonpayable",
      "type": "function"
    },
    {
      "inputs": [],
      "name": "DEFAULT_ADMIN_ROLE",
      "outputs": [
        {
          "internalType": "bytes32",
          "name": "",
          "type": "bytes32"
        }
      ],
      "stateMutability": "view",
      "type": "function"
    },
    {
      "inputs": [],
      "name": "MAX_PRICE",
      "outputs": [
        {
          "internalType": "uint256",
          "name": "",
          "type": "uint256"
        }
      ],
      "stateMutability": "view",
      "type": "function"
    },
    {
      "inputs": [],
      "name": "METADATA_ADMIN",
      "outputs": [
        {
          "internalType": "bytes32",
          "name": "",
          "type": "bytes32"
        }
      ],
      "stateMutability": "view",
      "type": "function"
    },
    {
      "inputs": [],
      "name": "MINTER",
      "outputs": [
        {
          "internalType": "bytes32",
          "name": "",
          "type": "bytes32"
        }
      ],
      "stateMutability": "view",
      "type": "function"
    },
    {
      "inputs": [
        {
          "internalType": "uint256",
          "name": "tokenId",
          "type": "uint256"
        },
        {
          "internalType": "uint256",
          "name": "onSaleDate",
          "type": "uint256"
        }
      ],
      "name": "SetTokenOnSaleDate",
      "outputs": [],
      "stateMutability": "nonpayable",
      "type": "function"
    },
    {
      "inputs": [
        {
          "internalType": "uint256",
          "name": "",
          "type": "uint256"
        }
      ],
      "name": "TokenSupply",
      "outputs": [
        {
          "internalType": "uint256",
          "name": "",
          "type": "uint256"
        }
      ],
      "stateMutability": "view",
      "type": "function"
    },
    {
      "inputs": [
        {
          "internalType": "uint256",
          "name": "tokenId",
          "type": "uint256"
        },
        {
          "internalType": "string",
          "name": "json",
          "type": "string"
        },
        {
          "internalType": "uint256",
          "name": "curve",
          "type": "uint256"
        },
        {
          "internalType": "uint256",
          "name": "multiplier",
          "type": "uint256"
        }
      ],
      "name": "UpdateTokenData",
      "outputs": [],
      "stateMutability": "nonpayable",
      "type": "function"
    },
    {
      "inputs": [
        {
          "internalType": "uint256",
          "name": "",
          "type": "uint256"
        }
      ],
      "name": "_tokenURIs",
      "outputs": [
        {
          "internalType": "string",
          "name": "",
          "type": "string"
        }
      ],
      "stateMutability": "view",
      "type": "function"
    },
    {
      "inputs": [
        {
          "internalType": "address",
          "name": "account",
          "type": "address"
        },
        {
          "internalType": "uint256",
          "name": "id",
          "type": "uint256"
        }
      ],
      "name": "balanceOf",
      "outputs": [
        {
          "internalType": "uint256",
          "name": "",
          "type": "uint256"
        }
      ],
      "stateMutability": "view",
      "type": "function"
    },
    {
      "inputs": [
        {
          "internalType": "address[]",
          "name": "accounts",
          "type": "address[]"
        },
        {
          "internalType": "uint256[]",
          "name": "ids",
          "type": "uint256[]"
        }
      ],
      "name": "balanceOfBatch",
      "outputs": [
        {
          "internalType": "uint256[]",
          "name": "",
          "type": "uint256[]"
        }
      ],
      "stateMutability": "view",
      "type": "function"
    },
    {
      "inputs": [
        {
          "internalType": "uint256",
          "name": "tokenId",
          "type": "uint256"
        }
      ],
      "name": "burn",
      "outputs": [],
      "stateMutability": "nonpayable",
      "type": "function"
    },
    {
      "inputs": [],
      "name": "burningActive",
      "outputs": [
        {
          "internalType": "bool",
          "name": "",
          "type": "bool"
        }
      ],
      "stateMutability": "view",
      "type": "function"
    },
    {
      "inputs": [
        {
          "internalType": "uint256",
          "name": "tokenId",
          "type": "uint256"
        },
        {
          "internalType": "uint256",
          "name": "maxPrice",
          "type": "uint256"
        },
        {
          "internalType": "address",
          "name": "asset",
          "type": "address"
        }
      ],
      "name": "buyNFTwithERC20",
      "outputs": [],
      "stateMutability": "nonpayable",
      "type": "function"
    },
    {
      "inputs": [
        {
          "internalType": "uint256",
          "name": "tokenId",
          "type": "uint256"
        },
        {
          "internalType": "uint256",
          "name": "maxPrice",
          "type": "uint256"
        }
      ],
      "name": "buyNFTwithGAME",
      "outputs": [],
      "stateMutability": "nonpayable",
      "type": "function"
    },
    {
      "inputs": [
        {
          "internalType": "uint256",
          "name": "tokenId",
          "type": "uint256"
        },
        {
          "internalType": "uint256",
          "name": "maxPrice",
          "type": "uint256"
        }
      ],
      "name": "buyNFTwithMatic",
      "outputs": [],
      "stateMutability": "payable",
      "type": "function"
    },
    {
      "inputs": [
        {
          "internalType": "uint256",
          "name": "",
          "type": "uint256"
        }
      ],
      "name": "curves",
      "outputs": [
        {
          "internalType": "uint256",
          "name": "",
          "type": "uint256"
        }
      ],
      "stateMutability": "view",
      "type": "function"
    },
    {
      "inputs": [],
      "name": "gameAdmin",
      "outputs": [
        {
          "internalType": "contract iGAME_Game",
          "name": "",
          "type": "address"
        }
      ],
      "stateMutability": "view",
      "type": "function"
    },
    {
      "inputs": [],
      "name": "gameToken",
      "outputs": [
        {
          "internalType": "contract iGAME_ERC20",
          "name": "",
          "type": "address"
        }
      ],
      "stateMutability": "view",
      "type": "function"
    },
    {
      "inputs": [
        {
          "internalType": "uint256",
          "name": "tokenId",
          "type": "uint256"
        }
      ],
      "name": "getBuyPrice",
      "outputs": [
        {
          "internalType": "uint256",
          "name": "",
          "type": "uint256"
        }
      ],
      "stateMutability": "view",
      "type": "function"
    },
    {
      "inputs": [
        {
          "internalType": "uint256",
          "name": "creator",
          "type": "uint256"
        }
      ],
      "name": "getNextTokenID",
      "outputs": [
        {
          "internalType": "uint256",
          "name": "",
          "type": "uint256"
        }
      ],
      "stateMutability": "view",
      "type": "function"
    },
    {
      "inputs": [
        {
          "internalType": "uint256",
          "name": "tokenId",
          "type": "uint256"
        },
        {
          "internalType": "uint256",
          "name": "printNumber",
          "type": "uint256"
        }
      ],
      "name": "getPrintPrice",
      "outputs": [
        {
          "internalType": "uint256",
          "name": "",
          "type": "uint256"
        }
      ],
      "stateMutability": "view",
      "type": "function"
    },
    {
      "inputs": [
        {
          "internalType": "bytes32",
          "name": "role",
          "type": "bytes32"
        }
      ],
      "name": "getRoleAdmin",
      "outputs": [
        {
          "internalType": "bytes32",
          "name": "",
          "type": "bytes32"
        }
      ],
      "stateMutability": "view",
      "type": "function"
    },
    {
      "inputs": [
        {
          "internalType": "bytes32",
          "name": "role",
          "type": "bytes32"
        },
        {
          "internalType": "uint256",
          "name": "index",
          "type": "uint256"
        }
      ],
      "name": "getRoleMember",
      "outputs": [
        {
          "internalType": "address",
          "name": "",
          "type": "address"
        }
      ],
      "stateMutability": "view",
      "type": "function"
    },
    {
      "inputs": [
        {
          "internalType": "bytes32",
          "name": "role",
          "type": "bytes32"
        }
      ],
      "name": "getRoleMemberCount",
      "outputs": [
        {
          "internalType": "uint256",
          "name": "",
          "type": "uint256"
        }
      ],
      "stateMutability": "view",
      "type": "function"
    },
    {
      "inputs": [
        {
          "internalType": "uint256",
          "name": "tokenId",
          "type": "uint256"
        }
      ],
      "name": "getSellPrice",
      "outputs": [
        {
          "internalType": "uint256",
          "name": "",
          "type": "uint256"
        }
      ],
      "stateMutability": "view",
      "type": "function"
    },
    {
      "inputs": [
        {
          "internalType": "uint256",
          "name": "_creatorID",
          "type": "uint256"
        },
        {
          "internalType": "uint256",
          "name": "token",
          "type": "uint256"
        }
      ],
      "name": "getTokenID",
      "outputs": [
        {
          "internalType": "uint256",
          "name": "",
          "type": "uint256"
        }
      ],
      "stateMutability": "view",
      "type": "function"
    },
    {
      "inputs": [
        {
          "internalType": "bytes32",
          "name": "role",
          "type": "bytes32"
        },
        {
          "internalType": "address",
          "name": "account",
          "type": "address"
        }
      ],
      "name": "grantRole",
      "outputs": [],
      "stateMutability": "nonpayable",
      "type": "function"
    },
    {
      "inputs": [
        {
          "internalType": "uint256",
          "name": "id",
          "type": "uint256"
        }
      ],
      "name": "hasMinted",
      "outputs": [
        {
          "internalType": "bool",
          "name": "",
          "type": "bool"
        }
      ],
      "stateMutability": "view",
      "type": "function"
    },
    {
      "inputs": [
        {
          "internalType": "bytes32",
          "name": "role",
          "type": "bytes32"
        },
        {
          "internalType": "address",
          "name": "account",
          "type": "address"
        }
      ],
      "name": "hasRole",
      "outputs": [
        {
          "internalType": "bool",
          "name": "",
          "type": "bool"
        }
      ],
      "stateMutability": "view",
      "type": "function"
    },
    {
      "inputs": [
        {
          "internalType": "address",
          "name": "account",
          "type": "address"
        },
        {
          "internalType": "address",
          "name": "operator",
          "type": "address"
        }
      ],
      "name": "isApprovedForAll",
      "outputs": [
        {
          "internalType": "bool",
          "name": "",
          "type": "bool"
        }
      ],
      "stateMutability": "view",
      "type": "function"
    },
    {
      "inputs": [],
      "name": "mintingActive",
      "outputs": [
        {
          "internalType": "bool",
          "name": "",
          "type": "bool"
        }
      ],
      "stateMutability": "view",
      "type": "function"
    },
    {
      "inputs": [],
      "name": "multiple",
      "outputs": [
        {
          "internalType": "uint256",
          "name": "",
          "type": "uint256"
        }
      ],
      "stateMutability": "view",
      "type": "function"
    },
    {
      "inputs": [
        {
          "internalType": "uint256",
          "name": "",
          "type": "uint256"
        }
      ],
      "name": "multipliers",
      "outputs": [
        {
          "internalType": "uint256",
          "name": "",
          "type": "uint256"
        }
      ],
      "stateMutability": "view",
      "type": "function"
    },
    {
      "inputs": [
        {
          "internalType": "uint256",
          "name": "",
          "type": "uint256"
        }
      ],
      "name": "nextTokenIDs",
      "outputs": [
        {
          "internalType": "uint256",
          "name": "",
          "type": "uint256"
        }
      ],
      "stateMutability": "view",
      "type": "function"
    },
    {
      "inputs": [],
      "name": "quick",
      "outputs": [
        {
          "internalType": "address",
          "name": "",
          "type": "address"
        }
      ],
      "stateMutability": "view",
      "type": "function"
    },
    {
      "inputs": [
        {
          "internalType": "bytes32",
          "name": "role",
          "type": "bytes32"
        },
        {
          "internalType": "address",
          "name": "account",
          "type": "address"
        }
      ],
      "name": "renounceRole",
      "outputs": [],
      "stateMutability": "nonpayable",
      "type": "function"
    },
    {
      "inputs": [
        {
          "internalType": "bytes32",
          "name": "role",
          "type": "bytes32"
        },
        {
          "internalType": "address",
          "name": "account",
          "type": "address"
        }
      ],
      "name": "revokeRole",
      "outputs": [],
      "stateMutability": "nonpayable",
      "type": "function"
    },
    {
      "inputs": [
        {
          "internalType": "address",
          "name": "from",
          "type": "address"
        },
        {
          "internalType": "address",
          "name": "to",
          "type": "address"
        },
        {
          "internalType": "uint256[]",
          "name": "ids",
          "type": "uint256[]"
        },
        {
          "internalType": "uint256[]",
          "name": "amounts",
          "type": "uint256[]"
        },
        {
          "internalType": "bytes",
          "name": "data",
          "type": "bytes"
        }
      ],
      "name": "safeBatchTransferFrom",
      "outputs": [],
      "stateMutability": "nonpayable",
      "type": "function"
    },
    {
      "inputs": [
        {
          "internalType": "address",
          "name": "from",
          "type": "address"
        },
        {
          "internalType": "address",
          "name": "to",
          "type": "address"
        },
        {
          "internalType": "uint256",
          "name": "id",
          "type": "uint256"
        },
        {
          "internalType": "uint256",
          "name": "amount",
          "type": "uint256"
        },
        {
          "internalType": "bytes",
          "name": "data",
          "type": "bytes"
        }
      ],
      "name": "safeTransferFrom",
      "outputs": [],
      "stateMutability": "nonpayable",
      "type": "function"
    },
    {
      "inputs": [
        {
          "internalType": "uint256",
          "name": "",
          "type": "uint256"
        }
      ],
      "name": "saleStarts",
      "outputs": [
        {
          "internalType": "uint256",
          "name": "",
          "type": "uint256"
        }
      ],
      "stateMutability": "view",
      "type": "function"
    },
    {
      "inputs": [
        {
          "internalType": "address",
          "name": "operator",
          "type": "address"
        },
        {
          "internalType": "bool",
          "name": "approved",
          "type": "bool"
        }
      ],
      "name": "setApprovalForAll",
      "outputs": [],
      "stateMutability": "nonpayable",
      "type": "function"
    },
    {
      "inputs": [
        {
          "internalType": "string",
          "name": "newuri",
          "type": "string"
        }
      ],
      "name": "setBaseURI",
      "outputs": [],
      "stateMutability": "nonpayable",
      "type": "function"
    },
    {
      "inputs": [
        {
          "internalType": "address",
          "name": "a",
          "type": "address"
        }
      ],
      "name": "setFEERECEIVER",
      "outputs": [],
      "stateMutability": "nonpayable",
      "type": "function"
    },
    {
      "inputs": [
        {
          "internalType": "string",
          "name": "newuri",
          "type": "string"
        },
        {
          "internalType": "uint256",
          "name": "id",
          "type": "uint256"
        }
      ],
      "name": "setURI",
      "outputs": [],
      "stateMutability": "nonpayable",
      "type": "function"
    },
    {
      "inputs": [
        {
          "internalType": "address",
          "name": "uniswapRouter_",
          "type": "address"
        }
      ],
      "name": "setUniswapRouter",
      "outputs": [],
      "stateMutability": "nonpayable",
      "type": "function"
    },
    {
      "inputs": [
        {
          "internalType": "bytes4",
          "name": "interfaceId",
          "type": "bytes4"
        }
      ],
      "name": "supportsInterface",
      "outputs": [
        {
          "internalType": "bool",
          "name": "",
          "type": "bool"
        }
      ],
      "stateMutability": "view",
      "type": "function"
    },
    {
      "inputs": [],
      "name": "toggleTokenBurning",
      "outputs": [],
      "stateMutability": "nonpayable",
      "type": "function"
    },
    {
      "inputs": [],
      "name": "toggleTokenMinting",
      "outputs": [],
      "stateMutability": "nonpayable",
      "type": "function"
    },
    {
      "inputs": [],
      "name": "uniswapRouter",
      "outputs": [
        {
          "internalType": "contract IUniswapV2Router02",
          "name": "",
          "type": "address"
        }
      ],
      "stateMutability": "view",
      "type": "function"
    },
    {
      "inputs": [
        {
          "internalType": "uint256",
          "name": "tokenid",
          "type": "uint256"
        }
      ],
      "name": "uri",
      "outputs": [
        {
          "internalType": "string",
          "name": "",
          "type": "string"
        }
      ],
      "stateMutability": "view",
      "type": "function"
    },
    {
      "inputs": [],
      "name": "wMatic",
      "outputs": [
        {
          "internalType": "address",
          "name": "",
          "type": "address"
        }
      ],
      "stateMutability": "view",
      "type": "function"
    },
    {
      "stateMutability": "payable",
      "type": "receive"
    }
  ],
  "bytecode": "0x60806040819052670de0b6b3a76400006008556003600955600a80546001600160a01b0319908116730d500b1d8e8ef31e21c99d1db9a6444d3adf127017909155600b805490911673831753dd7087cac61ab5644b308642cc1c33dc131790556ec097ce7bc90715b34b9f1000000000600c5562989680600d55620077c1388190039081908339810160408190526200009891620012fd565b6040805180820190915260048152631d195cdd60e21b6020820152620000c56301ffc9a760e01b62000358565b620000d7636cdb3d1360e11b62000358565b620000e96303a24d0760e21b62000358565b60408051808201909152601a81527f2d2d2d2d2d2d2d2d2d2d2d2d2d2d2d2d2d2d2d2d2d2d2d2d2d2d00000000000060208201526200013e906200012c620003b3565b336200041360201b62002e5f1760201c565b6200015460006200014e620003b3565b62000467565b62000172600080516020620077558339815191526200014e620003b3565b62000190600080516020620077358339815191526200014e620003b3565b620001ac60008051602062007735833981519152600062000477565b620001c860008051602062007755833981519152600062000477565b8051620001dd90600690602084019062001147565b50506040805160008082526020820190925262000207918491620004c960201b62002ea61760201c565b60006200021e6200067b60201b620030291760201c565b8251600f80546001600160a01b03199081166001600160a01b039384161790915560208086015160108054841691851691909117905560408087015160048601805490941694169390931790915581518083019092526001808352603160f81b92909101918252919250620002999160078401919062001147565b506040805180820190915260138082527f47414d4520426f6e64696e6720437572766573000000000000000000000000006020909201918252620002e291600884019162001147565b506301ffc9a760e01b600090815260039091016020526040808220805460ff1990811660019081179092556307e4c70760e21b845282842080548216831790556348e2b09360e01b845282842080548216831790556307f5828d60e41b8452919092208054909116909117905550620019f39050565b6001600160e01b031980821614156200038e5760405162461bcd60e51b8152600401620003859062001699565b60405180910390fd5b6001600160e01b0319166000908152602081905260409020805460ff19166001179055565b6000333014156200040d5760606000368080601f0160208091040260200160405190810160405280939291908181526020018383808284376000920191909152505050503601516001600160a01b03169150620004109050565b50335b90565b620004628383836040516024016200042e9392919062001576565b60408051601f198184030181529190526020810180516001600160e01b039081166307e763af60e51b179091526200069f16565b505050565b620004738282620006c0565b5050565b600082815260056020526040808220600201549051839285917fbd79b86ffe0ab8e8776151514217cd7cacd52c909f66475c3af44e129f0b00ff9190a460009182526005602052604090912060020155565b60005b835181101562000631576000848281518110620004e557fe5b6020026020010151602001519050600060028111156200050157fe5b8160028111156200050e57fe5b14156200055d57620005578583815181106200052657fe5b6020026020010151600001518684815181106200053f57fe5b6020026020010151604001516200073b60201b60201c565b62000627565b60018160028111156200056c57fe5b1415620005b557620005578583815181106200058457fe5b6020026020010151600001518684815181106200059d57fe5b6020026020010151604001516200094e60201b60201c565b6002816002811115620005c457fe5b14156200060d5762000557858381518110620005dc57fe5b602002602001015160000151868481518110620005f557fe5b60200260200101516040015162000b7860201b60201c565b60405162461bcd60e51b815260040162000385906200172d565b50600101620004cc565b507f8faa70878671ccd212d20771b795c50af8fd3ff6cf27f4bde57e5d4de0aeb673838383604051620006679392919062001471565b60405180910390a162000462828262000c3f565b7fc8fcad8db84d3cc18b4c41d551ea0ee66dd599cde068d998e57d5e09332c131c90565b80516a636f6e736f6c652e6c6f67602083016000808483855afa5050505050565b6000828152600560209081526040909120620006e79183906200304d62000d79821b17901c565b156200047357620006f7620003b3565b6001600160a01b0316816001600160a01b0316837f2f8788117e7eff1d82e926ec794901d17c78024a50270940304540a733656f0d60405160405180910390a45050565b60008151116200075f5760405162461bcd60e51b815260040162000385906200164e565b60006200076b6200067b565b90506001600160a01b038316620007965760405162461bcd60e51b8152600401620003859062001774565b6001600160a01b038316600090815260018201602052604090205461ffff81166200083c57620007e0846040518060600160405280602481526020016200779d6024913962000d99565b6002820180546001600160a01b038616600081815260018087016020908152604083208201805461ffff191661ffff90961695909517909455845490810185559381529190912090910180546001600160a01b03191690911790555b60005b8351811015620009475760008482815181106200085857fe5b6020908102919091018101516001600160e01b031981166000908152918690526040909120549091506001600160a01b03168015620008ab5760405162461bcd60e51b815260040162000385906200186b565b506001600160a01b0386166000818152600186810160209081526040808420805480850182559085528285206008820401805463ffffffff60079093166004026101000a928302191660e089901c929092029190911790556001600160e01b0319909516835287905292902080546001600160a01b03191690911761ffff60a01b1916600160a01b61ffff86160217905591820191016200083f565b5050505050565b6000815111620009725760405162461bcd60e51b815260040162000385906200164e565b60006200097e6200067b565b90506001600160a01b038316620009a95760405162461bcd60e51b8152600401620003859062001774565b6001600160a01b038316600090815260018201602052604090205461ffff811662000a4f57620009f3846040518060600160405280602481526020016200779d6024913962000d99565b6002820180546001600160a01b038616600081815260018087016020908152604083208201805461ffff191661ffff90961695909517909455845490810185559381529190912090910180546001600160a01b03191690911790555b60005b83518110156200094757600084828151811062000a6b57fe5b6020908102919091018101516001600160e01b031981166000908152918690526040909120549091506001600160a01b0390811690871681141562000ac45760405162461bcd60e51b81526004016200038590620018c8565b62000ad0818362000dbd565b506001600160e01b03198116600081815260208681526040808320805461ffff60a01b1916600160a01b61ffff8a16021781556001600160a01b038b168085526001808b018552928520805480850182559086528486206008820401805463ffffffff60079093166004026101000a928302191660e09990991c91909102979097179096559390925286905281546001600160a01b0319169092179055918201910162000a52565b600081511162000b9c5760405162461bcd60e51b815260040162000385906200164e565b600062000ba86200067b565b90506001600160a01b0383161562000bd45760405162461bcd60e51b8152600401620003859062001925565b60005b825181101562000c3957600083828151811062000bf057fe5b6020908102919091018101516001600160e01b031981166000908152918590526040909120549091506001600160a01b031662000c2e818362000dbd565b505060010162000bd7565b50505050565b6001600160a01b03821662000c765780511562000c705760405162461bcd60e51b81526004016200038590620015ab565b62000473565b600081511162000c9a5760405162461bcd60e51b81526004016200038590620017c0565b6001600160a01b038216301462000cd05762000cd082604051806060016040528060288152602001620077756028913962000d99565b60006060836001600160a01b03168360405162000cee919062001453565b600060405180830381855af49150503d806000811462000d2b576040519150601f19603f3d011682016040523d82523d6000602084013e62000d30565b606091505b50915091508162000c395780511562000d5f578060405162461bcd60e51b815260040162000385919062001561565b60405162461bcd60e51b8152600401620003859062001608565b600062000d90836001600160a01b038416620010e0565b90505b92915050565b813b818162000c395760405162461bcd60e51b815260040162000385919062001561565b600062000dc96200067b565b90506001600160a01b03831662000df45760405162461bcd60e51b81526004016200038590620016d0565b6001600160a01b03831630141562000e205760405162461bcd60e51b815260040162000385906200181d565b6001600160e01b03198216600090815260208281526040808320546001600160a01b03871684526001850190925290912054600160a01b90910461ffff16906000190180821462000f44576001600160a01b0385166000908152600184016020526040812080548390811062000e9257fe5b600091825260208083206008830401546001600160a01b038a168452600188019091526040909220805460079092166004026101000a90920460e01b92508291908590811062000ede57fe5b600091825260208083206008830401805463ffffffff60079094166004026101000a938402191660e09590951c929092029390931790556001600160e01b031992909216825284905260409020805461ffff60a01b1916600160a01b61ffff8516021790555b6001600160a01b0385166000908152600184016020526040902080548062000f6857fe5b60008281526020808220600860001990940193840401805463ffffffff600460078716026101000a0219169055919092556001600160e01b0319861682528490526040902080546001600160b01b031916905580620009475760028301546001600160a01b03861660009081526001858101602052604090912001546000199091019061ffff16808214620010805760008560020183815481106200100957fe5b6000918252602090912001546002870180546001600160a01b0390921692508291849081106200103557fe5b600091825260208083209190910180546001600160a01b0319166001600160a01b0394851617905592909116815260018781019092526040902001805461ffff191661ffff83161790555b846002018054806200108e57fe5b60008281526020808220830160001990810180546001600160a01b03191690559092019092556001600160a01b03891682526001878101909152604090912001805461ffff1916905550505050505050565b6000620010ee83836200112f565b620011265750815460018181018455600084815260208082209093018490558454848252828601909352604090209190915562000d93565b50600062000d93565b60009081526001919091016020526040902054151590565b828054600181600116156101000203166002900490600052602060002090601f016020900481019282601f106200118a57805160ff1916838001178555620011ba565b82800160010185558215620011ba579182015b82811115620011ba5782518255916020019190600101906200119d565b50620011c8929150620011cc565b5090565b5b80821115620011c85760008155600101620011cd565b80516001600160a01b0381168114620011fb57600080fd5b919050565b600082601f83011262001211578081fd5b8151620012286200122282620019a6565b62001982565b8181529150602080830190848101818402860182018710156200124a57600080fd5b6000805b85811015620012825782516001600160e01b0319811681146200126f578283fd5b855293830193918301916001016200124e565b50505050505092915050565b600060608284031215620012a0578081fd5b604051606081016001600160401b0381118282101715620012bd57fe5b604052905080620012ce83620011e3565b8152620012de60208401620011e3565b6020820152620012f160408401620011e3565b60408201525092915050565b6000806080838503121562001310578182fd5b82516001600160401b038082111562001327578384fd5b818501915085601f8301126200133b578384fd5b81516200134c6200122282620019a6565b81815260208082019190858101885b85811015620013f657815188016060818e03601f190112156200137c578a8bfd5b604051606081018181108a821117156200139257fe5b604052620013a2828601620011e3565b8152604082015160038110620013b6578c8dfd5b81860152606082015189811115620013cc578c8dfd5b620013dc8f878386010162001200565b60408301525086525093820193908201906001016200135b565b5050819750620014098a828b016200128e565b96505050505050509250929050565b6001600160a01b03169052565b600081518084526200143f816020860160208601620019c4565b601f01601f19169290920160200192915050565b6000825162001467818460208701620019c4565b9190910192915050565b606080825284518282018190526000919060809081850190602080820287018401818b01875b848110156200152e57898303607f19018652815180516001600160a01b03168452848101518985019060038110620014cb57fe5b858701526040918201519185018a9052815190819052908501908a90898601905b80831015620015185783516001600160e01b0319168252928701926001929092019190870190620014ec565b5097860197945050509083019060010162001497565b50506200153e8289018b62001418565b878103604089015262001552818a62001425565b9b9a5050505050505050505050565b60006020825262000d90602083018462001425565b6000606082526200158b606083018662001425565b6001600160a01b0394851660208401529290931660409091015292915050565b6020808252603c908201527f4c69624469616d6f6e644375743a205f696e697420697320616464726573732860408201527f3029206275745f63616c6c64617461206973206e6f7420656d70747900000000606082015260800190565b60208082526026908201527f4c69624469616d6f6e644375743a205f696e69742066756e6374696f6e2072656040820152651d995c9d195960d21b606082015260800190565b6020808252602b908201527f4c69624469616d6f6e644375743a204e6f2073656c6563746f727320696e206660408201526a1858d95d081d1bc818dd5d60aa1b606082015260800190565b6020808252601c908201527f4552433136353a20696e76616c696420696e7465726661636520696400000000604082015260600190565b60208082526037908201527f4c69624469616d6f6e644375743a2043616e27742072656d6f76652066756e6360408201527f74696f6e207468617420646f65736e2774206578697374000000000000000000606082015260800190565b60208082526027908201527f4c69624469616d6f6e644375743a20496e636f727265637420466163657443756040820152663a20b1ba34b7b760c91b606082015260800190565b6020808252602c908201527f4c69624469616d6f6e644375743a204164642066616365742063616e2774206260408201526b65206164647265737328302960a01b606082015260800190565b6020808252603d908201527f4c69624469616d6f6e644375743a205f63616c6c6461746120697320656d707460408201527f7920627574205f696e6974206973206e6f742061646472657373283029000000606082015260800190565b6020808252602e908201527f4c69624469616d6f6e644375743a2043616e27742072656d6f766520696d6d7560408201526d3a30b1363290333ab731ba34b7b760911b606082015260800190565b60208082526035908201527f4c69624469616d6f6e644375743a2043616e2774206164642066756e6374696f60408201527f6e207468617420616c7265616479206578697374730000000000000000000000606082015260800190565b60208082526038908201527f4c69624469616d6f6e644375743a2043616e2774207265706c6163652066756e60408201527f6374696f6e20776974682073616d652066756e6374696f6e0000000000000000606082015260800190565b60208082526036908201527f4c69624469616d6f6e644375743a2052656d6f7665206661636574206164647260408201527f657373206d757374206265206164647265737328302900000000000000000000606082015260800190565b6040518181016001600160401b03811182821017156200199e57fe5b604052919050565b60006001600160401b03821115620019ba57fe5b5060209081020190565b60005b83811015620019e1578181015183820152602001620019c7565b8381111562000c395750506000910152565b615d328062001a036000396000f3fe60806040526004361061031d5760003560e01c806355f804b3116101ab578063ba730e53116100f7578063d547741f11610095578063ec7982571161006f578063ec798257146109b3578063f242432a146109d3578063fdd3a879146109f3578063fe6d812414610a0857610324565b8063d547741f14610953578063e5b9559514610973578063e985e9c51461099357610324565b8063c3dfdae6116100d1578063c3dfdae6146108de578063c707562d146108f3578063c8db7e8314610913578063ca15c8731461093357610324565b8063ba730e531461087e578063ba84be071461089e578063bea9849e146108be57610324565b80639010d07c11610164578063a22cb4651161013e578063a22cb46514610816578063a8b8c18b14610836578063ac7fc26314610849578063b1de303e1461086957610324565b80639010d07c146107c157806391d14854146107e1578063a217fddf1461080157610324565b806355f804b314610717578063654d13331461073757806367db3b8f14610757578063735de9f71461077757806376adcba51461078c5780638749474f146107a157610324565b8063248a9ca31161026a57806336568abe116102235780633f897300116101fd5780633f8973001461069557806342966c68146106b5578063437a8ae6146106d55780634e1273f4146106ea57610324565b806336568abe146106335780633c81fdb4146106535780633d2426551461067557610324565b8063248a9ca31461058957806326150e95146105a95780632b606d2c146105be5780632eb2c2d6146105de5780632f2ff15d146105fe57806331f9c9191461061e57610324565b8063118c4f13116102d75780631bf7d749116102b15780631bf7d7491461051f5780631c7c25981461053f5780631d84003f1461055457806321c7cf4d1461057457610324565b8063118c4f13146104c85780631490185c146104dd578063186d4432146104fd57610324565b8062fdd58e146103e357806301c11d961461041957806301ffc9a71461042e57806308d4db141461045b5780630bb78ec11461047b5780630e89341c146104a857610324565b3661032457005b6103526040518060400160405280600d81526020016c66616c6c6261636b2d2d2d2d2d60981b815250610a1d565b600080356001600160e01b03191681527fc8fcad8db84d3cc18b4c41d551ea0ee66dd599cde068d998e57d5e09332c131c602081905260409091205481906001600160a01b0316806103bf5760405162461bcd60e51b81526004016103b690615485565b60405180910390fd5b3660008037600080366000845af43d6000803e8080156103de573d6000f35b3d6000fd5b3480156103ef57600080fd5b506104036103fe3660046146d4565b610a63565b6040516104109190614d7a565b60405180910390f35b34801561042557600080fd5b50610403610ab6565b34801561043a57600080fd5b5061044e6104493660046148c3565b610abc565b6040516104109190614d6f565b34801561046757600080fd5b50610403610476366004614868565b610adf565b34801561048757600080fd5b5061049b610496366004614868565b610b02565b6040516104109190614d83565b3480156104b457600080fd5b5061049b6104c3366004614868565b610b9d565b3480156104d457600080fd5b50610403610cc3565b3480156104e957600080fd5b506104036104f83660046148a2565b610ce7565b34801561050957600080fd5b5061051d6105183660046148a2565b610cf2565b005b34801561052b57600080fd5b5061040361053a366004614868565b6110c0565b34801561054b57600080fd5b5061044e6110d2565b34801561056057600080fd5b5061051d61056f36600461454b565b6110e2565b34801561058057600080fd5b5061051d61111a565b34801561059557600080fd5b506104036105a4366004614868565b611151565b3480156105b557600080fd5b5061051d611166565b3480156105ca57600080fd5b506104036105d93660046148a2565b61119d565b3480156105ea57600080fd5b5061051d6105f9366004614597565b611241565b34801561060a57600080fd5b5061051d610619366004614880565b61145b565b34801561062a57600080fd5b5061044e6114a3565b34801561063f57600080fd5b5061051d61064e366004614880565b6114b3565b34801561065f57600080fd5b506106686114f5565b6040516104109190614b5f565b34801561068157600080fd5b50610403610690366004614868565b611504565b3480156106a157600080fd5b506104036106b0366004614868565b611516565b3480156106c157600080fd5b5061051d6106d0366004614868565b611528565b3480156106e157600080fd5b50610403611708565b3480156106f657600080fd5b5061070a6107053660046146fd565b61170e565b6040516104109190614d2e565b34801561072357600080fd5b5061051d6107323660046148fb565b61184d565b34801561074357600080fd5b5061051d61075236600461498f565b611895565b34801561076357600080fd5b5061051d610772366004614935565b611af4565b34801561078357600080fd5b50610668611b4d565b34801561079857600080fd5b50610668611b5c565b3480156107ad57600080fd5b506104036107bc366004614868565b611b6b565b3480156107cd57600080fd5b506106686107dc3660046148a2565b611b7d565b3480156107ed57600080fd5b5061044e6107fc366004614880565b611b95565b34801561080d57600080fd5b50610403611bad565b34801561082257600080fd5b5061051d61083136600461469e565b611bb2565b61051d6108443660046148a2565b611c80565b34801561085557600080fd5b50610403610864366004614868565b612073565b34801561087557600080fd5b50610403612085565b34801561088a57600080fd5b50610403610899366004614868565b6120a9565b3480156108aa57600080fd5b5061051d6108b936600461498f565b6120cc565b3480156108ca57600080fd5b5061051d6108d936600461454b565b6122a3565b3480156108ea57600080fd5b506106686122db565b3480156108ff57600080fd5b5061051d61090e3660046148a2565b6122ea565b34801561091f57600080fd5b5061051d61092e3660046149e3565b61245f565b34801561093f57600080fd5b5061040361094e366004614868565b612bf2565b34801561095f57600080fd5b5061051d61096e366004614880565b612c09565b34801561097f57600080fd5b5061044e61098e366004614868565b612c43565b34801561099f57600080fd5b5061044e6109ae366004614565565b612c58565b3480156109bf57600080fd5b506104036109ce366004614868565b612c86565b3480156109df57600080fd5b5061051d6109ee36600461463c565b612c98565b3480156109ff57600080fd5b50610668612e2c565b348015610a1457600080fd5b50610403612e3b565b610a6081604051602401610a319190614d83565b60408051601f198184030181529190526020810180516001600160e01b031663104c13eb60e21b179052613062565b50565b60006001600160a01b038316610a8b5760405162461bcd60e51b81526004016103b69061501e565b5060008181526001602090815260408083206001600160a01b03861684529091529020545b92915050565b600c5481565b6001600160e01b0319811660009081526020819052604090205460ff165b919050565b600081815260146020526040812054610afb836001830161119d565b9392505050565b60076020908152600091825260409182902080548351601f600260001961010060018616150201909316929092049182018490048402810184019094528084529091830182828015610b955780601f10610b6a57610100808354040283529160200191610b95565b820191906000526020600020905b815481529060010190602001808311610b7857829003601f168201915b505050505081565b6000818152600760209081526040918290208054835160026001831615610100026000190190921691909104601f81018490048402820184019094528381526060938493919291830182828015610c355780601f10610c0a57610100808354040283529160200191610c35565b820191906000526020600020905b815481529060010190602001808311610c1857829003601f168201915b505060065493945050505060026000196101006001841615020190911604610c5e579050610ada565b805115610c9057600681604051602001610c79929190614ade565b604051602081830303815290604052915050610ada565b6006610c9b84613083565b604051602001610cac929190614ade565b604051602081830303815290604052915050919050565b7f9667e80708b6eeeb0053fa0cca44e028ff548e2a9f029edfeac87c118b08b7c881565b600854919091020190565b600b54600160a81b900460ff16610d1b5760405162461bcd60e51b81526004016103b690615977565b60008281526013602052604090205442118015610d45575060008281526013602052604090205415155b610d615760405162461bcd60e51b81526004016103b690615325565b4360176000610d6e61315d565b6001600160a01b03166001600160a01b031681526020019081526020016000205410610d9957600080fd5b4360176000610da661315d565b6001600160a01b03166001600160a01b031681526020019081526020016000208190555060006008548381610dd757fe5b0490506000610de584610adf565b9050600081118015610df75750828111155b610e135760405162461bcd60e51b81526004016103b69061545e565b600084815260146020526040902080546001019055600f546001600160a01b031663e2b8e7d3610e4161315d565b30846040518463ffffffff1660e01b8152600401610e6193929190614b73565b600060405180830381600087803b158015610e7b57600080fd5b505af1158015610e8f573d6000803e3d6000fd5b505050506000610ea96032836131bb90919063ffffffff16565b90506000610ec36064610ebd8560086131fd565b906131bb565b9050610ee8610ed061315d565b87600160405180602001604052806000815250613237565b836001600160a01b0316610efa61315d565b6001600160a01b03167fa8f60c2735df0121f6c1fb70fdc37e927e3b21f7266de2beeace3ed35b8634d08886610f2f8b610adf565b610f388c6120a9565b60008d8152601460205260409081902054600f5491516370a0823160e01b815290918a916001600160a01b03909116906370a0823190610f7c903090600401614b5f565b60206040518083038186803b158015610f9457600080fd5b505afa158015610fa8573d6000803e3d6000fd5b505050506040513d601f19601f82011682018060405250810190610fcc9190614977565b604051610fdf9796959493929190615af8565b60405180910390a3600f54600e5460405163e2b8e7d360e01b81526001600160a01b039283169263e2b8e7d392611020923092909116908790600401614b73565b600060405180830381600087803b15801561103a57600080fd5b505af115801561104e573d6000803e3d6000fd5b5050600f5460405163e2b8e7d360e01b81526001600160a01b03909116925063e2b8e7d3915061108690309088908690600401614b73565b600060405180830381600087803b1580156110a057600080fd5b505af11580156110b4573d6000803e3d6000fd5b50505050505050505050565b60126020526000908152604090205481565b600b54600160a01b900460ff1681565b6110ef60006107fc61315d565b6110f857600080fd5b600e80546001600160a01b0319166001600160a01b0392909216919091179055565b61112760006107fc61315d565b61113057600080fd5b600b805460ff60a01b198116600160a01b9182900460ff1615909102179055565b60009081526005602052604090206002015490565b61117360006107fc61315d565b61117c57600080fd5b600b805460ff60a81b198116600160a81b9182900460ff1615909102179055565b600082815260126020908152604080832054601590925282205460098054600a0a9060329085906111d89086900a610ebd60038a0a866131fd565b90506111f26111eb86610ebd8a876131fd565b8290613352565b90506112016111eb83856131fd565b905061121d6103e8610ebd86611217858a6131bb565b906131fd565b905061123583610ebd83670de0b6b3a76400006131fd565b98975050505050505050565b81518351146112625760405162461bcd60e51b81526004016103b6906158c0565b6001600160a01b0384166112885760405162461bcd60e51b81526004016103b6906154ba565b61129061315d565b6001600160a01b0316856001600160a01b031614806112b657506112b6856109ae61315d565b6112d25760405162461bcd60e51b81526004016103b6906154ff565b60006112dc61315d565b90506112ec818787878787613377565b60005b84518110156113ed57600085828151811061130657fe5b60200260200101519050600085838151811061131e57fe5b6020026020010151905061138b816040518060600160405280602a8152602001615cd3602a91396001600086815260200190815260200160002060008d6001600160a01b03166001600160a01b031681526020019081526020016000205461343b9092919063ffffffff16565b60008381526001602090815260408083206001600160a01b038e811685529252808320939093558a16815220546113c29082613352565b60009283526001602081815260408086206001600160a01b038d1687529091529093205550016112ef565b50846001600160a01b0316866001600160a01b0316826001600160a01b03167f4a39dc06d4c0dbc64b70af90fd698a233a518aa5d07e595d983b8c0526c8f7fb878760405161143d929190614d41565b60405180910390a4611453818787878787613467565b505050505050565b600082815260056020526040902060020154611479906107fc61315d565b6114955760405162461bcd60e51b81526004016103b690614f4a565b61149f828261357e565b5050565b600b54600160a81b900460ff1681565b6114bb61315d565b6001600160a01b0316816001600160a01b0316146114eb5760405162461bcd60e51b81526004016103b6906159a6565b61149f82826135e7565b600a546001600160a01b031681565b60146020526000908152604090205481565b60166020526000908152604090205481565b600b54600160a01b900460ff166115515760405162461bcd60e51b81526004016103b690615393565b600161155d3383610a63565b101561157b5760405162461bcd60e51b81526004016103b69061563f565b6000611586826120a9565b6000838152601460205260409020805460001901905590506115b16115a961315d565b836001613650565b6115b961315d565b6001600160a01b03167f7f189ad2df0843ce2bba34028497b567ecb15a53dbfb381e8b7a3f1d5ca87d7183836115ee86610adf565b6115f7876120a9565b6000888152601460205260409081902054600f5491516370a0823160e01b815290916001600160a01b0316906370a0823190611637903090600401614b5f565b60206040518083038186803b15801561164f57600080fd5b505afa158015611663573d6000803e3d6000fd5b505050506040513d601f19601f820116820180604052508101906116879190614977565b60405161169996959493929190615ad0565b60405180910390a2600f546001600160a01b031663e2b8e7d3306116bb61315d565b846040518463ffffffff1660e01b81526004016116da93929190614b73565b600060405180830381600087803b1580156116f457600080fd5b505af1158015611453573d6000803e3d6000fd5b600d5481565b606081518351146117315760405162461bcd60e51b81526004016103b690615877565b606083516001600160401b038111801561174a57600080fd5b50604051908082528060200260200182016040528015611774578160200160208202803683370190505b50905060005b84518110156118455760006001600160a01b031685828151811061179a57fe5b60200260200101516001600160a01b031614156117c95760405162461bcd60e51b81526004016103b690615069565b600160008583815181106117d957fe5b6020026020010151815260200190815260200160002060008683815181106117fd57fe5b60200260200101516001600160a01b03166001600160a01b031681526020019081526020016000205482828151811061183257fe5b602090810291909101015260010161177a565b509392505050565b6118797ff6e33f9720e4529cb1c710e3344dc00830589a3239198ffa39b07117085d250e6107fc61315d565b61188257600080fd5b805161149f9060069060208401906143cd565b6118cf6040518060400160405280601081526020016f437265617465546f6b656e2d2d2d2d2d60801b8152506118c961315d565b33612e5f565b6000848152601660205260409020805460010190819055620f424081106119085760405162461bcd60e51b81526004016103b690615949565b600083118015611919575060148311155b80156119255750600082115b80156119345750620f42408211155b6119505760405162461bcd60e51b81526004016103b6906150ba565b60018451116119715760405162461bcd60e51b81526004016103b690615232565b6119a460405180604001604052806012815260200171437265617465546f6b656e2d2d2d2d2d203160701b815250610a1d565b6010546001600160a01b0316634ba3d748866119be61315d565b6040518363ffffffff1660e01b81526004016119db9291906159f5565b602060405180830381600087803b1580156119f557600080fd5b505af1158015611a09573d6000803e3d6000fd5b505050506040513d601f19601f82011682018060405250810190611a2d919061484c565b1515600114611a4e5760405162461bcd60e51b81526004016103b6906157cb565b611a816040518060400160405280601281526020017121b932b0ba32aa37b5b2b71696969696901960711b815250610a1d565b6000611a8d8683610ce7565b6000818152601260209081526040808320889055601590915290819020859055519091507f855f2403a3717b569ca6483cb3250554954ef4734871df9005e45eb9bffce8cf90611ae4908390889088908890615a5a565b60405180910390a1505050505050565b611b207ff6e33f9720e4529cb1c710e3344dc00830589a3239198ffa39b07117085d250e6107fc61315d565b611b2957600080fd5b60008181526007602090815260409091208351611b48928501906143cd565b505050565b6011546001600160a01b031681565b6010546001600160a01b031681565b60009081526016602052604090205490565b6000828152600560205260408120610afb9083613766565b6000828152600560205260408120610afb9083613772565b600081565b816001600160a01b0316611bc461315d565b6001600160a01b03161415611beb5760405162461bcd60e51b81526004016103b69061582e565b8060036000611bf861315d565b6001600160a01b03908116825260208083019390935260409182016000908120918716808252919093529120805460ff191692151592909217909155611c3c61315d565b6001600160a01b03167f17307eab39ab6107e8899845ad3d59bd9653f200f220920489ca2b5937696c3183604051611c749190614d6f565b60405180910390a35050565b600b54600160a81b900460ff16611ca95760405162461bcd60e51b81526004016103b690615977565b60008281526013602052604090205442118015611cd3575060008281526013602052604090205415155b611cef5760405162461bcd60e51b81526004016103b690615325565b4360176000611cfc61315d565b6001600160a01b03166001600160a01b031681526020019081526020016000205410611d2757600080fd5b4360176000611d3461315d565b6001600160a01b03166001600160a01b031681526020019081526020016000208190555060006008548381611d6557fe5b0490506000611d7384610adf565b9050600081118015611d855750828111155b611da15760405162461bcd60e51b81526004016103b69061545e565b600084815260146020526040908190208054600101905580516003808252608082019092526060918160200160208202803683375050600a5482519293506001600160a01b031691839150600090611df557fe5b6001600160a01b039283166020918202929092010152600b54825191169082906001908110611e2057fe5b6001600160a01b039283166020918202929092010152600f54825191169082906002908110611e4b57fe5b6001600160a01b0392831660209182029290920101526011546040516307c0329d60e21b81526060929190911690631f00ca7490611e8f9086908690600401615a0c565b60006040518083038186803b158015611ea757600080fd5b505afa158015611ebb573d6000803e3d6000fd5b505050506040513d6000823e601f3d908101601f19168201604052611ee391908101906147bd565b905080600081518110611ef257fe5b6020026020010151341015611f195760405162461bcd60e51b81526004016103b690614f99565b60115481516060916001600160a01b03169063fb3bdb41908490600090611f3c57fe5b6020026020010151868630426064016040518663ffffffff1660e01b8152600401611f6a9493929190615a25565b6000604051808303818588803b158015611f8357600080fd5b505af1158015611f97573d6000803e3d6000fd5b50505050506040513d6000823e601f3d908101601f19168201604052611fc091908101906147bd565b90503481600081518110611fd057fe5b6020026020010151101561206157336001600160a01b031661200f82600081518110611ff857fe5b60200260200101513461378790919063ffffffff16565b60405161201b906131b8565b60006040518083038185875af1925050503d8060008114612058576040519150601f19603f3d011682016040523d82523d6000602084013e61205d565b606091505b5050505b5060009150610ea990508260326131bb565b60156020526000908152604090205481565b7ff6e33f9720e4529cb1c710e3344dc00830589a3239198ffa39b07117085d250e81565b600081815260146020526040812054610afb6064610ebd605a611217878661119d565b600060085485816120d957fe5b0490506120e585612c43565b156121025760405162461bcd60e51b81526004016103b69061535c565b6010546001600160a01b0316634ba3d7488261211c61315d565b6040518363ffffffff1660e01b81526004016121399291906159f5565b602060405180830381600087803b15801561215357600080fd5b505af1158015612167573d6000803e3d6000fd5b505050506040513d601f19601f8201168201806040525081019061218b919061484c565b15156001146121ac5760405162461bcd60e51b81526004016103b690614fdd565b6000831180156121bd575060148311155b80156121c95750600082115b80156121d85750620f42408211155b6121f45760405162461bcd60e51b81526004016103b6906151d0565b60018451116122155760405162461bcd60e51b81526004016103b690615232565b6000858152601260205260409020546122405760405162461bcd60e51b81526004016103b690615207565b6000858152601260209081526040808320869055601590915290819020839055517f855f2403a3717b569ca6483cb3250554954ef4734871df9005e45eb9bffce8cf90612294908790879087908790615a5a565b60405180910390a15050505050565b6122b060006107fc61315d565b6122b957600080fd5b601180546001600160a01b0319166001600160a01b0392909216919091179055565b600f546001600160a01b031681565b6122f382612c43565b156123105760405162461bcd60e51b81526004016103b69061535c565b60008281526012602052604090205461233b5760405162461bcd60e51b81526004016103b690615207565b6000600854838161234857fe5b60105491900491506001600160a01b0316634ba3d7488261236761315d565b6040518363ffffffff1660e01b81526004016123849291906159f5565b602060405180830381600087803b15801561239e57600080fd5b505af11580156123b2573d6000803e3d6000fd5b505050506040513d601f19601f820116820180604052508101906123d6919061484c565b15156001146123f75760405162461bcd60e51b81526004016103b690614fdd565b42821080156124065750600082115b1561240f574291505b60008381526013602052604090819020839055517f6ce538f9e575f548476b624a738c3bc0bdf1ec4e465cacb3f7c67bef3926e20e906124529085908590615a86565b60405180910390a1505050565b600b54600160a81b900460ff166124885760405162461bcd60e51b81526004016103b690615977565b600083815260136020526040902054421180156124b2575060008381526013602052604090205415155b6124ce5760405162461bcd60e51b81526004016103b690615325565b43601760006124db61315d565b6001600160a01b03166001600160a01b03168152602001908152602001600020541061250657600080fd5b436017600061251361315d565b6001600160a01b03166001600160a01b03168152602001908152602001600020819055506000600854848161254457fe5b049050600061255285610adf565b90506000811180156125645750838111155b6125805760405162461bcd60e51b81526004016103b69061545e565b6000858152601460205260409081902080546001019055805160038082526080820190925260609181602001602082028036833701905050905083816000815181106125c857fe5b6001600160a01b039283166020918202929092010152600b548251911690829060019081106125f357fe5b6001600160a01b039283166020918202929092010152600f5482519116908290600290811061261e57fe5b6001600160a01b0392831660209182029290920101526011546040516307c0329d60e21b81526060929190911690631f00ca74906126629086908690600401615a0c565b60006040518083038186803b15801561267a57600080fd5b505afa15801561268e573d6000803e3d6000fd5b505050506040513d6000823e601f3d908101601f191682016040526126b691908101906147bd565b9050816000815181106126c557fe5b60200260200101516001600160a01b03166323b872dd3330846000815181106126ea57fe5b60200260200101516040518463ffffffff1660e01b815260040161271093929190614b73565b602060405180830381600087803b15801561272a57600080fd5b505af115801561273e573d6000803e3d6000fd5b505050506040513d601f19601f82011682018060405250810190612762919061484c565b508160008151811061277057fe5b60200260200101516001600160a01b031663095ea7b3601160009054906101000a90046001600160a01b0316836000815181106127a957fe5b60200260200101516040518363ffffffff1660e01b81526004016127ce929190614c2e565b602060405180830381600087803b1580156127e857600080fd5b505af11580156127fc573d6000803e3d6000fd5b505050506040513d601f19601f82011682018060405250810190612820919061484c565b5060115481516060916001600160a01b031690638803dbee908690859060009061284657fe5b60200260200101518630426064016040518663ffffffff1660e01b8152600401612874959493929190615a94565b600060405180830381600087803b15801561288e57600080fd5b505af11580156128a2573d6000803e3d6000fd5b505050506040513d6000823e601f3d908101601f191682016040526128ca91908101906147bd565b9050816000815181106128d957fe5b6020026020010151816000815181106128ee57fe5b602002602001015110156129ce578260008151811061290957fe5b60200260200101516001600160a01b03166323b872dd303361295c8560008151811061293157fe5b60200260200101518760008151811061294657fe5b602002602001015161378790919063ffffffff16565b6040518463ffffffff1660e01b815260040161297a93929190614b73565b602060405180830381600087803b15801561299457600080fd5b505af11580156129a8573d6000803e3d6000fd5b505050506040513d601f19601f820116820180604052508101906129cc919061484c565b505b50600091506129e090508260326131bb565b905060006129f46064610ebd8560086131fd565b9050612a19612a0161315d565b88600160405180602001604052806000815250613237565b836001600160a01b0316612a2b61315d565b6001600160a01b03167fa8f60c2735df0121f6c1fb70fdc37e927e3b21f7266de2beeace3ed35b8634d08986612a608c610adf565b612a698d6120a9565b60008e8152601460205260409081902054600f5491516370a0823160e01b815290918a916001600160a01b03909116906370a0823190612aad903090600401614b5f565b60206040518083038186803b158015612ac557600080fd5b505afa158015612ad9573d6000803e3d6000fd5b505050506040513d601f19601f82011682018060405250810190612afd9190614977565b604051612b109796959493929190615af8565b60405180910390a3600f54600e5460405163e2b8e7d360e01b81526001600160a01b039283169263e2b8e7d392612b51923092909116908790600401614b73565b600060405180830381600087803b158015612b6b57600080fd5b505af1158015612b7f573d6000803e3d6000fd5b5050600f5460405163e2b8e7d360e01b81526001600160a01b03909116925063e2b8e7d39150612bb790309088908690600401614b73565b600060405180830381600087803b158015612bd157600080fd5b505af1158015612be5573d6000803e3d6000fd5b5050505050505050505050565b6000818152600560205260408120610ab0906137c9565b600082815260056020526040902060020154612c27906107fc61315d565b6114eb5760405162461bcd60e51b81526004016103b6906153c2565b60009081526002602052604090205460ff1690565b6001600160a01b03918216600090815260036020908152604080832093909416825291909152205460ff1690565b60136020526000908152604090205481565b6001600160a01b038416612cbe5760405162461bcd60e51b81526004016103b6906154ba565b612cc661315d565b6001600160a01b0316856001600160a01b03161480612cec5750612cec856109ae61315d565b612d085760405162461bcd60e51b81526004016103b69061525e565b6000612d1261315d565b9050612d32818787612d23886137d4565b612d2c886137d4565b87613377565b612d79836040518060600160405280602a8152602001615cd3602a913960008781526001602090815260408083206001600160a01b038d168452909152902054919061343b565b60008581526001602090815260408083206001600160a01b038b81168552925280832093909355871681522054612db09084613352565b60008581526001602090815260408083206001600160a01b03808b168086529190935292819020939093559151909188811691908416907fc3d58168c5ae7397731d063d5bbf3d657854427343f4c083240f7aacaa2d0f6290612e169089908990615a86565b60405180910390a4611453818787878787613818565b600b546001600160a01b031681565b7ff0887ba65ee2024ea881d91b74c2450ef19e1557f03bed3ea9f16b037cbe2dc981565b611b48838383604051602401612e7793929190614d96565b60408051601f198184030181529190526020810180516001600160e01b03166307e763af60e51b179052613062565b60005b8351811015612fe3576000848281518110612ec057fe5b602002602001015160200151905060006002811115612edb57fe5b816002811115612ee757fe5b1415612f2a57612f25858381518110612efc57fe5b602002602001015160000151868481518110612f1457fe5b6020026020010151604001516138e9565b612fda565b6001816002811115612f3857fe5b1415612f7657612f25858381518110612f4d57fe5b602002602001015160000151868481518110612f6557fe5b602002602001015160400151613ae3565b6002816002811115612f8457fe5b1415612fc257612f25858381518110612f9957fe5b602002602001015160000151868481518110612fb157fe5b602002602001015160400151613cf9565b60405162461bcd60e51b81526004016103b6906152de565b50600101612ea9565b507f8faa70878671ccd212d20771b795c50af8fd3ff6cf27f4bde57e5d4de0aeb67383838360405161301793929190614c47565b60405180910390a1611b488282613db3565b7fc8fcad8db84d3cc18b4c41d551ea0ee66dd599cde068d998e57d5e09332c131c90565b6000610afb836001600160a01b038416613ed7565b80516a636f6e736f6c652e6c6f67602083016000808483855afa5050505050565b6060816130a857506040805180820190915260018152600360fc1b6020820152610ada565b8160005b81156130c057600101600a820491506130ac565b6060816001600160401b03811180156130d857600080fd5b506040519080825280601f01601f191660200182016040528015613103576020820181803683370190505b50859350905060001982015b831561315457600a840660300160f81b8282806001900393508151811061313257fe5b60200101906001600160f81b031916908160001a905350600a8404935061310f565b50949350505050565b6000333014156131b55760606000368080601f0160208091040260200160405190810160405280939291908181526020018383808284376000920191909152505050503601516001600160a01b031691506131b89050565b50335b90565b6000610afb83836040518060400160405280601a81526020017f536166654d6174683a206469766973696f6e206279207a65726f000000000000815250613f21565b60008261320c57506000610ab0565b8282028284828161321957fe5b0414610afb5760405162461bcd60e51b81526004016103b690615682565b6001600160a01b03841661325d5760405162461bcd60e51b81526004016103b690615908565b60008381526002602052604090205460ff1661328d576000838152600260205260409020805460ff191660011790555b600061329761315d565b90506132a981600087612d23886137d4565b60008481526001602090815260408083206001600160a01b03891684529091529020546132d69084613352565b60008581526001602090815260408083206001600160a01b03808b16808652919093528184209490945551908416907fc3d58168c5ae7397731d063d5bbf3d657854427343f4c083240f7aacaa2d0f62906133349089908990615a86565b60405180910390a461334b81600087878787613818565b5050505050565b600082820183811015610afb5760405162461bcd60e51b81526004016103b690615199565b6001600160a01b0384161561342d5760005b82518110156133cd5782818151811061339e57fe5b60200260200101516001146133c55760405162461bcd60e51b81526004016103b690615802565b600101613389565b506001600160a01b0385161561342d5760005b835181101561342b57613406858583815181106133f957fe5b6020026020010151610a63565b156134235760405162461bcd60e51b81526004016103b6906152a7565b6001016133e0565b505b611453868686868686611453565b6000818484111561345f5760405162461bcd60e51b81526004016103b69190614d83565b505050900390565b613479846001600160a01b0316613f58565b156114535760405163bc197c8160e01b81526001600160a01b0385169063bc197c81906134b29089908990889088908890600401614b97565b602060405180830381600087803b1580156134cc57600080fd5b505af19250505080156134fc575060408051601f3d908101601f191682019092526134f9918101906148df565b60015b61354557613508615b9a565b80613513575061352d565b8060405162461bcd60e51b81526004016103b69190614d83565b60405162461bcd60e51b81526004016103b690614dc9565b6001600160e01b0319811663bc197c8160e01b146135755760405162461bcd60e51b81526004016103b690614ebc565b50505050505050565b6000828152600560205260409020613596908261304d565b1561149f576135a361315d565b6001600160a01b0316816001600160a01b0316837f2f8788117e7eff1d82e926ec794901d17c78024a50270940304540a733656f0d60405160405180910390a45050565b60008281526005602052604090206135ff9082613f5e565b1561149f5761360c61315d565b6001600160a01b0316816001600160a01b0316837ff6391f5c32d9c69d2a47ea670b442974b53935d1edc7fd64eb21e047a839171b60405160405180910390a45050565b6001600160a01b0383166136765760405162461bcd60e51b81526004016103b6906155ae565b600061368061315d565b90506136b081856000613692876137d4565b61369b876137d4565b60405180602001604052806000815250613377565b6136f782604051806060016040528060248152602001615c636024913960008681526001602090815260408083206001600160a01b038b168452909152902054919061343b565b60008481526001602090815260408083206001600160a01b03808a16808652919093528184209490945551919291908416907fc3d58168c5ae7397731d063d5bbf3d657854427343f4c083240f7aacaa2d0f62906137589088908890615a86565b60405180910390a450505050565b6000610afb8383613f73565b6000610afb836001600160a01b038416613fb8565b6000610afb83836040518060400160405280601e81526020017f536166654d6174683a207375627472616374696f6e206f766572666c6f77000081525061343b565b6000610ab082613fd0565b60408051600180825281830190925260609182919060208083019080368337019050509050828160008151811061380757fe5b602090810291909101015292915050565b61382a846001600160a01b0316613f58565b156114535760405163f23a6e6160e01b81526001600160a01b0385169063f23a6e61906138639089908990889088908890600401614be9565b602060405180830381600087803b15801561387d57600080fd5b505af19250505080156138ad575060408051601f3d908101601f191682019092526138aa918101906148df565b60015b6138b957613508615b9a565b6001600160e01b0319811663f23a6e6160e01b146135755760405162461bcd60e51b81526004016103b690614ebc565b600081511161390a5760405162461bcd60e51b81526004016103b6906150f1565b6000613914613029565b90506001600160a01b03831661393c5760405162461bcd60e51b81526004016103b690615412565b6001600160a01b038316600090815260018201602052604090205461ffff81166139de5761398284604051806060016040528060248152602001615caf60249139613fd4565b6002820180546001600160a01b038616600081815260018087016020908152604083208201805461ffff191661ffff90961695909517909455845490810185559381529190912090910180546001600160a01b03191690911790555b60005b835181101561334b5760008482815181106139f857fe5b6020908102919091018101516001600160e01b031981166000908152918690526040909120549091506001600160a01b03168015613a485760405162461bcd60e51b81526004016103b6906156c3565b506001600160a01b0386166000818152600186810160209081526040808420805480850182559085528285206008820401805463ffffffff60079093166004026101000a928302191660e089901c929092029190911790556001600160e01b0319909516835287905292902080546001600160a01b03191690911761ffff60a01b1916600160a01b61ffff86160217905591820191016139e1565b6000815111613b045760405162461bcd60e51b81526004016103b6906150f1565b6000613b0e613029565b90506001600160a01b038316613b365760405162461bcd60e51b81526004016103b690615412565b6001600160a01b038316600090815260018201602052604090205461ffff8116613bd857613b7c84604051806060016040528060248152602001615caf60249139613fd4565b6002820180546001600160a01b038616600081815260018087016020908152604083208201805461ffff191661ffff90961695909517909455845490810185559381529190912090910180546001600160a01b03191690911790555b60005b835181101561334b576000848281518110613bf257fe5b6020908102919091018101516001600160e01b031981166000908152918690526040909120549091506001600160a01b03908116908716811415613c485760405162461bcd60e51b81526004016103b690615718565b613c528183613ff5565b506001600160e01b03198116600081815260208681526040808320805461ffff60a01b1916600160a01b61ffff8a16021781556001600160a01b038b168085526001808b018552928520805480850182559086528486206008820401805463ffffffff60079093166004026101000a928302191660e09990991c91909102979097179096559390925286905281546001600160a01b03191690921790559182019101613bdb565b6000815111613d1a5760405162461bcd60e51b81526004016103b6906150f1565b6000613d24613029565b90506001600160a01b03831615613d4d5760405162461bcd60e51b81526004016103b690615775565b60005b8251811015613dad576000838281518110613d6757fe5b6020908102919091018101516001600160e01b031981166000908152918590526040909120549091506001600160a01b0316613da38183613ff5565b5050600101613d50565b50505050565b6001600160a01b038216613de557805115613de05760405162461bcd60e51b81526004016103b690614e5f565b61149f565b6000815111613e065760405162461bcd60e51b81526004016103b690615551565b6001600160a01b0382163014613e3857613e3882604051806060016040528060288152602001615c8760289139613fd4565b60006060836001600160a01b031683604051613e549190614ac2565b600060405180830381855af49150503d8060008114613e8f576040519150601f19603f3d011682016040523d82523d6000602084013e613e94565b606091505b509150915081613dad57805115613ebf578060405162461bcd60e51b81526004016103b69190614d83565b60405162461bcd60e51b81526004016103b690614f04565b6000613ee38383613fb8565b613f1957508154600181810184556000848152602080822090930184905584548482528286019093526040902091909155610ab0565b506000610ab0565b60008183613f425760405162461bcd60e51b81526004016103b69190614d83565b506000838581613f4e57fe5b0495945050505050565b3b151590565b6000610afb836001600160a01b038416614307565b81546000908210613f965760405162461bcd60e51b81526004016103b690614e1d565b826000018281548110613fa557fe5b9060005260206000200154905092915050565b60009081526001919091016020526040902054151590565b5490565b813b8181613dad5760405162461bcd60e51b81526004016103b69190614d83565b6000613fff613029565b90506001600160a01b0383166140275760405162461bcd60e51b81526004016103b69061513c565b6001600160a01b0383163014156140505760405162461bcd60e51b81526004016103b6906155f1565b6001600160e01b03198216600090815260208281526040808320546001600160a01b03871684526001850190925290912054600160a01b90910461ffff169060001901808214614171576001600160a01b038516600090815260018401602052604081208054839081106140c057fe5b600091825260208083206008830401546001600160a01b038a168452600188019091526040909220805460079092166004026101000a90920460e01b92508291908590811061410b57fe5b600091825260208083206008830401805463ffffffff60079094166004026101000a938402191660e09590951c929092029390931790556001600160e01b031992909216825284905260409020805461ffff60a01b1916600160a01b61ffff8516021790555b6001600160a01b0385166000908152600184016020526040902080548061419457fe5b60008281526020808220600860001990940193840401805463ffffffff600460078716026101000a0219169055919092556001600160e01b0319861682528490526040902080546001600160b01b03191690558061334b5760028301546001600160a01b03861660009081526001858101602052604090912001546000199091019061ffff168082146142a857600085600201838154811061423257fe5b6000918252602090912001546002870180546001600160a01b03909216925082918490811061425d57fe5b600091825260208083209190910180546001600160a01b0319166001600160a01b0394851617905592909116815260018781019092526040902001805461ffff191661ffff83161790555b846002018054806142b557fe5b60008281526020808220830160001990810180546001600160a01b03191690559092019092556001600160a01b03891682526001878101909152604090912001805461ffff1916905550505050505050565b600081815260018301602052604081205480156143c3578354600019808301919081019060009087908390811061433a57fe5b906000526020600020015490508087600001848154811061435757fe5b60009182526020808320909101929092558281526001898101909252604090209084019055865487908061438757fe5b60019003818190600052602060002001600090559055866001016000878152602001908152602001600020600090556001945050505050610ab0565b6000915050610ab0565b828054600181600116156101000203166002900490600052602060002090601f016020900481019282601f1061440e57805160ff191683800117855561443b565b8280016001018555821561443b579182015b8281111561443b578251825591602001919060010190614420565b5061444792915061444b565b5090565b5b80821115614447576000815560010161444c565b80356001600160a01b0381168114610ada57600080fd5b600082601f830112614487578081fd5b813561449a61449582615b4b565b615b28565b8181529150602080830190848101818402860182018710156144bb57600080fd5b60005b848110156144da578135845292820192908201906001016144be565b505050505092915050565b600082601f8301126144f5578081fd5b81356001600160401b0381111561450857fe5b61451b601f8201601f1916602001615b28565b915080825283602082850101111561453257600080fd5b8060208401602084013760009082016020015292915050565b60006020828403121561455c578081fd5b610afb82614460565b60008060408385031215614577578081fd5b61458083614460565b915061458e60208401614460565b90509250929050565b600080600080600060a086880312156145ae578081fd5b6145b786614460565b94506145c560208701614460565b935060408601356001600160401b03808211156145e0578283fd5b6145ec89838a01614477565b94506060880135915080821115614601578283fd5b61460d89838a01614477565b93506080880135915080821115614622578283fd5b5061462f888289016144e5565b9150509295509295909350565b600080600080600060a08688031215614653578081fd5b61465c86614460565b945061466a60208701614460565b9350604086013592506060860135915060808601356001600160401b03811115614692578182fd5b61462f888289016144e5565b600080604083850312156146b0578182fd5b6146b983614460565b915060208301356146c981615c3e565b809150509250929050565b600080604083850312156146e6578182fd5b6146ef83614460565b946020939093013593505050565b6000806040838503121561470f578182fd5b82356001600160401b0380821115614725578384fd5b818501915085601f830112614738578384fd5b813561474661449582615b4b565b80828252602080830192508086018a828387028901011115614766578889fd5b8896505b8487101561478f5761477b81614460565b84526001969096019592810192810161476a565b5090965087013593505050808211156147a6578283fd5b506147b385828601614477565b9150509250929050565b600060208083850312156147cf578182fd5b82516001600160401b038111156147e4578283fd5b8301601f810185136147f4578283fd5b805161480261449582615b4b565b818152838101908385018584028501860189101561481e578687fd5b8694505b83851015614840578051835260019490940193918501918501614822565b50979650505050505050565b60006020828403121561485d578081fd5b8151610afb81615c3e565b600060208284031215614879578081fd5b5035919050565b60008060408385031215614892578182fd5b8235915061458e60208401614460565b600080604083850312156148b4578182fd5b50508035926020909101359150565b6000602082840312156148d4578081fd5b8135610afb81615c4c565b6000602082840312156148f0578081fd5b8151610afb81615c4c565b60006020828403121561490c578081fd5b81356001600160401b03811115614921578182fd5b61492d848285016144e5565b949350505050565b60008060408385031215614947578182fd5b82356001600160401b0381111561495c578283fd5b614968858286016144e5565b95602094909401359450505050565b600060208284031215614988578081fd5b5051919050565b600080600080608085870312156149a4578182fd5b8435935060208501356001600160401b038111156149c0578283fd5b6149cc878288016144e5565b949794965050505060408301359260600135919050565b6000806000606084860312156149f7578081fd5b8335925060208401359150614a0e60408501614460565b90509250925092565b6001600160a01b03169052565b6000815180845260208085019450808401835b83811015614a5c5781516001600160a01b031687529582019590820190600101614a37565b509495945050505050565b6000815180845260208085019450808401835b83811015614a5c57815187529582019590820190600101614a7a565b60008151808452614aae816020860160208601615b68565b601f01601f19169290920160200192915050565b60008251614ad4818460208701615b68565b9190910192915050565b6000808454600180821660008114614afd5760018114614b1457614b43565b60ff198316865260028304607f1686019350614b43565b600283048886526020808720875b83811015614b3b5781548a820152908501908201614b22565b505050860193505b5050508351614b56818360208801615b68565b01949350505050565b6001600160a01b0391909116815260200190565b6001600160a01b039384168152919092166020820152604081019190915260600190565b6001600160a01b0386811682528516602082015260a060408201819052600090614bc390830186614a67565b8281036060840152614bd58186614a67565b905082810360808401526112358185614a96565b6001600160a01b03868116825285166020820152604081018490526060810183905260a060808201819052600090614c2390830184614a96565b979650505050505050565b6001600160a01b03929092168252602082015260400190565b606080825284518282018190526000919060809081850190602080820287018401818b01875b84811015614cff57898303607f19018652815180516001600160a01b03168452848101518985019060038110614c9f57fe5b858701526040918201519185018a9052815190819052908501908a90898601905b80831015614cea5783516001600160e01b0319168252928701926001929092019190870190614cc0565b50978601979450505090830190600101614c6d565b5050614d0d8289018b614a17565b8781036040890152614d1f818a614a96565b9b9a5050505050505050505050565b600060208252610afb6020830184614a67565b600060408252614d546040830185614a67565b8281036020840152614d668185614a67565b95945050505050565b901515815260200190565b90815260200190565b600060208252610afb6020830184614a96565b600060608252614da96060830186614a96565b6001600160a01b0394851660208401529290931660409091015292915050565b60208082526034908201527f455243313135353a207472616e7366657220746f206e6f6e20455243313135356040820152732932b1b2b4bb32b91034b6b83632b6b2b73a32b960611b606082015260800190565b60208082526022908201527f456e756d657261626c655365743a20696e646578206f7574206f6620626f756e604082015261647360f01b606082015260800190565b6020808252603c908201527f4c69624469616d6f6e644375743a205f696e697420697320616464726573732860408201527f3029206275745f63616c6c64617461206973206e6f7420656d70747900000000606082015260800190565b60208082526028908201527f455243313135353a204552433131353552656365697665722072656a656374656040820152676420746f6b656e7360c01b606082015260800190565b60208082526026908201527f4c69624469616d6f6e644375743a205f696e69742066756e6374696f6e2072656040820152651d995c9d195960d21b606082015260800190565b6020808252602f908201527f416363657373436f6e74726f6c3a2073656e646572206d75737420626520616e60408201526e0818591b5a5b881d1bc819dc985b9d608a1b606082015260800190565b60208082526024908201527f6275794e4654776974684d617469633a2076616c7565206973206e6f7420656e6040820152630deeaced60e31b606082015260800190565b60208082526021908201527f73656e646572206d757374206265206f70657261746f72206f7220776f726b656040820152603960f91b606082015260800190565b6020808252602b908201527f455243313135353a2062616c616e636520717565727920666f7220746865207a60408201526a65726f206164647265737360a81b606082015260800190565b60208082526031908201527f455243313135353a2062617463682062616c616e636520717565727920666f7260408201527020746865207a65726f206164647265737360781b606082015260800190565b6020808252601d908201527f696e76616c696420637572766520616e64206d756c7469706c69657273000000604082015260600190565b6020808252602b908201527f4c69624469616d6f6e644375743a204e6f2073656c6563746f727320696e206660408201526a1858d95d081d1bc818dd5d60aa1b606082015260800190565b60208082526037908201527f4c69624469616d6f6e644375743a2043616e27742072656d6f76652066756e6360408201527f74696f6e207468617420646f65736e2774206578697374000000000000000000606082015260800190565b6020808252601b908201527f536166654d6174683a206164646974696f6e206f766572666c6f770000000000604082015260600190565b6020808252601c908201527f696e76616c6964206375727665206f72206d756c7469706c6965727300000000604082015260600190565b60208082526011908201527018dd5c9d99481b5d5cdd081899481cd95d607a1b604082015260600190565b6020808252601290820152711a9cdbdb881b5d5cdd081b9bdb881b9d5b1b60721b604082015260600190565b60208082526029908201527f455243313135353a2063616c6c6572206973206e6f74206f776e6572206e6f7260408201526808185c1c1c9bdd995960ba1b606082015260800190565b6020808252601f908201527f746f5f616464726573732073686f756c64206f776e2030206f66206561636800604082015260600190565b60208082526027908201527f4c69624469616d6f6e644375743a20496e636f727265637420466163657443756040820152663a20b1ba34b7b760c91b606082015260800190565b60208082526018908201527f73616c6520686173206e6f742073746172746564207965740000000000000000604082015260600190565b60208082526019908201527f746f6b656e20686173206e6f74206265656e206d696e74656400000000000000604082015260600190565b6020808252601590820152746275726e696e67206973206e6f742061637469766560581b604082015260600190565b60208082526030908201527f416363657373436f6e74726f6c3a2073656e646572206d75737420626520616e60408201526f2061646d696e20746f207265766f6b6560801b606082015260800190565b6020808252602c908201527f4c69624469616d6f6e644375743a204164642066616365742063616e2774206260408201526b65206164647265737328302960a01b606082015260800190565b6020808252600d908201526c696e76616c696420707269636560981b604082015260600190565b6020808252818101527f4469616d6f6e643a2046756e6374696f6e20646f6573206e6f74206578697374604082015260600190565b60208082526025908201527f455243313135353a207472616e7366657220746f20746865207a65726f206164604082015264647265737360d81b606082015260800190565b60208082526032908201527f455243313135353a207472616e736665722063616c6c6572206973206e6f74206040820152711bdddb995c881b9bdc88185c1c1c9bdd995960721b606082015260800190565b6020808252603d908201527f4c69624469616d6f6e644375743a205f63616c6c6461746120697320656d707460408201527f7920627574205f696e6974206973206e6f742061646472657373283029000000606082015260800190565b60208082526023908201527f455243313135353a206275726e2066726f6d20746865207a65726f206164647260408201526265737360e81b606082015260800190565b6020808252602e908201527f4c69624469616d6f6e644375743a2043616e27742072656d6f766520696d6d7560408201526d3a30b1363290333ab731ba34b7b760911b606082015260800190565b60208082526023908201527f73656e646572206d7573742068617665206174206c65617374206f6e6520746f60408201526235b2b760e91b606082015260800190565b60208082526021908201527f536166654d6174683a206d756c7469706c69636174696f6e206f766572666c6f6040820152607760f81b606082015260800190565b60208082526035908201527f4c69624469616d6f6e644375743a2043616e2774206164642066756e6374696f6040820152746e207468617420616c72656164792065786973747360581b606082015260800190565b60208082526038908201527f4c69624469616d6f6e644375743a2043616e2774207265706c6163652066756e60408201527f6374696f6e20776974682073616d652066756e6374696f6e0000000000000000606082015260800190565b60208082526036908201527f4c69624469616d6f6e644375743a2052656d6f76652066616365742061646472604082015275657373206d757374206265206164647265737328302960501b606082015260800190565b6020808252601f908201527f73656e646572206d757374206265206d696e696f6e206f7220776f726b657200604082015260600190565b602080825260129082015271416d6f756e742073686f756c64206265203160701b604082015260600190565b60208082526029908201527f455243313135353a2073657474696e6720617070726f76616c20737461747573604082015268103337b91039b2b63360b91b606082015260800190565b60208082526029908201527f455243313135353a206163636f756e747320616e6420696473206c656e677468604082015268040dad2e6dac2e8c6d60bb1b606082015260800190565b60208082526028908201527f455243313135353a2069647320616e6420616d6f756e7473206c656e677468206040820152670dad2e6dac2e8c6d60c31b606082015260800190565b60208082526021908201527f455243313135353a206d696e7420746f20746865207a65726f206164647265736040820152607360f81b606082015260800190565b60208082526014908201527306d617820746f6b656e206f6620313030303030360641b604082015260600190565b6020808252601590820152746d696e74696e67206973206e6f742061637469766560581b604082015260600190565b6020808252602f908201527f416363657373436f6e74726f6c3a2063616e206f6e6c792072656e6f756e636560408201526e103937b632b9903337b91039b2b63360891b606082015260800190565b9182526001600160a01b0316602082015260400190565b60008382526040602083015261492d6040830184614a24565b600085825260806020830152615a3e6080830186614a24565b6001600160a01b03949094166040830152506060015292915050565b600085825260806020830152615a736080830186614a96565b6040830194909452506060015292915050565b918252602082015260400190565b600086825285602083015260a06040830152615ab360a0830186614a24565b6001600160a01b0394909416606083015250608001529392505050565b958652602086019490945260408501929092526060840152608083015260a082015260c00190565b968752602087019590955260408601939093526060850191909152608084015260a083015260c082015260e00190565b6040518181016001600160401b0381118282101715615b4357fe5b604052919050565b60006001600160401b03821115615b5e57fe5b5060209081020190565b60005b83811015615b83578181015183820152602001615b6b565b83811115613dad5750506000910152565b60e01c90565b600060443d1015615baa576131b8565b600481823e6308c379a0615bbe8251615b94565b14615bc8576131b8565b6040513d600319016004823e80513d6001600160401b038160248401118184111715615bf757505050506131b8565b82840192508251915080821115615c1157505050506131b8565b503d83016020828401011115615c29575050506131b8565b601f01601f1916810160200160405291505090565b8015158114610a6057600080fd5b6001600160e01b031981168114610a6057600080fdfe455243313135353a206275726e20616d6f756e7420657863656564732062616c616e63654c69624469616d6f6e644375743a205f696e6974206164647265737320686173206e6f20636f64654c69624469616d6f6e644375743a204e657720666163657420686173206e6f20636f6465455243313135353a20696e73756666696369656e742062616c616e636520666f72207472616e73666572a26469706673582212205e2f6e73179b2fc32e78d851df25e1ca96aa516ba4517579975a6159c55ca6c964736f6c63430007030033f0887ba65ee2024ea881d91b74c2450ef19e1557f03bed3ea9f16b037cbe2dc9f6e33f9720e4529cb1c710e3344dc00830589a3239198ffa39b07117085d250e4c69624469616d6f6e644375743a205f696e6974206164647265737320686173206e6f20636f64654c69624469616d6f6e644375743a204e657720666163657420686173206e6f20636f6465",
  "linkReferences": {},
  "deployedLinkReferences": {}
}