{
  "_format": "hh-sol-artifact-1",
  "contractName": "BondingSale",
  "sourceName": "contracts/BondingSale.sol",
  "abi": [
    {
      "inputs": [
        {
          "components": [
            {
              "internalType": "address",
              "name": "facetAddress",
              "type": "address"
            },
            {
              "internalType": "enum IDiamondCut.FacetCutAction",
              "name": "action",
              "type": "uint8"
            },
            {
              "internalType": "bytes4[]",
              "name": "functionSelectors",
              "type": "bytes4[]"
            }
          ],
          "internalType": "struct IDiamondCut.FacetCut[]",
          "name": "_diamondCut",
          "type": "tuple[]"
        },
        {
          "components": [
            {
              "internalType": "address",
              "name": "gameToken",
              "type": "address"
            },
            {
              "internalType": "address",
              "name": "gameAdmin",
              "type": "address"
            },
            {
              "internalType": "address",
              "name": "gameMaster",
              "type": "address"
            }
          ],
          "internalType": "struct BondingSale.DiamondArgs",
          "name": "_args",
          "type": "tuple"
        }
      ],
      "stateMutability": "payable",
      "type": "constructor"
    },
    {
      "anonymous": false,
      "inputs": [
        {
          "indexed": true,
          "internalType": "address",
          "name": "account",
          "type": "address"
        },
        {
          "indexed": true,
          "internalType": "address",
          "name": "operator",
          "type": "address"
        },
        {
          "indexed": false,
          "internalType": "bool",
          "name": "approved",
          "type": "bool"
        }
      ],
      "name": "ApprovalForAll",
      "type": "event"
    },
    {
      "anonymous": false,
      "inputs": [
        {
          "indexed": true,
          "internalType": "bytes32",
          "name": "role",
          "type": "bytes32"
        },
        {
          "indexed": true,
          "internalType": "bytes32",
          "name": "previousAdminRole",
          "type": "bytes32"
        },
        {
          "indexed": true,
          "internalType": "bytes32",
          "name": "newAdminRole",
          "type": "bytes32"
        }
      ],
      "name": "RoleAdminChanged",
      "type": "event"
    },
    {
      "anonymous": false,
      "inputs": [
        {
          "indexed": true,
          "internalType": "bytes32",
          "name": "role",
          "type": "bytes32"
        },
        {
          "indexed": true,
          "internalType": "address",
          "name": "account",
          "type": "address"
        },
        {
          "indexed": true,
          "internalType": "address",
          "name": "sender",
          "type": "address"
        }
      ],
      "name": "RoleGranted",
      "type": "event"
    },
    {
      "anonymous": false,
      "inputs": [
        {
          "indexed": true,
          "internalType": "bytes32",
          "name": "role",
          "type": "bytes32"
        },
        {
          "indexed": true,
          "internalType": "address",
          "name": "account",
          "type": "address"
        },
        {
          "indexed": true,
          "internalType": "address",
          "name": "sender",
          "type": "address"
        }
      ],
      "name": "RoleRevoked",
      "type": "event"
    },
    {
      "anonymous": false,
      "inputs": [
        {
          "indexed": true,
          "internalType": "address",
          "name": "to",
          "type": "address"
        },
        {
          "indexed": false,
          "internalType": "uint256",
          "name": "id",
          "type": "uint256"
        },
        {
          "indexed": false,
          "internalType": "uint256",
          "name": "pricePaid",
          "type": "uint256"
        },
        {
          "indexed": false,
          "internalType": "uint256",
          "name": "nextPrintPrice",
          "type": "uint256"
        },
        {
          "indexed": false,
          "internalType": "uint256",
          "name": "nextBurnPrice",
          "type": "uint256"
        },
        {
          "indexed": false,
          "internalType": "uint256",
          "name": "tokenSupply",
          "type": "uint256"
        },
        {
          "indexed": false,
          "internalType": "uint256",
          "name": "royaltyPaid",
          "type": "uint256"
        },
        {
          "indexed": false,
          "internalType": "uint256",
          "name": "reserve",
          "type": "uint256"
        },
        {
          "indexed": true,
          "internalType": "address",
          "name": "royaltyRecipient",
          "type": "address"
        }
      ],
      "name": "TokenBought",
      "type": "event"
    },
    {
      "anonymous": false,
      "inputs": [
        {
          "indexed": true,
          "internalType": "address",
          "name": "to",
          "type": "address"
        },
        {
          "indexed": false,
          "internalType": "uint256",
          "name": "id",
          "type": "uint256"
        },
        {
          "indexed": false,
          "internalType": "uint256",
          "name": "priceReceived",
          "type": "uint256"
        },
        {
          "indexed": false,
          "internalType": "uint256",
          "name": "nextPrintPrice",
          "type": "uint256"
        },
        {
          "indexed": false,
          "internalType": "uint256",
          "name": "nextBurnPrice",
          "type": "uint256"
        },
        {
          "indexed": false,
          "internalType": "uint256",
          "name": "printsSupply",
          "type": "uint256"
        },
        {
          "indexed": false,
          "internalType": "uint256",
          "name": "reserve",
          "type": "uint256"
        }
      ],
      "name": "TokenBurned",
      "type": "event"
    },
    {
      "anonymous": false,
      "inputs": [
        {
          "indexed": false,
          "internalType": "uint256",
          "name": "tokenId",
          "type": "uint256"
        },
        {
          "indexed": false,
          "internalType": "string",
          "name": "json",
          "type": "string"
        },
        {
          "indexed": false,
          "internalType": "uint256",
          "name": "curve",
          "type": "uint256"
        },
        {
          "indexed": false,
          "internalType": "uint256",
          "name": "multiplier",
          "type": "uint256"
        }
      ],
      "name": "TokenData",
      "type": "event"
    },
    {
      "anonymous": false,
      "inputs": [
        {
          "indexed": false,
          "internalType": "uint256",
          "name": "id",
          "type": "uint256"
        },
        {
          "indexed": false,
          "internalType": "uint256",
          "name": "date",
          "type": "uint256"
        }
      ],
      "name": "TokenOnSale",
      "type": "event"
    },
    {
      "anonymous": false,
      "inputs": [
        {
          "indexed": true,
          "internalType": "address",
          "name": "operator",
          "type": "address"
        },
        {
          "indexed": true,
          "internalType": "address",
          "name": "from",
          "type": "address"
        },
        {
          "indexed": true,
          "internalType": "address",
          "name": "to",
          "type": "address"
        },
        {
          "indexed": false,
          "internalType": "uint256[]",
          "name": "ids",
          "type": "uint256[]"
        },
        {
          "indexed": false,
          "internalType": "uint256[]",
          "name": "values",
          "type": "uint256[]"
        }
      ],
      "name": "TransferBatch",
      "type": "event"
    },
    {
      "anonymous": false,
      "inputs": [
        {
          "indexed": true,
          "internalType": "address",
          "name": "operator",
          "type": "address"
        },
        {
          "indexed": true,
          "internalType": "address",
          "name": "from",
          "type": "address"
        },
        {
          "indexed": true,
          "internalType": "address",
          "name": "to",
          "type": "address"
        },
        {
          "indexed": false,
          "internalType": "uint256",
          "name": "id",
          "type": "uint256"
        },
        {
          "indexed": false,
          "internalType": "uint256",
          "name": "value",
          "type": "uint256"
        }
      ],
      "name": "TransferSingle",
      "type": "event"
    },
    {
      "anonymous": false,
      "inputs": [
        {
          "indexed": false,
          "internalType": "string",
          "name": "value",
          "type": "string"
        },
        {
          "indexed": true,
          "internalType": "uint256",
          "name": "id",
          "type": "uint256"
        }
      ],
      "name": "URI",
      "type": "event"
    },
    {
      "stateMutability": "payable",
      "type": "fallback"
    },
    {
      "inputs": [],
      "name": "BURNER",
      "outputs": [
        {
          "internalType": "bytes32",
          "name": "",
          "type": "bytes32"
        }
      ],
      "stateMutability": "view",
      "type": "function"
    },
    {
      "inputs": [
        {
          "internalType": "uint256",
          "name": "creatorId",
          "type": "uint256"
        },
        {
          "internalType": "string",
          "name": "json",
          "type": "string"
        },
        {
          "internalType": "uint256",
          "name": "curve",
          "type": "uint256"
        },
        {
          "internalType": "uint256",
          "name": "multiplier",
          "type": "uint256"
        }
      ],
      "name": "CreateToken",
      "outputs": [],
      "stateMutability": "nonpayable",
      "type": "function"
    },
    {
      "inputs": [],
      "name": "DEFAULT_ADMIN_ROLE",
      "outputs": [
        {
          "internalType": "bytes32",
          "name": "",
          "type": "bytes32"
        }
      ],
      "stateMutability": "view",
      "type": "function"
    },
    {
      "inputs": [],
      "name": "MAX_PRICE",
      "outputs": [
        {
          "internalType": "uint256",
          "name": "",
          "type": "uint256"
        }
      ],
      "stateMutability": "view",
      "type": "function"
    },
    {
      "inputs": [],
      "name": "METADATA_ADMIN",
      "outputs": [
        {
          "internalType": "bytes32",
          "name": "",
          "type": "bytes32"
        }
      ],
      "stateMutability": "view",
      "type": "function"
    },
    {
      "inputs": [],
      "name": "MINTER",
      "outputs": [
        {
          "internalType": "bytes32",
          "name": "",
          "type": "bytes32"
        }
      ],
      "stateMutability": "view",
      "type": "function"
    },
    {
      "inputs": [
        {
          "internalType": "uint256",
          "name": "tokenId",
          "type": "uint256"
        },
        {
          "internalType": "uint256",
          "name": "onSaleDate",
          "type": "uint256"
        }
      ],
      "name": "SetTokenOnSaleDate",
      "outputs": [],
      "stateMutability": "nonpayable",
      "type": "function"
    },
    {
      "inputs": [
        {
          "internalType": "uint256",
          "name": "",
          "type": "uint256"
        }
      ],
      "name": "TokenSupply",
      "outputs": [
        {
          "internalType": "uint256",
          "name": "",
          "type": "uint256"
        }
      ],
      "stateMutability": "view",
      "type": "function"
    },
    {
      "inputs": [
        {
          "internalType": "uint256",
          "name": "tokenId",
          "type": "uint256"
        },
        {
          "internalType": "string",
          "name": "json",
          "type": "string"
        },
        {
          "internalType": "uint256",
          "name": "curve",
          "type": "uint256"
        },
        {
          "internalType": "uint256",
          "name": "multiplier",
          "type": "uint256"
        }
      ],
      "name": "UpdateTokenData",
      "outputs": [],
      "stateMutability": "nonpayable",
      "type": "function"
    },
    {
      "inputs": [
        {
          "internalType": "uint256",
          "name": "",
          "type": "uint256"
        }
      ],
      "name": "_tokenURIs",
      "outputs": [
        {
          "internalType": "string",
          "name": "",
          "type": "string"
        }
      ],
      "stateMutability": "view",
      "type": "function"
    },
    {
      "inputs": [
        {
          "internalType": "address",
          "name": "account",
          "type": "address"
        },
        {
          "internalType": "uint256",
          "name": "id",
          "type": "uint256"
        }
      ],
      "name": "balanceOf",
      "outputs": [
        {
          "internalType": "uint256",
          "name": "",
          "type": "uint256"
        }
      ],
      "stateMutability": "view",
      "type": "function"
    },
    {
      "inputs": [
        {
          "internalType": "address[]",
          "name": "accounts",
          "type": "address[]"
        },
        {
          "internalType": "uint256[]",
          "name": "ids",
          "type": "uint256[]"
        }
      ],
      "name": "balanceOfBatch",
      "outputs": [
        {
          "internalType": "uint256[]",
          "name": "",
          "type": "uint256[]"
        }
      ],
      "stateMutability": "view",
      "type": "function"
    },
    {
      "inputs": [
        {
          "internalType": "uint256",
          "name": "tokenId",
          "type": "uint256"
        }
      ],
      "name": "burn",
      "outputs": [],
      "stateMutability": "nonpayable",
      "type": "function"
    },
    {
      "inputs": [],
      "name": "burningActive",
      "outputs": [
        {
          "internalType": "bool",
          "name": "",
          "type": "bool"
        }
      ],
      "stateMutability": "view",
      "type": "function"
    },
    {
      "inputs": [
        {
          "internalType": "uint256",
          "name": "tokenId",
          "type": "uint256"
        },
        {
          "internalType": "uint256",
          "name": "maxPrice",
          "type": "uint256"
        },
        {
          "internalType": "address",
          "name": "asset",
          "type": "address"
        }
      ],
      "name": "buyNFTwithERC20",
      "outputs": [],
      "stateMutability": "nonpayable",
      "type": "function"
    },
    {
      "inputs": [
        {
          "internalType": "uint256",
          "name": "tokenId",
          "type": "uint256"
        },
        {
          "internalType": "uint256",
          "name": "maxPrice",
          "type": "uint256"
        }
      ],
      "name": "buyNFTwithGAME",
      "outputs": [],
      "stateMutability": "nonpayable",
      "type": "function"
    },
    {
      "inputs": [
        {
          "internalType": "uint256",
          "name": "tokenId",
          "type": "uint256"
        },
        {
          "internalType": "uint256",
          "name": "maxPrice",
          "type": "uint256"
        }
      ],
      "name": "buyNFTwithMatic",
      "outputs": [],
      "stateMutability": "payable",
      "type": "function"
    },
    {
      "inputs": [
        {
          "internalType": "bytes",
          "name": "functionSignature_",
          "type": "bytes"
        },
        {
          "internalType": "address",
          "name": "userAddress_",
          "type": "address"
        }
      ],
      "name": "callFunc",
      "outputs": [],
      "stateMutability": "nonpayable",
      "type": "function"
    },
    {
      "inputs": [
        {
          "internalType": "uint256",
          "name": "",
          "type": "uint256"
        }
      ],
      "name": "curves",
      "outputs": [
        {
          "internalType": "uint256",
          "name": "",
          "type": "uint256"
        }
      ],
      "stateMutability": "view",
      "type": "function"
    },
    {
      "inputs": [],
      "name": "gameAdmin",
      "outputs": [
        {
          "internalType": "contract iGAME_Game",
          "name": "",
          "type": "address"
        }
      ],
      "stateMutability": "view",
      "type": "function"
    },
    {
      "inputs": [],
      "name": "gameToken",
      "outputs": [
        {
          "internalType": "contract iGAME_ERC20",
          "name": "",
          "type": "address"
        }
      ],
      "stateMutability": "view",
      "type": "function"
    },
    {
      "inputs": [
        {
          "internalType": "uint256",
          "name": "tokenId",
          "type": "uint256"
        }
      ],
      "name": "getBuyPrice",
      "outputs": [
        {
          "internalType": "uint256",
          "name": "",
          "type": "uint256"
        }
      ],
      "stateMutability": "view",
      "type": "function"
    },
    {
      "inputs": [
        {
          "internalType": "uint256",
          "name": "creator",
          "type": "uint256"
        }
      ],
      "name": "getNextTokenID",
      "outputs": [
        {
          "internalType": "uint256",
          "name": "",
          "type": "uint256"
        }
      ],
      "stateMutability": "view",
      "type": "function"
    },
    {
      "inputs": [
        {
          "internalType": "uint256",
          "name": "tokenId",
          "type": "uint256"
        },
        {
          "internalType": "uint256",
          "name": "printNumber",
          "type": "uint256"
        }
      ],
      "name": "getPrintPrice",
      "outputs": [
        {
          "internalType": "uint256",
          "name": "",
          "type": "uint256"
        }
      ],
      "stateMutability": "view",
      "type": "function"
    },
    {
      "inputs": [
        {
          "internalType": "bytes32",
          "name": "role",
          "type": "bytes32"
        }
      ],
      "name": "getRoleAdmin",
      "outputs": [
        {
          "internalType": "bytes32",
          "name": "",
          "type": "bytes32"
        }
      ],
      "stateMutability": "view",
      "type": "function"
    },
    {
      "inputs": [
        {
          "internalType": "bytes32",
          "name": "role",
          "type": "bytes32"
        },
        {
          "internalType": "uint256",
          "name": "index",
          "type": "uint256"
        }
      ],
      "name": "getRoleMember",
      "outputs": [
        {
          "internalType": "address",
          "name": "",
          "type": "address"
        }
      ],
      "stateMutability": "view",
      "type": "function"
    },
    {
      "inputs": [
        {
          "internalType": "bytes32",
          "name": "role",
          "type": "bytes32"
        }
      ],
      "name": "getRoleMemberCount",
      "outputs": [
        {
          "internalType": "uint256",
          "name": "",
          "type": "uint256"
        }
      ],
      "stateMutability": "view",
      "type": "function"
    },
    {
      "inputs": [
        {
          "internalType": "uint256",
          "name": "tokenId",
          "type": "uint256"
        }
      ],
      "name": "getSellPrice",
      "outputs": [
        {
          "internalType": "uint256",
          "name": "",
          "type": "uint256"
        }
      ],
      "stateMutability": "view",
      "type": "function"
    },
    {
      "inputs": [
        {
          "internalType": "uint256",
          "name": "_creatorID",
          "type": "uint256"
        },
        {
          "internalType": "uint256",
          "name": "token",
          "type": "uint256"
        }
      ],
      "name": "getTokenID",
      "outputs": [
        {
          "internalType": "uint256",
          "name": "",
          "type": "uint256"
        }
      ],
      "stateMutability": "view",
      "type": "function"
    },
    {
      "inputs": [
        {
          "internalType": "bytes32",
          "name": "role",
          "type": "bytes32"
        },
        {
          "internalType": "address",
          "name": "account",
          "type": "address"
        }
      ],
      "name": "grantRole",
      "outputs": [],
      "stateMutability": "nonpayable",
      "type": "function"
    },
    {
      "inputs": [
        {
          "internalType": "uint256",
          "name": "id",
          "type": "uint256"
        }
      ],
      "name": "hasMinted",
      "outputs": [
        {
          "internalType": "bool",
          "name": "",
          "type": "bool"
        }
      ],
      "stateMutability": "view",
      "type": "function"
    },
    {
      "inputs": [
        {
          "internalType": "bytes32",
          "name": "role",
          "type": "bytes32"
        },
        {
          "internalType": "address",
          "name": "account",
          "type": "address"
        }
      ],
      "name": "hasRole",
      "outputs": [
        {
          "internalType": "bool",
          "name": "",
          "type": "bool"
        }
      ],
      "stateMutability": "view",
      "type": "function"
    },
    {
      "inputs": [
        {
          "internalType": "address",
          "name": "account",
          "type": "address"
        },
        {
          "internalType": "address",
          "name": "operator",
          "type": "address"
        }
      ],
      "name": "isApprovedForAll",
      "outputs": [
        {
          "internalType": "bool",
          "name": "",
          "type": "bool"
        }
      ],
      "stateMutability": "view",
      "type": "function"
    },
    {
      "inputs": [],
      "name": "mintingActive",
      "outputs": [
        {
          "internalType": "bool",
          "name": "",
          "type": "bool"
        }
      ],
      "stateMutability": "view",
      "type": "function"
    },
    {
      "inputs": [],
      "name": "multiple",
      "outputs": [
        {
          "internalType": "uint256",
          "name": "",
          "type": "uint256"
        }
      ],
      "stateMutability": "view",
      "type": "function"
    },
    {
      "inputs": [
        {
          "internalType": "uint256",
          "name": "",
          "type": "uint256"
        }
      ],
      "name": "multipliers",
      "outputs": [
        {
          "internalType": "uint256",
          "name": "",
          "type": "uint256"
        }
      ],
      "stateMutability": "view",
      "type": "function"
    },
    {
      "inputs": [
        {
          "internalType": "uint256",
          "name": "",
          "type": "uint256"
        }
      ],
      "name": "nextTokenIDs",
      "outputs": [
        {
          "internalType": "uint256",
          "name": "",
          "type": "uint256"
        }
      ],
      "stateMutability": "view",
      "type": "function"
    },
    {
      "inputs": [],
      "name": "quick",
      "outputs": [
        {
          "internalType": "address",
          "name": "",
          "type": "address"
        }
      ],
      "stateMutability": "view",
      "type": "function"
    },
    {
      "inputs": [
        {
          "internalType": "bytes32",
          "name": "role",
          "type": "bytes32"
        },
        {
          "internalType": "address",
          "name": "account",
          "type": "address"
        }
      ],
      "name": "renounceRole",
      "outputs": [],
      "stateMutability": "nonpayable",
      "type": "function"
    },
    {
      "inputs": [
        {
          "internalType": "bytes32",
          "name": "role",
          "type": "bytes32"
        },
        {
          "internalType": "address",
          "name": "account",
          "type": "address"
        }
      ],
      "name": "revokeRole",
      "outputs": [],
      "stateMutability": "nonpayable",
      "type": "function"
    },
    {
      "inputs": [
        {
          "internalType": "address",
          "name": "from",
          "type": "address"
        },
        {
          "internalType": "address",
          "name": "to",
          "type": "address"
        },
        {
          "internalType": "uint256[]",
          "name": "ids",
          "type": "uint256[]"
        },
        {
          "internalType": "uint256[]",
          "name": "amounts",
          "type": "uint256[]"
        },
        {
          "internalType": "bytes",
          "name": "data",
          "type": "bytes"
        }
      ],
      "name": "safeBatchTransferFrom",
      "outputs": [],
      "stateMutability": "nonpayable",
      "type": "function"
    },
    {
      "inputs": [
        {
          "internalType": "address",
          "name": "from",
          "type": "address"
        },
        {
          "internalType": "address",
          "name": "to",
          "type": "address"
        },
        {
          "internalType": "uint256",
          "name": "id",
          "type": "uint256"
        },
        {
          "internalType": "uint256",
          "name": "amount",
          "type": "uint256"
        },
        {
          "internalType": "bytes",
          "name": "data",
          "type": "bytes"
        }
      ],
      "name": "safeTransferFrom",
      "outputs": [],
      "stateMutability": "nonpayable",
      "type": "function"
    },
    {
      "inputs": [
        {
          "internalType": "uint256",
          "name": "",
          "type": "uint256"
        }
      ],
      "name": "saleStarts",
      "outputs": [
        {
          "internalType": "uint256",
          "name": "",
          "type": "uint256"
        }
      ],
      "stateMutability": "view",
      "type": "function"
    },
    {
      "inputs": [
        {
          "internalType": "address",
          "name": "operator",
          "type": "address"
        },
        {
          "internalType": "bool",
          "name": "approved",
          "type": "bool"
        }
      ],
      "name": "setApprovalForAll",
      "outputs": [],
      "stateMutability": "nonpayable",
      "type": "function"
    },
    {
      "inputs": [
        {
          "internalType": "string",
          "name": "newuri",
          "type": "string"
        }
      ],
      "name": "setBaseURI",
      "outputs": [],
      "stateMutability": "nonpayable",
      "type": "function"
    },
    {
      "inputs": [
        {
          "internalType": "address",
          "name": "a",
          "type": "address"
        }
      ],
      "name": "setFEERECEIVER",
      "outputs": [],
      "stateMutability": "nonpayable",
      "type": "function"
    },
    {
      "inputs": [
        {
          "internalType": "string",
          "name": "newuri",
          "type": "string"
        },
        {
          "internalType": "uint256",
          "name": "id",
          "type": "uint256"
        }
      ],
      "name": "setURI",
      "outputs": [],
      "stateMutability": "nonpayable",
      "type": "function"
    },
    {
      "inputs": [
        {
          "internalType": "address",
          "name": "uniswapRouter_",
          "type": "address"
        }
      ],
      "name": "setUniswapRouter",
      "outputs": [],
      "stateMutability": "nonpayable",
      "type": "function"
    },
    {
      "inputs": [
        {
          "internalType": "bytes4",
          "name": "interfaceId",
          "type": "bytes4"
        }
      ],
      "name": "supportsInterface",
      "outputs": [
        {
          "internalType": "bool",
          "name": "",
          "type": "bool"
        }
      ],
      "stateMutability": "view",
      "type": "function"
    },
    {
      "inputs": [],
      "name": "toggleTokenBurning",
      "outputs": [],
      "stateMutability": "nonpayable",
      "type": "function"
    },
    {
      "inputs": [],
      "name": "toggleTokenMinting",
      "outputs": [],
      "stateMutability": "nonpayable",
      "type": "function"
    },
    {
      "inputs": [],
      "name": "uniswapRouter",
      "outputs": [
        {
          "internalType": "contract IUniswapV2Router02",
          "name": "",
          "type": "address"
        }
      ],
      "stateMutability": "view",
      "type": "function"
    },
    {
      "inputs": [
        {
          "internalType": "uint256",
          "name": "tokenid",
          "type": "uint256"
        }
      ],
      "name": "uri",
      "outputs": [
        {
          "internalType": "string",
          "name": "",
          "type": "string"
        }
      ],
      "stateMutability": "view",
      "type": "function"
    },
    {
      "inputs": [],
      "name": "wMatic",
      "outputs": [
        {
          "internalType": "address",
          "name": "",
          "type": "address"
        }
      ],
      "stateMutability": "view",
      "type": "function"
    },
    {
      "stateMutability": "payable",
      "type": "receive"
    }
  ],
  "bytecode": "0x60806040819052670de0b6b3a76400006008556003600955600a80546001600160a01b0319908116730d500b1d8e8ef31e21c99d1db9a6444d3adf127017909155600b805490911673831753dd7087cac61ab5644b308642cc1c33dc131790556ec097ce7bc90715b34b9f1000000000600c5562989680600d55620076a2388190039081908339810160408190526200009891620011dc565b6040805180820190915260048152631d195cdd60e21b6020820152620000c56301ffc9a760e01b62000303565b620000d7636cdb3d1360e11b62000303565b620000e96303a24d0760e21b62000303565b620000ff6000620000f96200035e565b62000362565b6200011d60008051602062007636833981519152620000f96200035e565b6200013b60008051602062007616833981519152620000f96200035e565b6200015760008051602062007616833981519152600062000372565b6200017360008051602062007636833981519152600062000372565b80516200018890600690602084019062001026565b505060408051600080825260208201909252620001b2918491620003c460201b62002e991760201c565b6000620001c96200057b60201b6200301c1760201c565b8251600f80546001600160a01b03199081166001600160a01b039384161790915560208086015160108054841691851691909117905560408087015160048601805490941694169390931790915581518083019092526001808352603160f81b92909101918252919250620002449160078401919062001026565b506040805180820190915260138082527f47414d4520426f6e64696e67204375727665730000000000000000000000000060209092019182526200028d91600884019162001026565b506301ffc9a760e01b600090815260039091016020526040808220805460ff1990811660019081179092556307e4c70760e21b845282842080548216831790556348e2b09360e01b845282842080548216831790556307f5828d60e41b84529190922080549091169091179055506200189d9050565b6001600160e01b03198082161415620003395760405162461bcd60e51b8152600401620003309062001543565b60405180910390fd5b6001600160e01b0319166000908152602081905260409020805460ff19166001179055565b3390565b6200036e82826200059f565b5050565b600082815260056020526040808220600201549051839285917fbd79b86ffe0ab8e8776151514217cd7cacd52c909f66475c3af44e129f0b00ff9190a460009182526005602052604090912060020155565b60005b83518110156200052c576000848281518110620003e057fe5b602002602001015160200151905060006002811115620003fc57fe5b8160028111156200040957fe5b14156200045857620004528583815181106200042157fe5b6020026020010151600001518684815181106200043a57fe5b6020026020010151604001516200061a60201b60201c565b62000522565b60018160028111156200046757fe5b1415620004b057620004528583815181106200047f57fe5b6020026020010151600001518684815181106200049857fe5b6020026020010151604001516200082d60201b60201c565b6002816002811115620004bf57fe5b1415620005085762000452858381518110620004d757fe5b602002602001015160000151868481518110620004f057fe5b60200260200101516040015162000a5760201b60201c565b60405162461bcd60e51b81526004016200033090620015d7565b50600101620003c7565b507f8faa70878671ccd212d20771b795c50af8fd3ff6cf27f4bde57e5d4de0aeb673838383604051620005629392919062001350565b60405180910390a162000576828262000b1e565b505050565b7fc8fcad8db84d3cc18b4c41d551ea0ee66dd599cde068d998e57d5e09332c131c90565b6000828152600560209081526040909120620005c69183906200304062000c58821b17901c565b156200036e57620005d66200035e565b6001600160a01b0316816001600160a01b0316837f2f8788117e7eff1d82e926ec794901d17c78024a50270940304540a733656f0d60405160405180910390a45050565b60008151116200063e5760405162461bcd60e51b81526004016200033090620014f8565b60006200064a6200057b565b90506001600160a01b038316620006755760405162461bcd60e51b815260040162000330906200161e565b6001600160a01b038316600090815260018201602052604090205461ffff81166200071b57620006bf846040518060600160405280602481526020016200767e6024913962000c78565b6002820180546001600160a01b038616600081815260018087016020908152604083208201805461ffff191661ffff90961695909517909455845490810185559381529190912090910180546001600160a01b03191690911790555b60005b8351811015620008265760008482815181106200073757fe5b6020908102919091018101516001600160e01b031981166000908152918690526040909120549091506001600160a01b031680156200078a5760405162461bcd60e51b8152600401620003309062001715565b506001600160a01b0386166000818152600186810160209081526040808420805480850182559085528285206008820401805463ffffffff60079093166004026101000a928302191660e089901c929092029190911790556001600160e01b0319909516835287905292902080546001600160a01b03191690911761ffff60a01b1916600160a01b61ffff86160217905591820191016200071e565b5050505050565b6000815111620008515760405162461bcd60e51b81526004016200033090620014f8565b60006200085d6200057b565b90506001600160a01b038316620008885760405162461bcd60e51b815260040162000330906200161e565b6001600160a01b038316600090815260018201602052604090205461ffff81166200092e57620008d2846040518060600160405280602481526020016200767e6024913962000c78565b6002820180546001600160a01b038616600081815260018087016020908152604083208201805461ffff191661ffff90961695909517909455845490810185559381529190912090910180546001600160a01b03191690911790555b60005b8351811015620008265760008482815181106200094a57fe5b6020908102919091018101516001600160e01b031981166000908152918690526040909120549091506001600160a01b03908116908716811415620009a35760405162461bcd60e51b8152600401620003309062001772565b620009af818362000c9c565b506001600160e01b03198116600081815260208681526040808320805461ffff60a01b1916600160a01b61ffff8a16021781556001600160a01b038b168085526001808b018552928520805480850182559086528486206008820401805463ffffffff60079093166004026101000a928302191660e09990991c91909102979097179096559390925286905281546001600160a01b0319169092179055918201910162000931565b600081511162000a7b5760405162461bcd60e51b81526004016200033090620014f8565b600062000a876200057b565b90506001600160a01b0383161562000ab35760405162461bcd60e51b81526004016200033090620017cf565b60005b825181101562000b1857600083828151811062000acf57fe5b6020908102919091018101516001600160e01b031981166000908152918590526040909120549091506001600160a01b031662000b0d818362000c9c565b505060010162000ab6565b50505050565b6001600160a01b03821662000b555780511562000b4f5760405162461bcd60e51b8152600401620003309062001455565b6200036e565b600081511162000b795760405162461bcd60e51b815260040162000330906200166a565b6001600160a01b038216301462000baf5762000baf82604051806060016040528060288152602001620076566028913962000c78565b60006060836001600160a01b03168360405162000bcd919062001332565b600060405180830381855af49150503d806000811462000c0a576040519150601f19603f3d011682016040523d82523d6000602084013e62000c0f565b606091505b50915091508162000b185780511562000c3e578060405162461bcd60e51b815260040162000330919062001440565b60405162461bcd60e51b81526004016200033090620014b2565b600062000c6f836001600160a01b03841662000fbf565b90505b92915050565b813b818162000b185760405162461bcd60e51b815260040162000330919062001440565b600062000ca86200057b565b90506001600160a01b03831662000cd35760405162461bcd60e51b815260040162000330906200157a565b6001600160a01b03831630141562000cff5760405162461bcd60e51b81526004016200033090620016c7565b6001600160e01b03198216600090815260208281526040808320546001600160a01b03871684526001850190925290912054600160a01b90910461ffff16906000190180821462000e23576001600160a01b0385166000908152600184016020526040812080548390811062000d7157fe5b600091825260208083206008830401546001600160a01b038a168452600188019091526040909220805460079092166004026101000a90920460e01b92508291908590811062000dbd57fe5b600091825260208083206008830401805463ffffffff60079094166004026101000a938402191660e09590951c929092029390931790556001600160e01b031992909216825284905260409020805461ffff60a01b1916600160a01b61ffff8516021790555b6001600160a01b0385166000908152600184016020526040902080548062000e4757fe5b60008281526020808220600860001990940193840401805463ffffffff600460078716026101000a0219169055919092556001600160e01b0319861682528490526040902080546001600160b01b031916905580620008265760028301546001600160a01b03861660009081526001858101602052604090912001546000199091019061ffff1680821462000f5f57600085600201838154811062000ee857fe5b6000918252602090912001546002870180546001600160a01b03909216925082918490811062000f1457fe5b600091825260208083209190910180546001600160a01b0319166001600160a01b0394851617905592909116815260018781019092526040902001805461ffff191661ffff83161790555b8460020180548062000f6d57fe5b60008281526020808220830160001990810180546001600160a01b03191690559092019092556001600160a01b03891682526001878101909152604090912001805461ffff1916905550505050505050565b600062000fcd83836200100e565b620010055750815460018181018455600084815260208082209093018490558454848252828601909352604090209190915562000c72565b50600062000c72565b60009081526001919091016020526040902054151590565b828054600181600116156101000203166002900490600052602060002090601f016020900481019282601f106200106957805160ff191683800117855562001099565b8280016001018555821562001099579182015b82811115620010995782518255916020019190600101906200107c565b50620010a7929150620010ab565b5090565b5b80821115620010a75760008155600101620010ac565b80516001600160a01b0381168114620010da57600080fd5b919050565b600082601f830112620010f0578081fd5b815162001107620011018262001850565b6200182c565b8181529150602080830190848101818402860182018710156200112957600080fd5b6000805b85811015620011615782516001600160e01b0319811681146200114e578283fd5b855293830193918301916001016200112d565b50505050505092915050565b6000606082840312156200117f578081fd5b604051606081016001600160401b03811182821017156200119c57fe5b604052905080620011ad83620010c2565b8152620011bd60208401620010c2565b6020820152620011d060408401620010c2565b60408201525092915050565b60008060808385031215620011ef578182fd5b82516001600160401b038082111562001206578384fd5b818501915085601f8301126200121a578384fd5b81516200122b620011018262001850565b81815260208082019190858101885b85811015620012d557815188016060818e03601f190112156200125b578a8bfd5b604051606081018181108a821117156200127157fe5b60405262001281828601620010c2565b815260408201516003811062001295578c8dfd5b81860152606082015189811115620012ab578c8dfd5b620012bb8f8783860101620010df565b60408301525086525093820193908201906001016200123a565b5050819750620012e88a828b016200116d565b96505050505050509250929050565b6001600160a01b03169052565b600081518084526200131e8160208601602086016200186e565b601f01601f19169290920160200192915050565b60008251620013468184602087016200186e565b9190910192915050565b606080825284518282018190526000919060809081850190602080820287018401818b01875b848110156200140d57898303607f19018652815180516001600160a01b03168452848101518985019060038110620013aa57fe5b858701526040918201519185018a9052815190819052908501908a90898601905b80831015620013f75783516001600160e01b0319168252928701926001929092019190870190620013cb565b5097860197945050509083019060010162001376565b50506200141d8289018b620012f7565b878103604089015262001431818a62001304565b9b9a5050505050505050505050565b60006020825262000c6f602083018462001304565b6020808252603c908201527f4c69624469616d6f6e644375743a205f696e697420697320616464726573732860408201527f3029206275745f63616c6c64617461206973206e6f7420656d70747900000000606082015260800190565b60208082526026908201527f4c69624469616d6f6e644375743a205f696e69742066756e6374696f6e2072656040820152651d995c9d195960d21b606082015260800190565b6020808252602b908201527f4c69624469616d6f6e644375743a204e6f2073656c6563746f727320696e206660408201526a1858d95d081d1bc818dd5d60aa1b606082015260800190565b6020808252601c908201527f4552433136353a20696e76616c696420696e7465726661636520696400000000604082015260600190565b60208082526037908201527f4c69624469616d6f6e644375743a2043616e27742072656d6f76652066756e6360408201527f74696f6e207468617420646f65736e2774206578697374000000000000000000606082015260800190565b60208082526027908201527f4c69624469616d6f6e644375743a20496e636f727265637420466163657443756040820152663a20b1ba34b7b760c91b606082015260800190565b6020808252602c908201527f4c69624469616d6f6e644375743a204164642066616365742063616e2774206260408201526b65206164647265737328302960a01b606082015260800190565b6020808252603d908201527f4c69624469616d6f6e644375743a205f63616c6c6461746120697320656d707460408201527f7920627574205f696e6974206973206e6f742061646472657373283029000000606082015260800190565b6020808252602e908201527f4c69624469616d6f6e644375743a2043616e27742072656d6f766520696d6d7560408201526d3a30b1363290333ab731ba34b7b760911b606082015260800190565b60208082526035908201527f4c69624469616d6f6e644375743a2043616e2774206164642066756e6374696f60408201527f6e207468617420616c7265616479206578697374730000000000000000000000606082015260800190565b60208082526038908201527f4c69624469616d6f6e644375743a2043616e2774207265706c6163652066756e60408201527f6374696f6e20776974682073616d652066756e6374696f6e0000000000000000606082015260800190565b60208082526036908201527f4c69624469616d6f6e644375743a2052656d6f7665206661636574206164647260408201527f657373206d757374206265206164647265737328302900000000000000000000606082015260800190565b6040518181016001600160401b03811182821017156200184857fe5b604052919050565b60006001600160401b038211156200186457fe5b5060209081020190565b60005b838110156200188b57818101518382015260200162001871565b8381111562000b185750506000910152565b615d6980620018ad6000396000f3fe6080604052600436106103385760003560e01c8063654d1333116101ab578063ba730e53116100f7578063d547741f11610095578063ec7982571161006f578063ec798257146109c0578063f242432a146109e0578063fdd3a87914610a00578063fe6d812414610a155761033f565b8063d547741f14610960578063e5b9559514610980578063e985e9c5146109a05761033f565b8063c3dfdae6116100d1578063c3dfdae6146108eb578063c707562d14610900578063c8db7e8314610920578063ca15c873146109405761033f565b8063ba730e531461088b578063ba84be07146108ab578063bea9849e146108cb5761033f565b806391d1485411610164578063a22cb4651161013e578063a22cb46514610823578063a8b8c18b14610843578063ac7fc26314610856578063b1de303e146108765761033f565b806391d14854146107ce5780639bf2d728146107ee578063a217fddf1461080e5761033f565b8063654d13331461072457806367db3b8f14610744578063735de9f71461076457806376adcba5146107795780638749474f1461078e5780639010d07c146107ae5761033f565b8063248a9ca3116102855780633c81fdb41161022357806342966c68116101fd57806342966c68146106a2578063437a8ae6146106c25780634e1273f4146106d757806355f804b3146107045761033f565b80633c81fdb4146106405780633d242655146106625780633f897300146106825761033f565b80632eb2c2d61161025f5780632eb2c2d6146105cb5780632f2ff15d146105eb57806331f9c9191461060b57806336568abe146106205761033f565b8063248a9ca31461057657806326150e95146105965780632b606d2c146105ab5761033f565b8063118c4f13116102f25780631bf7d749116102cc5780631bf7d7491461050c5780631c7c25981461052c5780631d84003f1461054157806321c7cf4d146105615761033f565b8063118c4f13146104b55780631490185c146104ca578063186d4432146104ea5761033f565b8062fdd58e146103d057806301c11d961461040657806301ffc9a71461041b57806308d4db14146104485780630bb78ec1146104685780630e89341c146104955761033f565b3661033f57005b600080356001600160e01b03191681527fc8fcad8db84d3cc18b4c41d551ea0ee66dd599cde068d998e57d5e09332c131c602081905260409091205481906001600160a01b0316806103ac5760405162461bcd60e51b81526004016103a3906154b9565b60405180910390fd5b3660008037600080366000845af43d6000803e8080156103cb573d6000f35b3d6000fd5b3480156103dc57600080fd5b506103f06103eb366004614647565b610a2a565b6040516103fd9190614d4b565b60405180910390f35b34801561041257600080fd5b506103f0610a7d565b34801561042757600080fd5b5061043b610436366004614836565b610a83565b6040516103fd9190614d40565b34801561045457600080fd5b506103f06104633660046147db565b610aa6565b34801561047457600080fd5b506104886104833660046147db565b610ac9565b6040516103fd9190614db3565b3480156104a157600080fd5b506104886104b03660046147db565b610b64565b3480156104c157600080fd5b506103f0610c8a565b3480156104d657600080fd5b506103f06104e5366004614815565b610cae565b3480156104f657600080fd5b5061050a610505366004614815565b610cb9565b005b34801561051857600080fd5b506103f06105273660046147db565b611087565b34801561053857600080fd5b5061043b611099565b34801561054d57600080fd5b5061050a61055c3660046144be565b6110a9565b34801561056d57600080fd5b5061050a6110df565b34801561058257600080fd5b506103f06105913660046147db565b611114565b3480156105a257600080fd5b5061050a611129565b3480156105b757600080fd5b506103f06105c6366004614815565b61115e565b3480156105d757600080fd5b5061050a6105e636600461450a565b611202565b3480156105f757600080fd5b5061050a6106063660046147f3565b61141c565b34801561061757600080fd5b5061043b611464565b34801561062c57600080fd5b5061050a61063b3660046147f3565b611474565b34801561064c57600080fd5b506106556114b6565b6040516103fd9190614b30565b34801561066e57600080fd5b506103f061067d3660046147db565b6114c5565b34801561068e57600080fd5b506103f061069d3660046147db565b6114d7565b3480156106ae57600080fd5b5061050a6106bd3660046147db565b6114e9565b3480156106ce57600080fd5b506103f06116c9565b3480156106e357600080fd5b506106f76106f2366004614670565b6116cf565b6040516103fd9190614cff565b34801561071057600080fd5b5061050a61071f3660046148b0565b61180e565b34801561073057600080fd5b5061050a61073f366004614944565b611854565b34801561075057600080fd5b5061050a61075f3660046148ea565b611a13565b34801561077057600080fd5b50610655611a6a565b34801561078557600080fd5b50610655611a79565b34801561079a57600080fd5b506103f06107a93660046147db565b611a88565b3480156107ba57600080fd5b506106556107c9366004614815565b611a9a565b3480156107da57600080fd5b5061043b6107e93660046147f3565b611ab2565b3480156107fa57600080fd5b5061050a61080936600461486e565b611aca565b34801561081a57600080fd5b506103f0611be9565b34801561082f57600080fd5b5061050a61083e366004614611565b611bee565b61050a610851366004614815565b611cbc565b34801561086257600080fd5b506103f06108713660046147db565b6120af565b34801561088257600080fd5b506103f06120c1565b34801561089757600080fd5b506103f06108a63660046147db565b6120e5565b3480156108b757600080fd5b5061050a6108c6366004614944565b612108565b3480156108d757600080fd5b5061050a6108e63660046144be565b6122df565b3480156108f757600080fd5b50610655612315565b34801561090c57600080fd5b5061050a61091b366004614815565b612324565b34801561092c57600080fd5b5061050a61093b366004614998565b612499565b34801561094c57600080fd5b506103f061095b3660046147db565b612c2c565b34801561096c57600080fd5b5061050a61097b3660046147f3565b612c43565b34801561098c57600080fd5b5061043b61099b3660046147db565b612c7d565b3480156109ac57600080fd5b5061043b6109bb3660046144d8565b612c92565b3480156109cc57600080fd5b506103f06109db3660046147db565b612cc0565b3480156109ec57600080fd5b5061050a6109fb3660046145af565b612cd2565b348015610a0c57600080fd5b50610655612e66565b348015610a2157600080fd5b506103f0612e75565b60006001600160a01b038316610a525760405162461bcd60e51b81526004016103a39061501b565b5060008181526001602090815260408083206001600160a01b03861684529091529020545b92915050565b600c5481565b6001600160e01b0319811660009081526020819052604090205460ff165b919050565b600081815260146020526040812054610ac2836001830161115e565b9392505050565b60076020908152600091825260409182902080548351601f600260001961010060018616150201909316929092049182018490048402810184019094528084529091830182828015610b5c5780601f10610b3157610100808354040283529160200191610b5c565b820191906000526020600020905b815481529060010190602001808311610b3f57829003601f168201915b505050505081565b6000818152600760209081526040918290208054835160026001831615610100026000190190921691909104601f81018490048402820184019094528381526060938493919291830182828015610bfc5780601f10610bd157610100808354040283529160200191610bfc565b820191906000526020600020905b815481529060010190602001808311610bdf57829003601f168201915b505060065493945050505060026000196101006001841615020190911604610c25579050610aa1565b805115610c5757600681604051602001610c40929190614aaf565b604051602081830303815290604052915050610aa1565b6006610c6284613055565b604051602001610c73929190614aaf565b604051602081830303815290604052915050919050565b7f9667e80708b6eeeb0053fa0cca44e028ff548e2a9f029edfeac87c118b08b7c881565b600854919091020190565b600b54600160a81b900460ff16610ce25760405162461bcd60e51b81526004016103a3906159ab565b60008281526013602052604090205442118015610d0c575060008281526013602052604090205415155b610d285760405162461bcd60e51b81526004016103a390615359565b4360176000610d3561312f565b6001600160a01b03166001600160a01b031681526020019081526020016000205410610d6057600080fd5b4360176000610d6d61312f565b6001600160a01b03166001600160a01b031681526020019081526020016000208190555060006008548381610d9e57fe5b0490506000610dac84610aa6565b9050600081118015610dbe5750828111155b610dda5760405162461bcd60e51b81526004016103a390615492565b600084815260146020526040902080546001019055600f546001600160a01b031663e2b8e7d3610e0861312f565b30846040518463ffffffff1660e01b8152600401610e2893929190614b44565b600060405180830381600087803b158015610e4257600080fd5b505af1158015610e56573d6000803e3d6000fd5b505050506000610e7060328361313490919063ffffffff16565b90506000610e8a6064610e84856008613176565b90613134565b9050610eaf610e9761312f565b876001604051806020016040528060008152506131b0565b836001600160a01b0316610ec161312f565b6001600160a01b03167fa8f60c2735df0121f6c1fb70fdc37e927e3b21f7266de2beeace3ed35b8634d08886610ef68b610aa6565b610eff8c6120e5565b60008d8152601460205260409081902054600f5491516370a0823160e01b815290918a916001600160a01b03909116906370a0823190610f43903090600401614b30565b60206040518083038186803b158015610f5b57600080fd5b505afa158015610f6f573d6000803e3d6000fd5b505050506040513d601f19601f82011682018060405250810190610f93919061492c565b604051610fa69796959493929190615b2c565b60405180910390a3600f54600e5460405163e2b8e7d360e01b81526001600160a01b039283169263e2b8e7d392610fe7923092909116908790600401614b44565b600060405180830381600087803b15801561100157600080fd5b505af1158015611015573d6000803e3d6000fd5b5050600f5460405163e2b8e7d360e01b81526001600160a01b03909116925063e2b8e7d3915061104d90309088908690600401614b44565b600060405180830381600087803b15801561106757600080fd5b505af115801561107b573d6000803e3d6000fd5b50505050505050505050565b60126020526000908152604090205481565b600b54600160a01b900460ff1681565b6110b4600033611ab2565b6110bd57600080fd5b600e80546001600160a01b0319166001600160a01b0392909216919091179055565b6110ea600033611ab2565b6110f357600080fd5b600b805460ff60a01b198116600160a01b9182900460ff1615909102179055565b60009081526005602052604090206002015490565b611134600033611ab2565b61113d57600080fd5b600b805460ff60a81b198116600160a81b9182900460ff1615909102179055565b600082815260126020908152604080832054601590925282205460098054600a0a9060329085906111999086900a610e8460038a0a86613176565b90506111b36111ac86610e848a87613176565b82906132cb565b90506111c26111ac8385613176565b90506111de6103e8610e84866111d8858a613134565b90613176565b90506111f683610e8483670de0b6b3a7640000613176565b98975050505050505050565b81518351146112235760405162461bcd60e51b81526004016103a3906158f4565b6001600160a01b0384166112495760405162461bcd60e51b81526004016103a3906154ee565b61125161312f565b6001600160a01b0316856001600160a01b031614806112775750611277856109bb61312f565b6112935760405162461bcd60e51b81526004016103a390615533565b600061129d61312f565b90506112ad8187878787876132f0565b60005b84518110156113ae5760008582815181106112c757fe5b6020026020010151905060008583815181106112df57fe5b6020026020010151905061134c816040518060600160405280602a8152602001615d0a602a91396001600086815260200190815260200160002060008d6001600160a01b03166001600160a01b03168152602001908152602001600020546133b49092919063ffffffff16565b60008381526001602090815260408083206001600160a01b038e811685529252808320939093558a168152205461138390826132cb565b60009283526001602081815260408086206001600160a01b038d1687529091529093205550016112b0565b50846001600160a01b0316866001600160a01b0316826001600160a01b03167f4a39dc06d4c0dbc64b70af90fd698a233a518aa5d07e595d983b8c0526c8f7fb87876040516113fe929190614d12565b60405180910390a46114148187878787876133e0565b505050505050565b60008281526005602052604090206002015461143a906107e961312f565b6114565760405162461bcd60e51b81526004016103a390614f47565b61146082826134f7565b5050565b600b54600160a81b900460ff1681565b61147c61312f565b6001600160a01b0316816001600160a01b0316146114ac5760405162461bcd60e51b81526004016103a3906159da565b6114608282613560565b600a546001600160a01b031681565b60146020526000908152604090205481565b60166020526000908152604090205481565b600b54600160a01b900460ff166115125760405162461bcd60e51b81526004016103a3906153c7565b600161151e3383610a2a565b101561153c5760405162461bcd60e51b81526004016103a390615673565b6000611547826120e5565b60008381526014602052604090208054600019019055905061157261156a61312f565b8360016135c9565b61157a61312f565b6001600160a01b03167f7f189ad2df0843ce2bba34028497b567ecb15a53dbfb381e8b7a3f1d5ca87d7183836115af86610aa6565b6115b8876120e5565b6000888152601460205260409081902054600f5491516370a0823160e01b815290916001600160a01b0316906370a08231906115f8903090600401614b30565b60206040518083038186803b15801561161057600080fd5b505afa158015611624573d6000803e3d6000fd5b505050506040513d601f19601f82011682018060405250810190611648919061492c565b60405161165a96959493929190615b04565b60405180910390a2600f546001600160a01b031663e2b8e7d33061167c61312f565b846040518463ffffffff1660e01b815260040161169b93929190614b44565b600060405180830381600087803b1580156116b557600080fd5b505af1158015611414573d6000803e3d6000fd5b600d5481565b606081518351146116f25760405162461bcd60e51b81526004016103a3906158ab565b606083516001600160401b038111801561170b57600080fd5b50604051908082528060200260200182016040528015611735578160200160208202803683370190505b50905060005b84518110156118065760006001600160a01b031685828151811061175b57fe5b60200260200101516001600160a01b0316141561178a5760405162461bcd60e51b81526004016103a390615066565b6001600085838151811061179a57fe5b6020026020010151815260200190815260200160002060008683815181106117be57fe5b60200260200101516001600160a01b03166001600160a01b03168152602001908152602001600020548282815181106117f357fe5b602090810291909101015260010161173b565b509392505050565b6118387ff6e33f9720e4529cb1c710e3344dc00830589a3239198ffa39b07117085d250e33611ab2565b61184157600080fd5b8051611460906006906020840190614340565b6000848152601660205260409020805460010190819055620f4240811061188d5760405162461bcd60e51b81526004016103a39061597d565b60008311801561189e575060148311155b80156118aa5750600082115b80156118b95750620f42408211155b6118d55760405162461bcd60e51b81526004016103a3906150b7565b60018451116118f65760405162461bcd60e51b81526004016103a390615266565b6010546001600160a01b0316634ba3d7488661191061312f565b6040518363ffffffff1660e01b815260040161192d929190615a29565b602060405180830381600087803b15801561194757600080fd5b505af115801561195b573d6000803e3d6000fd5b505050506040513d601f19601f8201168201806040525081019061197f91906147bf565b15156001146119a05760405162461bcd60e51b81526004016103a3906157ff565b60006119ac8683610cae565b6000818152601260209081526040808320889055601590915290819020859055519091507f855f2403a3717b569ca6483cb3250554954ef4734871df9005e45eb9bffce8cf90611a03908390889088908890615a8e565b60405180910390a1505050505050565b611a3d7ff6e33f9720e4529cb1c710e3344dc00830589a3239198ffa39b07117085d250e33611ab2565b611a4657600080fd5b60008181526007602090815260409091208351611a6592850190614340565b505050565b6011546001600160a01b031681565b6010546001600160a01b031681565b60009081526016602052604090205490565b6000828152600560205260408120610ac290836136df565b6000828152600560205260408120610ac290836136eb565b60405163654d133360e01b8152309063654d133390611af3906001906002908190600401614d54565b600060405180830381600087803b158015611b0d57600080fd5b505af1158015611b21573d6000803e3d6000fd5b5050505060006060306001600160a01b03166001600280604051602401611b4a93929190614d7e565b60408051601f198184030181529181526020820180516001600160e01b031663654d133360e01b17905251611b7f9190614a93565b6000604051808303816000865af19150503d8060008114611bbc576040519150601f19603f3d011682016040523d82523d6000602084013e611bc1565b606091505b509150915081611be35760405162461bcd60e51b81526004016103a390615139565b50505050565b600081565b816001600160a01b0316611c0061312f565b6001600160a01b03161415611c275760405162461bcd60e51b81526004016103a390615862565b8060036000611c3461312f565b6001600160a01b03908116825260208083019390935260409182016000908120918716808252919093529120805460ff191692151592909217909155611c7861312f565b6001600160a01b03167f17307eab39ab6107e8899845ad3d59bd9653f200f220920489ca2b5937696c3183604051611cb09190614d40565b60405180910390a35050565b600b54600160a81b900460ff16611ce55760405162461bcd60e51b81526004016103a3906159ab565b60008281526013602052604090205442118015611d0f575060008281526013602052604090205415155b611d2b5760405162461bcd60e51b81526004016103a390615359565b4360176000611d3861312f565b6001600160a01b03166001600160a01b031681526020019081526020016000205410611d6357600080fd5b4360176000611d7061312f565b6001600160a01b03166001600160a01b031681526020019081526020016000208190555060006008548381611da157fe5b0490506000611daf84610aa6565b9050600081118015611dc15750828111155b611ddd5760405162461bcd60e51b81526004016103a390615492565b600084815260146020526040908190208054600101905580516003808252608082019092526060918160200160208202803683375050600a5482519293506001600160a01b031691839150600090611e3157fe5b6001600160a01b039283166020918202929092010152600b54825191169082906001908110611e5c57fe5b6001600160a01b039283166020918202929092010152600f54825191169082906002908110611e8757fe5b6001600160a01b0392831660209182029290920101526011546040516307c0329d60e21b81526060929190911690631f00ca7490611ecb9086908690600401615a40565b60006040518083038186803b158015611ee357600080fd5b505afa158015611ef7573d6000803e3d6000fd5b505050506040513d6000823e601f3d908101601f19168201604052611f1f9190810190614730565b905080600081518110611f2e57fe5b6020026020010151341015611f555760405162461bcd60e51b81526004016103a390614f96565b60115481516060916001600160a01b03169063fb3bdb41908490600090611f7857fe5b6020026020010151868630426064016040518663ffffffff1660e01b8152600401611fa69493929190615a59565b6000604051808303818588803b158015611fbf57600080fd5b505af1158015611fd3573d6000803e3d6000fd5b50505050506040513d6000823e601f3d908101601f19168201604052611ffc9190810190614730565b9050348160008151811061200c57fe5b6020026020010151101561209d57336001600160a01b031661204b8260008151811061203457fe5b60200260200101513461370090919063ffffffff16565b60405161205790613131565b60006040518083038185875af1925050503d8060008114612094576040519150601f19603f3d011682016040523d82523d6000602084013e612099565b606091505b5050505b5060009150610e709050826032613134565b60156020526000908152604090205481565b7ff6e33f9720e4529cb1c710e3344dc00830589a3239198ffa39b07117085d250e81565b600081815260146020526040812054610ac26064610e84605a6111d8878661115e565b6000600854858161211557fe5b04905061212185612c7d565b1561213e5760405162461bcd60e51b81526004016103a390615390565b6010546001600160a01b0316634ba3d7488261215861312f565b6040518363ffffffff1660e01b8152600401612175929190615a29565b602060405180830381600087803b15801561218f57600080fd5b505af11580156121a3573d6000803e3d6000fd5b505050506040513d601f19601f820116820180604052508101906121c791906147bf565b15156001146121e85760405162461bcd60e51b81526004016103a390614fda565b6000831180156121f9575060148311155b80156122055750600082115b80156122145750620f42408211155b6122305760405162461bcd60e51b81526004016103a390615204565b60018451116122515760405162461bcd60e51b81526004016103a390615266565b60008581526012602052604090205461227c5760405162461bcd60e51b81526004016103a39061523b565b6000858152601260209081526040808320869055601590915290819020839055517f855f2403a3717b569ca6483cb3250554954ef4734871df9005e45eb9bffce8cf906122d0908790879087908790615a8e565b60405180910390a15050505050565b6122ea600033611ab2565b6122f357600080fd5b601180546001600160a01b0319166001600160a01b0392909216919091179055565b600f546001600160a01b031681565b61232d82612c7d565b1561234a5760405162461bcd60e51b81526004016103a390615390565b6000828152601260205260409020546123755760405162461bcd60e51b81526004016103a39061523b565b6000600854838161238257fe5b60105491900491506001600160a01b0316634ba3d748826123a161312f565b6040518363ffffffff1660e01b81526004016123be929190615a29565b602060405180830381600087803b1580156123d857600080fd5b505af11580156123ec573d6000803e3d6000fd5b505050506040513d601f19601f8201168201806040525081019061241091906147bf565b15156001146124315760405162461bcd60e51b81526004016103a390614fda565b42821080156124405750600082115b15612449574291505b60008381526013602052604090819020839055517f6ce538f9e575f548476b624a738c3bc0bdf1ec4e465cacb3f7c67bef3926e20e9061248c9085908590615aba565b60405180910390a1505050565b600b54600160a81b900460ff166124c25760405162461bcd60e51b81526004016103a3906159ab565b600083815260136020526040902054421180156124ec575060008381526013602052604090205415155b6125085760405162461bcd60e51b81526004016103a390615359565b436017600061251561312f565b6001600160a01b03166001600160a01b03168152602001908152602001600020541061254057600080fd5b436017600061254d61312f565b6001600160a01b03166001600160a01b03168152602001908152602001600020819055506000600854848161257e57fe5b049050600061258c85610aa6565b905060008111801561259e5750838111155b6125ba5760405162461bcd60e51b81526004016103a390615492565b60008581526014602052604090819020805460010190558051600380825260808201909252606091816020016020820280368337019050509050838160008151811061260257fe5b6001600160a01b039283166020918202929092010152600b5482519116908290600190811061262d57fe5b6001600160a01b039283166020918202929092010152600f5482519116908290600290811061265857fe5b6001600160a01b0392831660209182029290920101526011546040516307c0329d60e21b81526060929190911690631f00ca749061269c9086908690600401615a40565b60006040518083038186803b1580156126b457600080fd5b505afa1580156126c8573d6000803e3d6000fd5b505050506040513d6000823e601f3d908101601f191682016040526126f09190810190614730565b9050816000815181106126ff57fe5b60200260200101516001600160a01b03166323b872dd33308460008151811061272457fe5b60200260200101516040518463ffffffff1660e01b815260040161274a93929190614b44565b602060405180830381600087803b15801561276457600080fd5b505af1158015612778573d6000803e3d6000fd5b505050506040513d601f19601f8201168201806040525081019061279c91906147bf565b50816000815181106127aa57fe5b60200260200101516001600160a01b031663095ea7b3601160009054906101000a90046001600160a01b0316836000815181106127e357fe5b60200260200101516040518363ffffffff1660e01b8152600401612808929190614bff565b602060405180830381600087803b15801561282257600080fd5b505af1158015612836573d6000803e3d6000fd5b505050506040513d601f19601f8201168201806040525081019061285a91906147bf565b5060115481516060916001600160a01b031690638803dbee908690859060009061288057fe5b60200260200101518630426064016040518663ffffffff1660e01b81526004016128ae959493929190615ac8565b600060405180830381600087803b1580156128c857600080fd5b505af11580156128dc573d6000803e3d6000fd5b505050506040513d6000823e601f3d908101601f191682016040526129049190810190614730565b90508160008151811061291357fe5b60200260200101518160008151811061292857fe5b60200260200101511015612a08578260008151811061294357fe5b60200260200101516001600160a01b03166323b872dd30336129968560008151811061296b57fe5b60200260200101518760008151811061298057fe5b602002602001015161370090919063ffffffff16565b6040518463ffffffff1660e01b81526004016129b493929190614b44565b602060405180830381600087803b1580156129ce57600080fd5b505af11580156129e2573d6000803e3d6000fd5b505050506040513d601f19601f82011682018060405250810190612a0691906147bf565b505b5060009150612a1a9050826032613134565b90506000612a2e6064610e84856008613176565b9050612a53612a3b61312f565b886001604051806020016040528060008152506131b0565b836001600160a01b0316612a6561312f565b6001600160a01b03167fa8f60c2735df0121f6c1fb70fdc37e927e3b21f7266de2beeace3ed35b8634d08986612a9a8c610aa6565b612aa38d6120e5565b60008e8152601460205260409081902054600f5491516370a0823160e01b815290918a916001600160a01b03909116906370a0823190612ae7903090600401614b30565b60206040518083038186803b158015612aff57600080fd5b505afa158015612b13573d6000803e3d6000fd5b505050506040513d601f19601f82011682018060405250810190612b37919061492c565b604051612b4a9796959493929190615b2c565b60405180910390a3600f54600e5460405163e2b8e7d360e01b81526001600160a01b039283169263e2b8e7d392612b8b923092909116908790600401614b44565b600060405180830381600087803b158015612ba557600080fd5b505af1158015612bb9573d6000803e3d6000fd5b5050600f5460405163e2b8e7d360e01b81526001600160a01b03909116925063e2b8e7d39150612bf190309088908690600401614b44565b600060405180830381600087803b158015612c0b57600080fd5b505af1158015612c1f573d6000803e3d6000fd5b5050505050505050505050565b6000818152600560205260408120610a7790613742565b600082815260056020526040902060020154612c61906107e961312f565b6114ac5760405162461bcd60e51b81526004016103a3906153f6565b60009081526002602052604090205460ff1690565b6001600160a01b03918216600090815260036020908152604080832093909416825291909152205460ff1690565b60136020526000908152604090205481565b6001600160a01b038416612cf85760405162461bcd60e51b81526004016103a3906154ee565b612d0061312f565b6001600160a01b0316856001600160a01b03161480612d265750612d26856109bb61312f565b612d425760405162461bcd60e51b81526004016103a390615292565b6000612d4c61312f565b9050612d6c818787612d5d8861374d565b612d668861374d565b876132f0565b612db3836040518060600160405280602a8152602001615d0a602a913960008781526001602090815260408083206001600160a01b038d16845290915290205491906133b4565b60008581526001602090815260408083206001600160a01b038b81168552925280832093909355871681522054612dea90846132cb565b60008581526001602090815260408083206001600160a01b03808b168086529190935292819020939093559151909188811691908416907fc3d58168c5ae7397731d063d5bbf3d657854427343f4c083240f7aacaa2d0f6290612e509089908990615aba565b60405180910390a4611414818787878787613791565b600b546001600160a01b031681565b7ff0887ba65ee2024ea881d91b74c2450ef19e1557f03bed3ea9f16b037cbe2dc981565b60005b8351811015612fd6576000848281518110612eb357fe5b602002602001015160200151905060006002811115612ece57fe5b816002811115612eda57fe5b1415612f1d57612f18858381518110612eef57fe5b602002602001015160000151868481518110612f0757fe5b602002602001015160400151613862565b612fcd565b6001816002811115612f2b57fe5b1415612f6957612f18858381518110612f4057fe5b602002602001015160000151868481518110612f5857fe5b602002602001015160400151613a5c565b6002816002811115612f7757fe5b1415612fb557612f18858381518110612f8c57fe5b602002602001015160000151868481518110612fa457fe5b602002602001015160400151613c72565b60405162461bcd60e51b81526004016103a390615312565b50600101612e9c565b507f8faa70878671ccd212d20771b795c50af8fd3ff6cf27f4bde57e5d4de0aeb67383838360405161300a93929190614c18565b60405180910390a1611a658282613d26565b7fc8fcad8db84d3cc18b4c41d551ea0ee66dd599cde068d998e57d5e09332c131c90565b6000610ac2836001600160a01b038416613e4a565b60608161307a57506040805180820190915260018152600360fc1b6020820152610aa1565b8160005b811561309257600101600a8204915061307e565b6060816001600160401b03811180156130aa57600080fd5b506040519080825280601f01601f1916602001820160405280156130d5576020820181803683370190505b50859350905060001982015b831561312657600a840660300160f81b8282806001900393508151811061310457fe5b60200101906001600160f81b031916908160001a905350600a840493506130e1565b50949350505050565b335b90565b6000610ac283836040518060400160405280601a81526020017f536166654d6174683a206469766973696f6e206279207a65726f000000000000815250613e94565b60008261318557506000610a77565b8282028284828161319257fe5b0414610ac25760405162461bcd60e51b81526004016103a3906156b6565b6001600160a01b0384166131d65760405162461bcd60e51b81526004016103a39061593c565b60008381526002602052604090205460ff16613206576000838152600260205260409020805460ff191660011790555b600061321061312f565b905061322281600087612d5d8861374d565b60008481526001602090815260408083206001600160a01b038916845290915290205461324f90846132cb565b60008581526001602090815260408083206001600160a01b03808b16808652919093528184209490945551908416907fc3d58168c5ae7397731d063d5bbf3d657854427343f4c083240f7aacaa2d0f62906132ad9089908990615aba565b60405180910390a46132c481600087878787613791565b5050505050565b600082820183811015610ac25760405162461bcd60e51b81526004016103a3906151cd565b6001600160a01b038416156133a65760005b82518110156133465782818151811061331757fe5b602002602001015160011461333e5760405162461bcd60e51b81526004016103a390615836565b600101613302565b506001600160a01b038516156133a65760005b83518110156133a45761337f8585838151811061337257fe5b6020026020010151610a2a565b1561339c5760405162461bcd60e51b81526004016103a3906152db565b600101613359565b505b611414868686868686611414565b600081848411156133d85760405162461bcd60e51b81526004016103a39190614db3565b505050900390565b6133f2846001600160a01b0316613ecb565b156114145760405163bc197c8160e01b81526001600160a01b0385169063bc197c819061342b9089908990889088908890600401614b68565b602060405180830381600087803b15801561344557600080fd5b505af1925050508015613475575060408051601f3d908101601f1916820190925261347291810190614852565b60015b6134be57613481615bce565b8061348c57506134a6565b8060405162461bcd60e51b81526004016103a39190614db3565b60405162461bcd60e51b81526004016103a390614dc6565b6001600160e01b0319811663bc197c8160e01b146134ee5760405162461bcd60e51b81526004016103a390614eb9565b50505050505050565b600082815260056020526040902061350f9082613040565b156114605761351c61312f565b6001600160a01b0316816001600160a01b0316837f2f8788117e7eff1d82e926ec794901d17c78024a50270940304540a733656f0d60405160405180910390a45050565b60008281526005602052604090206135789082613ed1565b156114605761358561312f565b6001600160a01b0316816001600160a01b0316837ff6391f5c32d9c69d2a47ea670b442974b53935d1edc7fd64eb21e047a839171b60405160405180910390a45050565b6001600160a01b0383166135ef5760405162461bcd60e51b81526004016103a3906155e2565b60006135f961312f565b90506136298185600061360b8761374d565b6136148761374d565b604051806020016040528060008152506132f0565b61367082604051806060016040528060248152602001615c9a6024913960008681526001602090815260408083206001600160a01b038b16845290915290205491906133b4565b60008481526001602090815260408083206001600160a01b03808a16808652919093528184209490945551919291908416907fc3d58168c5ae7397731d063d5bbf3d657854427343f4c083240f7aacaa2d0f62906136d19088908890615aba565b60405180910390a450505050565b6000610ac28383613ee6565b6000610ac2836001600160a01b038416613f2b565b6000610ac283836040518060400160405280601e81526020017f536166654d6174683a207375627472616374696f6e206f766572666c6f7700008152506133b4565b6000610a7782613f43565b60408051600180825281830190925260609182919060208083019080368337019050509050828160008151811061378057fe5b602090810291909101015292915050565b6137a3846001600160a01b0316613ecb565b156114145760405163f23a6e6160e01b81526001600160a01b0385169063f23a6e61906137dc9089908990889088908890600401614bba565b602060405180830381600087803b1580156137f657600080fd5b505af1925050508015613826575060408051601f3d908101601f1916820190925261382391810190614852565b60015b61383257613481615bce565b6001600160e01b0319811663f23a6e6160e01b146134ee5760405162461bcd60e51b81526004016103a390614eb9565b60008151116138835760405162461bcd60e51b81526004016103a3906150ee565b600061388d61301c565b90506001600160a01b0383166138b55760405162461bcd60e51b81526004016103a390615446565b6001600160a01b038316600090815260018201602052604090205461ffff8116613957576138fb84604051806060016040528060248152602001615ce660249139613f47565b6002820180546001600160a01b038616600081815260018087016020908152604083208201805461ffff191661ffff90961695909517909455845490810185559381529190912090910180546001600160a01b03191690911790555b60005b83518110156132c457600084828151811061397157fe5b6020908102919091018101516001600160e01b031981166000908152918690526040909120549091506001600160a01b031680156139c15760405162461bcd60e51b81526004016103a3906156f7565b506001600160a01b0386166000818152600186810160209081526040808420805480850182559085528285206008820401805463ffffffff60079093166004026101000a928302191660e089901c929092029190911790556001600160e01b0319909516835287905292902080546001600160a01b03191690911761ffff60a01b1916600160a01b61ffff861602179055918201910161395a565b6000815111613a7d5760405162461bcd60e51b81526004016103a3906150ee565b6000613a8761301c565b90506001600160a01b038316613aaf5760405162461bcd60e51b81526004016103a390615446565b6001600160a01b038316600090815260018201602052604090205461ffff8116613b5157613af584604051806060016040528060248152602001615ce660249139613f47565b6002820180546001600160a01b038616600081815260018087016020908152604083208201805461ffff191661ffff90961695909517909455845490810185559381529190912090910180546001600160a01b03191690911790555b60005b83518110156132c4576000848281518110613b6b57fe5b6020908102919091018101516001600160e01b031981166000908152918690526040909120549091506001600160a01b03908116908716811415613bc15760405162461bcd60e51b81526004016103a39061574c565b613bcb8183613f68565b506001600160e01b03198116600081815260208681526040808320805461ffff60a01b1916600160a01b61ffff8a16021781556001600160a01b038b168085526001808b018552928520805480850182559086528486206008820401805463ffffffff60079093166004026101000a928302191660e09990991c91909102979097179096559390925286905281546001600160a01b03191690921790559182019101613b54565b6000815111613c935760405162461bcd60e51b81526004016103a3906150ee565b6000613c9d61301c565b90506001600160a01b03831615613cc65760405162461bcd60e51b81526004016103a3906157a9565b60005b8251811015611be3576000838281518110613ce057fe5b6020908102919091018101516001600160e01b031981166000908152918590526040909120549091506001600160a01b0316613d1c8183613f68565b5050600101613cc9565b6001600160a01b038216613d5857805115613d535760405162461bcd60e51b81526004016103a390614e5c565b611460565b6000815111613d795760405162461bcd60e51b81526004016103a390615585565b6001600160a01b0382163014613dab57613dab82604051806060016040528060288152602001615cbe60289139613f47565b60006060836001600160a01b031683604051613dc79190614a93565b600060405180830381855af49150503d8060008114613e02576040519150601f19603f3d011682016040523d82523d6000602084013e613e07565b606091505b509150915081611be357805115613e32578060405162461bcd60e51b81526004016103a39190614db3565b60405162461bcd60e51b81526004016103a390614f01565b6000613e568383613f2b565b613e8c57508154600181810184556000848152602080822090930184905584548482528286019093526040902091909155610a77565b506000610a77565b60008183613eb55760405162461bcd60e51b81526004016103a39190614db3565b506000838581613ec157fe5b0495945050505050565b3b151590565b6000610ac2836001600160a01b03841661427a565b81546000908210613f095760405162461bcd60e51b81526004016103a390614e1a565b826000018281548110613f1857fe5b9060005260206000200154905092915050565b60009081526001919091016020526040902054151590565b5490565b813b8181611be35760405162461bcd60e51b81526004016103a39190614db3565b6000613f7261301c565b90506001600160a01b038316613f9a5760405162461bcd60e51b81526004016103a390615170565b6001600160a01b038316301415613fc35760405162461bcd60e51b81526004016103a390615625565b6001600160e01b03198216600090815260208281526040808320546001600160a01b03871684526001850190925290912054600160a01b90910461ffff1690600019018082146140e4576001600160a01b0385166000908152600184016020526040812080548390811061403357fe5b600091825260208083206008830401546001600160a01b038a168452600188019091526040909220805460079092166004026101000a90920460e01b92508291908590811061407e57fe5b600091825260208083206008830401805463ffffffff60079094166004026101000a938402191660e09590951c929092029390931790556001600160e01b031992909216825284905260409020805461ffff60a01b1916600160a01b61ffff8516021790555b6001600160a01b0385166000908152600184016020526040902080548061410757fe5b60008281526020808220600860001990940193840401805463ffffffff600460078716026101000a0219169055919092556001600160e01b0319861682528490526040902080546001600160b01b0319169055806132c45760028301546001600160a01b03861660009081526001858101602052604090912001546000199091019061ffff1680821461421b5760008560020183815481106141a557fe5b6000918252602090912001546002870180546001600160a01b0390921692508291849081106141d057fe5b600091825260208083209190910180546001600160a01b0319166001600160a01b0394851617905592909116815260018781019092526040902001805461ffff191661ffff83161790555b8460020180548061422857fe5b60008281526020808220830160001990810180546001600160a01b03191690559092019092556001600160a01b03891682526001878101909152604090912001805461ffff1916905550505050505050565b6000818152600183016020526040812054801561433657835460001980830191908101906000908790839081106142ad57fe5b90600052602060002001549050808760000184815481106142ca57fe5b6000918252602080832090910192909255828152600189810190925260409020908401905586548790806142fa57fe5b60019003818190600052602060002001600090559055866001016000878152602001908152602001600020600090556001945050505050610a77565b6000915050610a77565b828054600181600116156101000203166002900490600052602060002090601f016020900481019282601f1061438157805160ff19168380011785556143ae565b828001600101855582156143ae579182015b828111156143ae578251825591602001919060010190614393565b506143ba9291506143be565b5090565b5b808211156143ba57600081556001016143bf565b80356001600160a01b0381168114610aa157600080fd5b600082601f8301126143fa578081fd5b813561440d61440882615b7f565b615b5c565b81815291506020808301908481018184028601820187101561442e57600080fd5b60005b8481101561444d57813584529282019290820190600101614431565b505050505092915050565b600082601f830112614468578081fd5b81356001600160401b0381111561447b57fe5b61448e601f8201601f1916602001615b5c565b91508082528360208285010111156144a557600080fd5b8060208401602084013760009082016020015292915050565b6000602082840312156144cf578081fd5b610ac2826143d3565b600080604083850312156144ea578081fd5b6144f3836143d3565b9150614501602084016143d3565b90509250929050565b600080600080600060a08688031215614521578081fd5b61452a866143d3565b9450614538602087016143d3565b935060408601356001600160401b0380821115614553578283fd5b61455f89838a016143ea565b94506060880135915080821115614574578283fd5b61458089838a016143ea565b93506080880135915080821115614595578283fd5b506145a288828901614458565b9150509295509295909350565b600080600080600060a086880312156145c6578081fd5b6145cf866143d3565b94506145dd602087016143d3565b9350604086013592506060860135915060808601356001600160401b03811115614605578182fd5b6145a288828901614458565b60008060408385031215614623578182fd5b61462c836143d3565b9150602083013561463c81615c72565b809150509250929050565b60008060408385031215614659578182fd5b614662836143d3565b946020939093013593505050565b60008060408385031215614682578182fd5b82356001600160401b0380821115614698578384fd5b818501915085601f8301126146ab578384fd5b81356146b961440882615b7f565b80828252602080830192508086018a8283870289010111156146d9578889fd5b8896505b84871015614702576146ee816143d3565b8452600196909601959281019281016146dd565b509096508701359350505080821115614719578283fd5b50614726858286016143ea565b9150509250929050565b60006020808385031215614742578182fd5b82516001600160401b03811115614757578283fd5b8301601f81018513614767578283fd5b805161477561440882615b7f565b8181528381019083850185840285018601891015614791578687fd5b8694505b838510156147b3578051835260019490940193918501918501614795565b50979650505050505050565b6000602082840312156147d0578081fd5b8151610ac281615c72565b6000602082840312156147ec578081fd5b5035919050565b60008060408385031215614805578182fd5b82359150614501602084016143d3565b60008060408385031215614827578182fd5b50508035926020909101359150565b600060208284031215614847578081fd5b8135610ac281615c83565b600060208284031215614863578081fd5b8151610ac281615c83565b60008060408385031215614880578182fd5b82356001600160401b03811115614895578283fd5b6148a185828601614458565b925050614501602084016143d3565b6000602082840312156148c1578081fd5b81356001600160401b038111156148d6578182fd5b6148e284828501614458565b949350505050565b600080604083850312156148fc578182fd5b82356001600160401b03811115614911578283fd5b61491d85828601614458565b95602094909401359450505050565b60006020828403121561493d578081fd5b5051919050565b60008060008060808587031215614959578182fd5b8435935060208501356001600160401b03811115614975578283fd5b61498187828801614458565b949794965050505060408301359260600135919050565b6000806000606084860312156149ac578081fd5b83359250602084013591506149c3604085016143d3565b90509250925092565b6001600160a01b03169052565b6000815180845260208085019450808401835b83811015614a115781516001600160a01b0316875295820195908201906001016149ec565b509495945050505050565b6000815180845260208085019450808401835b83811015614a1157815187529582019590820190600101614a2f565b60008151808452614a63816020860160208601615b9c565b601f01601f19169290920160200192915050565b60098152686a736f6e206461746160b81b602082015260400190565b60008251614aa5818460208701615b9c565b9190910192915050565b6000808454600180821660008114614ace5760018114614ae557614b14565b60ff198316865260028304607f1686019350614b14565b600283048886526020808720875b83811015614b0c5781548a820152908501908201614af3565b505050860193505b5050508351614b27818360208801615b9c565b01949350505050565b6001600160a01b0391909116815260200190565b6001600160a01b039384168152919092166020820152604081019190915260600190565b6001600160a01b0386811682528516602082015260a060408201819052600090614b9490830186614a1c565b8281036060840152614ba68186614a1c565b905082810360808401526111f68185614a4b565b6001600160a01b03868116825285166020820152604081018490526060810183905260a060808201819052600090614bf490830184614a4b565b979650505050505050565b6001600160a01b03929092168252602082015260400190565b606080825284518282018190526000919060809081850190602080820287018401818b01875b84811015614cd057898303607f19018652815180516001600160a01b03168452848101518985019060038110614c7057fe5b858701526040918201519185018a9052815190819052908501908a90898601905b80831015614cbb5783516001600160e01b0319168252928701926001929092019190870190614c91565b50978601979450505090830190600101614c3e565b5050614cde8289018b6149cc565b8781036040890152614cf0818a614a4b565b9b9a5050505050505050505050565b600060208252610ac26020830184614a1c565b600060408252614d256040830185614a1c565b8281036020840152614d378185614a1c565b95945050505050565b901515815260200190565b90815260200190565b600084825260806020830152614d6c60808301614a77565b60408301949094525060600152919050565b600060ff8516825260806020830152614d9960808301614a77565b60ff94851660408401529290931660609091015292915050565b600060208252610ac26020830184614a4b565b60208082526034908201527f455243313135353a207472616e7366657220746f206e6f6e20455243313135356040820152732932b1b2b4bb32b91034b6b83632b6b2b73a32b960611b606082015260800190565b60208082526022908201527f456e756d657261626c655365743a20696e646578206f7574206f6620626f756e604082015261647360f01b606082015260800190565b6020808252603c908201527f4c69624469616d6f6e644375743a205f696e697420697320616464726573732860408201527f3029206275745f63616c6c64617461206973206e6f7420656d70747900000000606082015260800190565b60208082526028908201527f455243313135353a204552433131353552656365697665722072656a656374656040820152676420746f6b656e7360c01b606082015260800190565b60208082526026908201527f4c69624469616d6f6e644375743a205f696e69742066756e6374696f6e2072656040820152651d995c9d195960d21b606082015260800190565b6020808252602f908201527f416363657373436f6e74726f6c3a2073656e646572206d75737420626520616e60408201526e0818591b5a5b881d1bc819dc985b9d608a1b606082015260800190565b60208082526024908201527f6275794e4654776974684d617469633a2076616c7565206973206e6f7420656e6040820152630deeaced60e31b606082015260800190565b60208082526021908201527f73656e646572206d757374206265206f70657261746f72206f7220776f726b656040820152603960f91b606082015260800190565b6020808252602b908201527f455243313135353a2062616c616e636520717565727920666f7220746865207a60408201526a65726f206164647265737360a81b606082015260800190565b60208082526031908201527f455243313135353a2062617463682062616c616e636520717565727920666f7260408201527020746865207a65726f206164647265737360781b606082015260800190565b6020808252601d908201527f696e76616c696420637572766520616e64206d756c7469706c69657273000000604082015260600190565b6020808252602b908201527f4c69624469616d6f6e644375743a204e6f2073656c6563746f727320696e206660408201526a1858d95d081d1bc818dd5d60aa1b606082015260800190565b6020808252601c908201527f46756e6374696f6e2063616c6c206e6f74207375636365737366756c00000000604082015260600190565b60208082526037908201527f4c69624469616d6f6e644375743a2043616e27742072656d6f76652066756e6360408201527f74696f6e207468617420646f65736e2774206578697374000000000000000000606082015260800190565b6020808252601b908201527f536166654d6174683a206164646974696f6e206f766572666c6f770000000000604082015260600190565b6020808252601c908201527f696e76616c6964206375727665206f72206d756c7469706c6965727300000000604082015260600190565b60208082526011908201527018dd5c9d99481b5d5cdd081899481cd95d607a1b604082015260600190565b6020808252601290820152711a9cdbdb881b5d5cdd081b9bdb881b9d5b1b60721b604082015260600190565b60208082526029908201527f455243313135353a2063616c6c6572206973206e6f74206f776e6572206e6f7260408201526808185c1c1c9bdd995960ba1b606082015260800190565b6020808252601f908201527f746f5f616464726573732073686f756c64206f776e2030206f66206561636800604082015260600190565b60208082526027908201527f4c69624469616d6f6e644375743a20496e636f727265637420466163657443756040820152663a20b1ba34b7b760c91b606082015260800190565b60208082526018908201527f73616c6520686173206e6f742073746172746564207965740000000000000000604082015260600190565b60208082526019908201527f746f6b656e20686173206e6f74206265656e206d696e74656400000000000000604082015260600190565b6020808252601590820152746275726e696e67206973206e6f742061637469766560581b604082015260600190565b60208082526030908201527f416363657373436f6e74726f6c3a2073656e646572206d75737420626520616e60408201526f2061646d696e20746f207265766f6b6560801b606082015260800190565b6020808252602c908201527f4c69624469616d6f6e644375743a204164642066616365742063616e2774206260408201526b65206164647265737328302960a01b606082015260800190565b6020808252600d908201526c696e76616c696420707269636560981b604082015260600190565b6020808252818101527f4469616d6f6e643a2046756e6374696f6e20646f6573206e6f74206578697374604082015260600190565b60208082526025908201527f455243313135353a207472616e7366657220746f20746865207a65726f206164604082015264647265737360d81b606082015260800190565b60208082526032908201527f455243313135353a207472616e736665722063616c6c6572206973206e6f74206040820152711bdddb995c881b9bdc88185c1c1c9bdd995960721b606082015260800190565b6020808252603d908201527f4c69624469616d6f6e644375743a205f63616c6c6461746120697320656d707460408201527f7920627574205f696e6974206973206e6f742061646472657373283029000000606082015260800190565b60208082526023908201527f455243313135353a206275726e2066726f6d20746865207a65726f206164647260408201526265737360e81b606082015260800190565b6020808252602e908201527f4c69624469616d6f6e644375743a2043616e27742072656d6f766520696d6d7560408201526d3a30b1363290333ab731ba34b7b760911b606082015260800190565b60208082526023908201527f73656e646572206d7573742068617665206174206c65617374206f6e6520746f60408201526235b2b760e91b606082015260800190565b60208082526021908201527f536166654d6174683a206d756c7469706c69636174696f6e206f766572666c6f6040820152607760f81b606082015260800190565b60208082526035908201527f4c69624469616d6f6e644375743a2043616e2774206164642066756e6374696f6040820152746e207468617420616c72656164792065786973747360581b606082015260800190565b60208082526038908201527f4c69624469616d6f6e644375743a2043616e2774207265706c6163652066756e60408201527f6374696f6e20776974682073616d652066756e6374696f6e0000000000000000606082015260800190565b60208082526036908201527f4c69624469616d6f6e644375743a2052656d6f76652066616365742061646472604082015275657373206d757374206265206164647265737328302960501b606082015260800190565b6020808252601f908201527f73656e646572206d757374206265206d696e696f6e206f7220776f726b657200604082015260600190565b602080825260129082015271416d6f756e742073686f756c64206265203160701b604082015260600190565b60208082526029908201527f455243313135353a2073657474696e6720617070726f76616c20737461747573604082015268103337b91039b2b63360b91b606082015260800190565b60208082526029908201527f455243313135353a206163636f756e747320616e6420696473206c656e677468604082015268040dad2e6dac2e8c6d60bb1b606082015260800190565b60208082526028908201527f455243313135353a2069647320616e6420616d6f756e7473206c656e677468206040820152670dad2e6dac2e8c6d60c31b606082015260800190565b60208082526021908201527f455243313135353a206d696e7420746f20746865207a65726f206164647265736040820152607360f81b606082015260800190565b60208082526014908201527306d617820746f6b656e206f6620313030303030360641b604082015260600190565b6020808252601590820152746d696e74696e67206973206e6f742061637469766560581b604082015260600190565b6020808252602f908201527f416363657373436f6e74726f6c3a2063616e206f6e6c792072656e6f756e636560408201526e103937b632b9903337b91039b2b63360891b606082015260800190565b9182526001600160a01b0316602082015260400190565b6000838252604060208301526148e260408301846149d9565b600085825260806020830152615a7260808301866149d9565b6001600160a01b03949094166040830152506060015292915050565b600085825260806020830152615aa76080830186614a4b565b6040830194909452506060015292915050565b918252602082015260400190565b600086825285602083015260a06040830152615ae760a08301866149d9565b6001600160a01b0394909416606083015250608001529392505050565b958652602086019490945260408501929092526060840152608083015260a082015260c00190565b968752602087019590955260408601939093526060850191909152608084015260a083015260c082015260e00190565b6040518181016001600160401b0381118282101715615b7757fe5b604052919050565b60006001600160401b03821115615b9257fe5b5060209081020190565b60005b83811015615bb7578181015183820152602001615b9f565b83811115611be35750506000910152565b60e01c90565b600060443d1015615bde57613131565b600481823e6308c379a0615bf28251615bc8565b14615bfc57613131565b6040513d600319016004823e80513d6001600160401b038160248401118184111715615c2b5750505050613131565b82840192508251915080821115615c455750505050613131565b503d83016020828401011115615c5d57505050613131565b601f01601f1916810160200160405291505090565b8015158114615c8057600080fd5b50565b6001600160e01b031981168114615c8057600080fdfe455243313135353a206275726e20616d6f756e7420657863656564732062616c616e63654c69624469616d6f6e644375743a205f696e6974206164647265737320686173206e6f20636f64654c69624469616d6f6e644375743a204e657720666163657420686173206e6f20636f6465455243313135353a20696e73756666696369656e742062616c616e636520666f72207472616e73666572a2646970667358221220d625af0d4bca8efec2a7c46209a3770a87bf76ff0cc3a4684cdc08690fe29c7b64736f6c63430007030033f0887ba65ee2024ea881d91b74c2450ef19e1557f03bed3ea9f16b037cbe2dc9f6e33f9720e4529cb1c710e3344dc00830589a3239198ffa39b07117085d250e4c69624469616d6f6e644375743a205f696e6974206164647265737320686173206e6f20636f64654c69624469616d6f6e644375743a204e657720666163657420686173206e6f20636f6465",
  "linkReferences": {},
  "deployedLinkReferences": {}
}