{
  "_format": "hh-sol-artifact-1",
  "contractName": "bondingSale",
  "sourceName": "contracts/bondingSale.sol",
  "abi": [
    {
      "inputs": [
        {
          "internalType": "address",
          "name": "_gameToken",
          "type": "address"
        },
        {
          "internalType": "address",
          "name": "_gameAdmin",
          "type": "address"
        },
        {
          "internalType": "address",
          "name": "_gameMaster",
          "type": "address"
        }
      ],
      "stateMutability": "nonpayable",
      "type": "constructor"
    },
    {
      "anonymous": false,
      "inputs": [
        {
          "indexed": true,
          "internalType": "address",
          "name": "account",
          "type": "address"
        },
        {
          "indexed": true,
          "internalType": "address",
          "name": "operator",
          "type": "address"
        },
        {
          "indexed": false,
          "internalType": "bool",
          "name": "approved",
          "type": "bool"
        }
      ],
      "name": "ApprovalForAll",
      "type": "event"
    },
    {
      "anonymous": false,
      "inputs": [
        {
          "indexed": false,
          "internalType": "address",
          "name": "userAddress",
          "type": "address"
        },
        {
          "indexed": false,
          "internalType": "address payable",
          "name": "relayerAddress",
          "type": "address"
        },
        {
          "indexed": false,
          "internalType": "bytes",
          "name": "functionSignature",
          "type": "bytes"
        }
      ],
      "name": "MetaTransactionExecuted",
      "type": "event"
    },
    {
      "anonymous": false,
      "inputs": [
        {
          "indexed": true,
          "internalType": "bytes32",
          "name": "role",
          "type": "bytes32"
        },
        {
          "indexed": true,
          "internalType": "bytes32",
          "name": "previousAdminRole",
          "type": "bytes32"
        },
        {
          "indexed": true,
          "internalType": "bytes32",
          "name": "newAdminRole",
          "type": "bytes32"
        }
      ],
      "name": "RoleAdminChanged",
      "type": "event"
    },
    {
      "anonymous": false,
      "inputs": [
        {
          "indexed": true,
          "internalType": "bytes32",
          "name": "role",
          "type": "bytes32"
        },
        {
          "indexed": true,
          "internalType": "address",
          "name": "account",
          "type": "address"
        },
        {
          "indexed": true,
          "internalType": "address",
          "name": "sender",
          "type": "address"
        }
      ],
      "name": "RoleGranted",
      "type": "event"
    },
    {
      "anonymous": false,
      "inputs": [
        {
          "indexed": true,
          "internalType": "bytes32",
          "name": "role",
          "type": "bytes32"
        },
        {
          "indexed": true,
          "internalType": "address",
          "name": "account",
          "type": "address"
        },
        {
          "indexed": true,
          "internalType": "address",
          "name": "sender",
          "type": "address"
        }
      ],
      "name": "RoleRevoked",
      "type": "event"
    },
    {
      "anonymous": false,
      "inputs": [
        {
          "indexed": true,
          "internalType": "address",
          "name": "to",
          "type": "address"
        },
        {
          "indexed": false,
          "internalType": "uint256",
          "name": "id",
          "type": "uint256"
        },
        {
          "indexed": false,
          "internalType": "uint256",
          "name": "pricePaid",
          "type": "uint256"
        },
        {
          "indexed": false,
          "internalType": "uint256",
          "name": "nextPrintPrice",
          "type": "uint256"
        },
        {
          "indexed": false,
          "internalType": "uint256",
          "name": "nextBurnPrice",
          "type": "uint256"
        },
        {
          "indexed": false,
          "internalType": "uint256",
          "name": "tokenSupply",
          "type": "uint256"
        },
        {
          "indexed": false,
          "internalType": "uint256",
          "name": "royaltyPaid",
          "type": "uint256"
        },
        {
          "indexed": false,
          "internalType": "uint256",
          "name": "reserve",
          "type": "uint256"
        },
        {
          "indexed": true,
          "internalType": "address",
          "name": "royaltyRecipient",
          "type": "address"
        }
      ],
      "name": "TokenBought",
      "type": "event"
    },
    {
      "anonymous": false,
      "inputs": [
        {
          "indexed": true,
          "internalType": "address",
          "name": "to",
          "type": "address"
        },
        {
          "indexed": false,
          "internalType": "uint256",
          "name": "id",
          "type": "uint256"
        },
        {
          "indexed": false,
          "internalType": "uint256",
          "name": "priceReceived",
          "type": "uint256"
        },
        {
          "indexed": false,
          "internalType": "uint256",
          "name": "nextPrintPrice",
          "type": "uint256"
        },
        {
          "indexed": false,
          "internalType": "uint256",
          "name": "nextBurnPrice",
          "type": "uint256"
        },
        {
          "indexed": false,
          "internalType": "uint256",
          "name": "printsSupply",
          "type": "uint256"
        },
        {
          "indexed": false,
          "internalType": "uint256",
          "name": "reserve",
          "type": "uint256"
        }
      ],
      "name": "TokenBurned",
      "type": "event"
    },
    {
      "anonymous": false,
      "inputs": [
        {
          "indexed": false,
          "internalType": "uint256",
          "name": "tokenId",
          "type": "uint256"
        },
        {
          "indexed": false,
          "internalType": "string",
          "name": "json",
          "type": "string"
        },
        {
          "indexed": false,
          "internalType": "uint256",
          "name": "curve",
          "type": "uint256"
        },
        {
          "indexed": false,
          "internalType": "uint256",
          "name": "multiplier",
          "type": "uint256"
        }
      ],
      "name": "TokenData",
      "type": "event"
    },
    {
      "anonymous": false,
      "inputs": [
        {
          "indexed": false,
          "internalType": "uint256",
          "name": "id",
          "type": "uint256"
        },
        {
          "indexed": false,
          "internalType": "uint256",
          "name": "date",
          "type": "uint256"
        }
      ],
      "name": "TokenOnSale",
      "type": "event"
    },
    {
      "anonymous": false,
      "inputs": [
        {
          "indexed": true,
          "internalType": "address",
          "name": "operator",
          "type": "address"
        },
        {
          "indexed": true,
          "internalType": "address",
          "name": "from",
          "type": "address"
        },
        {
          "indexed": true,
          "internalType": "address",
          "name": "to",
          "type": "address"
        },
        {
          "indexed": false,
          "internalType": "uint256[]",
          "name": "ids",
          "type": "uint256[]"
        },
        {
          "indexed": false,
          "internalType": "uint256[]",
          "name": "values",
          "type": "uint256[]"
        }
      ],
      "name": "TransferBatch",
      "type": "event"
    },
    {
      "anonymous": false,
      "inputs": [
        {
          "indexed": true,
          "internalType": "address",
          "name": "operator",
          "type": "address"
        },
        {
          "indexed": true,
          "internalType": "address",
          "name": "from",
          "type": "address"
        },
        {
          "indexed": true,
          "internalType": "address",
          "name": "to",
          "type": "address"
        },
        {
          "indexed": false,
          "internalType": "uint256",
          "name": "id",
          "type": "uint256"
        },
        {
          "indexed": false,
          "internalType": "uint256",
          "name": "value",
          "type": "uint256"
        }
      ],
      "name": "TransferSingle",
      "type": "event"
    },
    {
      "anonymous": false,
      "inputs": [
        {
          "indexed": false,
          "internalType": "string",
          "name": "value",
          "type": "string"
        },
        {
          "indexed": true,
          "internalType": "uint256",
          "name": "id",
          "type": "uint256"
        }
      ],
      "name": "URI",
      "type": "event"
    },
    {
      "inputs": [],
      "name": "BURNER",
      "outputs": [
        {
          "internalType": "bytes32",
          "name": "",
          "type": "bytes32"
        }
      ],
      "stateMutability": "view",
      "type": "function"
    },
    {
      "inputs": [],
      "name": "CONTRACT_ERC712_NAME",
      "outputs": [
        {
          "internalType": "string",
          "name": "",
          "type": "string"
        }
      ],
      "stateMutability": "view",
      "type": "function"
    },
    {
      "inputs": [],
      "name": "CONTRACT_ERC712_VERSION",
      "outputs": [
        {
          "internalType": "string",
          "name": "",
          "type": "string"
        }
      ],
      "stateMutability": "view",
      "type": "function"
    },
    {
      "inputs": [
        {
          "internalType": "uint256",
          "name": "creatorId",
          "type": "uint256"
        },
        {
          "internalType": "string",
          "name": "json",
          "type": "string"
        },
        {
          "internalType": "uint256",
          "name": "curve",
          "type": "uint256"
        },
        {
          "internalType": "uint256",
          "name": "multiplier",
          "type": "uint256"
        }
      ],
      "name": "CreateToken",
      "outputs": [],
      "stateMutability": "nonpayable",
      "type": "function"
    },
    {
      "inputs": [],
      "name": "DEFAULT_ADMIN_ROLE",
      "outputs": [
        {
          "internalType": "bytes32",
          "name": "",
          "type": "bytes32"
        }
      ],
      "stateMutability": "view",
      "type": "function"
    },
    {
      "inputs": [],
      "name": "EIP712_DOMAIN_TYPEHASH",
      "outputs": [
        {
          "internalType": "bytes32",
          "name": "",
          "type": "bytes32"
        }
      ],
      "stateMutability": "view",
      "type": "function"
    },
    {
      "inputs": [],
      "name": "MAX_PRICE",
      "outputs": [
        {
          "internalType": "uint256",
          "name": "",
          "type": "uint256"
        }
      ],
      "stateMutability": "view",
      "type": "function"
    },
    {
      "inputs": [],
      "name": "METADATA_ADMIN",
      "outputs": [
        {
          "internalType": "bytes32",
          "name": "",
          "type": "bytes32"
        }
      ],
      "stateMutability": "view",
      "type": "function"
    },
    {
      "inputs": [],
      "name": "MINTER",
      "outputs": [
        {
          "internalType": "bytes32",
          "name": "",
          "type": "bytes32"
        }
      ],
      "stateMutability": "view",
      "type": "function"
    },
    {
      "inputs": [
        {
          "internalType": "uint256",
          "name": "tokenId",
          "type": "uint256"
        },
        {
          "internalType": "uint256",
          "name": "onSaleDate",
          "type": "uint256"
        }
      ],
      "name": "SetTokenOnSaleDate",
      "outputs": [],
      "stateMutability": "nonpayable",
      "type": "function"
    },
    {
      "inputs": [
        {
          "internalType": "uint256",
          "name": "",
          "type": "uint256"
        }
      ],
      "name": "TokenSupply",
      "outputs": [
        {
          "internalType": "uint256",
          "name": "",
          "type": "uint256"
        }
      ],
      "stateMutability": "view",
      "type": "function"
    },
    {
      "inputs": [
        {
          "internalType": "uint256",
          "name": "tokenId",
          "type": "uint256"
        },
        {
          "internalType": "string",
          "name": "json",
          "type": "string"
        },
        {
          "internalType": "uint256",
          "name": "curve",
          "type": "uint256"
        },
        {
          "internalType": "uint256",
          "name": "multiplier",
          "type": "uint256"
        }
      ],
      "name": "UpdateTokenData",
      "outputs": [],
      "stateMutability": "nonpayable",
      "type": "function"
    },
    {
      "inputs": [
        {
          "internalType": "uint256",
          "name": "",
          "type": "uint256"
        }
      ],
      "name": "_tokenURIs",
      "outputs": [
        {
          "internalType": "string",
          "name": "",
          "type": "string"
        }
      ],
      "stateMutability": "view",
      "type": "function"
    },
    {
      "inputs": [
        {
          "internalType": "address",
          "name": "account",
          "type": "address"
        },
        {
          "internalType": "uint256",
          "name": "id",
          "type": "uint256"
        }
      ],
      "name": "balanceOf",
      "outputs": [
        {
          "internalType": "uint256",
          "name": "",
          "type": "uint256"
        }
      ],
      "stateMutability": "view",
      "type": "function"
    },
    {
      "inputs": [
        {
          "internalType": "address[]",
          "name": "accounts",
          "type": "address[]"
        },
        {
          "internalType": "uint256[]",
          "name": "ids",
          "type": "uint256[]"
        }
      ],
      "name": "balanceOfBatch",
      "outputs": [
        {
          "internalType": "uint256[]",
          "name": "",
          "type": "uint256[]"
        }
      ],
      "stateMutability": "view",
      "type": "function"
    },
    {
      "inputs": [
        {
          "internalType": "uint256",
          "name": "tokenId",
          "type": "uint256"
        }
      ],
      "name": "burn",
      "outputs": [],
      "stateMutability": "nonpayable",
      "type": "function"
    },
    {
      "inputs": [
        {
          "internalType": "uint256",
          "name": "id",
          "type": "uint256"
        },
        {
          "internalType": "uint256",
          "name": "value",
          "type": "uint256"
        }
      ],
      "name": "burn",
      "outputs": [],
      "stateMutability": "nonpayable",
      "type": "function"
    },
    {
      "inputs": [
        {
          "internalType": "uint256[]",
          "name": "ids",
          "type": "uint256[]"
        },
        {
          "internalType": "uint256[]",
          "name": "values",
          "type": "uint256[]"
        }
      ],
      "name": "burnBatch",
      "outputs": [],
      "stateMutability": "nonpayable",
      "type": "function"
    },
    {
      "inputs": [],
      "name": "burningActive",
      "outputs": [
        {
          "internalType": "bool",
          "name": "",
          "type": "bool"
        }
      ],
      "stateMutability": "view",
      "type": "function"
    },
    {
      "inputs": [
        {
          "internalType": "uint256",
          "name": "tokenId",
          "type": "uint256"
        },
        {
          "internalType": "uint256",
          "name": "maxPrice",
          "type": "uint256"
        }
      ],
      "name": "buyNFTwithGAME",
      "outputs": [],
      "stateMutability": "nonpayable",
      "type": "function"
    },
    {
      "inputs": [
        {
          "internalType": "uint256",
          "name": "c",
          "type": "uint256"
        }
      ],
      "name": "creatorAddress",
      "outputs": [
        {
          "internalType": "address",
          "name": "",
          "type": "address"
        }
      ],
      "stateMutability": "view",
      "type": "function"
    },
    {
      "inputs": [
        {
          "internalType": "uint256",
          "name": "",
          "type": "uint256"
        }
      ],
      "name": "curves",
      "outputs": [
        {
          "internalType": "uint256",
          "name": "",
          "type": "uint256"
        }
      ],
      "stateMutability": "view",
      "type": "function"
    },
    {
      "inputs": [
        {
          "internalType": "string",
          "name": "name",
          "type": "string"
        },
        {
          "internalType": "string",
          "name": "version",
          "type": "string"
        }
      ],
      "name": "encodeDomainSeperator",
      "outputs": [
        {
          "internalType": "bytes32",
          "name": "",
          "type": "bytes32"
        }
      ],
      "stateMutability": "view",
      "type": "function"
    },
    {
      "inputs": [
        {
          "internalType": "string",
          "name": "name",
          "type": "string"
        },
        {
          "internalType": "string",
          "name": "version",
          "type": "string"
        }
      ],
      "name": "encodeWorkerDomainSeperator",
      "outputs": [
        {
          "internalType": "bytes32",
          "name": "",
          "type": "bytes32"
        }
      ],
      "stateMutability": "view",
      "type": "function"
    },
    {
      "inputs": [
        {
          "internalType": "address",
          "name": "userAddress",
          "type": "address"
        },
        {
          "internalType": "bytes",
          "name": "functionSignature",
          "type": "bytes"
        },
        {
          "internalType": "bytes32",
          "name": "sigR",
          "type": "bytes32"
        },
        {
          "internalType": "bytes32",
          "name": "sigS",
          "type": "bytes32"
        },
        {
          "internalType": "uint8",
          "name": "sigV",
          "type": "uint8"
        }
      ],
      "name": "executeMetaTransaction",
      "outputs": [
        {
          "internalType": "bytes",
          "name": "",
          "type": "bytes"
        }
      ],
      "stateMutability": "payable",
      "type": "function"
    },
    {
      "inputs": [],
      "name": "gameAdmin",
      "outputs": [
        {
          "internalType": "contract iGAME_Game",
          "name": "",
          "type": "address"
        }
      ],
      "stateMutability": "view",
      "type": "function"
    },
    {
      "inputs": [],
      "name": "gameToken",
      "outputs": [
        {
          "internalType": "contract iGAME_ERC20",
          "name": "",
          "type": "address"
        }
      ],
      "stateMutability": "view",
      "type": "function"
    },
    {
      "inputs": [
        {
          "internalType": "uint256",
          "name": "tokenId",
          "type": "uint256"
        }
      ],
      "name": "getBuyPrice",
      "outputs": [
        {
          "internalType": "uint256",
          "name": "",
          "type": "uint256"
        }
      ],
      "stateMutability": "view",
      "type": "function"
    },
    {
      "inputs": [],
      "name": "getChainId",
      "outputs": [
        {
          "internalType": "uint256",
          "name": "",
          "type": "uint256"
        }
      ],
      "stateMutability": "pure",
      "type": "function"
    },
    {
      "inputs": [],
      "name": "getDomainSeperator",
      "outputs": [
        {
          "internalType": "bytes32",
          "name": "",
          "type": "bytes32"
        }
      ],
      "stateMutability": "view",
      "type": "function"
    },
    {
      "inputs": [
        {
          "internalType": "uint256",
          "name": "creator",
          "type": "uint256"
        }
      ],
      "name": "getNextTokenID",
      "outputs": [
        {
          "internalType": "uint256",
          "name": "",
          "type": "uint256"
        }
      ],
      "stateMutability": "view",
      "type": "function"
    },
    {
      "inputs": [
        {
          "internalType": "address",
          "name": "user",
          "type": "address"
        }
      ],
      "name": "getNonce",
      "outputs": [
        {
          "internalType": "uint256",
          "name": "nonce",
          "type": "uint256"
        }
      ],
      "stateMutability": "view",
      "type": "function"
    },
    {
      "inputs": [
        {
          "internalType": "uint256",
          "name": "tokenId",
          "type": "uint256"
        },
        {
          "internalType": "uint256",
          "name": "printNumber",
          "type": "uint256"
        }
      ],
      "name": "getPrintPrice",
      "outputs": [
        {
          "internalType": "uint256",
          "name": "price",
          "type": "uint256"
        }
      ],
      "stateMutability": "view",
      "type": "function"
    },
    {
      "inputs": [
        {
          "internalType": "bytes32",
          "name": "role",
          "type": "bytes32"
        }
      ],
      "name": "getRoleAdmin",
      "outputs": [
        {
          "internalType": "bytes32",
          "name": "",
          "type": "bytes32"
        }
      ],
      "stateMutability": "view",
      "type": "function"
    },
    {
      "inputs": [
        {
          "internalType": "bytes32",
          "name": "role",
          "type": "bytes32"
        },
        {
          "internalType": "uint256",
          "name": "index",
          "type": "uint256"
        }
      ],
      "name": "getRoleMember",
      "outputs": [
        {
          "internalType": "address",
          "name": "",
          "type": "address"
        }
      ],
      "stateMutability": "view",
      "type": "function"
    },
    {
      "inputs": [
        {
          "internalType": "bytes32",
          "name": "role",
          "type": "bytes32"
        }
      ],
      "name": "getRoleMemberCount",
      "outputs": [
        {
          "internalType": "uint256",
          "name": "",
          "type": "uint256"
        }
      ],
      "stateMutability": "view",
      "type": "function"
    },
    {
      "inputs": [
        {
          "internalType": "uint256",
          "name": "tokenId",
          "type": "uint256"
        }
      ],
      "name": "getSellPrice",
      "outputs": [
        {
          "internalType": "uint256",
          "name": "",
          "type": "uint256"
        }
      ],
      "stateMutability": "view",
      "type": "function"
    },
    {
      "inputs": [
        {
          "internalType": "uint256",
          "name": "_creatorID",
          "type": "uint256"
        },
        {
          "internalType": "uint256",
          "name": "token",
          "type": "uint256"
        }
      ],
      "name": "getTokenID",
      "outputs": [
        {
          "internalType": "uint256",
          "name": "",
          "type": "uint256"
        }
      ],
      "stateMutability": "view",
      "type": "function"
    },
    {
      "inputs": [],
      "name": "getWorkerDomainSeperator",
      "outputs": [
        {
          "internalType": "bytes32",
          "name": "",
          "type": "bytes32"
        }
      ],
      "stateMutability": "view",
      "type": "function"
    },
    {
      "inputs": [
        {
          "internalType": "bytes32",
          "name": "role",
          "type": "bytes32"
        },
        {
          "internalType": "address",
          "name": "account",
          "type": "address"
        }
      ],
      "name": "grantRole",
      "outputs": [],
      "stateMutability": "nonpayable",
      "type": "function"
    },
    {
      "inputs": [
        {
          "internalType": "uint256",
          "name": "id",
          "type": "uint256"
        }
      ],
      "name": "hasMinted",
      "outputs": [
        {
          "internalType": "bool",
          "name": "",
          "type": "bool"
        }
      ],
      "stateMutability": "view",
      "type": "function"
    },
    {
      "inputs": [
        {
          "internalType": "bytes32",
          "name": "role",
          "type": "bytes32"
        },
        {
          "internalType": "address",
          "name": "account",
          "type": "address"
        }
      ],
      "name": "hasRole",
      "outputs": [
        {
          "internalType": "bool",
          "name": "",
          "type": "bool"
        }
      ],
      "stateMutability": "view",
      "type": "function"
    },
    {
      "inputs": [
        {
          "internalType": "uint256",
          "name": "",
          "type": "uint256"
        }
      ],
      "name": "initialized",
      "outputs": [
        {
          "internalType": "bool",
          "name": "",
          "type": "bool"
        }
      ],
      "stateMutability": "view",
      "type": "function"
    },
    {
      "inputs": [
        {
          "internalType": "address",
          "name": "account",
          "type": "address"
        },
        {
          "internalType": "address",
          "name": "operator",
          "type": "address"
        }
      ],
      "name": "isApprovedForAll",
      "outputs": [
        {
          "internalType": "bool",
          "name": "",
          "type": "bool"
        }
      ],
      "stateMutability": "view",
      "type": "function"
    },
    {
      "inputs": [],
      "name": "isLocalContract",
      "outputs": [
        {
          "internalType": "bool",
          "name": "",
          "type": "bool"
        }
      ],
      "stateMutability": "pure",
      "type": "function"
    },
    {
      "inputs": [],
      "name": "masterContract",
      "outputs": [
        {
          "internalType": "contract iGAME_Master",
          "name": "",
          "type": "address"
        }
      ],
      "stateMutability": "view",
      "type": "function"
    },
    {
      "inputs": [
        {
          "internalType": "address",
          "name": "to",
          "type": "address"
        },
        {
          "internalType": "uint256",
          "name": "id",
          "type": "uint256"
        },
        {
          "internalType": "uint256",
          "name": "value",
          "type": "uint256"
        },
        {
          "internalType": "bytes",
          "name": "data",
          "type": "bytes"
        }
      ],
      "name": "mint",
      "outputs": [],
      "stateMutability": "nonpayable",
      "type": "function"
    },
    {
      "inputs": [
        {
          "internalType": "address",
          "name": "to",
          "type": "address"
        },
        {
          "internalType": "uint256[]",
          "name": "ids",
          "type": "uint256[]"
        },
        {
          "internalType": "uint256[]",
          "name": "values",
          "type": "uint256[]"
        },
        {
          "internalType": "bytes",
          "name": "data",
          "type": "bytes"
        }
      ],
      "name": "mintBatch",
      "outputs": [],
      "stateMutability": "nonpayable",
      "type": "function"
    },
    {
      "inputs": [],
      "name": "mintingActive",
      "outputs": [
        {
          "internalType": "bool",
          "name": "",
          "type": "bool"
        }
      ],
      "stateMutability": "view",
      "type": "function"
    },
    {
      "inputs": [],
      "name": "multiple",
      "outputs": [
        {
          "internalType": "uint256",
          "name": "",
          "type": "uint256"
        }
      ],
      "stateMutability": "view",
      "type": "function"
    },
    {
      "inputs": [
        {
          "internalType": "uint256",
          "name": "",
          "type": "uint256"
        }
      ],
      "name": "multipliers",
      "outputs": [
        {
          "internalType": "uint256",
          "name": "",
          "type": "uint256"
        }
      ],
      "stateMutability": "view",
      "type": "function"
    },
    {
      "inputs": [
        {
          "internalType": "uint256",
          "name": "",
          "type": "uint256"
        }
      ],
      "name": "nextTokenIDs",
      "outputs": [
        {
          "internalType": "uint256",
          "name": "",
          "type": "uint256"
        }
      ],
      "stateMutability": "view",
      "type": "function"
    },
    {
      "inputs": [],
      "name": "nextTokenId",
      "outputs": [
        {
          "internalType": "uint256",
          "name": "",
          "type": "uint256"
        }
      ],
      "stateMutability": "view",
      "type": "function"
    },
    {
      "inputs": [
        {
          "internalType": "bytes32",
          "name": "role",
          "type": "bytes32"
        },
        {
          "internalType": "address",
          "name": "account",
          "type": "address"
        }
      ],
      "name": "renounceRole",
      "outputs": [],
      "stateMutability": "nonpayable",
      "type": "function"
    },
    {
      "inputs": [
        {
          "internalType": "bytes32",
          "name": "role",
          "type": "bytes32"
        },
        {
          "internalType": "address",
          "name": "account",
          "type": "address"
        }
      ],
      "name": "revokeRole",
      "outputs": [],
      "stateMutability": "nonpayable",
      "type": "function"
    },
    {
      "inputs": [
        {
          "internalType": "address",
          "name": "from",
          "type": "address"
        },
        {
          "internalType": "address",
          "name": "to",
          "type": "address"
        },
        {
          "internalType": "uint256[]",
          "name": "ids",
          "type": "uint256[]"
        },
        {
          "internalType": "uint256[]",
          "name": "amounts",
          "type": "uint256[]"
        },
        {
          "internalType": "bytes",
          "name": "data",
          "type": "bytes"
        }
      ],
      "name": "safeBatchTransferFrom",
      "outputs": [],
      "stateMutability": "nonpayable",
      "type": "function"
    },
    {
      "inputs": [
        {
          "internalType": "address",
          "name": "from",
          "type": "address"
        },
        {
          "internalType": "address",
          "name": "to",
          "type": "address"
        },
        {
          "internalType": "uint256",
          "name": "id",
          "type": "uint256"
        },
        {
          "internalType": "uint256",
          "name": "amount",
          "type": "uint256"
        },
        {
          "internalType": "bytes",
          "name": "data",
          "type": "bytes"
        }
      ],
      "name": "safeTransferFrom",
      "outputs": [],
      "stateMutability": "nonpayable",
      "type": "function"
    },
    {
      "inputs": [
        {
          "internalType": "uint256",
          "name": "",
          "type": "uint256"
        }
      ],
      "name": "saleStarts",
      "outputs": [
        {
          "internalType": "uint256",
          "name": "",
          "type": "uint256"
        }
      ],
      "stateMutability": "view",
      "type": "function"
    },
    {
      "inputs": [
        {
          "internalType": "address",
          "name": "operator",
          "type": "address"
        },
        {
          "internalType": "bool",
          "name": "approved",
          "type": "bool"
        }
      ],
      "name": "setApprovalForAll",
      "outputs": [],
      "stateMutability": "nonpayable",
      "type": "function"
    },
    {
      "inputs": [
        {
          "internalType": "string",
          "name": "newuri",
          "type": "string"
        }
      ],
      "name": "setBaseURI",
      "outputs": [],
      "stateMutability": "nonpayable",
      "type": "function"
    },
    {
      "inputs": [
        {
          "internalType": "address",
          "name": "a",
          "type": "address"
        }
      ],
      "name": "setFEERECEIVER",
      "outputs": [],
      "stateMutability": "nonpayable",
      "type": "function"
    },
    {
      "inputs": [
        {
          "internalType": "string",
          "name": "newuri",
          "type": "string"
        },
        {
          "internalType": "uint256",
          "name": "id",
          "type": "uint256"
        }
      ],
      "name": "setURI",
      "outputs": [],
      "stateMutability": "nonpayable",
      "type": "function"
    },
    {
      "inputs": [
        {
          "internalType": "bytes4",
          "name": "interfaceId",
          "type": "bytes4"
        }
      ],
      "name": "supportsInterface",
      "outputs": [
        {
          "internalType": "bool",
          "name": "",
          "type": "bool"
        }
      ],
      "stateMutability": "view",
      "type": "function"
    },
    {
      "inputs": [],
      "name": "toggleTokenBurning",
      "outputs": [],
      "stateMutability": "nonpayable",
      "type": "function"
    },
    {
      "inputs": [],
      "name": "toggleTokenMinting",
      "outputs": [],
      "stateMutability": "nonpayable",
      "type": "function"
    },
    {
      "inputs": [
        {
          "internalType": "address",
          "name": "contract_",
          "type": "address"
        },
        {
          "internalType": "bool",
          "name": "isLocal_",
          "type": "bool"
        }
      ],
      "name": "updateLocalContract",
      "outputs": [],
      "stateMutability": "nonpayable",
      "type": "function"
    },
    {
      "inputs": [
        {
          "internalType": "uint256",
          "name": "tokenid",
          "type": "uint256"
        }
      ],
      "name": "uri",
      "outputs": [
        {
          "internalType": "string",
          "name": "",
          "type": "string"
        }
      ],
      "stateMutability": "view",
      "type": "function"
    },
    {
      "inputs": [
        {
          "internalType": "address",
          "name": "userAddress_",
          "type": "address"
        },
        {
          "internalType": "bytes32",
          "name": "replayPrevention_",
          "type": "bytes32"
        },
        {
          "internalType": "bytes",
          "name": "functionSignature_",
          "type": "bytes"
        },
        {
          "internalType": "bytes32",
          "name": "sigR_",
          "type": "bytes32"
        },
        {
          "internalType": "bytes32",
          "name": "sigS_",
          "type": "bytes32"
        },
        {
          "internalType": "uint8",
          "name": "sigV_",
          "type": "uint8"
        }
      ],
      "name": "workerExecuteMetaTransaction",
      "outputs": [
        {
          "internalType": "bytes",
          "name": "",
          "type": "bytes"
        }
      ],
      "stateMutability": "payable",
      "type": "function"
    }
  ],
  "bytecode": "0x60806040526003600f55670de0b6b3a76400006010556ec097ce7bc90715b34b9f100000000060115562989680601c553480156200003c57600080fd5b506040516200648238038062006482833981810160405260608110156200006257600080fd5b508051602080830151604093840151845180860186526007815266626f6e64696e6760c81b818501528551808701875260018152603160f81b81860152865180880190975260048752631d195cdd60e21b94870194909452939491939092909182908290620000d86301ffc9a760e01b6200022f565b620000ea636cdb3d1360e11b6200022f565b620000fc6303a24d0760e21b6200022f565b6200011260006200010c620002b4565b620002b8565b62000130600080516020620064108339815191526200010c620002b4565b6200014e600080516020620063f08339815191526200010c620002b4565b6200016a6000600080516020620063f0833981519152620002c8565b62000186600060008051602062006410833981519152620002c8565b80516200019b90600690602084019062000594565b50620001aa905082826200031a565b600855620001b98282620003f3565b60095550508051620001d390600b90602084019062000594565b508151620001e990600c90602085019062000594565b5050601380546001600160a01b039586166001600160a01b0319918216179091556014805494861694821694909417909355506015805491909316911617905562000630565b6001600160e01b031980821614156200028f576040805162461bcd60e51b815260206004820152601c60248201527f4552433136353a20696e76616c696420696e7465726661636520696400000000604482015290519081900360640190fd5b6001600160e01b0319166000908152602081905260409020805460ff19166001179055565b3390565b620002c4828262000490565b5050565b600082815260056020526040808220600201549051839285917fbd79b86ffe0ab8e8776151514217cd7cacd52c909f66475c3af44e129f0b00ff9190a460009182526005602052604090912060020155565b600080620003276200050b565b9050806200037c576040805162461bcd60e51b815260206004820152601960248201527f636861696e204944206d757374206e6f74206265207a65726f00000000000000604482015290519081900360640190fd5b60405180608001604052806052815260200162006430605291398051602091820120855186830120855186840120604080518086019490945283810192909252606083015260808201939093523060a0808301919091528351808303909101815260c0909101909252815191012090505b92915050565b600080620004006200050b565b90508060891480620004125750806001145b62000434578062013881146200042b57617a696200042e565b60055b62000437565b60015b61ffff169050806200037c576040805162461bcd60e51b815260206004820152601960248201527f636861696e204944206d757374206e6f74206265207a65726f00000000000000604482015290519081900360640190fd5b6000828152600560209081526040909120620004b7918390620042e56200050f821b17901c565b15620002c457620004c7620002b4565b6001600160a01b0316816001600160a01b0316837f2f8788117e7eff1d82e926ec794901d17c78024a50270940304540a733656f0d60405160405180910390a45050565b4690565b600062000526836001600160a01b0384166200052d565b9392505050565b60006200053b83836200057c565b6200057357508154600181810184556000848152602080822090930184905584548482528286019093526040902091909155620003ed565b506000620003ed565b60009081526001919091016020526040902054151590565b828054600181600116156101000203166002900490600052602060002090601f016020900481019282601f10620005d757805160ff191683800117855562000607565b8280016001018555821562000607579182015b8281111562000607578251825591602001919060010190620005ea565b506200061592915062000619565b5090565b5b808211156200061557600081556001016200061a565b615db080620006406000396000f3fe6080604052600436106103ee5760003560e01c8063654d133311610208578063b2a999c711610118578063cd446e22116100ab578063e985e9c51161007a578063e985e9c5146119e1578063ec79825714611a1c578063f242432a14611a46578063f40c96ab14611b1c578063fe6d812414611b31576103ee565b8063cd446e2214611954578063d547741f14611969578063e1a1a66c146119a2578063e5b95595146119b7576103ee565b8063c3dfdae6116100e7578063c3dfdae6146118d0578063c707562d146118e5578063c7977be714611915578063ca15c8731461192a576103ee565b8063b2a999c71461178f578063b390c0ab146117b9578063ba730e53146117e9578063ba84be0714611813576103ee565b80638749474f1161019b578063a217fddf1161016a578063a217fddf14611639578063a22cb4651461164e578063ac7fc26314611689578063ad2ded2b146116b3578063b1de303e1461177a576103ee565b80638749474f1461157c5780639010d07c146115a657806391d14854146115d6578063979711601461160f576103ee565b806375794a3c116101d757806375794a3c146113f1578063765d6cce1461140657806376adcba51461141b57806383ca4b6f1461144c576103ee565b8063654d13331461107e57806367db3b8f1461113b5780636d4b99e0146111ee578063731133e914611324576103ee565b8063248a9ca3116103035780633408e4701161029657806342966c681161026557806342966c6814610dd3578063437a8ae614610dfd5780634e1273f414610e1257806355f804b314610f925780635958b30114611043576103ee565b80633408e47014610d3157806336568abe14610d465780633d24265514610d7f5780633f89730014610da9576103ee565b80632d0335ab116102d25780632d0335ab14610ae25780632eb2c2d614610b155780632f2ff15d14610ce357806331f9c91914610d1c576103ee565b8063248a9ca31461093d57806326150e951461096757806327430a421461097c5780632b606d2c14610ab2576103ee565b80631490185c116103865780631c7c2598116103555780631c7c2598146107065780631d84003f1461071b5780631f7fdffa1461074e57806320379ee51461091357806321c7cf4d14610928576103ee565b80631490185c14610665578063161e650d14610695578063186d4432146106aa5780631bf7d749146106dc576103ee565b80630bb78ec1116103c25780630bb78ec1146104c55780630c53c51c146105645780630e89341c14610626578063118c4f1314610650576103ee565b8062fdd58e146103f357806301c11d961461043e57806301ffc9a71461045357806308d4db141461049b575b600080fd5b3480156103ff57600080fd5b5061042c6004803603604081101561041657600080fd5b506001600160a01b038135169060200135611b46565b60408051918252519081900360200190f35b34801561044a57600080fd5b5061042c611bb8565b34801561045f57600080fd5b506104876004803603602081101561047657600080fd5b50356001600160e01b031916611bbe565b604080519115158252519081900360200190f35b3480156104a757600080fd5b5061042c600480360360208110156104be57600080fd5b5035611be1565b3480156104d157600080fd5b506104ef600480360360208110156104e857600080fd5b5035611c04565b6040805160208082528351818301528351919283929083019185019080838360005b83811015610529578181015183820152602001610511565b50505050905090810190601f1680156105565780820380516001836020036101000a031916815260200191505b509250505060405180910390f35b6104ef600480360360a081101561057a57600080fd5b6001600160a01b038235169190810190604081016020820135600160201b8111156105a457600080fd5b8201836020820111156105b657600080fd5b803590602001918460018302840111600160201b831117156105d757600080fd5b91908080601f016020809104026020016040519081016040528093929190818152602001838380828437600092019190915250929550508235935050506020810135906040013560ff16611c9f565b34801561063257600080fd5b506104ef6004803603602081101561064957600080fd5b5035611fac565b34801561065c57600080fd5b5061042c612210565b34801561067157600080fd5b5061042c6004803603604081101561068857600080fd5b5080359060200135612234565b3480156106a157600080fd5b5061042c61223f565b3480156106b657600080fd5b506106da600480360360408110156106cd57600080fd5b5080359060200135612246565b005b3480156106e857600080fd5b5061042c600480360360208110156106ff57600080fd5b5035612623565b34801561071257600080fd5b50610487612635565b34801561072757600080fd5b506106da6004803603602081101561073e57600080fd5b50356001600160a01b0316612643565b34801561075a57600080fd5b506106da6004803603608081101561077157600080fd5b6001600160a01b038235169190810190604081016020820135600160201b81111561079b57600080fd5b8201836020820111156107ad57600080fd5b803590602001918460208302840111600160201b831117156107ce57600080fd5b9190808060200260200160405190810160405280939291908181526020018383602002808284376000920191909152509295949360208101935035915050600160201b81111561081d57600080fd5b82018360208201111561082f57600080fd5b803590602001918460208302840111600160201b8311171561085057600080fd5b9190808060200260200160405190810160405280939291908181526020018383602002808284376000920191909152509295949360208101935035915050600160201b81111561089f57600080fd5b8201836020820111156108b157600080fd5b803590602001918460018302840111600160201b831117156108d257600080fd5b91908080601f016020809104026020016040519081016040528093929190818152602001838380828437600092019190915250929550612679945050505050565b34801561091f57600080fd5b5061042c6126be565b34801561093457600080fd5b506106da6126c4565b34801561094957600080fd5b5061042c6004803603602081101561096057600080fd5b50356126f5565b34801561097357600080fd5b506106da61270a565b34801561098857600080fd5b5061042c6004803603604081101561099f57600080fd5b810190602081018135600160201b8111156109b957600080fd5b8201836020820111156109cb57600080fd5b803590602001918460018302840111600160201b831117156109ec57600080fd5b91908080601f0160208091040260200160405190810160405280939291908181526020018383808284376000920191909152509295949360208101935035915050600160201b811115610a3e57600080fd5b820183602082011115610a5057600080fd5b803590602001918460018302840111600160201b83111715610a7157600080fd5b91908080601f016020809104026020016040519081016040528093929190818152602001838380828437600092019190915250929550612732945050505050565b348015610abe57600080fd5b5061042c60048036036040811015610ad557600080fd5b5080359060200135612838565b348015610aee57600080fd5b5061042c60048036036020811015610b0557600080fd5b50356001600160a01b03166128cd565b348015610b2157600080fd5b506106da600480360360a0811015610b3857600080fd5b6001600160a01b038235811692602081013590911691810190606081016040820135600160201b811115610b6b57600080fd5b820183602082011115610b7d57600080fd5b803590602001918460208302840111600160201b83111715610b9e57600080fd5b9190808060200260200160405190810160405280939291908181526020018383602002808284376000920191909152509295949360208101935035915050600160201b811115610bed57600080fd5b820183602082011115610bff57600080fd5b803590602001918460208302840111600160201b83111715610c2057600080fd5b9190808060200260200160405190810160405280939291908181526020018383602002808284376000920191909152509295949360208101935035915050600160201b811115610c6f57600080fd5b820183602082011115610c8157600080fd5b803590602001918460018302840111600160201b83111715610ca257600080fd5b91908080601f0160208091040260200160405190810160405280939291908181526020018383808284376000920191909152509295506128e8945050505050565b348015610cef57600080fd5b506106da60048036036040811015610d0657600080fd5b50803590602001356001600160a01b0316612be6565b348015610d2857600080fd5b50610487612c52565b348015610d3d57600080fd5b5061042c612c5b565b348015610d5257600080fd5b506106da60048036036040811015610d6957600080fd5b50803590602001356001600160a01b0316612c5f565b348015610d8b57600080fd5b5061042c60048036036020811015610da257600080fd5b5035612cc0565b348015610db557600080fd5b5061042c60048036036020811015610dcc57600080fd5b5035612cd2565b348015610ddf57600080fd5b506106da60048036036020811015610df657600080fd5b5035612ce4565b348015610e0957600080fd5b5061042c612ee4565b348015610e1e57600080fd5b50610f4260048036036040811015610e3557600080fd5b810190602081018135600160201b811115610e4f57600080fd5b820183602082011115610e6157600080fd5b803590602001918460208302840111600160201b83111715610e8257600080fd5b9190808060200260200160405190810160405280939291908181526020018383602002808284376000920191909152509295949360208101935035915050600160201b811115610ed157600080fd5b820183602082011115610ee357600080fd5b803590602001918460208302840111600160201b83111715610f0457600080fd5b919080806020026020016040519081016040528093929190818152602001838360200280828437600092019190915250929550612eea945050505050565b60408051602080825283518183015283519192839290830191858101910280838360005b83811015610f7e578181015183820152602001610f66565b505050509050019250505060405180910390f35b348015610f9e57600080fd5b506106da60048036036020811015610fb557600080fd5b810190602081018135600160201b811115610fcf57600080fd5b820183602082011115610fe157600080fd5b803590602001918460018302840111600160201b8311171561100257600080fd5b91908080601f016020809104026020016040519081016040528093929190818152602001838380828437600092019190915250929550613068945050505050565b34801561104f57600080fd5b506106da6004803603604081101561106657600080fd5b506001600160a01b0381351690602001351515612c4e565b34801561108a57600080fd5b506106da600480360360808110156110a157600080fd5b81359190810190604081016020820135600160201b8111156110c257600080fd5b8201836020820111156110d457600080fd5b803590602001918460018302840111600160201b831117156110f557600080fd5b91908080601f01602080910402602001604051908101604052809392919081815260200183838082843760009201919091525092955050823593505050602001356130ae565b34801561114757600080fd5b506106da6004803603604081101561115e57600080fd5b810190602081018135600160201b81111561117857600080fd5b82018360208201111561118a57600080fd5b803590602001918460018302840111600160201b831117156111ab57600080fd5b91908080601f01602080910402602001604051908101604052809392919081815260200183838082843760009201919091525092955050913592506133c5915050565b3480156111fa57600080fd5b5061042c6004803603604081101561121157600080fd5b810190602081018135600160201b81111561122b57600080fd5b82018360208201111561123d57600080fd5b803590602001918460018302840111600160201b8311171561125e57600080fd5b91908080601f0160208091040260200160405190810160405280939291908181526020018383808284376000920191909152509295949360208101935035915050600160201b8111156112b057600080fd5b8201836020820111156112c257600080fd5b803590602001918460018302840111600160201b831117156112e357600080fd5b91908080601f01602080910402602001604051908101604052809392919081815260200183838082843760009201919091525092955061341c945050505050565b34801561133057600080fd5b506106da6004803603608081101561134757600080fd5b6001600160a01b038235169160208101359160408201359190810190608081016060820135600160201b81111561137d57600080fd5b82018360208201111561138f57600080fd5b803590602001918460018302840111600160201b831117156113b057600080fd5b91908080601f016020809104026020016040519081016040528093929190818152602001838380828437600092019190915250929550613477945050505050565b3480156113fd57600080fd5b5061042c6134b6565b34801561141257600080fd5b506104876134bc565b34801561142757600080fd5b506114306134c1565b604080516001600160a01b039092168252519081900360200190f35b34801561145857600080fd5b506106da6004803603604081101561146f57600080fd5b810190602081018135600160201b81111561148957600080fd5b82018360208201111561149b57600080fd5b803590602001918460208302840111600160201b831117156114bc57600080fd5b9190808060200260200160405190810160405280939291908181526020018383602002808284376000920191909152509295949360208101935035915050600160201b81111561150b57600080fd5b82018360208201111561151d57600080fd5b803590602001918460208302840111600160201b8311171561153e57600080fd5b9190808060200260200160405190810160405280939291908181526020018383602002808284376000920191909152509295506134d0945050505050565b34801561158857600080fd5b5061042c6004803603602081101561159f57600080fd5b50356134db565b3480156115b257600080fd5b50611430600480360360408110156115c957600080fd5b50803590602001356134ed565b3480156115e257600080fd5b50610487600480360360408110156115f957600080fd5b50803590602001356001600160a01b0316613505565b34801561161b57600080fd5b506104876004803603602081101561163257600080fd5b503561351d565b34801561164557600080fd5b5061042c613532565b34801561165a57600080fd5b506106da6004803603604081101561167157600080fd5b506001600160a01b0381351690602001351515613537565b34801561169557600080fd5b5061042c600480360360208110156116ac57600080fd5b5035613626565b6104ef600480360360c08110156116c957600080fd5b6001600160a01b0382351691602081013591810190606081016040820135600160201b8111156116f857600080fd5b82018360208201111561170a57600080fd5b803590602001918460018302840111600160201b8311171561172b57600080fd5b91908080601f016020809104026020016040519081016040528093929190818152602001838380828437600092019190915250929550508235935050506020810135906040013560ff16613638565b34801561178657600080fd5b5061042c6139c9565b34801561179b57600080fd5b50611430600480360360208110156117b257600080fd5b5035612243565b3480156117c557600080fd5b506106da600480360360408110156117dc57600080fd5b50803590602001356139ed565b3480156117f557600080fd5b5061042c6004803603602081101561180c57600080fd5b50356139f8565b34801561181f57600080fd5b506106da6004803603608081101561183657600080fd5b81359190810190604081016020820135600160201b81111561185757600080fd5b82018360208201111561186957600080fd5b803590602001918460018302840111600160201b8311171561188a57600080fd5b91908080601f0160208091040260200160405190810160405280939291908181526020018383808284376000920191909152509295505082359350505060200135613a1b565b3480156118dc57600080fd5b50611430613d47565b3480156118f157600080fd5b506106da6004803603604081101561190857600080fd5b5080359060200135613d56565b34801561192157600080fd5b5061042c613f49565b34801561193657600080fd5b5061042c6004803603602081101561194d57600080fd5b5035613f6c565b34801561196057600080fd5b50611430613f83565b34801561197557600080fd5b506106da6004803603604081101561198c57600080fd5b50803590602001356001600160a01b0316613f92565b3480156119ae57600080fd5b506104ef613feb565b3480156119c357600080fd5b50610487600480360360208110156119da57600080fd5b5035614046565b3480156119ed57600080fd5b5061048760048036036040811015611a0457600080fd5b506001600160a01b038135811691602001351661405b565b348015611a2857600080fd5b5061042c60048036036020811015611a3f57600080fd5b5035614089565b348015611a5257600080fd5b506106da600480360360a0811015611a6957600080fd5b6001600160a01b03823581169260208101359091169160408201359160608101359181019060a081016080820135600160201b811115611aa857600080fd5b820183602082011115611aba57600080fd5b803590602001918460018302840111600160201b83111715611adb57600080fd5b91908080601f01602080910402602001604051908101604052809392919081815260200183838082843760009201919091525092955061409b945050505050565b348015611b2857600080fd5b506104ef614266565b348015611b3d57600080fd5b5061042c6142c1565b60006001600160a01b038316611b8d5760405162461bcd60e51b815260040180806020018281038252602b8152602001806159a4602b913960400191505060405180910390fd5b5060008181526001602090815260408083206001600160a01b03861684529091529020545b92915050565b60115481565b6001600160e01b0319811660009081526020819052604090205460ff165b919050565b600081815260196020526040812054611bfd8360018301612838565b9392505050565b60076020908152600091825260409182902080548351601f600260001961010060018616150201909316929092049182018490048402810184019094528084529091830182828015611c975780601f10611c6c57610100808354040283529160200191611c97565b820191906000526020600020905b815481529060010190602001808311611c7a57829003601f168201915b505050505081565b6060611ca961574e565b50604080516060810182526001600160a01b0388166000818152600a602090815290849020548352820152908101869052611ce787828787876142fa565b611d225760405162461bcd60e51b8152600401808060200182810382526021815260200180615c4e6021913960400191505060405180910390fd5b6001600160a01b0387166000908152600a6020526040902054611d469060016143a2565b600a6000896001600160a01b03166001600160a01b03168152602001908152602001600020819055507f5845892132946850460bff5a0083f71031bc5bf9aadcd40f1de79423eac9b10b87338860405180846001600160a01b03168152602001836001600160a01b0316815260200180602001828103825283818151815260200191508051906020019080838360005b83811015611dee578181015183820152602001611dd6565b50505050905090810190601f168015611e1b5780820380516001836020036101000a031916815260200191505b5094505050505060405180910390a160006060306001600160a01b0316888a6040516020018083805190602001908083835b60208310611e6c5780518252601f199092019160209182019101611e4d565b6001836020036101000a038019825116818451168082178552505050505050905001826001600160a01b031660601b8152601401925050506040516020818303038152906040526040518082805190602001908083835b60208310611ee25780518252601f199092019160209182019101611ec3565b6001836020036101000a0380198251168184511680821785525050505050509050019150506000604051808303816000865af19150503d8060008114611f44576040519150601f19603f3d011682016040523d82523d6000602084013e611f49565b606091505b509150915081611fa0576040805162461bcd60e51b815260206004820152601c60248201527f46756e6374696f6e2063616c6c206e6f74207375636365737366756c00000000604482015290519081900360640190fd5b98975050505050505050565b6000818152600760209081526040918290208054835160026001831615610100026000190190921691909104601f810184900484028201840190945283815260609384939192918301828280156120445780601f1061201957610100808354040283529160200191612044565b820191906000526020600020905b81548152906001019060200180831161202757829003601f168201915b50506006549394505050506002600019610100600184161502019091160461206d579050611bdc565b80511561213e5760068160405160200180838054600181600116156101000203166002900480156120d55780601f106120b35761010080835404028352918201916120d5565b820191906000526020600020905b8154815290600101906020018083116120c1575b5050825160208401908083835b602083106121015780518252601f1990920191602091820191016120e2565b6001836020036101000a03801982511681845116808217855250505050505090500192505050604051602081830303815290604052915050611bdc565b6006612149846143fc565b60405160200180838054600181600116156101000203166002900480156121a75780601f106121855761010080835404028352918201916121a7565b820191906000526020600020905b815481529060010190602001808311612193575b5050825160208401908083835b602083106121d35780518252601f1990920191602091820191016121b4565b6001836020036101000a03801982511681845116808217855250505050505090500192505050604051602081830303815290604052915050919050565b7f9667e80708b6eeeb0053fa0cca44e028ff548e2a9f029edfeac87c118b08b7c881565b601054919091020190565b6009545b90565b60008281526018602052604090205442118015612270575060008281526018602052604090205415155b6122c1576040805162461bcd60e51b815260206004820152601860248201527f73616c6520686173206e6f742073746172746564207965740000000000000000604482015290519081900360640190fd5b600060105483816122ce57fe5b04905060006122dc84611be1565b90506000811180156122ee5750828111155b61232f576040805162461bcd60e51b815260206004820152600d60248201526c696e76616c696420707269636560981b604482015290519081900360640190fd5b6000848152601960205260409020805460010190556013546001600160a01b031663e2b8e7d361235d6144d7565b30846040518463ffffffff1660e01b815260040180846001600160a01b03168152602001836001600160a01b031681526020018281526020019350505050600060405180830381600087803b1580156123b557600080fd5b505af11580156123c9573d6000803e3d6000fd5b505050506123d6816144db565b60006123e382603261451f565b905060006123fd60646123f7856008614561565b9061451f565b905061242261240a6144d7565b876001604051806020016040528060008152506145ba565b836001600160a01b03166124346144d7565b6001600160a01b03167fa8f60c2735df0121f6c1fb70fdc37e927e3b21f7266de2beeace3ed35b8634d088866124698b611be1565b6124728c6139f8565b60008d8152601960209081526040918290205460135483516370a0823160e01b8152306004820152935191938c936001600160a01b03909216926370a0823192602480840193919291829003018186803b1580156124cf57600080fd5b505afa1580156124e3573d6000803e3d6000fd5b505050506040513d60208110156124f957600080fd5b5051604080519788526020880196909652868601949094526060860192909252608085015260a084015260c0830152519081900360e00190a36013546012546040805163e2b8e7d360e01b81523060048201526001600160a01b039283166024820152604481018690529051919092169163e2b8e7d391606480830192600092919082900301818387803b15801561259057600080fd5b505af11580156125a4573d6000803e3d6000fd5b50506013546040805163e2b8e7d360e01b81523060048201526001600160a01b03898116602483015260448201879052915191909216935063e2b8e7d39250606480830192600092919082900301818387803b15801561260357600080fd5b505af1158015612617573d6000803e3d6000fd5b50505050505050505050565b60166020526000908152604090205481565b600e54610100900460ff1681565b61264e600033613505565b61265757600080fd5b601280546001600160a01b0319166001600160a01b0392909216919091179055565b6126a37ff0887ba65ee2024ea881d91b74c2450ef19e1557f03bed3ea9f16b037cbe2dc933613505565b6126ac57600080fd5b6126b8848484846146f2565b50505050565b60085490565b6126cf600033613505565b6126d857600080fd5b600e805461ff001981166101009182900460ff1615909102179055565b60009081526005602052604090206002015490565b612715600033613505565b61271e57600080fd5b600e805460ff19811660ff90911615179055565b60008061273d612c5b565b9050806089148061274e5750806001145b61276c5780620138811461276457617a69612767565b60055b61276f565b60015b61ffff169050806127c3576040805162461bcd60e51b8152602060048201526019602482015278636861696e204944206d757374206e6f74206265207a65726f60381b604482015290519081900360640190fd5b604051806080016040528060528152602001615b64605291398051602091820120855186830120855186840120604080518086019490945283810192909252606083015260808201939093523060a0808301919091528351808303909101815260c09091019092528151910120905092915050565b600082815260166020908152604080832054601a909252822054600f54600a0a603284612870600986900a6123f760038a0a86614561565b905061288a612883866123f78a87614561565b82906143a2565b90506128996128838385614561565b90506128b56103e86123f7866128af858a61451f565b90614561565b9050611fa0836123f783670de0b6b3a7640000614561565b6001600160a01b03166000908152600a602052604090205490565b81518351146129285760405162461bcd60e51b8152600401808060200182810382526028815260200180615d036028913960400191505060405180910390fd5b6001600160a01b03841661296d5760405162461bcd60e51b8152600401808060200182810382526025815260200180615ac06025913960400191505060405180910390fd5b6129756144d7565b6001600160a01b0316856001600160a01b031614806129a057506129a08561299b6144d7565b61405b565b6129db5760405162461bcd60e51b8152600401808060200182810382526032815260200180615ae56032913960400191505060405180910390fd5b60006129e56144d7565b90506129f5818787878787612bde565b60005b8451811015612af6576000858281518110612a0f57fe5b602002602001015190506000858381518110612a2757fe5b60200260200101519050612a94816040518060600160405280602a8152602001615b3a602a91396001600086815260200190815260200160002060008d6001600160a01b03166001600160a01b03168152602001908152602001600020546149b29092919063ffffffff16565b60008381526001602090815260408083206001600160a01b038e811685529252808320939093558a1681522054612acb90826143a2565b60009283526001602081815260408086206001600160a01b038d1687529091529093205550016129f8565b50846001600160a01b0316866001600160a01b0316826001600160a01b03167f4a39dc06d4c0dbc64b70af90fd698a233a518aa5d07e595d983b8c0526c8f7fb8787604051808060200180602001838103835285818151815260200191508051906020019060200280838360005b83811015612b7c578181015183820152602001612b64565b50505050905001838103825284818151815260200191508051906020019060200280838360005b83811015612bbb578181015183820152602001612ba3565b5050505090500194505050505060405180910390a4612bde818787878787614a49565b505050505050565b600082815260056020526040902060020154612c0990612c046144d7565b613505565b612c445760405162461bcd60e51b815260040180806020018281038252602f815260200180615954602f913960400191505060405180910390fd5b612c4e8282614cc8565b5050565b600e5460ff1681565b4690565b612c676144d7565b6001600160a01b0316816001600160a01b031614612cb65760405162461bcd60e51b815260040180806020018281038252602f815260200180615d4c602f913960400191505060405180910390fd5b612c4e8282614d31565b60196020526000908152604090205481565b601b6020526000908152604090205481565b6001612cf03383611b46565b1015612d2d5760405162461bcd60e51b8152600401808060200182810382526023815260200180615bb66023913960400191505060405180910390fd5b6000612d38826139f8565b600083815260196020526040902080546000190190559050612d63612d5b6144d7565b836001614d9a565b612d6b6144d7565b6001600160a01b03167f7f189ad2df0843ce2bba34028497b567ecb15a53dbfb381e8b7a3f1d5ca87d718383612da086611be1565b612da9876139f8565b6000888152601960209081526040918290205460135483516370a0823160e01b8152306004820152935191936001600160a01b03909116926370a0823192602480840193829003018186803b158015612e0157600080fd5b505afa158015612e15573d6000803e3d6000fd5b505050506040513d6020811015612e2b57600080fd5b5051604080519687526020870195909552858501939093526060850191909152608084015260a0830152519081900360c00190a26013546001600160a01b031663e2b8e7d330612e796144d7565b846040518463ffffffff1660e01b815260040180846001600160a01b03168152602001836001600160a01b031681526020018281526020019350505050600060405180830381600087803b158015612ed057600080fd5b505af1158015612bde573d6000803e3d6000fd5b601c5481565b60608151835114612f2c5760405162461bcd60e51b8152600401808060200182810382526029815260200180615cda6029913960400191505060405180910390fd5b6060835167ffffffffffffffff81118015612f4657600080fd5b50604051908082528060200260200182016040528015612f70578160200160208202803683370190505b50905060005b84518110156130605760006001600160a01b0316858281518110612f9657fe5b60200260200101516001600160a01b03161415612fe45760405162461bcd60e51b81526004018080602001828103825260318152602001806159cf6031913960400191505060405180910390fd5b60016000858381518110612ff457fe5b60200260200101518152602001908152602001600020600086838151811061301857fe5b60200260200101516001600160a01b03166001600160a01b031681526020019081526020016000205482828151811061304d57fe5b6020908102919091010152600101612f76565b509392505050565b6130927ff6e33f9720e4529cb1c710e3344dc00830589a3239198ffa39b07117085d250e33613505565b61309b57600080fd5b8051612c4e906006906020840190615778565b6000848152601b60205260408120805460010190556130cc856134db565b9050620f4240811061311c576040805162461bcd60e51b815260206004820152601460248201527306d617820746f6b656e206f6620313030303030360641b604482015290519081900360640190fd5b60008311801561312d575060148311155b80156131395750600082115b80156131485750620f42408211155b613199576040805162461bcd60e51b815260206004820152601b60248201527f76616c696420637572766520616e64206d756c7469706c696572730000000000604482015290519081900360640190fd5b60018451116131e4576040805162461bcd60e51b81526020600482015260126024820152711a9cdbdb881b5d5cdd081b9bdb881b9d5b1b60721b604482015290519081900360640190fd5b6014546001600160a01b0316634ba3d748866131fe6144d7565b6040518363ffffffff1660e01b815260040180838152602001826001600160a01b0316815260200192505050602060405180830381600087803b15801561324457600080fd5b505af1158015613258573d6000803e3d6000fd5b505050506040513d602081101561326e57600080fd5b505115156001146132c6576040805162461bcd60e51b815260206004820152601f60248201527f73656e646572206d757374206265206d696e696f6e206f7220776f726b657200604482015290519081900360640190fd5b60006132d28683612234565b6000818152601660209081526040808320889055601a825280832087905560178252808320805460ff1916600117905580518481529081018890526060810187905260808183018181528a519183019190915289519495507f855f2403a3717b569ca6483cb3250554954ef4734871df9005e45eb9bffce8cf9486948b948b948b949093909260a0850192880191908190849084905b83811015613380578181015183820152602001613368565b50505050905090810190601f1680156133ad5780820380516001836020036101000a031916815260200191505b509550505050505060405180910390a1505050505050565b6133ef7ff6e33f9720e4529cb1c710e3344dc00830589a3239198ffa39b07117085d250e33613505565b6133f857600080fd5b6000818152600760209081526040909120835161341792850190615778565b505050565b600080613427612c5b565b9050806127c3576040805162461bcd60e51b8152602060048201526019602482015278636861696e204944206d757374206e6f74206265207a65726f60381b604482015290519081900360640190fd5b6134a17ff0887ba65ee2024ea881d91b74c2450ef19e1557f03bed3ea9f16b037cbe2dc933613505565b6134aa57600080fd5b6126b8848484846145ba565b601d5481565b600190565b6014546001600160a01b031681565b612c4e338383614ecd565b6000908152601b602052604090205490565b6000828152600560205260408120611bfd908361513b565b6000828152600560205260408120611bfd9083615147565b60176020526000908152604090205460ff1681565b600081565b816001600160a01b03166135496144d7565b6001600160a01b0316141561358f5760405162461bcd60e51b8152600401808060200182810382526029815260200180615cb16029913960400191505060405180910390fd5b806003600061359c6144d7565b6001600160a01b03908116825260208083019390935260409182016000908120918716808252919093529120805460ff1916921515929092179091556135e06144d7565b6001600160a01b03167f17307eab39ab6107e8899845ad3d59bd9653f200f220920489ca2b5937696c318360405180821515815260200191505060405180910390a35050565b601a6020526000908152604090205481565b606061364261515c565b61367d5760405162461bcd60e51b8152600401808060200182810382526042815260200180615c6f6042913960600191505060405180910390fd5b6136856157f6565b50604080516060810182528781526001600160a01b03891660208201529081018690526136b588828787876151d9565b6136f05760405162461bcd60e51b8152600401808060200182810382526021815260200180615c4e6021913960400191505060405180910390fd5b6001600160a01b0388166000908152600d602090815260408083208a845290915290205460ff1615613769576040805162461bcd60e51b815260206004820181905260248201527f5245504c4159206f6620612070726576696f7573207472616e73616374696f6e604482015290519081900360640190fd5b6001600160a01b0388166000818152600d602090815260408083208b84528252808320805460ff1916600117905580519384523384830181905260609185018281528b51928601929092528a517f5845892132946850460bff5a0083f71031bc5bf9aadcd40f1de79423eac9b10b958e9592948d94919391926080850192918601918190849084905b8381101561380a5781810151838201526020016137f2565b50505050905090810190601f1680156138375780820380516001836020036101000a031916815260200191505b5094505050505060405180910390a160006060306001600160a01b0316888b6040516020018083805190602001908083835b602083106138885780518252601f199092019160209182019101613869565b6001836020036101000a038019825116818451168082178552505050505050905001826001600160a01b031660601b8152601401925050506040516020818303038152906040526040518082805190602001908083835b602083106138fe5780518252601f1990920191602091820191016138df565b6001836020036101000a0380198251168184511680821785525050505050509050019150506000604051808303816000865af19150503d8060008114613960576040519150601f19603f3d011682016040523d82523d6000602084013e613965565b606091505b5091509150816139bc576040805162461bcd60e51b815260206004820152601c60248201527f46756e6374696f6e2063616c6c206e6f74207375636365737366756c00000000604482015290519081900360640190fd5b9998505050505050505050565b7ff6e33f9720e4529cb1c710e3344dc00830589a3239198ffa39b07117085d250e81565b612c4e338383614d9a565b600081815260196020526040812054611bfd60646123f7605a6128af8786612838565b60006010548581613a2857fe5b049050613a3485614046565b15613a82576040805162461bcd60e51b81526020600482015260196024820152781d1bdad95b881a185cc81b9bdd081899595b881b5a5b9d1959603a1b604482015290519081900360640190fd5b6014546001600160a01b0316634ba3d74882613a9c6144d7565b6040518363ffffffff1660e01b815260040180838152602001826001600160a01b0316815260200192505050602060405180830381600087803b158015613ae257600080fd5b505af1158015613af6573d6000803e3d6000fd5b505050506040513d6020811015613b0c57600080fd5b50511515600114613b4e5760405162461bcd60e51b81526004018080602001828103825260218152602001806159836021913960400191505060405180910390fd5b600083118015613b5f575060148311155b8015613b6b5750600082115b8015613b7a5750620f42408211155b613bcb576040805162461bcd60e51b815260206004820152601c60248201527f696e76616c6964206375727665206f72206d756c7469706c6965727300000000604482015290519081900360640190fd5b6001845111613c16576040805162461bcd60e51b81526020600482015260126024820152711a9cdbdb881b5d5cdd081b9bdb881b9d5b1b60721b604482015290519081900360640190fd5b600085815260166020526040902054613c6a576040805162461bcd60e51b815260206004820152601160248201527018dd5c9d99481b5d5cdd081899481cd95d607a1b604482015290519081900360640190fd5b6000858152601660209081526040808320869055601a8252808320859055805188815290810186905260608101859052608081830181815288519183019190915287517f855f2403a3717b569ca6483cb3250554954ef4734871df9005e45eb9bffce8cf948a948a948a948a949193909260a0850192908801918190849084905b83811015613d03578181015183820152602001613ceb565b50505050905090810190601f168015613d305780820380516001836020036101000a031916815260200191505b509550505050505060405180910390a15050505050565b6013546001600160a01b031681565b613d5f82614046565b15613dad576040805162461bcd60e51b81526020600482015260196024820152781d1bdad95b881a185cc81b9bdd081899595b881b5a5b9d1959603a1b604482015290519081900360640190fd5b600082815260166020526040902054613e01576040805162461bcd60e51b815260206004820152601160248201527018dd5c9d99481b5d5cdd081899481cd95d607a1b604482015290519081900360640190fd5b60006010548381613e0e57fe5b60145491900491506001600160a01b0316634ba3d74882613e2d6144d7565b6040518363ffffffff1660e01b815260040180838152602001826001600160a01b0316815260200192505050602060405180830381600087803b158015613e7357600080fd5b505af1158015613e87573d6000803e3d6000fd5b505050506040513d6020811015613e9d57600080fd5b50511515600114613edf5760405162461bcd60e51b81526004018080602001828103825260218152602001806159836021913960400191505060405180910390fd5b4282108015613eee5750600082115b15613ef7574291505b600083815260186020908152604091829020849055815185815290810184905281517f6ce538f9e575f548476b624a738c3bc0bdf1ec4e465cacb3f7c67bef3926e20e929181900390910190a1505050565b604051806080016040528060528152602001615b64605291398051906020012081565b6000818152600560205260408120611bb290615201565b6015546001600160a01b031681565b600082815260056020526040902060020154613fb090612c046144d7565b612cb65760405162461bcd60e51b8152600401808060200182810382526030815260200180615a906030913960400191505060405180910390fd5b600c805460408051602060026001851615610100026000190190941693909304601f81018490048402820184019092528181529291830182828015611c975780601f10611c6c57610100808354040283529160200191611c97565b60009081526002602052604090205460ff1690565b6001600160a01b03918216600090815260036020908152604080832093909416825291909152205460ff1690565b60186020526000908152604090205481565b6001600160a01b0384166140e05760405162461bcd60e51b8152600401808060200182810382526025815260200180615ac06025913960400191505060405180910390fd5b6140e86144d7565b6001600160a01b0316856001600160a01b0316148061410e575061410e8561299b6144d7565b6141495760405162461bcd60e51b8152600401808060200182810382526029815260200180615a676029913960400191505060405180910390fd5b60006141536144d7565b90506141738187876141648861520c565b61416d8861520c565b87612bde565b6141ba836040518060600160405280602a8152602001615b3a602a913960008781526001602090815260408083206001600160a01b038d16845290915290205491906149b2565b60008581526001602090815260408083206001600160a01b038b811685529252808320939093558716815220546141f190846143a2565b60008581526001602090815260408083206001600160a01b03808b168086529184529382902094909455805188815291820187905280518a8416938616927fc3d58168c5ae7397731d063d5bbf3d657854427343f4c083240f7aacaa2d0f6292908290030190a4612bde818787878787615250565b600b805460408051602060026001851615610100026000190190941693909304601f81018490048402820184019092528181529291830182828015611c975780601f10611c6c57610100808354040283529160200191611c97565b7ff0887ba65ee2024ea881d91b74c2450ef19e1557f03bed3ea9f16b037cbe2dc981565b6000611bfd836001600160a01b0384166153c1565b60006001600160a01b038616158015906143985750600161432261431d8761540b565b61548e565b83868660405160008152602001604052604051808581526020018460ff1681526020018381526020018281526020019450505050506020604051602081039080840390855afa158015614379573d6000803e3d6000fd5b505050602060405103516001600160a01b0316866001600160a01b0316145b9695505050505050565b600082820183811015611bfd576040805162461bcd60e51b815260206004820152601b60248201527f536166654d6174683a206164646974696f6e206f766572666c6f770000000000604482015290519081900360640190fd5b60608161442157506040805180820190915260018152600360fc1b6020820152611bdc565b8160005b811561443957600101600a82049150614425565b60608167ffffffffffffffff8111801561445257600080fd5b506040519080825280601f01601f19166020018201604052801561447d576020820181803683370190505b50859350905060001982015b83156144ce57600a840660300160f81b828280600190039350815181106144ac57fe5b60200101906001600160f81b031916908160001a905350600a84049350614489565b50949350505050565b3390565b6040805160248082018490528251808303909101815260449091019091526020810180516001600160e01b031663f5b1bba960e01b17905261451c906154da565b50565b6000611bfd83836040518060400160405280601a81526020017f536166654d6174683a206469766973696f6e206279207a65726f0000000000008152506154fb565b60008261457057506000611bb2565b8282028284828161457d57fe5b0414611bfd5760405162461bcd60e51b8152600401808060200182810382526021815260200180615c2d6021913960400191505060405180910390fd5b6001600160a01b0384166145ff5760405162461bcd60e51b8152600401808060200182810382526021815260200180615d2b6021913960400191505060405180910390fd5b60008381526002602052604090205460ff1661462f576000838152600260205260409020805460ff191660011790555b60006146396144d7565b905061464b816000876141648861520c565b60008481526001602090815260408083206001600160a01b038916845290915290205461467890846143a2565b60008581526001602090815260408083206001600160a01b03808b16808652918452828520959095558151898152928301889052815190948616927fc3d58168c5ae7397731d063d5bbf3d657854427343f4c083240f7aacaa2d0f6292908290030190a46146eb81600087878787615250565b5050505050565b6001600160a01b0384166147375760405162461bcd60e51b8152600401808060200182810382526021815260200180615d2b6021913960400191505060405180910390fd5b81518351146147775760405162461bcd60e51b8152600401808060200182810382526028815260200180615d036028913960400191505060405180910390fd5b60006147816144d7565b905061479281600087878787612bde565b60005b84518110156148c857600260008683815181106147ae57fe5b60209081029190910181015182528101919091526040016000205460ff16614810576001600260008784815181106147e257fe5b6020026020010151815260200190815260200160002060006101000a81548160ff0219169083151502179055505b61487f6001600087848151811061482357fe5b602002602001015181526020019081526020016000206000886001600160a01b03166001600160a01b031681526020019081526020016000205485838151811061486957fe5b60200260200101516143a290919063ffffffff16565b6001600087848151811061488f57fe5b602090810291909101810151825281810192909252604090810160009081206001600160a01b038b168252909252902055600101614795565b50846001600160a01b031660006001600160a01b0316826001600160a01b03167f4a39dc06d4c0dbc64b70af90fd698a233a518aa5d07e595d983b8c0526c8f7fb8787604051808060200180602001838103835285818151815260200191508051906020019060200280838360005b8381101561494f578181015183820152602001614937565b50505050905001838103825284818151815260200191508051906020019060200280838360005b8381101561498e578181015183820152602001614976565b5050505090500194505050505060405180910390a46146eb81600087878787614a49565b60008184841115614a415760405162461bcd60e51b81526004018080602001828103825283818151815260200191508051906020019080838360005b83811015614a065781810151838201526020016149ee565b50505050905090810190601f168015614a335780820380516001836020036101000a031916815260200191505b509250505060405180910390fd5b505050900390565b614a5b846001600160a01b0316615560565b15612bde57836001600160a01b031663bc197c8187878686866040518663ffffffff1660e01b815260040180866001600160a01b03168152602001856001600160a01b03168152602001806020018060200180602001848103845287818151815260200191508051906020019060200280838360005b83811015614ae9578181015183820152602001614ad1565b50505050905001848103835286818151815260200191508051906020019060200280838360005b83811015614b28578181015183820152602001614b10565b50505050905001848103825285818151815260200191508051906020019080838360005b83811015614b64578181015183820152602001614b4c565b50505050905090810190601f168015614b915780820380516001836020036101000a031916815260200191505b5098505050505050505050602060405180830381600087803b158015614bb657600080fd5b505af1925050508015614bdb57506040513d6020811015614bd657600080fd5b505160015b614c7057614be7615830565b80614bf25750614c39565b60405162461bcd60e51b8152602060048201818152835160248401528351849391928392604401919085019080838360008315614a065781810151838201526020016149ee565b60405162461bcd60e51b81526004018080602001828103825260348152602001806158d66034913960400191505060405180910390fd5b6001600160e01b0319811663bc197c8160e01b14614cbf5760405162461bcd60e51b815260040180806020018281038252602881526020018061592c6028913960400191505060405180910390fd5b50505050505050565b6000828152600560205260409020614ce090826142e5565b15612c4e57614ced6144d7565b6001600160a01b0316816001600160a01b0316837f2f8788117e7eff1d82e926ec794901d17c78024a50270940304540a733656f0d60405160405180910390a45050565b6000828152600560205260409020614d499082615566565b15612c4e57614d566144d7565b6001600160a01b0316816001600160a01b0316837ff6391f5c32d9c69d2a47ea670b442974b53935d1edc7fd64eb21e047a839171b60405160405180910390a45050565b6001600160a01b038316614ddf5760405162461bcd60e51b8152600401808060200182810382526023815260200180615b176023913960400191505060405180910390fd5b6000614de96144d7565b9050614e1981856000614dfb8761520c565b614e048761520c565b60405180602001604052806000815250612bde565b614e6082604051806060016040528060248152602001615a436024913960008681526001602090815260408083206001600160a01b038b16845290915290205491906149b2565b60008481526001602090815260408083206001600160a01b03808a16808652918452828520959095558151888152928301879052815193949093908616927fc3d58168c5ae7397731d063d5bbf3d657854427343f4c083240f7aacaa2d0f6292908290030190a450505050565b6001600160a01b038316614f125760405162461bcd60e51b8152600401808060200182810382526023815260200180615b176023913960400191505060405180910390fd5b8051825114614f525760405162461bcd60e51b8152600401808060200182810382526028815260200180615d036028913960400191505060405180910390fd5b6000614f5c6144d7565b9050614f7c81856000868660405180602001604052806000815250612bde565b60005b835181101561505a57615011838281518110614f9757fe5b6020026020010151604051806060016040528060248152602001615a436024913960016000888681518110614fc857fe5b602002602001015181526020019081526020016000206000896001600160a01b03166001600160a01b03168152602001908152602001600020546149b29092919063ffffffff16565b6001600086848151811061502157fe5b602090810291909101810151825281810192909252604090810160009081206001600160a01b038a168252909252902055600101614f7f565b5060006001600160a01b0316846001600160a01b0316826001600160a01b03167f4a39dc06d4c0dbc64b70af90fd698a233a518aa5d07e595d983b8c0526c8f7fb8686604051808060200180602001838103835285818151815260200191508051906020019060200280838360005b838110156150e15781810151838201526020016150c9565b50505050905001838103825284818151815260200191508051906020019060200280838360005b83811015615120578181015183820152602001615108565b5050505090500194505050505060405180910390a450505050565b6000611bfd838361557b565b6000611bfd836001600160a01b0384166155df565b601554604080516317937a0760e01b815233600482015290516000926001600160a01b0316916317937a0791602480830192602092919082900301818787803b1580156151a857600080fd5b505af11580156151bc573d6000803e3d6000fd5b505050506040513d60208110156151d257600080fd5b5051905090565b60006001600160a01b03861615801590614398575060016143226151fc876155f7565b61567a565b6000611bb282615684565b60408051600180825281830190925260609182919060208083019080368337019050509050828160008151811061523f57fe5b602090810291909101015292915050565b615262846001600160a01b0316615560565b15612bde57836001600160a01b031663f23a6e6187878686866040518663ffffffff1660e01b815260040180866001600160a01b03168152602001856001600160a01b0316815260200184815260200183815260200180602001828103825283818151815260200191508051906020019080838360005b838110156152f15781810151838201526020016152d9565b50505050905090810190601f16801561531e5780820380516001836020036101000a031916815260200191505b509650505050505050602060405180830381600087803b15801561534157600080fd5b505af192505050801561536657506040513d602081101561536157600080fd5b505160015b61537257614be7615830565b6001600160e01b0319811663f23a6e6160e01b14614cbf5760405162461bcd60e51b815260040180806020018281038252602881526020018061592c6028913960400191505060405180910390fd5b60006153cd83836155df565b61540357508154600181810184556000848152602080822090930184905584548482528286019093526040902091909155611bb2565b506000611bb2565b6000604051806080016040528060438152602001615a0060439139805190602001208260000151836020015184604001518051906020012060405160200180858152602001848152602001836001600160a01b03168152602001828152602001945050505050604051602081830303815290604052805190602001209050919050565b60006154986126be565b82604051602001808061190160f01b81525060020183815260200182815260200192505050604051602081830303815290604052805190602001209050919050565b80516a636f6e736f6c652e6c6f67602083016000808483855afa5050505050565b6000818361554a5760405162461bcd60e51b8152602060048201818152835160248401528351909283926044909101919085019080838360008315614a065781810151838201526020016149ee565b50600083858161555657fe5b0495945050505050565b3b151590565b6000611bfd836001600160a01b038416615688565b815460009082106155bd5760405162461bcd60e51b815260040180806020018281038252602281526020018061590a6022913960400191505060405180910390fd5b8260000182815481106155cc57fe5b9060005260206000200154905092915050565b60009081526001919091016020526040902054151590565b6000604051806080016040528060548152602001615bd960549139805190602001208260000151836020015184604001518051906020012060405160200180858152602001848152602001836001600160a01b03168152602001828152602001945050505050604051602081830303815290604052805190602001209050919050565b600061549861223f565b5490565b6000818152600183016020526040812054801561574457835460001980830191908101906000908790839081106156bb57fe5b90600052602060002001549050808760000184815481106156d857fe5b60009182526020808320909101929092558281526001898101909252604090209084019055865487908061570857fe5b60019003818190600052602060002001600090559055866001016000878152602001908152602001600020600090556001945050505050611bb2565b6000915050611bb2565b60405180606001604052806000815260200160006001600160a01b03168152602001606081525090565b828054600181600116156101000203166002900490600052602060002090601f016020900481019282601f106157b957805160ff19168380011785556157e6565b828001600101855582156157e6579182015b828111156157e65782518255916020019190600101906157cb565b506157f2929150615815565b5090565b6040805160608082018352600080835260208301529181019190915290565b5b808211156157f25760008155600101615816565b60e01c90565b600060443d101561584057612243565b600481823e6308c379a0615854825161582a565b1461585e57612243565b6040513d600319016004823e80513d67ffffffffffffffff816024840111818411171561588e5750505050612243565b828401925082519150808211156158a85750505050612243565b503d830160208284010111156158c057505050612243565b601f01601f191681016020016040529150509056fe455243313135353a207472616e7366657220746f206e6f6e2045524331313535526563656976657220696d706c656d656e746572456e756d657261626c655365743a20696e646578206f7574206f6620626f756e6473455243313135353a204552433131353552656365697665722072656a656374656420746f6b656e73416363657373436f6e74726f6c3a2073656e646572206d75737420626520616e2061646d696e20746f206772616e7473656e646572206d757374206265206f70657261746f72206f7220776f726b6572455243313135353a2062616c616e636520717565727920666f7220746865207a65726f2061646472657373455243313135353a2062617463682062616c616e636520717565727920666f7220746865207a65726f20616464726573734d6574615472616e73616374696f6e2875696e74323536206e6f6e63652c616464726573732066726f6d2c62797465732066756e6374696f6e5369676e617475726529455243313135353a206275726e20616d6f756e7420657863656564732062616c616e6365455243313135353a2063616c6c6572206973206e6f74206f776e6572206e6f7220617070726f766564416363657373436f6e74726f6c3a2073656e646572206d75737420626520616e2061646d696e20746f207265766f6b65455243313135353a207472616e7366657220746f20746865207a65726f2061646472657373455243313135353a207472616e736665722063616c6c6572206973206e6f74206f776e6572206e6f7220617070726f766564455243313135353a206275726e2066726f6d20746865207a65726f2061646472657373455243313135353a20696e73756666696369656e742062616c616e636520666f72207472616e73666572454950373132446f6d61696e28737472696e67206e616d652c737472696e672076657273696f6e2c75696e7432353620636861696e49642c6164647265737320766572696679696e67436f6e74726163742973656e646572206d7573742068617665206174206c65617374206f6e6520746f6b656e576f726b65724d6574615472616e73616374696f6e2862797465733332207265706c617950726576656e74696f6e2c616464726573732066726f6d2c62797465732066756e6374696f6e5369676e617475726529536166654d6174683a206d756c7469706c69636174696f6e206f766572666c6f775369676e657220616e64207369676e617475726520646f206e6f74206d61746368576f726b6572204d6574612d5472616e73616374696f6e2073656e74206279206163636f756e74206f74686572207468616e206120776f726b65722f6d696e696f6e455243313135353a2073657474696e6720617070726f76616c2073746174757320666f722073656c66455243313135353a206163636f756e747320616e6420696473206c656e677468206d69736d61746368455243313135353a2069647320616e6420616d6f756e7473206c656e677468206d69736d61746368455243313135353a206d696e7420746f20746865207a65726f2061646472657373416363657373436f6e74726f6c3a2063616e206f6e6c792072656e6f756e636520726f6c657320666f722073656c66a2646970667358221220d78c2ae79c4ded0bb549a8635e0283629c6bd91a797f088d8d83317278df6f4464736f6c63430007030033f0887ba65ee2024ea881d91b74c2450ef19e1557f03bed3ea9f16b037cbe2dc9f6e33f9720e4529cb1c710e3344dc00830589a3239198ffa39b07117085d250e454950373132446f6d61696e28737472696e67206e616d652c737472696e672076657273696f6e2c75696e7432353620636861696e49642c6164647265737320766572696679696e67436f6e747261637429",
  "linkReferences": {},
  "deployedLinkReferences": {}
}