{
  "_format": "hh-sol-artifact-1",
  "contractName": "BondingSale",
  "sourceName": "contracts/BondingSale.sol",
  "abi": [
    {
      "inputs": [
        {
          "internalType": "address",
          "name": "_gameToken",
          "type": "address"
        },
        {
          "internalType": "address",
          "name": "_gameAdmin",
          "type": "address"
        },
        {
          "internalType": "address",
          "name": "_gameMaster",
          "type": "address"
        }
      ],
      "stateMutability": "nonpayable",
      "type": "constructor"
    },
    {
      "anonymous": false,
      "inputs": [
        {
          "indexed": true,
          "internalType": "address",
          "name": "account",
          "type": "address"
        },
        {
          "indexed": true,
          "internalType": "address",
          "name": "operator",
          "type": "address"
        },
        {
          "indexed": false,
          "internalType": "bool",
          "name": "approved",
          "type": "bool"
        }
      ],
      "name": "ApprovalForAll",
      "type": "event"
    },
    {
      "anonymous": false,
      "inputs": [
        {
          "indexed": false,
          "internalType": "address",
          "name": "userAddress",
          "type": "address"
        },
        {
          "indexed": false,
          "internalType": "address payable",
          "name": "relayerAddress",
          "type": "address"
        },
        {
          "indexed": false,
          "internalType": "bytes",
          "name": "functionSignature",
          "type": "bytes"
        }
      ],
      "name": "MetaTransactionExecuted",
      "type": "event"
    },
    {
      "anonymous": false,
      "inputs": [
        {
          "indexed": true,
          "internalType": "bytes32",
          "name": "role",
          "type": "bytes32"
        },
        {
          "indexed": true,
          "internalType": "bytes32",
          "name": "previousAdminRole",
          "type": "bytes32"
        },
        {
          "indexed": true,
          "internalType": "bytes32",
          "name": "newAdminRole",
          "type": "bytes32"
        }
      ],
      "name": "RoleAdminChanged",
      "type": "event"
    },
    {
      "anonymous": false,
      "inputs": [
        {
          "indexed": true,
          "internalType": "bytes32",
          "name": "role",
          "type": "bytes32"
        },
        {
          "indexed": true,
          "internalType": "address",
          "name": "account",
          "type": "address"
        },
        {
          "indexed": true,
          "internalType": "address",
          "name": "sender",
          "type": "address"
        }
      ],
      "name": "RoleGranted",
      "type": "event"
    },
    {
      "anonymous": false,
      "inputs": [
        {
          "indexed": true,
          "internalType": "bytes32",
          "name": "role",
          "type": "bytes32"
        },
        {
          "indexed": true,
          "internalType": "address",
          "name": "account",
          "type": "address"
        },
        {
          "indexed": true,
          "internalType": "address",
          "name": "sender",
          "type": "address"
        }
      ],
      "name": "RoleRevoked",
      "type": "event"
    },
    {
      "anonymous": false,
      "inputs": [
        {
          "indexed": true,
          "internalType": "address",
          "name": "to",
          "type": "address"
        },
        {
          "indexed": false,
          "internalType": "uint256",
          "name": "id",
          "type": "uint256"
        },
        {
          "indexed": false,
          "internalType": "uint256",
          "name": "pricePaid",
          "type": "uint256"
        },
        {
          "indexed": false,
          "internalType": "uint256",
          "name": "nextPrintPrice",
          "type": "uint256"
        },
        {
          "indexed": false,
          "internalType": "uint256",
          "name": "nextBurnPrice",
          "type": "uint256"
        },
        {
          "indexed": false,
          "internalType": "uint256",
          "name": "tokenSupply",
          "type": "uint256"
        },
        {
          "indexed": false,
          "internalType": "uint256",
          "name": "royaltyPaid",
          "type": "uint256"
        },
        {
          "indexed": false,
          "internalType": "uint256",
          "name": "reserve",
          "type": "uint256"
        },
        {
          "indexed": true,
          "internalType": "address",
          "name": "royaltyRecipient",
          "type": "address"
        }
      ],
      "name": "TokenBought",
      "type": "event"
    },
    {
      "anonymous": false,
      "inputs": [
        {
          "indexed": true,
          "internalType": "address",
          "name": "to",
          "type": "address"
        },
        {
          "indexed": false,
          "internalType": "uint256",
          "name": "id",
          "type": "uint256"
        },
        {
          "indexed": false,
          "internalType": "uint256",
          "name": "priceReceived",
          "type": "uint256"
        },
        {
          "indexed": false,
          "internalType": "uint256",
          "name": "nextPrintPrice",
          "type": "uint256"
        },
        {
          "indexed": false,
          "internalType": "uint256",
          "name": "nextBurnPrice",
          "type": "uint256"
        },
        {
          "indexed": false,
          "internalType": "uint256",
          "name": "printsSupply",
          "type": "uint256"
        },
        {
          "indexed": false,
          "internalType": "uint256",
          "name": "reserve",
          "type": "uint256"
        }
      ],
      "name": "TokenBurned",
      "type": "event"
    },
    {
      "anonymous": false,
      "inputs": [
        {
          "indexed": false,
          "internalType": "uint256",
          "name": "tokenId",
          "type": "uint256"
        },
        {
          "indexed": false,
          "internalType": "string",
          "name": "json",
          "type": "string"
        },
        {
          "indexed": false,
          "internalType": "uint256",
          "name": "curve",
          "type": "uint256"
        },
        {
          "indexed": false,
          "internalType": "uint256",
          "name": "multiplier",
          "type": "uint256"
        }
      ],
      "name": "TokenData",
      "type": "event"
    },
    {
      "anonymous": false,
      "inputs": [
        {
          "indexed": false,
          "internalType": "uint256",
          "name": "id",
          "type": "uint256"
        },
        {
          "indexed": false,
          "internalType": "uint256",
          "name": "date",
          "type": "uint256"
        }
      ],
      "name": "TokenOnSale",
      "type": "event"
    },
    {
      "anonymous": false,
      "inputs": [
        {
          "indexed": true,
          "internalType": "address",
          "name": "operator",
          "type": "address"
        },
        {
          "indexed": true,
          "internalType": "address",
          "name": "from",
          "type": "address"
        },
        {
          "indexed": true,
          "internalType": "address",
          "name": "to",
          "type": "address"
        },
        {
          "indexed": false,
          "internalType": "uint256[]",
          "name": "ids",
          "type": "uint256[]"
        },
        {
          "indexed": false,
          "internalType": "uint256[]",
          "name": "values",
          "type": "uint256[]"
        }
      ],
      "name": "TransferBatch",
      "type": "event"
    },
    {
      "anonymous": false,
      "inputs": [
        {
          "indexed": true,
          "internalType": "address",
          "name": "operator",
          "type": "address"
        },
        {
          "indexed": true,
          "internalType": "address",
          "name": "from",
          "type": "address"
        },
        {
          "indexed": true,
          "internalType": "address",
          "name": "to",
          "type": "address"
        },
        {
          "indexed": false,
          "internalType": "uint256",
          "name": "id",
          "type": "uint256"
        },
        {
          "indexed": false,
          "internalType": "uint256",
          "name": "value",
          "type": "uint256"
        }
      ],
      "name": "TransferSingle",
      "type": "event"
    },
    {
      "anonymous": false,
      "inputs": [
        {
          "indexed": false,
          "internalType": "string",
          "name": "value",
          "type": "string"
        },
        {
          "indexed": true,
          "internalType": "uint256",
          "name": "id",
          "type": "uint256"
        }
      ],
      "name": "URI",
      "type": "event"
    },
    {
      "inputs": [],
      "name": "BURNER",
      "outputs": [
        {
          "internalType": "bytes32",
          "name": "",
          "type": "bytes32"
        }
      ],
      "stateMutability": "view",
      "type": "function"
    },
    {
      "inputs": [],
      "name": "CONTRACT_ERC712_NAME",
      "outputs": [
        {
          "internalType": "string",
          "name": "",
          "type": "string"
        }
      ],
      "stateMutability": "view",
      "type": "function"
    },
    {
      "inputs": [],
      "name": "CONTRACT_ERC712_VERSION",
      "outputs": [
        {
          "internalType": "string",
          "name": "",
          "type": "string"
        }
      ],
      "stateMutability": "view",
      "type": "function"
    },
    {
      "inputs": [
        {
          "internalType": "uint256",
          "name": "creatorId",
          "type": "uint256"
        },
        {
          "internalType": "string",
          "name": "json",
          "type": "string"
        },
        {
          "internalType": "uint256",
          "name": "curve",
          "type": "uint256"
        },
        {
          "internalType": "uint256",
          "name": "multiplier",
          "type": "uint256"
        }
      ],
      "name": "CreateToken",
      "outputs": [],
      "stateMutability": "nonpayable",
      "type": "function"
    },
    {
      "inputs": [],
      "name": "DEFAULT_ADMIN_ROLE",
      "outputs": [
        {
          "internalType": "bytes32",
          "name": "",
          "type": "bytes32"
        }
      ],
      "stateMutability": "view",
      "type": "function"
    },
    {
      "inputs": [],
      "name": "EIP712_DOMAIN_TYPEHASH",
      "outputs": [
        {
          "internalType": "bytes32",
          "name": "",
          "type": "bytes32"
        }
      ],
      "stateMutability": "view",
      "type": "function"
    },
    {
      "inputs": [],
      "name": "MAX_PRICE",
      "outputs": [
        {
          "internalType": "uint256",
          "name": "",
          "type": "uint256"
        }
      ],
      "stateMutability": "view",
      "type": "function"
    },
    {
      "inputs": [],
      "name": "METADATA_ADMIN",
      "outputs": [
        {
          "internalType": "bytes32",
          "name": "",
          "type": "bytes32"
        }
      ],
      "stateMutability": "view",
      "type": "function"
    },
    {
      "inputs": [],
      "name": "MINTER",
      "outputs": [
        {
          "internalType": "bytes32",
          "name": "",
          "type": "bytes32"
        }
      ],
      "stateMutability": "view",
      "type": "function"
    },
    {
      "inputs": [
        {
          "internalType": "uint256",
          "name": "tokenId",
          "type": "uint256"
        },
        {
          "internalType": "uint256",
          "name": "onSaleDate",
          "type": "uint256"
        }
      ],
      "name": "SetTokenOnSaleDate",
      "outputs": [],
      "stateMutability": "nonpayable",
      "type": "function"
    },
    {
      "inputs": [
        {
          "internalType": "uint256",
          "name": "",
          "type": "uint256"
        }
      ],
      "name": "TokenSupply",
      "outputs": [
        {
          "internalType": "uint256",
          "name": "",
          "type": "uint256"
        }
      ],
      "stateMutability": "view",
      "type": "function"
    },
    {
      "inputs": [
        {
          "internalType": "uint256",
          "name": "tokenId",
          "type": "uint256"
        },
        {
          "internalType": "string",
          "name": "json",
          "type": "string"
        },
        {
          "internalType": "uint256",
          "name": "curve",
          "type": "uint256"
        },
        {
          "internalType": "uint256",
          "name": "multiplier",
          "type": "uint256"
        }
      ],
      "name": "UpdateTokenData",
      "outputs": [],
      "stateMutability": "nonpayable",
      "type": "function"
    },
    {
      "inputs": [
        {
          "internalType": "uint256",
          "name": "",
          "type": "uint256"
        }
      ],
      "name": "_tokenURIs",
      "outputs": [
        {
          "internalType": "string",
          "name": "",
          "type": "string"
        }
      ],
      "stateMutability": "view",
      "type": "function"
    },
    {
      "inputs": [
        {
          "internalType": "address",
          "name": "account",
          "type": "address"
        },
        {
          "internalType": "uint256",
          "name": "id",
          "type": "uint256"
        }
      ],
      "name": "balanceOf",
      "outputs": [
        {
          "internalType": "uint256",
          "name": "",
          "type": "uint256"
        }
      ],
      "stateMutability": "view",
      "type": "function"
    },
    {
      "inputs": [
        {
          "internalType": "address[]",
          "name": "accounts",
          "type": "address[]"
        },
        {
          "internalType": "uint256[]",
          "name": "ids",
          "type": "uint256[]"
        }
      ],
      "name": "balanceOfBatch",
      "outputs": [
        {
          "internalType": "uint256[]",
          "name": "",
          "type": "uint256[]"
        }
      ],
      "stateMutability": "view",
      "type": "function"
    },
    {
      "inputs": [
        {
          "internalType": "uint256",
          "name": "tokenId",
          "type": "uint256"
        }
      ],
      "name": "burn",
      "outputs": [],
      "stateMutability": "nonpayable",
      "type": "function"
    },
    {
      "inputs": [],
      "name": "burningActive",
      "outputs": [
        {
          "internalType": "bool",
          "name": "",
          "type": "bool"
        }
      ],
      "stateMutability": "view",
      "type": "function"
    },
    {
      "inputs": [
        {
          "internalType": "uint256",
          "name": "tokenId",
          "type": "uint256"
        },
        {
          "internalType": "uint256",
          "name": "maxPrice",
          "type": "uint256"
        },
        {
          "internalType": "address",
          "name": "asset",
          "type": "address"
        }
      ],
      "name": "buyNFTwithERC20",
      "outputs": [],
      "stateMutability": "nonpayable",
      "type": "function"
    },
    {
      "inputs": [
        {
          "internalType": "uint256",
          "name": "tokenId",
          "type": "uint256"
        },
        {
          "internalType": "uint256",
          "name": "maxPrice",
          "type": "uint256"
        }
      ],
      "name": "buyNFTwithMatic",
      "outputs": [],
      "stateMutability": "payable",
      "type": "function"
    },
    {
      "inputs": [
        {
          "internalType": "uint256",
          "name": "",
          "type": "uint256"
        }
      ],
      "name": "curves",
      "outputs": [
        {
          "internalType": "uint256",
          "name": "",
          "type": "uint256"
        }
      ],
      "stateMutability": "view",
      "type": "function"
    },
    {
      "inputs": [
        {
          "internalType": "string",
          "name": "name",
          "type": "string"
        },
        {
          "internalType": "string",
          "name": "version",
          "type": "string"
        }
      ],
      "name": "encodeDomainSeperator",
      "outputs": [
        {
          "internalType": "bytes32",
          "name": "",
          "type": "bytes32"
        }
      ],
      "stateMutability": "view",
      "type": "function"
    },
    {
      "inputs": [
        {
          "internalType": "string",
          "name": "name",
          "type": "string"
        },
        {
          "internalType": "string",
          "name": "version",
          "type": "string"
        }
      ],
      "name": "encodeWorkerDomainSeperator",
      "outputs": [
        {
          "internalType": "bytes32",
          "name": "",
          "type": "bytes32"
        }
      ],
      "stateMutability": "view",
      "type": "function"
    },
    {
      "inputs": [
        {
          "internalType": "address",
          "name": "userAddress",
          "type": "address"
        },
        {
          "internalType": "bytes",
          "name": "functionSignature",
          "type": "bytes"
        },
        {
          "internalType": "bytes32",
          "name": "sigR",
          "type": "bytes32"
        },
        {
          "internalType": "bytes32",
          "name": "sigS",
          "type": "bytes32"
        },
        {
          "internalType": "uint8",
          "name": "sigV",
          "type": "uint8"
        }
      ],
      "name": "executeMetaTransaction",
      "outputs": [
        {
          "internalType": "bytes",
          "name": "",
          "type": "bytes"
        }
      ],
      "stateMutability": "payable",
      "type": "function"
    },
    {
      "inputs": [],
      "name": "gameAdmin",
      "outputs": [
        {
          "internalType": "contract iGAME_Game",
          "name": "",
          "type": "address"
        }
      ],
      "stateMutability": "view",
      "type": "function"
    },
    {
      "inputs": [],
      "name": "gameToken",
      "outputs": [
        {
          "internalType": "contract iGAME_ERC20",
          "name": "",
          "type": "address"
        }
      ],
      "stateMutability": "view",
      "type": "function"
    },
    {
      "inputs": [
        {
          "internalType": "uint256",
          "name": "tokenId",
          "type": "uint256"
        }
      ],
      "name": "getBuyPrice",
      "outputs": [
        {
          "internalType": "uint256",
          "name": "",
          "type": "uint256"
        }
      ],
      "stateMutability": "view",
      "type": "function"
    },
    {
      "inputs": [],
      "name": "getChainId",
      "outputs": [
        {
          "internalType": "uint256",
          "name": "",
          "type": "uint256"
        }
      ],
      "stateMutability": "pure",
      "type": "function"
    },
    {
      "inputs": [],
      "name": "getDomainSeperator",
      "outputs": [
        {
          "internalType": "bytes32",
          "name": "",
          "type": "bytes32"
        }
      ],
      "stateMutability": "view",
      "type": "function"
    },
    {
      "inputs": [
        {
          "internalType": "uint256",
          "name": "creator",
          "type": "uint256"
        }
      ],
      "name": "getNextTokenID",
      "outputs": [
        {
          "internalType": "uint256",
          "name": "",
          "type": "uint256"
        }
      ],
      "stateMutability": "view",
      "type": "function"
    },
    {
      "inputs": [
        {
          "internalType": "address",
          "name": "user",
          "type": "address"
        }
      ],
      "name": "getNonce",
      "outputs": [
        {
          "internalType": "uint256",
          "name": "nonce",
          "type": "uint256"
        }
      ],
      "stateMutability": "view",
      "type": "function"
    },
    {
      "inputs": [
        {
          "internalType": "uint256",
          "name": "tokenId",
          "type": "uint256"
        },
        {
          "internalType": "uint256",
          "name": "printNumber",
          "type": "uint256"
        }
      ],
      "name": "getPrintPrice",
      "outputs": [
        {
          "internalType": "uint256",
          "name": "",
          "type": "uint256"
        }
      ],
      "stateMutability": "view",
      "type": "function"
    },
    {
      "inputs": [
        {
          "internalType": "bytes32",
          "name": "role",
          "type": "bytes32"
        }
      ],
      "name": "getRoleAdmin",
      "outputs": [
        {
          "internalType": "bytes32",
          "name": "",
          "type": "bytes32"
        }
      ],
      "stateMutability": "view",
      "type": "function"
    },
    {
      "inputs": [
        {
          "internalType": "bytes32",
          "name": "role",
          "type": "bytes32"
        },
        {
          "internalType": "uint256",
          "name": "index",
          "type": "uint256"
        }
      ],
      "name": "getRoleMember",
      "outputs": [
        {
          "internalType": "address",
          "name": "",
          "type": "address"
        }
      ],
      "stateMutability": "view",
      "type": "function"
    },
    {
      "inputs": [
        {
          "internalType": "bytes32",
          "name": "role",
          "type": "bytes32"
        }
      ],
      "name": "getRoleMemberCount",
      "outputs": [
        {
          "internalType": "uint256",
          "name": "",
          "type": "uint256"
        }
      ],
      "stateMutability": "view",
      "type": "function"
    },
    {
      "inputs": [
        {
          "internalType": "uint256",
          "name": "tokenId",
          "type": "uint256"
        }
      ],
      "name": "getSellPrice",
      "outputs": [
        {
          "internalType": "uint256",
          "name": "",
          "type": "uint256"
        }
      ],
      "stateMutability": "view",
      "type": "function"
    },
    {
      "inputs": [
        {
          "internalType": "uint256",
          "name": "_creatorID",
          "type": "uint256"
        },
        {
          "internalType": "uint256",
          "name": "token",
          "type": "uint256"
        }
      ],
      "name": "getTokenID",
      "outputs": [
        {
          "internalType": "uint256",
          "name": "",
          "type": "uint256"
        }
      ],
      "stateMutability": "view",
      "type": "function"
    },
    {
      "inputs": [],
      "name": "getWorkerDomainSeperator",
      "outputs": [
        {
          "internalType": "bytes32",
          "name": "",
          "type": "bytes32"
        }
      ],
      "stateMutability": "view",
      "type": "function"
    },
    {
      "inputs": [
        {
          "internalType": "bytes32",
          "name": "role",
          "type": "bytes32"
        },
        {
          "internalType": "address",
          "name": "account",
          "type": "address"
        }
      ],
      "name": "grantRole",
      "outputs": [],
      "stateMutability": "nonpayable",
      "type": "function"
    },
    {
      "inputs": [
        {
          "internalType": "uint256",
          "name": "id",
          "type": "uint256"
        }
      ],
      "name": "hasMinted",
      "outputs": [
        {
          "internalType": "bool",
          "name": "",
          "type": "bool"
        }
      ],
      "stateMutability": "view",
      "type": "function"
    },
    {
      "inputs": [
        {
          "internalType": "bytes32",
          "name": "role",
          "type": "bytes32"
        },
        {
          "internalType": "address",
          "name": "account",
          "type": "address"
        }
      ],
      "name": "hasRole",
      "outputs": [
        {
          "internalType": "bool",
          "name": "",
          "type": "bool"
        }
      ],
      "stateMutability": "view",
      "type": "function"
    },
    {
      "inputs": [
        {
          "internalType": "address",
          "name": "account",
          "type": "address"
        },
        {
          "internalType": "address",
          "name": "operator",
          "type": "address"
        }
      ],
      "name": "isApprovedForAll",
      "outputs": [
        {
          "internalType": "bool",
          "name": "",
          "type": "bool"
        }
      ],
      "stateMutability": "view",
      "type": "function"
    },
    {
      "inputs": [],
      "name": "isLocalContract",
      "outputs": [
        {
          "internalType": "bool",
          "name": "",
          "type": "bool"
        }
      ],
      "stateMutability": "pure",
      "type": "function"
    },
    {
      "inputs": [],
      "name": "masterContract",
      "outputs": [
        {
          "internalType": "contract iGAME_Master",
          "name": "",
          "type": "address"
        }
      ],
      "stateMutability": "view",
      "type": "function"
    },
    {
      "inputs": [],
      "name": "mintingActive",
      "outputs": [
        {
          "internalType": "bool",
          "name": "",
          "type": "bool"
        }
      ],
      "stateMutability": "view",
      "type": "function"
    },
    {
      "inputs": [],
      "name": "multiple",
      "outputs": [
        {
          "internalType": "uint256",
          "name": "",
          "type": "uint256"
        }
      ],
      "stateMutability": "view",
      "type": "function"
    },
    {
      "inputs": [
        {
          "internalType": "uint256",
          "name": "",
          "type": "uint256"
        }
      ],
      "name": "multipliers",
      "outputs": [
        {
          "internalType": "uint256",
          "name": "",
          "type": "uint256"
        }
      ],
      "stateMutability": "view",
      "type": "function"
    },
    {
      "inputs": [
        {
          "internalType": "uint256",
          "name": "",
          "type": "uint256"
        }
      ],
      "name": "nextTokenIDs",
      "outputs": [
        {
          "internalType": "uint256",
          "name": "",
          "type": "uint256"
        }
      ],
      "stateMutability": "view",
      "type": "function"
    },
    {
      "inputs": [],
      "name": "quick",
      "outputs": [
        {
          "internalType": "address",
          "name": "",
          "type": "address"
        }
      ],
      "stateMutability": "view",
      "type": "function"
    },
    {
      "inputs": [
        {
          "internalType": "bytes32",
          "name": "role",
          "type": "bytes32"
        },
        {
          "internalType": "address",
          "name": "account",
          "type": "address"
        }
      ],
      "name": "renounceRole",
      "outputs": [],
      "stateMutability": "nonpayable",
      "type": "function"
    },
    {
      "inputs": [
        {
          "internalType": "bytes32",
          "name": "role",
          "type": "bytes32"
        },
        {
          "internalType": "address",
          "name": "account",
          "type": "address"
        }
      ],
      "name": "revokeRole",
      "outputs": [],
      "stateMutability": "nonpayable",
      "type": "function"
    },
    {
      "inputs": [
        {
          "internalType": "address",
          "name": "from",
          "type": "address"
        },
        {
          "internalType": "address",
          "name": "to",
          "type": "address"
        },
        {
          "internalType": "uint256[]",
          "name": "ids",
          "type": "uint256[]"
        },
        {
          "internalType": "uint256[]",
          "name": "amounts",
          "type": "uint256[]"
        },
        {
          "internalType": "bytes",
          "name": "data",
          "type": "bytes"
        }
      ],
      "name": "safeBatchTransferFrom",
      "outputs": [],
      "stateMutability": "nonpayable",
      "type": "function"
    },
    {
      "inputs": [
        {
          "internalType": "address",
          "name": "from",
          "type": "address"
        },
        {
          "internalType": "address",
          "name": "to",
          "type": "address"
        },
        {
          "internalType": "uint256",
          "name": "id",
          "type": "uint256"
        },
        {
          "internalType": "uint256",
          "name": "amount",
          "type": "uint256"
        },
        {
          "internalType": "bytes",
          "name": "data",
          "type": "bytes"
        }
      ],
      "name": "safeTransferFrom",
      "outputs": [],
      "stateMutability": "nonpayable",
      "type": "function"
    },
    {
      "inputs": [
        {
          "internalType": "uint256",
          "name": "",
          "type": "uint256"
        }
      ],
      "name": "saleStarts",
      "outputs": [
        {
          "internalType": "uint256",
          "name": "",
          "type": "uint256"
        }
      ],
      "stateMutability": "view",
      "type": "function"
    },
    {
      "inputs": [
        {
          "internalType": "address",
          "name": "operator",
          "type": "address"
        },
        {
          "internalType": "bool",
          "name": "approved",
          "type": "bool"
        }
      ],
      "name": "setApprovalForAll",
      "outputs": [],
      "stateMutability": "nonpayable",
      "type": "function"
    },
    {
      "inputs": [
        {
          "internalType": "string",
          "name": "newuri",
          "type": "string"
        }
      ],
      "name": "setBaseURI",
      "outputs": [],
      "stateMutability": "nonpayable",
      "type": "function"
    },
    {
      "inputs": [
        {
          "internalType": "address",
          "name": "a",
          "type": "address"
        }
      ],
      "name": "setFEERECEIVER",
      "outputs": [],
      "stateMutability": "nonpayable",
      "type": "function"
    },
    {
      "inputs": [
        {
          "internalType": "string",
          "name": "newuri",
          "type": "string"
        },
        {
          "internalType": "uint256",
          "name": "id",
          "type": "uint256"
        }
      ],
      "name": "setURI",
      "outputs": [],
      "stateMutability": "nonpayable",
      "type": "function"
    },
    {
      "inputs": [
        {
          "internalType": "address",
          "name": "uniswapRouter_",
          "type": "address"
        }
      ],
      "name": "setUniswapRouter",
      "outputs": [],
      "stateMutability": "nonpayable",
      "type": "function"
    },
    {
      "inputs": [
        {
          "internalType": "bytes4",
          "name": "interfaceId",
          "type": "bytes4"
        }
      ],
      "name": "supportsInterface",
      "outputs": [
        {
          "internalType": "bool",
          "name": "",
          "type": "bool"
        }
      ],
      "stateMutability": "view",
      "type": "function"
    },
    {
      "inputs": [],
      "name": "toggleTokenBurning",
      "outputs": [],
      "stateMutability": "nonpayable",
      "type": "function"
    },
    {
      "inputs": [],
      "name": "toggleTokenMinting",
      "outputs": [],
      "stateMutability": "nonpayable",
      "type": "function"
    },
    {
      "inputs": [],
      "name": "uniswapRouter",
      "outputs": [
        {
          "internalType": "contract IUniswapV2Router02",
          "name": "",
          "type": "address"
        }
      ],
      "stateMutability": "view",
      "type": "function"
    },
    {
      "inputs": [
        {
          "internalType": "address",
          "name": "contract_",
          "type": "address"
        },
        {
          "internalType": "bool",
          "name": "isLocal_",
          "type": "bool"
        }
      ],
      "name": "updateLocalContract",
      "outputs": [],
      "stateMutability": "nonpayable",
      "type": "function"
    },
    {
      "inputs": [
        {
          "internalType": "uint256",
          "name": "tokenid",
          "type": "uint256"
        }
      ],
      "name": "uri",
      "outputs": [
        {
          "internalType": "string",
          "name": "",
          "type": "string"
        }
      ],
      "stateMutability": "view",
      "type": "function"
    },
    {
      "inputs": [],
      "name": "wMatic",
      "outputs": [
        {
          "internalType": "address",
          "name": "",
          "type": "address"
        }
      ],
      "stateMutability": "view",
      "type": "function"
    },
    {
      "inputs": [
        {
          "internalType": "address",
          "name": "userAddress_",
          "type": "address"
        },
        {
          "internalType": "bytes32",
          "name": "replayPrevention_",
          "type": "bytes32"
        },
        {
          "internalType": "bytes",
          "name": "functionSignature_",
          "type": "bytes"
        },
        {
          "internalType": "bytes32",
          "name": "sigR_",
          "type": "bytes32"
        },
        {
          "internalType": "bytes32",
          "name": "sigS_",
          "type": "bytes32"
        },
        {
          "internalType": "uint8",
          "name": "sigV_",
          "type": "uint8"
        }
      ],
      "name": "workerExecuteMetaTransaction",
      "outputs": [
        {
          "internalType": "bytes",
          "name": "",
          "type": "bytes"
        }
      ],
      "stateMutability": "payable",
      "type": "function"
    }
  ],
  "bytecode": "0x60806040526003600f55670de0b6b3a76400006010556ec097ce7bc90715b34b9f100000000060115562989680601c55601e80546001600160a01b0319908116730d500b1d8e8ef31e21c99d1db9a6444d3adf127017909155601f805490911673831753dd7087cac61ab5644b308642cc1c33dc131790553480156200008457600080fd5b5060405162006baa38038062006baa83398181016040526060811015620000aa57600080fd5b50805160208083015160409384015184518086018652601381527f47414d4520426f6e64696e672043757276657300000000000000000000000000818501528551808701875260018152603160f81b81860152865180880190975260048752631d195cdd60e21b94870194909452939491939092909182908290620001366301ffc9a760e01b6200028d565b62000148636cdb3d1360e11b6200028d565b6200015a6303a24d0760e21b6200028d565b6200017060006200016a62000312565b62000316565b6200018e60008051602062006b388339815191526200016a62000312565b620001ac60008051602062006b188339815191526200016a62000312565b620001c860008051602062006b18833981519152600062000326565b620001e460008051602062006b38833981519152600062000326565b8051620001f9906006906020840190620005f2565b50620002089050828262000378565b60085562000217828262000451565b600955505080516200023190600b906020840190620005f2565b5081516200024790600c906020850190620005f2565b5050601380546001600160a01b039586166001600160a01b031991821617909155601480549486169482169490941790935550601580549190931691161790556200068e565b6001600160e01b03198082161415620002ed576040805162461bcd60e51b815260206004820152601c60248201527f4552433136353a20696e76616c696420696e7465726661636520696400000000604482015290519081900360640190fd5b6001600160e01b0319166000908152602081905260409020805460ff19166001179055565b3390565b620003228282620004ee565b5050565b600082815260056020526040808220600201549051839285917fbd79b86ffe0ab8e8776151514217cd7cacd52c909f66475c3af44e129f0b00ff9190a460009182526005602052604090912060020155565b6000806200038562000569565b905080620003da576040805162461bcd60e51b815260206004820152601960248201527f636861696e204944206d757374206e6f74206265207a65726f00000000000000604482015290519081900360640190fd5b60405180608001604052806052815260200162006b58605291398051602091820120855186830120855186840120604080518086019490945283810192909252606083015260808201939093523060a0808301919091528351808303909101815260c0909101909252815191012090505b92915050565b6000806200045e62000569565b90508060891480620004705750806001145b62000492578062013881146200048957617a696200048c565b60055b62000495565b60015b61ffff16905080620003da576040805162461bcd60e51b815260206004820152601960248201527f636861696e204944206d757374206e6f74206265207a65726f00000000000000604482015290519081900360640190fd5b60008281526005602090815260409091206200051591839062004db96200056d821b17901c565b1562000322576200052562000312565b6001600160a01b0316816001600160a01b0316837f2f8788117e7eff1d82e926ec794901d17c78024a50270940304540a733656f0d60405160405180910390a45050565b4690565b600062000584836001600160a01b0384166200058b565b9392505050565b6000620005998383620005da565b620005d1575081546001818101845560008481526020808220909301849055845484825282860190935260409020919091556200044b565b5060006200044b565b60009081526001919091016020526040902054151590565b828054600181600116156101000203166002900490600052602060002090601f016020900481019282601f106200063557805160ff191683800117855562000665565b8280016001018555821562000665579182015b828111156200066557825182559160200191906001019062000648565b506200067392915062000677565b5090565b5b8082111562000673576000815560010162000678565b61647a806200069e6000396000f3fe6080604052600436106103d85760003560e01c8063654d1333116101fd578063ba84be0711610118578063d547741f116100ab578063ec7982571161007a578063ec7982571461163a578063f242432a14611664578063f40c96ab1461173a578063fdd3a8791461174f578063fe6d812414611764576103d8565b8063d547741f14611587578063e1a1a66c146115c0578063e5b95595146115d5578063e985e9c5146115ff576103d8565b8063c7977be7116100e7578063c7977be7146114f4578063c8db7e8314611509578063ca15c87314611548578063cd446e2214611572576103d8565b8063ba84be07146113bf578063bea9849e1461147c578063c3dfdae6146114af578063c707562d146114c4576103d8565b806391d1485411610190578063ac7fc2631161015f578063ac7fc2631461128f578063ad2ded2b146112b9578063b1de303e14611380578063ba730e5314611395576103d8565b806391d14854146111e3578063a217fddf1461121c578063a22cb46514611231578063a8b8c18b1461126c576103d8565b8063765d6cce116101cc578063765d6cce1461115f57806376adcba5146111745780638749474f146111895780639010d07c146111b3576103d8565b8063654d133314610ea457806367db3b8f14610f615780636d4b99e014611014578063735de9f71461114a576103d8565b806326150e95116102f857806336568abe1161028b57806342966c681161025a57806342966c6814610bf9578063437a8ae614610c235780634e1273f414610c3857806355f804b314610db85780635958b30114610e69576103d8565b806336568abe14610b3b5780633c81fdb414610b745780633d24265514610ba55780633f89730014610bcf576103d8565b80632eb2c2d6116102c75780632eb2c2d61461090a5780632f2ff15d14610ad857806331f9c91914610b115780633408e47014610b26576103d8565b806326150e951461075c57806327430a42146107715780632b606d2c146108a75780632d0335ab146108d7576103d8565b80631490185c116103705780631d84003f1161033f5780631d84003f146106d357806320379ee51461070857806321c7cf4d1461071d578063248a9ca314610732576103d8565b80631490185c1461064f578063161e650d1461067f5780631bf7d749146106945780631c7c2598146106be576103d8565b80630bb78ec1116103ac5780630bb78ec1146104af5780630c53c51c1461054e5780630e89341c14610610578063118c4f131461063a576103d8565b8062fdd58e146103dd57806301c11d961461042857806301ffc9a71461043d57806308d4db1414610485575b600080fd5b3480156103e957600080fd5b506104166004803603604081101561040057600080fd5b506001600160a01b038135169060200135611779565b60408051918252519081900360200190f35b34801561043457600080fd5b506104166117eb565b34801561044957600080fd5b506104716004803603602081101561046057600080fd5b50356001600160e01b0319166117f1565b604080519115158252519081900360200190f35b34801561049157600080fd5b50610416600480360360208110156104a857600080fd5b5035611814565b3480156104bb57600080fd5b506104d9600480360360208110156104d257600080fd5b5035611837565b6040805160208082528351818301528351919283929083019185019080838360005b838110156105135781810151838201526020016104fb565b50505050905090810190601f1680156105405780820380516001836020036101000a031916815260200191505b509250505060405180910390f35b6104d9600480360360a081101561056457600080fd5b6001600160a01b038235169190810190604081016020820135600160201b81111561058e57600080fd5b8201836020820111156105a057600080fd5b803590602001918460018302840111600160201b831117156105c157600080fd5b91908080601f016020809104026020016040519081016040528093929190818152602001838380828437600092019190915250929550508235935050506020810135906040013560ff166118d2565b34801561061c57600080fd5b506104d96004803603602081101561063357600080fd5b5035611bdf565b34801561064657600080fd5b50610416611e43565b34801561065b57600080fd5b506104166004803603604081101561067257600080fd5b5080359060200135611e67565b34801561068b57600080fd5b50610416611e72565b3480156106a057600080fd5b50610416600480360360208110156106b757600080fd5b5035611e79565b3480156106ca57600080fd5b50610471611e8b565b3480156106df57600080fd5b50610706600480360360208110156106f657600080fd5b50356001600160a01b0316611e99565b005b34801561071457600080fd5b50610416611ecf565b34801561072957600080fd5b50610706611ed5565b34801561073e57600080fd5b506104166004803603602081101561075557600080fd5b5035611f06565b34801561076857600080fd5b50610706611f1b565b34801561077d57600080fd5b506104166004803603604081101561079457600080fd5b810190602081018135600160201b8111156107ae57600080fd5b8201836020820111156107c057600080fd5b803590602001918460018302840111600160201b831117156107e157600080fd5b91908080601f0160208091040260200160405190810160405280939291908181526020018383808284376000920191909152509295949360208101935035915050600160201b81111561083357600080fd5b82018360208201111561084557600080fd5b803590602001918460018302840111600160201b8311171561086657600080fd5b91908080601f016020809104026020016040519081016040528093929190818152602001838380828437600092019190915250929550611f43945050505050565b3480156108b357600080fd5b50610416600480360360408110156108ca57600080fd5b5080359060200135612049565b3480156108e357600080fd5b50610416600480360360208110156108fa57600080fd5b50356001600160a01b03166120e4565b34801561091657600080fd5b50610706600480360360a081101561092d57600080fd5b6001600160a01b038235811692602081013590911691810190606081016040820135600160201b81111561096057600080fd5b82018360208201111561097257600080fd5b803590602001918460208302840111600160201b8311171561099357600080fd5b9190808060200260200160405190810160405280939291908181526020018383602002808284376000920191909152509295949360208101935035915050600160201b8111156109e257600080fd5b8201836020820111156109f457600080fd5b803590602001918460208302840111600160201b83111715610a1557600080fd5b9190808060200260200160405190810160405280939291908181526020018383602002808284376000920191909152509295949360208101935035915050600160201b811115610a6457600080fd5b820183602082011115610a7657600080fd5b803590602001918460018302840111600160201b83111715610a9757600080fd5b91908080601f0160208091040260200160405190810160405280939291908181526020018383808284376000920191909152509295506120ff945050505050565b348015610ae457600080fd5b5061070660048036036040811015610afb57600080fd5b50803590602001356001600160a01b03166123fd565b348015610b1d57600080fd5b50610471612469565b348015610b3257600080fd5b50610416612472565b348015610b4757600080fd5b5061070660048036036040811015610b5e57600080fd5b50803590602001356001600160a01b0316612476565b348015610b8057600080fd5b50610b896124d7565b604080516001600160a01b039092168252519081900360200190f35b348015610bb157600080fd5b5061041660048036036020811015610bc857600080fd5b50356124e6565b348015610bdb57600080fd5b5061041660048036036020811015610bf257600080fd5b50356124f8565b348015610c0557600080fd5b5061070660048036036020811015610c1c57600080fd5b503561250a565b348015610c2f57600080fd5b5061041661275e565b348015610c4457600080fd5b50610d6860048036036040811015610c5b57600080fd5b810190602081018135600160201b811115610c7557600080fd5b820183602082011115610c8757600080fd5b803590602001918460208302840111600160201b83111715610ca857600080fd5b9190808060200260200160405190810160405280939291908181526020018383602002808284376000920191909152509295949360208101935035915050600160201b811115610cf757600080fd5b820183602082011115610d0957600080fd5b803590602001918460208302840111600160201b83111715610d2a57600080fd5b919080806020026020016040519081016040528093929190818152602001838360200280828437600092019190915250929550612764945050505050565b60408051602080825283518183015283519192839290830191858101910280838360005b83811015610da4578181015183820152602001610d8c565b505050509050019250505060405180910390f35b348015610dc457600080fd5b5061070660048036036020811015610ddb57600080fd5b810190602081018135600160201b811115610df557600080fd5b820183602082011115610e0757600080fd5b803590602001918460018302840111600160201b83111715610e2857600080fd5b91908080601f0160208091040260200160405190810160405280939291908181526020018383808284376000920191909152509295506128e2945050505050565b348015610e7557600080fd5b5061070660048036036040811015610e8c57600080fd5b506001600160a01b0381351690602001351515612465565b348015610eb057600080fd5b5061070660048036036080811015610ec757600080fd5b81359190810190604081016020820135600160201b811115610ee857600080fd5b820183602082011115610efa57600080fd5b803590602001918460018302840111600160201b83111715610f1b57600080fd5b91908080601f0160208091040260200160405190810160405280939291908181526020018383808284376000920191909152509295505082359350505060200135612928565b348015610f6d57600080fd5b5061070660048036036040811015610f8457600080fd5b810190602081018135600160201b811115610f9e57600080fd5b820183602082011115610fb057600080fd5b803590602001918460018302840111600160201b83111715610fd157600080fd5b91908080601f0160208091040260200160405190810160405280939291908181526020018383808284376000920191909152509295505091359250612c2e915050565b34801561102057600080fd5b506104166004803603604081101561103757600080fd5b810190602081018135600160201b81111561105157600080fd5b82018360208201111561106357600080fd5b803590602001918460018302840111600160201b8311171561108457600080fd5b91908080601f0160208091040260200160405190810160405280939291908181526020018383808284376000920191909152509295949360208101935035915050600160201b8111156110d657600080fd5b8201836020820111156110e857600080fd5b803590602001918460018302840111600160201b8311171561110957600080fd5b91908080601f016020809104026020016040519081016040528093929190818152602001838380828437600092019190915250929550612c85945050505050565b34801561115657600080fd5b50610b89612ce0565b34801561116b57600080fd5b50610471612cef565b34801561118057600080fd5b50610b89612cf4565b34801561119557600080fd5b50610416600480360360208110156111ac57600080fd5b5035612d03565b3480156111bf57600080fd5b50610b89600480360360408110156111d657600080fd5b5080359060200135612d15565b3480156111ef57600080fd5b506104716004803603604081101561120657600080fd5b50803590602001356001600160a01b0316612d2d565b34801561122857600080fd5b50610416612d45565b34801561123d57600080fd5b506107066004803603604081101561125457600080fd5b506001600160a01b0381351690602001351515612d4a565b6107066004803603604081101561128257600080fd5b5080359060200135612e39565b34801561129b57600080fd5b50610416600480360360208110156112b257600080fd5b50356136a9565b6104d9600480360360c08110156112cf57600080fd5b6001600160a01b0382351691602081013591810190606081016040820135600160201b8111156112fe57600080fd5b82018360208201111561131057600080fd5b803590602001918460018302840111600160201b8311171561133157600080fd5b91908080601f016020809104026020016040519081016040528093929190818152602001838380828437600092019190915250929550508235935050506020810135906040013560ff166136bb565b34801561138c57600080fd5b50610416613a4c565b3480156113a157600080fd5b50610416600480360360208110156113b857600080fd5b5035613a70565b3480156113cb57600080fd5b50610706600480360360808110156113e257600080fd5b81359190810190604081016020820135600160201b81111561140357600080fd5b82018360208201111561141557600080fd5b803590602001918460018302840111600160201b8311171561143657600080fd5b91908080601f0160208091040260200160405190810160405280939291908181526020018383808284376000920191909152509295505082359350505060200135613a93565b34801561148857600080fd5b506107066004803603602081101561149f57600080fd5b50356001600160a01b0316613dbf565b3480156114bb57600080fd5b50610b89613df5565b3480156114d057600080fd5b50610706600480360360408110156114e757600080fd5b5080359060200135613e04565b34801561150057600080fd5b50610416613ff7565b34801561151557600080fd5b506107066004803603606081101561152c57600080fd5b50803590602081013590604001356001600160a01b031661401a565b34801561155457600080fd5b506104166004803603602081101561156b57600080fd5b5035614a31565b34801561157e57600080fd5b50610b89614a48565b34801561159357600080fd5b50610706600480360360408110156115aa57600080fd5b50803590602001356001600160a01b0316614a57565b3480156115cc57600080fd5b506104d9614ab0565b3480156115e157600080fd5b50610471600480360360208110156115f857600080fd5b5035614b0b565b34801561160b57600080fd5b506104716004803603604081101561162257600080fd5b506001600160a01b0381358116916020013516614b20565b34801561164657600080fd5b506104166004803603602081101561165d57600080fd5b5035614b4e565b34801561167057600080fd5b50610706600480360360a081101561168757600080fd5b6001600160a01b03823581169260208101359091169160408201359160608101359181019060a081016080820135600160201b8111156116c657600080fd5b8201836020820111156116d857600080fd5b803590602001918460018302840111600160201b831117156116f957600080fd5b91908080601f016020809104026020016040519081016040528093929190818152602001838380828437600092019190915250929550614b60945050505050565b34801561174657600080fd5b506104d9614d2b565b34801561175b57600080fd5b50610b89614d86565b34801561177057600080fd5b50610416614d95565b60006001600160a01b0383166117c05760405162461bcd60e51b815260040180806020018281038252602b81526020018061606e602b913960400191505060405180910390fd5b5060008181526001602090815260408083206001600160a01b03861684529091529020545b92915050565b60115481565b6001600160e01b0319811660009081526020819052604090205460ff165b919050565b6000818152601860205260408120546118308360018301612049565b9392505050565b60076020908152600091825260409182902080548351601f6002600019610100600186161502019093169290920491820184900484028101840190945280845290918301828280156118ca5780601f1061189f576101008083540402835291602001916118ca565b820191906000526020600020905b8154815290600101906020018083116118ad57829003601f168201915b505050505081565b60606118dc615df4565b50604080516060810182526001600160a01b0388166000818152600a60209081529084902054835282015290810186905261191a8782878787614dce565b6119555760405162461bcd60e51b81526004018080602001828103825260218152602001806163186021913960400191505060405180910390fd5b6001600160a01b0387166000908152600a6020526040902054611979906001614e76565b600a6000896001600160a01b03166001600160a01b03168152602001908152602001600020819055507f5845892132946850460bff5a0083f71031bc5bf9aadcd40f1de79423eac9b10b87338860405180846001600160a01b03168152602001836001600160a01b0316815260200180602001828103825283818151815260200191508051906020019080838360005b83811015611a21578181015183820152602001611a09565b50505050905090810190601f168015611a4e5780820380516001836020036101000a031916815260200191505b5094505050505060405180910390a160006060306001600160a01b0316888a6040516020018083805190602001908083835b60208310611a9f5780518252601f199092019160209182019101611a80565b6001836020036101000a038019825116818451168082178552505050505050905001826001600160a01b031660601b8152601401925050506040516020818303038152906040526040518082805190602001908083835b60208310611b155780518252601f199092019160209182019101611af6565b6001836020036101000a0380198251168184511680821785525050505050509050019150506000604051808303816000865af19150503d8060008114611b77576040519150601f19603f3d011682016040523d82523d6000602084013e611b7c565b606091505b509150915081611bd3576040805162461bcd60e51b815260206004820152601c60248201527f46756e6374696f6e2063616c6c206e6f74207375636365737366756c00000000604482015290519081900360640190fd5b98975050505050505050565b6000818152600760209081526040918290208054835160026001831615610100026000190190921691909104601f81018490048402820184019094528381526060938493919291830182828015611c775780601f10611c4c57610100808354040283529160200191611c77565b820191906000526020600020905b815481529060010190602001808311611c5a57829003601f168201915b505060065493945050505060026000196101006001841615020190911604611ca057905061180f565b805115611d71576006816040516020018083805460018160011615610100020316600290048015611d085780601f10611ce6576101008083540402835291820191611d08565b820191906000526020600020905b815481529060010190602001808311611cf4575b5050825160208401908083835b60208310611d345780518252601f199092019160209182019101611d15565b6001836020036101000a0380198251168184511680821785525050505050509050019250505060405160208183030381529060405291505061180f565b6006611d7c84614ed0565b6040516020018083805460018160011615610100020316600290048015611dda5780601f10611db8576101008083540402835291820191611dda565b820191906000526020600020905b815481529060010190602001808311611dc6575b5050825160208401908083835b60208310611e065780518252601f199092019160209182019101611de7565b6001836020036101000a03801982511681845116808217855250505050505090500192505050604051602081830303815290604052915050919050565b7f9667e80708b6eeeb0053fa0cca44e028ff548e2a9f029edfeac87c118b08b7c881565b601054919091020190565b6009545b90565b60166020526000908152604090205481565b600e54610100900460ff1681565b611ea4600033612d2d565b611ead57600080fd5b601280546001600160a01b0319166001600160a01b0392909216919091179055565b60085490565b611ee0600033612d2d565b611ee957600080fd5b600e805461ff001981166101009182900460ff1615909102179055565b60009081526005602052604090206002015490565b611f26600033612d2d565b611f2f57600080fd5b600e805460ff19811660ff90911615179055565b600080611f4e612472565b90508060891480611f5f5750806001145b611f7d57806201388114611f7557617a69611f78565b60055b611f80565b60015b61ffff16905080611fd4576040805162461bcd60e51b8152602060048201526019602482015278636861696e204944206d757374206e6f74206265207a65726f60381b604482015290519081900360640190fd5b60405180608001604052806052815260200161622e605291398051602091820120855186830120855186840120604080518086019490945283810192909252606083015260808201939093523060a0808301919091528351808303909101815260c09091019092528151910120905092915050565b6000828152601660209081526040808320546019909252822054600f54600a0a603284612087600986900a61208160038a0a86614fab565b90615004565b90506120a161209a866120818a87614fab565b8290614e76565b90506120b061209a8385614fab565b90506120cc6103e8612081866120c6858a615004565b90614fab565b9050611bd38361208183670de0b6b3a7640000614fab565b6001600160a01b03166000908152600a602052604090205490565b815183511461213f5760405162461bcd60e51b81526004018080602001828103825260288152602001806163cd6028913960400191505060405180910390fd5b6001600160a01b0384166121845760405162461bcd60e51b815260040180806020018281038252602581526020018061618a6025913960400191505060405180910390fd5b61218c615046565b6001600160a01b0316856001600160a01b031614806121b757506121b7856121b2615046565b614b20565b6121f25760405162461bcd60e51b81526004018080602001828103825260328152602001806161af6032913960400191505060405180910390fd5b60006121fc615046565b905061220c81878787878761504a565b60005b845181101561230d57600085828151811061222657fe5b60200260200101519050600085838151811061223e57fe5b602002602001015190506122ab816040518060600160405280602a8152602001616204602a91396001600086815260200190815260200160002060008d6001600160a01b03166001600160a01b031681526020019081526020016000205461516d9092919063ffffffff16565b60008381526001602090815260408083206001600160a01b038e811685529252808320939093558a16815220546122e29082614e76565b60009283526001602081815260408086206001600160a01b038d16875290915290932055500161220f565b50846001600160a01b0316866001600160a01b0316826001600160a01b03167f4a39dc06d4c0dbc64b70af90fd698a233a518aa5d07e595d983b8c0526c8f7fb8787604051808060200180602001838103835285818151815260200191508051906020019060200280838360005b8381101561239357818101518382015260200161237b565b50505050905001838103825284818151815260200191508051906020019060200280838360005b838110156123d25781810151838201526020016123ba565b5050505090500194505050505060405180910390a46123f5818787878787615204565b505050505050565b6000828152600560205260409020600201546124209061241b615046565b612d2d565b61245b5760405162461bcd60e51b815260040180806020018281038252602f815260200180615ffa602f913960400191505060405180910390fd5b6124658282615483565b5050565b600e5460ff1681565b4690565b61247e615046565b6001600160a01b0316816001600160a01b0316146124cd5760405162461bcd60e51b815260040180806020018281038252602f815260200180616416602f913960400191505060405180910390fd5b61246582826154ec565b601e546001600160a01b031681565b60186020526000908152604090205481565b601a6020526000908152604090205481565b600e54610100900460ff1661255e576040805162461bcd60e51b81526020600482015260156024820152746275726e696e67206973206e6f742061637469766560581b604482015290519081900360640190fd5b600161256a3383611779565b10156125a75760405162461bcd60e51b81526004018080602001828103825260238152602001806162806023913960400191505060405180910390fd5b60006125b282613a70565b6000838152601860205260409020805460001901905590506125dd6125d5615046565b836001615555565b6125e5615046565b6001600160a01b03167f7f189ad2df0843ce2bba34028497b567ecb15a53dbfb381e8b7a3f1d5ca87d71838361261a86611814565b61262387613a70565b6000888152601860209081526040918290205460135483516370a0823160e01b8152306004820152935191936001600160a01b03909116926370a0823192602480840193829003018186803b15801561267b57600080fd5b505afa15801561268f573d6000803e3d6000fd5b505050506040513d60208110156126a557600080fd5b5051604080519687526020870195909552858501939093526060850191909152608084015260a0830152519081900360c00190a26013546001600160a01b031663e2b8e7d3306126f3615046565b846040518463ffffffff1660e01b815260040180846001600160a01b03168152602001836001600160a01b031681526020018281526020019350505050600060405180830381600087803b15801561274a57600080fd5b505af11580156123f5573d6000803e3d6000fd5b601c5481565b606081518351146127a65760405162461bcd60e51b81526004018080602001828103825260298152602001806163a46029913960400191505060405180910390fd5b6060835167ffffffffffffffff811180156127c057600080fd5b506040519080825280602002602001820160405280156127ea578160200160208202803683370190505b50905060005b84518110156128da5760006001600160a01b031685828151811061281057fe5b60200260200101516001600160a01b0316141561285e5760405162461bcd60e51b81526004018080602001828103825260318152602001806160996031913960400191505060405180910390fd5b6001600085838151811061286e57fe5b60200260200101518152602001908152602001600020600086838151811061289257fe5b60200260200101516001600160a01b03166001600160a01b03168152602001908152602001600020548282815181106128c757fe5b60209081029190910101526001016127f0565b509392505050565b61290c7ff6e33f9720e4529cb1c710e3344dc00830589a3239198ffa39b07117085d250e33612d2d565b61291557600080fd5b8051612465906006906020840190615e1e565b6000848152601a60205260409020805460010190819055620f4240811061298d576040805162461bcd60e51b815260206004820152601460248201527306d617820746f6b656e206f6620313030303030360641b604482015290519081900360640190fd5b60008311801561299e575060148311155b80156129aa5750600082115b80156129b95750620f42408211155b612a0a576040805162461bcd60e51b815260206004820152601d60248201527f696e76616c696420637572766520616e64206d756c7469706c69657273000000604482015290519081900360640190fd5b6001845111612a55576040805162461bcd60e51b81526020600482015260126024820152711a9cdbdb881b5d5cdd081b9bdb881b9d5b1b60721b604482015290519081900360640190fd5b6014546001600160a01b0316634ba3d74886612a6f615046565b6040518363ffffffff1660e01b815260040180838152602001826001600160a01b0316815260200192505050602060405180830381600087803b158015612ab557600080fd5b505af1158015612ac9573d6000803e3d6000fd5b505050506040513d6020811015612adf57600080fd5b50511515600114612b37576040805162461bcd60e51b815260206004820152601f60248201527f73656e646572206d757374206265206d696e696f6e206f7220776f726b657200604482015290519081900360640190fd5b6000612b438683611e67565b90508360166000838152602001908152602001600020819055508260196000838152602001908152602001600020819055507f855f2403a3717b569ca6483cb3250554954ef4734871df9005e45eb9bffce8cf818686866040518085815260200180602001848152602001838152602001828103825285818151815260200191508051906020019080838360005b83811015612be9578181015183820152602001612bd1565b50505050905090810190601f168015612c165780820380516001836020036101000a031916815260200191505b509550505050505060405180910390a1505050505050565b612c587ff6e33f9720e4529cb1c710e3344dc00830589a3239198ffa39b07117085d250e33612d2d565b612c6157600080fd5b60008181526007602090815260409091208351612c8092850190615e1e565b505050565b600080612c90612472565b905080611fd4576040805162461bcd60e51b8152602060048201526019602482015278636861696e204944206d757374206e6f74206265207a65726f60381b604482015290519081900360640190fd5b601d546001600160a01b031681565b600190565b6014546001600160a01b031681565b6000908152601a602052604090205490565b60008281526005602052604081206118309083615688565b60008281526005602052604081206118309083615694565b600081565b816001600160a01b0316612d5c615046565b6001600160a01b03161415612da25760405162461bcd60e51b815260040180806020018281038252602981526020018061637b6029913960400191505060405180910390fd5b8060036000612daf615046565b6001600160a01b03908116825260208083019390935260409182016000908120918716808252919093529120805460ff191692151592909217909155612df3615046565b6001600160a01b03167f17307eab39ab6107e8899845ad3d59bd9653f200f220920489ca2b5937696c318360405180821515815260200191505060405180910390a35050565b600e5460ff16612e88576040805162461bcd60e51b81526020600482015260156024820152746d696e74696e67206973206e6f742061637469766560581b604482015290519081900360640190fd5b60008281526017602052604090205442118015612eb2575060008281526017602052604090205415155b612efe576040805162461bcd60e51b81526020600482015260186024820152771cd85b19481a185cc81b9bdd081cdd185c9d1959081e595d60421b604482015290519081900360640190fd5b43601b6000612f0b615046565b6001600160a01b03166001600160a01b031681526020019081526020016000205410612f3657600080fd5b43601b6000612f43615046565b6001600160a01b03166001600160a01b031681526020019081526020016000208190555060006010548381612f7457fe5b0490506000612f8284611814565b9050600081118015612f945750828111155b612fd5576040805162461bcd60e51b815260206004820152600d60248201526c696e76616c696420707269636560981b604482015290519081900360640190fd5b600084815260186020526040908190208054600101905580516003808252608082019092526060918160200160208202803683375050601e5482519293506001600160a01b03169183915060009061302957fe5b6001600160a01b039283166020918202929092010152601f5482519116908290600190811061305457fe5b6001600160a01b03928316602091820292909201015260135482519116908290600290811061307f57fe5b6001600160a01b03928316602091820292909201810191909152601d54604080516307c0329d60e21b815260048101878152602482019283528651604483015286516060969490941694631f00ca7494899489949092606490910191858201910280838360005b838110156130fe5781810151838201526020016130e6565b50505050905001935050505060006040518083038186803b15801561312257600080fd5b505afa158015613136573d6000803e3d6000fd5b505050506040513d6000823e601f3d908101601f19168201604052602081101561315f57600080fd5b8101908080516040519392919084600160201b82111561317e57600080fd5b90830190602082018581111561319357600080fd5b82518660208202830111600160201b821117156131af57600080fd5b82525081516020918201928201910280838360005b838110156131dc5781810151838201526020016131c4565b505050509050016040525050509050806000815181106131f857fe5b602002602001015134101561323e5760405162461bcd60e51b81526004018080602001828103825260248152602001806160296024913960400191505060405180910390fd5b601d5481516060916001600160a01b03169063fb3bdb4190849060009061326157fe5b6020026020010151868630426064016040518663ffffffff1660e01b81526004018085815260200180602001846001600160a01b03168152602001838152602001828103825285818151815260200191508051906020019060200280838360005b838110156132da5781810151838201526020016132c2565b50505050905001955050505050506000604051808303818588803b15801561330157600080fd5b505af1158015613315573d6000803e3d6000fd5b50505050506040513d6000823e601f3d908101601f19168201604052602081101561333f57600080fd5b8101908080516040519392919084600160201b82111561335e57600080fd5b90830190602082018581111561337357600080fd5b82518660208202830111600160201b8211171561338f57600080fd5b82525081516020918201928201910280838360005b838110156133bc5781810151838201526020016133a4565b50505050905001604052505050905034816000815181106133d957fe5b6020026020010151101561345d57336001600160a01b03166134188260008151811061340157fe5b6020026020010151346156a990919063ffffffff16565b604051600081818185875af1925050503d8060008114613454576040519150601f19603f3d011682016040523d82523d6000602084013e613459565b606091505b5050505b506000915061346f9050826032615004565b905060006134836064612081856008614fab565b90506134a8613490615046565b876001604051806020016040528060008152506156eb565b836001600160a01b03166134ba615046565b6001600160a01b03167fa8f60c2735df0121f6c1fb70fdc37e927e3b21f7266de2beeace3ed35b8634d088866134ef8b611814565b6134f88c613a70565b60008d8152601860209081526040918290205460135483516370a0823160e01b8152306004820152935191938c936001600160a01b03909216926370a0823192602480840193919291829003018186803b15801561355557600080fd5b505afa158015613569573d6000803e3d6000fd5b505050506040513d602081101561357f57600080fd5b5051604080519788526020880196909652868601949094526060860192909252608085015260a084015260c0830152519081900360e00190a36013546012546040805163e2b8e7d360e01b81523060048201526001600160a01b039283166024820152604481018690529051919092169163e2b8e7d391606480830192600092919082900301818387803b15801561361657600080fd5b505af115801561362a573d6000803e3d6000fd5b50506013546040805163e2b8e7d360e01b81523060048201526001600160a01b03898116602483015260448201879052915191909216935063e2b8e7d39250606480830192600092919082900301818387803b15801561368957600080fd5b505af115801561369d573d6000803e3d6000fd5b50505050505050505050565b60196020526000908152604090205481565b60606136c5615823565b6137005760405162461bcd60e51b81526004018080602001828103825260428152602001806163396042913960600191505060405180910390fd5b613708615e9c565b50604080516060810182528781526001600160a01b038916602082015290810186905261373888828787876158a0565b6137735760405162461bcd60e51b81526004018080602001828103825260218152602001806163186021913960400191505060405180910390fd5b6001600160a01b0388166000908152600d602090815260408083208a845290915290205460ff16156137ec576040805162461bcd60e51b815260206004820181905260248201527f5245504c4159206f6620612070726576696f7573207472616e73616374696f6e604482015290519081900360640190fd5b6001600160a01b0388166000818152600d602090815260408083208b84528252808320805460ff1916600117905580519384523384830181905260609185018281528b51928601929092528a517f5845892132946850460bff5a0083f71031bc5bf9aadcd40f1de79423eac9b10b958e9592948d94919391926080850192918601918190849084905b8381101561388d578181015183820152602001613875565b50505050905090810190601f1680156138ba5780820380516001836020036101000a031916815260200191505b5094505050505060405180910390a160006060306001600160a01b0316888b6040516020018083805190602001908083835b6020831061390b5780518252601f1990920191602091820191016138ec565b6001836020036101000a038019825116818451168082178552505050505050905001826001600160a01b031660601b8152601401925050506040516020818303038152906040526040518082805190602001908083835b602083106139815780518252601f199092019160209182019101613962565b6001836020036101000a0380198251168184511680821785525050505050509050019150506000604051808303816000865af19150503d80600081146139e3576040519150601f19603f3d011682016040523d82523d6000602084013e6139e8565b606091505b509150915081613a3f576040805162461bcd60e51b815260206004820152601c60248201527f46756e6374696f6e2063616c6c206e6f74207375636365737366756c00000000604482015290519081900360640190fd5b9998505050505050505050565b7ff6e33f9720e4529cb1c710e3344dc00830589a3239198ffa39b07117085d250e81565b6000818152601860205260408120546118306064612081605a6120c68786612049565b60006010548581613aa057fe5b049050613aac85614b0b565b15613afa576040805162461bcd60e51b81526020600482015260196024820152781d1bdad95b881a185cc81b9bdd081899595b881b5a5b9d1959603a1b604482015290519081900360640190fd5b6014546001600160a01b0316634ba3d74882613b14615046565b6040518363ffffffff1660e01b815260040180838152602001826001600160a01b0316815260200192505050602060405180830381600087803b158015613b5a57600080fd5b505af1158015613b6e573d6000803e3d6000fd5b505050506040513d6020811015613b8457600080fd5b50511515600114613bc65760405162461bcd60e51b815260040180806020018281038252602181526020018061604d6021913960400191505060405180910390fd5b600083118015613bd7575060148311155b8015613be35750600082115b8015613bf25750620f42408211155b613c43576040805162461bcd60e51b815260206004820152601c60248201527f696e76616c6964206375727665206f72206d756c7469706c6965727300000000604482015290519081900360640190fd5b6001845111613c8e576040805162461bcd60e51b81526020600482015260126024820152711a9cdbdb881b5d5cdd081b9bdb881b9d5b1b60721b604482015290519081900360640190fd5b600085815260166020526040902054613ce2576040805162461bcd60e51b815260206004820152601160248201527018dd5c9d99481b5d5cdd081899481cd95d607a1b604482015290519081900360640190fd5b600085815260166020908152604080832086905560198252808320859055805188815290810186905260608101859052608081830181815288519183019190915287517f855f2403a3717b569ca6483cb3250554954ef4734871df9005e45eb9bffce8cf948a948a948a948a949193909260a0850192908801918190849084905b83811015613d7b578181015183820152602001613d63565b50505050905090810190601f168015613da85780820380516001836020036101000a031916815260200191505b509550505050505060405180910390a15050505050565b613dca600033612d2d565b613dd357600080fd5b601d80546001600160a01b0319166001600160a01b0392909216919091179055565b6013546001600160a01b031681565b613e0d82614b0b565b15613e5b576040805162461bcd60e51b81526020600482015260196024820152781d1bdad95b881a185cc81b9bdd081899595b881b5a5b9d1959603a1b604482015290519081900360640190fd5b600082815260166020526040902054613eaf576040805162461bcd60e51b815260206004820152601160248201527018dd5c9d99481b5d5cdd081899481cd95d607a1b604482015290519081900360640190fd5b60006010548381613ebc57fe5b60145491900491506001600160a01b0316634ba3d74882613edb615046565b6040518363ffffffff1660e01b815260040180838152602001826001600160a01b0316815260200192505050602060405180830381600087803b158015613f2157600080fd5b505af1158015613f35573d6000803e3d6000fd5b505050506040513d6020811015613f4b57600080fd5b50511515600114613f8d5760405162461bcd60e51b815260040180806020018281038252602181526020018061604d6021913960400191505060405180910390fd5b4282108015613f9c5750600082115b15613fa5574291505b600083815260176020908152604091829020849055815185815290810184905281517f6ce538f9e575f548476b624a738c3bc0bdf1ec4e465cacb3f7c67bef3926e20e929181900390910190a1505050565b60405180608001604052806052815260200161622e605291398051906020012081565b600e5460ff16614069576040805162461bcd60e51b81526020600482015260156024820152746d696e74696e67206973206e6f742061637469766560581b604482015290519081900360640190fd5b60008381526017602052604090205442118015614093575060008381526017602052604090205415155b6140df576040805162461bcd60e51b81526020600482015260186024820152771cd85b19481a185cc81b9bdd081cdd185c9d1959081e595d60421b604482015290519081900360640190fd5b43601b60006140ec615046565b6001600160a01b03166001600160a01b03168152602001908152602001600020541061411757600080fd5b43601b6000614124615046565b6001600160a01b03166001600160a01b03168152602001908152602001600020819055506000601054848161415557fe5b049050600061416385611814565b90506000811180156141755750838111155b6141b6576040805162461bcd60e51b815260206004820152600d60248201526c696e76616c696420707269636560981b604482015290519081900360640190fd5b6000858152601860205260409081902080546001019055805160038082526080820190925260609181602001602082028036833701905050905083816000815181106141fe57fe5b6001600160a01b039283166020918202929092010152601f5482519116908290600190811061422957fe5b6001600160a01b03928316602091820292909201015260135482519116908290600290811061425457fe5b6001600160a01b03928316602091820292909201810191909152601d54604080516307c0329d60e21b815260048101878152602482019283528651604483015286516060969490941694631f00ca7494899489949092606490910191858201910280838360005b838110156142d35781810151838201526020016142bb565b50505050905001935050505060006040518083038186803b1580156142f757600080fd5b505afa15801561430b573d6000803e3d6000fd5b505050506040513d6000823e601f3d908101601f19168201604052602081101561433457600080fd5b8101908080516040519392919084600160201b82111561435357600080fd5b90830190602082018581111561436857600080fd5b82518660208202830111600160201b8211171561438457600080fd5b82525081516020918201928201910280838360005b838110156143b1578181015183820152602001614399565b505050509050016040525050509050816000815181106143cd57fe5b60200260200101516001600160a01b03166323b872dd3330846000815181106143f257fe5b60200260200101516040518463ffffffff1660e01b815260040180846001600160a01b03168152602001836001600160a01b031681526020018281526020019350505050602060405180830381600087803b15801561445057600080fd5b505af1158015614464573d6000803e3d6000fd5b505050506040513d602081101561447a57600080fd5b50508151829060009061448957fe5b60200260200101516001600160a01b031663095ea7b3601d60009054906101000a90046001600160a01b0316836000815181106144c257fe5b60200260200101516040518363ffffffff1660e01b815260040180836001600160a01b0316815260200182815260200192505050602060405180830381600087803b15801561451057600080fd5b505af1158015614524573d6000803e3d6000fd5b505050506040513d602081101561453a57600080fd5b5050601d5481516060916001600160a01b031690638803dbee908690859060009061456157fe5b60200260200101518630426064016040518663ffffffff1660e01b81526004018086815260200185815260200180602001846001600160a01b03168152602001838152602001828103825285818151815260200191508051906020019060200280838360005b838110156145df5781810151838201526020016145c7565b505050509050019650505050505050600060405180830381600087803b15801561460857600080fd5b505af115801561461c573d6000803e3d6000fd5b505050506040513d6000823e601f3d908101601f19168201604052602081101561464557600080fd5b8101908080516040519392919084600160201b82111561466457600080fd5b90830190602082018581111561467957600080fd5b82518660208202830111600160201b8211171561469557600080fd5b82525081516020918201928201910280838360005b838110156146c25781810151838201526020016146aa565b505050509050016040525050509050816000815181106146de57fe5b6020026020010151816000815181106146f357fe5b602002602001015110156147e4578260008151811061470e57fe5b60200260200101516001600160a01b03166323b872dd30336147618560008151811061473657fe5b60200260200101518760008151811061474b57fe5b60200260200101516156a990919063ffffffff16565b6040518463ffffffff1660e01b815260040180846001600160a01b03168152602001836001600160a01b031681526020018281526020019350505050602060405180830381600087803b1580156147b757600080fd5b505af11580156147cb573d6000803e3d6000fd5b505050506040513d60208110156147e157600080fd5b50505b50600091506147f69050826032615004565b9050600061480a6064612081856008614fab565b905061482f614817615046565b886001604051806020016040528060008152506156eb565b836001600160a01b0316614841615046565b6001600160a01b03167fa8f60c2735df0121f6c1fb70fdc37e927e3b21f7266de2beeace3ed35b8634d089866148768c611814565b61487f8d613a70565b60008e8152601860209081526040918290205460135483516370a0823160e01b8152306004820152935191938c936001600160a01b03909216926370a0823192602480840193919291829003018186803b1580156148dc57600080fd5b505afa1580156148f0573d6000803e3d6000fd5b505050506040513d602081101561490657600080fd5b5051604080519788526020880196909652868601949094526060860192909252608085015260a084015260c0830152519081900360e00190a36013546012546040805163e2b8e7d360e01b81523060048201526001600160a01b039283166024820152604481018690529051919092169163e2b8e7d391606480830192600092919082900301818387803b15801561499d57600080fd5b505af11580156149b1573d6000803e3d6000fd5b50506013546040805163e2b8e7d360e01b81523060048201526001600160a01b03898116602483015260448201879052915191909216935063e2b8e7d39250606480830192600092919082900301818387803b158015614a1057600080fd5b505af1158015614a24573d6000803e3d6000fd5b5050505050505050505050565b60008181526005602052604081206117e5906158c8565b6015546001600160a01b031681565b600082815260056020526040902060020154614a759061241b615046565b6124cd5760405162461bcd60e51b815260040180806020018281038252603081526020018061615a6030913960400191505060405180910390fd5b600c805460408051602060026001851615610100026000190190941693909304601f810184900484028201840190925281815292918301828280156118ca5780601f1061189f576101008083540402835291602001916118ca565b60009081526002602052604090205460ff1690565b6001600160a01b03918216600090815260036020908152604080832093909416825291909152205460ff1690565b60176020526000908152604090205481565b6001600160a01b038416614ba55760405162461bcd60e51b815260040180806020018281038252602581526020018061618a6025913960400191505060405180910390fd5b614bad615046565b6001600160a01b0316856001600160a01b03161480614bd35750614bd3856121b2615046565b614c0e5760405162461bcd60e51b81526004018080602001828103825260298152602001806161316029913960400191505060405180910390fd5b6000614c18615046565b9050614c38818787614c29886158d3565b614c32886158d3565b8761504a565b614c7f836040518060600160405280602a8152602001616204602a913960008781526001602090815260408083206001600160a01b038d168452909152902054919061516d565b60008581526001602090815260408083206001600160a01b038b81168552925280832093909355871681522054614cb69084614e76565b60008581526001602090815260408083206001600160a01b03808b168086529184529382902094909455805188815291820187905280518a8416938616927fc3d58168c5ae7397731d063d5bbf3d657854427343f4c083240f7aacaa2d0f6292908290030190a46123f5818787878787615917565b600b805460408051602060026001851615610100026000190190941693909304601f810184900484028201840190925281815292918301828280156118ca5780601f1061189f576101008083540402835291602001916118ca565b601f546001600160a01b031681565b7ff0887ba65ee2024ea881d91b74c2450ef19e1557f03bed3ea9f16b037cbe2dc981565b6000611830836001600160a01b038416615a88565b60006001600160a01b03861615801590614e6c57506001614df6614df187615ad2565b615b55565b83868660405160008152602001604052604051808581526020018460ff1681526020018381526020018281526020019450505050506020604051602081039080840390855afa158015614e4d573d6000803e3d6000fd5b505050602060405103516001600160a01b0316866001600160a01b0316145b9695505050505050565b600082820183811015611830576040805162461bcd60e51b815260206004820152601b60248201527f536166654d6174683a206164646974696f6e206f766572666c6f770000000000604482015290519081900360640190fd5b606081614ef557506040805180820190915260018152600360fc1b602082015261180f565b8160005b8115614f0d57600101600a82049150614ef9565b60608167ffffffffffffffff81118015614f2657600080fd5b506040519080825280601f01601f191660200182016040528015614f51576020820181803683370190505b50859350905060001982015b8315614fa257600a840660300160f81b82828060019003935081518110614f8057fe5b60200101906001600160f81b031916908160001a905350600a84049350614f5d565b50949350505050565b600082614fba575060006117e5565b82820282848281614fc757fe5b04146118305760405162461bcd60e51b81526004018080602001828103825260218152602001806162f76021913960400191505060405180910390fd5b600061183083836040518060400160405280601a81526020017f536166654d6174683a206469766973696f6e206279207a65726f000000000000815250615ba1565b3390565b6001600160a01b0384161561515f5760005b82518110156150ca5782818151811061507157fe5b60200260200101516001146150c2576040805162461bcd60e51b8152602060048201526012602482015271416d6f756e742073686f756c64206265203160701b604482015290519081900360640190fd5b60010161505c565b506001600160a01b0385161561515f5760005b835181101561515d57615103858583815181106150f657fe5b6020026020010151611779565b15615155576040805162461bcd60e51b815260206004820152601f60248201527f746f5f616464726573732073686f756c64206f776e2030206f66206561636800604482015290519081900360640190fd5b6001016150dd565b505b6123f58686868686866123f5565b600081848411156151fc5760405162461bcd60e51b81526004018080602001828103825283818151815260200191508051906020019080838360005b838110156151c15781810151838201526020016151a9565b50505050905090810190601f1680156151ee5780820380516001836020036101000a031916815260200191505b509250505060405180910390fd5b505050900390565b615216846001600160a01b0316615c06565b156123f557836001600160a01b031663bc197c8187878686866040518663ffffffff1660e01b815260040180866001600160a01b03168152602001856001600160a01b03168152602001806020018060200180602001848103845287818151815260200191508051906020019060200280838360005b838110156152a457818101518382015260200161528c565b50505050905001848103835286818151815260200191508051906020019060200280838360005b838110156152e35781810151838201526020016152cb565b50505050905001848103825285818151815260200191508051906020019080838360005b8381101561531f578181015183820152602001615307565b50505050905090810190601f16801561534c5780820380516001836020036101000a031916815260200191505b5098505050505050505050602060405180830381600087803b15801561537157600080fd5b505af192505050801561539657506040513d602081101561539157600080fd5b505160015b61542b576153a2615ed6565b806153ad57506153f4565b60405162461bcd60e51b81526020600482018181528351602484015283518493919283926044019190850190808383600083156151c15781810151838201526020016151a9565b60405162461bcd60e51b8152600401808060200182810382526034815260200180615f7c6034913960400191505060405180910390fd5b6001600160e01b0319811663bc197c8160e01b1461547a5760405162461bcd60e51b8152600401808060200182810382526028815260200180615fd26028913960400191505060405180910390fd5b50505050505050565b600082815260056020526040902061549b9082614db9565b15612465576154a8615046565b6001600160a01b0316816001600160a01b0316837f2f8788117e7eff1d82e926ec794901d17c78024a50270940304540a733656f0d60405160405180910390a45050565b60008281526005602052604090206155049082615c0c565b1561246557615511615046565b6001600160a01b0316816001600160a01b0316837ff6391f5c32d9c69d2a47ea670b442974b53935d1edc7fd64eb21e047a839171b60405160405180910390a45050565b6001600160a01b03831661559a5760405162461bcd60e51b81526004018080602001828103825260238152602001806161e16023913960400191505060405180910390fd5b60006155a4615046565b90506155d4818560006155b6876158d3565b6155bf876158d3565b6040518060200160405280600081525061504a565b61561b8260405180606001604052806024815260200161610d6024913960008681526001602090815260408083206001600160a01b038b168452909152902054919061516d565b60008481526001602090815260408083206001600160a01b03808a16808652918452828520959095558151888152928301879052815193949093908616927fc3d58168c5ae7397731d063d5bbf3d657854427343f4c083240f7aacaa2d0f6292908290030190a450505050565b60006118308383615c21565b6000611830836001600160a01b038416615c85565b600061183083836040518060400160405280601e81526020017f536166654d6174683a207375627472616374696f6e206f766572666c6f77000081525061516d565b6001600160a01b0384166157305760405162461bcd60e51b81526004018080602001828103825260218152602001806163f56021913960400191505060405180910390fd5b60008381526002602052604090205460ff16615760576000838152600260205260409020805460ff191660011790555b600061576a615046565b905061577c81600087614c29886158d3565b60008481526001602090815260408083206001600160a01b03891684529091529020546157a99084614e76565b60008581526001602090815260408083206001600160a01b03808b16808652918452828520959095558151898152928301889052815190948616927fc3d58168c5ae7397731d063d5bbf3d657854427343f4c083240f7aacaa2d0f6292908290030190a461581c81600087878787615917565b5050505050565b601554604080516317937a0760e01b815233600482015290516000926001600160a01b0316916317937a0791602480830192602092919082900301818787803b15801561586f57600080fd5b505af1158015615883573d6000803e3d6000fd5b505050506040513d602081101561589957600080fd5b5051905090565b60006001600160a01b03861615801590614e6c57506001614df66158c387615c9d565b615d20565b60006117e582615d2a565b60408051600180825281830190925260609182919060208083019080368337019050509050828160008151811061590657fe5b602090810291909101015292915050565b615929846001600160a01b0316615c06565b156123f557836001600160a01b031663f23a6e6187878686866040518663ffffffff1660e01b815260040180866001600160a01b03168152602001856001600160a01b0316815260200184815260200183815260200180602001828103825283818151815260200191508051906020019080838360005b838110156159b85781810151838201526020016159a0565b50505050905090810190601f1680156159e55780820380516001836020036101000a031916815260200191505b509650505050505050602060405180830381600087803b158015615a0857600080fd5b505af1925050508015615a2d57506040513d6020811015615a2857600080fd5b505160015b615a39576153a2615ed6565b6001600160e01b0319811663f23a6e6160e01b1461547a5760405162461bcd60e51b8152600401808060200182810382526028815260200180615fd26028913960400191505060405180910390fd5b6000615a948383615c85565b615aca575081546001818101845560008481526020808220909301849055845484825282860190935260409020919091556117e5565b5060006117e5565b60006040518060800160405280604381526020016160ca60439139805190602001208260000151836020015184604001518051906020012060405160200180858152602001848152602001836001600160a01b03168152602001828152602001945050505050604051602081830303815290604052805190602001209050919050565b6000615b5f611ecf565b82604051602001808061190160f01b81525060020183815260200182815260200192505050604051602081830303815290604052805190602001209050919050565b60008183615bf05760405162461bcd60e51b81526020600482018181528351602484015283519092839260449091019190850190808383600083156151c15781810151838201526020016151a9565b506000838581615bfc57fe5b0495945050505050565b3b151590565b6000611830836001600160a01b038416615d2e565b81546000908210615c635760405162461bcd60e51b8152600401808060200182810382526022815260200180615fb06022913960400191505060405180910390fd5b826000018281548110615c7257fe5b9060005260206000200154905092915050565b60009081526001919091016020526040902054151590565b60006040518060800160405280605481526020016162a360549139805190602001208260000151836020015184604001518051906020012060405160200180858152602001848152602001836001600160a01b03168152602001828152602001945050505050604051602081830303815290604052805190602001209050919050565b6000615b5f611e72565b5490565b60008181526001830160205260408120548015615dea5783546000198083019190810190600090879083908110615d6157fe5b9060005260206000200154905080876000018481548110615d7e57fe5b600091825260208083209091019290925582815260018981019092526040902090840190558654879080615dae57fe5b600190038181906000526020600020016000905590558660010160008781526020019081526020016000206000905560019450505050506117e5565b60009150506117e5565b60405180606001604052806000815260200160006001600160a01b03168152602001606081525090565b828054600181600116156101000203166002900490600052602060002090601f016020900481019282601f10615e5f57805160ff1916838001178555615e8c565b82800160010185558215615e8c579182015b82811115615e8c578251825591602001919060010190615e71565b50615e98929150615ebb565b5090565b6040805160608082018352600080835260208301529181019190915290565b5b80821115615e985760008155600101615ebc565b60e01c90565b600060443d1015615ee657611e76565b600481823e6308c379a0615efa8251615ed0565b14615f0457611e76565b6040513d600319016004823e80513d67ffffffffffffffff8160248401118184111715615f345750505050611e76565b82840192508251915080821115615f4e5750505050611e76565b503d83016020828401011115615f6657505050611e76565b601f01601f191681016020016040529150509056fe455243313135353a207472616e7366657220746f206e6f6e2045524331313535526563656976657220696d706c656d656e746572456e756d657261626c655365743a20696e646578206f7574206f6620626f756e6473455243313135353a204552433131353552656365697665722072656a656374656420746f6b656e73416363657373436f6e74726f6c3a2073656e646572206d75737420626520616e2061646d696e20746f206772616e746275794e4654776974684d617469633a2076616c7565206973206e6f7420656e6f75676873656e646572206d757374206265206f70657261746f72206f7220776f726b6572455243313135353a2062616c616e636520717565727920666f7220746865207a65726f2061646472657373455243313135353a2062617463682062616c616e636520717565727920666f7220746865207a65726f20616464726573734d6574615472616e73616374696f6e2875696e74323536206e6f6e63652c616464726573732066726f6d2c62797465732066756e6374696f6e5369676e617475726529455243313135353a206275726e20616d6f756e7420657863656564732062616c616e6365455243313135353a2063616c6c6572206973206e6f74206f776e6572206e6f7220617070726f766564416363657373436f6e74726f6c3a2073656e646572206d75737420626520616e2061646d696e20746f207265766f6b65455243313135353a207472616e7366657220746f20746865207a65726f2061646472657373455243313135353a207472616e736665722063616c6c6572206973206e6f74206f776e6572206e6f7220617070726f766564455243313135353a206275726e2066726f6d20746865207a65726f2061646472657373455243313135353a20696e73756666696369656e742062616c616e636520666f72207472616e73666572454950373132446f6d61696e28737472696e67206e616d652c737472696e672076657273696f6e2c75696e7432353620636861696e49642c6164647265737320766572696679696e67436f6e74726163742973656e646572206d7573742068617665206174206c65617374206f6e6520746f6b656e576f726b65724d6574615472616e73616374696f6e2862797465733332207265706c617950726576656e74696f6e2c616464726573732066726f6d2c62797465732066756e6374696f6e5369676e617475726529536166654d6174683a206d756c7469706c69636174696f6e206f766572666c6f775369676e657220616e64207369676e617475726520646f206e6f74206d61746368576f726b6572204d6574612d5472616e73616374696f6e2073656e74206279206163636f756e74206f74686572207468616e206120776f726b65722f6d696e696f6e455243313135353a2073657474696e6720617070726f76616c2073746174757320666f722073656c66455243313135353a206163636f756e747320616e6420696473206c656e677468206d69736d61746368455243313135353a2069647320616e6420616d6f756e7473206c656e677468206d69736d61746368455243313135353a206d696e7420746f20746865207a65726f2061646472657373416363657373436f6e74726f6c3a2063616e206f6e6c792072656e6f756e636520726f6c657320666f722073656c66a2646970667358221220b8020954896f3505b015e33caf33d0dcd6def2ed17ce884e8a8cd1ed57c7034d64736f6c63430007030033f0887ba65ee2024ea881d91b74c2450ef19e1557f03bed3ea9f16b037cbe2dc9f6e33f9720e4529cb1c710e3344dc00830589a3239198ffa39b07117085d250e454950373132446f6d61696e28737472696e67206e616d652c737472696e672076657273696f6e2c75696e7432353620636861696e49642c6164647265737320766572696679696e67436f6e747261637429",
  "linkReferences": {},
  "deployedLinkReferences": {}
}