{
  "_format": "hh-sol-artifact-1",
  "contractName": "BondingSale",
  "sourceName": "contracts/BondingSale.sol",
  "abi": [
    {
      "inputs": [
        {
          "internalType": "address",
          "name": "_gameToken",
          "type": "address"
        },
        {
          "internalType": "address",
          "name": "_gameAdmin",
          "type": "address"
        },
        {
          "internalType": "address",
          "name": "_gameMaster",
          "type": "address"
        }
      ],
      "stateMutability": "nonpayable",
      "type": "constructor"
    },
    {
      "anonymous": false,
      "inputs": [
        {
          "indexed": true,
          "internalType": "address",
          "name": "account",
          "type": "address"
        },
        {
          "indexed": true,
          "internalType": "address",
          "name": "operator",
          "type": "address"
        },
        {
          "indexed": false,
          "internalType": "bool",
          "name": "approved",
          "type": "bool"
        }
      ],
      "name": "ApprovalForAll",
      "type": "event"
    },
    {
      "anonymous": false,
      "inputs": [
        {
          "indexed": false,
          "internalType": "address",
          "name": "userAddress",
          "type": "address"
        },
        {
          "indexed": false,
          "internalType": "address payable",
          "name": "relayerAddress",
          "type": "address"
        },
        {
          "indexed": false,
          "internalType": "bytes",
          "name": "functionSignature",
          "type": "bytes"
        }
      ],
      "name": "MetaTransactionExecuted",
      "type": "event"
    },
    {
      "anonymous": false,
      "inputs": [
        {
          "indexed": true,
          "internalType": "bytes32",
          "name": "role",
          "type": "bytes32"
        },
        {
          "indexed": true,
          "internalType": "bytes32",
          "name": "previousAdminRole",
          "type": "bytes32"
        },
        {
          "indexed": true,
          "internalType": "bytes32",
          "name": "newAdminRole",
          "type": "bytes32"
        }
      ],
      "name": "RoleAdminChanged",
      "type": "event"
    },
    {
      "anonymous": false,
      "inputs": [
        {
          "indexed": true,
          "internalType": "bytes32",
          "name": "role",
          "type": "bytes32"
        },
        {
          "indexed": true,
          "internalType": "address",
          "name": "account",
          "type": "address"
        },
        {
          "indexed": true,
          "internalType": "address",
          "name": "sender",
          "type": "address"
        }
      ],
      "name": "RoleGranted",
      "type": "event"
    },
    {
      "anonymous": false,
      "inputs": [
        {
          "indexed": true,
          "internalType": "bytes32",
          "name": "role",
          "type": "bytes32"
        },
        {
          "indexed": true,
          "internalType": "address",
          "name": "account",
          "type": "address"
        },
        {
          "indexed": true,
          "internalType": "address",
          "name": "sender",
          "type": "address"
        }
      ],
      "name": "RoleRevoked",
      "type": "event"
    },
    {
      "anonymous": false,
      "inputs": [
        {
          "indexed": true,
          "internalType": "address",
          "name": "to",
          "type": "address"
        },
        {
          "indexed": false,
          "internalType": "uint256",
          "name": "id",
          "type": "uint256"
        },
        {
          "indexed": false,
          "internalType": "uint256",
          "name": "pricePaid",
          "type": "uint256"
        },
        {
          "indexed": false,
          "internalType": "uint256",
          "name": "nextPrintPrice",
          "type": "uint256"
        },
        {
          "indexed": false,
          "internalType": "uint256",
          "name": "nextBurnPrice",
          "type": "uint256"
        },
        {
          "indexed": false,
          "internalType": "uint256",
          "name": "tokenSupply",
          "type": "uint256"
        },
        {
          "indexed": false,
          "internalType": "uint256",
          "name": "royaltyPaid",
          "type": "uint256"
        },
        {
          "indexed": false,
          "internalType": "uint256",
          "name": "reserve",
          "type": "uint256"
        },
        {
          "indexed": true,
          "internalType": "address",
          "name": "royaltyRecipient",
          "type": "address"
        }
      ],
      "name": "TokenBought",
      "type": "event"
    },
    {
      "anonymous": false,
      "inputs": [
        {
          "indexed": true,
          "internalType": "address",
          "name": "to",
          "type": "address"
        },
        {
          "indexed": false,
          "internalType": "uint256",
          "name": "id",
          "type": "uint256"
        },
        {
          "indexed": false,
          "internalType": "uint256",
          "name": "priceReceived",
          "type": "uint256"
        },
        {
          "indexed": false,
          "internalType": "uint256",
          "name": "nextPrintPrice",
          "type": "uint256"
        },
        {
          "indexed": false,
          "internalType": "uint256",
          "name": "nextBurnPrice",
          "type": "uint256"
        },
        {
          "indexed": false,
          "internalType": "uint256",
          "name": "printsSupply",
          "type": "uint256"
        },
        {
          "indexed": false,
          "internalType": "uint256",
          "name": "reserve",
          "type": "uint256"
        }
      ],
      "name": "TokenBurned",
      "type": "event"
    },
    {
      "anonymous": false,
      "inputs": [
        {
          "indexed": false,
          "internalType": "uint256",
          "name": "tokenId",
          "type": "uint256"
        },
        {
          "indexed": false,
          "internalType": "string",
          "name": "json",
          "type": "string"
        },
        {
          "indexed": false,
          "internalType": "uint256",
          "name": "curve",
          "type": "uint256"
        },
        {
          "indexed": false,
          "internalType": "uint256",
          "name": "multiplier",
          "type": "uint256"
        }
      ],
      "name": "TokenData",
      "type": "event"
    },
    {
      "anonymous": false,
      "inputs": [
        {
          "indexed": false,
          "internalType": "uint256",
          "name": "id",
          "type": "uint256"
        },
        {
          "indexed": false,
          "internalType": "uint256",
          "name": "date",
          "type": "uint256"
        }
      ],
      "name": "TokenOnSale",
      "type": "event"
    },
    {
      "anonymous": false,
      "inputs": [
        {
          "indexed": true,
          "internalType": "address",
          "name": "operator",
          "type": "address"
        },
        {
          "indexed": true,
          "internalType": "address",
          "name": "from",
          "type": "address"
        },
        {
          "indexed": true,
          "internalType": "address",
          "name": "to",
          "type": "address"
        },
        {
          "indexed": false,
          "internalType": "uint256[]",
          "name": "ids",
          "type": "uint256[]"
        },
        {
          "indexed": false,
          "internalType": "uint256[]",
          "name": "values",
          "type": "uint256[]"
        }
      ],
      "name": "TransferBatch",
      "type": "event"
    },
    {
      "anonymous": false,
      "inputs": [
        {
          "indexed": true,
          "internalType": "address",
          "name": "operator",
          "type": "address"
        },
        {
          "indexed": true,
          "internalType": "address",
          "name": "from",
          "type": "address"
        },
        {
          "indexed": true,
          "internalType": "address",
          "name": "to",
          "type": "address"
        },
        {
          "indexed": false,
          "internalType": "uint256",
          "name": "id",
          "type": "uint256"
        },
        {
          "indexed": false,
          "internalType": "uint256",
          "name": "value",
          "type": "uint256"
        }
      ],
      "name": "TransferSingle",
      "type": "event"
    },
    {
      "anonymous": false,
      "inputs": [
        {
          "indexed": false,
          "internalType": "string",
          "name": "value",
          "type": "string"
        },
        {
          "indexed": true,
          "internalType": "uint256",
          "name": "id",
          "type": "uint256"
        }
      ],
      "name": "URI",
      "type": "event"
    },
    {
      "inputs": [],
      "name": "BURNER",
      "outputs": [
        {
          "internalType": "bytes32",
          "name": "",
          "type": "bytes32"
        }
      ],
      "stateMutability": "view",
      "type": "function"
    },
    {
      "inputs": [],
      "name": "CONTRACT_ERC712_NAME",
      "outputs": [
        {
          "internalType": "string",
          "name": "",
          "type": "string"
        }
      ],
      "stateMutability": "view",
      "type": "function"
    },
    {
      "inputs": [],
      "name": "CONTRACT_ERC712_VERSION",
      "outputs": [
        {
          "internalType": "string",
          "name": "",
          "type": "string"
        }
      ],
      "stateMutability": "view",
      "type": "function"
    },
    {
      "inputs": [
        {
          "internalType": "uint256",
          "name": "creatorId",
          "type": "uint256"
        },
        {
          "internalType": "string",
          "name": "json",
          "type": "string"
        },
        {
          "internalType": "uint256",
          "name": "curve",
          "type": "uint256"
        },
        {
          "internalType": "uint256",
          "name": "multiplier",
          "type": "uint256"
        }
      ],
      "name": "CreateToken",
      "outputs": [],
      "stateMutability": "nonpayable",
      "type": "function"
    },
    {
      "inputs": [],
      "name": "DEFAULT_ADMIN_ROLE",
      "outputs": [
        {
          "internalType": "bytes32",
          "name": "",
          "type": "bytes32"
        }
      ],
      "stateMutability": "view",
      "type": "function"
    },
    {
      "inputs": [],
      "name": "EIP712_DOMAIN_TYPEHASH",
      "outputs": [
        {
          "internalType": "bytes32",
          "name": "",
          "type": "bytes32"
        }
      ],
      "stateMutability": "view",
      "type": "function"
    },
    {
      "inputs": [],
      "name": "MAX_PRICE",
      "outputs": [
        {
          "internalType": "uint256",
          "name": "",
          "type": "uint256"
        }
      ],
      "stateMutability": "view",
      "type": "function"
    },
    {
      "inputs": [],
      "name": "METADATA_ADMIN",
      "outputs": [
        {
          "internalType": "bytes32",
          "name": "",
          "type": "bytes32"
        }
      ],
      "stateMutability": "view",
      "type": "function"
    },
    {
      "inputs": [],
      "name": "MINTER",
      "outputs": [
        {
          "internalType": "bytes32",
          "name": "",
          "type": "bytes32"
        }
      ],
      "stateMutability": "view",
      "type": "function"
    },
    {
      "inputs": [
        {
          "internalType": "uint256",
          "name": "tokenId",
          "type": "uint256"
        },
        {
          "internalType": "uint256",
          "name": "onSaleDate",
          "type": "uint256"
        }
      ],
      "name": "SetTokenOnSaleDate",
      "outputs": [],
      "stateMutability": "nonpayable",
      "type": "function"
    },
    {
      "inputs": [
        {
          "internalType": "uint256",
          "name": "",
          "type": "uint256"
        }
      ],
      "name": "TokenSupply",
      "outputs": [
        {
          "internalType": "uint256",
          "name": "",
          "type": "uint256"
        }
      ],
      "stateMutability": "view",
      "type": "function"
    },
    {
      "inputs": [
        {
          "internalType": "uint256",
          "name": "tokenId",
          "type": "uint256"
        },
        {
          "internalType": "string",
          "name": "json",
          "type": "string"
        },
        {
          "internalType": "uint256",
          "name": "curve",
          "type": "uint256"
        },
        {
          "internalType": "uint256",
          "name": "multiplier",
          "type": "uint256"
        }
      ],
      "name": "UpdateTokenData",
      "outputs": [],
      "stateMutability": "nonpayable",
      "type": "function"
    },
    {
      "inputs": [
        {
          "internalType": "uint256",
          "name": "",
          "type": "uint256"
        }
      ],
      "name": "_tokenURIs",
      "outputs": [
        {
          "internalType": "string",
          "name": "",
          "type": "string"
        }
      ],
      "stateMutability": "view",
      "type": "function"
    },
    {
      "inputs": [
        {
          "internalType": "address",
          "name": "account",
          "type": "address"
        },
        {
          "internalType": "uint256",
          "name": "id",
          "type": "uint256"
        }
      ],
      "name": "balanceOf",
      "outputs": [
        {
          "internalType": "uint256",
          "name": "",
          "type": "uint256"
        }
      ],
      "stateMutability": "view",
      "type": "function"
    },
    {
      "inputs": [
        {
          "internalType": "address[]",
          "name": "accounts",
          "type": "address[]"
        },
        {
          "internalType": "uint256[]",
          "name": "ids",
          "type": "uint256[]"
        }
      ],
      "name": "balanceOfBatch",
      "outputs": [
        {
          "internalType": "uint256[]",
          "name": "",
          "type": "uint256[]"
        }
      ],
      "stateMutability": "view",
      "type": "function"
    },
    {
      "inputs": [
        {
          "internalType": "uint256",
          "name": "tokenId",
          "type": "uint256"
        }
      ],
      "name": "burn",
      "outputs": [],
      "stateMutability": "nonpayable",
      "type": "function"
    },
    {
      "inputs": [],
      "name": "burningActive",
      "outputs": [
        {
          "internalType": "bool",
          "name": "",
          "type": "bool"
        }
      ],
      "stateMutability": "view",
      "type": "function"
    },
    {
      "inputs": [
        {
          "internalType": "uint256",
          "name": "tokenId",
          "type": "uint256"
        },
        {
          "internalType": "uint256",
          "name": "maxPrice",
          "type": "uint256"
        }
      ],
      "name": "buyNFTwithGAME",
      "outputs": [],
      "stateMutability": "nonpayable",
      "type": "function"
    },
    {
      "inputs": [
        {
          "internalType": "uint256",
          "name": "tokenId",
          "type": "uint256"
        },
        {
          "internalType": "uint256",
          "name": "maxPrice",
          "type": "uint256"
        }
      ],
      "name": "buyNFTwithMatic",
      "outputs": [],
      "stateMutability": "payable",
      "type": "function"
    },
    {
      "inputs": [
        {
          "internalType": "uint256",
          "name": "",
          "type": "uint256"
        }
      ],
      "name": "curves",
      "outputs": [
        {
          "internalType": "uint256",
          "name": "",
          "type": "uint256"
        }
      ],
      "stateMutability": "view",
      "type": "function"
    },
    {
      "inputs": [
        {
          "internalType": "string",
          "name": "name",
          "type": "string"
        },
        {
          "internalType": "string",
          "name": "version",
          "type": "string"
        }
      ],
      "name": "encodeDomainSeperator",
      "outputs": [
        {
          "internalType": "bytes32",
          "name": "",
          "type": "bytes32"
        }
      ],
      "stateMutability": "view",
      "type": "function"
    },
    {
      "inputs": [
        {
          "internalType": "string",
          "name": "name",
          "type": "string"
        },
        {
          "internalType": "string",
          "name": "version",
          "type": "string"
        }
      ],
      "name": "encodeWorkerDomainSeperator",
      "outputs": [
        {
          "internalType": "bytes32",
          "name": "",
          "type": "bytes32"
        }
      ],
      "stateMutability": "view",
      "type": "function"
    },
    {
      "inputs": [
        {
          "internalType": "address",
          "name": "userAddress",
          "type": "address"
        },
        {
          "internalType": "bytes",
          "name": "functionSignature",
          "type": "bytes"
        },
        {
          "internalType": "bytes32",
          "name": "sigR",
          "type": "bytes32"
        },
        {
          "internalType": "bytes32",
          "name": "sigS",
          "type": "bytes32"
        },
        {
          "internalType": "uint8",
          "name": "sigV",
          "type": "uint8"
        }
      ],
      "name": "executeMetaTransaction",
      "outputs": [
        {
          "internalType": "bytes",
          "name": "",
          "type": "bytes"
        }
      ],
      "stateMutability": "payable",
      "type": "function"
    },
    {
      "inputs": [],
      "name": "gameAdmin",
      "outputs": [
        {
          "internalType": "contract iGAME_Game",
          "name": "",
          "type": "address"
        }
      ],
      "stateMutability": "view",
      "type": "function"
    },
    {
      "inputs": [],
      "name": "gameToken",
      "outputs": [
        {
          "internalType": "contract iGAME_ERC20",
          "name": "",
          "type": "address"
        }
      ],
      "stateMutability": "view",
      "type": "function"
    },
    {
      "inputs": [
        {
          "internalType": "uint256",
          "name": "tokenId",
          "type": "uint256"
        }
      ],
      "name": "getBuyPrice",
      "outputs": [
        {
          "internalType": "uint256",
          "name": "",
          "type": "uint256"
        }
      ],
      "stateMutability": "view",
      "type": "function"
    },
    {
      "inputs": [],
      "name": "getChainId",
      "outputs": [
        {
          "internalType": "uint256",
          "name": "",
          "type": "uint256"
        }
      ],
      "stateMutability": "pure",
      "type": "function"
    },
    {
      "inputs": [],
      "name": "getDomainSeperator",
      "outputs": [
        {
          "internalType": "bytes32",
          "name": "",
          "type": "bytes32"
        }
      ],
      "stateMutability": "view",
      "type": "function"
    },
    {
      "inputs": [
        {
          "internalType": "uint256",
          "name": "creator",
          "type": "uint256"
        }
      ],
      "name": "getNextTokenID",
      "outputs": [
        {
          "internalType": "uint256",
          "name": "",
          "type": "uint256"
        }
      ],
      "stateMutability": "view",
      "type": "function"
    },
    {
      "inputs": [
        {
          "internalType": "address",
          "name": "user",
          "type": "address"
        }
      ],
      "name": "getNonce",
      "outputs": [
        {
          "internalType": "uint256",
          "name": "nonce",
          "type": "uint256"
        }
      ],
      "stateMutability": "view",
      "type": "function"
    },
    {
      "inputs": [
        {
          "internalType": "uint256",
          "name": "tokenId",
          "type": "uint256"
        },
        {
          "internalType": "uint256",
          "name": "printNumber",
          "type": "uint256"
        }
      ],
      "name": "getPrintPrice",
      "outputs": [
        {
          "internalType": "uint256",
          "name": "",
          "type": "uint256"
        }
      ],
      "stateMutability": "view",
      "type": "function"
    },
    {
      "inputs": [
        {
          "internalType": "bytes32",
          "name": "role",
          "type": "bytes32"
        }
      ],
      "name": "getRoleAdmin",
      "outputs": [
        {
          "internalType": "bytes32",
          "name": "",
          "type": "bytes32"
        }
      ],
      "stateMutability": "view",
      "type": "function"
    },
    {
      "inputs": [
        {
          "internalType": "bytes32",
          "name": "role",
          "type": "bytes32"
        },
        {
          "internalType": "uint256",
          "name": "index",
          "type": "uint256"
        }
      ],
      "name": "getRoleMember",
      "outputs": [
        {
          "internalType": "address",
          "name": "",
          "type": "address"
        }
      ],
      "stateMutability": "view",
      "type": "function"
    },
    {
      "inputs": [
        {
          "internalType": "bytes32",
          "name": "role",
          "type": "bytes32"
        }
      ],
      "name": "getRoleMemberCount",
      "outputs": [
        {
          "internalType": "uint256",
          "name": "",
          "type": "uint256"
        }
      ],
      "stateMutability": "view",
      "type": "function"
    },
    {
      "inputs": [
        {
          "internalType": "uint256",
          "name": "tokenId",
          "type": "uint256"
        }
      ],
      "name": "getSellPrice",
      "outputs": [
        {
          "internalType": "uint256",
          "name": "",
          "type": "uint256"
        }
      ],
      "stateMutability": "view",
      "type": "function"
    },
    {
      "inputs": [
        {
          "internalType": "uint256",
          "name": "_creatorID",
          "type": "uint256"
        },
        {
          "internalType": "uint256",
          "name": "token",
          "type": "uint256"
        }
      ],
      "name": "getTokenID",
      "outputs": [
        {
          "internalType": "uint256",
          "name": "",
          "type": "uint256"
        }
      ],
      "stateMutability": "view",
      "type": "function"
    },
    {
      "inputs": [],
      "name": "getWorkerDomainSeperator",
      "outputs": [
        {
          "internalType": "bytes32",
          "name": "",
          "type": "bytes32"
        }
      ],
      "stateMutability": "view",
      "type": "function"
    },
    {
      "inputs": [
        {
          "internalType": "bytes32",
          "name": "role",
          "type": "bytes32"
        },
        {
          "internalType": "address",
          "name": "account",
          "type": "address"
        }
      ],
      "name": "grantRole",
      "outputs": [],
      "stateMutability": "nonpayable",
      "type": "function"
    },
    {
      "inputs": [
        {
          "internalType": "uint256",
          "name": "id",
          "type": "uint256"
        }
      ],
      "name": "hasMinted",
      "outputs": [
        {
          "internalType": "bool",
          "name": "",
          "type": "bool"
        }
      ],
      "stateMutability": "view",
      "type": "function"
    },
    {
      "inputs": [
        {
          "internalType": "bytes32",
          "name": "role",
          "type": "bytes32"
        },
        {
          "internalType": "address",
          "name": "account",
          "type": "address"
        }
      ],
      "name": "hasRole",
      "outputs": [
        {
          "internalType": "bool",
          "name": "",
          "type": "bool"
        }
      ],
      "stateMutability": "view",
      "type": "function"
    },
    {
      "inputs": [
        {
          "internalType": "address",
          "name": "account",
          "type": "address"
        },
        {
          "internalType": "address",
          "name": "operator",
          "type": "address"
        }
      ],
      "name": "isApprovedForAll",
      "outputs": [
        {
          "internalType": "bool",
          "name": "",
          "type": "bool"
        }
      ],
      "stateMutability": "view",
      "type": "function"
    },
    {
      "inputs": [],
      "name": "isLocalContract",
      "outputs": [
        {
          "internalType": "bool",
          "name": "",
          "type": "bool"
        }
      ],
      "stateMutability": "pure",
      "type": "function"
    },
    {
      "inputs": [],
      "name": "masterContract",
      "outputs": [
        {
          "internalType": "contract iGAME_Master",
          "name": "",
          "type": "address"
        }
      ],
      "stateMutability": "view",
      "type": "function"
    },
    {
      "inputs": [],
      "name": "mintingActive",
      "outputs": [
        {
          "internalType": "bool",
          "name": "",
          "type": "bool"
        }
      ],
      "stateMutability": "view",
      "type": "function"
    },
    {
      "inputs": [],
      "name": "multiple",
      "outputs": [
        {
          "internalType": "uint256",
          "name": "",
          "type": "uint256"
        }
      ],
      "stateMutability": "view",
      "type": "function"
    },
    {
      "inputs": [
        {
          "internalType": "uint256",
          "name": "",
          "type": "uint256"
        }
      ],
      "name": "multipliers",
      "outputs": [
        {
          "internalType": "uint256",
          "name": "",
          "type": "uint256"
        }
      ],
      "stateMutability": "view",
      "type": "function"
    },
    {
      "inputs": [
        {
          "internalType": "uint256",
          "name": "",
          "type": "uint256"
        }
      ],
      "name": "nextTokenIDs",
      "outputs": [
        {
          "internalType": "uint256",
          "name": "",
          "type": "uint256"
        }
      ],
      "stateMutability": "view",
      "type": "function"
    },
    {
      "inputs": [],
      "name": "quick",
      "outputs": [
        {
          "internalType": "address",
          "name": "",
          "type": "address"
        }
      ],
      "stateMutability": "view",
      "type": "function"
    },
    {
      "inputs": [
        {
          "internalType": "bytes32",
          "name": "role",
          "type": "bytes32"
        },
        {
          "internalType": "address",
          "name": "account",
          "type": "address"
        }
      ],
      "name": "renounceRole",
      "outputs": [],
      "stateMutability": "nonpayable",
      "type": "function"
    },
    {
      "inputs": [
        {
          "internalType": "bytes32",
          "name": "role",
          "type": "bytes32"
        },
        {
          "internalType": "address",
          "name": "account",
          "type": "address"
        }
      ],
      "name": "revokeRole",
      "outputs": [],
      "stateMutability": "nonpayable",
      "type": "function"
    },
    {
      "inputs": [
        {
          "internalType": "address",
          "name": "from",
          "type": "address"
        },
        {
          "internalType": "address",
          "name": "to",
          "type": "address"
        },
        {
          "internalType": "uint256[]",
          "name": "ids",
          "type": "uint256[]"
        },
        {
          "internalType": "uint256[]",
          "name": "amounts",
          "type": "uint256[]"
        },
        {
          "internalType": "bytes",
          "name": "data",
          "type": "bytes"
        }
      ],
      "name": "safeBatchTransferFrom",
      "outputs": [],
      "stateMutability": "nonpayable",
      "type": "function"
    },
    {
      "inputs": [
        {
          "internalType": "address",
          "name": "from",
          "type": "address"
        },
        {
          "internalType": "address",
          "name": "to",
          "type": "address"
        },
        {
          "internalType": "uint256",
          "name": "id",
          "type": "uint256"
        },
        {
          "internalType": "uint256",
          "name": "amount",
          "type": "uint256"
        },
        {
          "internalType": "bytes",
          "name": "data",
          "type": "bytes"
        }
      ],
      "name": "safeTransferFrom",
      "outputs": [],
      "stateMutability": "nonpayable",
      "type": "function"
    },
    {
      "inputs": [
        {
          "internalType": "uint256",
          "name": "",
          "type": "uint256"
        }
      ],
      "name": "saleStarts",
      "outputs": [
        {
          "internalType": "uint256",
          "name": "",
          "type": "uint256"
        }
      ],
      "stateMutability": "view",
      "type": "function"
    },
    {
      "inputs": [
        {
          "internalType": "address",
          "name": "operator",
          "type": "address"
        },
        {
          "internalType": "bool",
          "name": "approved",
          "type": "bool"
        }
      ],
      "name": "setApprovalForAll",
      "outputs": [],
      "stateMutability": "nonpayable",
      "type": "function"
    },
    {
      "inputs": [
        {
          "internalType": "string",
          "name": "newuri",
          "type": "string"
        }
      ],
      "name": "setBaseURI",
      "outputs": [],
      "stateMutability": "nonpayable",
      "type": "function"
    },
    {
      "inputs": [
        {
          "internalType": "address",
          "name": "a",
          "type": "address"
        }
      ],
      "name": "setFEERECEIVER",
      "outputs": [],
      "stateMutability": "nonpayable",
      "type": "function"
    },
    {
      "inputs": [
        {
          "internalType": "string",
          "name": "newuri",
          "type": "string"
        },
        {
          "internalType": "uint256",
          "name": "id",
          "type": "uint256"
        }
      ],
      "name": "setURI",
      "outputs": [],
      "stateMutability": "nonpayable",
      "type": "function"
    },
    {
      "inputs": [
        {
          "internalType": "address",
          "name": "uniswapRouter_",
          "type": "address"
        }
      ],
      "name": "setUniswapRouter",
      "outputs": [],
      "stateMutability": "nonpayable",
      "type": "function"
    },
    {
      "inputs": [
        {
          "internalType": "bytes4",
          "name": "interfaceId",
          "type": "bytes4"
        }
      ],
      "name": "supportsInterface",
      "outputs": [
        {
          "internalType": "bool",
          "name": "",
          "type": "bool"
        }
      ],
      "stateMutability": "view",
      "type": "function"
    },
    {
      "inputs": [],
      "name": "toggleTokenBurning",
      "outputs": [],
      "stateMutability": "nonpayable",
      "type": "function"
    },
    {
      "inputs": [],
      "name": "toggleTokenMinting",
      "outputs": [],
      "stateMutability": "nonpayable",
      "type": "function"
    },
    {
      "inputs": [],
      "name": "uniswapRouter",
      "outputs": [
        {
          "internalType": "contract IUniswapV2Router02",
          "name": "",
          "type": "address"
        }
      ],
      "stateMutability": "view",
      "type": "function"
    },
    {
      "inputs": [
        {
          "internalType": "address",
          "name": "contract_",
          "type": "address"
        },
        {
          "internalType": "bool",
          "name": "isLocal_",
          "type": "bool"
        }
      ],
      "name": "updateLocalContract",
      "outputs": [],
      "stateMutability": "nonpayable",
      "type": "function"
    },
    {
      "inputs": [
        {
          "internalType": "uint256",
          "name": "tokenid",
          "type": "uint256"
        }
      ],
      "name": "uri",
      "outputs": [
        {
          "internalType": "string",
          "name": "",
          "type": "string"
        }
      ],
      "stateMutability": "view",
      "type": "function"
    },
    {
      "inputs": [],
      "name": "wMatic",
      "outputs": [
        {
          "internalType": "address",
          "name": "",
          "type": "address"
        }
      ],
      "stateMutability": "view",
      "type": "function"
    },
    {
      "inputs": [
        {
          "internalType": "address",
          "name": "userAddress_",
          "type": "address"
        },
        {
          "internalType": "bytes32",
          "name": "replayPrevention_",
          "type": "bytes32"
        },
        {
          "internalType": "bytes",
          "name": "functionSignature_",
          "type": "bytes"
        },
        {
          "internalType": "bytes32",
          "name": "sigR_",
          "type": "bytes32"
        },
        {
          "internalType": "bytes32",
          "name": "sigS_",
          "type": "bytes32"
        },
        {
          "internalType": "uint8",
          "name": "sigV_",
          "type": "uint8"
        }
      ],
      "name": "workerExecuteMetaTransaction",
      "outputs": [
        {
          "internalType": "bytes",
          "name": "",
          "type": "bytes"
        }
      ],
      "stateMutability": "payable",
      "type": "function"
    }
  ],
  "bytecode": "0x60806040526003600f55670de0b6b3a76400006010556ec097ce7bc90715b34b9f100000000060115562989680601c55601e80546001600160a01b0319908116730d500b1d8e8ef31e21c99d1db9a6444d3adf127017909155601f805490911673831753dd7087cac61ab5644b308642cc1c33dc131790553480156200008457600080fd5b50604051620063ba380380620063ba83398181016040526060811015620000aa57600080fd5b50805160208083015160409384015184518086018652601381527f47414d4520426f6e64696e672043757276657300000000000000000000000000818501528551808701875260018152603160f81b81860152865180880190975260048752631d195cdd60e21b94870194909452939491939092909182908290620001366301ffc9a760e01b6200028d565b62000148636cdb3d1360e11b6200028d565b6200015a6303a24d0760e21b6200028d565b6200017060006200016a62000312565b62000316565b6200018e600080516020620063488339815191526200016a62000312565b620001ac600080516020620063288339815191526200016a62000312565b620001c860008051602062006328833981519152600062000326565b620001e460008051602062006348833981519152600062000326565b8051620001f9906006906020840190620005f2565b50620002089050828262000378565b60085562000217828262000451565b600955505080516200023190600b906020840190620005f2565b5081516200024790600c906020850190620005f2565b5050601380546001600160a01b039586166001600160a01b031991821617909155601480549486169482169490941790935550601580549190931691161790556200068e565b6001600160e01b03198082161415620002ed576040805162461bcd60e51b815260206004820152601c60248201527f4552433136353a20696e76616c696420696e7465726661636520696400000000604482015290519081900360640190fd5b6001600160e01b0319166000908152602081905260409020805460ff19166001179055565b3390565b620003228282620004ee565b5050565b600082815260056020526040808220600201549051839285917fbd79b86ffe0ab8e8776151514217cd7cacd52c909f66475c3af44e129f0b00ff9190a460009182526005602052604090912060020155565b6000806200038562000569565b905080620003da576040805162461bcd60e51b815260206004820152601960248201527f636861696e204944206d757374206e6f74206265207a65726f00000000000000604482015290519081900360640190fd5b60405180608001604052806052815260200162006368605291398051602091820120855186830120855186840120604080518086019490945283810192909252606083015260808201939093523060a0808301919091528351808303909101815260c0909101909252815191012090505b92915050565b6000806200045e62000569565b90508060891480620004705750806001145b62000492578062013881146200048957617a696200048c565b60055b62000495565b60015b61ffff16905080620003da576040805162461bcd60e51b815260206004820152601960248201527f636861696e204944206d757374206e6f74206265207a65726f00000000000000604482015290519081900360640190fd5b600082815260056020908152604090912062000515918390620045c96200056d821b17901c565b1562000322576200052562000312565b6001600160a01b0316816001600160a01b0316837f2f8788117e7eff1d82e926ec794901d17c78024a50270940304540a733656f0d60405160405180910390a45050565b4690565b600062000584836001600160a01b0384166200058b565b9392505050565b6000620005998383620005da565b620005d1575081546001818101845560008481526020808220909301849055845484825282860190935260409020919091556200044b565b5060006200044b565b60009081526001919091016020526040902054151590565b828054600181600116156101000203166002900490600052602060002090601f016020900481019282601f106200063557805160ff191683800117855562000665565b8280016001018555821562000665579182015b828111156200066557825182559160200191906001019062000648565b506200067392915062000677565b5090565b5b8082111562000673576000815560010162000678565b615c8a806200069e6000396000f3fe6080604052600436106103d85760003560e01c80635958b301116101fd578063ba730e5311610118578063d547741f116100ab578063ec7982571161007a578063ec7982571461162b578063f242432a14611655578063f40c96ab1461172b578063fdd3a87914611740578063fe6d812414611755576103d8565b8063d547741f14611578578063e1a1a66c146115b1578063e5b95595146115c6578063e985e9c5146115f0576103d8565b8063c707562d116100e7578063c707562d146114f4578063c7977be714611524578063ca15c87314611539578063cd446e2214611563576103d8565b8063ba730e53146113c5578063ba84be07146113ef578063bea9849e146114ac578063c3dfdae6146114df576103d8565b80639010d07c11610190578063a8b8c18b1161015f578063a8b8c18b1461129c578063ac7fc263146112bf578063ad2ded2b146112e9578063b1de303e146113b0576103d8565b80639010d07c146111e357806391d1485414611213578063a217fddf1461124c578063a22cb46514611261576103d8565b8063735de9f7116101cc578063735de9f71461117a578063765d6cce1461118f57806376adcba5146111a45780638749474f146111b9576103d8565b80635958b30114610e99578063654d133314610ed457806367db3b8f14610f915780636d4b99e014611044576103d8565b8063248a9ca3116102f85780633408e4701161028b5780633f8973001161025a5780633f89730014610bff57806342966c6814610c29578063437a8ae614610c535780634e1273f414610c6857806355f804b314610de8576103d8565b80633408e47014610b5657806336568abe14610b6b5780633c81fdb414610ba45780633d24265514610bd5576103d8565b80632d0335ab116102c75780632d0335ab146109075780632eb2c2d61461093a5780632f2ff15d14610b0857806331f9c91914610b41576103d8565b8063248a9ca31461076257806326150e951461078c57806327430a42146107a15780632b606d2c146108d7576103d8565b80631490185c116103705780631c7c25981161033f5780631c7c2598146106f05780631d84003f1461070557806320379ee51461073857806321c7cf4d1461074d576103d8565b80631490185c1461064f578063161e650d1461067f578063186d4432146106945780631bf7d749146106c6576103d8565b80630bb78ec1116103ac5780630bb78ec1146104af5780630c53c51c1461054e5780630e89341c14610610578063118c4f131461063a576103d8565b8062fdd58e146103dd57806301c11d961461042857806301ffc9a71461043d57806308d4db1414610485575b600080fd5b3480156103e957600080fd5b506104166004803603604081101561040057600080fd5b506001600160a01b03813516906020013561176a565b60408051918252519081900360200190f35b34801561043457600080fd5b506104166117dc565b34801561044957600080fd5b506104716004803603602081101561046057600080fd5b50356001600160e01b0319166117e2565b604080519115158252519081900360200190f35b34801561049157600080fd5b50610416600480360360208110156104a857600080fd5b5035611805565b3480156104bb57600080fd5b506104d9600480360360208110156104d257600080fd5b5035611828565b6040805160208082528351818301528351919283929083019185019080838360005b838110156105135781810151838201526020016104fb565b50505050905090810190601f1680156105405780820380516001836020036101000a031916815260200191505b509250505060405180910390f35b6104d9600480360360a081101561056457600080fd5b6001600160a01b038235169190810190604081016020820135600160201b81111561058e57600080fd5b8201836020820111156105a057600080fd5b803590602001918460018302840111600160201b831117156105c157600080fd5b91908080601f016020809104026020016040519081016040528093929190818152602001838380828437600092019190915250929550508235935050506020810135906040013560ff166118c3565b34801561061c57600080fd5b506104d96004803603602081101561063357600080fd5b5035611bd0565b34801561064657600080fd5b50610416611e34565b34801561065b57600080fd5b506104166004803603604081101561067257600080fd5b5080359060200135611e58565b34801561068b57600080fd5b50610416611e63565b3480156106a057600080fd5b506106c4600480360360408110156106b757600080fd5b5080359060200135611e6a565b005b3480156106d257600080fd5b50610416600480360360208110156106e957600080fd5b50356122fa565b3480156106fc57600080fd5b5061047161230c565b34801561071157600080fd5b506106c46004803603602081101561072857600080fd5b50356001600160a01b031661231a565b34801561074457600080fd5b50610416612350565b34801561075957600080fd5b506106c4612356565b34801561076e57600080fd5b506104166004803603602081101561078557600080fd5b5035612387565b34801561079857600080fd5b506106c461239c565b3480156107ad57600080fd5b50610416600480360360408110156107c457600080fd5b810190602081018135600160201b8111156107de57600080fd5b8201836020820111156107f057600080fd5b803590602001918460018302840111600160201b8311171561081157600080fd5b91908080601f0160208091040260200160405190810160405280939291908181526020018383808284376000920191909152509295949360208101935035915050600160201b81111561086357600080fd5b82018360208201111561087557600080fd5b803590602001918460018302840111600160201b8311171561089657600080fd5b91908080601f0160208091040260200160405190810160405280939291908181526020018383808284376000920191909152509295506123c4945050505050565b3480156108e357600080fd5b50610416600480360360408110156108fa57600080fd5b50803590602001356124ca565b34801561091357600080fd5b506104166004803603602081101561092a57600080fd5b50356001600160a01b031661255f565b34801561094657600080fd5b506106c4600480360360a081101561095d57600080fd5b6001600160a01b038235811692602081013590911691810190606081016040820135600160201b81111561099057600080fd5b8201836020820111156109a257600080fd5b803590602001918460208302840111600160201b831117156109c357600080fd5b9190808060200260200160405190810160405280939291908181526020018383602002808284376000920191909152509295949360208101935035915050600160201b811115610a1257600080fd5b820183602082011115610a2457600080fd5b803590602001918460208302840111600160201b83111715610a4557600080fd5b9190808060200260200160405190810160405280939291908181526020018383602002808284376000920191909152509295949360208101935035915050600160201b811115610a9457600080fd5b820183602082011115610aa657600080fd5b803590602001918460018302840111600160201b83111715610ac757600080fd5b91908080601f01602080910402602001604051908101604052809392919081815260200183838082843760009201919091525092955061257a945050505050565b348015610b1457600080fd5b506106c460048036036040811015610b2b57600080fd5b50803590602001356001600160a01b0316612878565b348015610b4d57600080fd5b506104716128e4565b348015610b6257600080fd5b506104166128ed565b348015610b7757600080fd5b506106c460048036036040811015610b8e57600080fd5b50803590602001356001600160a01b03166128f1565b348015610bb057600080fd5b50610bb9612952565b604080516001600160a01b039092168252519081900360200190f35b348015610be157600080fd5b5061041660048036036020811015610bf857600080fd5b5035612961565b348015610c0b57600080fd5b5061041660048036036020811015610c2257600080fd5b5035612973565b348015610c3557600080fd5b506106c460048036036020811015610c4c57600080fd5b5035612985565b348015610c5f57600080fd5b50610416612bd9565b348015610c7457600080fd5b50610d9860048036036040811015610c8b57600080fd5b810190602081018135600160201b811115610ca557600080fd5b820183602082011115610cb757600080fd5b803590602001918460208302840111600160201b83111715610cd857600080fd5b9190808060200260200160405190810160405280939291908181526020018383602002808284376000920191909152509295949360208101935035915050600160201b811115610d2757600080fd5b820183602082011115610d3957600080fd5b803590602001918460208302840111600160201b83111715610d5a57600080fd5b919080806020026020016040519081016040528093929190818152602001838360200280828437600092019190915250929550612bdf945050505050565b60408051602080825283518183015283519192839290830191858101910280838360005b83811015610dd4578181015183820152602001610dbc565b505050509050019250505060405180910390f35b348015610df457600080fd5b506106c460048036036020811015610e0b57600080fd5b810190602081018135600160201b811115610e2557600080fd5b820183602082011115610e3757600080fd5b803590602001918460018302840111600160201b83111715610e5857600080fd5b91908080601f016020809104026020016040519081016040528093929190818152602001838380828437600092019190915250929550612d5d945050505050565b348015610ea557600080fd5b506106c460048036036040811015610ebc57600080fd5b506001600160a01b03813516906020013515156128e0565b348015610ee057600080fd5b506106c460048036036080811015610ef757600080fd5b81359190810190604081016020820135600160201b811115610f1857600080fd5b820183602082011115610f2a57600080fd5b803590602001918460018302840111600160201b83111715610f4b57600080fd5b91908080601f0160208091040260200160405190810160405280939291908181526020018383808284376000920191909152509295505082359350505060200135612da3565b348015610f9d57600080fd5b506106c460048036036040811015610fb457600080fd5b810190602081018135600160201b811115610fce57600080fd5b820183602082011115610fe057600080fd5b803590602001918460018302840111600160201b8311171561100157600080fd5b91908080601f01602080910402602001604051908101604052809392919081815260200183838082843760009201919091525092955050913592506130a9915050565b34801561105057600080fd5b506104166004803603604081101561106757600080fd5b810190602081018135600160201b81111561108157600080fd5b82018360208201111561109357600080fd5b803590602001918460018302840111600160201b831117156110b457600080fd5b91908080601f0160208091040260200160405190810160405280939291908181526020018383808284376000920191909152509295949360208101935035915050600160201b81111561110657600080fd5b82018360208201111561111857600080fd5b803590602001918460018302840111600160201b8311171561113957600080fd5b91908080601f016020809104026020016040519081016040528093929190818152602001838380828437600092019190915250929550613100945050505050565b34801561118657600080fd5b50610bb961315b565b34801561119b57600080fd5b5061047161316a565b3480156111b057600080fd5b50610bb961316f565b3480156111c557600080fd5b50610416600480360360208110156111dc57600080fd5b503561317e565b3480156111ef57600080fd5b50610bb96004803603604081101561120657600080fd5b5080359060200135613190565b34801561121f57600080fd5b506104716004803603604081101561123657600080fd5b50803590602001356001600160a01b03166131a8565b34801561125857600080fd5b506104166131c0565b34801561126d57600080fd5b506106c46004803603604081101561128457600080fd5b506001600160a01b03813516906020013515156131c5565b6106c4600480360360408110156112b257600080fd5b50803590602001356132b4565b3480156112cb57600080fd5b50610416600480360360208110156112e257600080fd5b50356138d0565b6104d9600480360360c08110156112ff57600080fd5b6001600160a01b0382351691602081013591810190606081016040820135600160201b81111561132e57600080fd5b82018360208201111561134057600080fd5b803590602001918460018302840111600160201b8311171561136157600080fd5b91908080601f016020809104026020016040519081016040528093929190818152602001838380828437600092019190915250929550508235935050506020810135906040013560ff166138e2565b3480156113bc57600080fd5b50610416613c73565b3480156113d157600080fd5b50610416600480360360208110156113e857600080fd5b5035613c97565b3480156113fb57600080fd5b506106c46004803603608081101561141257600080fd5b81359190810190604081016020820135600160201b81111561143357600080fd5b82018360208201111561144557600080fd5b803590602001918460018302840111600160201b8311171561146657600080fd5b91908080601f0160208091040260200160405190810160405280939291908181526020018383808284376000920191909152509295505082359350505060200135613cba565b3480156114b857600080fd5b506106c4600480360360208110156114cf57600080fd5b50356001600160a01b0316613fe6565b3480156114eb57600080fd5b50610bb961401c565b34801561150057600080fd5b506106c46004803603604081101561151757600080fd5b508035906020013561402b565b34801561153057600080fd5b5061041661421e565b34801561154557600080fd5b506104166004803603602081101561155c57600080fd5b5035614241565b34801561156f57600080fd5b50610bb9614258565b34801561158457600080fd5b506106c46004803603604081101561159b57600080fd5b50803590602001356001600160a01b0316614267565b3480156115bd57600080fd5b506104d96142c0565b3480156115d257600080fd5b50610471600480360360208110156115e957600080fd5b503561431b565b3480156115fc57600080fd5b506104716004803603604081101561161357600080fd5b506001600160a01b0381358116916020013516614330565b34801561163757600080fd5b506104166004803603602081101561164e57600080fd5b503561435e565b34801561166157600080fd5b506106c4600480360360a081101561167857600080fd5b6001600160a01b03823581169260208101359091169160408201359160608101359181019060a081016080820135600160201b8111156116b757600080fd5b8201836020820111156116c957600080fd5b803590602001918460018302840111600160201b831117156116ea57600080fd5b91908080601f016020809104026020016040519081016040528093929190818152602001838380828437600092019190915250929550614370945050505050565b34801561173757600080fd5b506104d961453b565b34801561174c57600080fd5b50610bb9614596565b34801561176157600080fd5b506104166145a5565b60006001600160a01b0383166117b15760405162461bcd60e51b815260040180806020018281038252602b81526020018061587e602b913960400191505060405180910390fd5b5060008181526001602090815260408083206001600160a01b03861684529091529020545b92915050565b60115481565b6001600160e01b0319811660009081526020819052604090205460ff165b919050565b60008181526018602052604081205461182183600183016124ca565b9392505050565b60076020908152600091825260409182902080548351601f6002600019610100600186161502019093169290920491820184900484028101840190945280845290918301828280156118bb5780601f10611890576101008083540402835291602001916118bb565b820191906000526020600020905b81548152906001019060200180831161189e57829003601f168201915b505050505081565b60606118cd615604565b50604080516060810182526001600160a01b0388166000818152600a60209081529084902054835282015290810186905261190b87828787876145de565b6119465760405162461bcd60e51b8152600401808060200182810382526021815260200180615b286021913960400191505060405180910390fd5b6001600160a01b0387166000908152600a602052604090205461196a906001614686565b600a6000896001600160a01b03166001600160a01b03168152602001908152602001600020819055507f5845892132946850460bff5a0083f71031bc5bf9aadcd40f1de79423eac9b10b87338860405180846001600160a01b03168152602001836001600160a01b0316815260200180602001828103825283818151815260200191508051906020019080838360005b83811015611a125781810151838201526020016119fa565b50505050905090810190601f168015611a3f5780820380516001836020036101000a031916815260200191505b5094505050505060405180910390a160006060306001600160a01b0316888a6040516020018083805190602001908083835b60208310611a905780518252601f199092019160209182019101611a71565b6001836020036101000a038019825116818451168082178552505050505050905001826001600160a01b031660601b8152601401925050506040516020818303038152906040526040518082805190602001908083835b60208310611b065780518252601f199092019160209182019101611ae7565b6001836020036101000a0380198251168184511680821785525050505050509050019150506000604051808303816000865af19150503d8060008114611b68576040519150601f19603f3d011682016040523d82523d6000602084013e611b6d565b606091505b509150915081611bc4576040805162461bcd60e51b815260206004820152601c60248201527f46756e6374696f6e2063616c6c206e6f74207375636365737366756c00000000604482015290519081900360640190fd5b98975050505050505050565b6000818152600760209081526040918290208054835160026001831615610100026000190190921691909104601f81018490048402820184019094528381526060938493919291830182828015611c685780601f10611c3d57610100808354040283529160200191611c68565b820191906000526020600020905b815481529060010190602001808311611c4b57829003601f168201915b505060065493945050505060026000196101006001841615020190911604611c91579050611800565b805115611d62576006816040516020018083805460018160011615610100020316600290048015611cf95780601f10611cd7576101008083540402835291820191611cf9565b820191906000526020600020905b815481529060010190602001808311611ce5575b5050825160208401908083835b60208310611d255780518252601f199092019160209182019101611d06565b6001836020036101000a03801982511681845116808217855250505050505090500192505050604051602081830303815290604052915050611800565b6006611d6d846146e0565b6040516020018083805460018160011615610100020316600290048015611dcb5780601f10611da9576101008083540402835291820191611dcb565b820191906000526020600020905b815481529060010190602001808311611db7575b5050825160208401908083835b60208310611df75780518252601f199092019160209182019101611dd8565b6001836020036101000a03801982511681845116808217855250505050505090500192505050604051602081830303815290604052915050919050565b7f9667e80708b6eeeb0053fa0cca44e028ff548e2a9f029edfeac87c118b08b7c881565b601054919091020190565b6009545b90565b600e5460ff16611eb9576040805162461bcd60e51b81526020600482015260156024820152746d696e74696e67206973206e6f742061637469766560581b604482015290519081900360640190fd5b60008281526017602052604090205442118015611ee3575060008281526017602052604090205415155b611f2f576040805162461bcd60e51b81526020600482015260186024820152771cd85b19481a185cc81b9bdd081cdd185c9d1959081e595d60421b604482015290519081900360640190fd5b43601b6000611f3c6147bb565b6001600160a01b03166001600160a01b031681526020019081526020016000205410611f6757600080fd5b43601b6000611f746147bb565b6001600160a01b03166001600160a01b031681526020019081526020016000208190555060006010548381611fa557fe5b0490506000611fb384611805565b9050600081118015611fc55750828111155b612006576040805162461bcd60e51b815260206004820152600d60248201526c696e76616c696420707269636560981b604482015290519081900360640190fd5b6000848152601860205260409020805460010190556013546001600160a01b031663e2b8e7d36120346147bb565b30846040518463ffffffff1660e01b815260040180846001600160a01b03168152602001836001600160a01b031681526020018281526020019350505050600060405180830381600087803b15801561208c57600080fd5b505af11580156120a0573d6000803e3d6000fd5b5050505060006120ba6032836147bf90919063ffffffff16565b905060006120d460646120ce856008614801565b906147bf565b90506120f96120e16147bb565b8760016040518060200160405280600081525061485a565b836001600160a01b031661210b6147bb565b6001600160a01b03167fa8f60c2735df0121f6c1fb70fdc37e927e3b21f7266de2beeace3ed35b8634d088866121408b611805565b6121498c613c97565b60008d8152601860209081526040918290205460135483516370a0823160e01b8152306004820152935191938c936001600160a01b03909216926370a0823192602480840193919291829003018186803b1580156121a657600080fd5b505afa1580156121ba573d6000803e3d6000fd5b505050506040513d60208110156121d057600080fd5b5051604080519788526020880196909652868601949094526060860192909252608085015260a084015260c0830152519081900360e00190a36013546012546040805163e2b8e7d360e01b81523060048201526001600160a01b039283166024820152604481018690529051919092169163e2b8e7d391606480830192600092919082900301818387803b15801561226757600080fd5b505af115801561227b573d6000803e3d6000fd5b50506013546040805163e2b8e7d360e01b81523060048201526001600160a01b03898116602483015260448201879052915191909216935063e2b8e7d39250606480830192600092919082900301818387803b1580156122da57600080fd5b505af11580156122ee573d6000803e3d6000fd5b50505050505050505050565b60166020526000908152604090205481565b600e54610100900460ff1681565b6123256000336131a8565b61232e57600080fd5b601280546001600160a01b0319166001600160a01b0392909216919091179055565b60085490565b6123616000336131a8565b61236a57600080fd5b600e805461ff001981166101009182900460ff1615909102179055565b60009081526005602052604090206002015490565b6123a76000336131a8565b6123b057600080fd5b600e805460ff19811660ff90911615179055565b6000806123cf6128ed565b905080608914806123e05750806001145b6123fe578062013881146123f657617a696123f9565b60055b612401565b60015b61ffff16905080612455576040805162461bcd60e51b8152602060048201526019602482015278636861696e204944206d757374206e6f74206265207a65726f60381b604482015290519081900360640190fd5b604051806080016040528060528152602001615a3e605291398051602091820120855186830120855186840120604080518086019490945283810192909252606083015260808201939093523060a0808301919091528351808303909101815260c09091019092528151910120905092915050565b6000828152601660209081526040808320546019909252822054600f54600a0a603284612502600986900a6120ce60038a0a86614801565b905061251c612515866120ce8a87614801565b8290614686565b905061252b6125158385614801565b90506125476103e86120ce86612541858a6147bf565b90614801565b9050611bc4836120ce83670de0b6b3a7640000614801565b6001600160a01b03166000908152600a602052604090205490565b81518351146125ba5760405162461bcd60e51b8152600401808060200182810382526028815260200180615bdd6028913960400191505060405180910390fd5b6001600160a01b0384166125ff5760405162461bcd60e51b815260040180806020018281038252602581526020018061599a6025913960400191505060405180910390fd5b6126076147bb565b6001600160a01b0316856001600160a01b0316148061263257506126328561262d6147bb565b614330565b61266d5760405162461bcd60e51b81526004018080602001828103825260328152602001806159bf6032913960400191505060405180910390fd5b60006126776147bb565b9050612687818787878787614992565b60005b84518110156127885760008582815181106126a157fe5b6020026020010151905060008583815181106126b957fe5b60200260200101519050612726816040518060600160405280602a8152602001615a14602a91396001600086815260200190815260200160002060008d6001600160a01b03166001600160a01b0316815260200190815260200160002054614ab59092919063ffffffff16565b60008381526001602090815260408083206001600160a01b038e811685529252808320939093558a168152205461275d9082614686565b60009283526001602081815260408086206001600160a01b038d16875290915290932055500161268a565b50846001600160a01b0316866001600160a01b0316826001600160a01b03167f4a39dc06d4c0dbc64b70af90fd698a233a518aa5d07e595d983b8c0526c8f7fb8787604051808060200180602001838103835285818151815260200191508051906020019060200280838360005b8381101561280e5781810151838201526020016127f6565b50505050905001838103825284818151815260200191508051906020019060200280838360005b8381101561284d578181015183820152602001612835565b5050505090500194505050505060405180910390a4612870818787878787614b4c565b505050505050565b60008281526005602052604090206002015461289b906128966147bb565b6131a8565b6128d65760405162461bcd60e51b815260040180806020018281038252602f81526020018061580a602f913960400191505060405180910390fd5b6128e08282614dcb565b5050565b600e5460ff1681565b4690565b6128f96147bb565b6001600160a01b0316816001600160a01b0316146129485760405162461bcd60e51b815260040180806020018281038252602f815260200180615c26602f913960400191505060405180910390fd5b6128e08282614e34565b601e546001600160a01b031681565b60186020526000908152604090205481565b601a6020526000908152604090205481565b600e54610100900460ff166129d9576040805162461bcd60e51b81526020600482015260156024820152746275726e696e67206973206e6f742061637469766560581b604482015290519081900360640190fd5b60016129e5338361176a565b1015612a225760405162461bcd60e51b8152600401808060200182810382526023815260200180615a906023913960400191505060405180910390fd5b6000612a2d82613c97565b600083815260186020526040902080546000190190559050612a58612a506147bb565b836001614e9d565b612a606147bb565b6001600160a01b03167f7f189ad2df0843ce2bba34028497b567ecb15a53dbfb381e8b7a3f1d5ca87d718383612a9586611805565b612a9e87613c97565b6000888152601860209081526040918290205460135483516370a0823160e01b8152306004820152935191936001600160a01b03909116926370a0823192602480840193829003018186803b158015612af657600080fd5b505afa158015612b0a573d6000803e3d6000fd5b505050506040513d6020811015612b2057600080fd5b5051604080519687526020870195909552858501939093526060850191909152608084015260a0830152519081900360c00190a26013546001600160a01b031663e2b8e7d330612b6e6147bb565b846040518463ffffffff1660e01b815260040180846001600160a01b03168152602001836001600160a01b031681526020018281526020019350505050600060405180830381600087803b158015612bc557600080fd5b505af1158015612870573d6000803e3d6000fd5b601c5481565b60608151835114612c215760405162461bcd60e51b8152600401808060200182810382526029815260200180615bb46029913960400191505060405180910390fd5b6060835167ffffffffffffffff81118015612c3b57600080fd5b50604051908082528060200260200182016040528015612c65578160200160208202803683370190505b50905060005b8451811015612d555760006001600160a01b0316858281518110612c8b57fe5b60200260200101516001600160a01b03161415612cd95760405162461bcd60e51b81526004018080602001828103825260318152602001806158a96031913960400191505060405180910390fd5b60016000858381518110612ce957fe5b602002602001015181526020019081526020016000206000868381518110612d0d57fe5b60200260200101516001600160a01b03166001600160a01b0316815260200190815260200160002054828281518110612d4257fe5b6020908102919091010152600101612c6b565b509392505050565b612d877ff6e33f9720e4529cb1c710e3344dc00830589a3239198ffa39b07117085d250e336131a8565b612d9057600080fd5b80516128e090600690602084019061562e565b6000848152601a60205260409020805460010190819055620f42408110612e08576040805162461bcd60e51b815260206004820152601460248201527306d617820746f6b656e206f6620313030303030360641b604482015290519081900360640190fd5b600083118015612e19575060148311155b8015612e255750600082115b8015612e345750620f42408211155b612e85576040805162461bcd60e51b815260206004820152601d60248201527f696e76616c696420637572766520616e64206d756c7469706c69657273000000604482015290519081900360640190fd5b6001845111612ed0576040805162461bcd60e51b81526020600482015260126024820152711a9cdbdb881b5d5cdd081b9bdb881b9d5b1b60721b604482015290519081900360640190fd5b6014546001600160a01b0316634ba3d74886612eea6147bb565b6040518363ffffffff1660e01b815260040180838152602001826001600160a01b0316815260200192505050602060405180830381600087803b158015612f3057600080fd5b505af1158015612f44573d6000803e3d6000fd5b505050506040513d6020811015612f5a57600080fd5b50511515600114612fb2576040805162461bcd60e51b815260206004820152601f60248201527f73656e646572206d757374206265206d696e696f6e206f7220776f726b657200604482015290519081900360640190fd5b6000612fbe8683611e58565b90508360166000838152602001908152602001600020819055508260196000838152602001908152602001600020819055507f855f2403a3717b569ca6483cb3250554954ef4734871df9005e45eb9bffce8cf818686866040518085815260200180602001848152602001838152602001828103825285818151815260200191508051906020019080838360005b8381101561306457818101518382015260200161304c565b50505050905090810190601f1680156130915780820380516001836020036101000a031916815260200191505b509550505050505060405180910390a1505050505050565b6130d37ff6e33f9720e4529cb1c710e3344dc00830589a3239198ffa39b07117085d250e336131a8565b6130dc57600080fd5b600081815260076020908152604090912083516130fb9285019061562e565b505050565b60008061310b6128ed565b905080612455576040805162461bcd60e51b8152602060048201526019602482015278636861696e204944206d757374206e6f74206265207a65726f60381b604482015290519081900360640190fd5b601d546001600160a01b031681565b600190565b6014546001600160a01b031681565b6000908152601a602052604090205490565b60008281526005602052604081206118219083614fd0565b60008281526005602052604081206118219083614fdc565b600081565b816001600160a01b03166131d76147bb565b6001600160a01b0316141561321d5760405162461bcd60e51b8152600401808060200182810382526029815260200180615b8b6029913960400191505060405180910390fd5b806003600061322a6147bb565b6001600160a01b03908116825260208083019390935260409182016000908120918716808252919093529120805460ff19169215159290921790915561326e6147bb565b6001600160a01b03167f17307eab39ab6107e8899845ad3d59bd9653f200f220920489ca2b5937696c318360405180821515815260200191505060405180910390a35050565b600e5460ff16613303576040805162461bcd60e51b81526020600482015260156024820152746d696e74696e67206973206e6f742061637469766560581b604482015290519081900360640190fd5b6000828152601760205260409020544211801561332d575060008281526017602052604090205415155b613379576040805162461bcd60e51b81526020600482015260186024820152771cd85b19481a185cc81b9bdd081cdd185c9d1959081e595d60421b604482015290519081900360640190fd5b43601b60006133866147bb565b6001600160a01b03166001600160a01b0316815260200190815260200160002054106133b157600080fd5b43601b60006133be6147bb565b6001600160a01b03166001600160a01b0316815260200190815260200160002081905550600060105483816133ef57fe5b04905060006133fd84611805565b905060008111801561340f5750828111155b613450576040805162461bcd60e51b815260206004820152600d60248201526c696e76616c696420707269636560981b604482015290519081900360640190fd5b600084815260186020526040908190208054600101905580516003808252608082019092526060918160200160208202803683375050601e5482519293506001600160a01b0316918391506000906134a457fe5b6001600160a01b039283166020918202929092010152601f548251911690829060019081106134cf57fe5b6001600160a01b0392831660209182029290920101526013548251911690829060029081106134fa57fe5b6001600160a01b03928316602091820292909201810191909152601d54604080516307c0329d60e21b815260048101878152602482019283528651604483015286516060969490941694631f00ca7494899489949092606490910191858201910280838360005b83811015613579578181015183820152602001613561565b50505050905001935050505060006040518083038186803b15801561359d57600080fd5b505afa1580156135b1573d6000803e3d6000fd5b505050506040513d6000823e601f3d908101601f1916820160405260208110156135da57600080fd5b8101908080516040519392919084600160201b8211156135f957600080fd5b90830190602082018581111561360e57600080fd5b82518660208202830111600160201b8211171561362a57600080fd5b82525081516020918201928201910280838360005b8381101561365757818101518382015260200161363f565b5050505090500160405250505090508060008151811061367357fe5b60200260200101513410156136b95760405162461bcd60e51b81526004018080602001828103825260248152602001806158396024913960400191505060405180910390fd5b601d5481516060916001600160a01b03169063fb3bdb419084906000906136dc57fe5b6020026020010151868633426064016040518663ffffffff1660e01b81526004018085815260200180602001846001600160a01b03168152602001838152602001828103825285818151815260200191508051906020019060200280838360005b8381101561375557818101518382015260200161373d565b50505050905001955050505050506000604051808303818588803b15801561377c57600080fd5b505af1158015613790573d6000803e3d6000fd5b50505050506040513d6000823e601f3d908101601f1916820160405260208110156137ba57600080fd5b8101908080516040519392919084600160201b8211156137d957600080fd5b9083019060208201858111156137ee57600080fd5b82518660208202830111600160201b8211171561380a57600080fd5b82525081516020918201928201910280838360005b8381101561383757818101518382015260200161381f565b505050509050016040525050509050348160008151811061385457fe5b602002602001015110156138be57336001600160a01b03166108fc6138968360008151811061387f57fe5b602002602001015134614ff190919063ffffffff16565b6040518115909202916000818181858888f193505050501580156120a0573d6000803e3d6000fd5b50600091506120ba90508260326147bf565b60196020526000908152604090205481565b60606138ec615033565b6139275760405162461bcd60e51b8152600401808060200182810382526042815260200180615b496042913960600191505060405180910390fd5b61392f6156ac565b50604080516060810182528781526001600160a01b038916602082015290810186905261395f88828787876150b0565b61399a5760405162461bcd60e51b8152600401808060200182810382526021815260200180615b286021913960400191505060405180910390fd5b6001600160a01b0388166000908152600d602090815260408083208a845290915290205460ff1615613a13576040805162461bcd60e51b815260206004820181905260248201527f5245504c4159206f6620612070726576696f7573207472616e73616374696f6e604482015290519081900360640190fd5b6001600160a01b0388166000818152600d602090815260408083208b84528252808320805460ff1916600117905580519384523384830181905260609185018281528b51928601929092528a517f5845892132946850460bff5a0083f71031bc5bf9aadcd40f1de79423eac9b10b958e9592948d94919391926080850192918601918190849084905b83811015613ab4578181015183820152602001613a9c565b50505050905090810190601f168015613ae15780820380516001836020036101000a031916815260200191505b5094505050505060405180910390a160006060306001600160a01b0316888b6040516020018083805190602001908083835b60208310613b325780518252601f199092019160209182019101613b13565b6001836020036101000a038019825116818451168082178552505050505050905001826001600160a01b031660601b8152601401925050506040516020818303038152906040526040518082805190602001908083835b60208310613ba85780518252601f199092019160209182019101613b89565b6001836020036101000a0380198251168184511680821785525050505050509050019150506000604051808303816000865af19150503d8060008114613c0a576040519150601f19603f3d011682016040523d82523d6000602084013e613c0f565b606091505b509150915081613c66576040805162461bcd60e51b815260206004820152601c60248201527f46756e6374696f6e2063616c6c206e6f74207375636365737366756c00000000604482015290519081900360640190fd5b9998505050505050505050565b7ff6e33f9720e4529cb1c710e3344dc00830589a3239198ffa39b07117085d250e81565b60008181526018602052604081205461182160646120ce605a61254187866124ca565b60006010548581613cc757fe5b049050613cd38561431b565b15613d21576040805162461bcd60e51b81526020600482015260196024820152781d1bdad95b881a185cc81b9bdd081899595b881b5a5b9d1959603a1b604482015290519081900360640190fd5b6014546001600160a01b0316634ba3d74882613d3b6147bb565b6040518363ffffffff1660e01b815260040180838152602001826001600160a01b0316815260200192505050602060405180830381600087803b158015613d8157600080fd5b505af1158015613d95573d6000803e3d6000fd5b505050506040513d6020811015613dab57600080fd5b50511515600114613ded5760405162461bcd60e51b815260040180806020018281038252602181526020018061585d6021913960400191505060405180910390fd5b600083118015613dfe575060148311155b8015613e0a5750600082115b8015613e195750620f42408211155b613e6a576040805162461bcd60e51b815260206004820152601c60248201527f696e76616c6964206375727665206f72206d756c7469706c6965727300000000604482015290519081900360640190fd5b6001845111613eb5576040805162461bcd60e51b81526020600482015260126024820152711a9cdbdb881b5d5cdd081b9bdb881b9d5b1b60721b604482015290519081900360640190fd5b600085815260166020526040902054613f09576040805162461bcd60e51b815260206004820152601160248201527018dd5c9d99481b5d5cdd081899481cd95d607a1b604482015290519081900360640190fd5b600085815260166020908152604080832086905560198252808320859055805188815290810186905260608101859052608081830181815288519183019190915287517f855f2403a3717b569ca6483cb3250554954ef4734871df9005e45eb9bffce8cf948a948a948a948a949193909260a0850192908801918190849084905b83811015613fa2578181015183820152602001613f8a565b50505050905090810190601f168015613fcf5780820380516001836020036101000a031916815260200191505b509550505050505060405180910390a15050505050565b613ff16000336131a8565b613ffa57600080fd5b601d80546001600160a01b0319166001600160a01b0392909216919091179055565b6013546001600160a01b031681565b6140348261431b565b15614082576040805162461bcd60e51b81526020600482015260196024820152781d1bdad95b881a185cc81b9bdd081899595b881b5a5b9d1959603a1b604482015290519081900360640190fd5b6000828152601660205260409020546140d6576040805162461bcd60e51b815260206004820152601160248201527018dd5c9d99481b5d5cdd081899481cd95d607a1b604482015290519081900360640190fd5b600060105483816140e357fe5b60145491900491506001600160a01b0316634ba3d748826141026147bb565b6040518363ffffffff1660e01b815260040180838152602001826001600160a01b0316815260200192505050602060405180830381600087803b15801561414857600080fd5b505af115801561415c573d6000803e3d6000fd5b505050506040513d602081101561417257600080fd5b505115156001146141b45760405162461bcd60e51b815260040180806020018281038252602181526020018061585d6021913960400191505060405180910390fd5b42821080156141c35750600082115b156141cc574291505b600083815260176020908152604091829020849055815185815290810184905281517f6ce538f9e575f548476b624a738c3bc0bdf1ec4e465cacb3f7c67bef3926e20e929181900390910190a1505050565b604051806080016040528060528152602001615a3e605291398051906020012081565b60008181526005602052604081206117d6906150d8565b6015546001600160a01b031681565b600082815260056020526040902060020154614285906128966147bb565b6129485760405162461bcd60e51b815260040180806020018281038252603081526020018061596a6030913960400191505060405180910390fd5b600c805460408051602060026001851615610100026000190190941693909304601f810184900484028201840190925281815292918301828280156118bb5780601f10611890576101008083540402835291602001916118bb565b60009081526002602052604090205460ff1690565b6001600160a01b03918216600090815260036020908152604080832093909416825291909152205460ff1690565b60176020526000908152604090205481565b6001600160a01b0384166143b55760405162461bcd60e51b815260040180806020018281038252602581526020018061599a6025913960400191505060405180910390fd5b6143bd6147bb565b6001600160a01b0316856001600160a01b031614806143e357506143e38561262d6147bb565b61441e5760405162461bcd60e51b81526004018080602001828103825260298152602001806159416029913960400191505060405180910390fd5b60006144286147bb565b9050614448818787614439886150e3565b614442886150e3565b87614992565b61448f836040518060600160405280602a8152602001615a14602a913960008781526001602090815260408083206001600160a01b038d1684529091529020549190614ab5565b60008581526001602090815260408083206001600160a01b038b811685529252808320939093558716815220546144c69084614686565b60008581526001602090815260408083206001600160a01b03808b168086529184529382902094909455805188815291820187905280518a8416938616927fc3d58168c5ae7397731d063d5bbf3d657854427343f4c083240f7aacaa2d0f6292908290030190a4612870818787878787615127565b600b805460408051602060026001851615610100026000190190941693909304601f810184900484028201840190925281815292918301828280156118bb5780601f10611890576101008083540402835291602001916118bb565b601f546001600160a01b031681565b7ff0887ba65ee2024ea881d91b74c2450ef19e1557f03bed3ea9f16b037cbe2dc981565b6000611821836001600160a01b038416615298565b60006001600160a01b0386161580159061467c57506001614606614601876152e2565b615365565b83868660405160008152602001604052604051808581526020018460ff1681526020018381526020018281526020019450505050506020604051602081039080840390855afa15801561465d573d6000803e3d6000fd5b505050602060405103516001600160a01b0316866001600160a01b0316145b9695505050505050565b600082820183811015611821576040805162461bcd60e51b815260206004820152601b60248201527f536166654d6174683a206164646974696f6e206f766572666c6f770000000000604482015290519081900360640190fd5b60608161470557506040805180820190915260018152600360fc1b6020820152611800565b8160005b811561471d57600101600a82049150614709565b60608167ffffffffffffffff8111801561473657600080fd5b506040519080825280601f01601f191660200182016040528015614761576020820181803683370190505b50859350905060001982015b83156147b257600a840660300160f81b8282806001900393508151811061479057fe5b60200101906001600160f81b031916908160001a905350600a8404935061476d565b50949350505050565b3390565b600061182183836040518060400160405280601a81526020017f536166654d6174683a206469766973696f6e206279207a65726f0000000000008152506153b1565b600082614810575060006117d6565b8282028284828161481d57fe5b04146118215760405162461bcd60e51b8152600401808060200182810382526021815260200180615b076021913960400191505060405180910390fd5b6001600160a01b03841661489f5760405162461bcd60e51b8152600401808060200182810382526021815260200180615c056021913960400191505060405180910390fd5b60008381526002602052604090205460ff166148cf576000838152600260205260409020805460ff191660011790555b60006148d96147bb565b90506148eb81600087614439886150e3565b60008481526001602090815260408083206001600160a01b03891684529091529020546149189084614686565b60008581526001602090815260408083206001600160a01b03808b16808652918452828520959095558151898152928301889052815190948616927fc3d58168c5ae7397731d063d5bbf3d657854427343f4c083240f7aacaa2d0f6292908290030190a461498b81600087878787615127565b5050505050565b6001600160a01b03841615614aa75760005b8251811015614a12578281815181106149b957fe5b6020026020010151600114614a0a576040805162461bcd60e51b8152602060048201526012602482015271416d6f756e742073686f756c64206265203160701b604482015290519081900360640190fd5b6001016149a4565b506001600160a01b03851615614aa75760005b8351811015614aa557614a4b85858381518110614a3e57fe5b602002602001015161176a565b15614a9d576040805162461bcd60e51b815260206004820152601f60248201527f746f5f616464726573732073686f756c64206f776e2030206f66206561636800604482015290519081900360640190fd5b600101614a25565b505b612870868686868686612870565b60008184841115614b445760405162461bcd60e51b81526004018080602001828103825283818151815260200191508051906020019080838360005b83811015614b09578181015183820152602001614af1565b50505050905090810190601f168015614b365780820380516001836020036101000a031916815260200191505b509250505060405180910390fd5b505050900390565b614b5e846001600160a01b0316615416565b1561287057836001600160a01b031663bc197c8187878686866040518663ffffffff1660e01b815260040180866001600160a01b03168152602001856001600160a01b03168152602001806020018060200180602001848103845287818151815260200191508051906020019060200280838360005b83811015614bec578181015183820152602001614bd4565b50505050905001848103835286818151815260200191508051906020019060200280838360005b83811015614c2b578181015183820152602001614c13565b50505050905001848103825285818151815260200191508051906020019080838360005b83811015614c67578181015183820152602001614c4f565b50505050905090810190601f168015614c945780820380516001836020036101000a031916815260200191505b5098505050505050505050602060405180830381600087803b158015614cb957600080fd5b505af1925050508015614cde57506040513d6020811015614cd957600080fd5b505160015b614d7357614cea6156e6565b80614cf55750614d3c565b60405162461bcd60e51b8152602060048201818152835160248401528351849391928392604401919085019080838360008315614b09578181015183820152602001614af1565b60405162461bcd60e51b815260040180806020018281038252603481526020018061578c6034913960400191505060405180910390fd5b6001600160e01b0319811663bc197c8160e01b14614dc25760405162461bcd60e51b81526004018080602001828103825260288152602001806157e26028913960400191505060405180910390fd5b50505050505050565b6000828152600560205260409020614de390826145c9565b156128e057614df06147bb565b6001600160a01b0316816001600160a01b0316837f2f8788117e7eff1d82e926ec794901d17c78024a50270940304540a733656f0d60405160405180910390a45050565b6000828152600560205260409020614e4c908261541c565b156128e057614e596147bb565b6001600160a01b0316816001600160a01b0316837ff6391f5c32d9c69d2a47ea670b442974b53935d1edc7fd64eb21e047a839171b60405160405180910390a45050565b6001600160a01b038316614ee25760405162461bcd60e51b81526004018080602001828103825260238152602001806159f16023913960400191505060405180910390fd5b6000614eec6147bb565b9050614f1c81856000614efe876150e3565b614f07876150e3565b60405180602001604052806000815250614992565b614f638260405180606001604052806024815260200161591d6024913960008681526001602090815260408083206001600160a01b038b1684529091529020549190614ab5565b60008481526001602090815260408083206001600160a01b03808a16808652918452828520959095558151888152928301879052815193949093908616927fc3d58168c5ae7397731d063d5bbf3d657854427343f4c083240f7aacaa2d0f6292908290030190a450505050565b60006118218383615431565b6000611821836001600160a01b038416615495565b600061182183836040518060400160405280601e81526020017f536166654d6174683a207375627472616374696f6e206f766572666c6f770000815250614ab5565b601554604080516317937a0760e01b815233600482015290516000926001600160a01b0316916317937a0791602480830192602092919082900301818787803b15801561507f57600080fd5b505af1158015615093573d6000803e3d6000fd5b505050506040513d60208110156150a957600080fd5b5051905090565b60006001600160a01b0386161580159061467c575060016146066150d3876154ad565b615530565b60006117d68261553a565b60408051600180825281830190925260609182919060208083019080368337019050509050828160008151811061511657fe5b602090810291909101015292915050565b615139846001600160a01b0316615416565b1561287057836001600160a01b031663f23a6e6187878686866040518663ffffffff1660e01b815260040180866001600160a01b03168152602001856001600160a01b0316815260200184815260200183815260200180602001828103825283818151815260200191508051906020019080838360005b838110156151c85781810151838201526020016151b0565b50505050905090810190601f1680156151f55780820380516001836020036101000a031916815260200191505b509650505050505050602060405180830381600087803b15801561521857600080fd5b505af192505050801561523d57506040513d602081101561523857600080fd5b505160015b61524957614cea6156e6565b6001600160e01b0319811663f23a6e6160e01b14614dc25760405162461bcd60e51b81526004018080602001828103825260288152602001806157e26028913960400191505060405180910390fd5b60006152a48383615495565b6152da575081546001818101845560008481526020808220909301849055845484825282860190935260409020919091556117d6565b5060006117d6565b60006040518060800160405280604381526020016158da60439139805190602001208260000151836020015184604001518051906020012060405160200180858152602001848152602001836001600160a01b03168152602001828152602001945050505050604051602081830303815290604052805190602001209050919050565b600061536f612350565b82604051602001808061190160f01b81525060020183815260200182815260200192505050604051602081830303815290604052805190602001209050919050565b600081836154005760405162461bcd60e51b8152602060048201818152835160248401528351909283926044909101919085019080838360008315614b09578181015183820152602001614af1565b50600083858161540c57fe5b0495945050505050565b3b151590565b6000611821836001600160a01b03841661553e565b815460009082106154735760405162461bcd60e51b81526004018080602001828103825260228152602001806157c06022913960400191505060405180910390fd5b82600001828154811061548257fe5b9060005260206000200154905092915050565b60009081526001919091016020526040902054151590565b6000604051806080016040528060548152602001615ab360549139805190602001208260000151836020015184604001518051906020012060405160200180858152602001848152602001836001600160a01b03168152602001828152602001945050505050604051602081830303815290604052805190602001209050919050565b600061536f611e63565b5490565b600081815260018301602052604081205480156155fa578354600019808301919081019060009087908390811061557157fe5b906000526020600020015490508087600001848154811061558e57fe5b6000918252602080832090910192909255828152600189810190925260409020908401905586548790806155be57fe5b600190038181906000526020600020016000905590558660010160008781526020019081526020016000206000905560019450505050506117d6565b60009150506117d6565b60405180606001604052806000815260200160006001600160a01b03168152602001606081525090565b828054600181600116156101000203166002900490600052602060002090601f016020900481019282601f1061566f57805160ff191683800117855561569c565b8280016001018555821561569c579182015b8281111561569c578251825591602001919060010190615681565b506156a89291506156cb565b5090565b6040805160608082018352600080835260208301529181019190915290565b5b808211156156a857600081556001016156cc565b60e01c90565b600060443d10156156f657611e67565b600481823e6308c379a061570a82516156e0565b1461571457611e67565b6040513d600319016004823e80513d67ffffffffffffffff81602484011181841117156157445750505050611e67565b8284019250825191508082111561575e5750505050611e67565b503d8301602082840101111561577657505050611e67565b601f01601f191681016020016040529150509056fe455243313135353a207472616e7366657220746f206e6f6e2045524331313535526563656976657220696d706c656d656e746572456e756d657261626c655365743a20696e646578206f7574206f6620626f756e6473455243313135353a204552433131353552656365697665722072656a656374656420746f6b656e73416363657373436f6e74726f6c3a2073656e646572206d75737420626520616e2061646d696e20746f206772616e746275794e4654776974684d617469633a2076616c7565206973206e6f7420656e6f75676873656e646572206d757374206265206f70657261746f72206f7220776f726b6572455243313135353a2062616c616e636520717565727920666f7220746865207a65726f2061646472657373455243313135353a2062617463682062616c616e636520717565727920666f7220746865207a65726f20616464726573734d6574615472616e73616374696f6e2875696e74323536206e6f6e63652c616464726573732066726f6d2c62797465732066756e6374696f6e5369676e617475726529455243313135353a206275726e20616d6f756e7420657863656564732062616c616e6365455243313135353a2063616c6c6572206973206e6f74206f776e6572206e6f7220617070726f766564416363657373436f6e74726f6c3a2073656e646572206d75737420626520616e2061646d696e20746f207265766f6b65455243313135353a207472616e7366657220746f20746865207a65726f2061646472657373455243313135353a207472616e736665722063616c6c6572206973206e6f74206f776e6572206e6f7220617070726f766564455243313135353a206275726e2066726f6d20746865207a65726f2061646472657373455243313135353a20696e73756666696369656e742062616c616e636520666f72207472616e73666572454950373132446f6d61696e28737472696e67206e616d652c737472696e672076657273696f6e2c75696e7432353620636861696e49642c6164647265737320766572696679696e67436f6e74726163742973656e646572206d7573742068617665206174206c65617374206f6e6520746f6b656e576f726b65724d6574615472616e73616374696f6e2862797465733332207265706c617950726576656e74696f6e2c616464726573732066726f6d2c62797465732066756e6374696f6e5369676e617475726529536166654d6174683a206d756c7469706c69636174696f6e206f766572666c6f775369676e657220616e64207369676e617475726520646f206e6f74206d61746368576f726b6572204d6574612d5472616e73616374696f6e2073656e74206279206163636f756e74206f74686572207468616e206120776f726b65722f6d696e696f6e455243313135353a2073657474696e6720617070726f76616c2073746174757320666f722073656c66455243313135353a206163636f756e747320616e6420696473206c656e677468206d69736d61746368455243313135353a2069647320616e6420616d6f756e7473206c656e677468206d69736d61746368455243313135353a206d696e7420746f20746865207a65726f2061646472657373416363657373436f6e74726f6c3a2063616e206f6e6c792072656e6f756e636520726f6c657320666f722073656c66a26469706673582212201e0d805045cf35dd1a392cb820843919534ab4eb733b4a82e5412796fa620a4064736f6c63430007030033f0887ba65ee2024ea881d91b74c2450ef19e1557f03bed3ea9f16b037cbe2dc9f6e33f9720e4529cb1c710e3344dc00830589a3239198ffa39b07117085d250e454950373132446f6d61696e28737472696e67206e616d652c737472696e672076657273696f6e2c75696e7432353620636861696e49642c6164647265737320766572696679696e67436f6e747261637429",
  "linkReferences": {},
  "deployedLinkReferences": {}
}