{
  "_format": "hh-sol-artifact-1",
  "contractName": "Admin",
  "sourceName": "contracts/BondedNFT.sol",
  "abi": [
    {
      "inputs": [],
      "stateMutability": "nonpayable",
      "type": "constructor"
    },
    {
      "anonymous": false,
      "inputs": [
        {
          "indexed": true,
          "internalType": "bytes32",
          "name": "role",
          "type": "bytes32"
        },
        {
          "indexed": true,
          "internalType": "bytes32",
          "name": "previousAdminRole",
          "type": "bytes32"
        },
        {
          "indexed": true,
          "internalType": "bytes32",
          "name": "newAdminRole",
          "type": "bytes32"
        }
      ],
      "name": "RoleAdminChanged",
      "type": "event"
    },
    {
      "anonymous": false,
      "inputs": [
        {
          "indexed": true,
          "internalType": "bytes32",
          "name": "role",
          "type": "bytes32"
        },
        {
          "indexed": true,
          "internalType": "address",
          "name": "account",
          "type": "address"
        },
        {
          "indexed": true,
          "internalType": "address",
          "name": "sender",
          "type": "address"
        }
      ],
      "name": "RoleGranted",
      "type": "event"
    },
    {
      "anonymous": false,
      "inputs": [
        {
          "indexed": true,
          "internalType": "bytes32",
          "name": "role",
          "type": "bytes32"
        },
        {
          "indexed": true,
          "internalType": "address",
          "name": "account",
          "type": "address"
        },
        {
          "indexed": true,
          "internalType": "address",
          "name": "sender",
          "type": "address"
        }
      ],
      "name": "RoleRevoked",
      "type": "event"
    },
    {
      "inputs": [],
      "name": "DEFAULT_ADMIN_ROLE",
      "outputs": [
        {
          "internalType": "bytes32",
          "name": "",
          "type": "bytes32"
        }
      ],
      "stateMutability": "view",
      "type": "function"
    },
    {
      "inputs": [],
      "name": "METADATA_ADMIN",
      "outputs": [
        {
          "internalType": "bytes32",
          "name": "",
          "type": "bytes32"
        }
      ],
      "stateMutability": "view",
      "type": "function"
    },
    {
      "inputs": [
        {
          "internalType": "bytes32",
          "name": "role",
          "type": "bytes32"
        }
      ],
      "name": "getRoleAdmin",
      "outputs": [
        {
          "internalType": "bytes32",
          "name": "",
          "type": "bytes32"
        }
      ],
      "stateMutability": "view",
      "type": "function"
    },
    {
      "inputs": [
        {
          "internalType": "bytes32",
          "name": "role",
          "type": "bytes32"
        },
        {
          "internalType": "uint256",
          "name": "index",
          "type": "uint256"
        }
      ],
      "name": "getRoleMember",
      "outputs": [
        {
          "internalType": "address",
          "name": "",
          "type": "address"
        }
      ],
      "stateMutability": "view",
      "type": "function"
    },
    {
      "inputs": [
        {
          "internalType": "bytes32",
          "name": "role",
          "type": "bytes32"
        }
      ],
      "name": "getRoleMemberCount",
      "outputs": [
        {
          "internalType": "uint256",
          "name": "",
          "type": "uint256"
        }
      ],
      "stateMutability": "view",
      "type": "function"
    },
    {
      "inputs": [
        {
          "internalType": "bytes32",
          "name": "role",
          "type": "bytes32"
        },
        {
          "internalType": "address",
          "name": "account",
          "type": "address"
        }
      ],
      "name": "grantRole",
      "outputs": [],
      "stateMutability": "nonpayable",
      "type": "function"
    },
    {
      "inputs": [
        {
          "internalType": "bytes32",
          "name": "role",
          "type": "bytes32"
        },
        {
          "internalType": "address",
          "name": "account",
          "type": "address"
        }
      ],
      "name": "hasRole",
      "outputs": [
        {
          "internalType": "bool",
          "name": "",
          "type": "bool"
        }
      ],
      "stateMutability": "view",
      "type": "function"
    },
    {
      "inputs": [
        {
          "internalType": "bytes32",
          "name": "role",
          "type": "bytes32"
        },
        {
          "internalType": "address",
          "name": "account",
          "type": "address"
        }
      ],
      "name": "renounceRole",
      "outputs": [],
      "stateMutability": "nonpayable",
      "type": "function"
    },
    {
      "inputs": [
        {
          "internalType": "bytes32",
          "name": "role",
          "type": "bytes32"
        },
        {
          "internalType": "address",
          "name": "account",
          "type": "address"
        }
      ],
      "name": "revokeRole",
      "outputs": [],
      "stateMutability": "nonpayable",
      "type": "function"
    }
  ],
  "bytecode": "0x608060405234801561001057600080fd5b50610023600061001e610054565b6100b2565b61004f7ff6e33f9720e4529cb1c710e3344dc00830589a3239198ffa39b07117085d250e61001e610054565b6101b3565b6000333014156100ac5760606000368080601f0160208091040260200160405190810160405280939291908181526020018383808284376000920191909152505050503601516001600160a01b031691506100af9050565b50335b90565b6100bc82826100c0565b5050565b6000828152602081815260409091206100e29183906102ba610133821b17901c565b156100bc576100ef610054565b6001600160a01b0316816001600160a01b0316837f2f8788117e7eff1d82e926ec794901d17c78024a50270940304540a733656f0d60405160405180910390a45050565b6000610148836001600160a01b038416610151565b90505b92915050565b600061015d838361019b565b6101935750815460018181018455600084815260208082209093018490558454848252828601909352604090209190915561014b565b50600061014b565b60009081526001919091016020526040902054151590565b6107b2806101c26000396000f3fe608060405234801561001057600080fd5b50600436106100935760003560e01c806391d148541161006657806391d1485414610109578063a217fddf14610129578063b1de303e14610131578063ca15c87314610139578063d547741f1461014c57610093565b8063248a9ca3146100985780632f2ff15d146100c157806336568abe146100d65780639010d07c146100e9575b600080fd5b6100ab6100a63660046105b1565b61015f565b6040516100b89190610643565b60405180910390f35b6100d46100cf3660046105c9565b610174565b005b6100d46100e43660046105c9565b6101c5565b6100fc6100f7366004610603565b610207565b6040516100b89190610624565b61011c6101173660046105c9565b610228565b6040516100b89190610638565b6100ab610240565b6100ab610245565b6100ab6101473660046105b1565b610269565b6100d461015a3660046105c9565b610280565b60009081526020819052604090206002015490565b600082815260208190526040902060020154610192906101176102cf565b6101b75760405162461bcd60e51b81526004016101ae9061068e565b60405180910390fd5b6101c1828261032d565b5050565b6101cd6102cf565b6001600160a01b0316816001600160a01b0316146101fd5760405162461bcd60e51b81526004016101ae9061072d565b6101c18282610396565b600082815260208190526040812061021f90836103ff565b90505b92915050565b600082815260208190526040812061021f908361040b565b600081565b7ff6e33f9720e4529cb1c710e3344dc00830589a3239198ffa39b07117085d250e81565b600081815260208190526040812061022290610420565b60008281526020819052604090206002015461029e906101176102cf565b6101fd5760405162461bcd60e51b81526004016101ae906106dd565b600061021f836001600160a01b03841661042b565b6000333014156103275760606000368080601f0160208091040260200160405190810160405280939291908181526020018383808284376000920191909152505050503601516001600160a01b0316915061032a9050565b50335b90565b600082815260208190526040902061034590826102ba565b156101c1576103526102cf565b6001600160a01b0316816001600160a01b0316837f2f8788117e7eff1d82e926ec794901d17c78024a50270940304540a733656f0d60405160405180910390a45050565b60008281526020819052604090206103ae9082610475565b156101c1576103bb6102cf565b6001600160a01b0316816001600160a01b0316837ff6391f5c32d9c69d2a47ea670b442974b53935d1edc7fd64eb21e047a839171b60405160405180910390a45050565b600061021f838361048a565b600061021f836001600160a01b0384166104cf565b6000610222826104e7565b600061043783836104cf565b61046d57508154600181810184556000848152602080822090930184905584548482528286019093526040902091909155610222565b506000610222565b600061021f836001600160a01b0384166104eb565b815460009082106104ad5760405162461bcd60e51b81526004016101ae9061064c565b8260000182815481106104bc57fe5b9060005260206000200154905092915050565b60009081526001919091016020526040902054151590565b5490565b600081815260018301602052604081205480156105a7578354600019808301919081019060009087908390811061051e57fe5b906000526020600020015490508087600001848154811061053b57fe5b60009182526020808320909101929092558281526001898101909252604090209084019055865487908061056b57fe5b60019003818190600052602060002001600090559055866001016000878152602001908152602001600020600090556001945050505050610222565b6000915050610222565b6000602082840312156105c2578081fd5b5035919050565b600080604083850312156105db578081fd5b8235915060208301356001600160a01b03811681146105f8578182fd5b809150509250929050565b60008060408385031215610615578182fd5b50508035926020909101359150565b6001600160a01b0391909116815260200190565b901515815260200190565b90815260200190565b60208082526022908201527f456e756d657261626c655365743a20696e646578206f7574206f6620626f756e604082015261647360f01b606082015260800190565b6020808252602f908201527f416363657373436f6e74726f6c3a2073656e646572206d75737420626520616e60408201526e0818591b5a5b881d1bc819dc985b9d608a1b606082015260800190565b60208082526030908201527f416363657373436f6e74726f6c3a2073656e646572206d75737420626520616e60408201526f2061646d696e20746f207265766f6b6560801b606082015260800190565b6020808252602f908201527f416363657373436f6e74726f6c3a2063616e206f6e6c792072656e6f756e636560408201526e103937b632b9903337b91039b2b63360891b60608201526080019056fea2646970667358221220d0e436438fa476aa8dc042bc7c53d3785b65d845c7d8b424099b73e56f99a99864736f6c63430007030033",
  "linkReferences": {},
  "deployedLinkReferences": {}
}