{
  "_format": "hh-sol-artifact-1",
  "contractName": "BondedNFT",
  "sourceName": "contracts/BondedNFT.sol",
  "abi": [
    {
      "inputs": [
        {
          "internalType": "address",
          "name": "_gameToken",
          "type": "address"
        },
        {
          "internalType": "address",
          "name": "_gameAdmin",
          "type": "address"
        },
        {
          "internalType": "address",
          "name": "_gameMaster",
          "type": "address"
        },
        {
          "internalType": "address",
          "name": "_feeReceiver",
          "type": "address"
        }
      ],
      "stateMutability": "payable",
      "type": "constructor"
    },
    {
      "anonymous": false,
      "inputs": [
        {
          "indexed": true,
          "internalType": "address",
          "name": "account",
          "type": "address"
        },
        {
          "indexed": true,
          "internalType": "address",
          "name": "operator",
          "type": "address"
        },
        {
          "indexed": false,
          "internalType": "bool",
          "name": "approved",
          "type": "bool"
        }
      ],
      "name": "ApprovalForAll",
      "type": "event"
    },
    {
      "anonymous": false,
      "inputs": [
        {
          "indexed": true,
          "internalType": "bytes32",
          "name": "role",
          "type": "bytes32"
        },
        {
          "indexed": true,
          "internalType": "bytes32",
          "name": "previousAdminRole",
          "type": "bytes32"
        },
        {
          "indexed": true,
          "internalType": "bytes32",
          "name": "newAdminRole",
          "type": "bytes32"
        }
      ],
      "name": "RoleAdminChanged",
      "type": "event"
    },
    {
      "anonymous": false,
      "inputs": [
        {
          "indexed": true,
          "internalType": "bytes32",
          "name": "role",
          "type": "bytes32"
        },
        {
          "indexed": true,
          "internalType": "address",
          "name": "account",
          "type": "address"
        },
        {
          "indexed": true,
          "internalType": "address",
          "name": "sender",
          "type": "address"
        }
      ],
      "name": "RoleGranted",
      "type": "event"
    },
    {
      "anonymous": false,
      "inputs": [
        {
          "indexed": true,
          "internalType": "bytes32",
          "name": "role",
          "type": "bytes32"
        },
        {
          "indexed": true,
          "internalType": "address",
          "name": "account",
          "type": "address"
        },
        {
          "indexed": true,
          "internalType": "address",
          "name": "sender",
          "type": "address"
        }
      ],
      "name": "RoleRevoked",
      "type": "event"
    },
    {
      "anonymous": false,
      "inputs": [
        {
          "indexed": true,
          "internalType": "address",
          "name": "to",
          "type": "address"
        },
        {
          "indexed": false,
          "internalType": "uint256",
          "name": "id",
          "type": "uint256"
        },
        {
          "indexed": false,
          "internalType": "uint256",
          "name": "pricePaid",
          "type": "uint256"
        },
        {
          "indexed": false,
          "internalType": "uint256",
          "name": "nextPrintPrice",
          "type": "uint256"
        },
        {
          "indexed": false,
          "internalType": "uint256",
          "name": "nextBurnPrice",
          "type": "uint256"
        },
        {
          "indexed": false,
          "internalType": "uint256",
          "name": "tokenSupply",
          "type": "uint256"
        },
        {
          "indexed": false,
          "internalType": "uint256",
          "name": "royaltyPaid",
          "type": "uint256"
        },
        {
          "indexed": false,
          "internalType": "uint256",
          "name": "reserve",
          "type": "uint256"
        },
        {
          "indexed": true,
          "internalType": "address",
          "name": "royaltyRecipient",
          "type": "address"
        }
      ],
      "name": "TokenBought",
      "type": "event"
    },
    {
      "anonymous": false,
      "inputs": [
        {
          "indexed": true,
          "internalType": "address",
          "name": "to",
          "type": "address"
        },
        {
          "indexed": false,
          "internalType": "uint256",
          "name": "id",
          "type": "uint256"
        },
        {
          "indexed": false,
          "internalType": "uint256",
          "name": "priceReceived",
          "type": "uint256"
        },
        {
          "indexed": false,
          "internalType": "uint256",
          "name": "nextPrintPrice",
          "type": "uint256"
        },
        {
          "indexed": false,
          "internalType": "uint256",
          "name": "nextBurnPrice",
          "type": "uint256"
        },
        {
          "indexed": false,
          "internalType": "uint256",
          "name": "printsSupply",
          "type": "uint256"
        },
        {
          "indexed": false,
          "internalType": "uint256",
          "name": "reserve",
          "type": "uint256"
        }
      ],
      "name": "TokenBurned",
      "type": "event"
    },
    {
      "anonymous": false,
      "inputs": [
        {
          "indexed": false,
          "internalType": "uint256",
          "name": "tokenId",
          "type": "uint256"
        },
        {
          "indexed": false,
          "internalType": "string",
          "name": "json",
          "type": "string"
        },
        {
          "indexed": false,
          "internalType": "uint256",
          "name": "curve",
          "type": "uint256"
        },
        {
          "indexed": false,
          "internalType": "uint256",
          "name": "multiplier",
          "type": "uint256"
        }
      ],
      "name": "TokenData",
      "type": "event"
    },
    {
      "anonymous": false,
      "inputs": [
        {
          "indexed": false,
          "internalType": "uint256",
          "name": "id",
          "type": "uint256"
        },
        {
          "indexed": false,
          "internalType": "uint256",
          "name": "date",
          "type": "uint256"
        }
      ],
      "name": "TokenOnSale",
      "type": "event"
    },
    {
      "anonymous": false,
      "inputs": [
        {
          "indexed": true,
          "internalType": "address",
          "name": "operator",
          "type": "address"
        },
        {
          "indexed": true,
          "internalType": "address",
          "name": "from",
          "type": "address"
        },
        {
          "indexed": true,
          "internalType": "address",
          "name": "to",
          "type": "address"
        },
        {
          "indexed": false,
          "internalType": "uint256[]",
          "name": "ids",
          "type": "uint256[]"
        },
        {
          "indexed": false,
          "internalType": "uint256[]",
          "name": "values",
          "type": "uint256[]"
        }
      ],
      "name": "TransferBatch",
      "type": "event"
    },
    {
      "anonymous": false,
      "inputs": [
        {
          "indexed": true,
          "internalType": "address",
          "name": "operator",
          "type": "address"
        },
        {
          "indexed": true,
          "internalType": "address",
          "name": "from",
          "type": "address"
        },
        {
          "indexed": true,
          "internalType": "address",
          "name": "to",
          "type": "address"
        },
        {
          "indexed": false,
          "internalType": "uint256",
          "name": "id",
          "type": "uint256"
        },
        {
          "indexed": false,
          "internalType": "uint256",
          "name": "value",
          "type": "uint256"
        }
      ],
      "name": "TransferSingle",
      "type": "event"
    },
    {
      "anonymous": false,
      "inputs": [
        {
          "indexed": false,
          "internalType": "string",
          "name": "value",
          "type": "string"
        },
        {
          "indexed": true,
          "internalType": "uint256",
          "name": "id",
          "type": "uint256"
        }
      ],
      "name": "URI",
      "type": "event"
    },
    {
      "stateMutability": "payable",
      "type": "fallback"
    },
    {
      "inputs": [],
      "name": "DEFAULT_ADMIN_ROLE",
      "outputs": [
        {
          "internalType": "bytes32",
          "name": "",
          "type": "bytes32"
        }
      ],
      "stateMutability": "view",
      "type": "function"
    },
    {
      "inputs": [],
      "name": "MAX_PRICE",
      "outputs": [
        {
          "internalType": "uint256",
          "name": "",
          "type": "uint256"
        }
      ],
      "stateMutability": "view",
      "type": "function"
    },
    {
      "inputs": [],
      "name": "METADATA_ADMIN",
      "outputs": [
        {
          "internalType": "bytes32",
          "name": "",
          "type": "bytes32"
        }
      ],
      "stateMutability": "view",
      "type": "function"
    },
    {
      "inputs": [
        {
          "internalType": "uint256",
          "name": "",
          "type": "uint256"
        }
      ],
      "name": "_tokenURIs",
      "outputs": [
        {
          "internalType": "string",
          "name": "",
          "type": "string"
        }
      ],
      "stateMutability": "view",
      "type": "function"
    },
    {
      "inputs": [
        {
          "internalType": "address",
          "name": "account",
          "type": "address"
        },
        {
          "internalType": "uint256",
          "name": "id",
          "type": "uint256"
        }
      ],
      "name": "balanceOf",
      "outputs": [
        {
          "internalType": "uint256",
          "name": "",
          "type": "uint256"
        }
      ],
      "stateMutability": "view",
      "type": "function"
    },
    {
      "inputs": [
        {
          "internalType": "address[]",
          "name": "accounts",
          "type": "address[]"
        },
        {
          "internalType": "uint256[]",
          "name": "ids",
          "type": "uint256[]"
        }
      ],
      "name": "balanceOfBatch",
      "outputs": [
        {
          "internalType": "uint256[]",
          "name": "",
          "type": "uint256[]"
        }
      ],
      "stateMutability": "view",
      "type": "function"
    },
    {
      "inputs": [
        {
          "internalType": "uint256",
          "name": "tokenId",
          "type": "uint256"
        }
      ],
      "name": "burn",
      "outputs": [],
      "stateMutability": "nonpayable",
      "type": "function"
    },
    {
      "inputs": [],
      "name": "burningActive",
      "outputs": [
        {
          "internalType": "bool",
          "name": "",
          "type": "bool"
        }
      ],
      "stateMutability": "view",
      "type": "function"
    },
    {
      "inputs": [
        {
          "internalType": "uint256",
          "name": "tokenId",
          "type": "uint256"
        },
        {
          "internalType": "uint256",
          "name": "maxPrice",
          "type": "uint256"
        },
        {
          "internalType": "address[]",
          "name": "path",
          "type": "address[]"
        }
      ],
      "name": "buyNFTwithERC20",
      "outputs": [],
      "stateMutability": "nonpayable",
      "type": "function"
    },
    {
      "inputs": [
        {
          "internalType": "uint256",
          "name": "tokenId",
          "type": "uint256"
        },
        {
          "internalType": "uint256",
          "name": "maxPrice",
          "type": "uint256"
        }
      ],
      "name": "buyNFTwithGAME",
      "outputs": [],
      "stateMutability": "nonpayable",
      "type": "function"
    },
    {
      "inputs": [
        {
          "internalType": "uint256",
          "name": "tokenId",
          "type": "uint256"
        },
        {
          "internalType": "uint256",
          "name": "maxPrice",
          "type": "uint256"
        },
        {
          "internalType": "address[]",
          "name": "path",
          "type": "address[]"
        }
      ],
      "name": "buyNFTwithMatic",
      "outputs": [],
      "stateMutability": "payable",
      "type": "function"
    },
    {
      "inputs": [
        {
          "internalType": "uint256",
          "name": "creatorId",
          "type": "uint256"
        },
        {
          "internalType": "string",
          "name": "json",
          "type": "string"
        },
        {
          "internalType": "uint256",
          "name": "curve",
          "type": "uint256"
        },
        {
          "internalType": "uint256",
          "name": "multiplier",
          "type": "uint256"
        }
      ],
      "name": "createToken",
      "outputs": [],
      "stateMutability": "nonpayable",
      "type": "function"
    },
    {
      "inputs": [
        {
          "internalType": "uint256",
          "name": "",
          "type": "uint256"
        }
      ],
      "name": "curves",
      "outputs": [
        {
          "internalType": "uint256",
          "name": "",
          "type": "uint256"
        }
      ],
      "stateMutability": "view",
      "type": "function"
    },
    {
      "inputs": [],
      "name": "gameAdmin",
      "outputs": [
        {
          "internalType": "contract iGAME_Game",
          "name": "",
          "type": "address"
        }
      ],
      "stateMutability": "view",
      "type": "function"
    },
    {
      "inputs": [],
      "name": "gameToken",
      "outputs": [
        {
          "internalType": "contract iGAME_ERC20",
          "name": "",
          "type": "address"
        }
      ],
      "stateMutability": "view",
      "type": "function"
    },
    {
      "inputs": [
        {
          "internalType": "uint256",
          "name": "tokenId",
          "type": "uint256"
        }
      ],
      "name": "getBuyPrice",
      "outputs": [
        {
          "internalType": "uint256",
          "name": "",
          "type": "uint256"
        }
      ],
      "stateMutability": "view",
      "type": "function"
    },
    {
      "inputs": [
        {
          "internalType": "uint256",
          "name": "tokenId",
          "type": "uint256"
        },
        {
          "internalType": "uint256",
          "name": "printNumber",
          "type": "uint256"
        }
      ],
      "name": "getPrintPrice",
      "outputs": [
        {
          "internalType": "uint256",
          "name": "",
          "type": "uint256"
        }
      ],
      "stateMutability": "view",
      "type": "function"
    },
    {
      "inputs": [
        {
          "internalType": "bytes32",
          "name": "role",
          "type": "bytes32"
        }
      ],
      "name": "getRoleAdmin",
      "outputs": [
        {
          "internalType": "bytes32",
          "name": "",
          "type": "bytes32"
        }
      ],
      "stateMutability": "view",
      "type": "function"
    },
    {
      "inputs": [
        {
          "internalType": "bytes32",
          "name": "role",
          "type": "bytes32"
        },
        {
          "internalType": "uint256",
          "name": "index",
          "type": "uint256"
        }
      ],
      "name": "getRoleMember",
      "outputs": [
        {
          "internalType": "address",
          "name": "",
          "type": "address"
        }
      ],
      "stateMutability": "view",
      "type": "function"
    },
    {
      "inputs": [
        {
          "internalType": "bytes32",
          "name": "role",
          "type": "bytes32"
        }
      ],
      "name": "getRoleMemberCount",
      "outputs": [
        {
          "internalType": "uint256",
          "name": "",
          "type": "uint256"
        }
      ],
      "stateMutability": "view",
      "type": "function"
    },
    {
      "inputs": [
        {
          "internalType": "uint256",
          "name": "tokenId",
          "type": "uint256"
        }
      ],
      "name": "getSellPrice",
      "outputs": [
        {
          "internalType": "uint256",
          "name": "",
          "type": "uint256"
        }
      ],
      "stateMutability": "view",
      "type": "function"
    },
    {
      "inputs": [
        {
          "internalType": "uint256",
          "name": "_creatorID",
          "type": "uint256"
        },
        {
          "internalType": "uint256",
          "name": "token",
          "type": "uint256"
        }
      ],
      "name": "getTokenID",
      "outputs": [
        {
          "internalType": "uint256",
          "name": "",
          "type": "uint256"
        }
      ],
      "stateMutability": "view",
      "type": "function"
    },
    {
      "inputs": [
        {
          "internalType": "bytes32",
          "name": "role",
          "type": "bytes32"
        },
        {
          "internalType": "address",
          "name": "account",
          "type": "address"
        }
      ],
      "name": "grantRole",
      "outputs": [],
      "stateMutability": "nonpayable",
      "type": "function"
    },
    {
      "inputs": [
        {
          "internalType": "uint256",
          "name": "id",
          "type": "uint256"
        }
      ],
      "name": "hasMinted",
      "outputs": [
        {
          "internalType": "bool",
          "name": "",
          "type": "bool"
        }
      ],
      "stateMutability": "view",
      "type": "function"
    },
    {
      "inputs": [
        {
          "internalType": "bytes32",
          "name": "role",
          "type": "bytes32"
        },
        {
          "internalType": "address",
          "name": "account",
          "type": "address"
        }
      ],
      "name": "hasRole",
      "outputs": [
        {
          "internalType": "bool",
          "name": "",
          "type": "bool"
        }
      ],
      "stateMutability": "view",
      "type": "function"
    },
    {
      "inputs": [
        {
          "internalType": "address",
          "name": "account",
          "type": "address"
        },
        {
          "internalType": "address",
          "name": "operator",
          "type": "address"
        }
      ],
      "name": "isApprovedForAll",
      "outputs": [
        {
          "internalType": "bool",
          "name": "",
          "type": "bool"
        }
      ],
      "stateMutability": "view",
      "type": "function"
    },
    {
      "inputs": [],
      "name": "mintingActive",
      "outputs": [
        {
          "internalType": "bool",
          "name": "",
          "type": "bool"
        }
      ],
      "stateMutability": "view",
      "type": "function"
    },
    {
      "inputs": [
        {
          "internalType": "uint256",
          "name": "",
          "type": "uint256"
        }
      ],
      "name": "multipliers",
      "outputs": [
        {
          "internalType": "uint256",
          "name": "",
          "type": "uint256"
        }
      ],
      "stateMutability": "view",
      "type": "function"
    },
    {
      "inputs": [
        {
          "internalType": "uint256",
          "name": "",
          "type": "uint256"
        }
      ],
      "name": "nextTokenIDs",
      "outputs": [
        {
          "internalType": "uint256",
          "name": "",
          "type": "uint256"
        }
      ],
      "stateMutability": "view",
      "type": "function"
    },
    {
      "inputs": [
        {
          "internalType": "bytes32",
          "name": "role",
          "type": "bytes32"
        },
        {
          "internalType": "address",
          "name": "account",
          "type": "address"
        }
      ],
      "name": "renounceRole",
      "outputs": [],
      "stateMutability": "nonpayable",
      "type": "function"
    },
    {
      "inputs": [
        {
          "internalType": "bytes32",
          "name": "role",
          "type": "bytes32"
        },
        {
          "internalType": "address",
          "name": "account",
          "type": "address"
        }
      ],
      "name": "revokeRole",
      "outputs": [],
      "stateMutability": "nonpayable",
      "type": "function"
    },
    {
      "inputs": [
        {
          "internalType": "address",
          "name": "from",
          "type": "address"
        },
        {
          "internalType": "address",
          "name": "to",
          "type": "address"
        },
        {
          "internalType": "uint256[]",
          "name": "ids",
          "type": "uint256[]"
        },
        {
          "internalType": "uint256[]",
          "name": "amounts",
          "type": "uint256[]"
        },
        {
          "internalType": "bytes",
          "name": "data",
          "type": "bytes"
        }
      ],
      "name": "safeBatchTransferFrom",
      "outputs": [],
      "stateMutability": "nonpayable",
      "type": "function"
    },
    {
      "inputs": [
        {
          "internalType": "address",
          "name": "from",
          "type": "address"
        },
        {
          "internalType": "address",
          "name": "to",
          "type": "address"
        },
        {
          "internalType": "uint256",
          "name": "id",
          "type": "uint256"
        },
        {
          "internalType": "uint256",
          "name": "amount",
          "type": "uint256"
        },
        {
          "internalType": "bytes",
          "name": "data",
          "type": "bytes"
        }
      ],
      "name": "safeTransferFrom",
      "outputs": [],
      "stateMutability": "nonpayable",
      "type": "function"
    },
    {
      "inputs": [
        {
          "internalType": "uint256",
          "name": "",
          "type": "uint256"
        }
      ],
      "name": "saleStarts",
      "outputs": [
        {
          "internalType": "uint256",
          "name": "",
          "type": "uint256"
        }
      ],
      "stateMutability": "view",
      "type": "function"
    },
    {
      "inputs": [
        {
          "internalType": "address",
          "name": "operator",
          "type": "address"
        },
        {
          "internalType": "bool",
          "name": "approved",
          "type": "bool"
        }
      ],
      "name": "setApprovalForAll",
      "outputs": [],
      "stateMutability": "nonpayable",
      "type": "function"
    },
    {
      "inputs": [
        {
          "internalType": "string",
          "name": "newuri",
          "type": "string"
        }
      ],
      "name": "setBaseURI",
      "outputs": [],
      "stateMutability": "nonpayable",
      "type": "function"
    },
    {
      "inputs": [
        {
          "internalType": "address",
          "name": "a",
          "type": "address"
        }
      ],
      "name": "setFEERECEIVER",
      "outputs": [],
      "stateMutability": "nonpayable",
      "type": "function"
    },
    {
      "inputs": [
        {
          "internalType": "address",
          "name": "_facetAddress",
          "type": "address"
        },
        {
          "internalType": "enum IDiamondCut.FacetCutAction",
          "name": "_action",
          "type": "uint8"
        },
        {
          "internalType": "bytes4[]",
          "name": "_functionSelectors",
          "type": "bytes4[]"
        }
      ],
      "name": "setFacet",
      "outputs": [],
      "stateMutability": "nonpayable",
      "type": "function"
    },
    {
      "inputs": [
        {
          "internalType": "uint256",
          "name": "tokenId",
          "type": "uint256"
        },
        {
          "internalType": "uint256",
          "name": "onSaleDate",
          "type": "uint256"
        }
      ],
      "name": "setTokenOnSaleDate",
      "outputs": [],
      "stateMutability": "nonpayable",
      "type": "function"
    },
    {
      "inputs": [
        {
          "internalType": "string",
          "name": "newuri",
          "type": "string"
        },
        {
          "internalType": "uint256",
          "name": "id",
          "type": "uint256"
        }
      ],
      "name": "setURI",
      "outputs": [],
      "stateMutability": "nonpayable",
      "type": "function"
    },
    {
      "inputs": [
        {
          "internalType": "address",
          "name": "uniswapRouter_",
          "type": "address"
        }
      ],
      "name": "setUniswapRouter",
      "outputs": [],
      "stateMutability": "nonpayable",
      "type": "function"
    },
    {
      "inputs": [
        {
          "internalType": "bytes4",
          "name": "interfaceId",
          "type": "bytes4"
        }
      ],
      "name": "supportsInterface",
      "outputs": [
        {
          "internalType": "bool",
          "name": "",
          "type": "bool"
        }
      ],
      "stateMutability": "view",
      "type": "function"
    },
    {
      "inputs": [],
      "name": "toggleTokenBurning",
      "outputs": [],
      "stateMutability": "nonpayable",
      "type": "function"
    },
    {
      "inputs": [],
      "name": "toggleTokenMinting",
      "outputs": [],
      "stateMutability": "nonpayable",
      "type": "function"
    },
    {
      "inputs": [
        {
          "internalType": "uint256",
          "name": "",
          "type": "uint256"
        }
      ],
      "name": "tokenSupply",
      "outputs": [
        {
          "internalType": "uint256",
          "name": "",
          "type": "uint256"
        }
      ],
      "stateMutability": "view",
      "type": "function"
    },
    {
      "inputs": [],
      "name": "uniswapRouter",
      "outputs": [
        {
          "internalType": "contract IUniswapV2Router02",
          "name": "",
          "type": "address"
        }
      ],
      "stateMutability": "view",
      "type": "function"
    },
    {
      "inputs": [
        {
          "internalType": "uint256",
          "name": "tokenId",
          "type": "uint256"
        },
        {
          "internalType": "string",
          "name": "json",
          "type": "string"
        },
        {
          "internalType": "uint256",
          "name": "curve",
          "type": "uint256"
        },
        {
          "internalType": "uint256",
          "name": "multiplier",
          "type": "uint256"
        }
      ],
      "name": "updateTokenData",
      "outputs": [],
      "stateMutability": "nonpayable",
      "type": "function"
    },
    {
      "inputs": [
        {
          "internalType": "uint256",
          "name": "tokenid",
          "type": "uint256"
        }
      ],
      "name": "uri",
      "outputs": [
        {
          "internalType": "string",
          "name": "",
          "type": "string"
        }
      ],
      "stateMutability": "view",
      "type": "function"
    }
  ],
  "bytecode": "0x6080604052670de0b6b3a76400006009556003600a556ec097ce7bc90715b34b9f1000000000600c5560405162005e8738038062005e878339810160408190526200004a91620004f6565b60408051808201909152600a8152691b9bd7dd5c9b17dcd95d60b21b60208201526200007d6301ffc9a760e01b6200024c565b6200008f636cdb3d1360e11b6200024c565b620000a16303a24d0760e21b6200024c565b620000b76000620000b1620002a7565b62000307565b620000e67ff6e33f9720e4529cb1c710e3344dc00830589a3239198ffa39b07117085d250e620000b1620002a7565b8051620000fb9060069060208401906200043d565b5050600160088190555060006200011c6200031760201b620028591760201c565b600e80546001600160a01b038089166001600160a01b031992831617909255600f8054888416908316179055600483018054878416908316179055600d805492861692909116919091179055604080518082019091526001808252603160f81b602090920191825291925062000198916007840191906200043d565b506040805180820190915260108082526f47414d4520426f6e646564204e46547360801b6020909201918252620001d49160088401916200043d565b506301ffc9a760e01b600090815260039091016020526040808220805460ff1990811660019081179092556307e4c70760e21b845282842080548216831790556348e2b09360e01b845282842080548216831790556307f5828d60e41b84529190922080549091169091179055506200058992505050565b6001600160e01b03198082161415620002825760405162461bcd60e51b8152600401620002799062000552565b60405180910390fd5b6001600160e01b0319166000908152602081905260409020805460ff19166001179055565b600033301415620003015760606000368080601f0160208091040260200160405190810160405280939291908181526020018383808284376000920191909152505050503601516001600160a01b03169150620003049050565b50335b90565b6200031382826200033b565b5050565b7fc8fcad8db84d3cc18b4c41d551ea0ee66dd599cde068d998e57d5e09332c131c90565b6000828152600560209081526040909120620003629183906200287d620003b6821b17901c565b15620003135762000372620002a7565b6001600160a01b0316816001600160a01b0316837f2f8788117e7eff1d82e926ec794901d17c78024a50270940304540a733656f0d60405160405180910390a45050565b6000620003cd836001600160a01b038416620003d6565b90505b92915050565b6000620003e4838362000425565b6200041c57508154600181810184556000848152602080822090930184905584548482528286019093526040902091909155620003d0565b506000620003d0565b60009081526001919091016020526040902054151590565b828054600181600116156101000203166002900490600052602060002090601f016020900481019282601f106200048057805160ff1916838001178555620004b0565b82800160010185558215620004b0579182015b82811115620004b057825182559160200191906001019062000493565b50620004be929150620004c2565b5090565b5b80821115620004be5760008155600101620004c3565b80516001600160a01b0381168114620004f157600080fd5b919050565b600080600080608085870312156200050c578384fd5b6200051785620004d9565b93506200052760208601620004d9565b92506200053760408601620004d9565b91506200054760608601620004d9565b905092959194509250565b6020808252601c908201527f4552433136353a20696e76616c696420696e7465726661636520696400000000604082015260600190565b6158ee80620005996000396000f3fe6080604052600436106102925760003560e01c80634e1273f41161015a578063ba730e53116100c1578063d555fccb1161007a578063d555fccb14610834578063e5b9559514610854578063e6d65b0014610874578063e985e9c514610894578063ec798257146108b4578063f242432a146108d457610292565b8063ba730e531461077f578063bc097d791461079f578063bea9849e146107bf578063c3dfdae6146107df578063ca15c873146107f4578063d547741f1461081457610292565b80639010d07c116101135780639010d07c146106d557806391d14854146106f5578063a217fddf14610715578063a22cb4651461072a578063ac7fc2631461074a578063b1de303e1461076a57610292565b80634e1273f41461061e57806355f804b31461064b57806367db3b8f1461066b578063735de9f71461068b57806376adcba5146106ad5780638160ed6c146106c257610292565b806321c7cf4d116101fe5780632f2ff15d116101b75780632f2ff15d1461056957806331f9c9191461058957806336568abe1461059e5780633a42ab55146105be5780633f897300146105de57806342966c68146105fe57610292565b806321c7cf4d146104bf578063248a9ca3146104d457806326150e95146104f45780632693ebf2146105095780632b606d2c146105295780632eb2c2d61461054957610292565b80630e89341c116102505780630e89341c1461040a5780631490185c1461042a578063186d44321461044a5780631bf7d7491461046a5780631c7c25981461048a5780631d84003f1461049f57610292565b8062fdd58e1461032357806301c11d961461035957806301ffc9a71461036e57806308d4db141461039b5780630b7e9ca8146103bb5780630bb78ec1146103dd575b600080356001600160e01b03191681527fc8fcad8db84d3cc18b4c41d551ea0ee66dd599cde068d998e57d5e09332c131c602081905260409091205481906001600160a01b0316806102ff5760405162461bcd60e51b81526004016102f690615024565b60405180910390fd5b3660008037600080366000845af43d6000803e80801561031e573d6000f35b3d6000fd5b34801561032f57600080fd5b5061034361033e3660046142ad565b6108f4565b604051610350919061499e565b60405180910390f35b34801561036557600080fd5b50610343610947565b34801561037a57600080fd5b5061038e61038936600461449c565b61094d565b6040516103509190614993565b3480156103a757600080fd5b506103436103b6366004614441565b610970565b3480156103c757600080fd5b506103db6103d636600461447b565b610993565b005b3480156103e957600080fd5b506103fd6103f8366004614441565b610b08565b60405161035091906149a7565b34801561041657600080fd5b506103fd610425366004614441565b610ba3565b34801561043657600080fd5b5061034361044536600461447b565b610cc9565b34801561045657600080fd5b506103db61046536600461447b565b610cd4565b34801561047657600080fd5b50610343610485366004614441565b610e69565b34801561049657600080fd5b5061038e610e7b565b3480156104ab57600080fd5b506103db6104ba366004614064565b610e84565b3480156104cb57600080fd5b506103db610ebc565b3480156104e057600080fd5b506103436104ef366004614441565b610ee6565b34801561050057600080fd5b506103db610efb565b34801561051557600080fd5b50610343610524366004614441565b610f2e565b34801561053557600080fd5b5061034361054436600461447b565b610f40565b34801561055557600080fd5b506103db6105643660046140b0565b610fe7565b34801561057557600080fd5b506103db610584366004614459565b611201565b34801561059557600080fd5b5061038e611249565b3480156105aa57600080fd5b506103db6105b9366004614459565b611257565b3480156105ca57600080fd5b506103db6105d93660046145bc565b611299565b3480156105ea57600080fd5b506103436105f9366004614441565b611851565b34801561060a57600080fd5b506103db610619366004614441565b611863565b34801561062a57600080fd5b5061063e6106393660046142d6565b611a43565b6040516103509190614952565b34801561065757600080fd5b506103db6106663660046144d4565b611b82565b34801561067757600080fd5b506103db61068636600461450e565b611bca565b34801561069757600080fd5b506106a0611c23565b6040516103509190614783565b3480156106b957600080fd5b506106a0611c32565b6103db6106d03660046145bc565b611c41565b3480156106e157600080fd5b506106a06106f036600461447b565b61202b565b34801561070157600080fd5b5061038e610710366004614459565b612043565b34801561072157600080fd5b5061034361205b565b34801561073657600080fd5b506103db6107453660046141b7565b612060565b34801561075657600080fd5b50610343610765366004614441565b61212e565b34801561077657600080fd5b50610343612140565b34801561078b57600080fd5b5061034361079a366004614441565b612164565b3480156107ab57600080fd5b506103db6107ba366004614568565b612187565b3480156107cb57600080fd5b506103db6107da366004614064565b612346565b3480156107eb57600080fd5b506106a061237e565b34801561080057600080fd5b5061034361080f366004614441565b61238d565b34801561082057600080fd5b506103db61082f366004614459565b6123a4565b34801561084057600080fd5b506103db61084f3660046141ed565b6123de565b34801561086057600080fd5b5061038e61086f366004614441565b612499565b34801561088057600080fd5b506103db61088f366004614568565b6124ae565b3480156108a057600080fd5b5061038e6108af36600461407e565b612685565b3480156108c057600080fd5b506103436108cf366004614441565b6126b3565b3480156108e057600080fd5b506103db6108ef366004614155565b6126c5565b60006001600160a01b03831661091c5760405162461bcd60e51b81526004016102f690614bce565b5060008181526001602090815260408083206001600160a01b03861684529091529020545b92915050565b600c5481565b6001600160e01b0319811660009081526020819052604090205460ff165b919050565b60008181526013602052604081205461098c8360018301610f40565b9392505050565b61099c82612499565b156109b95760405162461bcd60e51b81526004016102f690614ed5565b6000828152601160205260409020546109e45760405162461bcd60e51b81526004016102f690614db7565b600060095483816109f157fe5b600f5491900491506001600160a01b0316634ba3d74882610a10612892565b6040518363ffffffff1660e01b8152600401610a2d9291906155a9565b602060405180830381600087803b158015610a4757600080fd5b505af1158015610a5b573d6000803e3d6000fd5b505050506040513d601f19601f82011682018060405250810190610a7f9190614425565b1515600114610aa05760405162461bcd60e51b81526004016102f6906152b7565b4282108015610aaf5750600082115b15610ab8574291505b60008381526012602052604090819020839055517f6ce538f9e575f548476b624a738c3bc0bdf1ec4e465cacb3f7c67bef3926e20e90610afb908590859061563d565b60405180910390a1505050565b60076020908152600091825260409182902080548351601f600260001961010060018616150201909316929092049182018490048402810184019094528084529091830182828015610b9b5780601f10610b7057610100808354040283529160200191610b9b565b820191906000526020600020905b815481529060010190602001808311610b7e57829003601f168201915b505050505081565b6000818152600760209081526040918290208054835160026001831615610100026000190190921691909104601f81018490048402820184019094528381526060938493919291830182828015610c3b5780601f10610c1057610100808354040283529160200191610c3b565b820191906000526020600020905b815481529060010190602001808311610c1e57829003601f168201915b505060065493945050505060026000196101006001841615020190911604610c6457905061096b565b805115610c9657600681604051602001610c7f929190614702565b60405160208183030381529060405291505061096b565b6006610ca1846128f0565b604051602001610cb2929190614702565b604051602081830303815290604052915050919050565b600954919091020190565b600b548290610100900460ff16610cfd5760405162461bcd60e51b81526004016102f69061552b565b60008181526012602052604090205442118015610d27575060008181526012602052604090205415155b610d435760405162461bcd60e51b81526004016102f690614e9e565b4360166000610d50612892565b6001600160a01b03166001600160a01b031681526020019081526020016000205410610d7b57600080fd5b4360166000610d88612892565b6001600160a01b03166001600160a01b03168152602001908152602001600020819055506000610db6612892565b90506000610dc385610970565b9050600081118015610dd55750838111155b610df15760405162461bcd60e51b81526004016102f690614ffd565b600e5460405163e2b8e7d360e01b81526001600160a01b039091169063e2b8e7d390610e2590859030908690600401614797565b600060405180830381600087803b158015610e3f57600080fd5b505af1158015610e53573d6000803e3d6000fd5b50505050610e628582846129ca565b5050505050565b60116020526000908152604090205481565b600b5460ff1681565b610e916000610710612892565b610e9a57600080fd5b600d80546001600160a01b0319166001600160a01b0392909216919091179055565b610ec96000610710612892565b610ed257600080fd5b600b805460ff19811660ff90911615179055565b60009081526005602052604090206002015490565b610f086000610710612892565b610f1157600080fd5b600b805461ff001981166101009182900460ff1615909102179055565b60136020526000908152604090205481565b6000828152601160209081526040808320546014909252822054600a8054900a603284610f7e600986900a610f7860038a0a86612bfd565b90612c37565b9050610f98610f9186610f788a87612bfd565b8290612c79565b9050610fa7610f918385612bfd565b9050610fc36103e8610f7886610fbd858a612c37565b90612bfd565b9050610fdb83610f7883670de0b6b3a7640000612bfd565b98975050505050505050565b81518351146110085760405162461bcd60e51b81526004016102f69061543d565b6001600160a01b03841661102e5760405162461bcd60e51b81526004016102f690615059565b611036612892565b6001600160a01b0316856001600160a01b0316148061105c575061105c856108af612892565b6110785760405162461bcd60e51b81526004016102f69061509e565b6000611082612892565b90506110928187878787876111f9565b60005b84518110156111935760008582815181106110ac57fe5b6020026020010151905060008583815181106110c457fe5b60200260200101519050611131816040518060600160405280602a815260200161588f602a91396001600086815260200190815260200160002060008d6001600160a01b03166001600160a01b0316815260200190815260200160002054612c9e9092919063ffffffff16565b60008381526001602090815260408083206001600160a01b038e811685529252808320939093558a16815220546111689082612c79565b60009283526001602081815260408086206001600160a01b038d168752909152909320555001611095565b50846001600160a01b0316866001600160a01b0316826001600160a01b03167f4a39dc06d4c0dbc64b70af90fd698a233a518aa5d07e595d983b8c0526c8f7fb87876040516111e3929190614965565b60405180910390a46111f9818787878787612cca565b505050505050565b60008281526005602052604090206002015461121f90610710612892565b61123b5760405162461bcd60e51b81526004016102f690614b3b565b6112458282612de1565b5050565b600b54610100900460ff1681565b61125f612892565b6001600160a01b0316816001600160a01b03161461128f5760405162461bcd60e51b81526004016102f69061555a565b6112458282612e4a565b600260085414156112bc5760405162461bcd60e51b81526004016102f6906154c6565b6002600855600b548490610100900460ff166112ea5760405162461bcd60e51b81526004016102f69061552b565b60008181526012602052604090205442118015611314575060008181526012602052604090205415155b6113305760405162461bcd60e51b81526004016102f690614e9e565b436016600061133d612892565b6001600160a01b03166001600160a01b03168152602001908152602001600020541061136857600080fd5b4360166000611375612892565b6001600160a01b031681526020810191909152604001600020556001821180156113d65750600e546001600160a01b0316838360001981018181106113b657fe5b90506020020160208101906113cb9190614064565b6001600160a01b0316145b6113f25760405162461bcd60e51b81526004016102f690614f8b565b60006113fc612892565b9050600061140987610970565b6010546040516307c0329d60e21b81529192506060916001600160a01b0390911690631f00ca74906114439085908a908a906004016155c0565b60006040518083038186803b15801561145b57600080fd5b505afa15801561146f573d6000803e3d6000fd5b505050506040513d6000823e601f3d908101601f191682016040526114979190810190614396565b90506000816000815181106114a857fe5b60200260200101511180156114d1575086816000815181106114c657fe5b602002602001015111155b6114ed5760405162461bcd60e51b81526004016102f690614ffd565b858560008181106114fa57fe5b905060200201602081019061150f9190614064565b6001600160a01b03166323b872dd84308460008151811061152c57fe5b60200260200101516040518463ffffffff1660e01b815260040161155293929190614797565b602060405180830381600087803b15801561156c57600080fd5b505af1158015611580573d6000803e3d6000fd5b505050506040513d601f19601f820116820180604052508101906115a49190614425565b6115ad57600080fd5b858560008181106115ba57fe5b90506020020160208101906115cf9190614064565b60105482516001600160a01b039283169263095ea7b392169084906000906115f357fe5b60200260200101516040518363ffffffff1660e01b8152600401611618929190614852565b602060405180830381600087803b15801561163257600080fd5b505af1158015611646573d6000803e3d6000fd5b505050506040513d601f19601f8201168201806040525081019061166a9190614425565b61167357600080fd5b60105481516060916001600160a01b031690638803dbee908590859060009061169857fe5b60200260200101518a8a30426064016040518763ffffffff1660e01b81526004016116c89695949392919061564b565b600060405180830381600087803b1580156116e257600080fd5b505af11580156116f6573d6000803e3d6000fd5b505050506040513d6000823e601f3d908101601f1916820160405261171e9190810190614396565b90508160008151811061172d57fe5b60200260200101518160008151811061174257fe5b60200260200101511015611836578686600081811061175d57fe5b90506020020160208101906117729190614064565b6001600160a01b03166323b872dd30866117bd8560008151811061179257fe5b6020026020010151876000815181106117a757fe5b6020026020010151612eb390919063ffffffff16565b6040518463ffffffff1660e01b81526004016117db93929190614797565b602060405180830381600087803b1580156117f557600080fd5b505af1158015611809573d6000803e3d6000fd5b505050506040513d601f19601f8201168201806040525081019061182d9190614425565b61183657600080fd5b6118418984866129ca565b5050600160085550505050505050565b60156020526000908152604090205481565b600b5460ff166118855760405162461bcd60e51b81526004016102f690614f0c565b6001611898611892612892565b836108f4565b10156118b65760405162461bcd60e51b81526004016102f6906151de565b60006118c182612164565b6000838152601360205260409020805460001901905590506118ec6118e4612892565b836001612ef5565b6118f4612892565b6001600160a01b03167f7f189ad2df0843ce2bba34028497b567ecb15a53dbfb381e8b7a3f1d5ca87d71838361192986610970565b61193287612164565b6000888152601360205260409081902054600e5491516370a0823160e01b815290916001600160a01b0316906370a0823190611972903090600401614783565b60206040518083038186803b15801561198a57600080fd5b505afa15801561199e573d6000803e3d6000fd5b505050506040513d601f19601f820116820180604052508101906119c29190614550565b6040516119d496959493929190615689565b60405180910390a2600e546001600160a01b031663e2b8e7d3306119f6612892565b846040518463ffffffff1660e01b8152600401611a1593929190614797565b600060405180830381600087803b158015611a2f57600080fd5b505af11580156111f9573d6000803e3d6000fd5b60608151835114611a665760405162461bcd60e51b81526004016102f6906153f4565b606083516001600160401b0381118015611a7f57600080fd5b50604051908082528060200260200182016040528015611aa9578160200160208202803683370190505b50905060005b8451811015611b7a5760006001600160a01b0316858281518110611acf57fe5b60200260200101516001600160a01b03161415611afe5760405162461bcd60e51b81526004016102f690614c19565b60016000858381518110611b0e57fe5b602002602001015181526020019081526020016000206000868381518110611b3257fe5b60200260200101516001600160a01b03166001600160a01b0316815260200190815260200160002054828281518110611b6757fe5b6020908102919091010152600101611aaf565b509392505050565b611bae7ff6e33f9720e4529cb1c710e3344dc00830589a3239198ffa39b07117085d250e610710612892565b611bb757600080fd5b8051611245906006906020840190613ec7565b611bf67ff6e33f9720e4529cb1c710e3344dc00830589a3239198ffa39b07117085d250e610710612892565b611bff57600080fd5b60008181526007602090815260409091208351611c1e92850190613ec7565b505050565b6010546001600160a01b031681565b600f546001600160a01b031681565b60026008541415611c645760405162461bcd60e51b81526004016102f6906154c6565b6002600855600b548490610100900460ff16611c925760405162461bcd60e51b81526004016102f69061552b565b60008181526012602052604090205442118015611cbc575060008181526012602052604090205415155b611cd85760405162461bcd60e51b81526004016102f690614e9e565b4360166000611ce5612892565b6001600160a01b03166001600160a01b031681526020019081526020016000205410611d1057600080fd5b4360166000611d1d612892565b6001600160a01b03168152602081019190915260400160002055600182118015611d7e5750600e546001600160a01b031683836000198101818110611d5e57fe5b9050602002016020810190611d739190614064565b6001600160a01b0316145b611d9a5760405162461bcd60e51b81526004016102f690614f8b565b6000611da4612892565b90506000611db187610970565b6010546040516307c0329d60e21b81529192506060916001600160a01b0390911690631f00ca7490611deb9085908a908a906004016155c0565b60006040518083038186803b158015611e0357600080fd5b505afa158015611e17573d6000803e3d6000fd5b505050506040513d6000823e601f3d908101601f19168201604052611e3f9190810190614396565b9050600081600081518110611e5057fe5b6020026020010151118015611e7957508681600081518110611e6e57fe5b602002602001015111155b611e955760405162461bcd60e51b81526004016102f690614ffd565b80600081518110611ea257fe5b6020026020010151341015611ec95760405162461bcd60e51b81526004016102f690614b8a565b60105481516060916001600160a01b03169063fb3bdb41908490600090611eec57fe5b6020026020010151858a8a30426064016040518763ffffffff1660e01b8152600401611f1c9594939291906155da565b6000604051808303818588803b158015611f3557600080fd5b505af1158015611f49573d6000803e3d6000fd5b50505050506040513d6000823e601f3d908101601f19168201604052611f729190810190614396565b90503481600081518110611f8257fe5b60200260200101511015611836576000846001600160a01b0316611fc383600081518110611fac57fe5b602002602001015134612eb390919063ffffffff16565b604051611fcf906128ed565b60006040518083038185875af1925050503d806000811461200c576040519150601f19603f3d011682016040523d82523d6000602084013e612011565b606091505b505090508061201f57600080fd5b506118418984866129ca565b600082815260056020526040812061098c908361300b565b600082815260056020526040812061098c9083613017565b600081565b816001600160a01b0316612072612892565b6001600160a01b031614156120995760405162461bcd60e51b81526004016102f6906153ab565b80600360006120a6612892565b6001600160a01b03908116825260208083019390935260409182016000908120918716808252919093529120805460ff1916921515929092179091556120ea612892565b6001600160a01b03167f17307eab39ab6107e8899845ad3d59bd9653f200f220920489ca2b5937696c31836040516121229190614993565b60405180910390a35050565b60146020526000908152604090205481565b7ff6e33f9720e4529cb1c710e3344dc00830589a3239198ffa39b07117085d250e81565b60008181526013602052604081205461098c6064610f78605a610fbd8786610f40565b6000848152601560205260409020805460010190819055620f424081106121c05760405162461bcd60e51b81526004016102f6906154fd565b6000831180156121d1575060148311155b80156121dd5750600082115b80156121ec5750620f42408211155b6122085760405162461bcd60e51b81526004016102f690614c6a565b60018451116122295760405162461bcd60e51b81526004016102f690614de2565b600f546001600160a01b0316634ba3d74886612243612892565b6040518363ffffffff1660e01b81526004016122609291906155a9565b602060405180830381600087803b15801561227a57600080fd5b505af115801561228e573d6000803e3d6000fd5b505050506040513d601f19601f820116820180604052508101906122b29190614425565b15156001146122d35760405162461bcd60e51b81526004016102f6906152b7565b60006122df8683610cc9565b6000818152601160209081526040808320889055601490915290819020859055519091507f855f2403a3717b569ca6483cb3250554954ef4734871df9005e45eb9bffce8cf90612336908390889088908890615611565b60405180910390a1505050505050565b6123536000610710612892565b61235c57600080fd5b601080546001600160a01b0319166001600160a01b0392909216919091179055565b600e546001600160a01b031681565b60008181526005602052604081206109419061302c565b6000828152600560205260409020600201546123c290610710612892565b61128f5760405162461bcd60e51b81526004016102f690614f3b565b6123eb6000610710612892565b6123f457600080fd5b6123fc613f45565b6040518060600160405280856001600160a01b0316815260200184600281111561242257fe5b815260200183905260408051600180825281830190925291925060609190816020015b61244d613f45565b815260200190600190039081612445579050509050818160008151811061247057fe5b602090810291909101810191909152604080516000808252928101909152610e62918391613037565b60009081526002602052604090205460ff1690565b600060095485816124bb57fe5b0490506124c785612499565b156124e45760405162461bcd60e51b81526004016102f690614ed5565b600f546001600160a01b0316634ba3d748826124fe612892565b6040518363ffffffff1660e01b815260040161251b9291906155a9565b602060405180830381600087803b15801561253557600080fd5b505af1158015612549573d6000803e3d6000fd5b505050506040513d601f19601f8201168201806040525081019061256d9190614425565b151560011461258e5760405162461bcd60e51b81526004016102f6906152b7565b60008311801561259f575060148311155b80156125ab5750600082115b80156125ba5750620f42408211155b6125d65760405162461bcd60e51b81526004016102f690614d80565b60018451116125f75760405162461bcd60e51b81526004016102f690614de2565b6000858152601160205260409020546126225760405162461bcd60e51b81526004016102f690614db7565b6000858152601160209081526040808320869055601490915290819020839055517f855f2403a3717b569ca6483cb3250554954ef4734871df9005e45eb9bffce8cf90612676908790879087908790615611565b60405180910390a15050505050565b6001600160a01b03918216600090815260036020908152604080832093909416825291909152205460ff1690565b60126020526000908152604090205481565b6001600160a01b0384166126eb5760405162461bcd60e51b81526004016102f690615059565b6126f3612892565b6001600160a01b0316856001600160a01b031614806127195750612719856108af612892565b6127355760405162461bcd60e51b81526004016102f690614e0e565b600061273f612892565b905061275f818787612750886131ba565b612759886131ba565b876111f9565b6127a6836040518060600160405280602a815260200161588f602a913960008781526001602090815260408083206001600160a01b038d1684529091529020549190612c9e565b60008581526001602090815260408083206001600160a01b038b811685529252808320939093558716815220546127dd9084612c79565b60008581526001602090815260408083206001600160a01b03808b168086529190935292819020939093559151909188811691908416907fc3d58168c5ae7397731d063d5bbf3d657854427343f4c083240f7aacaa2d0f6290612843908990899061563d565b60405180910390a46111f98187878787876131fe565b7fc8fcad8db84d3cc18b4c41d551ea0ee66dd599cde068d998e57d5e09332c131c90565b600061098c836001600160a01b0384166132cf565b6000333014156128ea5760606000368080601f0160208091040260200160405190810160405280939291908181526020018383808284376000920191909152505050503601516001600160a01b031691506128ed9050565b50335b90565b60608161291557506040805180820190915260018152600360fc1b602082015261096b565b8160005b811561292d57600101600a82049150612919565b6060816001600160401b038111801561294557600080fd5b506040519080825280601f01601f191660200182016040528015612970576020820181803683370190505b50859350905060001982015b83156129c157600a840660300160f81b8282806001900393508151811061299f57fe5b60200101906001600160f81b031916908160001a905350600a8404935061297c565b50949350505050565b600060095484816129d757fe5b04905060006129e7846032612c37565b905060006129f6826004612bfd565b6000878152601360209081526040808320805460019081019091558151928301909152918152919250612a2c9186918991613319565b826001600160a01b0316846001600160a01b03167fa8f60c2735df0121f6c1fb70fdc37e927e3b21f7266de2beeace3ed35b8634d08888612a6c8b610970565b612a758c612164565b60008d8152601360205260409081902054600e5491516370a0823160e01b815290918a916001600160a01b03909116906370a0823190612ab9903090600401614783565b60206040518083038186803b158015612ad157600080fd5b505afa158015612ae5573d6000803e3d6000fd5b505050506040513d601f19601f82011682018060405250810190612b099190614550565b604051612b1c97969594939291906156b1565b60405180910390a3600e54600d5460405163e2b8e7d360e01b81526001600160a01b039283169263e2b8e7d392612b5d923092909116908790600401614797565b600060405180830381600087803b158015612b7757600080fd5b505af1158015612b8b573d6000803e3d6000fd5b5050600e5460405163e2b8e7d360e01b81526001600160a01b03909116925063e2b8e7d39150612bc390309087908690600401614797565b600060405180830381600087803b158015612bdd57600080fd5b505af1158015612bf1573d6000803e3d6000fd5b50505050505050505050565b600082612c0c57506000610941565b82820282848281612c1957fe5b041461098c5760405162461bcd60e51b81526004016102f690615221565b600061098c83836040518060400160405280601a81526020017f536166654d6174683a206469766973696f6e206279207a65726f00000000000081525061342d565b60008282018381101561098c5760405162461bcd60e51b81526004016102f690614d49565b60008184841115612cc25760405162461bcd60e51b81526004016102f691906149a7565b505050900390565b612cdc846001600160a01b0316613464565b156111f95760405163bc197c8160e01b81526001600160a01b0385169063bc197c8190612d1590899089908890889088906004016147bb565b602060405180830381600087803b158015612d2f57600080fd5b505af1925050508015612d5f575060408051601f3d908101601f19168201909252612d5c918101906144b8565b60015b612da857612d6b615753565b80612d765750612d90565b8060405162461bcd60e51b81526004016102f691906149a7565b60405162461bcd60e51b81526004016102f6906149ba565b6001600160e01b0319811663bc197c8160e01b14612dd85760405162461bcd60e51b81526004016102f690614aad565b50505050505050565b6000828152600560205260409020612df9908261287d565b1561124557612e06612892565b6001600160a01b0316816001600160a01b0316837f2f8788117e7eff1d82e926ec794901d17c78024a50270940304540a733656f0d60405160405180910390a45050565b6000828152600560205260409020612e62908261346a565b1561124557612e6f612892565b6001600160a01b0316816001600160a01b0316837ff6391f5c32d9c69d2a47ea670b442974b53935d1edc7fd64eb21e047a839171b60405160405180910390a45050565b600061098c83836040518060400160405280601e81526020017f536166654d6174683a207375627472616374696f6e206f766572666c6f770000815250612c9e565b6001600160a01b038316612f1b5760405162461bcd60e51b81526004016102f69061514d565b6000612f25612892565b9050612f5581856000612f37876131ba565b612f40876131ba565b604051806020016040528060008152506111f9565b612f9c8260405180606001604052806024815260200161581f6024913960008681526001602090815260408083206001600160a01b038b1684529091529020549190612c9e565b60008481526001602090815260408083206001600160a01b03808a16808652919093528184209490945551919291908416907fc3d58168c5ae7397731d063d5bbf3d657854427343f4c083240f7aacaa2d0f6290612ffd908890889061563d565b60405180910390a450505050565b600061098c838361347f565b600061098c836001600160a01b0384166134c4565b6000610941826134dc565b60005b835181101561317457600084828151811061305157fe5b60200260200101516020015190506000600281111561306c57fe5b81600281111561307857fe5b14156130bb576130b685838151811061308d57fe5b6020026020010151600001518684815181106130a557fe5b6020026020010151604001516134e0565b61316b565b60018160028111156130c957fe5b1415613107576130b68583815181106130de57fe5b6020026020010151600001518684815181106130f657fe5b6020026020010151604001516136da565b600281600281111561311557fe5b1415613153576130b685838151811061312a57fe5b60200260200101516000015186848151811061314257fe5b6020026020010151604001516138f0565b60405162461bcd60e51b81526004016102f690614e57565b5060010161303a565b507f8faa70878671ccd212d20771b795c50af8fd3ff6cf27f4bde57e5d4de0aeb6738383836040516131a89392919061486b565b60405180910390a1611c1e82826139aa565b6040805160018082528183019092526060918291906020808301908036833701905050905082816000815181106131ed57fe5b602090810291909101015292915050565b613210846001600160a01b0316613464565b156111f95760405163f23a6e6160e01b81526001600160a01b0385169063f23a6e6190613249908990899088908890889060040161480d565b602060405180830381600087803b15801561326357600080fd5b505af1925050508015613293575060408051601f3d908101601f19168201909252613290918101906144b8565b60015b61329f57612d6b615753565b6001600160e01b0319811663f23a6e6160e01b14612dd85760405162461bcd60e51b81526004016102f690614aad565b60006132db83836134c4565b61331157508154600181810184556000848152602080822090930184905584548482528286019093526040902091909155610941565b506000610941565b6001600160a01b03841661333f5760405162461bcd60e51b81526004016102f690615485565b60008381526002602052604090205460ff1661336f576000838152600260205260409020805460ff191660011790555b6000613379612892565b905061338b81600087612750886131ba565b60008481526001602090815260408083206001600160a01b03891684529091529020546133b89084612c79565b60008581526001602090815260408083206001600160a01b03808b16808652919093528184209490945551908416907fc3d58168c5ae7397731d063d5bbf3d657854427343f4c083240f7aacaa2d0f6290613416908990899061563d565b60405180910390a4610e62816000878787876131fe565b6000818361344e5760405162461bcd60e51b81526004016102f691906149a7565b50600083858161345a57fe5b0495945050505050565b3b151590565b600061098c836001600160a01b038416613ace565b815460009082106134a25760405162461bcd60e51b81526004016102f690614a0e565b8260000182815481106134b157fe5b9060005260206000200154905092915050565b60009081526001919091016020526040902054151590565b5490565b60008151116135015760405162461bcd60e51b81526004016102f690614ca1565b600061350b612859565b90506001600160a01b0383166135335760405162461bcd60e51b81526004016102f690614fb1565b6001600160a01b038316600090815260018201602052604090205461ffff81166135d5576135798460405180606001604052806024815260200161586b60249139613b94565b6002820180546001600160a01b038616600081815260018087016020908152604083208201805461ffff191661ffff90961695909517909455845490810185559381529190912090910180546001600160a01b03191690911790555b60005b8351811015610e625760008482815181106135ef57fe5b6020908102919091018101516001600160e01b031981166000908152918690526040909120549091506001600160a01b0316801561363f5760405162461bcd60e51b81526004016102f690615262565b506001600160a01b0386166000818152600186810160209081526040808420805480850182559085528285206008820401805463ffffffff60079093166004026101000a928302191660e089901c929092029190911790556001600160e01b0319909516835287905292902080546001600160a01b03191690911761ffff60a01b1916600160a01b61ffff86160217905591820191016135d8565b60008151116136fb5760405162461bcd60e51b81526004016102f690614ca1565b6000613705612859565b90506001600160a01b03831661372d5760405162461bcd60e51b81526004016102f690614fb1565b6001600160a01b038316600090815260018201602052604090205461ffff81166137cf576137738460405180606001604052806024815260200161586b60249139613b94565b6002820180546001600160a01b038616600081815260018087016020908152604083208201805461ffff191661ffff90961695909517909455845490810185559381529190912090910180546001600160a01b03191690911790555b60005b8351811015610e625760008482815181106137e957fe5b6020908102919091018101516001600160e01b031981166000908152918690526040909120549091506001600160a01b0390811690871681141561383f5760405162461bcd60e51b81526004016102f6906152f8565b6138498183613bb5565b506001600160e01b03198116600081815260208681526040808320805461ffff60a01b1916600160a01b61ffff8a16021781556001600160a01b038b168085526001808b018552928520805480850182559086528486206008820401805463ffffffff60079093166004026101000a928302191660e09990991c91909102979097179096559390925286905281546001600160a01b031916909217905591820191016137d2565b60008151116139115760405162461bcd60e51b81526004016102f690614ca1565b600061391b612859565b90506001600160a01b038316156139445760405162461bcd60e51b81526004016102f690615355565b60005b82518110156139a457600083828151811061395e57fe5b6020908102919091018101516001600160e01b031981166000908152918590526040909120549091506001600160a01b031661399a8183613bb5565b5050600101613947565b50505050565b6001600160a01b0382166139dc578051156139d75760405162461bcd60e51b81526004016102f690614a50565b611245565b60008151116139fd5760405162461bcd60e51b81526004016102f6906150f0565b6001600160a01b0382163014613a2f57613a2f8260405180606001604052806028815260200161584360289139613b94565b60006060836001600160a01b031683604051613a4b91906146e6565b600060405180830381855af49150503d8060008114613a86576040519150601f19603f3d011682016040523d82523d6000602084013e613a8b565b606091505b5091509150816139a457805115613ab6578060405162461bcd60e51b81526004016102f691906149a7565b60405162461bcd60e51b81526004016102f690614af5565b60008181526001830160205260408120548015613b8a5783546000198083019190810190600090879083908110613b0157fe5b9060005260206000200154905080876000018481548110613b1e57fe5b600091825260208083209091019290925582815260018981019092526040902090840190558654879080613b4e57fe5b60019003818190600052602060002001600090559055866001016000878152602001908152602001600020600090556001945050505050610941565b6000915050610941565b813b81816139a45760405162461bcd60e51b81526004016102f691906149a7565b6000613bbf612859565b90506001600160a01b038316613be75760405162461bcd60e51b81526004016102f690614cec565b6001600160a01b038316301415613c105760405162461bcd60e51b81526004016102f690615190565b6001600160e01b03198216600090815260208281526040808320546001600160a01b03871684526001850190925290912054600160a01b90910461ffff169060001901808214613d31576001600160a01b03851660009081526001840160205260408120805483908110613c8057fe5b600091825260208083206008830401546001600160a01b038a168452600188019091526040909220805460079092166004026101000a90920460e01b925082919085908110613ccb57fe5b600091825260208083206008830401805463ffffffff60079094166004026101000a938402191660e09590951c929092029390931790556001600160e01b031992909216825284905260409020805461ffff60a01b1916600160a01b61ffff8516021790555b6001600160a01b03851660009081526001840160205260409020805480613d5457fe5b60008281526020808220600860001990940193840401805463ffffffff600460078716026101000a0219169055919092556001600160e01b0319861682528490526040902080546001600160b01b031916905580610e625760028301546001600160a01b03861660009081526001858101602052604090912001546000199091019061ffff16808214613e68576000856002018381548110613df257fe5b6000918252602090912001546002870180546001600160a01b039092169250829184908110613e1d57fe5b600091825260208083209190910180546001600160a01b0319166001600160a01b0394851617905592909116815260018781019092526040902001805461ffff191661ffff83161790555b84600201805480613e7557fe5b60008281526020808220830160001990810180546001600160a01b03191690559092019092556001600160a01b03891682526001878101909152604090912001805461ffff1916905550505050505050565b828054600181600116156101000203166002900490600052602060002090601f016020900481019282601f10613f0857805160ff1916838001178555613f35565b82800160010185558215613f35579182015b82811115613f35578251825591602001919060010190613f1a565b50613f41929150613f64565b5090565b6040805160608082018352600080835260208301529181019190915290565b5b80821115613f415760008155600101613f65565b80356001600160a01b038116811461096b57600080fd5b600082601f830112613fa0578081fd5b8135613fb3613fae82615704565b6156e1565b818152915060208083019084810181840286018201871015613fd457600080fd5b60005b84811015613ff357813584529282019290820190600101613fd7565b505050505092915050565b600082601f83011261400e578081fd5b81356001600160401b0381111561402157fe5b614034601f8201601f19166020016156e1565b915080825283602082850101111561404b57600080fd5b8060208401602084013760009082016020015292915050565b600060208284031215614075578081fd5b61098c82613f79565b60008060408385031215614090578081fd5b61409983613f79565b91506140a760208401613f79565b90509250929050565b600080600080600060a086880312156140c7578081fd5b6140d086613f79565b94506140de60208701613f79565b935060408601356001600160401b03808211156140f9578283fd5b61410589838a01613f90565b9450606088013591508082111561411a578283fd5b61412689838a01613f90565b9350608088013591508082111561413b578283fd5b5061414888828901613ffe565b9150509295509295909350565b600080600080600060a0868803121561416c578081fd5b61417586613f79565b945061418360208701613f79565b9350604086013592506060860135915060808601356001600160401b038111156141ab578182fd5b61414888828901613ffe565b600080604083850312156141c9578182fd5b6141d283613f79565b915060208301356141e2816157f7565b809150509250929050565b600080600060608486031215614201578081fd5b61420a84613f79565b92506020808501356003811061421e578283fd5b925060408501356001600160401b03811115614238578283fd5b8501601f81018713614248578283fd5b8035614256613fae82615704565b81815283810190838501858402850186018b1015614272578687fd5b8694505b8385101561429d57803561428981615808565b835260019490940193918501918501614276565b5080955050505050509250925092565b600080604083850312156142bf578182fd5b6142c883613f79565b946020939093013593505050565b600080604083850312156142e8578182fd5b82356001600160401b03808211156142fe578384fd5b818501915085601f830112614311578384fd5b813561431f613fae82615704565b80828252602080830192508086018a82838702890101111561433f578889fd5b8896505b848710156143685761435481613f79565b845260019690960195928101928101614343565b50909650870135935050508082111561437f578283fd5b5061438c85828601613f90565b9150509250929050565b600060208083850312156143a8578182fd5b82516001600160401b038111156143bd578283fd5b8301601f810185136143cd578283fd5b80516143db613fae82615704565b81815283810190838501858402850186018910156143f7578687fd5b8694505b838510156144195780518352600194909401939185019185016143fb565b50979650505050505050565b600060208284031215614436578081fd5b815161098c816157f7565b600060208284031215614452578081fd5b5035919050565b6000806040838503121561446b578182fd5b823591506140a760208401613f79565b6000806040838503121561448d578182fd5b50508035926020909101359150565b6000602082840312156144ad578081fd5b813561098c81615808565b6000602082840312156144c9578081fd5b815161098c81615808565b6000602082840312156144e5578081fd5b81356001600160401b038111156144fa578182fd5b61450684828501613ffe565b949350505050565b60008060408385031215614520578182fd5b82356001600160401b03811115614535578283fd5b61454185828601613ffe565b95602094909401359450505050565b600060208284031215614561578081fd5b5051919050565b6000806000806080858703121561457d578182fd5b8435935060208501356001600160401b03811115614599578283fd5b6145a587828801613ffe565b949794965050505060408301359260600135919050565b600080600080606085870312156145d1578182fd5b843593506020850135925060408501356001600160401b03808211156145f5578384fd5b818701915087601f830112614608578384fd5b813581811115614616578485fd5b8860208083028501011115614629578485fd5b95989497505060200194505050565b6001600160a01b03169052565b60008284526020808501945082825b85811015614680576001600160a01b0361466d83613f79565b1687529582019590820190600101614654565b509495945050505050565b6000815180845260208085019450808401835b838110156146805781518752958201959082019060010161469e565b600081518084526146d2816020860160208601615721565b601f01601f19169290920160200192915050565b600082516146f8818460208701615721565b9190910192915050565b6000808454600180821660008114614721576001811461473857614767565b60ff198316865260028304607f1686019350614767565b600283048886526020808720875b8381101561475f5781548a820152908501908201614746565b505050860193505b505050835161477a818360208801615721565b01949350505050565b6001600160a01b0391909116815260200190565b6001600160a01b039384168152919092166020820152604081019190915260600190565b6001600160a01b0386811682528516602082015260a0604082018190526000906147e79083018661468b565b82810360608401526147f9818661468b565b90508281036080840152610fdb81856146ba565b6001600160a01b03868116825285166020820152604081018490526060810183905260a060808201819052600090614847908301846146ba565b979650505050505050565b6001600160a01b03929092168252602082015260400190565b606080825284518282018190526000919060809081850190602080820287018401818b01875b8481101561492357898303607f19018652815180516001600160a01b031684528481015189850190600381106148c357fe5b858701526040918201519185018a9052815190819052908501908a90898601905b8083101561490e5783516001600160e01b03191682529287019260019290920191908701906148e4565b50978601979450505090830190600101614891565b50506149318289018b614638565b8781036040890152614943818a6146ba565b9b9a5050505050505050505050565b60006020825261098c602083018461468b565b600060408252614978604083018561468b565b828103602084015261498a818561468b565b95945050505050565b901515815260200190565b90815260200190565b60006020825261098c60208301846146ba565b60208082526034908201527f455243313135353a207472616e7366657220746f206e6f6e20455243313135356040820152732932b1b2b4bb32b91034b6b83632b6b2b73a32b960611b606082015260800190565b60208082526022908201527f456e756d657261626c655365743a20696e646578206f7574206f6620626f756e604082015261647360f01b606082015260800190565b6020808252603c908201527f4c69624469616d6f6e644375743a205f696e697420697320616464726573732860408201527f3029206275745f63616c6c64617461206973206e6f7420656d70747900000000606082015260800190565b60208082526028908201527f455243313135353a204552433131353552656365697665722072656a656374656040820152676420746f6b656e7360c01b606082015260800190565b60208082526026908201527f4c69624469616d6f6e644375743a205f696e69742066756e6374696f6e2072656040820152651d995c9d195960d21b606082015260800190565b6020808252602f908201527f416363657373436f6e74726f6c3a2073656e646572206d75737420626520616e60408201526e0818591b5a5b881d1bc819dc985b9d608a1b606082015260800190565b60208082526024908201527f6275794e4654776974684d617469633a2076616c7565206973206e6f7420656e6040820152630deeaced60e31b606082015260800190565b6020808252602b908201527f455243313135353a2062616c616e636520717565727920666f7220746865207a60408201526a65726f206164647265737360a81b606082015260800190565b60208082526031908201527f455243313135353a2062617463682062616c616e636520717565727920666f7260408201527020746865207a65726f206164647265737360781b606082015260800190565b6020808252601d908201527f696e76616c696420637572766520616e64206d756c7469706c69657273000000604082015260600190565b6020808252602b908201527f4c69624469616d6f6e644375743a204e6f2073656c6563746f727320696e206660408201526a1858d95d081d1bc818dd5d60aa1b606082015260800190565b60208082526037908201527f4c69624469616d6f6e644375743a2043616e27742072656d6f76652066756e6360408201527f74696f6e207468617420646f65736e2774206578697374000000000000000000606082015260800190565b6020808252601b908201527f536166654d6174683a206164646974696f6e206f766572666c6f770000000000604082015260600190565b6020808252601c908201527f696e76616c6964206375727665206f72206d756c7469706c6965727300000000604082015260600190565b60208082526011908201527018dd5c9d99481b5d5cdd081899481cd95d607a1b604082015260600190565b6020808252601290820152711a9cdbdb881b5d5cdd081b9bdb881b9d5b1b60721b604082015260600190565b60208082526029908201527f455243313135353a2063616c6c6572206973206e6f74206f776e6572206e6f7260408201526808185c1c1c9bdd995960ba1b606082015260800190565b60208082526027908201527f4c69624469616d6f6e644375743a20496e636f727265637420466163657443756040820152663a20b1ba34b7b760c91b606082015260800190565b60208082526018908201527f73616c6520686173206e6f742073746172746564207965740000000000000000604082015260600190565b60208082526019908201527f746f6b656e20686173206e6f74206265656e206d696e74656400000000000000604082015260600190565b6020808252601590820152746275726e696e67206973206e6f742061637469766560581b604082015260600190565b60208082526030908201527f416363657373436f6e74726f6c3a2073656e646572206d75737420626520616e60408201526f2061646d696e20746f207265766f6b6560801b606082015260800190565b6020808252600c908201526b0d2dcecc2d8d2c840e0c2e8d60a31b604082015260600190565b6020808252602c908201527f4c69624469616d6f6e644375743a204164642066616365742063616e2774206260408201526b65206164647265737328302960a01b606082015260800190565b6020808252600d908201526c696e76616c696420707269636560981b604082015260600190565b6020808252818101527f4469616d6f6e643a2046756e6374696f6e20646f6573206e6f74206578697374604082015260600190565b60208082526025908201527f455243313135353a207472616e7366657220746f20746865207a65726f206164604082015264647265737360d81b606082015260800190565b60208082526032908201527f455243313135353a207472616e736665722063616c6c6572206973206e6f74206040820152711bdddb995c881b9bdc88185c1c1c9bdd995960721b606082015260800190565b6020808252603d908201527f4c69624469616d6f6e644375743a205f63616c6c6461746120697320656d707460408201527f7920627574205f696e6974206973206e6f742061646472657373283029000000606082015260800190565b60208082526023908201527f455243313135353a206275726e2066726f6d20746865207a65726f206164647260408201526265737360e81b606082015260800190565b6020808252602e908201527f4c69624469616d6f6e644375743a2043616e27742072656d6f766520696d6d7560408201526d3a30b1363290333ab731ba34b7b760911b606082015260800190565b60208082526023908201527f73656e646572206d7573742068617665206174206c65617374206f6e6520746f60408201526235b2b760e91b606082015260800190565b60208082526021908201527f536166654d6174683a206d756c7469706c69636174696f6e206f766572666c6f6040820152607760f81b606082015260800190565b60208082526035908201527f4c69624469616d6f6e644375743a2043616e2774206164642066756e6374696f6040820152746e207468617420616c72656164792065786973747360581b606082015260800190565b60208082526021908201527f73656e646572206d757374206265206f70657261746f72206f72206d696e696f6040820152603760f91b606082015260800190565b60208082526038908201527f4c69624469616d6f6e644375743a2043616e2774207265706c6163652066756e60408201527f6374696f6e20776974682073616d652066756e6374696f6e0000000000000000606082015260800190565b60208082526036908201527f4c69624469616d6f6e644375743a2052656d6f76652066616365742061646472604082015275657373206d757374206265206164647265737328302960501b606082015260800190565b60208082526029908201527f455243313135353a2073657474696e6720617070726f76616c20737461747573604082015268103337b91039b2b63360b91b606082015260800190565b60208082526029908201527f455243313135353a206163636f756e747320616e6420696473206c656e677468604082015268040dad2e6dac2e8c6d60bb1b606082015260800190565b60208082526028908201527f455243313135353a2069647320616e6420616d6f756e7473206c656e677468206040820152670dad2e6dac2e8c6d60c31b606082015260800190565b60208082526021908201527f455243313135353a206d696e7420746f20746865207a65726f206164647265736040820152607360f81b606082015260800190565b6020808252601f908201527f5265656e7472616e637947756172643a207265656e7472616e742063616c6c00604082015260600190565b60208082526014908201527306d617820746f6b656e206f6620313030303030360641b604082015260600190565b6020808252601590820152746d696e74696e67206973206e6f742061637469766560581b604082015260600190565b6020808252602f908201527f416363657373436f6e74726f6c3a2063616e206f6e6c792072656e6f756e636560408201526e103937b632b9903337b91039b2b63360891b606082015260800190565b9182526001600160a01b0316602082015260400190565b60008482526040602083015261498a604083018486614645565b6000868252608060208301526155f4608083018688614645565b6001600160a01b0394909416604083015250606001529392505050565b60008582526080602083015261562a60808301866146ba565b6040830194909452506060015292915050565b918252602082015260400190565b600087825286602083015260a0604083015261566b60a083018688614645565b6001600160a01b039490941660608301525060800152949350505050565b958652602086019490945260408501929092526060840152608083015260a082015260c00190565b968752602087019590955260408601939093526060850191909152608084015260a083015260c082015260e00190565b6040518181016001600160401b03811182821017156156fc57fe5b604052919050565b60006001600160401b0382111561571757fe5b5060209081020190565b60005b8381101561573c578181015183820152602001615724565b838111156139a45750506000910152565b60e01c90565b600060443d1015615763576128ed565b600481823e6308c379a0615777825161574d565b14615781576128ed565b6040513d600319016004823e80513d6001600160401b0381602484011181841117156157b057505050506128ed565b828401925082519150808211156157ca57505050506128ed565b503d830160208284010111156157e2575050506128ed565b601f01601f1916810160200160405291505090565b801515811461580557600080fd5b50565b6001600160e01b03198116811461580557600080fdfe455243313135353a206275726e20616d6f756e7420657863656564732062616c616e63654c69624469616d6f6e644375743a205f696e6974206164647265737320686173206e6f20636f64654c69624469616d6f6e644375743a204e657720666163657420686173206e6f20636f6465455243313135353a20696e73756666696369656e742062616c616e636520666f72207472616e73666572a26469706673582212201f4fc1d6bf5ea336270521190de915e0a048b19cb30bb19bec473bc56e7f817264736f6c63430007030033",
  "linkReferences": {},
  "deployedLinkReferences": {}
}