{
  "_format": "hh-sol-artifact-1",
  "contractName": "NFTbase",
  "sourceName": "contracts/BondedNFT.sol",
  "abi": [
    {
      "inputs": [
        {
          "internalType": "string",
          "name": "uri",
          "type": "string"
        }
      ],
      "stateMutability": "nonpayable",
      "type": "constructor"
    },
    {
      "anonymous": false,
      "inputs": [
        {
          "indexed": true,
          "internalType": "address",
          "name": "account",
          "type": "address"
        },
        {
          "indexed": true,
          "internalType": "address",
          "name": "operator",
          "type": "address"
        },
        {
          "indexed": false,
          "internalType": "bool",
          "name": "approved",
          "type": "bool"
        }
      ],
      "name": "ApprovalForAll",
      "type": "event"
    },
    {
      "anonymous": false,
      "inputs": [
        {
          "indexed": true,
          "internalType": "bytes32",
          "name": "role",
          "type": "bytes32"
        },
        {
          "indexed": true,
          "internalType": "bytes32",
          "name": "previousAdminRole",
          "type": "bytes32"
        },
        {
          "indexed": true,
          "internalType": "bytes32",
          "name": "newAdminRole",
          "type": "bytes32"
        }
      ],
      "name": "RoleAdminChanged",
      "type": "event"
    },
    {
      "anonymous": false,
      "inputs": [
        {
          "indexed": true,
          "internalType": "bytes32",
          "name": "role",
          "type": "bytes32"
        },
        {
          "indexed": true,
          "internalType": "address",
          "name": "account",
          "type": "address"
        },
        {
          "indexed": true,
          "internalType": "address",
          "name": "sender",
          "type": "address"
        }
      ],
      "name": "RoleGranted",
      "type": "event"
    },
    {
      "anonymous": false,
      "inputs": [
        {
          "indexed": true,
          "internalType": "bytes32",
          "name": "role",
          "type": "bytes32"
        },
        {
          "indexed": true,
          "internalType": "address",
          "name": "account",
          "type": "address"
        },
        {
          "indexed": true,
          "internalType": "address",
          "name": "sender",
          "type": "address"
        }
      ],
      "name": "RoleRevoked",
      "type": "event"
    },
    {
      "anonymous": false,
      "inputs": [
        {
          "indexed": true,
          "internalType": "address",
          "name": "operator",
          "type": "address"
        },
        {
          "indexed": true,
          "internalType": "address",
          "name": "from",
          "type": "address"
        },
        {
          "indexed": true,
          "internalType": "address",
          "name": "to",
          "type": "address"
        },
        {
          "indexed": false,
          "internalType": "uint256[]",
          "name": "ids",
          "type": "uint256[]"
        },
        {
          "indexed": false,
          "internalType": "uint256[]",
          "name": "values",
          "type": "uint256[]"
        }
      ],
      "name": "TransferBatch",
      "type": "event"
    },
    {
      "anonymous": false,
      "inputs": [
        {
          "indexed": true,
          "internalType": "address",
          "name": "operator",
          "type": "address"
        },
        {
          "indexed": true,
          "internalType": "address",
          "name": "from",
          "type": "address"
        },
        {
          "indexed": true,
          "internalType": "address",
          "name": "to",
          "type": "address"
        },
        {
          "indexed": false,
          "internalType": "uint256",
          "name": "id",
          "type": "uint256"
        },
        {
          "indexed": false,
          "internalType": "uint256",
          "name": "value",
          "type": "uint256"
        }
      ],
      "name": "TransferSingle",
      "type": "event"
    },
    {
      "anonymous": false,
      "inputs": [
        {
          "indexed": false,
          "internalType": "string",
          "name": "value",
          "type": "string"
        },
        {
          "indexed": true,
          "internalType": "uint256",
          "name": "id",
          "type": "uint256"
        }
      ],
      "name": "URI",
      "type": "event"
    },
    {
      "inputs": [],
      "name": "DEFAULT_ADMIN_ROLE",
      "outputs": [
        {
          "internalType": "bytes32",
          "name": "",
          "type": "bytes32"
        }
      ],
      "stateMutability": "view",
      "type": "function"
    },
    {
      "inputs": [],
      "name": "METADATA_ADMIN",
      "outputs": [
        {
          "internalType": "bytes32",
          "name": "",
          "type": "bytes32"
        }
      ],
      "stateMutability": "view",
      "type": "function"
    },
    {
      "inputs": [
        {
          "internalType": "uint256",
          "name": "",
          "type": "uint256"
        }
      ],
      "name": "_tokenURIs",
      "outputs": [
        {
          "internalType": "string",
          "name": "",
          "type": "string"
        }
      ],
      "stateMutability": "view",
      "type": "function"
    },
    {
      "inputs": [
        {
          "internalType": "address",
          "name": "account",
          "type": "address"
        },
        {
          "internalType": "uint256",
          "name": "id",
          "type": "uint256"
        }
      ],
      "name": "balanceOf",
      "outputs": [
        {
          "internalType": "uint256",
          "name": "",
          "type": "uint256"
        }
      ],
      "stateMutability": "view",
      "type": "function"
    },
    {
      "inputs": [
        {
          "internalType": "address[]",
          "name": "accounts",
          "type": "address[]"
        },
        {
          "internalType": "uint256[]",
          "name": "ids",
          "type": "uint256[]"
        }
      ],
      "name": "balanceOfBatch",
      "outputs": [
        {
          "internalType": "uint256[]",
          "name": "",
          "type": "uint256[]"
        }
      ],
      "stateMutability": "view",
      "type": "function"
    },
    {
      "inputs": [
        {
          "internalType": "bytes32",
          "name": "role",
          "type": "bytes32"
        }
      ],
      "name": "getRoleAdmin",
      "outputs": [
        {
          "internalType": "bytes32",
          "name": "",
          "type": "bytes32"
        }
      ],
      "stateMutability": "view",
      "type": "function"
    },
    {
      "inputs": [
        {
          "internalType": "bytes32",
          "name": "role",
          "type": "bytes32"
        },
        {
          "internalType": "uint256",
          "name": "index",
          "type": "uint256"
        }
      ],
      "name": "getRoleMember",
      "outputs": [
        {
          "internalType": "address",
          "name": "",
          "type": "address"
        }
      ],
      "stateMutability": "view",
      "type": "function"
    },
    {
      "inputs": [
        {
          "internalType": "bytes32",
          "name": "role",
          "type": "bytes32"
        }
      ],
      "name": "getRoleMemberCount",
      "outputs": [
        {
          "internalType": "uint256",
          "name": "",
          "type": "uint256"
        }
      ],
      "stateMutability": "view",
      "type": "function"
    },
    {
      "inputs": [
        {
          "internalType": "bytes32",
          "name": "role",
          "type": "bytes32"
        },
        {
          "internalType": "address",
          "name": "account",
          "type": "address"
        }
      ],
      "name": "grantRole",
      "outputs": [],
      "stateMutability": "nonpayable",
      "type": "function"
    },
    {
      "inputs": [
        {
          "internalType": "uint256",
          "name": "id",
          "type": "uint256"
        }
      ],
      "name": "hasMinted",
      "outputs": [
        {
          "internalType": "bool",
          "name": "",
          "type": "bool"
        }
      ],
      "stateMutability": "view",
      "type": "function"
    },
    {
      "inputs": [
        {
          "internalType": "bytes32",
          "name": "role",
          "type": "bytes32"
        },
        {
          "internalType": "address",
          "name": "account",
          "type": "address"
        }
      ],
      "name": "hasRole",
      "outputs": [
        {
          "internalType": "bool",
          "name": "",
          "type": "bool"
        }
      ],
      "stateMutability": "view",
      "type": "function"
    },
    {
      "inputs": [
        {
          "internalType": "address",
          "name": "account",
          "type": "address"
        },
        {
          "internalType": "address",
          "name": "operator",
          "type": "address"
        }
      ],
      "name": "isApprovedForAll",
      "outputs": [
        {
          "internalType": "bool",
          "name": "",
          "type": "bool"
        }
      ],
      "stateMutability": "view",
      "type": "function"
    },
    {
      "inputs": [
        {
          "internalType": "bytes32",
          "name": "role",
          "type": "bytes32"
        },
        {
          "internalType": "address",
          "name": "account",
          "type": "address"
        }
      ],
      "name": "renounceRole",
      "outputs": [],
      "stateMutability": "nonpayable",
      "type": "function"
    },
    {
      "inputs": [
        {
          "internalType": "bytes32",
          "name": "role",
          "type": "bytes32"
        },
        {
          "internalType": "address",
          "name": "account",
          "type": "address"
        }
      ],
      "name": "revokeRole",
      "outputs": [],
      "stateMutability": "nonpayable",
      "type": "function"
    },
    {
      "inputs": [
        {
          "internalType": "address",
          "name": "from",
          "type": "address"
        },
        {
          "internalType": "address",
          "name": "to",
          "type": "address"
        },
        {
          "internalType": "uint256[]",
          "name": "ids",
          "type": "uint256[]"
        },
        {
          "internalType": "uint256[]",
          "name": "amounts",
          "type": "uint256[]"
        },
        {
          "internalType": "bytes",
          "name": "data",
          "type": "bytes"
        }
      ],
      "name": "safeBatchTransferFrom",
      "outputs": [],
      "stateMutability": "nonpayable",
      "type": "function"
    },
    {
      "inputs": [
        {
          "internalType": "address",
          "name": "from",
          "type": "address"
        },
        {
          "internalType": "address",
          "name": "to",
          "type": "address"
        },
        {
          "internalType": "uint256",
          "name": "id",
          "type": "uint256"
        },
        {
          "internalType": "uint256",
          "name": "amount",
          "type": "uint256"
        },
        {
          "internalType": "bytes",
          "name": "data",
          "type": "bytes"
        }
      ],
      "name": "safeTransferFrom",
      "outputs": [],
      "stateMutability": "nonpayable",
      "type": "function"
    },
    {
      "inputs": [
        {
          "internalType": "address",
          "name": "operator",
          "type": "address"
        },
        {
          "internalType": "bool",
          "name": "approved",
          "type": "bool"
        }
      ],
      "name": "setApprovalForAll",
      "outputs": [],
      "stateMutability": "nonpayable",
      "type": "function"
    },
    {
      "inputs": [
        {
          "internalType": "string",
          "name": "newuri",
          "type": "string"
        }
      ],
      "name": "setBaseURI",
      "outputs": [],
      "stateMutability": "nonpayable",
      "type": "function"
    },
    {
      "inputs": [
        {
          "internalType": "string",
          "name": "newuri",
          "type": "string"
        },
        {
          "internalType": "uint256",
          "name": "id",
          "type": "uint256"
        }
      ],
      "name": "setURI",
      "outputs": [],
      "stateMutability": "nonpayable",
      "type": "function"
    },
    {
      "inputs": [
        {
          "internalType": "bytes4",
          "name": "interfaceId",
          "type": "bytes4"
        }
      ],
      "name": "supportsInterface",
      "outputs": [
        {
          "internalType": "bool",
          "name": "",
          "type": "bool"
        }
      ],
      "stateMutability": "view",
      "type": "function"
    },
    {
      "inputs": [
        {
          "internalType": "uint256",
          "name": "tokenid",
          "type": "uint256"
        }
      ],
      "name": "uri",
      "outputs": [
        {
          "internalType": "string",
          "name": "",
          "type": "string"
        }
      ],
      "stateMutability": "view",
      "type": "function"
    }
  ],
  "bytecode": "0x60806040523480156200001157600080fd5b50604051620024b2380380620024b2833981016040819052620000349162000335565b620000466301ffc9a760e01b620000cc565b62000058636cdb3d1360e11b620000cc565b6200006a6303a24d0760e21b620000cc565b6200008060006200007a62000127565b62000187565b620000af7ff6e33f9720e4529cb1c710e3344dc00830589a3239198ffa39b07117085d250e6200007a62000127565b8051620000c490600690602084019062000299565b50506200042b565b6001600160e01b03198082161415620001025760405162461bcd60e51b8152600401620000f990620003f4565b60405180910390fd5b6001600160e01b0319166000908152602081905260409020805460ff19166001179055565b600033301415620001815760606000368080601f0160208091040260200160405190810160405280939291908181526020018383808284376000920191909152505050503601516001600160a01b03169150620001849050565b50335b90565b62000193828262000197565b5050565b6000828152600560209081526040909120620001be91839062000d3062000212821b17901c565b156200019357620001ce62000127565b6001600160a01b0316816001600160a01b0316837f2f8788117e7eff1d82e926ec794901d17c78024a50270940304540a733656f0d60405160405180910390a45050565b600062000229836001600160a01b03841662000232565b90505b92915050565b600062000240838362000281565b62000278575081546001818101845560008481526020808220909301849055845484825282860190935260409020919091556200022c565b5060006200022c565b60009081526001919091016020526040902054151590565b828054600181600116156101000203166002900490600052602060002090601f016020900481019282601f10620002dc57805160ff19168380011785556200030c565b828001600101855582156200030c579182015b828111156200030c578251825591602001919060010190620002ef565b506200031a9291506200031e565b5090565b5b808211156200031a57600081556001016200031f565b6000602080838503121562000348578182fd5b82516001600160401b03808211156200035f578384fd5b818501915085601f83011262000373578384fd5b8151818111156200038057fe5b604051601f8201601f19168101850183811182821017156200039e57fe5b6040528181528382018501881015620003b5578586fd5b8592505b81831015620003d85783830185015181840186015291840191620003b9565b81831115620003e957858583830101525b979650505050505050565b6020808252601c908201527f4552433136353a20696e76616c696420696e7465726661636520696400000000604082015260600190565b612077806200043b6000396000f3fe608060405234801561001057600080fd5b50600436106101365760003560e01c806367db3b8f116100b8578063b1de303e1161007c578063b1de303e14610299578063ca15c873146102a1578063d547741f146102b4578063e5b95595146102c7578063e985e9c5146102da578063f242432a146102ed57610136565b806367db3b8f146102385780639010d07c1461024b57806391d148541461026b578063a217fddf1461027e578063a22cb4651461028657610136565b80632eb2c2d6116100ff5780632eb2c2d6146101ca5780632f2ff15d146101df57806336568abe146101f25780634e1273f41461020557806355f804b31461022557610136565b8062fdd58e1461013b57806301ffc9a7146101645780630bb78ec1146101845780630e89341c146101a4578063248a9ca3146101b7575b600080fd5b61014e610149366004611679565b610300565b60405161015b9190611a5e565b60405180910390f35b6101776101723660046117be565b61035c565b60405161015b9190611a53565b610197610192366004611763565b61037f565b60405161015b9190611a67565b6101976101b2366004611763565b61041a565b61014e6101c5366004611763565b610540565b6101dd6101d8366004611536565b610555565b005b6101dd6101ed36600461177b565b61076f565b6101dd61020036600461177b565b6107b7565b6102186102133660046116a2565b6107f9565b60405161015b9190611a12565b6101dd6102333660046117f6565b610939565b6101dd610246366004611831565b610981565b61025e61025936600461179d565b6109da565b60405161015b919061195b565b61017761027936600461177b565b6109f9565b61014e610a11565b6101dd61029436600461163f565b610a16565b61014e610ae4565b61014e6102af366004611763565b610b08565b6101dd6102c236600461177b565b610b1f565b6101776102d5366004611763565b610b59565b6101776102e8366004611504565b610b6e565b6101dd6102fb3660046115dc565b610b9c565b60006001600160a01b0383166103315760405162461bcd60e51b815260040161032890611ba7565b60405180910390fd5b5060008181526001602090815260408083206001600160a01b03861684529091529020545b92915050565b6001600160e01b0319811660009081526020819052604090205460ff165b919050565b60076020908152600091825260409182902080548351601f6002600019610100600186161502019093169290920491820184900484028101840190945280845290918301828280156104125780601f106103e757610100808354040283529160200191610412565b820191906000526020600020905b8154815290600101906020018083116103f557829003601f168201915b505050505081565b6000818152600760209081526040918290208054835160026001831615610100026000190190921691909104601f810184900484028201840190945283815260609384939192918301828280156104b25780601f10610487576101008083540402835291602001916104b2565b820191906000526020600020905b81548152906001019060200180831161049557829003601f168201915b5050600654939450505050600260001961010060018416150201909116046104db57905061037a565b80511561050d576006816040516020016104f69291906118da565b60405160208183030381529060405291505061037a565b600661051884610d45565b6040516020016105299291906118da565b604051602081830303815290604052915050919050565b60009081526005602052604090206002015490565b81518351146105765760405162461bcd60e51b815260040161032890611e3c565b6001600160a01b03841661059c5760405162461bcd60e51b815260040161032890611d13565b6105a4610e20565b6001600160a01b0316856001600160a01b031614806105ca57506105ca856102e8610e20565b6105e65760405162461bcd60e51b815260040161032890611d58565b60006105f0610e20565b9050610600818787878787610767565b60005b845181101561070157600085828151811061061a57fe5b60200260200101519050600085838151811061063257fe5b6020026020010151905061069f816040518060600160405280602a8152602001612018602a91396001600086815260200190815260200160002060008d6001600160a01b03166001600160a01b0316815260200190815260200160002054610e7e9092919063ffffffff16565b60008381526001602090815260408083206001600160a01b038e811685529252808320939093558a16815220546106d69082610eaa565b60009283526001602081815260408086206001600160a01b038d168752909152909320555001610603565b50846001600160a01b0316866001600160a01b0316826001600160a01b03167f4a39dc06d4c0dbc64b70af90fd698a233a518aa5d07e595d983b8c0526c8f7fb8787604051610751929190611a25565b60405180910390a4610767818787878787610ecf565b505050505050565b60008281526005602052604090206002015461078d90610279610e20565b6107a95760405162461bcd60e51b815260040161032890611b58565b6107b38282610fe6565b5050565b6107bf610e20565b6001600160a01b0316816001600160a01b0316146107ef5760405162461bcd60e51b815260040161032890611e84565b6107b3828261104f565b6060815183511461081c5760405162461bcd60e51b815260040161032890611df3565b6060835167ffffffffffffffff8111801561083657600080fd5b50604051908082528060200260200182016040528015610860578160200160208202803683370190505b50905060005b84518110156109315760006001600160a01b031685828151811061088657fe5b60200260200101516001600160a01b031614156108b55760405162461bcd60e51b815260040161032890611bf2565b600160008583815181106108c557fe5b6020026020010151815260200190815260200160002060008683815181106108e957fe5b60200260200101516001600160a01b03166001600160a01b031681526020019081526020016000205482828151811061091e57fe5b6020908102919091010152600101610866565b509392505050565b6109657ff6e33f9720e4529cb1c710e3344dc00830589a3239198ffa39b07117085d250e610279610e20565b61096e57600080fd5b80516107b3906006906020840190611385565b6109ad7ff6e33f9720e4529cb1c710e3344dc00830589a3239198ffa39b07117085d250e610279610e20565b6109b657600080fd5b600081815260076020908152604090912083516109d592850190611385565b505050565b60008281526005602052604081206109f290836110b8565b9392505050565b60008281526005602052604081206109f290836110c4565b600081565b816001600160a01b0316610a28610e20565b6001600160a01b03161415610a4f5760405162461bcd60e51b815260040161032890611daa565b8060036000610a5c610e20565b6001600160a01b03908116825260208083019390935260409182016000908120918716808252919093529120805460ff191692151592909217909155610aa0610e20565b6001600160a01b03167f17307eab39ab6107e8899845ad3d59bd9653f200f220920489ca2b5937696c3183604051610ad89190611a53565b60405180910390a35050565b7ff6e33f9720e4529cb1c710e3344dc00830589a3239198ffa39b07117085d250e81565b6000818152600560205260408120610356906110d9565b600082815260056020526040902060020154610b3d90610279610e20565b6107ef5760405162461bcd60e51b815260040161032890611cc3565b60009081526002602052604090205460ff1690565b6001600160a01b03918216600090815260036020908152604080832093909416825291909152205460ff1690565b6001600160a01b038416610bc25760405162461bcd60e51b815260040161032890611d13565b610bca610e20565b6001600160a01b0316856001600160a01b03161480610bf05750610bf0856102e8610e20565b610c0c5760405162461bcd60e51b815260040161032890611c7a565b6000610c16610e20565b9050610c36818787610c27886110e4565b610c30886110e4565b87610767565b610c7d836040518060600160405280602a8152602001612018602a913960008781526001602090815260408083206001600160a01b038d1684529091529020549190610e7e565b60008581526001602090815260408083206001600160a01b038b81168552925280832093909355871681522054610cb49084610eaa565b60008581526001602090815260408083206001600160a01b03808b168086529190935292819020939093559151909188811691908416907fc3d58168c5ae7397731d063d5bbf3d657854427343f4c083240f7aacaa2d0f6290610d1a9089908990611ed3565b60405180910390a4610767818787878787611128565b60006109f2836001600160a01b0384166111f9565b606081610d6a57506040805180820190915260018152600360fc1b602082015261037a565b8160005b8115610d8257600101600a82049150610d6e565b60608167ffffffffffffffff81118015610d9b57600080fd5b506040519080825280601f01601f191660200182016040528015610dc6576020820181803683370190505b50859350905060001982015b8315610e1757600a840660300160f81b82828060019003935081518110610df557fe5b60200101906001600160f81b031916908160001a905350600a84049350610dd2565b50949350505050565b600033301415610e785760606000368080601f0160208091040260200160405190810160405280939291908181526020018383808284376000920191909152505050503601516001600160a01b03169150610e7b9050565b50335b90565b60008184841115610ea25760405162461bcd60e51b81526004016103289190611a67565b505050900390565b6000828201838110156109f25760405162461bcd60e51b815260040161032890611c43565b610ee1846001600160a01b0316611243565b156107675760405163bc197c8160e01b81526001600160a01b0385169063bc197c8190610f1a908990899088908890889060040161196f565b602060405180830381600087803b158015610f3457600080fd5b505af1925050508015610f64575060408051601f3d908101601f19168201909252610f61918101906117da565b60015b610fad57610f70611f59565b80610f7b5750610f95565b8060405162461bcd60e51b81526004016103289190611a67565b60405162461bcd60e51b815260040161032890611a7a565b6001600160e01b0319811663bc197c8160e01b14610fdd5760405162461bcd60e51b815260040161032890611b10565b50505050505050565b6000828152600560205260409020610ffe9082610d30565b156107b35761100b610e20565b6001600160a01b0316816001600160a01b0316837f2f8788117e7eff1d82e926ec794901d17c78024a50270940304540a733656f0d60405160405180910390a45050565b60008281526005602052604090206110679082611249565b156107b357611074610e20565b6001600160a01b0316816001600160a01b0316837ff6391f5c32d9c69d2a47ea670b442974b53935d1edc7fd64eb21e047a839171b60405160405180910390a45050565b60006109f2838361125e565b60006109f2836001600160a01b0384166112a3565b6000610356826112bb565b60408051600180825281830190925260609182919060208083019080368337019050509050828160008151811061111757fe5b602090810291909101015292915050565b61113a846001600160a01b0316611243565b156107675760405163f23a6e6160e01b81526001600160a01b0385169063f23a6e619061117390899089908890889088906004016119cd565b602060405180830381600087803b15801561118d57600080fd5b505af19250505080156111bd575060408051601f3d908101601f191682019092526111ba918101906117da565b60015b6111c957610f70611f59565b6001600160e01b0319811663f23a6e6160e01b14610fdd5760405162461bcd60e51b815260040161032890611b10565b600061120583836112a3565b61123b57508154600181810184556000848152602080822090930184905584548482528286019093526040902091909155610356565b506000610356565b3b151590565b60006109f2836001600160a01b0384166112bf565b815460009082106112815760405162461bcd60e51b815260040161032890611ace565b82600001828154811061129057fe5b9060005260206000200154905092915050565b60009081526001919091016020526040902054151590565b5490565b6000818152600183016020526040812054801561137b57835460001980830191908101906000908790839081106112f257fe5b906000526020600020015490508087600001848154811061130f57fe5b60009182526020808320909101929092558281526001898101909252604090209084019055865487908061133f57fe5b60019003818190600052602060002001600090559055866001016000878152602001908152602001600020600090556001945050505050610356565b6000915050610356565b828054600181600116156101000203166002900490600052602060002090601f016020900481019282601f106113c657805160ff19168380011785556113f3565b828001600101855582156113f3579182015b828111156113f35782518255916020019190600101906113d8565b506113ff929150611403565b5090565b5b808211156113ff5760008155600101611404565b80356001600160a01b038116811461037a57600080fd5b600082601f83011261143f578081fd5b813561145261144d82611f05565b611ee1565b81815291506020808301908481018184028601820187101561147357600080fd5b60005b8481101561149257813584529282019290820190600101611476565b505050505092915050565b600082601f8301126114ad578081fd5b813567ffffffffffffffff8111156114c157fe5b6114d4601f8201601f1916602001611ee1565b91508082528360208285010111156114eb57600080fd5b8060208401602084013760009082016020015292915050565b60008060408385031215611516578182fd5b61151f83611418565b915061152d60208401611418565b90509250929050565b600080600080600060a0868803121561154d578081fd5b61155686611418565b945061156460208701611418565b9350604086013567ffffffffffffffff80821115611580578283fd5b61158c89838a0161142f565b945060608801359150808211156115a1578283fd5b6115ad89838a0161142f565b935060808801359150808211156115c2578283fd5b506115cf8882890161149d565b9150509295509295909350565b600080600080600060a086880312156115f3578081fd5b6115fc86611418565b945061160a60208701611418565b93506040860135925060608601359150608086013567ffffffffffffffff811115611633578182fd5b6115cf8882890161149d565b60008060408385031215611651578182fd5b61165a83611418565b91506020830135801515811461166e578182fd5b809150509250929050565b6000806040838503121561168b578182fd5b61169483611418565b946020939093013593505050565b600080604083850312156116b4578182fd5b823567ffffffffffffffff808211156116cb578384fd5b818501915085601f8301126116de578384fd5b81356116ec61144d82611f05565b80828252602080830192508086018a82838702890101111561170c578889fd5b8896505b848710156117355761172181611418565b845260019690960195928101928101611710565b50909650870135935050508082111561174c578283fd5b506117598582860161142f565b9150509250929050565b600060208284031215611774578081fd5b5035919050565b6000806040838503121561178d578182fd5b8235915061152d60208401611418565b600080604083850312156117af578182fd5b50508035926020909101359150565b6000602082840312156117cf578081fd5b81356109f281611ffe565b6000602082840312156117eb578081fd5b81516109f281611ffe565b600060208284031215611807578081fd5b813567ffffffffffffffff81111561181d578182fd5b6118298482850161149d565b949350505050565b60008060408385031215611843578182fd5b823567ffffffffffffffff811115611859578283fd5b6118658582860161149d565b95602094909401359450505050565b6000815180845260208085019450808401835b838110156118a357815187529582019590820190600101611887565b509495945050505050565b600081518084526118c6816020860160208601611f23565b601f01601f19169290920160200192915050565b60008084546001808216600081146118f957600181146119105761193f565b60ff198316865260028304607f168601935061193f565b600283048886526020808720875b838110156119375781548a82015290850190820161191e565b505050860193505b5050508351611952818360208801611f23565b01949350505050565b6001600160a01b0391909116815260200190565b6001600160a01b0386811682528516602082015260a06040820181905260009061199b90830186611874565b82810360608401526119ad8186611874565b905082810360808401526119c181856118ae565b98975050505050505050565b6001600160a01b03868116825285166020820152604081018490526060810183905260a060808201819052600090611a07908301846118ae565b979650505050505050565b6000602082526109f26020830184611874565b600060408252611a386040830185611874565b8281036020840152611a4a8185611874565b95945050505050565b901515815260200190565b90815260200190565b6000602082526109f260208301846118ae565b60208082526034908201527f455243313135353a207472616e7366657220746f206e6f6e20455243313135356040820152732932b1b2b4bb32b91034b6b83632b6b2b73a32b960611b606082015260800190565b60208082526022908201527f456e756d657261626c655365743a20696e646578206f7574206f6620626f756e604082015261647360f01b606082015260800190565b60208082526028908201527f455243313135353a204552433131353552656365697665722072656a656374656040820152676420746f6b656e7360c01b606082015260800190565b6020808252602f908201527f416363657373436f6e74726f6c3a2073656e646572206d75737420626520616e60408201526e0818591b5a5b881d1bc819dc985b9d608a1b606082015260800190565b6020808252602b908201527f455243313135353a2062616c616e636520717565727920666f7220746865207a60408201526a65726f206164647265737360a81b606082015260800190565b60208082526031908201527f455243313135353a2062617463682062616c616e636520717565727920666f7260408201527020746865207a65726f206164647265737360781b606082015260800190565b6020808252601b908201527f536166654d6174683a206164646974696f6e206f766572666c6f770000000000604082015260600190565b60208082526029908201527f455243313135353a2063616c6c6572206973206e6f74206f776e6572206e6f7260408201526808185c1c1c9bdd995960ba1b606082015260800190565b60208082526030908201527f416363657373436f6e74726f6c3a2073656e646572206d75737420626520616e60408201526f2061646d696e20746f207265766f6b6560801b606082015260800190565b60208082526025908201527f455243313135353a207472616e7366657220746f20746865207a65726f206164604082015264647265737360d81b606082015260800190565b60208082526032908201527f455243313135353a207472616e736665722063616c6c6572206973206e6f74206040820152711bdddb995c881b9bdc88185c1c1c9bdd995960721b606082015260800190565b60208082526029908201527f455243313135353a2073657474696e6720617070726f76616c20737461747573604082015268103337b91039b2b63360b91b606082015260800190565b60208082526029908201527f455243313135353a206163636f756e747320616e6420696473206c656e677468604082015268040dad2e6dac2e8c6d60bb1b606082015260800190565b60208082526028908201527f455243313135353a2069647320616e6420616d6f756e7473206c656e677468206040820152670dad2e6dac2e8c6d60c31b606082015260800190565b6020808252602f908201527f416363657373436f6e74726f6c3a2063616e206f6e6c792072656e6f756e636560408201526e103937b632b9903337b91039b2b63360891b606082015260800190565b918252602082015260400190565b60405181810167ffffffffffffffff81118282101715611efd57fe5b604052919050565b600067ffffffffffffffff821115611f1957fe5b5060209081020190565b60005b83811015611f3e578181015183820152602001611f26565b83811115611f4d576000848401525b50505050565b60e01c90565b600060443d1015611f6957610e7b565b600481823e6308c379a0611f7d8251611f53565b14611f8757610e7b565b6040513d600319016004823e80513d67ffffffffffffffff8160248401118184111715611fb75750505050610e7b565b82840192508251915080821115611fd15750505050610e7b565b503d83016020828401011115611fe957505050610e7b565b601f01601f1916810160200160405291505090565b6001600160e01b03198116811461201457600080fd5b5056fe455243313135353a20696e73756666696369656e742062616c616e636520666f72207472616e73666572a2646970667358221220ae4d10804beca157d25497dd8e3eacb27b58ecba67eaa470e33de6146b08958164736f6c63430007030033",
  "linkReferences": {},
  "deployedLinkReferences": {}
}