{
  "_format": "hh-sol-artifact-1",
  "contractName": "Admin",
  "sourceName": "contracts/Admin.sol",
  "abi": [
    {
      "inputs": [],
      "stateMutability": "nonpayable",
      "type": "constructor"
    },
    {
      "anonymous": false,
      "inputs": [
        {
          "indexed": true,
          "internalType": "bytes32",
          "name": "role",
          "type": "bytes32"
        },
        {
          "indexed": true,
          "internalType": "bytes32",
          "name": "previousAdminRole",
          "type": "bytes32"
        },
        {
          "indexed": true,
          "internalType": "bytes32",
          "name": "newAdminRole",
          "type": "bytes32"
        }
      ],
      "name": "RoleAdminChanged",
      "type": "event"
    },
    {
      "anonymous": false,
      "inputs": [
        {
          "indexed": true,
          "internalType": "bytes32",
          "name": "role",
          "type": "bytes32"
        },
        {
          "indexed": true,
          "internalType": "address",
          "name": "account",
          "type": "address"
        },
        {
          "indexed": true,
          "internalType": "address",
          "name": "sender",
          "type": "address"
        }
      ],
      "name": "RoleGranted",
      "type": "event"
    },
    {
      "anonymous": false,
      "inputs": [
        {
          "indexed": true,
          "internalType": "bytes32",
          "name": "role",
          "type": "bytes32"
        },
        {
          "indexed": true,
          "internalType": "address",
          "name": "account",
          "type": "address"
        },
        {
          "indexed": true,
          "internalType": "address",
          "name": "sender",
          "type": "address"
        }
      ],
      "name": "RoleRevoked",
      "type": "event"
    },
    {
      "inputs": [],
      "name": "DEFAULT_ADMIN_ROLE",
      "outputs": [
        {
          "internalType": "bytes32",
          "name": "",
          "type": "bytes32"
        }
      ],
      "stateMutability": "view",
      "type": "function"
    },
    {
      "inputs": [],
      "name": "METADATA_ADMIN",
      "outputs": [
        {
          "internalType": "bytes32",
          "name": "",
          "type": "bytes32"
        }
      ],
      "stateMutability": "view",
      "type": "function"
    },
    {
      "inputs": [
        {
          "internalType": "bytes32",
          "name": "role",
          "type": "bytes32"
        }
      ],
      "name": "getRoleAdmin",
      "outputs": [
        {
          "internalType": "bytes32",
          "name": "",
          "type": "bytes32"
        }
      ],
      "stateMutability": "view",
      "type": "function"
    },
    {
      "inputs": [
        {
          "internalType": "bytes32",
          "name": "role",
          "type": "bytes32"
        },
        {
          "internalType": "uint256",
          "name": "index",
          "type": "uint256"
        }
      ],
      "name": "getRoleMember",
      "outputs": [
        {
          "internalType": "address",
          "name": "",
          "type": "address"
        }
      ],
      "stateMutability": "view",
      "type": "function"
    },
    {
      "inputs": [
        {
          "internalType": "bytes32",
          "name": "role",
          "type": "bytes32"
        }
      ],
      "name": "getRoleMemberCount",
      "outputs": [
        {
          "internalType": "uint256",
          "name": "",
          "type": "uint256"
        }
      ],
      "stateMutability": "view",
      "type": "function"
    },
    {
      "inputs": [
        {
          "internalType": "bytes32",
          "name": "role",
          "type": "bytes32"
        },
        {
          "internalType": "address",
          "name": "account",
          "type": "address"
        }
      ],
      "name": "grantRole",
      "outputs": [],
      "stateMutability": "nonpayable",
      "type": "function"
    },
    {
      "inputs": [
        {
          "internalType": "bytes32",
          "name": "role",
          "type": "bytes32"
        },
        {
          "internalType": "address",
          "name": "account",
          "type": "address"
        }
      ],
      "name": "hasRole",
      "outputs": [
        {
          "internalType": "bool",
          "name": "",
          "type": "bool"
        }
      ],
      "stateMutability": "view",
      "type": "function"
    },
    {
      "inputs": [
        {
          "internalType": "bytes32",
          "name": "role",
          "type": "bytes32"
        },
        {
          "internalType": "address",
          "name": "account",
          "type": "address"
        }
      ],
      "name": "renounceRole",
      "outputs": [],
      "stateMutability": "nonpayable",
      "type": "function"
    },
    {
      "inputs": [
        {
          "internalType": "bytes32",
          "name": "role",
          "type": "bytes32"
        },
        {
          "internalType": "address",
          "name": "account",
          "type": "address"
        }
      ],
      "name": "revokeRole",
      "outputs": [],
      "stateMutability": "nonpayable",
      "type": "function"
    }
  ],
  "bytecode": "0x608060405234801561001057600080fd5b50610023600061001e610054565b6100b2565b61004f7ff6e33f9720e4529cb1c710e3344dc00830589a3239198ffa39b07117085d250e61001e610054565b6101b3565b6000333014156100ac5760606000368080601f0160208091040260200160405190810160405280939291908181526020018383808284376000920191909152505050503601516001600160a01b031691506100af9050565b50335b90565b6100bc82826100c0565b5050565b6000828152602081815260409091206100e29183906103ad610133821b17901c565b156100bc576100ef610054565b6001600160a01b0316816001600160a01b0316837f2f8788117e7eff1d82e926ec794901d17c78024a50270940304540a733656f0d60405160405180910390a45050565b6000610148836001600160a01b038416610151565b90505b92915050565b600061015d838361019b565b6101935750815460018181018455600084815260208082209093018490558454848252828601909352604090209190915561014b565b50600061014b565b60009081526001919091016020526040902054151590565b6107a9806101c26000396000f3fe608060405234801561001057600080fd5b50600436106100935760003560e01c806391d148541161006657806391d1485414610160578063a217fddf146101a0578063b1de303e146101a8578063ca15c873146101b0578063d547741f146101cd57610093565b8063248a9ca3146100985780632f2ff15d146100c757806336568abe146100f55780639010d07c14610121575b600080fd5b6100b5600480360360208110156100ae57600080fd5b50356101f9565b60408051918252519081900360200190f35b6100f3600480360360408110156100dd57600080fd5b50803590602001356001600160a01b031661020e565b005b6100f36004803603604081101561010b57600080fd5b50803590602001356001600160a01b031661027a565b6101446004803603604081101561013757600080fd5b50803590602001356102db565b604080516001600160a01b039092168252519081900360200190f35b61018c6004803603604081101561017657600080fd5b50803590602001356001600160a01b03166102fc565b604080519115158252519081900360200190f35b6100b5610314565b6100b5610319565b6100b5600480360360208110156101c657600080fd5b503561033d565b6100f3600480360360408110156101e357600080fd5b50803590602001356001600160a01b0316610354565b60009081526020819052604090206002015490565b6000828152602081905260409020600201546102319061022c6103c2565b6102fc565b61026c5760405162461bcd60e51b815260040180806020018281038252602f8152602001806106e6602f913960400191505060405180910390fd5b6102768282610420565b5050565b6102826103c2565b6001600160a01b0316816001600160a01b0316146102d15760405162461bcd60e51b815260040180806020018281038252602f815260200180610745602f913960400191505060405180910390fd5b6102768282610489565b60008281526020819052604081206102f390836104f2565b90505b92915050565b60008281526020819052604081206102f390836104fe565b600081565b7ff6e33f9720e4529cb1c710e3344dc00830589a3239198ffa39b07117085d250e81565b60008181526020819052604081206102f690610513565b6000828152602081905260409020600201546103729061022c6103c2565b6102d15760405162461bcd60e51b81526004018080602001828103825260308152602001806107156030913960400191505060405180910390fd5b60006102f3836001600160a01b03841661051e565b60003330141561041a5760606000368080601f0160208091040260200160405190810160405280939291908181526020018383808284376000920191909152505050503601516001600160a01b0316915061041d9050565b50335b90565b600082815260208190526040902061043890826103ad565b15610276576104456103c2565b6001600160a01b0316816001600160a01b0316837f2f8788117e7eff1d82e926ec794901d17c78024a50270940304540a733656f0d60405160405180910390a45050565b60008281526020819052604090206104a19082610568565b15610276576104ae6103c2565b6001600160a01b0316816001600160a01b0316837ff6391f5c32d9c69d2a47ea670b442974b53935d1edc7fd64eb21e047a839171b60405160405180910390a45050565b60006102f3838361057d565b60006102f3836001600160a01b0384166105e1565b60006102f6826105f9565b600061052a83836105e1565b610560575081546001818101845560008481526020808220909301849055845484825282860190935260409020919091556102f6565b5060006102f6565b60006102f3836001600160a01b0384166105fd565b815460009082106105bf5760405162461bcd60e51b81526004018080602001828103825260228152602001806106c46022913960400191505060405180910390fd5b8260000182815481106105ce57fe5b9060005260206000200154905092915050565b60009081526001919091016020526040902054151590565b5490565b600081815260018301602052604081205480156106b9578354600019808301919081019060009087908390811061063057fe5b906000526020600020015490508087600001848154811061064d57fe5b60009182526020808320909101929092558281526001898101909252604090209084019055865487908061067d57fe5b600190038181906000526020600020016000905590558660010160008781526020019081526020016000206000905560019450505050506102f6565b60009150506102f656fe456e756d657261626c655365743a20696e646578206f7574206f6620626f756e6473416363657373436f6e74726f6c3a2073656e646572206d75737420626520616e2061646d696e20746f206772616e74416363657373436f6e74726f6c3a2073656e646572206d75737420626520616e2061646d696e20746f207265766f6b65416363657373436f6e74726f6c3a2063616e206f6e6c792072656e6f756e636520726f6c657320666f722073656c66a2646970667358221220aa9d534dd85aa279b2c35c2e687f627eabd549232b84384f374d463c2fdba6c864736f6c63430007030033",
  "linkReferences": {},
  "deployedLinkReferences": {}
}