{
  "_format": "hh-sol-artifact-1",
  "contractName": "Admin",
  "sourceName": "contracts/Admin.sol",
  "abi": [
    {
      "inputs": [],
      "stateMutability": "nonpayable",
      "type": "constructor"
    },
    {
      "anonymous": false,
      "inputs": [
        {
          "indexed": true,
          "internalType": "bytes32",
          "name": "role",
          "type": "bytes32"
        },
        {
          "indexed": true,
          "internalType": "bytes32",
          "name": "previousAdminRole",
          "type": "bytes32"
        },
        {
          "indexed": true,
          "internalType": "bytes32",
          "name": "newAdminRole",
          "type": "bytes32"
        }
      ],
      "name": "RoleAdminChanged",
      "type": "event"
    },
    {
      "anonymous": false,
      "inputs": [
        {
          "indexed": true,
          "internalType": "bytes32",
          "name": "role",
          "type": "bytes32"
        },
        {
          "indexed": true,
          "internalType": "address",
          "name": "account",
          "type": "address"
        },
        {
          "indexed": true,
          "internalType": "address",
          "name": "sender",
          "type": "address"
        }
      ],
      "name": "RoleGranted",
      "type": "event"
    },
    {
      "anonymous": false,
      "inputs": [
        {
          "indexed": true,
          "internalType": "bytes32",
          "name": "role",
          "type": "bytes32"
        },
        {
          "indexed": true,
          "internalType": "address",
          "name": "account",
          "type": "address"
        },
        {
          "indexed": true,
          "internalType": "address",
          "name": "sender",
          "type": "address"
        }
      ],
      "name": "RoleRevoked",
      "type": "event"
    },
    {
      "inputs": [],
      "name": "BURNER",
      "outputs": [
        {
          "internalType": "bytes32",
          "name": "",
          "type": "bytes32"
        }
      ],
      "stateMutability": "view",
      "type": "function"
    },
    {
      "inputs": [],
      "name": "DEFAULT_ADMIN_ROLE",
      "outputs": [
        {
          "internalType": "bytes32",
          "name": "",
          "type": "bytes32"
        }
      ],
      "stateMutability": "view",
      "type": "function"
    },
    {
      "inputs": [],
      "name": "METADATA_ADMIN",
      "outputs": [
        {
          "internalType": "bytes32",
          "name": "",
          "type": "bytes32"
        }
      ],
      "stateMutability": "view",
      "type": "function"
    },
    {
      "inputs": [],
      "name": "MINTER",
      "outputs": [
        {
          "internalType": "bytes32",
          "name": "",
          "type": "bytes32"
        }
      ],
      "stateMutability": "view",
      "type": "function"
    },
    {
      "inputs": [
        {
          "internalType": "bytes32",
          "name": "role",
          "type": "bytes32"
        }
      ],
      "name": "getRoleAdmin",
      "outputs": [
        {
          "internalType": "bytes32",
          "name": "",
          "type": "bytes32"
        }
      ],
      "stateMutability": "view",
      "type": "function"
    },
    {
      "inputs": [
        {
          "internalType": "bytes32",
          "name": "role",
          "type": "bytes32"
        },
        {
          "internalType": "uint256",
          "name": "index",
          "type": "uint256"
        }
      ],
      "name": "getRoleMember",
      "outputs": [
        {
          "internalType": "address",
          "name": "",
          "type": "address"
        }
      ],
      "stateMutability": "view",
      "type": "function"
    },
    {
      "inputs": [
        {
          "internalType": "bytes32",
          "name": "role",
          "type": "bytes32"
        }
      ],
      "name": "getRoleMemberCount",
      "outputs": [
        {
          "internalType": "uint256",
          "name": "",
          "type": "uint256"
        }
      ],
      "stateMutability": "view",
      "type": "function"
    },
    {
      "inputs": [
        {
          "internalType": "bytes32",
          "name": "role",
          "type": "bytes32"
        },
        {
          "internalType": "address",
          "name": "account",
          "type": "address"
        }
      ],
      "name": "grantRole",
      "outputs": [],
      "stateMutability": "nonpayable",
      "type": "function"
    },
    {
      "inputs": [
        {
          "internalType": "bytes32",
          "name": "role",
          "type": "bytes32"
        },
        {
          "internalType": "address",
          "name": "account",
          "type": "address"
        }
      ],
      "name": "hasRole",
      "outputs": [
        {
          "internalType": "bool",
          "name": "",
          "type": "bool"
        }
      ],
      "stateMutability": "view",
      "type": "function"
    },
    {
      "inputs": [
        {
          "internalType": "bytes32",
          "name": "role",
          "type": "bytes32"
        },
        {
          "internalType": "address",
          "name": "account",
          "type": "address"
        }
      ],
      "name": "renounceRole",
      "outputs": [],
      "stateMutability": "nonpayable",
      "type": "function"
    },
    {
      "inputs": [
        {
          "internalType": "bytes32",
          "name": "role",
          "type": "bytes32"
        },
        {
          "internalType": "address",
          "name": "account",
          "type": "address"
        }
      ],
      "name": "revokeRole",
      "outputs": [],
      "stateMutability": "nonpayable",
      "type": "function"
    }
  ],
  "bytecode": "0x60806040523480156200001157600080fd5b50620000366000801b6200002a6200012860201b60201c565b6200013060201b60201c565b620000777ff6e33f9720e4529cb1c710e3344dc00830589a3239198ffa39b07117085d250e6200006b6200012860201b60201c565b6200013060201b60201c565b620000b87ff0887ba65ee2024ea881d91b74c2450ef19e1557f03bed3ea9f16b037cbe2dc9620000ac6200012860201b60201c565b6200013060201b60201c565b620000ed6000801b7ff0887ba65ee2024ea881d91b74c2450ef19e1557f03bed3ea9f16b037cbe2dc96200014660201b60201c565b620001226000801b7ff6e33f9720e4529cb1c710e3344dc00830589a3239198ffa39b07117085d250e6200014660201b60201c565b62000320565b600033905090565b620001428282620001a860201b60201c565b5050565b8060008084815260200190815260200160002060020154837fbd79b86ffe0ab8e8776151514217cd7cacd52c909f66475c3af44e129f0b00ff60405160405180910390a480600080848152602001908152602001600020600201819055505050565b620001d6816000808581526020019081526020016000206000016200024b60201b6200061f1790919060201c565b156200024757620001ec6200012860201b60201c565b73ffffffffffffffffffffffffffffffffffffffff168173ffffffffffffffffffffffffffffffffffffffff16837f2f8788117e7eff1d82e926ec794901d17c78024a50270940304540a733656f0d60405160405180910390a45b5050565b60006200027b836000018373ffffffffffffffffffffffffffffffffffffffff1660001b6200028360201b60201c565b905092915050565b6000620002978383620002fd60201b60201c565b620002f2578260000182908060018154018082558091505060019003906000526020600020016000909190919091505582600001805490508360010160008481526020019081526020016000208190555060019050620002f7565b600090505b92915050565b600080836001016000848152602001908152602001600020541415905092915050565b610b0180620003306000396000f3fe608060405234801561001057600080fd5b50600436106100a95760003560e01c806391d148541161007157806391d148541461020c578063a217fddf14610270578063b1de303e1461028e578063ca15c873146102ac578063d547741f146102ee578063fe6d81241461033c576100a9565b8063118c4f13146100ae578063248a9ca3146100cc5780632f2ff15d1461010e57806336568abe1461015c5780639010d07c146101aa575b600080fd5b6100b661035a565b6040518082815260200191505060405180910390f35b6100f8600480360360208110156100e257600080fd5b810190808035906020019092919050505061037e565b6040518082815260200191505060405180910390f35b61015a6004803603604081101561012457600080fd5b8101908080359060200190929190803573ffffffffffffffffffffffffffffffffffffffff16906020019092919050505061039d565b005b6101a86004803603604081101561017257600080fd5b8101908080359060200190929190803573ffffffffffffffffffffffffffffffffffffffff169060200190929190505050610426565b005b6101e0600480360360408110156101c057600080fd5b8101908080359060200190929190803590602001909291905050506104bf565b604051808273ffffffffffffffffffffffffffffffffffffffff16815260200191505060405180910390f35b6102586004803603604081101561022257600080fd5b8101908080359060200190929190803573ffffffffffffffffffffffffffffffffffffffff1690602001909291905050506104f0565b60405180821515815260200191505060405180910390f35b610278610521565b6040518082815260200191505060405180910390f35b610296610528565b6040518082815260200191505060405180910390f35b6102d8600480360360208110156102c257600080fd5b810190808035906020019092919050505061054c565b6040518082815260200191505060405180910390f35b61033a6004803603604081101561030457600080fd5b8101908080359060200190929190803573ffffffffffffffffffffffffffffffffffffffff169060200190929190505050610572565b005b6103446105fb565b6040518082815260200191505060405180910390f35b7f9667e80708b6eeeb0053fa0cca44e028ff548e2a9f029edfeac87c118b08b7c881565b6000806000838152602001908152602001600020600201549050919050565b6103c3600080848152602001908152602001600020600201546103be61064f565b6104f0565b610418576040517f08c379a000000000000000000000000000000000000000000000000000000000815260040180806020018281038252602f815260200180610a3e602f913960400191505060405180910390fd5b6104228282610657565b5050565b61042e61064f565b73ffffffffffffffffffffffffffffffffffffffff168173ffffffffffffffffffffffffffffffffffffffff16146104b1576040517f08c379a000000000000000000000000000000000000000000000000000000000815260040180806020018281038252602f815260200180610a9d602f913960400191505060405180910390fd5b6104bb82826106ea565b5050565b60006104e88260008086815260200190815260200160002060000161077d90919063ffffffff16565b905092915050565b60006105198260008086815260200190815260200160002060000161079790919063ffffffff16565b905092915050565b6000801b81565b7ff6e33f9720e4529cb1c710e3344dc00830589a3239198ffa39b07117085d250e81565b600061056b6000808481526020019081526020016000206000016107c7565b9050919050565b6105986000808481526020019081526020016000206002015461059361064f565b6104f0565b6105ed576040517f08c379a0000000000000000000000000000000000000000000000000000000008152600401808060200182810382526030815260200180610a6d6030913960400191505060405180910390fd5b6105f782826106ea565b5050565b7ff0887ba65ee2024ea881d91b74c2450ef19e1557f03bed3ea9f16b037cbe2dc981565b6000610647836000018373ffffffffffffffffffffffffffffffffffffffff1660001b6107dc565b905092915050565b600033905090565b61067e8160008085815260200190815260200160002060000161061f90919063ffffffff16565b156106e65761068b61064f565b73ffffffffffffffffffffffffffffffffffffffff168173ffffffffffffffffffffffffffffffffffffffff16837f2f8788117e7eff1d82e926ec794901d17c78024a50270940304540a733656f0d60405160405180910390a45b5050565b6107118160008085815260200190815260200160002060000161084c90919063ffffffff16565b156107795761071e61064f565b73ffffffffffffffffffffffffffffffffffffffff168173ffffffffffffffffffffffffffffffffffffffff16837ff6391f5c32d9c69d2a47ea670b442974b53935d1edc7fd64eb21e047a839171b60405160405180910390a45b5050565b600061078c836000018361087c565b60001c905092915050565b60006107bf836000018373ffffffffffffffffffffffffffffffffffffffff1660001b6108ff565b905092915050565b60006107d582600001610922565b9050919050565b60006107e883836108ff565b610841578260000182908060018154018082558091505060019003906000526020600020016000909190919091505582600001805490508360010160008481526020019081526020016000208190555060019050610846565b600090505b92915050565b6000610874836000018373ffffffffffffffffffffffffffffffffffffffff1660001b610933565b905092915050565b6000818360000180549050116108dd576040517f08c379a0000000000000000000000000000000000000000000000000000000008152600401808060200182810382526022815260200180610a1c6022913960400191505060405180910390fd5b8260000182815481106108ec57fe5b9060005260206000200154905092915050565b600080836001016000848152602001908152602001600020541415905092915050565b600081600001805490509050919050565b60008083600101600084815260200190815260200160002054905060008114610a0f576000600182039050600060018660000180549050039050600086600001828154811061097e57fe5b906000526020600020015490508087600001848154811061099b57fe5b90600052602060002001819055506001830187600101600083815260200190815260200160002081905550866000018054806109d357fe5b60019003818190600052602060002001600090559055866001016000878152602001908152602001600020600090556001945050505050610a15565b60009150505b9291505056fe456e756d657261626c655365743a20696e646578206f7574206f6620626f756e6473416363657373436f6e74726f6c3a2073656e646572206d75737420626520616e2061646d696e20746f206772616e74416363657373436f6e74726f6c3a2073656e646572206d75737420626520616e2061646d696e20746f207265766f6b65416363657373436f6e74726f6c3a2063616e206f6e6c792072656e6f756e636520726f6c657320666f722073656c66a2646970667358221220c946f8abe9332f0db73774745b7ab4bf0b7fe088a900d1c363ea71aa46c14e5464736f6c63430007030033",
  "linkReferences": {},
  "deployedLinkReferences": {}
}