{
  "_format": "hh-sol-artifact-1",
  "contractName": "Admin",
  "sourceName": "contracts/Admin.sol",
  "abi": [
    {
      "inputs": [],
      "stateMutability": "nonpayable",
      "type": "constructor"
    },
    {
      "anonymous": false,
      "inputs": [
        {
          "indexed": true,
          "internalType": "bytes32",
          "name": "role",
          "type": "bytes32"
        },
        {
          "indexed": true,
          "internalType": "bytes32",
          "name": "previousAdminRole",
          "type": "bytes32"
        },
        {
          "indexed": true,
          "internalType": "bytes32",
          "name": "newAdminRole",
          "type": "bytes32"
        }
      ],
      "name": "RoleAdminChanged",
      "type": "event"
    },
    {
      "anonymous": false,
      "inputs": [
        {
          "indexed": true,
          "internalType": "bytes32",
          "name": "role",
          "type": "bytes32"
        },
        {
          "indexed": true,
          "internalType": "address",
          "name": "account",
          "type": "address"
        },
        {
          "indexed": true,
          "internalType": "address",
          "name": "sender",
          "type": "address"
        }
      ],
      "name": "RoleGranted",
      "type": "event"
    },
    {
      "anonymous": false,
      "inputs": [
        {
          "indexed": true,
          "internalType": "bytes32",
          "name": "role",
          "type": "bytes32"
        },
        {
          "indexed": true,
          "internalType": "address",
          "name": "account",
          "type": "address"
        },
        {
          "indexed": true,
          "internalType": "address",
          "name": "sender",
          "type": "address"
        }
      ],
      "name": "RoleRevoked",
      "type": "event"
    },
    {
      "inputs": [],
      "name": "BURNER",
      "outputs": [
        {
          "internalType": "bytes32",
          "name": "",
          "type": "bytes32"
        }
      ],
      "stateMutability": "view",
      "type": "function"
    },
    {
      "inputs": [],
      "name": "DEFAULT_ADMIN_ROLE",
      "outputs": [
        {
          "internalType": "bytes32",
          "name": "",
          "type": "bytes32"
        }
      ],
      "stateMutability": "view",
      "type": "function"
    },
    {
      "inputs": [],
      "name": "METADATA_ADMIN",
      "outputs": [
        {
          "internalType": "bytes32",
          "name": "",
          "type": "bytes32"
        }
      ],
      "stateMutability": "view",
      "type": "function"
    },
    {
      "inputs": [],
      "name": "MINTER",
      "outputs": [
        {
          "internalType": "bytes32",
          "name": "",
          "type": "bytes32"
        }
      ],
      "stateMutability": "view",
      "type": "function"
    },
    {
      "inputs": [
        {
          "internalType": "bytes32",
          "name": "role",
          "type": "bytes32"
        }
      ],
      "name": "getRoleAdmin",
      "outputs": [
        {
          "internalType": "bytes32",
          "name": "",
          "type": "bytes32"
        }
      ],
      "stateMutability": "view",
      "type": "function"
    },
    {
      "inputs": [
        {
          "internalType": "bytes32",
          "name": "role",
          "type": "bytes32"
        },
        {
          "internalType": "uint256",
          "name": "index",
          "type": "uint256"
        }
      ],
      "name": "getRoleMember",
      "outputs": [
        {
          "internalType": "address",
          "name": "",
          "type": "address"
        }
      ],
      "stateMutability": "view",
      "type": "function"
    },
    {
      "inputs": [
        {
          "internalType": "bytes32",
          "name": "role",
          "type": "bytes32"
        }
      ],
      "name": "getRoleMemberCount",
      "outputs": [
        {
          "internalType": "uint256",
          "name": "",
          "type": "uint256"
        }
      ],
      "stateMutability": "view",
      "type": "function"
    },
    {
      "inputs": [
        {
          "internalType": "bytes32",
          "name": "role",
          "type": "bytes32"
        },
        {
          "internalType": "address",
          "name": "account",
          "type": "address"
        }
      ],
      "name": "grantRole",
      "outputs": [],
      "stateMutability": "nonpayable",
      "type": "function"
    },
    {
      "inputs": [
        {
          "internalType": "bytes32",
          "name": "role",
          "type": "bytes32"
        },
        {
          "internalType": "address",
          "name": "account",
          "type": "address"
        }
      ],
      "name": "hasRole",
      "outputs": [
        {
          "internalType": "bool",
          "name": "",
          "type": "bool"
        }
      ],
      "stateMutability": "view",
      "type": "function"
    },
    {
      "inputs": [
        {
          "internalType": "bytes32",
          "name": "role",
          "type": "bytes32"
        },
        {
          "internalType": "address",
          "name": "account",
          "type": "address"
        }
      ],
      "name": "renounceRole",
      "outputs": [],
      "stateMutability": "nonpayable",
      "type": "function"
    },
    {
      "inputs": [
        {
          "internalType": "bytes32",
          "name": "role",
          "type": "bytes32"
        },
        {
          "internalType": "address",
          "name": "account",
          "type": "address"
        }
      ],
      "name": "revokeRole",
      "outputs": [],
      "stateMutability": "nonpayable",
      "type": "function"
    }
  ],
  "bytecode": "0x608060405234801561001057600080fd5b50610023600061001e61008e565b610092565b61003d6000805160206109d183398151915261001e61008e565b6100576000805160206109b183398151915261001e61008e565b61007060006000805160206109b18339815191526100a0565b61008960006000805160206109d18339815191526100a0565b6101e5565b3390565b61009c82826100f2565b5050565b600082815260208190526040808220600201549051839285917fbd79b86ffe0ab8e8776151514217cd7cacd52c909f66475c3af44e129f0b00ff9190a460009182526020829052604090912060020155565b60008281526020818152604090912061011491839061041b610165821b17901c565b1561009c5761012161008e565b6001600160a01b0316816001600160a01b0316837f2f8788117e7eff1d82e926ec794901d17c78024a50270940304540a733656f0d60405160405180910390a45050565b600061017a836001600160a01b038416610183565b90505b92915050565b600061018f83836101cd565b6101c55750815460018181018455600084815260208082209093018490558454848252828601909352604090209190915561017d565b50600061017d565b60009081526001919091016020526040902054151590565b6107bd806101f46000396000f3fe608060405234801561001057600080fd5b50600436106100a95760003560e01c806391d148541161007157806391d148541461017e578063a217fddf146101be578063b1de303e146101c6578063ca15c873146101ce578063d547741f146101eb578063fe6d812414610217576100a9565b8063118c4f13146100ae578063248a9ca3146100c85780632f2ff15d146100e557806336568abe146101135780639010d07c1461013f575b600080fd5b6100b661021f565b60408051918252519081900360200190f35b6100b6600480360360208110156100de57600080fd5b5035610243565b610111600480360360408110156100fb57600080fd5b50803590602001356001600160a01b0316610258565b005b6101116004803603604081101561012957600080fd5b50803590602001356001600160a01b03166102c4565b6101626004803603604081101561015557600080fd5b5080359060200135610325565b604080516001600160a01b039092168252519081900360200190f35b6101aa6004803603604081101561019457600080fd5b50803590602001356001600160a01b0316610346565b604080519115158252519081900360200190f35b6100b661035e565b6100b6610363565b6100b6600480360360208110156101e457600080fd5b5035610387565b6101116004803603604081101561020157600080fd5b50803590602001356001600160a01b031661039e565b6100b66103f7565b7f9667e80708b6eeeb0053fa0cca44e028ff548e2a9f029edfeac87c118b08b7c881565b60009081526020819052604090206002015490565b60008281526020819052604090206002015461027b90610276610430565b610346565b6102b65760405162461bcd60e51b815260040180806020018281038252602f8152602001806106fa602f913960400191505060405180910390fd5b6102c08282610434565b5050565b6102cc610430565b6001600160a01b0316816001600160a01b03161461031b5760405162461bcd60e51b815260040180806020018281038252602f815260200180610759602f913960400191505060405180910390fd5b6102c0828261049d565b600082815260208190526040812061033d9083610506565b90505b92915050565b600082815260208190526040812061033d9083610512565b600081565b7ff6e33f9720e4529cb1c710e3344dc00830589a3239198ffa39b07117085d250e81565b600081815260208190526040812061034090610527565b6000828152602081905260409020600201546103bc90610276610430565b61031b5760405162461bcd60e51b81526004018080602001828103825260308152602001806107296030913960400191505060405180910390fd5b7ff0887ba65ee2024ea881d91b74c2450ef19e1557f03bed3ea9f16b037cbe2dc981565b600061033d836001600160a01b038416610532565b3390565b600082815260208190526040902061044c908261041b565b156102c057610459610430565b6001600160a01b0316816001600160a01b0316837f2f8788117e7eff1d82e926ec794901d17c78024a50270940304540a733656f0d60405160405180910390a45050565b60008281526020819052604090206104b5908261057c565b156102c0576104c2610430565b6001600160a01b0316816001600160a01b0316837ff6391f5c32d9c69d2a47ea670b442974b53935d1edc7fd64eb21e047a839171b60405160405180910390a45050565b600061033d8383610591565b600061033d836001600160a01b0384166105f5565b60006103408261060d565b600061053e83836105f5565b61057457508154600181810184556000848152602080822090930184905584548482528286019093526040902091909155610340565b506000610340565b600061033d836001600160a01b038416610611565b815460009082106105d35760405162461bcd60e51b81526004018080602001828103825260228152602001806106d86022913960400191505060405180910390fd5b8260000182815481106105e257fe5b9060005260206000200154905092915050565b60009081526001919091016020526040902054151590565b5490565b600081815260018301602052604081205480156106cd578354600019808301919081019060009087908390811061064457fe5b906000526020600020015490508087600001848154811061066157fe5b60009182526020808320909101929092558281526001898101909252604090209084019055865487908061069157fe5b60019003818190600052602060002001600090559055866001016000878152602001908152602001600020600090556001945050505050610340565b600091505061034056fe456e756d657261626c655365743a20696e646578206f7574206f6620626f756e6473416363657373436f6e74726f6c3a2073656e646572206d75737420626520616e2061646d696e20746f206772616e74416363657373436f6e74726f6c3a2073656e646572206d75737420626520616e2061646d696e20746f207265766f6b65416363657373436f6e74726f6c3a2063616e206f6e6c792072656e6f756e636520726f6c657320666f722073656c66a2646970667358221220dadfe8bc18292f11ef15e5168333b07b121f72cf28401bcd6981f2c177799d7b64736f6c63430007030033f0887ba65ee2024ea881d91b74c2450ef19e1557f03bed3ea9f16b037cbe2dc9f6e33f9720e4529cb1c710e3344dc00830589a3239198ffa39b07117085d250e",
  "linkReferences": {},
  "deployedLinkReferences": {}
}