{
  "_format": "hh-sol-artifact-1",
  "contractName": "WorkerMetaTransactions",
  "sourceName": "contracts/WorkerMetaTransactions.sol",
  "abi": [
    {
      "anonymous": false,
      "inputs": [
        {
          "indexed": false,
          "internalType": "address",
          "name": "userAddress",
          "type": "address"
        },
        {
          "indexed": false,
          "internalType": "address payable",
          "name": "relayerAddress",
          "type": "address"
        },
        {
          "indexed": false,
          "internalType": "bytes",
          "name": "functionSignature",
          "type": "bytes"
        }
      ],
      "name": "MetaTransactionExecuted",
      "type": "event"
    },
    {
      "inputs": [],
      "name": "CONTRACT_ERC712_NAME",
      "outputs": [
        {
          "internalType": "string",
          "name": "",
          "type": "string"
        }
      ],
      "stateMutability": "view",
      "type": "function"
    },
    {
      "inputs": [],
      "name": "CONTRACT_ERC712_VERSION",
      "outputs": [
        {
          "internalType": "string",
          "name": "",
          "type": "string"
        }
      ],
      "stateMutability": "view",
      "type": "function"
    },
    {
      "inputs": [],
      "name": "EIP712_DOMAIN_TYPEHASH",
      "outputs": [
        {
          "internalType": "bytes32",
          "name": "",
          "type": "bytes32"
        }
      ],
      "stateMutability": "view",
      "type": "function"
    },
    {
      "inputs": [
        {
          "internalType": "string",
          "name": "name",
          "type": "string"
        },
        {
          "internalType": "string",
          "name": "version",
          "type": "string"
        }
      ],
      "name": "encodeDomainSeperator",
      "outputs": [
        {
          "internalType": "bytes32",
          "name": "",
          "type": "bytes32"
        }
      ],
      "stateMutability": "view",
      "type": "function"
    },
    {
      "inputs": [
        {
          "internalType": "string",
          "name": "name",
          "type": "string"
        },
        {
          "internalType": "string",
          "name": "version",
          "type": "string"
        }
      ],
      "name": "encodeWorkerDomainSeperator",
      "outputs": [
        {
          "internalType": "bytes32",
          "name": "",
          "type": "bytes32"
        }
      ],
      "stateMutability": "view",
      "type": "function"
    },
    {
      "inputs": [
        {
          "internalType": "address",
          "name": "userAddress",
          "type": "address"
        },
        {
          "internalType": "bytes",
          "name": "functionSignature",
          "type": "bytes"
        },
        {
          "internalType": "bytes32",
          "name": "sigR",
          "type": "bytes32"
        },
        {
          "internalType": "bytes32",
          "name": "sigS",
          "type": "bytes32"
        },
        {
          "internalType": "uint8",
          "name": "sigV",
          "type": "uint8"
        }
      ],
      "name": "executeMetaTransaction",
      "outputs": [
        {
          "internalType": "bytes",
          "name": "",
          "type": "bytes"
        }
      ],
      "stateMutability": "payable",
      "type": "function"
    },
    {
      "inputs": [],
      "name": "getChainId",
      "outputs": [
        {
          "internalType": "uint256",
          "name": "",
          "type": "uint256"
        }
      ],
      "stateMutability": "pure",
      "type": "function"
    },
    {
      "inputs": [],
      "name": "getDomainSeperator",
      "outputs": [
        {
          "internalType": "bytes32",
          "name": "",
          "type": "bytes32"
        }
      ],
      "stateMutability": "view",
      "type": "function"
    },
    {
      "inputs": [
        {
          "internalType": "address",
          "name": "user",
          "type": "address"
        }
      ],
      "name": "getNonce",
      "outputs": [
        {
          "internalType": "uint256",
          "name": "nonce",
          "type": "uint256"
        }
      ],
      "stateMutability": "view",
      "type": "function"
    },
    {
      "inputs": [],
      "name": "getWorkerDomainSeperator",
      "outputs": [
        {
          "internalType": "bytes32",
          "name": "",
          "type": "bytes32"
        }
      ],
      "stateMutability": "view",
      "type": "function"
    },
    {
      "inputs": [],
      "name": "isLocalContract",
      "outputs": [
        {
          "internalType": "bool",
          "name": "",
          "type": "bool"
        }
      ],
      "stateMutability": "pure",
      "type": "function"
    },
    {
      "inputs": [
        {
          "internalType": "address",
          "name": "contract_",
          "type": "address"
        },
        {
          "internalType": "bool",
          "name": "isLocal_",
          "type": "bool"
        }
      ],
      "name": "updateLocalContract",
      "outputs": [],
      "stateMutability": "nonpayable",
      "type": "function"
    },
    {
      "inputs": [
        {
          "internalType": "address",
          "name": "userAddress_",
          "type": "address"
        },
        {
          "internalType": "bytes32",
          "name": "replayPrevention_",
          "type": "bytes32"
        },
        {
          "internalType": "bytes",
          "name": "functionSignature_",
          "type": "bytes"
        },
        {
          "internalType": "bytes32",
          "name": "sigR_",
          "type": "bytes32"
        },
        {
          "internalType": "bytes32",
          "name": "sigS_",
          "type": "bytes32"
        },
        {
          "internalType": "uint8",
          "name": "sigV_",
          "type": "uint8"
        }
      ],
      "name": "workerExecuteMetaTransaction",
      "outputs": [
        {
          "internalType": "bytes",
          "name": "",
          "type": "bytes"
        }
      ],
      "stateMutability": "payable",
      "type": "function"
    }
  ],
  "bytecode": "0x608060405234801561001057600080fd5b50611759806100206000396000f3fe6080604052600436106100c25760003560e01c80635958b3011161007f578063ad2ded2b11610059578063ad2ded2b14610554578063c7977be71461061b578063e1a1a66c14610630578063f40c96ab14610645576100c2565b80635958b301146103b85780636d4b99e0146103f5578063765d6cce1461052b576100c2565b80630c53c51c146100c7578063161e650d146101fe57806320379ee51461022557806327430a421461023a5780632d0335ab146103705780633408e470146103a3575b600080fd5b610189600480360360a08110156100dd57600080fd5b6001600160a01b038235169190810190604081016020820135600160201b81111561010757600080fd5b82018360208201111561011957600080fd5b803590602001918460018302840111600160201b8311171561013a57600080fd5b91908080601f016020809104026020016040519081016040528093929190818152602001838380828437600092019190915250929550508235935050506020810135906040013560ff1661065a565b6040805160208082528351818301528351919283929083019185019080838360005b838110156101c35781810151838201526020016101ab565b50505050905090810190601f1680156101f05780820380516001836020036101000a031916815260200191505b509250505060405180910390f35b34801561020a57600080fd5b5061021361097a565b60408051918252519081900360200190f35b34801561023157600080fd5b50610213610ab1565b34801561024657600080fd5b506102136004803603604081101561025d57600080fd5b810190602081018135600160201b81111561027757600080fd5b82018360208201111561028957600080fd5b803590602001918460018302840111600160201b831117156102aa57600080fd5b91908080601f0160208091040260200160405190810160405280939291908181526020018383808284376000920191909152509295949360208101935035915050600160201b8111156102fc57600080fd5b82018360208201111561030e57600080fd5b803590602001918460018302840111600160201b8311171561032f57600080fd5b91908080601f016020809104026020016040519081016040528093929190818152602001838380828437600092019190915250929550610be2945050505050565b34801561037c57600080fd5b506102136004803603602081101561039357600080fd5b50356001600160a01b0316610ce8565b3480156103af57600080fd5b50610213610d15565b3480156103c457600080fd5b506103f3600480360360408110156103db57600080fd5b506001600160a01b0381351690602001351515610d19565b005b34801561040157600080fd5b506102136004803603604081101561041857600080fd5b810190602081018135600160201b81111561043257600080fd5b82018360208201111561044457600080fd5b803590602001918460018302840111600160201b8311171561046557600080fd5b91908080601f0160208091040260200160405190810160405280939291908181526020018383808284376000920191909152509295949360208101935035915050600160201b8111156104b757600080fd5b8201836020820111156104c957600080fd5b803590602001918460018302840111600160201b831117156104ea57600080fd5b91908080601f016020809104026020016040519081016040528093929190818152602001838380828437600092019190915250929550610d1d945050505050565b34801561053757600080fd5b50610540610d78565b604080519115158252519081900360200190f35b610189600480360360c081101561056a57600080fd5b6001600160a01b0382351691602081013591810190606081016040820135600160201b81111561059957600080fd5b8201836020820111156105ab57600080fd5b803590602001918460018302840111600160201b831117156105cc57600080fd5b91908080601f016020809104026020016040519081016040528093929190818152602001838380828437600092019190915250929550508235935050506020810135906040013560ff16610d7d565b34801561062757600080fd5b5061021361111f565b34801561063c57600080fd5b50610189611142565b34801561065157600080fd5b506101896111e3565b6060600061066661124e565b905061067061158e565b50604080516060810182526001600160a01b0389166000818152600685016020908152908490205483528201529081018790526106b08882888888611272565b6106eb5760405162461bcd60e51b81526004018080602001828103825260218152602001806116c16021913960400191505060405180910390fd5b6001600160a01b038816600090815260068301602052604090205461071190600161131a565b8260060160008a6001600160a01b03166001600160a01b03168152602001908152602001600020819055507f5845892132946850460bff5a0083f71031bc5bf9aadcd40f1de79423eac9b10b88338960405180846001600160a01b03168152602001836001600160a01b0316815260200180602001828103825283818151815260200191508051906020019080838360005b838110156107bb5781810151838201526020016107a3565b50505050905090810190601f1680156107e85780820380516001836020036101000a031916815260200191505b5094505050505060405180910390a160006060306001600160a01b0316898b6040516020018083805190602001908083835b602083106108395780518252601f19909201916020918201910161081a565b6001836020036101000a038019825116818451168082178552505050505050905001826001600160a01b031660601b8152601401925050506040516020818303038152906040526040518082805190602001908083835b602083106108af5780518252601f199092019160209182019101610890565b6001836020036101000a0380198251168184511680821785525050505050509050019150506000604051808303816000865af19150503d8060008114610911576040519150601f19603f3d011682016040523d82523d6000602084013e610916565b606091505b50915091508161096d576040805162461bcd60e51b815260206004820152601c60248201527f46756e6374696f6e2063616c6c206e6f74207375636365737366756c00000000604482015290519081900360640190fd5b9998505050505050505050565b60008061098561124e565b60088101805460408051602060026001851615610100026000190190941693909304601f8101849004840282018401909252818152939450610aab939291830182828015610a145780601f106109e957610100808354040283529160200191610a14565b820191906000526020600020905b8154815290600101906020018083116109f757829003601f168201915b5050505060078401805460408051602060026001851615610100026000190190941693909304601f8101849004840282018401909252818152935090830182828015610aa15780601f10610a7657610100808354040283529160200191610aa1565b820191906000526020600020905b815481529060010190602001808311610a8457829003601f168201915b5050505050610be2565b91505090565b600080610abc61124e565b60088101805460408051602060026001851615610100026000190190941693909304601f8101849004840282018401909252818152939450610aab939291830182828015610b4b5780601f10610b2057610100808354040283529160200191610b4b565b820191906000526020600020905b815481529060010190602001808311610b2e57829003601f168201915b5050505060078401805460408051602060026001851615610100026000190190941693909304601f8101849004840282018401909252818152935090830182828015610bd85780601f10610bad57610100808354040283529160200191610bd8565b820191906000526020600020905b815481529060010190602001808311610bbb57829003601f168201915b5050505050610d1d565b600080610bed610d15565b90508060891480610bfe5750806001145b610c1c57806201388114610c1457617a69610c17565b60055b610c1f565b60015b61ffff16905080610c73576040805162461bcd60e51b8152602060048201526019602482015278636861696e204944206d757374206e6f74206265207a65726f60381b604482015290519081900360640190fd5b60405180608001604052806052815260200161161b605291398051602091820120855186830120855186840120604080518086019490945283810192909252606083015260808201939093523060a0808301919091528351808303909101815260c09091019092528151910120905092915050565b600080610cf361124e565b6001600160a01b03909316600090815260069093016020525050604090205490565b4690565b5050565b600080610d28610d15565b905080610c73576040805162461bcd60e51b8152602060048201526019602482015278636861696e204944206d757374206e6f74206265207a65726f60381b604482015290519081900360640190fd5b600190565b60606000610d8961124e565b9050610d9361137b565b610dce5760405162461bcd60e51b81526004018080602001828103825260428152602001806116e26042913960600191505060405180910390fd5b610dd66115b8565b50604080516060810182528881526001600160a01b038a166020820152908101879052610e06898288888861140a565b610e415760405162461bcd60e51b81526004018080602001828103825260218152602001806116c16021913960400191505060405180910390fd5b6001600160a01b038916600090815260058301602090815260408083208b845290915290205460ff1615610ebc576040805162461bcd60e51b815260206004820181905260248201527f5245504c4159206f6620612070726576696f7573207472616e73616374696f6e604482015290519081900360640190fd5b6001600160a01b038916600081815260058401602090815260408083208c84528252808320805460ff1916600117905580519384523384830181905260609185018281528c51928601929092528b517f5845892132946850460bff5a0083f71031bc5bf9aadcd40f1de79423eac9b10b958f9592948e94919391926080850192918601918190849084905b83811015610f5f578181015183820152602001610f47565b50505050905090810190601f168015610f8c5780820380516001836020036101000a031916815260200191505b5094505050505060405180910390a160006060306001600160a01b0316898c6040516020018083805190602001908083835b60208310610fdd5780518252601f199092019160209182019101610fbe565b6001836020036101000a038019825116818451168082178552505050505050905001826001600160a01b031660601b8152601401925050506040516020818303038152906040526040518082805190602001908083835b602083106110535780518252601f199092019160209182019101611034565b6001836020036101000a0380198251168184511680821785525050505050509050019150506000604051808303816000865af19150503d80600081146110b5576040519150601f19603f3d011682016040523d82523d6000602084013e6110ba565b606091505b509150915081611111576040805162461bcd60e51b815260206004820152601c60248201527f46756e6374696f6e2063616c6c206e6f74207375636365737366756c00000000604482015290519081900360640190fd5b9a9950505050505050505050565b60405180608001604052806052815260200161161b605291398051906020012081565b6060600061114e61124e565b600881018054604080516020601f600260001961010060018816150201909516949094049384018190048102820181019092528281529394508301828280156111d85780601f106111ad576101008083540402835291602001916111d8565b820191906000526020600020905b8154815290600101906020018083116111bb57829003601f168201915b505050505091505090565b606060006111ef61124e565b600781018054604080516020601f600260001961010060018816150201909516949094049384018190048102820181019092528281529394508301828280156111d85780601f106111ad576101008083540402835291602001916111d8565b7fc8fcad8db84d3cc18b4c41d551ea0ee66dd599cde068d998e57d5e09332c131c90565b60006001600160a01b038616158015906113105750600161129a61129587611432565b6114b5565b83868660405160008152602001604052604051808581526020018460ff1681526020018381526020018281526020019450505050506020604051602081039080840390855afa1580156112f1573d6000803e3d6000fd5b505050602060405103516001600160a01b0316866001600160a01b0316145b9695505050505050565b600082820183811015611374576040805162461bcd60e51b815260206004820152601b60248201527f536166654d6174683a206164646974696f6e206f766572666c6f770000000000604482015290519081900360640190fd5b9392505050565b60008061138661124e565b600480820154604080516317937a0760e01b81523393810193909352519293506001600160a01b0316916317937a07916024808201926020929091908290030181600087803b1580156113d857600080fd5b505af11580156113ec573d6000803e3d6000fd5b505050506040513d602081101561140257600080fd5b505191505090565b60006001600160a01b038616158015906113105750600161129a61142d87611501565b611584565b60006040518060800160405280604381526020016115d860439139805190602001208260000151836020015184604001518051906020012060405160200180858152602001848152602001836001600160a01b03168152602001828152602001945050505050604051602081830303815290604052805190602001209050919050565b60006114bf610ab1565b82604051602001808061190160f01b81525060020183815260200182815260200192505050604051602081830303815290604052805190602001209050919050565b600060405180608001604052806054815260200161166d60549139805190602001208260000151836020015184604001518051906020012060405160200180858152602001848152602001836001600160a01b03168152602001828152602001945050505050604051602081830303815290604052805190602001209050919050565b60006114bf61097a565b60405180606001604052806000815260200160006001600160a01b03168152602001606081525090565b604080516060808201835260008083526020830152918101919091529056fe4d6574615472616e73616374696f6e2875696e74323536206e6f6e63652c616464726573732066726f6d2c62797465732066756e6374696f6e5369676e617475726529454950373132446f6d61696e28737472696e67206e616d652c737472696e672076657273696f6e2c75696e7432353620636861696e49642c6164647265737320766572696679696e67436f6e747261637429576f726b65724d6574615472616e73616374696f6e2862797465733332207265706c617950726576656e74696f6e2c616464726573732066726f6d2c62797465732066756e6374696f6e5369676e6174757265295369676e657220616e64207369676e617475726520646f206e6f74206d61746368576f726b6572204d6574612d5472616e73616374696f6e2073656e74206279206163636f756e74206f74686572207468616e206120776f726b65722f6d696e696f6ea26469706673582212203eb07fcfea45afec380edf715f75d4deab989135ad8ab83a927e701cc9fbc27b64736f6c63430007030033",
  "linkReferences": {},
  "deployedLinkReferences": {}
}