{
  "_format": "hh-sol-artifact-1",
  "contractName": "mockMaster",
  "sourceName": "contracts/mocks/mockMaster.sol",
  "abi": [
    {
      "inputs": [
        {
          "internalType": "address",
          "name": "worker_",
          "type": "address"
        },
        {
          "internalType": "bool",
          "name": "isWorker_",
          "type": "bool"
        }
      ],
      "name": "assignWorker",
      "outputs": [],
      "stateMutability": "nonpayable",
      "type": "function"
    },
    {
      "inputs": [
        {
          "internalType": "address",
          "name": "",
          "type": "address"
        }
      ],
      "name": "localContracts",
      "outputs": [
        {
          "internalType": "bool",
          "name": "",
          "type": "bool"
        }
      ],
      "stateMutability": "view",
      "type": "function"
    },
    {
      "inputs": [],
      "name": "owner",
      "outputs": [
        {
          "internalType": "address",
          "name": "",
          "type": "address"
        }
      ],
      "stateMutability": "view",
      "type": "function"
    },
    {
      "inputs": [
        {
          "internalType": "address",
          "name": "contract_",
          "type": "address"
        },
        {
          "internalType": "bool",
          "name": "isLocal_",
          "type": "bool"
        }
      ],
      "name": "updateLocalContract",
      "outputs": [],
      "stateMutability": "nonpayable",
      "type": "function"
    }
  ],
  "bytecode": "0x608060405234801561001057600080fd5b506101a0806100206000396000f3fe608060405234801561001057600080fd5b506004361061004c5760003560e01c80635958b3011461005157806372012a0b146100815780638da5cb5b146100bb578063f2c5d2ed146100df575b600080fd5b61007f6004803603604081101561006757600080fd5b506001600160a01b038135169060200135151561010d565b005b6100a76004803603602081101561009757600080fd5b50356001600160a01b031661011b565b604080519115158252519081900360200190f35b6100c3610130565b604080516001600160a01b039092168252519081900360200190f35b61007f600480360360408110156100f557600080fd5b506001600160a01b0381351690602001351515610117565b610117828261013f565b5050565b60006020819052908152604090205460ff1681565b6001546001600160a01b031681565b6001600160a01b03919091166000908152602081905260409020805460ff191691151591909117905556fea2646970667358221220698e2a6d2697eac8733b16a2d5ff7ac45f941269896b8ac5468ecb319bd3b6bd64736f6c63430007030033",
  "linkReferences": {},
  "deployedLinkReferences": {}
}