{
  "_format": "hh-sol-artifact-1",
  "contractName": "mockMaster",
  "sourceName": "contracts/mocks/mockMaster.sol",
  "abi": [
    {
      "inputs": [
        {
          "internalType": "address",
          "name": "",
          "type": "address"
        }
      ],
      "name": "localContracts",
      "outputs": [
        {
          "internalType": "bool",
          "name": "",
          "type": "bool"
        }
      ],
      "stateMutability": "view",
      "type": "function"
    },
    {
      "inputs": [],
      "name": "owner",
      "outputs": [
        {
          "internalType": "address",
          "name": "",
          "type": "address"
        }
      ],
      "stateMutability": "view",
      "type": "function"
    },
    {
      "inputs": [
        {
          "internalType": "address",
          "name": "contract_",
          "type": "address"
        },
        {
          "internalType": "bool",
          "name": "isLocal_",
          "type": "bool"
        }
      ],
      "name": "updateLocalContract",
      "outputs": [],
      "stateMutability": "nonpayable",
      "type": "function"
    }
  ],
  "bytecode": "0x608060405234801561001057600080fd5b50610167806100206000396000f3fe608060405234801561001057600080fd5b50600436106100415760003560e01c80635958b3011461004657806372012a0b146100765780638da5cb5b146100b0575b600080fd5b6100746004803603604081101561005c57600080fd5b506001600160a01b03813516906020013515156100d4565b005b61009c6004803603602081101561008c57600080fd5b50356001600160a01b03166100e2565b604080519115158252519081900360200190f35b6100b86100f7565b604080516001600160a01b039092168252519081900360200190f35b6100de8282610106565b5050565b60006020819052908152604090205460ff1681565b6001546001600160a01b031681565b6001600160a01b03919091166000908152602081905260409020805460ff191691151591909117905556fea264697066735822122048c07472cc7a54881ec698f98b5432e4907cfd682a7e276d9e954a0aed03dc1164736f6c63430007030033",
  "linkReferences": {},
  "deployedLinkReferences": {}
}