{
  "_format": "hh-sol-artifact-1",
  "contractName": "WorldSale",
  "sourceName": "contracts/WorldSale.sol",
  "abi": [
    {
      "inputs": [
        {
          "internalType": "address",
          "name": "_GAMECredits",
          "type": "address"
        },
        {
          "internalType": "string",
          "name": "uri",
          "type": "string"
        }
      ],
      "stateMutability": "nonpayable",
      "type": "constructor"
    },
    {
      "anonymous": false,
      "inputs": [
        {
          "indexed": true,
          "internalType": "address",
          "name": "account",
          "type": "address"
        },
        {
          "indexed": true,
          "internalType": "address",
          "name": "operator",
          "type": "address"
        },
        {
          "indexed": false,
          "internalType": "bool",
          "name": "approved",
          "type": "bool"
        }
      ],
      "name": "ApprovalForAll",
      "type": "event"
    },
    {
      "anonymous": false,
      "inputs": [
        {
          "indexed": true,
          "internalType": "uint256",
          "name": "_game",
          "type": "uint256"
        },
        {
          "indexed": true,
          "internalType": "address",
          "name": "account",
          "type": "address"
        },
        {
          "indexed": false,
          "internalType": "uint256",
          "name": "_tokenId",
          "type": "uint256"
        },
        {
          "indexed": true,
          "internalType": "uint256",
          "name": "_contestId",
          "type": "uint256"
        },
        {
          "indexed": false,
          "internalType": "uint256",
          "name": "_payment",
          "type": "uint256"
        },
        {
          "indexed": false,
          "internalType": "bytes32",
          "name": "_data",
          "type": "bytes32"
        }
      ],
      "name": "EnterContest",
      "type": "event"
    },
    {
      "anonymous": false,
      "inputs": [
        {
          "indexed": true,
          "internalType": "uint256",
          "name": "game",
          "type": "uint256"
        },
        {
          "indexed": false,
          "internalType": "uint256",
          "name": "balance",
          "type": "uint256"
        }
      ],
      "name": "GameBalance",
      "type": "event"
    },
    {
      "anonymous": false,
      "inputs": [
        {
          "indexed": true,
          "internalType": "uint256",
          "name": "_game",
          "type": "uint256"
        },
        {
          "indexed": true,
          "internalType": "address",
          "name": "account",
          "type": "address"
        },
        {
          "indexed": true,
          "internalType": "uint256",
          "name": "_tokenId",
          "type": "uint256"
        },
        {
          "indexed": false,
          "internalType": "uint256",
          "name": "_payment",
          "type": "uint256"
        },
        {
          "indexed": false,
          "internalType": "bytes32",
          "name": "_data",
          "type": "bytes32"
        }
      ],
      "name": "GameCreditsPayment",
      "type": "event"
    },
    {
      "anonymous": false,
      "inputs": [
        {
          "indexed": true,
          "internalType": "uint256",
          "name": "_game",
          "type": "uint256"
        },
        {
          "indexed": true,
          "internalType": "address",
          "name": "account",
          "type": "address"
        },
        {
          "indexed": true,
          "internalType": "uint256",
          "name": "_tokenId",
          "type": "uint256"
        },
        {
          "indexed": false,
          "internalType": "uint256",
          "name": "_payment",
          "type": "uint256"
        },
        {
          "indexed": false,
          "internalType": "bytes32",
          "name": "_data",
          "type": "bytes32"
        }
      ],
      "name": "LoyaltyPayment",
      "type": "event"
    },
    {
      "anonymous": false,
      "inputs": [
        {
          "indexed": true,
          "internalType": "bytes32",
          "name": "role",
          "type": "bytes32"
        },
        {
          "indexed": true,
          "internalType": "bytes32",
          "name": "previousAdminRole",
          "type": "bytes32"
        },
        {
          "indexed": true,
          "internalType": "bytes32",
          "name": "newAdminRole",
          "type": "bytes32"
        }
      ],
      "name": "RoleAdminChanged",
      "type": "event"
    },
    {
      "anonymous": false,
      "inputs": [
        {
          "indexed": true,
          "internalType": "bytes32",
          "name": "role",
          "type": "bytes32"
        },
        {
          "indexed": true,
          "internalType": "address",
          "name": "account",
          "type": "address"
        },
        {
          "indexed": true,
          "internalType": "address",
          "name": "sender",
          "type": "address"
        }
      ],
      "name": "RoleGranted",
      "type": "event"
    },
    {
      "anonymous": false,
      "inputs": [
        {
          "indexed": true,
          "internalType": "bytes32",
          "name": "role",
          "type": "bytes32"
        },
        {
          "indexed": true,
          "internalType": "address",
          "name": "account",
          "type": "address"
        },
        {
          "indexed": true,
          "internalType": "address",
          "name": "sender",
          "type": "address"
        }
      ],
      "name": "RoleRevoked",
      "type": "event"
    },
    {
      "anonymous": false,
      "inputs": [
        {
          "indexed": true,
          "internalType": "address",
          "name": "operator",
          "type": "address"
        },
        {
          "indexed": true,
          "internalType": "address",
          "name": "from",
          "type": "address"
        },
        {
          "indexed": true,
          "internalType": "address",
          "name": "to",
          "type": "address"
        },
        {
          "indexed": false,
          "internalType": "uint256[]",
          "name": "ids",
          "type": "uint256[]"
        },
        {
          "indexed": false,
          "internalType": "uint256[]",
          "name": "values",
          "type": "uint256[]"
        }
      ],
      "name": "TransferBatch",
      "type": "event"
    },
    {
      "anonymous": false,
      "inputs": [
        {
          "indexed": true,
          "internalType": "address",
          "name": "operator",
          "type": "address"
        },
        {
          "indexed": true,
          "internalType": "address",
          "name": "from",
          "type": "address"
        },
        {
          "indexed": true,
          "internalType": "address",
          "name": "to",
          "type": "address"
        },
        {
          "indexed": false,
          "internalType": "uint256",
          "name": "id",
          "type": "uint256"
        },
        {
          "indexed": false,
          "internalType": "uint256",
          "name": "value",
          "type": "uint256"
        }
      ],
      "name": "TransferSingle",
      "type": "event"
    },
    {
      "anonymous": false,
      "inputs": [
        {
          "indexed": false,
          "internalType": "string",
          "name": "value",
          "type": "string"
        },
        {
          "indexed": true,
          "internalType": "uint256",
          "name": "id",
          "type": "uint256"
        }
      ],
      "name": "URI",
      "type": "event"
    },
    {
      "anonymous": false,
      "inputs": [
        {
          "indexed": true,
          "internalType": "uint256",
          "name": "game",
          "type": "uint256"
        },
        {
          "indexed": true,
          "internalType": "address",
          "name": "account",
          "type": "address"
        },
        {
          "indexed": false,
          "internalType": "uint256",
          "name": "amount",
          "type": "uint256"
        }
      ],
      "name": "Withdrawal",
      "type": "event"
    },
    {
      "anonymous": false,
      "inputs": [
        {
          "indexed": false,
          "internalType": "uint256",
          "name": "_id",
          "type": "uint256"
        },
        {
          "indexed": false,
          "internalType": "bytes32",
          "name": "_specifications",
          "type": "bytes32"
        },
        {
          "indexed": false,
          "internalType": "uint256",
          "name": "_totalShares",
          "type": "uint256"
        },
        {
          "indexed": false,
          "internalType": "uint256",
          "name": "_sharePrice",
          "type": "uint256"
        },
        {
          "indexed": false,
          "internalType": "uint256",
          "name": "",
          "type": "uint256"
        }
      ],
      "name": "WorldCreated",
      "type": "event"
    },
    {
      "inputs": [],
      "name": "DEFAULT_ADMIN_ROLE",
      "outputs": [
        {
          "internalType": "bytes32",
          "name": "",
          "type": "bytes32"
        }
      ],
      "stateMutability": "view",
      "type": "function"
    },
    {
      "inputs": [],
      "name": "GAMECredits",
      "outputs": [
        {
          "internalType": "address",
          "name": "",
          "type": "address"
        }
      ],
      "stateMutability": "view",
      "type": "function"
    },
    {
      "inputs": [],
      "name": "METAVERSE_ADMIN",
      "outputs": [
        {
          "internalType": "bytes32",
          "name": "",
          "type": "bytes32"
        }
      ],
      "stateMutability": "view",
      "type": "function"
    },
    {
      "inputs": [
        {
          "internalType": "uint256",
          "name": "",
          "type": "uint256"
        }
      ],
      "name": "MetaWorlds",
      "outputs": [
        {
          "internalType": "uint256",
          "name": "id",
          "type": "uint256"
        },
        {
          "internalType": "bytes32",
          "name": "specification",
          "type": "bytes32"
        },
        {
          "internalType": "uint256",
          "name": "totalshares",
          "type": "uint256"
        },
        {
          "internalType": "uint256",
          "name": "allocatedShares",
          "type": "uint256"
        },
        {
          "internalType": "uint256",
          "name": "sharePrice",
          "type": "uint256"
        },
        {
          "internalType": "uint256",
          "name": "saleStart",
          "type": "uint256"
        }
      ],
      "stateMutability": "view",
      "type": "function"
    },
    {
      "inputs": [
        {
          "internalType": "uint256",
          "name": "share_amount",
          "type": "uint256"
        },
        {
          "internalType": "uint256",
          "name": "game_value",
          "type": "uint256"
        }
      ],
      "name": "addDiscount",
      "outputs": [
        {
          "internalType": "uint256",
          "name": "",
          "type": "uint256"
        }
      ],
      "stateMutability": "view",
      "type": "function"
    },
    {
      "inputs": [
        {
          "internalType": "address",
          "name": "account",
          "type": "address"
        },
        {
          "internalType": "uint256",
          "name": "id",
          "type": "uint256"
        }
      ],
      "name": "balanceOf",
      "outputs": [
        {
          "internalType": "uint256",
          "name": "",
          "type": "uint256"
        }
      ],
      "stateMutability": "view",
      "type": "function"
    },
    {
      "inputs": [
        {
          "internalType": "address[]",
          "name": "accounts",
          "type": "address[]"
        },
        {
          "internalType": "uint256[]",
          "name": "ids",
          "type": "uint256[]"
        }
      ],
      "name": "balanceOfBatch",
      "outputs": [
        {
          "internalType": "uint256[]",
          "name": "",
          "type": "uint256[]"
        }
      ],
      "stateMutability": "view",
      "type": "function"
    },
    {
      "inputs": [
        {
          "internalType": "uint256",
          "name": "",
          "type": "uint256"
        },
        {
          "internalType": "address",
          "name": "",
          "type": "address"
        },
        {
          "internalType": "uint256",
          "name": "",
          "type": "uint256"
        },
        {
          "internalType": "uint256",
          "name": "",
          "type": "uint256"
        },
        {
          "internalType": "uint256",
          "name": "",
          "type": "uint256"
        },
        {
          "internalType": "bytes32",
          "name": "",
          "type": "bytes32"
        }
      ],
      "name": "contestEntry",
      "outputs": [],
      "stateMutability": "nonpayable",
      "type": "function"
    },
    {
      "inputs": [
        {
          "internalType": "bytes32",
          "name": "_spec",
          "type": "bytes32"
        },
        {
          "internalType": "uint256",
          "name": "total_shares",
          "type": "uint256"
        },
        {
          "internalType": "uint256",
          "name": "_price",
          "type": "uint256"
        },
        {
          "internalType": "uint256",
          "name": "_start",
          "type": "uint256"
        }
      ],
      "name": "createWorld",
      "outputs": [],
      "stateMutability": "nonpayable",
      "type": "function"
    },
    {
      "inputs": [],
      "name": "erc20Contract",
      "outputs": [
        {
          "internalType": "contract iERC20",
          "name": "",
          "type": "address"
        }
      ],
      "stateMutability": "view",
      "type": "function"
    },
    {
      "inputs": [
        {
          "internalType": "uint256",
          "name": "",
          "type": "uint256"
        },
        {
          "internalType": "uint256",
          "name": "",
          "type": "uint256"
        },
        {
          "internalType": "uint256",
          "name": "",
          "type": "uint256"
        }
      ],
      "name": "fundRewardsPool",
      "outputs": [],
      "stateMutability": "nonpayable",
      "type": "function"
    },
    {
      "inputs": [
        {
          "internalType": "uint256",
          "name": "",
          "type": "uint256"
        }
      ],
      "name": "gameBalances",
      "outputs": [
        {
          "internalType": "uint256",
          "name": "",
          "type": "uint256"
        }
      ],
      "stateMutability": "view",
      "type": "function"
    },
    {
      "inputs": [
        {
          "internalType": "uint256",
          "name": "",
          "type": "uint256"
        },
        {
          "internalType": "address",
          "name": "",
          "type": "address"
        }
      ],
      "name": "getGameAccountSupport",
      "outputs": [
        {
          "internalType": "uint256",
          "name": "",
          "type": "uint256"
        }
      ],
      "stateMutability": "view",
      "type": "function"
    },
    {
      "inputs": [
        {
          "internalType": "uint256",
          "name": "input",
          "type": "uint256"
        },
        {
          "internalType": "uint256",
          "name": "percentage",
          "type": "uint256"
        }
      ],
      "name": "getPercentage",
      "outputs": [
        {
          "internalType": "uint256",
          "name": "",
          "type": "uint256"
        }
      ],
      "stateMutability": "pure",
      "type": "function"
    },
    {
      "inputs": [
        {
          "internalType": "bytes32",
          "name": "role",
          "type": "bytes32"
        }
      ],
      "name": "getRoleAdmin",
      "outputs": [
        {
          "internalType": "bytes32",
          "name": "",
          "type": "bytes32"
        }
      ],
      "stateMutability": "view",
      "type": "function"
    },
    {
      "inputs": [
        {
          "internalType": "bytes32",
          "name": "role",
          "type": "bytes32"
        },
        {
          "internalType": "uint256",
          "name": "index",
          "type": "uint256"
        }
      ],
      "name": "getRoleMember",
      "outputs": [
        {
          "internalType": "address",
          "name": "",
          "type": "address"
        }
      ],
      "stateMutability": "view",
      "type": "function"
    },
    {
      "inputs": [
        {
          "internalType": "bytes32",
          "name": "role",
          "type": "bytes32"
        }
      ],
      "name": "getRoleMemberCount",
      "outputs": [
        {
          "internalType": "uint256",
          "name": "",
          "type": "uint256"
        }
      ],
      "stateMutability": "view",
      "type": "function"
    },
    {
      "inputs": [
        {
          "internalType": "bytes32",
          "name": "role",
          "type": "bytes32"
        },
        {
          "internalType": "address",
          "name": "account",
          "type": "address"
        }
      ],
      "name": "grantRole",
      "outputs": [],
      "stateMutability": "nonpayable",
      "type": "function"
    },
    {
      "inputs": [
        {
          "internalType": "uint256",
          "name": "_shares",
          "type": "uint256"
        },
        {
          "internalType": "uint256",
          "name": "_world",
          "type": "uint256"
        },
        {
          "internalType": "address",
          "name": "recipient",
          "type": "address"
        }
      ],
      "name": "grantWorldShare",
      "outputs": [],
      "stateMutability": "nonpayable",
      "type": "function"
    },
    {
      "inputs": [
        {
          "internalType": "bytes32",
          "name": "role",
          "type": "bytes32"
        },
        {
          "internalType": "address",
          "name": "account",
          "type": "address"
        }
      ],
      "name": "hasRole",
      "outputs": [
        {
          "internalType": "bool",
          "name": "",
          "type": "bool"
        }
      ],
      "stateMutability": "view",
      "type": "function"
    },
    {
      "inputs": [
        {
          "internalType": "address",
          "name": "account",
          "type": "address"
        },
        {
          "internalType": "address",
          "name": "operator",
          "type": "address"
        }
      ],
      "name": "isApprovedForAll",
      "outputs": [
        {
          "internalType": "bool",
          "name": "",
          "type": "bool"
        }
      ],
      "stateMutability": "view",
      "type": "function"
    },
    {
      "inputs": [],
      "name": "isSupportContract",
      "outputs": [
        {
          "internalType": "bool",
          "name": "",
          "type": "bool"
        }
      ],
      "stateMutability": "pure",
      "type": "function"
    },
    {
      "inputs": [],
      "name": "ownerBalance",
      "outputs": [
        {
          "internalType": "uint256",
          "name": "",
          "type": "uint256"
        }
      ],
      "stateMutability": "view",
      "type": "function"
    },
    {
      "inputs": [
        {
          "internalType": "uint256",
          "name": "_game",
          "type": "uint256"
        },
        {
          "internalType": "address",
          "name": "_account",
          "type": "address"
        },
        {
          "internalType": "uint256",
          "name": "_tokenId",
          "type": "uint256"
        },
        {
          "internalType": "uint256",
          "name": "_payment",
          "type": "uint256"
        },
        {
          "internalType": "bytes32",
          "name": "_data",
          "type": "bytes32"
        }
      ],
      "name": "receiveGameCredits",
      "outputs": [],
      "stateMutability": "nonpayable",
      "type": "function"
    },
    {
      "inputs": [
        {
          "internalType": "uint256",
          "name": "_game",
          "type": "uint256"
        },
        {
          "internalType": "address",
          "name": "_account",
          "type": "address"
        },
        {
          "internalType": "uint256",
          "name": "_tokenId",
          "type": "uint256"
        },
        {
          "internalType": "uint256",
          "name": "_payment",
          "type": "uint256"
        },
        {
          "internalType": "bytes32",
          "name": "_data",
          "type": "bytes32"
        }
      ],
      "name": "receiveLoyaltyPayment",
      "outputs": [],
      "stateMutability": "nonpayable",
      "type": "function"
    },
    {
      "inputs": [
        {
          "internalType": "bytes32",
          "name": "role",
          "type": "bytes32"
        },
        {
          "internalType": "address",
          "name": "account",
          "type": "address"
        }
      ],
      "name": "renounceRole",
      "outputs": [],
      "stateMutability": "nonpayable",
      "type": "function"
    },
    {
      "inputs": [
        {
          "internalType": "bytes32",
          "name": "role",
          "type": "bytes32"
        },
        {
          "internalType": "address",
          "name": "account",
          "type": "address"
        }
      ],
      "name": "revokeRole",
      "outputs": [],
      "stateMutability": "nonpayable",
      "type": "function"
    },
    {
      "inputs": [
        {
          "internalType": "address",
          "name": "from",
          "type": "address"
        },
        {
          "internalType": "address",
          "name": "to",
          "type": "address"
        },
        {
          "internalType": "uint256[]",
          "name": "ids",
          "type": "uint256[]"
        },
        {
          "internalType": "uint256[]",
          "name": "amounts",
          "type": "uint256[]"
        },
        {
          "internalType": "bytes",
          "name": "data",
          "type": "bytes"
        }
      ],
      "name": "safeBatchTransferFrom",
      "outputs": [],
      "stateMutability": "nonpayable",
      "type": "function"
    },
    {
      "inputs": [
        {
          "internalType": "address",
          "name": "from",
          "type": "address"
        },
        {
          "internalType": "address",
          "name": "to",
          "type": "address"
        },
        {
          "internalType": "uint256",
          "name": "id",
          "type": "uint256"
        },
        {
          "internalType": "uint256",
          "name": "amount",
          "type": "uint256"
        },
        {
          "internalType": "bytes",
          "name": "data",
          "type": "bytes"
        }
      ],
      "name": "safeTransferFrom",
      "outputs": [],
      "stateMutability": "nonpayable",
      "type": "function"
    },
    {
      "inputs": [
        {
          "internalType": "address",
          "name": "operator",
          "type": "address"
        },
        {
          "internalType": "bool",
          "name": "approved",
          "type": "bool"
        }
      ],
      "name": "setApprovalForAll",
      "outputs": [],
      "stateMutability": "nonpayable",
      "type": "function"
    },
    {
      "inputs": [
        {
          "internalType": "uint256",
          "name": "_tokenFee",
          "type": "uint256"
        }
      ],
      "name": "setTokenFee",
      "outputs": [],
      "stateMutability": "nonpayable",
      "type": "function"
    },
    {
      "inputs": [
        {
          "internalType": "string",
          "name": "newuri",
          "type": "string"
        }
      ],
      "name": "setURI",
      "outputs": [],
      "stateMutability": "nonpayable",
      "type": "function"
    },
    {
      "inputs": [
        {
          "internalType": "bytes4",
          "name": "interfaceId",
          "type": "bytes4"
        }
      ],
      "name": "supportsInterface",
      "outputs": [
        {
          "internalType": "bool",
          "name": "",
          "type": "bool"
        }
      ],
      "stateMutability": "view",
      "type": "function"
    },
    {
      "inputs": [],
      "name": "total",
      "outputs": [
        {
          "internalType": "uint256",
          "name": "",
          "type": "uint256"
        }
      ],
      "stateMutability": "view",
      "type": "function"
    },
    {
      "inputs": [
        {
          "internalType": "uint256[]",
          "name": "_discounts",
          "type": "uint256[]"
        }
      ],
      "name": "updateDiscounts",
      "outputs": [],
      "stateMutability": "nonpayable",
      "type": "function"
    },
    {
      "inputs": [
        {
          "internalType": "uint256",
          "name": "",
          "type": "uint256"
        },
        {
          "internalType": "address",
          "name": "",
          "type": "address"
        },
        {
          "internalType": "uint256",
          "name": "",
          "type": "uint256"
        }
      ],
      "name": "updateSupport",
      "outputs": [],
      "stateMutability": "nonpayable",
      "type": "function"
    },
    {
      "inputs": [
        {
          "internalType": "uint256[]",
          "name": "_thresholds",
          "type": "uint256[]"
        }
      ],
      "name": "updateThresholds",
      "outputs": [],
      "stateMutability": "nonpayable",
      "type": "function"
    },
    {
      "inputs": [
        {
          "internalType": "uint256",
          "name": "w",
          "type": "uint256"
        },
        {
          "internalType": "bytes32",
          "name": "_spec",
          "type": "bytes32"
        },
        {
          "internalType": "uint256",
          "name": "total_shares",
          "type": "uint256"
        },
        {
          "internalType": "uint256",
          "name": "_price",
          "type": "uint256"
        },
        {
          "internalType": "uint256",
          "name": "_start",
          "type": "uint256"
        }
      ],
      "name": "updateWorld",
      "outputs": [],
      "stateMutability": "nonpayable",
      "type": "function"
    },
    {
      "inputs": [
        {
          "internalType": "uint256",
          "name": "",
          "type": "uint256"
        }
      ],
      "name": "uri",
      "outputs": [
        {
          "internalType": "string",
          "name": "",
          "type": "string"
        }
      ],
      "stateMutability": "view",
      "type": "function"
    },
    {
      "inputs": [],
      "name": "url",
      "outputs": [
        {
          "internalType": "string",
          "name": "",
          "type": "string"
        }
      ],
      "stateMutability": "view",
      "type": "function"
    },
    {
      "inputs": [
        {
          "internalType": "uint256",
          "name": "_game",
          "type": "uint256"
        }
      ],
      "name": "withdrawGameBalance",
      "outputs": [],
      "stateMutability": "nonpayable",
      "type": "function"
    },
    {
      "inputs": [],
      "name": "withdrawOwnerBalance",
      "outputs": [],
      "stateMutability": "nonpayable",
      "type": "function"
    }
  ],
  "bytecode": "0x60806040526040518060400160405280601b81526020017f68747470733a2f2f7777772e67616d65637265646974732e6f726700000000008152506007908051906020019062000051929190620006b1565b506000600c556040518060a00160405280620186a062ffffff168152602001620249f062ffffff16815260200162030d4062ffffff1681526020016203d09062ffffff168152602001620493e062ffffff16815250600d906005620000b892919062000738565b506040518060a00160405280606461ffff1681526020016101f461ffff1681526020016103e861ffff1681526020016107d061ffff16815260200161138861ffff16815250600e9060056200010f92919062000791565b503480156200011d57600080fd5b50604051620052ad380380620052ad833981810160405260408110156200014357600080fd5b8101908080519060200190929190805160405193929190846401000000008211156200016e57600080fd5b838201915060208201858111156200018557600080fd5b8251866001820283011164010000000082111715620001a357600080fd5b8083526020830192505050908051906020019080838360005b83811015620001d9578082015181840152602081019050620001bc565b50505050905090810190601f168015620002075780820380516001836020036101000a031916815260200191505b50604052505050808080620002296301ffc9a760e01b6200039160201b60201c565b6200023a816200049a60201b60201c565b6200025263d9b67a2660e01b6200039160201b60201c565b6200026a630e89341c60e01b6200039160201b60201c565b506200028f6000801b62000283620004b660201b60201c565b620004be60201b60201c565b620002d07fd01a726e3c29a8c3f1e11dc604364fc90e918d0d6a4c81583749a60ca06abd16620002c4620004b660201b60201c565b620004be60201b60201c565b620003056000801b7fd01a726e3c29a8c3f1e11dc604364fc90e918d0d6a4c81583749a60ca06abd16620004d460201b60201c565b505081600b60006101000a81548173ffffffffffffffffffffffffffffffffffffffff021916908373ffffffffffffffffffffffffffffffffffffffff16021790555081600a60006101000a81548173ffffffffffffffffffffffffffffffffffffffff021916908373ffffffffffffffffffffffffffffffffffffffff160217905550505062000808565b63ffffffff60e01b817bffffffffffffffffffffffffffffffffffffffffffffffffffffffff191614156200042e576040517f08c379a000000000000000000000000000000000000000000000000000000000815260040180806020018281038252601c8152602001807f4552433136353a20696e76616c696420696e746572666163652069640000000081525060200191505060405180910390fd5b6001600080837bffffffffffffffffffffffffffffffffffffffffffffffffffffffff19167bffffffffffffffffffffffffffffffffffffffffffffffffffffffff1916815260200190815260200160002060006101000a81548160ff02191690831515021790555050565b8060039080519060200190620004b2929190620006b1565b5050565b600033905090565b620004d082826200053860201b60201c565b5050565b806004600084815260200190815260200160002060020154837fbd79b86ffe0ab8e8776151514217cd7cacd52c909f66475c3af44e129f0b00ff60405160405180910390a48060046000848152602001908152602001600020600201819055505050565b620005678160046000858152602001908152602001600020600001620005dc60201b6200322a1790919060201c565b15620005d8576200057d620004b660201b60201c565b73ffffffffffffffffffffffffffffffffffffffff168173ffffffffffffffffffffffffffffffffffffffff16837f2f8788117e7eff1d82e926ec794901d17c78024a50270940304540a733656f0d60405160405180910390a45b5050565b60006200060c836000018373ffffffffffffffffffffffffffffffffffffffff1660001b6200061460201b60201c565b905092915050565b60006200062883836200068e60201b60201c565b6200068357826000018290806001815401808255809150506001900390600052602060002001600090919091909150558260000180549050836001016000848152602001908152602001600020819055506001905062000688565b600090505b92915050565b600080836001016000848152602001908152602001600020541415905092915050565b828054600181600116156101000203166002900490600052602060002090601f016020900481019282601f10620006f457805160ff191683800117855562000725565b8280016001018555821562000725579182015b828111156200072457825182559160200191906001019062000707565b5b509050620007349190620007e9565b5090565b8280548282559060005260206000209081019282156200077e579160200282015b828111156200077d578251829062ffffff1690559160200191906001019062000759565b5b5090506200078d9190620007e9565b5090565b828054828255906000526020600020908101928215620007d6579160200282015b82811115620007d5578251829061ffff16905591602001919060010190620007b2565b5b509050620007e59190620007e9565b5090565b5b8082111562000804576000816000905550600101620007ea565b5090565b614a9580620008186000396000f3fe608060405234801561001057600080fd5b506004361061025d5760003560e01c806389d43c7711610146578063ca15c873116100c3578063e985e9c511610087578063e985e9c51461119f578063f242432a14611219578063f74f365514611328578063faeb14b114611374578063fbb864c1146113cc578063ff490d5e146114185761025d565b8063ca15c87314611079578063d0c23075146110bb578063d547741f146110fd578063d5c9f3951461114b578063e5a11a961461117f5761025d565b8063a217fddf1161010a578063a217fddf14610f43578063a22cb46514610f61578063a8f6c91314610fb1578063bc2caed514610fe5578063bedcf0031461105b5761025d565b806389d43c7714610de35780639010d07c14610e4557806391d1485414610ea7578063941b80ac14610f0b5780639f3fba5914610f155761025d565b8063311db133116101df5780634e1273f4116101a35780634e1273f4146109f45780635600f04f14610b9557806363a72d9d14610c1857806369b0477714610c7d5780636bb92fa014610d3557806385c5ff1c14610d775761025d565b8063311db1331461085e57806331b31b88146108ca57806333419e9c146108f857806334c406c31461095057806336568abe146109a65761025d565b806323860a101161022657806323860a10146104d5578063248a9ca31461058d5780632ddbd13a146105cf5780632eb2c2d6146105ed5780632f2ff15d146108105761025d565b8062fdd58e1461026257806301ffc9a7146102c457806302fe5305146103275780630ab68776146103e25780630e89341c1461042e575b600080fd5b6102ae6004803603604081101561027857600080fd5b81019080803573ffffffffffffffffffffffffffffffffffffffff16906020019092919080359060200190929190505050611436565b6040518082815260200191505060405180910390f35b61030f600480360360208110156102da57600080fd5b8101908080357bffffffffffffffffffffffffffffffffffffffffffffffffffffffff19169060200190929190505050611516565b60405180821515815260200191505060405180910390f35b6103e06004803603602081101561033d57600080fd5b810190808035906020019064010000000081111561035a57600080fd5b82018360208201111561036c57600080fd5b8035906020019184600183028401116401000000008311171561038e57600080fd5b91908080601f016020809104026020016040519081016040528093929190818152602001838380828437600081840152601f19601f82011690508083019250505050505050919291929050505061157d565b005b610418600480360360408110156103f857600080fd5b8101908080359060200190929190803590602001909291905050506115be565b6040518082815260200191505060405180910390f35b61045a6004803603602081101561044457600080fd5b810190808035906020019092919050505061175f565b6040518080602001828103825283818151815260200191508051906020019080838360005b8381101561049a57808201518184015260208101905061047f565b50505050905090810190601f1680156104c75780820380516001836020036101000a031916815260200191505b509250505060405180910390f35b61058b600480360360208110156104eb57600080fd5b810190808035906020019064010000000081111561050857600080fd5b82018360208201111561051a57600080fd5b8035906020019184602083028401116401000000008311171561053c57600080fd5b919080806020026020016040519081016040528093929190818152602001838360200280828437600081840152601f19601f820116905080830192505050505050509192919290505050611803565b005b6105b9600480360360208110156105a357600080fd5b8101908080359060200190929190505050611852565b6040518082815260200191505060405180910390f35b6105d7611872565b6040518082815260200191505060405180910390f35b61080e600480360360a081101561060357600080fd5b81019080803573ffffffffffffffffffffffffffffffffffffffff169060200190929190803573ffffffffffffffffffffffffffffffffffffffff1690602001909291908035906020019064010000000081111561066057600080fd5b82018360208201111561067257600080fd5b8035906020019184602083028401116401000000008311171561069457600080fd5b919080806020026020016040519081016040528093929190818152602001838360200280828437600081840152601f19601f820116905080830192505050505050509192919290803590602001906401000000008111156106f457600080fd5b82018360208201111561070657600080fd5b8035906020019184602083028401116401000000008311171561072857600080fd5b919080806020026020016040519081016040528093929190818152602001838360200280828437600081840152601f19601f8201169050808301925050505050505091929192908035906020019064010000000081111561078857600080fd5b82018360208201111561079a57600080fd5b803590602001918460018302840111640100000000831117156107bc57600080fd5b91908080601f016020809104026020016040519081016040528093929190818152602001838380828437600081840152601f19601f820116905080830192505050505050509192919290505050611878565b005b61085c6004803603604081101561082657600080fd5b8101908080359060200190929190803573ffffffffffffffffffffffffffffffffffffffff169060200190929190505050611d03565b005b6108c8600480360360a081101561087457600080fd5b8101908080359060200190929190803573ffffffffffffffffffffffffffffffffffffffff169060200190929190803590602001909291908035906020019092919080359060200190929190505050611d8d565b005b6108f6600480360360208110156108e057600080fd5b8101908080359060200190929190505050611ea1565b005b61094e6004803603606081101561090e57600080fd5b8101908080359060200190929190803573ffffffffffffffffffffffffffffffffffffffff16906020019092919080359060200190929190505050611ef2565b005b6109a4600480360360a081101561096657600080fd5b810190808035906020019092919080359060200190929190803590602001909291908035906020019092919080359060200190929190505050611f43565b005b6109f2600480360360408110156109bc57600080fd5b8101908080359060200190929190803573ffffffffffffffffffffffffffffffffffffffff169060200190929190505050611fbb565b005b610b3e60048036036040811015610a0a57600080fd5b8101908080359060200190640100000000811115610a2757600080fd5b820183602082011115610a3957600080fd5b80359060200191846020830284011164010000000083111715610a5b57600080fd5b919080806020026020016040519081016040528093929190818152602001838360200280828437600081840152601f19601f82011690508083019250505050505050919291929080359060200190640100000000811115610abb57600080fd5b820183602082011115610acd57600080fd5b80359060200191846020830284011164010000000083111715610aef57600080fd5b919080806020026020016040519081016040528093929190818152602001838360200280828437600081840152601f19601f820116905080830192505050505050509192919290505050612054565b6040518080602001828103825283818151815260200191508051906020019060200280838360005b83811015610b81578082015181840152602081019050610b66565b505050509050019250505060405180910390f35b610b9d612246565b6040518080602001828103825283818151815260200191508051906020019080838360005b83811015610bdd578082015181840152602081019050610bc2565b50505050905090810190601f168015610c0a5780820380516001836020036101000a031916815260200191505b509250505060405180910390f35b610c4460048036036020811015610c2e57600080fd5b81019080803590602001909291905050506122e4565b60405180878152602001868152602001858152602001848152602001838152602001828152602001965050505050505060405180910390f35b610d3360048036036020811015610c9357600080fd5b8101908080359060200190640100000000811115610cb057600080fd5b820183602082011115610cc257600080fd5b80359060200191846020830284011164010000000083111715610ce457600080fd5b919080806020026020016040519081016040528093929190818152602001838360200280828437600081840152601f19601f820116905080830192505050505050509192919290505050612320565b005b610d7560048036036060811015610d4b57600080fd5b8101908080359060200190929190803590602001909291908035906020019092919050505061236f565b005b610de1600480360360a0811015610d8d57600080fd5b8101908080359060200190929190803573ffffffffffffffffffffffffffffffffffffffff1690602001909291908035906020019092919080359060200190929190803590602001909291905050506123c0565b005b610e2f60048036036040811015610df957600080fd5b8101908080359060200190929190803573ffffffffffffffffffffffffffffffffffffffff16906020019092919050505061248a565b6040518082815260200191505060405180910390f35b610e7b60048036036040811015610e5b57600080fd5b8101908080359060200190929190803590602001909291905050506124dd565b604051808273ffffffffffffffffffffffffffffffffffffffff16815260200191505060405180910390f35b610ef360048036036040811015610ebd57600080fd5b8101908080359060200190929190803573ffffffffffffffffffffffffffffffffffffffff16906020019092919050505061250f565b60405180821515815260200191505060405180910390f35b610f13612541565b005b610f4160048036036020811015610f2b57600080fd5b81019080803590602001909291905050506126e1565b005b610f4b6128a2565b6040518082815260200191505060405180910390f35b610faf60048036036040811015610f7757600080fd5b81019080803573ffffffffffffffffffffffffffffffffffffffff1690602001909291908035151590602001909291905050506128a9565b005b610fb9612a42565b604051808273ffffffffffffffffffffffffffffffffffffffff16815260200191505060405180910390f35b611059600480360360c0811015610ffb57600080fd5b8101908080359060200190929190803573ffffffffffffffffffffffffffffffffffffffff16906020019092919080359060200190929190803590602001909291908035906020019092919080359060200190929190505050612a68565b005b611063612ab9565b6040518082815260200191505060405180910390f35b6110a56004803603602081101561108f57600080fd5b8101908080359060200190929190505050612abf565b6040518082815260200191505060405180910390f35b6110e7600480360360208110156110d157600080fd5b8101908080359060200190929190505050612ae6565b6040518082815260200191505060405180910390f35b6111496004803603604081101561111357600080fd5b8101908080359060200190929190803573ffffffffffffffffffffffffffffffffffffffff169060200190929190505050612afe565b005b611153612b88565b604051808273ffffffffffffffffffffffffffffffffffffffff16815260200191505060405180910390f35b611187612bae565b60405180821515815260200191505060405180910390f35b611201600480360360408110156111b557600080fd5b81019080803573ffffffffffffffffffffffffffffffffffffffff169060200190929190803573ffffffffffffffffffffffffffffffffffffffff169060200190929190505050612bb7565b60405180821515815260200191505060405180910390f35b611326600480360360a081101561122f57600080fd5b81019080803573ffffffffffffffffffffffffffffffffffffffff169060200190929190803573ffffffffffffffffffffffffffffffffffffffff1690602001909291908035906020019092919080359060200190929190803590602001906401000000008111156112a057600080fd5b8201836020820111156112b257600080fd5b803590602001918460018302840111640100000000831117156112d457600080fd5b91908080601f016020809104026020016040519081016040528093929190818152602001838380828437600081840152601f19601f820116905080830192505050505050509192919290505050612c4b565b005b61135e6004803603604081101561133e57600080fd5b810190808035906020019092919080359060200190929190505050612fc0565b6040518082815260200191505060405180910390f35b6113ca6004803603606081101561138a57600080fd5b810190808035906020019092919080359060200190929190803573ffffffffffffffffffffffffffffffffffffffff169060200190929190505050613009565b005b611416600480360360808110156113e257600080fd5b810190808035906020019092919080359060200190929190803590602001909291908035906020019092919050505061312f565b005b611420613206565b6040518082815260200191505060405180910390f35b60008073ffffffffffffffffffffffffffffffffffffffff168373ffffffffffffffffffffffffffffffffffffffff1614156114bd576040517f08c379a000000000000000000000000000000000000000000000000000000000815260040180806020018281038252602b81526020018061477b602b913960400191505060405180910390fd5b6001600083815260200190815260200160002060008473ffffffffffffffffffffffffffffffffffffffff1673ffffffffffffffffffffffffffffffffffffffff16815260200190815260200160002054905092915050565b6000806000837bffffffffffffffffffffffffffffffffffffffffffffffffffffffff19167bffffffffffffffffffffffffffffffffffffffffffffffffffffffff1916815260200190815260200160002060009054906101000a900460ff169050919050565b336115a87fd01a726e3c29a8c3f1e11dc604364fc90e918d0d6a4c81583749a60ca06abd168261250f565b6115b157600080fd5b6115ba8261325a565b5050565b6000600e6000815481106115ce57fe5b9060005260206000200154831061175057600e6001815481106115ed57fe5b90600052602060002001548310156116285761162182600d60008154811061161157fe5b9060005260206000200154612fc0565b9050611759565b600e60028154811061163657fe5b90600052602060002001548310156116715761166a82600d60018154811061165a57fe5b9060005260206000200154612fc0565b9050611759565b600e60038154811061167f57fe5b90600052602060002001548310156116ba576116b382600d6002815481106116a357fe5b9060005260206000200154612fc0565b9050611759565b600e6004815481106116c857fe5b9060005260206000200154831015611703576116fc82600d6003815481106116ec57fe5b9060005260206000200154612fc0565b9050611759565b600e60048154811061171157fe5b9060005260206000200154831061174b5761174482600d60048154811061173457fe5b9060005260206000200154612fc0565b9050611759565b611758565b819050611759565b5b92915050565b606060038054600181600116156101000203166002900480601f0160208091040260200160405190810160405280929190818152602001828054600181600116156101000203166002900480156117f75780601f106117cc576101008083540402835291602001916117f7565b820191906000526020600020905b8154815290600101906020018083116117da57829003601f168201915b50505050509050919050565b3361182e7fd01a726e3c29a8c3f1e11dc604364fc90e918d0d6a4c81583749a60ca06abd168261250f565b61183757600080fd5b81600d908051906020019061184d9291906144a1565b505050565b600060046000838152602001908152602001600020600201549050919050565b60055481565b81518351146118d2576040517f08c379a00000000000000000000000000000000000000000000000000000000081526004018080602001828103825260288152602001806149ab6028913960400191505060405180910390fd5b600073ffffffffffffffffffffffffffffffffffffffff168473ffffffffffffffffffffffffffffffffffffffff161415611958576040517f08c379a000000000000000000000000000000000000000000000000000000000815260040180806020018281038252602581526020018061485f6025913960400191505060405180910390fd5b611960613274565b73ffffffffffffffffffffffffffffffffffffffff168573ffffffffffffffffffffffffffffffffffffffff1614806119a657506119a5856119a0613274565b612bb7565b5b6119fb576040517f08c379a00000000000000000000000000000000000000000000000000000000081526004018080602001828103825260328152602001806148846032913960400191505060405180910390fd5b6000611a05613274565b9050611a1581878787878761327c565b60005b8451811015611be6576000858281518110611a2f57fe5b602002602001015190506000858381518110611a4757fe5b60200260200101519050611ace816040518060600160405280602a81526020016148b6602a91396001600086815260200190815260200160002060008d73ffffffffffffffffffffffffffffffffffffffff1673ffffffffffffffffffffffffffffffffffffffff168152602001908152602001600020546132849092919063ffffffff16565b6001600084815260200190815260200160002060008b73ffffffffffffffffffffffffffffffffffffffff1673ffffffffffffffffffffffffffffffffffffffff16815260200190815260200160002081905550611b85816001600085815260200190815260200160002060008b73ffffffffffffffffffffffffffffffffffffffff1673ffffffffffffffffffffffffffffffffffffffff1681526020019081526020016000205461334490919063ffffffff16565b6001600084815260200190815260200160002060008a73ffffffffffffffffffffffffffffffffffffffff1673ffffffffffffffffffffffffffffffffffffffff168152602001908152602001600020819055505050806001019050611a18565b508473ffffffffffffffffffffffffffffffffffffffff168673ffffffffffffffffffffffffffffffffffffffff168273ffffffffffffffffffffffffffffffffffffffff167f4a39dc06d4c0dbc64b70af90fd698a233a518aa5d07e595d983b8c0526c8f7fb8787604051808060200180602001838103835285818151815260200191508051906020019060200280838360005b83811015611c96578082015181840152602081019050611c7b565b50505050905001838103825284818151815260200191508051906020019060200280838360005b83811015611cd8578082015181840152602081019050611cbd565b5050505090500194505050505060405180910390a4611cfb8187878787876133cc565b505050505050565b611d2a6004600084815260200190815260200160002060020154611d25613274565b61250f565b611d7f576040517f08c379a000000000000000000000000000000000000000000000000000000000815260040180806020018281038252602f815260200180614717602f913960400191505060405180910390fd5b611d89828261375b565b5050565b600b60009054906101000a900473ffffffffffffffffffffffffffffffffffffffff1673ffffffffffffffffffffffffffffffffffffffff163373ffffffffffffffffffffffffffffffffffffffff1614611e50576040517f08c379a000000000000000000000000000000000000000000000000000000000815260040180806020018281038252601d8152602001807f6f6e6c792067616d6520746f6b656e2063616e2063616c6c207468697300000081525060200191505060405180910390fd5b6040517f08c379a00000000000000000000000000000000000000000000000000000000081526004018080602001828103825260348152602001806149016034913960400191505060405180910390fd5b6040517f08c379a000000000000000000000000000000000000000000000000000000000815260040180806020018281038252603d815260200180614a23603d913960400191505060405180910390fd5b6040517f08c379a00000000000000000000000000000000000000000000000000000000081526004018080602001828103825260358152602001806147466035913960400191505060405180910390fd5b33611f6e7fd01a726e3c29a8c3f1e11dc604364fc90e918d0d6a4c81583749a60ca06abd168261250f565b611f7757600080fd5b600060066000888152602001908152602001600020905085816001018190555084816002018190555083816004018190555082816005018190555050505050505050565b611fc3613274565b73ffffffffffffffffffffffffffffffffffffffff168173ffffffffffffffffffffffffffffffffffffffff1614612046576040517f08c379a000000000000000000000000000000000000000000000000000000000815260040180806020018281038252602f8152602001806149f4602f913960400191505060405180910390fd5b61205082826137ef565b5050565b606081518351146120b0576040517f08c379a00000000000000000000000000000000000000000000000000000000081526004018080602001828103825260298152602001806149826029913960400191505060405180910390fd5b6060835167ffffffffffffffff811180156120ca57600080fd5b506040519080825280602002602001820160405280156120f95781602001602082028036833780820191505090505b50905060005b845181101561223b57600073ffffffffffffffffffffffffffffffffffffffff1685828151811061212c57fe5b602002602001015173ffffffffffffffffffffffffffffffffffffffff1614156121a1576040517f08c379a00000000000000000000000000000000000000000000000000000000081526004018080602001828103825260318152602001806147a66031913960400191505060405180910390fd5b600160008583815181106121b157fe5b6020026020010151815260200190815260200160002060008683815181106121d557fe5b602002602001015173ffffffffffffffffffffffffffffffffffffffff1673ffffffffffffffffffffffffffffffffffffffff1681526020019081526020016000205482828151811061222457fe5b6020026020010181815250508060010190506120ff565b508091505092915050565b60078054600181600116156101000203166002900480601f0160208091040260200160405190810160405280929190818152602001828054600181600116156101000203166002900480156122dc5780601f106122b1576101008083540402835291602001916122dc565b820191906000526020600020905b8154815290600101906020018083116122bf57829003601f168201915b505050505081565b60066020528060005260406000206000915090508060000154908060010154908060020154908060030154908060040154908060050154905086565b3361234b7fd01a726e3c29a8c3f1e11dc604364fc90e918d0d6a4c81583749a60ca06abd168261250f565b61235457600080fd5b81600e908051906020019061236a9291906144a1565b505050565b6040517f08c379a000000000000000000000000000000000000000000000000000000000815260040180806020018281038252602f8152602001806147d7602f913960400191505060405180910390fd5b600082905060006123dc8260095461334490919063ffffffff16565b9050806009819055506123f187858789613883565b848673ffffffffffffffffffffffffffffffffffffffff16887f36eccb6fa0f41d829a1b78445743906d8974145e898530d8e62c9caf623cc3218787604051808381526020018281526020019250505060405180910390a4867f5e9bae6b8accc197d8107f826edb077de20176d24bc9b3b762d689cdafa256df826040518082815260200191505060405180910390a250505050505050565b60006040517f08c379a000000000000000000000000000000000000000000000000000000000815260040180806020018281038252603d815260200180614a23603d913960400191505060405180910390fd5b60006125078260046000868152602001908152602001600020600001613a9090919063ffffffff16565b905092915050565b60006125398260046000868152602001908152602001600020600001613aaa90919063ffffffff16565b905092915050565b3361256c7fd01a726e3c29a8c3f1e11dc604364fc90e918d0d6a4c81583749a60ca06abd168261250f565b61257557600080fd5b600060095490506000600981905550600a60009054906101000a900473ffffffffffffffffffffffffffffffffffffffff1673ffffffffffffffffffffffffffffffffffffffff1663a9059cbb33836040518363ffffffff1660e01b8152600401808373ffffffffffffffffffffffffffffffffffffffff16815260200182815260200192505050602060405180830381600087803b15801561261757600080fd5b505af115801561262b573d6000803e3d6000fd5b505050506040513d602081101561264157600080fd5b8101908080519060200190929190505050503373ffffffffffffffffffffffffffffffffffffffff1660007f37e8063b72a944a76de602f32b82fd8c2a1c6f99564c727ffaf913c7762cd420836040518082815260200191505060405180910390a360007f5e9bae6b8accc197d8107f826edb077de20176d24bc9b3b762d689cdafa256df60006040518082815260200191505060405180910390a25050565b3361270c7fd01a726e3c29a8c3f1e11dc604364fc90e918d0d6a4c81583749a60ca06abd168261250f565b61271557600080fd5b60006008600084815260200190815260200160002054905060006008600085815260200190815260200160002081905550600a60009054906101000a900473ffffffffffffffffffffffffffffffffffffffff1673ffffffffffffffffffffffffffffffffffffffff1663a9059cbb33836040518363ffffffff1660e01b8152600401808373ffffffffffffffffffffffffffffffffffffffff16815260200182815260200192505050602060405180830381600087803b1580156127d957600080fd5b505af11580156127ed573d6000803e3d6000fd5b505050506040513d602081101561280357600080fd5b8101908080519060200190929190505050503373ffffffffffffffffffffffffffffffffffffffff16837f37e8063b72a944a76de602f32b82fd8c2a1c6f99564c727ffaf913c7762cd420836040518082815260200191505060405180910390a3827f5e9bae6b8accc197d8107f826edb077de20176d24bc9b3b762d689cdafa256df60006040518082815260200191505060405180910390a2505050565b6000801b81565b8173ffffffffffffffffffffffffffffffffffffffff166128c8613274565b73ffffffffffffffffffffffffffffffffffffffff161415612935576040517f08c379a00000000000000000000000000000000000000000000000000000000081526004018080602001828103825260298152602001806149596029913960400191505060405180910390fd5b8060026000612942613274565b73ffffffffffffffffffffffffffffffffffffffff1673ffffffffffffffffffffffffffffffffffffffff16815260200190815260200160002060008473ffffffffffffffffffffffffffffffffffffffff1673ffffffffffffffffffffffffffffffffffffffff16815260200190815260200160002060006101000a81548160ff0219169083151502179055508173ffffffffffffffffffffffffffffffffffffffff166129ef613274565b73ffffffffffffffffffffffffffffffffffffffff167f17307eab39ab6107e8899845ad3d59bd9653f200f220920489ca2b5937696c318360405180821515815260200191505060405180910390a35050565b600a60009054906101000a900473ffffffffffffffffffffffffffffffffffffffff1681565b6040517f08c379a00000000000000000000000000000000000000000000000000000000081526004018080602001828103825260348152602001806149016034913960400191505060405180910390fd5b60095481565b6000612adf60046000848152602001908152602001600020600001613ada565b9050919050565b60086020528060005260406000206000915090505481565b612b256004600084815260200190815260200160002060020154612b20613274565b61250f565b612b7a576040517f08c379a000000000000000000000000000000000000000000000000000000000815260040180806020018281038252603081526020018061482f6030913960400191505060405180910390fd5b612b8482826137ef565b5050565b600b60009054906101000a900473ffffffffffffffffffffffffffffffffffffffff1681565b60006001905090565b6000600260008473ffffffffffffffffffffffffffffffffffffffff1673ffffffffffffffffffffffffffffffffffffffff16815260200190815260200160002060008373ffffffffffffffffffffffffffffffffffffffff1673ffffffffffffffffffffffffffffffffffffffff16815260200190815260200160002060009054906101000a900460ff16905092915050565b600073ffffffffffffffffffffffffffffffffffffffff168473ffffffffffffffffffffffffffffffffffffffff161415612cd1576040517f08c379a000000000000000000000000000000000000000000000000000000000815260040180806020018281038252602581526020018061485f6025913960400191505060405180910390fd5b612cd9613274565b73ffffffffffffffffffffffffffffffffffffffff168573ffffffffffffffffffffffffffffffffffffffff161480612d1f5750612d1e85612d19613274565b612bb7565b5b612d74576040517f08c379a00000000000000000000000000000000000000000000000000000000081526004018080602001828103825260298152602001806148066029913960400191505060405180910390fd5b6000612d7e613274565b9050612d9e818787612d8f88613aef565b612d9888613aef565b8761327c565b612e1b836040518060600160405280602a81526020016148b6602a91396001600088815260200190815260200160002060008a73ffffffffffffffffffffffffffffffffffffffff1673ffffffffffffffffffffffffffffffffffffffff168152602001908152602001600020546132849092919063ffffffff16565b6001600086815260200190815260200160002060008873ffffffffffffffffffffffffffffffffffffffff1673ffffffffffffffffffffffffffffffffffffffff16815260200190815260200160002081905550612ed2836001600087815260200190815260200160002060008873ffffffffffffffffffffffffffffffffffffffff1673ffffffffffffffffffffffffffffffffffffffff1681526020019081526020016000205461334490919063ffffffff16565b6001600086815260200190815260200160002060008773ffffffffffffffffffffffffffffffffffffffff1673ffffffffffffffffffffffffffffffffffffffff168152602001908152602001600020819055508473ffffffffffffffffffffffffffffffffffffffff168673ffffffffffffffffffffffffffffffffffffffff168273ffffffffffffffffffffffffffffffffffffffff167fc3d58168c5ae7397731d063d5bbf3d657854427343f4c083240f7aacaa2d0f628787604051808381526020018281526020019250505060405180910390a4612fb8818787878787613b5f565b505050505050565b600080620f4240905061300081612ff2612fe38685613e6c90919063ffffffff16565b87613eb690919063ffffffff16565b613f3c90919063ffffffff16565b91505092915050565b336130347fd01a726e3c29a8c3f1e11dc604364fc90e918d0d6a4c81583749a60ca06abd168261250f565b61303d57600080fd5b600060066000858152602001908152602001600020905061306b85826003015461334490919063ffffffff16565b816002015410156130e4576040517f08c379a000000000000000000000000000000000000000000000000000000000815260040180806020018281038252601f8152602001807f6e6f7420656e6f756768207368617265732061726520617661696c61626c650081525060200191505060405180910390fd5b60008160000154905061310486836003015461334490919063ffffffff16565b826003018190555061312784828860405180602001604052806000815250613f86565b505050505050565b3361315a7fd01a726e3c29a8c3f1e11dc604364fc90e918d0d6a4c81583749a60ca06abd168261250f565b61316357600080fd5b6001600554016005819055506131776144ee565b6040518060c0016040528060055481526020018781526020018681526020016000815260200185815260200184815250905080600660006005548152602001908152602001600020600082015181600001556020820151816001015560408201518160020155606082015181600301556080820151816004015560a08201518160050155905050505050505050565b7fd01a726e3c29a8c3f1e11dc604364fc90e918d0d6a4c81583749a60ca06abd1681565b6000613252836000018373ffffffffffffffffffffffffffffffffffffffff1660001b614189565b905092915050565b8060039080519060200190613270929190614527565b5050565b600033905090565b505050505050565b6000838311158290613331576040517f08c379a00000000000000000000000000000000000000000000000000000000081526004018080602001828103825283818151815260200191508051906020019080838360005b838110156132f65780820151818401526020810190506132db565b50505050905090810190601f1680156133235780820380516001836020036101000a031916815260200191505b509250505060405180910390fd5b5060008385039050809150509392505050565b6000808284019050838110156133c2576040517f08c379a000000000000000000000000000000000000000000000000000000000815260040180806020018281038252601b8152602001807f536166654d6174683a206164646974696f6e206f766572666c6f77000000000081525060200191505060405180910390fd5b8091505092915050565b6133eb8473ffffffffffffffffffffffffffffffffffffffff166141f9565b15613753578373ffffffffffffffffffffffffffffffffffffffff1663bc197c8187878686866040518663ffffffff1660e01b8152600401808673ffffffffffffffffffffffffffffffffffffffff1681526020018573ffffffffffffffffffffffffffffffffffffffff168152602001806020018060200180602001848103845287818151815260200191508051906020019060200280838360005b838110156134a3578082015181840152602081019050613488565b50505050905001848103835286818151815260200191508051906020019060200280838360005b838110156134e55780820151818401526020810190506134ca565b50505050905001848103825285818151815260200191508051906020019080838360005b83811015613524578082015181840152602081019050613509565b50505050905090810190601f1680156135515780820380516001836020036101000a031916815260200191505b5098505050505050505050602060405180830381600087803b15801561357657600080fd5b505af19250505080156135aa57506040513d602081101561359657600080fd5b810190808051906020019092919050505060015b6136b4576135b66145e2565b806135c15750613663565b806040517f08c379a00000000000000000000000000000000000000000000000000000000081526004018080602001828103825283818151815260200191508051906020019080838360005b8381101561362857808201518184015260208101905061360d565b50505050905090810190601f1680156136555780820380516001836020036101000a031916815260200191505b509250505060405180910390fd5b6040517f08c379a00000000000000000000000000000000000000000000000000000000081526004018080602001828103825260348152602001806146996034913960400191505060405180910390fd5b63bc197c8160e01b7bffffffffffffffffffffffffffffffffffffffffffffffffffffffff1916817bffffffffffffffffffffffffffffffffffffffffffffffffffffffff191614613751576040517f08c379a00000000000000000000000000000000000000000000000000000000081526004018080602001828103825260288152602001806146ef6028913960400191505060405180910390fd5b505b505050505050565b613783816004600085815260200190815260200160002060000161322a90919063ffffffff16565b156137eb57613790613274565b73ffffffffffffffffffffffffffffffffffffffff168173ffffffffffffffffffffffffffffffffffffffff16837f2f8788117e7eff1d82e926ec794901d17c78024a50270940304540a733656f0d60405160405180910390a45b5050565b613817816004600085815260200190815260200160002060000161420c90919063ffffffff16565b1561387f57613824613274565b73ffffffffffffffffffffffffffffffffffffffff168173ffffffffffffffffffffffffffffffffffffffff16837ff6391f5c32d9c69d2a47ea670b442974b53935d1edc7fd64eb21e047a839171b60405160405180910390a45b5050565b8160006006600083815260200190815260200160002090508060050154421015613915576040517f08c379a00000000000000000000000000000000000000000000000000000000081526004018080602001828103825260148152602001807f73616c6520686173206e6f74207374617274656400000000000000000000000081525060200191505060405180910390fd5b60006006600086815260200190815260200160002090506000613957886006600089815260200190815260200160002060040154613eb690919063ffffffff16565b905061396388826115be565b90508681146139bd576040517f08c379a00000000000000000000000000000000000000000000000000000000081526004018080602001828103825260248152602001806149356024913960400191505060405180910390fd5b6139d488836003015461334490919063ffffffff16565b826002015411613a4c576040517f08c379a000000000000000000000000000000000000000000000000000000000815260040180806020018281038252601f8152602001807f6e6f7420656e6f756768207368617265732061726520617661696c61626c650081525060200191505060405180910390fd5b613a6785878a60405180602001604052806000815250613f86565b613a7e88836003015461334490919063ffffffff16565b82600301819055505050505050505050565b6000613a9f836000018361423c565b60001c905092915050565b6000613ad2836000018373ffffffffffffffffffffffffffffffffffffffff1660001b6142bf565b905092915050565b6000613ae8826000016142e2565b9050919050565b606080600167ffffffffffffffff81118015613b0a57600080fd5b50604051908082528060200260200182016040528015613b395781602001602082028036833780820191505090505b5090508281600081518110613b4a57fe5b60200260200101818152505080915050919050565b613b7e8473ffffffffffffffffffffffffffffffffffffffff166141f9565b15613e64578373ffffffffffffffffffffffffffffffffffffffff1663f23a6e6187878686866040518663ffffffff1660e01b8152600401808673ffffffffffffffffffffffffffffffffffffffff1681526020018573ffffffffffffffffffffffffffffffffffffffff16815260200184815260200183815260200180602001828103825283818151815260200191508051906020019080838360005b83811015613c37578082015181840152602081019050613c1c565b50505050905090810190601f168015613c645780820380516001836020036101000a031916815260200191505b509650505050505050602060405180830381600087803b158015613c8757600080fd5b505af1925050508015613cbb57506040513d6020811015613ca757600080fd5b810190808051906020019092919050505060015b613dc557613cc76145e2565b80613cd25750613d74565b806040517f08c379a00000000000000000000000000000000000000000000000000000000081526004018080602001828103825283818151815260200191508051906020019080838360005b83811015613d39578082015181840152602081019050613d1e565b50505050905090810190601f168015613d665780820380516001836020036101000a031916815260200191505b509250505060405180910390fd5b6040517f08c379a00000000000000000000000000000000000000000000000000000000081526004018080602001828103825260348152602001806146996034913960400191505060405180910390fd5b63f23a6e6160e01b7bffffffffffffffffffffffffffffffffffffffffffffffffffffffff1916817bffffffffffffffffffffffffffffffffffffffffffffffffffffffff191614613e62576040517f08c379a00000000000000000000000000000000000000000000000000000000081526004018080602001828103825260288152602001806146ef6028913960400191505060405180910390fd5b505b505050505050565b6000613eae83836040518060400160405280601e81526020017f536166654d6174683a207375627472616374696f6e206f766572666c6f770000815250613284565b905092915050565b600080831415613ec95760009050613f36565b6000828402905082848281613eda57fe5b0414613f31576040517f08c379a00000000000000000000000000000000000000000000000000000000081526004018080602001828103825260218152602001806148e06021913960400191505060405180910390fd5b809150505b92915050565b6000613f7e83836040518060400160405280601a81526020017f536166654d6174683a206469766973696f6e206279207a65726f0000000000008152506142f3565b905092915050565b600073ffffffffffffffffffffffffffffffffffffffff168473ffffffffffffffffffffffffffffffffffffffff16141561400c576040517f08c379a00000000000000000000000000000000000000000000000000000000081526004018080602001828103825260218152602001806149d36021913960400191505060405180910390fd5b6000614016613274565b90506140378160008761402888613aef565b61403188613aef565b8761327c565b61409a836001600087815260200190815260200160002060008873ffffffffffffffffffffffffffffffffffffffff1673ffffffffffffffffffffffffffffffffffffffff1681526020019081526020016000205461334490919063ffffffff16565b6001600086815260200190815260200160002060008773ffffffffffffffffffffffffffffffffffffffff1673ffffffffffffffffffffffffffffffffffffffff168152602001908152602001600020819055508473ffffffffffffffffffffffffffffffffffffffff16600073ffffffffffffffffffffffffffffffffffffffff168273ffffffffffffffffffffffffffffffffffffffff167fc3d58168c5ae7397731d063d5bbf3d657854427343f4c083240f7aacaa2d0f628787604051808381526020018281526020019250505060405180910390a461418281600087878787613b5f565b5050505050565b600061419583836142bf565b6141ee5782600001829080600181540180825580915050600190039060005260206000200160009091909190915055826000018054905083600101600084815260200190815260200160002081905550600190506141f3565b600090505b92915050565b600080823b905060008111915050919050565b6000614234836000018373ffffffffffffffffffffffffffffffffffffffff1660001b6143b9565b905092915050565b60008183600001805490501161429d576040517f08c379a00000000000000000000000000000000000000000000000000000000081526004018080602001828103825260228152602001806146cd6022913960400191505060405180910390fd5b8260000182815481106142ac57fe5b9060005260206000200154905092915050565b600080836001016000848152602001908152602001600020541415905092915050565b600081600001805490509050919050565b6000808311829061439f576040517f08c379a00000000000000000000000000000000000000000000000000000000081526004018080602001828103825283818151815260200191508051906020019080838360005b83811015614364578082015181840152602081019050614349565b50505050905090810190601f1680156143915780820380516001836020036101000a031916815260200191505b509250505060405180910390fd5b5060008385816143ab57fe5b049050809150509392505050565b60008083600101600084815260200190815260200160002054905060008114614495576000600182039050600060018660000180549050039050600086600001828154811061440457fe5b906000526020600020015490508087600001848154811061442157fe5b906000526020600020018190555060018301876001016000838152602001908152602001600020819055508660000180548061445957fe5b6001900381819060005260206000200160009055905586600101600087815260200190815260200160002060009055600194505050505061449b565b60009150505b92915050565b8280548282559060005260206000209081019282156144dd579160200282015b828111156144dc5782518255916020019190600101906144c1565b5b5090506144ea91906145a7565b5090565b6040518060c001604052806000815260200160008019168152602001600081526020016000815260200160008152602001600081525090565b828054600181600116156101000203166002900490600052602060002090601f016020900481019282601f1061456857805160ff1916838001178555614596565b82800160010185558215614596579182015b8281111561459557825182559160200191906001019061457a565b5b5090506145a391906145a7565b5090565b5b808211156145c05760008160009055506001016145a8565b5090565b6000601f19601f8301169050919050565b60008160e01c9050919050565b600060443d10156145f257614695565b60046000803e6146036000516145d5565b6308c379a081146146145750614695565b60405160043d036004823e80513d602482011167ffffffffffffffff8211171561464057505050614695565b808201805167ffffffffffffffff81111561465f575050505050614695565b8060208301013d850181111561467a57505050505050614695565b614683826145c4565b60208401016040528296505050505050505b9056fe455243313135353a207472616e7366657220746f206e6f6e2045524331313535526563656976657220696d706c656d656e746572456e756d657261626c655365743a20696e646578206f7574206f6620626f756e6473455243313135353a204552433131353552656365697665722072656a656374656420746f6b656e73416363657373436f6e74726f6c3a2073656e646572206d75737420626520616e2061646d696e20746f206772616e745468697320737570706f727420636f6e747261637420646f65736e277420696d706c656d656e7420757064617465537570706f7274455243313135353a2062616c616e636520717565727920666f7220746865207a65726f2061646472657373455243313135353a2062617463682062616c616e636520717565727920666f7220746865207a65726f20616464726573735468697320737570706f727420636f6e747261637420646f65736e277420696d706c656d656e742066756e64526577455243313135353a2063616c6c6572206973206e6f74206f776e6572206e6f7220617070726f766564416363657373436f6e74726f6c3a2073656e646572206d75737420626520616e2061646d696e20746f207265766f6b65455243313135353a207472616e7366657220746f20746865207a65726f2061646472657373455243313135353a207472616e736665722063616c6c6572206973206e6f74206f776e6572206e6f7220617070726f766564455243313135353a20696e73756666696369656e742062616c616e636520666f72207472616e73666572536166654d6174683a206d756c7469706c69636174696f6e206f766572666c6f775468697320737570706f727420636f6e747261637420646f65736e277420696d706c656d656e7420636f6e74657374456e74727976616c7565206d75737420626520657861637420746f2073686172652072657175657374455243313135353a2073657474696e6720617070726f76616c2073746174757320666f722073656c66455243313135353a206163636f756e747320616e6420696473206c656e677468206d69736d61746368455243313135353a2069647320616e6420616d6f756e7473206c656e677468206d69736d61746368455243313135353a206d696e7420746f20746865207a65726f2061646472657373416363657373436f6e74726f6c3a2063616e206f6e6c792072656e6f756e636520726f6c657320666f722073656c665468697320737570706f727420636f6e747261637420646f65736e277420696d706c656d656e742067657447616d654163636f756e74537570706f7274a2646970667358221220e49a3d9f86e4a2fda8b651de89e69a4794e67a3b3186e35a3fa0815e93ea144864736f6c63430007030033",
  "linkReferences": {},
  "deployedLinkReferences": {}
}