{
  "_format": "hh-sol-artifact-1",
  "contractName": "ERC1155PresetMinterPauser",
  "sourceName": "contracts/openzeppelin/contracts/presets/ERC1155PresetMinterPauser.sol",
  "abi": [
    {
      "inputs": [],
      "stateMutability": "nonpayable",
      "type": "constructor"
    },
    {
      "anonymous": false,
      "inputs": [
        {
          "indexed": true,
          "internalType": "address",
          "name": "account",
          "type": "address"
        },
        {
          "indexed": true,
          "internalType": "address",
          "name": "operator",
          "type": "address"
        },
        {
          "indexed": false,
          "internalType": "bool",
          "name": "approved",
          "type": "bool"
        }
      ],
      "name": "ApprovalForAll",
      "type": "event"
    },
    {
      "anonymous": false,
      "inputs": [
        {
          "indexed": false,
          "internalType": "address",
          "name": "account",
          "type": "address"
        }
      ],
      "name": "Paused",
      "type": "event"
    },
    {
      "anonymous": false,
      "inputs": [
        {
          "indexed": true,
          "internalType": "bytes32",
          "name": "role",
          "type": "bytes32"
        },
        {
          "indexed": true,
          "internalType": "bytes32",
          "name": "previousAdminRole",
          "type": "bytes32"
        },
        {
          "indexed": true,
          "internalType": "bytes32",
          "name": "newAdminRole",
          "type": "bytes32"
        }
      ],
      "name": "RoleAdminChanged",
      "type": "event"
    },
    {
      "anonymous": false,
      "inputs": [
        {
          "indexed": true,
          "internalType": "bytes32",
          "name": "role",
          "type": "bytes32"
        },
        {
          "indexed": true,
          "internalType": "address",
          "name": "account",
          "type": "address"
        },
        {
          "indexed": true,
          "internalType": "address",
          "name": "sender",
          "type": "address"
        }
      ],
      "name": "RoleGranted",
      "type": "event"
    },
    {
      "anonymous": false,
      "inputs": [
        {
          "indexed": true,
          "internalType": "bytes32",
          "name": "role",
          "type": "bytes32"
        },
        {
          "indexed": true,
          "internalType": "address",
          "name": "account",
          "type": "address"
        },
        {
          "indexed": true,
          "internalType": "address",
          "name": "sender",
          "type": "address"
        }
      ],
      "name": "RoleRevoked",
      "type": "event"
    },
    {
      "anonymous": false,
      "inputs": [
        {
          "indexed": true,
          "internalType": "address",
          "name": "operator",
          "type": "address"
        },
        {
          "indexed": true,
          "internalType": "address",
          "name": "from",
          "type": "address"
        },
        {
          "indexed": true,
          "internalType": "address",
          "name": "to",
          "type": "address"
        },
        {
          "indexed": false,
          "internalType": "uint256[]",
          "name": "ids",
          "type": "uint256[]"
        },
        {
          "indexed": false,
          "internalType": "uint256[]",
          "name": "values",
          "type": "uint256[]"
        }
      ],
      "name": "TransferBatch",
      "type": "event"
    },
    {
      "anonymous": false,
      "inputs": [
        {
          "indexed": true,
          "internalType": "address",
          "name": "operator",
          "type": "address"
        },
        {
          "indexed": true,
          "internalType": "address",
          "name": "from",
          "type": "address"
        },
        {
          "indexed": true,
          "internalType": "address",
          "name": "to",
          "type": "address"
        },
        {
          "indexed": false,
          "internalType": "uint256",
          "name": "id",
          "type": "uint256"
        },
        {
          "indexed": false,
          "internalType": "uint256",
          "name": "value",
          "type": "uint256"
        }
      ],
      "name": "TransferSingle",
      "type": "event"
    },
    {
      "anonymous": false,
      "inputs": [
        {
          "indexed": false,
          "internalType": "string",
          "name": "value",
          "type": "string"
        },
        {
          "indexed": true,
          "internalType": "uint256",
          "name": "id",
          "type": "uint256"
        }
      ],
      "name": "URI",
      "type": "event"
    },
    {
      "anonymous": false,
      "inputs": [
        {
          "indexed": false,
          "internalType": "address",
          "name": "account",
          "type": "address"
        }
      ],
      "name": "Unpaused",
      "type": "event"
    },
    {
      "inputs": [],
      "name": "DEFAULT_ADMIN_ROLE",
      "outputs": [
        {
          "internalType": "bytes32",
          "name": "",
          "type": "bytes32"
        }
      ],
      "stateMutability": "view",
      "type": "function"
    },
    {
      "inputs": [],
      "name": "MINTER_ROLE",
      "outputs": [
        {
          "internalType": "bytes32",
          "name": "",
          "type": "bytes32"
        }
      ],
      "stateMutability": "view",
      "type": "function"
    },
    {
      "inputs": [],
      "name": "PAUSER_ROLE",
      "outputs": [
        {
          "internalType": "bytes32",
          "name": "",
          "type": "bytes32"
        }
      ],
      "stateMutability": "view",
      "type": "function"
    },
    {
      "inputs": [
        {
          "internalType": "address",
          "name": "account",
          "type": "address"
        },
        {
          "internalType": "uint256",
          "name": "id",
          "type": "uint256"
        }
      ],
      "name": "balanceOf",
      "outputs": [
        {
          "internalType": "uint256",
          "name": "",
          "type": "uint256"
        }
      ],
      "stateMutability": "view",
      "type": "function"
    },
    {
      "inputs": [
        {
          "internalType": "address[]",
          "name": "accounts",
          "type": "address[]"
        },
        {
          "internalType": "uint256[]",
          "name": "ids",
          "type": "uint256[]"
        }
      ],
      "name": "balanceOfBatch",
      "outputs": [
        {
          "internalType": "uint256[]",
          "name": "",
          "type": "uint256[]"
        }
      ],
      "stateMutability": "view",
      "type": "function"
    },
    {
      "inputs": [
        {
          "internalType": "address",
          "name": "account",
          "type": "address"
        },
        {
          "internalType": "uint256",
          "name": "id",
          "type": "uint256"
        },
        {
          "internalType": "uint256",
          "name": "value",
          "type": "uint256"
        }
      ],
      "name": "burn",
      "outputs": [],
      "stateMutability": "nonpayable",
      "type": "function"
    },
    {
      "inputs": [
        {
          "internalType": "address",
          "name": "account",
          "type": "address"
        },
        {
          "internalType": "uint256[]",
          "name": "ids",
          "type": "uint256[]"
        },
        {
          "internalType": "uint256[]",
          "name": "values",
          "type": "uint256[]"
        }
      ],
      "name": "burnBatch",
      "outputs": [],
      "stateMutability": "nonpayable",
      "type": "function"
    },
    {
      "inputs": [
        {
          "internalType": "bytes32",
          "name": "role",
          "type": "bytes32"
        }
      ],
      "name": "getRoleAdmin",
      "outputs": [
        {
          "internalType": "bytes32",
          "name": "",
          "type": "bytes32"
        }
      ],
      "stateMutability": "view",
      "type": "function"
    },
    {
      "inputs": [
        {
          "internalType": "bytes32",
          "name": "role",
          "type": "bytes32"
        },
        {
          "internalType": "uint256",
          "name": "index",
          "type": "uint256"
        }
      ],
      "name": "getRoleMember",
      "outputs": [
        {
          "internalType": "address",
          "name": "",
          "type": "address"
        }
      ],
      "stateMutability": "view",
      "type": "function"
    },
    {
      "inputs": [
        {
          "internalType": "bytes32",
          "name": "role",
          "type": "bytes32"
        }
      ],
      "name": "getRoleMemberCount",
      "outputs": [
        {
          "internalType": "uint256",
          "name": "",
          "type": "uint256"
        }
      ],
      "stateMutability": "view",
      "type": "function"
    },
    {
      "inputs": [
        {
          "internalType": "bytes32",
          "name": "role",
          "type": "bytes32"
        },
        {
          "internalType": "address",
          "name": "account",
          "type": "address"
        }
      ],
      "name": "grantRole",
      "outputs": [],
      "stateMutability": "nonpayable",
      "type": "function"
    },
    {
      "inputs": [
        {
          "internalType": "uint256",
          "name": "id",
          "type": "uint256"
        }
      ],
      "name": "hasMinted",
      "outputs": [
        {
          "internalType": "bool",
          "name": "",
          "type": "bool"
        }
      ],
      "stateMutability": "view",
      "type": "function"
    },
    {
      "inputs": [
        {
          "internalType": "bytes32",
          "name": "role",
          "type": "bytes32"
        },
        {
          "internalType": "address",
          "name": "account",
          "type": "address"
        }
      ],
      "name": "hasRole",
      "outputs": [
        {
          "internalType": "bool",
          "name": "",
          "type": "bool"
        }
      ],
      "stateMutability": "view",
      "type": "function"
    },
    {
      "inputs": [
        {
          "internalType": "address",
          "name": "account",
          "type": "address"
        },
        {
          "internalType": "address",
          "name": "operator",
          "type": "address"
        }
      ],
      "name": "isApprovedForAll",
      "outputs": [
        {
          "internalType": "bool",
          "name": "",
          "type": "bool"
        }
      ],
      "stateMutability": "view",
      "type": "function"
    },
    {
      "inputs": [
        {
          "internalType": "address",
          "name": "to",
          "type": "address"
        },
        {
          "internalType": "uint256",
          "name": "id",
          "type": "uint256"
        },
        {
          "internalType": "uint256",
          "name": "amount",
          "type": "uint256"
        },
        {
          "internalType": "bytes",
          "name": "data",
          "type": "bytes"
        }
      ],
      "name": "mint",
      "outputs": [],
      "stateMutability": "nonpayable",
      "type": "function"
    },
    {
      "inputs": [
        {
          "internalType": "address",
          "name": "to",
          "type": "address"
        },
        {
          "internalType": "uint256[]",
          "name": "ids",
          "type": "uint256[]"
        },
        {
          "internalType": "uint256[]",
          "name": "amounts",
          "type": "uint256[]"
        },
        {
          "internalType": "bytes",
          "name": "data",
          "type": "bytes"
        }
      ],
      "name": "mintBatch",
      "outputs": [],
      "stateMutability": "nonpayable",
      "type": "function"
    },
    {
      "inputs": [],
      "name": "pause",
      "outputs": [],
      "stateMutability": "nonpayable",
      "type": "function"
    },
    {
      "inputs": [],
      "name": "paused",
      "outputs": [
        {
          "internalType": "bool",
          "name": "",
          "type": "bool"
        }
      ],
      "stateMutability": "view",
      "type": "function"
    },
    {
      "inputs": [
        {
          "internalType": "bytes32",
          "name": "role",
          "type": "bytes32"
        },
        {
          "internalType": "address",
          "name": "account",
          "type": "address"
        }
      ],
      "name": "renounceRole",
      "outputs": [],
      "stateMutability": "nonpayable",
      "type": "function"
    },
    {
      "inputs": [
        {
          "internalType": "bytes32",
          "name": "role",
          "type": "bytes32"
        },
        {
          "internalType": "address",
          "name": "account",
          "type": "address"
        }
      ],
      "name": "revokeRole",
      "outputs": [],
      "stateMutability": "nonpayable",
      "type": "function"
    },
    {
      "inputs": [
        {
          "internalType": "address",
          "name": "from",
          "type": "address"
        },
        {
          "internalType": "address",
          "name": "to",
          "type": "address"
        },
        {
          "internalType": "uint256[]",
          "name": "ids",
          "type": "uint256[]"
        },
        {
          "internalType": "uint256[]",
          "name": "amounts",
          "type": "uint256[]"
        },
        {
          "internalType": "bytes",
          "name": "data",
          "type": "bytes"
        }
      ],
      "name": "safeBatchTransferFrom",
      "outputs": [],
      "stateMutability": "nonpayable",
      "type": "function"
    },
    {
      "inputs": [
        {
          "internalType": "address",
          "name": "from",
          "type": "address"
        },
        {
          "internalType": "address",
          "name": "to",
          "type": "address"
        },
        {
          "internalType": "uint256",
          "name": "id",
          "type": "uint256"
        },
        {
          "internalType": "uint256",
          "name": "amount",
          "type": "uint256"
        },
        {
          "internalType": "bytes",
          "name": "data",
          "type": "bytes"
        }
      ],
      "name": "safeTransferFrom",
      "outputs": [],
      "stateMutability": "nonpayable",
      "type": "function"
    },
    {
      "inputs": [
        {
          "internalType": "address",
          "name": "operator",
          "type": "address"
        },
        {
          "internalType": "bool",
          "name": "approved",
          "type": "bool"
        }
      ],
      "name": "setApprovalForAll",
      "outputs": [],
      "stateMutability": "nonpayable",
      "type": "function"
    },
    {
      "inputs": [
        {
          "internalType": "bytes4",
          "name": "interfaceId",
          "type": "bytes4"
        }
      ],
      "name": "supportsInterface",
      "outputs": [
        {
          "internalType": "bool",
          "name": "",
          "type": "bool"
        }
      ],
      "stateMutability": "view",
      "type": "function"
    },
    {
      "inputs": [],
      "name": "unpause",
      "outputs": [],
      "stateMutability": "nonpayable",
      "type": "function"
    }
  ],
  "bytecode": "0x60806040523480156200001157600080fd5b50620000246301ffc9a760e01b620000cc565b62000036636cdb3d1360e11b620000cc565b620000486303a24d0760e21b620000cc565b6006805460ff191690556200006860006200006262000154565b62000158565b620000977f9f2df0fed2c77648de5860a4cc508cd0818c85b8b8a1ab4ceeef8d981c8956a66200006262000154565b620000c67f65d7a28e3265b37a6474929f336521b332c1681b933f6cb9f3376673440d862a6200006262000154565b62000268565b6001600160e01b031980821614156200012c576040805162461bcd60e51b815260206004820152601c60248201527f4552433136353a20696e76616c696420696e7465726661636520696400000000604482015290519081900360640190fd5b6001600160e01b0319166000908152600160208190526040909120805460ff19169091179055565b3390565b62000164828262000168565b5050565b6000828152602081815260409091206200018d91839062001846620001e1821b17901c565b1562000164576200019d62000154565b6001600160a01b0316816001600160a01b0316837f2f8788117e7eff1d82e926ec794901d17c78024a50270940304540a733656f0d60405160405180910390a45050565b6000620001f8836001600160a01b03841662000201565b90505b92915050565b60006200020f838362000250565b6200024757508154600181810184556000848152602080822090930184905584548482528286019093526040902091909155620001fb565b506000620001fb565b60009081526001919091016020526040902054151590565b612df280620002786000396000f3fe608060405234801561001057600080fd5b50600436106101725760003560e01c80638456cb59116100de578063d539139311610097578063e63ab1e911610071578063e63ab1e914610a6d578063e985e9c514610a75578063f242432a14610aa3578063f5298aca14610b6c57610172565b8063d539139314610a1c578063d547741f14610a24578063e5b9559514610a5057610172565b80638456cb59146109565780639010d07c1461095e57806391d148541461099d578063a217fddf146109c9578063a22cb465146109d1578063ca15c873146109ff57610172565b806336568abe1161013057806336568abe146105b45780633f4ba83a146105e05780634e1273f4146105e85780635c975abb1461075b5780636b20c45414610763578063731133e91461089657610172565b8062fdd58e1461017757806301ffc9a7146101b55780631f7fdffa146101f0578063248a9ca3146103aa5780632eb2c2d6146103c75780632f2ff15d14610588575b600080fd5b6101a36004803603604081101561018d57600080fd5b506001600160a01b038135169060200135610b9e565b60408051918252519081900360200190f35b6101dc600480360360208110156101cb57600080fd5b50356001600160e01b031916610c10565b604080519115158252519081900360200190f35b6103a86004803603608081101561020657600080fd5b6001600160a01b038235169190810190604081016020820135600160201b81111561023057600080fd5b82018360208201111561024257600080fd5b803590602001918460208302840111600160201b8311171561026357600080fd5b9190808060200260200160405190810160405280939291908181526020018383602002808284376000920191909152509295949360208101935035915050600160201b8111156102b257600080fd5b8201836020820111156102c457600080fd5b803590602001918460208302840111600160201b831117156102e557600080fd5b9190808060200260200160405190810160405280939291908181526020018383602002808284376000920191909152509295949360208101935035915050600160201b81111561033457600080fd5b82018360208201111561034657600080fd5b803590602001918460018302840111600160201b8311171561036757600080fd5b91908080601f016020809104026020016040519081016040528093929190818152602001838380828437600092019190915250929550610c2f945050505050565b005b6101a3600480360360208110156103c057600080fd5b5035610cad565b6103a8600480360360a08110156103dd57600080fd5b6001600160a01b038235811692602081013590911691810190606081016040820135600160201b81111561041057600080fd5b82018360208201111561042257600080fd5b803590602001918460208302840111600160201b8311171561044357600080fd5b9190808060200260200160405190810160405280939291908181526020018383602002808284376000920191909152509295949360208101935035915050600160201b81111561049257600080fd5b8201836020820111156104a457600080fd5b803590602001918460208302840111600160201b831117156104c557600080fd5b9190808060200260200160405190810160405280939291908181526020018383602002808284376000920191909152509295949360208101935035915050600160201b81111561051457600080fd5b82018360208201111561052657600080fd5b803590602001918460018302840111600160201b8311171561054757600080fd5b91908080601f016020809104026020016040519081016040528093929190818152602001838380828437600092019190915250929550610cc2945050505050565b6103a86004803603604081101561059e57600080fd5b50803590602001356001600160a01b0316610fc5565b6103a8600480360360408110156105ca57600080fd5b50803590602001356001600160a01b031661102c565b6103a861108d565b61070b600480360360408110156105fe57600080fd5b810190602081018135600160201b81111561061857600080fd5b82018360208201111561062a57600080fd5b803590602001918460208302840111600160201b8311171561064b57600080fd5b9190808060200260200160405190810160405280939291908181526020018383602002808284376000920191909152509295949360208101935035915050600160201b81111561069a57600080fd5b8201836020820111156106ac57600080fd5b803590602001918460208302840111600160201b831117156106cd57600080fd5b9190808060200260200160405190810160405280939291908181526020018383602002808284376000920191909152509295506110fe945050505050565b60408051602080825283518183015283519192839290830191858101910280838360005b8381101561074757818101518382015260200161072f565b505050509050019250505060405180910390f35b6101dc61127c565b6103a86004803603606081101561077957600080fd5b6001600160a01b038235169190810190604081016020820135600160201b8111156107a357600080fd5b8201836020820111156107b557600080fd5b803590602001918460208302840111600160201b831117156107d657600080fd5b9190808060200260200160405190810160405280939291908181526020018383602002808284376000920191909152509295949360208101935035915050600160201b81111561082557600080fd5b82018360208201111561083757600080fd5b803590602001918460208302840111600160201b8311171561085857600080fd5b919080806020026020016040519081016040528093929190818152602001838360200280828437600092019190915250929550611286945050505050565b6103a8600480360360808110156108ac57600080fd5b6001600160a01b038235169160208101359160408201359190810190608081016060820135600160201b8111156108e257600080fd5b8201836020820111156108f457600080fd5b803590602001918460018302840111600160201b8311171561091557600080fd5b91908080601f0160208091040260200160405190810160405280939291908181526020018383808284376000920191909152509295506112ff945050505050565b6103a8611372565b6109816004803603604081101561097457600080fd5b50803590602001356113e1565b604080516001600160a01b039092168252519081900360200190f35b6101dc600480360360408110156109b357600080fd5b50803590602001356001600160a01b0316611400565b6101a3611418565b6103a8600480360360408110156109e757600080fd5b506001600160a01b038135169060200135151561141d565b6101a360048036036020811015610a1557600080fd5b503561150c565b6101a3611523565b6103a860048036036040811015610a3a57600080fd5b50803590602001356001600160a01b0316611547565b6101dc60048036036020811015610a6657600080fd5b50356115a0565b6101a36115b5565b6101dc60048036036040811015610a8b57600080fd5b506001600160a01b03813581169160200135166115d9565b6103a8600480360360a0811015610ab957600080fd5b6001600160a01b03823581169260208101359091169160408201359160608101359181019060a081016080820135600160201b811115610af857600080fd5b820183602082011115610b0a57600080fd5b803590602001918460018302840111600160201b83111715610b2b57600080fd5b91908080601f016020809104026020016040519081016040528093929190818152602001838380828437600092019190915250929550611607945050505050565b6103a860048036036060811015610b8257600080fd5b506001600160a01b0381351690602081013590604001356117d2565b60006001600160a01b038316610be55760405162461bcd60e51b815260040180806020018281038252602b815260200180612a9e602b913960400191505060405180910390fd5b5060008181526002602090815260408083206001600160a01b03861684529091529020545b92915050565b6001600160e01b03191660009081526001602052604090205460ff1690565b610c607f9f2df0fed2c77648de5860a4cc508cd0818c85b8b8a1ab4ceeef8d981c8956a6610c5b61185b565b611400565b610c9b5760405162461bcd60e51b8152600401808060200182810382526038815260200180612c1d6038913960400191505060405180910390fd5b610ca78484848461185f565b50505050565b60009081526020819052604090206002015490565b8151835114610d025760405162461bcd60e51b8152600401808060200182810382526028815260200180612d456028913960400191505060405180910390fd5b6001600160a01b038416610d475760405162461bcd60e51b8152600401808060200182810382526025815260200180612ba36025913960400191505060405180910390fd5b610d4f61185b565b6001600160a01b0316856001600160a01b03161480610d7a5750610d7a85610d7561185b565b6115d9565b610db55760405162461bcd60e51b8152600401808060200182810382526032815260200180612bc86032913960400191505060405180910390fd5b6000610dbf61185b565b9050610dcf818787878787611b26565b60005b8451811015610ed5576000858281518110610de957fe5b602002602001015190506000858381518110610e0157fe5b60200260200101519050610e6e816040518060600160405280602a8152602001612c55602a91396002600086815260200190815260200160002060008d6001600160a01b03166001600160a01b0316815260200190815260200160002054611b349092919063ffffffff16565b60008381526002602090815260408083206001600160a01b038e811685529252808320939093558a1681522054610ea59082611bcb565b60009283526002602090815260408085206001600160a01b038c1686529091529092209190915550600101610dd2565b50846001600160a01b0316866001600160a01b0316826001600160a01b03167f4a39dc06d4c0dbc64b70af90fd698a233a518aa5d07e595d983b8c0526c8f7fb8787604051808060200180602001838103835285818151815260200191508051906020019060200280838360005b83811015610f5b578181015183820152602001610f43565b50505050905001838103825284818151815260200191508051906020019060200280838360005b83811015610f9a578181015183820152602001610f82565b5050505090500194505050505060405180910390a4610fbd818787878787611c25565b505050505050565b600082815260208190526040902060020154610fe390610c5b61185b565b61101e5760405162461bcd60e51b815260040180806020018281038252602f815260200180612a6f602f913960400191505060405180910390fd5b6110288282611ea4565b5050565b61103461185b565b6001600160a01b0316816001600160a01b0316146110835760405162461bcd60e51b815260040180806020018281038252602f815260200180612d8e602f913960400191505060405180910390fd5b6110288282611f0d565b6110b97f65d7a28e3265b37a6474929f336521b332c1681b933f6cb9f3376673440d862a610c5b61185b565b6110f45760405162461bcd60e51b815260040180806020018281038252603b815260200180612c7f603b913960400191505060405180910390fd5b6110fc611f76565b565b606081518351146111405760405162461bcd60e51b8152600401808060200182810382526029815260200180612d1c6029913960400191505060405180910390fd5b6060835167ffffffffffffffff8111801561115a57600080fd5b50604051908082528060200260200182016040528015611184578160200160208202803683370190505b50905060005b84518110156112745760006001600160a01b03168582815181106111aa57fe5b60200260200101516001600160a01b031614156111f85760405162461bcd60e51b8152600401808060200182810382526031815260200180612ac96031913960400191505060405180910390fd5b6002600085838151811061120857fe5b60200260200101518152602001908152602001600020600086838151811061122c57fe5b60200260200101516001600160a01b03166001600160a01b031681526020019081526020016000205482828151811061126157fe5b602090810291909101015260010161118a565b509392505050565b60065460ff165b90565b61128e61185b565b6001600160a01b0316836001600160a01b031614806112b457506112b483610d7561185b565b6112ef5760405162461bcd60e51b8152600401808060200182810382526029815260200180612b4a6029913960400191505060405180910390fd5b6112fa838383612014565b505050565b61132b7f9f2df0fed2c77648de5860a4cc508cd0818c85b8b8a1ab4ceeef8d981c8956a6610c5b61185b565b6113665760405162461bcd60e51b8152600401808060200182810382526038815260200180612c1d6038913960400191505060405180910390fd5b610ca784848484612282565b61139e7f65d7a28e3265b37a6474929f336521b332c1681b933f6cb9f3376673440d862a610c5b61185b565b6113d95760405162461bcd60e51b8152600401808060200182810382526039815260200180612cba6039913960400191505060405180910390fd5b6110fc6123b3565b60008281526020819052604081206113f99083612434565b9392505050565b60008281526020819052604081206113f99083612440565b600081565b816001600160a01b031661142f61185b565b6001600160a01b031614156114755760405162461bcd60e51b8152600401808060200182810382526029815260200180612cf36029913960400191505060405180910390fd5b806004600061148261185b565b6001600160a01b03908116825260208083019390935260409182016000908120918716808252919093529120805460ff1916921515929092179091556114c661185b565b6001600160a01b03167f17307eab39ab6107e8899845ad3d59bd9653f200f220920489ca2b5937696c318360405180821515815260200191505060405180910390a35050565b6000818152602081905260408120610c0a90612455565b7f9f2df0fed2c77648de5860a4cc508cd0818c85b8b8a1ab4ceeef8d981c8956a681565b60008281526020819052604090206002015461156590610c5b61185b565b6110835760405162461bcd60e51b8152600401808060200182810382526030815260200180612b736030913960400191505060405180910390fd5b60009081526003602052604090205460ff1690565b7f65d7a28e3265b37a6474929f336521b332c1681b933f6cb9f3376673440d862a81565b6001600160a01b03918216600090815260046020908152604080832093909416825291909152205460ff1690565b6001600160a01b03841661164c5760405162461bcd60e51b8152600401808060200182810382526025815260200180612ba36025913960400191505060405180910390fd5b61165461185b565b6001600160a01b0316856001600160a01b0316148061167a575061167a85610d7561185b565b6116b55760405162461bcd60e51b8152600401808060200182810382526029815260200180612b4a6029913960400191505060405180910390fd5b60006116bf61185b565b90506116df8187876116d088612460565b6116d988612460565b87611b26565b611726836040518060600160405280602a8152602001612c55602a913960008781526002602090815260408083206001600160a01b038d1684529091529020549190611b34565b60008581526002602090815260408083206001600160a01b038b8116855292528083209390935587168152205461175d9084611bcb565b60008581526002602090815260408083206001600160a01b03808b168086529184529382902094909455805188815291820187905280518a8416938616927fc3d58168c5ae7397731d063d5bbf3d657854427343f4c083240f7aacaa2d0f6292908290030190a4610fbd8187878787876124a4565b6117da61185b565b6001600160a01b0316836001600160a01b03161480611800575061180083610d7561185b565b61183b5760405162461bcd60e51b8152600401808060200182810382526029815260200180612b4a6029913960400191505060405180910390fd5b6112fa838383612615565b60006113f9836001600160a01b038416612748565b3390565b6001600160a01b0384166118a45760405162461bcd60e51b8152600401808060200182810382526021815260200180612d6d6021913960400191505060405180910390fd5b81518351146118e45760405162461bcd60e51b8152600401808060200182810382526028815260200180612d456028913960400191505060405180910390fd5b60006118ee61185b565b90506118ff81600087878787611b26565b60005b8451811015611a35576003600086838151811061191b57fe5b60209081029190910181015182528101919091526040016000205460ff1661197d5760016003600087848151811061194f57fe5b6020026020010151815260200190815260200160002060006101000a81548160ff0219169083151502179055505b6119ec6002600087848151811061199057fe5b602002602001015181526020019081526020016000206000886001600160a01b03166001600160a01b03168152602001908152602001600020548583815181106119d657fe5b6020026020010151611bcb90919063ffffffff16565b600260008784815181106119fc57fe5b602090810291909101810151825281810192909252604090810160009081206001600160a01b038b168252909252902055600101611902565b50846001600160a01b031660006001600160a01b0316826001600160a01b03167f4a39dc06d4c0dbc64b70af90fd698a233a518aa5d07e595d983b8c0526c8f7fb8787604051808060200180602001838103835285818151815260200191508051906020019060200280838360005b83811015611abc578181015183820152602001611aa4565b50505050905001838103825284818151815260200191508051906020019060200280838360005b83811015611afb578181015183820152602001611ae3565b5050505090500194505050505060405180910390a4611b1f81600087878787611c25565b5050505050565b610fbd868686868686612792565b60008184841115611bc35760405162461bcd60e51b81526004018080602001828103825283818151815260200191508051906020019080838360005b83811015611b88578181015183820152602001611b70565b50505050905090810190601f168015611bb55780820380516001836020036101000a031916815260200191505b509250505060405180910390fd5b505050900390565b6000828201838110156113f9576040805162461bcd60e51b815260206004820152601b60248201527f536166654d6174683a206164646974696f6e206f766572666c6f770000000000604482015290519081900360640190fd5b611c37846001600160a01b03166127e4565b15610fbd57836001600160a01b031663bc197c8187878686866040518663ffffffff1660e01b815260040180866001600160a01b03168152602001856001600160a01b03168152602001806020018060200180602001848103845287818151815260200191508051906020019060200280838360005b83811015611cc5578181015183820152602001611cad565b50505050905001848103835286818151815260200191508051906020019060200280838360005b83811015611d04578181015183820152602001611cec565b50505050905001848103825285818151815260200191508051906020019080838360005b83811015611d40578181015183820152602001611d28565b50505050905090810190601f168015611d6d5780820380516001836020036101000a031916815260200191505b5098505050505050505050602060405180830381600087803b158015611d9257600080fd5b505af1925050508015611db757506040513d6020811015611db257600080fd5b505160015b611e4c57611dc361294b565b80611dce5750611e15565b60405162461bcd60e51b8152602060048201818152835160248401528351849391928392604401919085019080838360008315611b88578181015183820152602001611b70565b60405162461bcd60e51b81526004018080602001828103825260348152602001806129f16034913960400191505060405180910390fd5b6001600160e01b0319811663bc197c8160e01b14611e9b5760405162461bcd60e51b8152600401808060200182810382526028815260200180612a476028913960400191505060405180910390fd5b50505050505050565b6000828152602081905260409020611ebc9082611846565b1561102857611ec961185b565b6001600160a01b0316816001600160a01b0316837f2f8788117e7eff1d82e926ec794901d17c78024a50270940304540a733656f0d60405160405180910390a45050565b6000828152602081905260409020611f2590826127ea565b1561102857611f3261185b565b6001600160a01b0316816001600160a01b0316837ff6391f5c32d9c69d2a47ea670b442974b53935d1edc7fd64eb21e047a839171b60405160405180910390a45050565b60065460ff16611fc4576040805162461bcd60e51b815260206004820152601460248201527314185d5cd8589b194e881b9bdd081c185d5cd95960621b604482015290519081900360640190fd5b6006805460ff191690557f5db9ee0a495bf2e6ff9c91a7834c1ba4fdd244a5e8aa4e537bd38aeae4b073aa611ff761185b565b604080516001600160a01b039092168252519081900360200190a1565b6001600160a01b0383166120595760405162461bcd60e51b8152600401808060200182810382526023815260200180612bfa6023913960400191505060405180910390fd5b80518251146120995760405162461bcd60e51b8152600401808060200182810382526028815260200180612d456028913960400191505060405180910390fd5b60006120a361185b565b90506120c381856000868660405180602001604052806000815250611b26565b60005b83518110156121a1576121588382815181106120de57fe5b6020026020010151604051806060016040528060248152602001612afa602491396002600088868151811061210f57fe5b602002602001015181526020019081526020016000206000896001600160a01b03166001600160a01b0316815260200190815260200160002054611b349092919063ffffffff16565b6002600086848151811061216857fe5b602090810291909101810151825281810192909252604090810160009081206001600160a01b038a1682529092529020556001016120c6565b5060006001600160a01b0316846001600160a01b0316826001600160a01b03167f4a39dc06d4c0dbc64b70af90fd698a233a518aa5d07e595d983b8c0526c8f7fb8686604051808060200180602001838103835285818151815260200191508051906020019060200280838360005b83811015612228578181015183820152602001612210565b50505050905001838103825284818151815260200191508051906020019060200280838360005b8381101561226757818101518382015260200161224f565b5050505090500194505050505060405180910390a450505050565b6001600160a01b0384166122c75760405162461bcd60e51b8152600401808060200182810382526021815260200180612d6d6021913960400191505060405180910390fd5b60008381526003602052604090205460ff166122f7576000838152600360205260409020805460ff191660011790555b600061230161185b565b9050612313816000876116d088612460565b60008481526002602090815260408083206001600160a01b03891684529091529020546123409084611bcb565b60008581526002602090815260408083206001600160a01b03808b16808652918452828520959095558151898152928301889052815190948616927fc3d58168c5ae7397731d063d5bbf3d657854427343f4c083240f7aacaa2d0f6292908290030190a4611b1f816000878787876124a4565b60065460ff16156123fe576040805162461bcd60e51b815260206004820152601060248201526f14185d5cd8589b194e881c185d5cd95960821b604482015290519081900360640190fd5b6006805460ff191660011790557f62e78cea01bee320cd4e420270b5ea74000d11b0c9f74754ebdbfc544b05a258611ff761185b565b60006113f983836127ff565b60006113f9836001600160a01b038416612863565b6000610c0a8261287b565b60408051600180825281830190925260609182919060208083019080368337019050509050828160008151811061249357fe5b602090810291909101015292915050565b6124b6846001600160a01b03166127e4565b15610fbd57836001600160a01b031663f23a6e6187878686866040518663ffffffff1660e01b815260040180866001600160a01b03168152602001856001600160a01b0316815260200184815260200183815260200180602001828103825283818151815260200191508051906020019080838360005b8381101561254557818101518382015260200161252d565b50505050905090810190601f1680156125725780820380516001836020036101000a031916815260200191505b509650505050505050602060405180830381600087803b15801561259557600080fd5b505af19250505080156125ba57506040513d60208110156125b557600080fd5b505160015b6125c657611dc361294b565b6001600160e01b0319811663f23a6e6160e01b14611e9b5760405162461bcd60e51b8152600401808060200182810382526028815260200180612a476028913960400191505060405180910390fd5b6001600160a01b03831661265a5760405162461bcd60e51b8152600401808060200182810382526023815260200180612bfa6023913960400191505060405180910390fd5b600061266461185b565b90506126948185600061267687612460565b61267f87612460565b60405180602001604052806000815250611b26565b6126db82604051806060016040528060248152602001612afa6024913960008681526002602090815260408083206001600160a01b038b1684529091529020549190611b34565b60008481526002602090815260408083206001600160a01b03808a16808652918452828520959095558151888152928301879052815193949093908616927fc3d58168c5ae7397731d063d5bbf3d657854427343f4c083240f7aacaa2d0f6292908290030190a450505050565b60006127548383612863565b61278a57508154600181810184556000848152602080822090930184905584548482528286019093526040902091909155610c0a565b506000610c0a565b6127a0868686868686610fbd565b6127a861127c565b15610fbd5760405162461bcd60e51b815260040180806020018281038252602c815260200180612b1e602c913960400191505060405180910390fd5b3b151590565b60006113f9836001600160a01b03841661287f565b815460009082106128415760405162461bcd60e51b8152600401808060200182810382526022815260200180612a256022913960400191505060405180910390fd5b82600001828154811061285057fe5b9060005260206000200154905092915050565b60009081526001919091016020526040902054151590565b5490565b6000818152600183016020526040812054801561293b57835460001980830191908101906000908790839081106128b257fe5b90600052602060002001549050808760000184815481106128cf57fe5b6000918252602080832090910192909255828152600189810190925260409020908401905586548790806128ff57fe5b60019003818190600052602060002001600090559055866001016000878152602001908152602001600020600090556001945050505050610c0a565b6000915050610c0a565b60e01c90565b600060443d101561295b57611283565b600481823e6308c379a061296f8251612945565b1461297957611283565b6040513d600319016004823e80513d67ffffffffffffffff81602484011181841117156129a95750505050611283565b828401925082519150808211156129c35750505050611283565b503d830160208284010111156129db57505050611283565b601f01601f191681016020016040529150509056fe455243313135353a207472616e7366657220746f206e6f6e2045524331313535526563656976657220696d706c656d656e746572456e756d657261626c655365743a20696e646578206f7574206f6620626f756e6473455243313135353a204552433131353552656365697665722072656a656374656420746f6b656e73416363657373436f6e74726f6c3a2073656e646572206d75737420626520616e2061646d696e20746f206772616e74455243313135353a2062616c616e636520717565727920666f7220746865207a65726f2061646472657373455243313135353a2062617463682062616c616e636520717565727920666f7220746865207a65726f2061646472657373455243313135353a206275726e20616d6f756e7420657863656564732062616c616e6365455243313135355061757361626c653a20746f6b656e207472616e73666572207768696c6520706175736564455243313135353a2063616c6c6572206973206e6f74206f776e6572206e6f7220617070726f766564416363657373436f6e74726f6c3a2073656e646572206d75737420626520616e2061646d696e20746f207265766f6b65455243313135353a207472616e7366657220746f20746865207a65726f2061646472657373455243313135353a207472616e736665722063616c6c6572206973206e6f74206f776e6572206e6f7220617070726f766564455243313135353a206275726e2066726f6d20746865207a65726f2061646472657373455243313135355072657365744d696e7465725061757365723a206d7573742068617665206d696e74657220726f6c6520746f206d696e74455243313135353a20696e73756666696369656e742062616c616e636520666f72207472616e73666572455243313135355072657365744d696e7465725061757365723a206d75737420686176652070617573657220726f6c6520746f20756e7061757365455243313135355072657365744d696e7465725061757365723a206d75737420686176652070617573657220726f6c6520746f207061757365455243313135353a2073657474696e6720617070726f76616c2073746174757320666f722073656c66455243313135353a206163636f756e747320616e6420696473206c656e677468206d69736d61746368455243313135353a2069647320616e6420616d6f756e7473206c656e677468206d69736d61746368455243313135353a206d696e7420746f20746865207a65726f2061646472657373416363657373436f6e74726f6c3a2063616e206f6e6c792072656e6f756e636520726f6c657320666f722073656c66a26469706673582212206f8904b91a616168b4e54236307ad8bacf7a3865d9e4544322e74a75e217bee664736f6c63430007030033",
  "linkReferences": {},
  "deployedLinkReferences": {}
}