{
  "_format": "hh-sol-artifact-1",
  "contractName": "MetaWorld",
  "sourceName": "contracts/MetaWorld.sol",
  "abi": [
    {
      "inputs": [
        {
          "internalType": "string",
          "name": "uri",
          "type": "string"
        }
      ],
      "stateMutability": "nonpayable",
      "type": "constructor"
    },
    {
      "anonymous": false,
      "inputs": [
        {
          "indexed": true,
          "internalType": "address",
          "name": "account",
          "type": "address"
        },
        {
          "indexed": true,
          "internalType": "address",
          "name": "operator",
          "type": "address"
        },
        {
          "indexed": false,
          "internalType": "bool",
          "name": "approved",
          "type": "bool"
        }
      ],
      "name": "ApprovalForAll",
      "type": "event"
    },
    {
      "anonymous": false,
      "inputs": [
        {
          "indexed": true,
          "internalType": "bytes32",
          "name": "role",
          "type": "bytes32"
        },
        {
          "indexed": true,
          "internalType": "bytes32",
          "name": "previousAdminRole",
          "type": "bytes32"
        },
        {
          "indexed": true,
          "internalType": "bytes32",
          "name": "newAdminRole",
          "type": "bytes32"
        }
      ],
      "name": "RoleAdminChanged",
      "type": "event"
    },
    {
      "anonymous": false,
      "inputs": [
        {
          "indexed": true,
          "internalType": "bytes32",
          "name": "role",
          "type": "bytes32"
        },
        {
          "indexed": true,
          "internalType": "address",
          "name": "account",
          "type": "address"
        },
        {
          "indexed": true,
          "internalType": "address",
          "name": "sender",
          "type": "address"
        }
      ],
      "name": "RoleGranted",
      "type": "event"
    },
    {
      "anonymous": false,
      "inputs": [
        {
          "indexed": true,
          "internalType": "bytes32",
          "name": "role",
          "type": "bytes32"
        },
        {
          "indexed": true,
          "internalType": "address",
          "name": "account",
          "type": "address"
        },
        {
          "indexed": true,
          "internalType": "address",
          "name": "sender",
          "type": "address"
        }
      ],
      "name": "RoleRevoked",
      "type": "event"
    },
    {
      "anonymous": false,
      "inputs": [
        {
          "indexed": true,
          "internalType": "address",
          "name": "operator",
          "type": "address"
        },
        {
          "indexed": true,
          "internalType": "address",
          "name": "from",
          "type": "address"
        },
        {
          "indexed": true,
          "internalType": "address",
          "name": "to",
          "type": "address"
        },
        {
          "indexed": false,
          "internalType": "uint256[]",
          "name": "ids",
          "type": "uint256[]"
        },
        {
          "indexed": false,
          "internalType": "uint256[]",
          "name": "values",
          "type": "uint256[]"
        }
      ],
      "name": "TransferBatch",
      "type": "event"
    },
    {
      "anonymous": false,
      "inputs": [
        {
          "indexed": true,
          "internalType": "address",
          "name": "operator",
          "type": "address"
        },
        {
          "indexed": true,
          "internalType": "address",
          "name": "from",
          "type": "address"
        },
        {
          "indexed": true,
          "internalType": "address",
          "name": "to",
          "type": "address"
        },
        {
          "indexed": false,
          "internalType": "uint256",
          "name": "id",
          "type": "uint256"
        },
        {
          "indexed": false,
          "internalType": "uint256",
          "name": "value",
          "type": "uint256"
        }
      ],
      "name": "TransferSingle",
      "type": "event"
    },
    {
      "anonymous": false,
      "inputs": [
        {
          "indexed": false,
          "internalType": "string",
          "name": "value",
          "type": "string"
        },
        {
          "indexed": true,
          "internalType": "uint256",
          "name": "id",
          "type": "uint256"
        }
      ],
      "name": "URI",
      "type": "event"
    },
    {
      "anonymous": false,
      "inputs": [
        {
          "indexed": false,
          "internalType": "uint256",
          "name": "_id",
          "type": "uint256"
        },
        {
          "indexed": false,
          "internalType": "bytes32",
          "name": "_specifications",
          "type": "bytes32"
        },
        {
          "indexed": false,
          "internalType": "uint256",
          "name": "_totalShares",
          "type": "uint256"
        },
        {
          "indexed": false,
          "internalType": "uint256",
          "name": "_sharePrice",
          "type": "uint256"
        },
        {
          "indexed": false,
          "internalType": "uint256",
          "name": "",
          "type": "uint256"
        }
      ],
      "name": "WorldCreated",
      "type": "event"
    },
    {
      "inputs": [],
      "name": "DEFAULT_ADMIN_ROLE",
      "outputs": [
        {
          "internalType": "bytes32",
          "name": "",
          "type": "bytes32"
        }
      ],
      "stateMutability": "view",
      "type": "function"
    },
    {
      "inputs": [],
      "name": "METAVERSE_ADMIN",
      "outputs": [
        {
          "internalType": "bytes32",
          "name": "",
          "type": "bytes32"
        }
      ],
      "stateMutability": "view",
      "type": "function"
    },
    {
      "inputs": [
        {
          "internalType": "uint256",
          "name": "",
          "type": "uint256"
        }
      ],
      "name": "MetaWorlds",
      "outputs": [
        {
          "internalType": "uint256",
          "name": "id",
          "type": "uint256"
        },
        {
          "internalType": "bytes32",
          "name": "specification",
          "type": "bytes32"
        },
        {
          "internalType": "uint256",
          "name": "totalshares",
          "type": "uint256"
        },
        {
          "internalType": "uint256",
          "name": "allocatedShares",
          "type": "uint256"
        },
        {
          "internalType": "uint256",
          "name": "sharePrice",
          "type": "uint256"
        },
        {
          "internalType": "uint256",
          "name": "saleStart",
          "type": "uint256"
        }
      ],
      "stateMutability": "view",
      "type": "function"
    },
    {
      "inputs": [
        {
          "internalType": "address",
          "name": "account",
          "type": "address"
        },
        {
          "internalType": "uint256",
          "name": "id",
          "type": "uint256"
        }
      ],
      "name": "balanceOf",
      "outputs": [
        {
          "internalType": "uint256",
          "name": "",
          "type": "uint256"
        }
      ],
      "stateMutability": "view",
      "type": "function"
    },
    {
      "inputs": [
        {
          "internalType": "address[]",
          "name": "accounts",
          "type": "address[]"
        },
        {
          "internalType": "uint256[]",
          "name": "ids",
          "type": "uint256[]"
        }
      ],
      "name": "balanceOfBatch",
      "outputs": [
        {
          "internalType": "uint256[]",
          "name": "",
          "type": "uint256[]"
        }
      ],
      "stateMutability": "view",
      "type": "function"
    },
    {
      "inputs": [
        {
          "internalType": "bytes32",
          "name": "_spec",
          "type": "bytes32"
        },
        {
          "internalType": "uint256",
          "name": "total_shares",
          "type": "uint256"
        },
        {
          "internalType": "uint256",
          "name": "_price",
          "type": "uint256"
        },
        {
          "internalType": "uint256",
          "name": "_start",
          "type": "uint256"
        }
      ],
      "name": "createWorld",
      "outputs": [],
      "stateMutability": "nonpayable",
      "type": "function"
    },
    {
      "inputs": [
        {
          "internalType": "bytes32",
          "name": "role",
          "type": "bytes32"
        }
      ],
      "name": "getRoleAdmin",
      "outputs": [
        {
          "internalType": "bytes32",
          "name": "",
          "type": "bytes32"
        }
      ],
      "stateMutability": "view",
      "type": "function"
    },
    {
      "inputs": [
        {
          "internalType": "bytes32",
          "name": "role",
          "type": "bytes32"
        },
        {
          "internalType": "uint256",
          "name": "index",
          "type": "uint256"
        }
      ],
      "name": "getRoleMember",
      "outputs": [
        {
          "internalType": "address",
          "name": "",
          "type": "address"
        }
      ],
      "stateMutability": "view",
      "type": "function"
    },
    {
      "inputs": [
        {
          "internalType": "bytes32",
          "name": "role",
          "type": "bytes32"
        }
      ],
      "name": "getRoleMemberCount",
      "outputs": [
        {
          "internalType": "uint256",
          "name": "",
          "type": "uint256"
        }
      ],
      "stateMutability": "view",
      "type": "function"
    },
    {
      "inputs": [
        {
          "internalType": "bytes32",
          "name": "role",
          "type": "bytes32"
        },
        {
          "internalType": "address",
          "name": "account",
          "type": "address"
        }
      ],
      "name": "grantRole",
      "outputs": [],
      "stateMutability": "nonpayable",
      "type": "function"
    },
    {
      "inputs": [
        {
          "internalType": "uint256",
          "name": "_shares",
          "type": "uint256"
        },
        {
          "internalType": "uint256",
          "name": "_world",
          "type": "uint256"
        },
        {
          "internalType": "address",
          "name": "recipient",
          "type": "address"
        }
      ],
      "name": "grantWorldShare",
      "outputs": [],
      "stateMutability": "nonpayable",
      "type": "function"
    },
    {
      "inputs": [
        {
          "internalType": "bytes32",
          "name": "role",
          "type": "bytes32"
        },
        {
          "internalType": "address",
          "name": "account",
          "type": "address"
        }
      ],
      "name": "hasRole",
      "outputs": [
        {
          "internalType": "bool",
          "name": "",
          "type": "bool"
        }
      ],
      "stateMutability": "view",
      "type": "function"
    },
    {
      "inputs": [
        {
          "internalType": "address",
          "name": "account",
          "type": "address"
        },
        {
          "internalType": "address",
          "name": "operator",
          "type": "address"
        }
      ],
      "name": "isApprovedForAll",
      "outputs": [
        {
          "internalType": "bool",
          "name": "",
          "type": "bool"
        }
      ],
      "stateMutability": "view",
      "type": "function"
    },
    {
      "inputs": [
        {
          "internalType": "bytes32",
          "name": "role",
          "type": "bytes32"
        },
        {
          "internalType": "address",
          "name": "account",
          "type": "address"
        }
      ],
      "name": "renounceRole",
      "outputs": [],
      "stateMutability": "nonpayable",
      "type": "function"
    },
    {
      "inputs": [
        {
          "internalType": "bytes32",
          "name": "role",
          "type": "bytes32"
        },
        {
          "internalType": "address",
          "name": "account",
          "type": "address"
        }
      ],
      "name": "revokeRole",
      "outputs": [],
      "stateMutability": "nonpayable",
      "type": "function"
    },
    {
      "inputs": [
        {
          "internalType": "address",
          "name": "from",
          "type": "address"
        },
        {
          "internalType": "address",
          "name": "to",
          "type": "address"
        },
        {
          "internalType": "uint256[]",
          "name": "ids",
          "type": "uint256[]"
        },
        {
          "internalType": "uint256[]",
          "name": "amounts",
          "type": "uint256[]"
        },
        {
          "internalType": "bytes",
          "name": "data",
          "type": "bytes"
        }
      ],
      "name": "safeBatchTransferFrom",
      "outputs": [],
      "stateMutability": "nonpayable",
      "type": "function"
    },
    {
      "inputs": [
        {
          "internalType": "address",
          "name": "from",
          "type": "address"
        },
        {
          "internalType": "address",
          "name": "to",
          "type": "address"
        },
        {
          "internalType": "uint256",
          "name": "id",
          "type": "uint256"
        },
        {
          "internalType": "uint256",
          "name": "amount",
          "type": "uint256"
        },
        {
          "internalType": "bytes",
          "name": "data",
          "type": "bytes"
        }
      ],
      "name": "safeTransferFrom",
      "outputs": [],
      "stateMutability": "nonpayable",
      "type": "function"
    },
    {
      "inputs": [
        {
          "internalType": "address",
          "name": "operator",
          "type": "address"
        },
        {
          "internalType": "bool",
          "name": "approved",
          "type": "bool"
        }
      ],
      "name": "setApprovalForAll",
      "outputs": [],
      "stateMutability": "nonpayable",
      "type": "function"
    },
    {
      "inputs": [
        {
          "internalType": "string",
          "name": "newuri",
          "type": "string"
        }
      ],
      "name": "setURI",
      "outputs": [],
      "stateMutability": "nonpayable",
      "type": "function"
    },
    {
      "inputs": [
        {
          "internalType": "bytes4",
          "name": "interfaceId",
          "type": "bytes4"
        }
      ],
      "name": "supportsInterface",
      "outputs": [
        {
          "internalType": "bool",
          "name": "",
          "type": "bool"
        }
      ],
      "stateMutability": "view",
      "type": "function"
    },
    {
      "inputs": [],
      "name": "total",
      "outputs": [
        {
          "internalType": "uint256",
          "name": "",
          "type": "uint256"
        }
      ],
      "stateMutability": "view",
      "type": "function"
    },
    {
      "inputs": [
        {
          "internalType": "uint256",
          "name": "w",
          "type": "uint256"
        },
        {
          "internalType": "bytes32",
          "name": "_spec",
          "type": "bytes32"
        },
        {
          "internalType": "uint256",
          "name": "total_shares",
          "type": "uint256"
        },
        {
          "internalType": "uint256",
          "name": "_price",
          "type": "uint256"
        },
        {
          "internalType": "uint256",
          "name": "_start",
          "type": "uint256"
        }
      ],
      "name": "updateWorld",
      "outputs": [],
      "stateMutability": "nonpayable",
      "type": "function"
    },
    {
      "inputs": [
        {
          "internalType": "uint256",
          "name": "",
          "type": "uint256"
        }
      ],
      "name": "uri",
      "outputs": [
        {
          "internalType": "string",
          "name": "",
          "type": "string"
        }
      ],
      "stateMutability": "view",
      "type": "function"
    }
  ],
  "bytecode": "0x60806040523480156200001157600080fd5b506040516200396a3803806200396a833981810160405260208110156200003757600080fd5b81019080805160405193929190846401000000008211156200005857600080fd5b838201915060208201858111156200006f57600080fd5b82518660018202830111640100000000821117156200008d57600080fd5b8083526020830192505050908051906020019080838360005b83811015620000c3578082015181840152602081019050620000a6565b50505050905090810190601f168015620000f15780820380516001836020036101000a031916815260200191505b506040525050508080620001126301ffc9a760e01b620001f660201b60201c565b6200012381620002ff60201b60201c565b6200013b63d9b67a2660e01b620001f660201b60201c565b62000153630e89341c60e01b620001f660201b60201c565b50620001786000801b6200016c6200031b60201b60201c565b6200032360201b60201c565b620001b97fd01a726e3c29a8c3f1e11dc604364fc90e918d0d6a4c81583749a60ca06abd16620001ad6200031b60201b60201c565b6200032360201b60201c565b620001ee6000801b7fd01a726e3c29a8c3f1e11dc604364fc90e918d0d6a4c81583749a60ca06abd166200033960201b60201c565b5050620005bc565b63ffffffff60e01b817bffffffffffffffffffffffffffffffffffffffffffffffffffffffff1916141562000293576040517f08c379a000000000000000000000000000000000000000000000000000000000815260040180806020018281038252601c8152602001807f4552433136353a20696e76616c696420696e746572666163652069640000000081525060200191505060405180910390fd5b6001600080837bffffffffffffffffffffffffffffffffffffffffffffffffffffffff19167bffffffffffffffffffffffffffffffffffffffffffffffffffffffff1916815260200190815260200160002060006101000a81548160ff02191690831515021790555050565b80600390805190602001906200031792919062000516565b5050565b600033905090565b6200033582826200039d60201b60201c565b5050565b806004600084815260200190815260200160002060020154837fbd79b86ffe0ab8e8776151514217cd7cacd52c909f66475c3af44e129f0b00ff60405160405180910390a48060046000848152602001908152602001600020600201819055505050565b620003cc81600460008581526020019081526020016000206000016200044160201b620020871790919060201c565b156200043d57620003e26200031b60201b60201c565b73ffffffffffffffffffffffffffffffffffffffff168173ffffffffffffffffffffffffffffffffffffffff16837f2f8788117e7eff1d82e926ec794901d17c78024a50270940304540a733656f0d60405160405180910390a45b5050565b600062000471836000018373ffffffffffffffffffffffffffffffffffffffff1660001b6200047960201b60201c565b905092915050565b60006200048d8383620004f360201b60201c565b620004e8578260000182908060018154018082558091505060019003906000526020600020016000909190919091505582600001805490508360010160008481526020019081526020016000208190555060019050620004ed565b600090505b92915050565b600080836001016000848152602001908152602001600020541415905092915050565b828054600181600116156101000203166002900490600052602060002090601f016020900481019282601f106200055957805160ff19168380011785556200058a565b828001600101855582156200058a579182015b82811115620005895782518255916020019190600101906200056c565b5b5090506200059991906200059d565b5090565b5b80821115620005b85760008160009055506001016200059e565b5090565b61339e80620005cc6000396000f3fe608060405234801561001057600080fd5b506004361061014c5760003560e01c806363a72d9d116100c3578063d547741f1161007c578063d547741f14610a69578063e985e9c514610ab7578063f242432a14610b31578063faeb14b114610c40578063fbb864c114610c98578063ff490d5e14610ce45761014c565b806363a72d9d1461088e5780639010d07c146108f357806391d1485414610955578063a217fddf146109b9578063a22cb465146109d7578063ca15c87314610a275761014c565b80632ddbd13a116101155780632ddbd13a146103ba5780632eb2c2d6146103d85780632f2ff15d146105fb57806334c406c31461064957806336568abe1461069f5780634e1273f4146106ed5761014c565b8062fdd58e1461015157806301ffc9a7146101b357806302fe5305146102165780630e89341c146102d1578063248a9ca314610378575b600080fd5b61019d6004803603604081101561016757600080fd5b81019080803573ffffffffffffffffffffffffffffffffffffffff16906020019092919080359060200190929190505050610d02565b6040518082815260200191505060405180910390f35b6101fe600480360360208110156101c957600080fd5b8101908080357bffffffffffffffffffffffffffffffffffffffffffffffffffffffff19169060200190929190505050610de2565b60405180821515815260200191505060405180910390f35b6102cf6004803603602081101561022c57600080fd5b810190808035906020019064010000000081111561024957600080fd5b82018360208201111561025b57600080fd5b8035906020019184600183028401116401000000008311171561027d57600080fd5b91908080601f016020809104026020016040519081016040528093929190818152602001838380828437600081840152601f19601f820116905080830192505050505050509192919290505050610e49565b005b6102fd600480360360208110156102e757600080fd5b8101908080359060200190929190505050610e8a565b6040518080602001828103825283818151815260200191508051906020019080838360005b8381101561033d578082015181840152602081019050610322565b50505050905090810190601f16801561036a5780820380516001836020036101000a031916815260200191505b509250505060405180910390f35b6103a46004803603602081101561038e57600080fd5b8101908080359060200190929190505050610f2e565b6040518082815260200191505060405180910390f35b6103c2610f4e565b6040518082815260200191505060405180910390f35b6105f9600480360360a08110156103ee57600080fd5b81019080803573ffffffffffffffffffffffffffffffffffffffff169060200190929190803573ffffffffffffffffffffffffffffffffffffffff1690602001909291908035906020019064010000000081111561044b57600080fd5b82018360208201111561045d57600080fd5b8035906020019184602083028401116401000000008311171561047f57600080fd5b919080806020026020016040519081016040528093929190818152602001838360200280828437600081840152601f19601f820116905080830192505050505050509192919290803590602001906401000000008111156104df57600080fd5b8201836020820111156104f157600080fd5b8035906020019184602083028401116401000000008311171561051357600080fd5b919080806020026020016040519081016040528093929190818152602001838360200280828437600081840152601f19601f8201169050808301925050505050505091929192908035906020019064010000000081111561057357600080fd5b82018360208201111561058557600080fd5b803590602001918460018302840111640100000000831117156105a757600080fd5b91908080601f016020809104026020016040519081016040528093929190818152602001838380828437600081840152601f19601f820116905080830192505050505050509192919290505050610f54565b005b6106476004803603604081101561061157600080fd5b8101908080359060200190929190803573ffffffffffffffffffffffffffffffffffffffff1690602001909291905050506113df565b005b61069d600480360360a081101561065f57600080fd5b810190808035906020019092919080359060200190929190803590602001909291908035906020019092919080359060200190929190505050611469565b005b6106eb600480360360408110156106b557600080fd5b8101908080359060200190929190803573ffffffffffffffffffffffffffffffffffffffff1690602001909291905050506114e1565b005b6108376004803603604081101561070357600080fd5b810190808035906020019064010000000081111561072057600080fd5b82018360208201111561073257600080fd5b8035906020019184602083028401116401000000008311171561075457600080fd5b919080806020026020016040519081016040528093929190818152602001838360200280828437600081840152601f19601f820116905080830192505050505050509192919290803590602001906401000000008111156107b457600080fd5b8201836020820111156107c657600080fd5b803590602001918460208302840111640100000000831117156107e857600080fd5b919080806020026020016040519081016040528093929190818152602001838360200280828437600081840152601f19601f82011690508083019250505050505050919291929050505061157a565b6040518080602001828103825283818151815260200191508051906020019060200280838360005b8381101561087a57808201518184015260208101905061085f565b505050509050019250505060405180910390f35b6108ba600480360360208110156108a457600080fd5b810190808035906020019092919050505061176c565b60405180878152602001868152602001858152602001848152602001838152602001828152602001965050505050505060405180910390f35b6109296004803603604081101561090957600080fd5b8101908080359060200190929190803590602001909291905050506117a8565b604051808273ffffffffffffffffffffffffffffffffffffffff16815260200191505060405180910390f35b6109a16004803603604081101561096b57600080fd5b8101908080359060200190929190803573ffffffffffffffffffffffffffffffffffffffff1690602001909291905050506117da565b60405180821515815260200191505060405180910390f35b6109c161180c565b6040518082815260200191505060405180910390f35b610a25600480360360408110156109ed57600080fd5b81019080803573ffffffffffffffffffffffffffffffffffffffff169060200190929190803515159060200190929190505050611813565b005b610a5360048036036020811015610a3d57600080fd5b81019080803590602001909291905050506119ac565b6040518082815260200191505060405180910390f35b610ab560048036036040811015610a7f57600080fd5b8101908080359060200190929190803573ffffffffffffffffffffffffffffffffffffffff1690602001909291905050506119d3565b005b610b1960048036036040811015610acd57600080fd5b81019080803573ffffffffffffffffffffffffffffffffffffffff169060200190929190803573ffffffffffffffffffffffffffffffffffffffff169060200190929190505050611a5d565b60405180821515815260200191505060405180910390f35b610c3e600480360360a0811015610b4757600080fd5b81019080803573ffffffffffffffffffffffffffffffffffffffff169060200190929190803573ffffffffffffffffffffffffffffffffffffffff169060200190929190803590602001909291908035906020019092919080359060200190640100000000811115610bb857600080fd5b820183602082011115610bca57600080fd5b80359060200191846001830284011164010000000083111715610bec57600080fd5b91908080601f016020809104026020016040519081016040528093929190818152602001838380828437600081840152601f19601f820116905080830192505050505050509192919290505050611af1565b005b610c9660048036036060811015610c5657600080fd5b810190808035906020019092919080359060200190929190803573ffffffffffffffffffffffffffffffffffffffff169060200190929190505050611e66565b005b610ce260048036036080811015610cae57600080fd5b8101908080359060200190929190803590602001909291908035906020019092919080359060200190929190505050611f8c565b005b610cec612063565b6040518082815260200191505060405180910390f35b60008073ffffffffffffffffffffffffffffffffffffffff168373ffffffffffffffffffffffffffffffffffffffff161415610d89576040517f08c379a000000000000000000000000000000000000000000000000000000000815260040180806020018281038252602b815260200180613169602b913960400191505060405180910390fd5b6001600083815260200190815260200160002060008473ffffffffffffffffffffffffffffffffffffffff1673ffffffffffffffffffffffffffffffffffffffff16815260200190815260200160002054905092915050565b6000806000837bffffffffffffffffffffffffffffffffffffffffffffffffffffffff19167bffffffffffffffffffffffffffffffffffffffffffffffffffffffff1916815260200190815260200160002060009054906101000a900460ff169050919050565b33610e747fd01a726e3c29a8c3f1e11dc604364fc90e918d0d6a4c81583749a60ca06abd16826117da565b610e7d57600080fd5b610e86826120b7565b5050565b606060038054600181600116156101000203166002900480601f016020809104026020016040519081016040528092919081815260200182805460018160011615610100020316600290048015610f225780601f10610ef757610100808354040283529160200191610f22565b820191906000526020600020905b815481529060010190602001808311610f0557829003601f168201915b50505050509050919050565b600060046000838152602001908152602001600020600201549050919050565b60055481565b8151835114610fae576040517f08c379a00000000000000000000000000000000000000000000000000000000081526004018080602001828103825260288152602001806132f16028913960400191505060405180910390fd5b600073ffffffffffffffffffffffffffffffffffffffff168473ffffffffffffffffffffffffffffffffffffffff161415611034576040517f08c379a000000000000000000000000000000000000000000000000000000000815260040180806020018281038252602581526020018061321e6025913960400191505060405180910390fd5b61103c6120d1565b73ffffffffffffffffffffffffffffffffffffffff168573ffffffffffffffffffffffffffffffffffffffff16148061108257506110818561107c6120d1565b611a5d565b5b6110d7576040517f08c379a00000000000000000000000000000000000000000000000000000000081526004018080602001828103825260328152602001806132436032913960400191505060405180910390fd5b60006110e16120d1565b90506110f18187878787876120d9565b60005b84518110156112c257600085828151811061110b57fe5b60200260200101519050600085838151811061112357fe5b602002602001015190506111aa816040518060600160405280602a8152602001613275602a91396001600086815260200190815260200160002060008d73ffffffffffffffffffffffffffffffffffffffff1673ffffffffffffffffffffffffffffffffffffffff168152602001908152602001600020546120e19092919063ffffffff16565b6001600084815260200190815260200160002060008b73ffffffffffffffffffffffffffffffffffffffff1673ffffffffffffffffffffffffffffffffffffffff16815260200190815260200160002081905550611261816001600085815260200190815260200160002060008b73ffffffffffffffffffffffffffffffffffffffff1673ffffffffffffffffffffffffffffffffffffffff168152602001908152602001600020546121a190919063ffffffff16565b6001600084815260200190815260200160002060008a73ffffffffffffffffffffffffffffffffffffffff1673ffffffffffffffffffffffffffffffffffffffff1681526020019081526020016000208190555050508060010190506110f4565b508473ffffffffffffffffffffffffffffffffffffffff168673ffffffffffffffffffffffffffffffffffffffff168273ffffffffffffffffffffffffffffffffffffffff167f4a39dc06d4c0dbc64b70af90fd698a233a518aa5d07e595d983b8c0526c8f7fb8787604051808060200180602001838103835285818151815260200191508051906020019060200280838360005b83811015611372578082015181840152602081019050611357565b50505050905001838103825284818151815260200191508051906020019060200280838360005b838110156113b4578082015181840152602081019050611399565b5050505090500194505050505060405180910390a46113d7818787878787612229565b505050505050565b61140660046000848152602001908152602001600020600201546114016120d1565b6117da565b61145b576040517f08c379a000000000000000000000000000000000000000000000000000000000815260040180806020018281038252602f81526020018061313a602f913960400191505060405180910390fd5b61146582826125b8565b5050565b336114947fd01a726e3c29a8c3f1e11dc604364fc90e918d0d6a4c81583749a60ca06abd16826117da565b61149d57600080fd5b600060066000888152602001908152602001600020905085816001018190555084816002018190555083816004018190555082816005018190555050505050505050565b6114e96120d1565b73ffffffffffffffffffffffffffffffffffffffff168173ffffffffffffffffffffffffffffffffffffffff161461156c576040517f08c379a000000000000000000000000000000000000000000000000000000000815260040180806020018281038252602f81526020018061333a602f913960400191505060405180910390fd5b611576828261264c565b5050565b606081518351146115d6576040517f08c379a00000000000000000000000000000000000000000000000000000000081526004018080602001828103825260298152602001806132c86029913960400191505060405180910390fd5b6060835167ffffffffffffffff811180156115f057600080fd5b5060405190808252806020026020018201604052801561161f5781602001602082028036833780820191505090505b50905060005b845181101561176157600073ffffffffffffffffffffffffffffffffffffffff1685828151811061165257fe5b602002602001015173ffffffffffffffffffffffffffffffffffffffff1614156116c7576040517f08c379a00000000000000000000000000000000000000000000000000000000081526004018080602001828103825260318152602001806131946031913960400191505060405180910390fd5b600160008583815181106116d757fe5b6020026020010151815260200190815260200160002060008683815181106116fb57fe5b602002602001015173ffffffffffffffffffffffffffffffffffffffff1673ffffffffffffffffffffffffffffffffffffffff1681526020019081526020016000205482828151811061174a57fe5b602002602001018181525050806001019050611625565b508091505092915050565b60066020528060005260406000206000915090508060000154908060010154908060020154908060030154908060040154908060050154905086565b60006117d282600460008681526020019081526020016000206000016126e090919063ffffffff16565b905092915050565b600061180482600460008681526020019081526020016000206000016126fa90919063ffffffff16565b905092915050565b6000801b81565b8173ffffffffffffffffffffffffffffffffffffffff166118326120d1565b73ffffffffffffffffffffffffffffffffffffffff16141561189f576040517f08c379a000000000000000000000000000000000000000000000000000000000815260040180806020018281038252602981526020018061329f6029913960400191505060405180910390fd5b80600260006118ac6120d1565b73ffffffffffffffffffffffffffffffffffffffff1673ffffffffffffffffffffffffffffffffffffffff16815260200190815260200160002060008473ffffffffffffffffffffffffffffffffffffffff1673ffffffffffffffffffffffffffffffffffffffff16815260200190815260200160002060006101000a81548160ff0219169083151502179055508173ffffffffffffffffffffffffffffffffffffffff166119596120d1565b73ffffffffffffffffffffffffffffffffffffffff167f17307eab39ab6107e8899845ad3d59bd9653f200f220920489ca2b5937696c318360405180821515815260200191505060405180910390a35050565b60006119cc6004600084815260200190815260200160002060000161272a565b9050919050565b6119fa60046000848152602001908152602001600020600201546119f56120d1565b6117da565b611a4f576040517f08c379a00000000000000000000000000000000000000000000000000000000081526004018080602001828103825260308152602001806131ee6030913960400191505060405180910390fd5b611a59828261264c565b5050565b6000600260008473ffffffffffffffffffffffffffffffffffffffff1673ffffffffffffffffffffffffffffffffffffffff16815260200190815260200160002060008373ffffffffffffffffffffffffffffffffffffffff1673ffffffffffffffffffffffffffffffffffffffff16815260200190815260200160002060009054906101000a900460ff16905092915050565b600073ffffffffffffffffffffffffffffffffffffffff168473ffffffffffffffffffffffffffffffffffffffff161415611b77576040517f08c379a000000000000000000000000000000000000000000000000000000000815260040180806020018281038252602581526020018061321e6025913960400191505060405180910390fd5b611b7f6120d1565b73ffffffffffffffffffffffffffffffffffffffff168573ffffffffffffffffffffffffffffffffffffffff161480611bc55750611bc485611bbf6120d1565b611a5d565b5b611c1a576040517f08c379a00000000000000000000000000000000000000000000000000000000081526004018080602001828103825260298152602001806131c56029913960400191505060405180910390fd5b6000611c246120d1565b9050611c44818787611c358861273f565b611c3e8861273f565b876120d9565b611cc1836040518060600160405280602a8152602001613275602a91396001600088815260200190815260200160002060008a73ffffffffffffffffffffffffffffffffffffffff1673ffffffffffffffffffffffffffffffffffffffff168152602001908152602001600020546120e19092919063ffffffff16565b6001600086815260200190815260200160002060008873ffffffffffffffffffffffffffffffffffffffff1673ffffffffffffffffffffffffffffffffffffffff16815260200190815260200160002081905550611d78836001600087815260200190815260200160002060008873ffffffffffffffffffffffffffffffffffffffff1673ffffffffffffffffffffffffffffffffffffffff168152602001908152602001600020546121a190919063ffffffff16565b6001600086815260200190815260200160002060008773ffffffffffffffffffffffffffffffffffffffff1673ffffffffffffffffffffffffffffffffffffffff168152602001908152602001600020819055508473ffffffffffffffffffffffffffffffffffffffff168673ffffffffffffffffffffffffffffffffffffffff168273ffffffffffffffffffffffffffffffffffffffff167fc3d58168c5ae7397731d063d5bbf3d657854427343f4c083240f7aacaa2d0f628787604051808381526020018281526020019250505060405180910390a4611e5e8187878787876127af565b505050505050565b33611e917fd01a726e3c29a8c3f1e11dc604364fc90e918d0d6a4c81583749a60ca06abd16826117da565b611e9a57600080fd5b6000600660008581526020019081526020016000209050611ec88582600301546121a190919063ffffffff16565b81600201541015611f41576040517f08c379a000000000000000000000000000000000000000000000000000000000815260040180806020018281038252601f8152602001807f6e6f7420656e6f756768207368617265732061726520617661696c61626c650081525060200191505060405180910390fd5b600081600001549050611f618683600301546121a190919063ffffffff16565b8260030181905550611f8484828860405180602001604052806000815250612abc565b505050505050565b33611fb77fd01a726e3c29a8c3f1e11dc604364fc90e918d0d6a4c81583749a60ca06abd16826117da565b611fc057600080fd5b600160055401600581905550611fd4612f11565b6040518060c0016040528060055481526020018781526020018681526020016000815260200185815260200184815250905080600660006005548152602001908152602001600020600082015181600001556020820151816001015560408201518160020155606082015181600301556080820151816004015560a08201518160050155905050505050505050565b7fd01a726e3c29a8c3f1e11dc604364fc90e918d0d6a4c81583749a60ca06abd1681565b60006120af836000018373ffffffffffffffffffffffffffffffffffffffff1660001b612cbf565b905092915050565b80600390805190602001906120cd929190612f4a565b5050565b600033905090565b505050505050565b600083831115829061218e576040517f08c379a00000000000000000000000000000000000000000000000000000000081526004018080602001828103825283818151815260200191508051906020019080838360005b83811015612153578082015181840152602081019050612138565b50505050905090810190601f1680156121805780820380516001836020036101000a031916815260200191505b509250505060405180910390fd5b5060008385039050809150509392505050565b60008082840190508381101561221f576040517f08c379a000000000000000000000000000000000000000000000000000000000815260040180806020018281038252601b8152602001807f536166654d6174683a206164646974696f6e206f766572666c6f77000000000081525060200191505060405180910390fd5b8091505092915050565b6122488473ffffffffffffffffffffffffffffffffffffffff16612d2f565b156125b0578373ffffffffffffffffffffffffffffffffffffffff1663bc197c8187878686866040518663ffffffff1660e01b8152600401808673ffffffffffffffffffffffffffffffffffffffff1681526020018573ffffffffffffffffffffffffffffffffffffffff168152602001806020018060200180602001848103845287818151815260200191508051906020019060200280838360005b838110156123005780820151818401526020810190506122e5565b50505050905001848103835286818151815260200191508051906020019060200280838360005b83811015612342578082015181840152602081019050612327565b50505050905001848103825285818151815260200191508051906020019080838360005b83811015612381578082015181840152602081019050612366565b50505050905090810190601f1680156123ae5780820380516001836020036101000a031916815260200191505b5098505050505050505050602060405180830381600087803b1580156123d357600080fd5b505af192505050801561240757506040513d60208110156123f357600080fd5b810190808051906020019092919050505060015b61251157612413613005565b8061241e57506124c0565b806040517f08c379a00000000000000000000000000000000000000000000000000000000081526004018080602001828103825283818151815260200191508051906020019080838360005b8381101561248557808201518184015260208101905061246a565b50505050905090810190601f1680156124b25780820380516001836020036101000a031916815260200191505b509250505060405180910390fd5b6040517f08c379a00000000000000000000000000000000000000000000000000000000081526004018080602001828103825260348152602001806130bc6034913960400191505060405180910390fd5b63bc197c8160e01b7bffffffffffffffffffffffffffffffffffffffffffffffffffffffff1916817bffffffffffffffffffffffffffffffffffffffffffffffffffffffff1916146125ae576040517f08c379a00000000000000000000000000000000000000000000000000000000081526004018080602001828103825260288152602001806131126028913960400191505060405180910390fd5b505b505050505050565b6125e0816004600085815260200190815260200160002060000161208790919063ffffffff16565b15612648576125ed6120d1565b73ffffffffffffffffffffffffffffffffffffffff168173ffffffffffffffffffffffffffffffffffffffff16837f2f8788117e7eff1d82e926ec794901d17c78024a50270940304540a733656f0d60405160405180910390a45b5050565b6126748160046000858152602001908152602001600020600001612d4290919063ffffffff16565b156126dc576126816120d1565b73ffffffffffffffffffffffffffffffffffffffff168173ffffffffffffffffffffffffffffffffffffffff16837ff6391f5c32d9c69d2a47ea670b442974b53935d1edc7fd64eb21e047a839171b60405160405180910390a45b5050565b60006126ef8360000183612d72565b60001c905092915050565b6000612722836000018373ffffffffffffffffffffffffffffffffffffffff1660001b612df5565b905092915050565b600061273882600001612e18565b9050919050565b606080600167ffffffffffffffff8111801561275a57600080fd5b506040519080825280602002602001820160405280156127895781602001602082028036833780820191505090505b509050828160008151811061279a57fe5b60200260200101818152505080915050919050565b6127ce8473ffffffffffffffffffffffffffffffffffffffff16612d2f565b15612ab4578373ffffffffffffffffffffffffffffffffffffffff1663f23a6e6187878686866040518663ffffffff1660e01b8152600401808673ffffffffffffffffffffffffffffffffffffffff1681526020018573ffffffffffffffffffffffffffffffffffffffff16815260200184815260200183815260200180602001828103825283818151815260200191508051906020019080838360005b8381101561288757808201518184015260208101905061286c565b50505050905090810190601f1680156128b45780820380516001836020036101000a031916815260200191505b509650505050505050602060405180830381600087803b1580156128d757600080fd5b505af192505050801561290b57506040513d60208110156128f757600080fd5b810190808051906020019092919050505060015b612a1557612917613005565b8061292257506129c4565b806040517f08c379a00000000000000000000000000000000000000000000000000000000081526004018080602001828103825283818151815260200191508051906020019080838360005b8381101561298957808201518184015260208101905061296e565b50505050905090810190601f1680156129b65780820380516001836020036101000a031916815260200191505b509250505060405180910390fd5b6040517f08c379a00000000000000000000000000000000000000000000000000000000081526004018080602001828103825260348152602001806130bc6034913960400191505060405180910390fd5b63f23a6e6160e01b7bffffffffffffffffffffffffffffffffffffffffffffffffffffffff1916817bffffffffffffffffffffffffffffffffffffffffffffffffffffffff191614612ab2576040517f08c379a00000000000000000000000000000000000000000000000000000000081526004018080602001828103825260288152602001806131126028913960400191505060405180910390fd5b505b505050505050565b600073ffffffffffffffffffffffffffffffffffffffff168473ffffffffffffffffffffffffffffffffffffffff161415612b42576040517f08c379a00000000000000000000000000000000000000000000000000000000081526004018080602001828103825260218152602001806133196021913960400191505060405180910390fd5b6000612b4c6120d1565b9050612b6d81600087612b5e8861273f565b612b678861273f565b876120d9565b612bd0836001600087815260200190815260200160002060008873ffffffffffffffffffffffffffffffffffffffff1673ffffffffffffffffffffffffffffffffffffffff168152602001908152602001600020546121a190919063ffffffff16565b6001600086815260200190815260200160002060008773ffffffffffffffffffffffffffffffffffffffff1673ffffffffffffffffffffffffffffffffffffffff168152602001908152602001600020819055508473ffffffffffffffffffffffffffffffffffffffff16600073ffffffffffffffffffffffffffffffffffffffff168273ffffffffffffffffffffffffffffffffffffffff167fc3d58168c5ae7397731d063d5bbf3d657854427343f4c083240f7aacaa2d0f628787604051808381526020018281526020019250505060405180910390a4612cb8816000878787876127af565b5050505050565b6000612ccb8383612df5565b612d24578260000182908060018154018082558091505060019003906000526020600020016000909190919091505582600001805490508360010160008481526020019081526020016000208190555060019050612d29565b600090505b92915050565b600080823b905060008111915050919050565b6000612d6a836000018373ffffffffffffffffffffffffffffffffffffffff1660001b612e29565b905092915050565b600081836000018054905011612dd3576040517f08c379a00000000000000000000000000000000000000000000000000000000081526004018080602001828103825260228152602001806130f06022913960400191505060405180910390fd5b826000018281548110612de257fe5b9060005260206000200154905092915050565b600080836001016000848152602001908152602001600020541415905092915050565b600081600001805490509050919050565b60008083600101600084815260200190815260200160002054905060008114612f055760006001820390506000600186600001805490500390506000866000018281548110612e7457fe5b9060005260206000200154905080876000018481548110612e9157fe5b9060005260206000200181905550600183018760010160008381526020019081526020016000208190555086600001805480612ec957fe5b60019003818190600052602060002001600090559055866001016000878152602001908152602001600020600090556001945050505050612f0b565b60009150505b92915050565b6040518060c001604052806000815260200160008019168152602001600081526020016000815260200160008152602001600081525090565b828054600181600116156101000203166002900490600052602060002090601f016020900481019282601f10612f8b57805160ff1916838001178555612fb9565b82800160010185558215612fb9579182015b82811115612fb8578251825591602001919060010190612f9d565b5b509050612fc69190612fca565b5090565b5b80821115612fe3576000816000905550600101612fcb565b5090565b6000601f19601f8301169050919050565b60008160e01c9050919050565b600060443d1015613015576130b8565b60046000803e613026600051612ff8565b6308c379a0811461303757506130b8565b60405160043d036004823e80513d602482011167ffffffffffffffff82111715613063575050506130b8565b808201805167ffffffffffffffff8111156130825750505050506130b8565b8060208301013d850181111561309d575050505050506130b8565b6130a682612fe7565b60208401016040528296505050505050505b9056fe455243313135353a207472616e7366657220746f206e6f6e2045524331313535526563656976657220696d706c656d656e746572456e756d657261626c655365743a20696e646578206f7574206f6620626f756e6473455243313135353a204552433131353552656365697665722072656a656374656420746f6b656e73416363657373436f6e74726f6c3a2073656e646572206d75737420626520616e2061646d696e20746f206772616e74455243313135353a2062616c616e636520717565727920666f7220746865207a65726f2061646472657373455243313135353a2062617463682062616c616e636520717565727920666f7220746865207a65726f2061646472657373455243313135353a2063616c6c6572206973206e6f74206f776e6572206e6f7220617070726f766564416363657373436f6e74726f6c3a2073656e646572206d75737420626520616e2061646d696e20746f207265766f6b65455243313135353a207472616e7366657220746f20746865207a65726f2061646472657373455243313135353a207472616e736665722063616c6c6572206973206e6f74206f776e6572206e6f7220617070726f766564455243313135353a20696e73756666696369656e742062616c616e636520666f72207472616e73666572455243313135353a2073657474696e6720617070726f76616c2073746174757320666f722073656c66455243313135353a206163636f756e747320616e6420696473206c656e677468206d69736d61746368455243313135353a2069647320616e6420616d6f756e7473206c656e677468206d69736d61746368455243313135353a206d696e7420746f20746865207a65726f2061646472657373416363657373436f6e74726f6c3a2063616e206f6e6c792072656e6f756e636520726f6c657320666f722073656c66a2646970667358221220cba50f37e17c7d8908424644f285cbb42d370b314eb92bd7b8b07a6414cde80d64736f6c63430007030033",
  "linkReferences": {},
  "deployedLinkReferences": {}
}