{
  "_format": "hh-sol-artifact-1",
  "contractName": "LANDAdmin",
  "sourceName": "contracts/LANDAdmin.sol",
  "abi": [
    {
      "inputs": [],
      "stateMutability": "nonpayable",
      "type": "constructor"
    },
    {
      "anonymous": false,
      "inputs": [
        {
          "indexed": true,
          "internalType": "bytes32",
          "name": "role",
          "type": "bytes32"
        },
        {
          "indexed": true,
          "internalType": "bytes32",
          "name": "previousAdminRole",
          "type": "bytes32"
        },
        {
          "indexed": true,
          "internalType": "bytes32",
          "name": "newAdminRole",
          "type": "bytes32"
        }
      ],
      "name": "RoleAdminChanged",
      "type": "event"
    },
    {
      "anonymous": false,
      "inputs": [
        {
          "indexed": true,
          "internalType": "bytes32",
          "name": "role",
          "type": "bytes32"
        },
        {
          "indexed": true,
          "internalType": "address",
          "name": "account",
          "type": "address"
        },
        {
          "indexed": true,
          "internalType": "address",
          "name": "sender",
          "type": "address"
        }
      ],
      "name": "RoleGranted",
      "type": "event"
    },
    {
      "anonymous": false,
      "inputs": [
        {
          "indexed": true,
          "internalType": "bytes32",
          "name": "role",
          "type": "bytes32"
        },
        {
          "indexed": true,
          "internalType": "address",
          "name": "account",
          "type": "address"
        },
        {
          "indexed": true,
          "internalType": "address",
          "name": "sender",
          "type": "address"
        }
      ],
      "name": "RoleRevoked",
      "type": "event"
    },
    {
      "inputs": [],
      "name": "DEFAULT_ADMIN_ROLE",
      "outputs": [
        {
          "internalType": "bytes32",
          "name": "",
          "type": "bytes32"
        }
      ],
      "stateMutability": "view",
      "type": "function"
    },
    {
      "inputs": [],
      "name": "METAVERSE_ADMIN",
      "outputs": [
        {
          "internalType": "bytes32",
          "name": "",
          "type": "bytes32"
        }
      ],
      "stateMutability": "view",
      "type": "function"
    },
    {
      "inputs": [],
      "name": "UPDATE_ADMIN",
      "outputs": [
        {
          "internalType": "bytes32",
          "name": "",
          "type": "bytes32"
        }
      ],
      "stateMutability": "view",
      "type": "function"
    },
    {
      "inputs": [
        {
          "internalType": "bytes32",
          "name": "role",
          "type": "bytes32"
        }
      ],
      "name": "getRoleAdmin",
      "outputs": [
        {
          "internalType": "bytes32",
          "name": "",
          "type": "bytes32"
        }
      ],
      "stateMutability": "view",
      "type": "function"
    },
    {
      "inputs": [
        {
          "internalType": "bytes32",
          "name": "role",
          "type": "bytes32"
        },
        {
          "internalType": "uint256",
          "name": "index",
          "type": "uint256"
        }
      ],
      "name": "getRoleMember",
      "outputs": [
        {
          "internalType": "address",
          "name": "",
          "type": "address"
        }
      ],
      "stateMutability": "view",
      "type": "function"
    },
    {
      "inputs": [
        {
          "internalType": "bytes32",
          "name": "role",
          "type": "bytes32"
        }
      ],
      "name": "getRoleMemberCount",
      "outputs": [
        {
          "internalType": "uint256",
          "name": "",
          "type": "uint256"
        }
      ],
      "stateMutability": "view",
      "type": "function"
    },
    {
      "inputs": [
        {
          "internalType": "bytes32",
          "name": "role",
          "type": "bytes32"
        },
        {
          "internalType": "address",
          "name": "account",
          "type": "address"
        }
      ],
      "name": "grantRole",
      "outputs": [],
      "stateMutability": "nonpayable",
      "type": "function"
    },
    {
      "inputs": [
        {
          "internalType": "bytes32",
          "name": "role",
          "type": "bytes32"
        },
        {
          "internalType": "address",
          "name": "account",
          "type": "address"
        }
      ],
      "name": "hasRole",
      "outputs": [
        {
          "internalType": "bool",
          "name": "",
          "type": "bool"
        }
      ],
      "stateMutability": "view",
      "type": "function"
    },
    {
      "inputs": [
        {
          "internalType": "bytes32",
          "name": "role",
          "type": "bytes32"
        },
        {
          "internalType": "address",
          "name": "account",
          "type": "address"
        }
      ],
      "name": "renounceRole",
      "outputs": [],
      "stateMutability": "nonpayable",
      "type": "function"
    },
    {
      "inputs": [
        {
          "internalType": "bytes32",
          "name": "role",
          "type": "bytes32"
        },
        {
          "internalType": "address",
          "name": "account",
          "type": "address"
        }
      ],
      "name": "revokeRole",
      "outputs": [],
      "stateMutability": "nonpayable",
      "type": "function"
    }
  ],
  "bytecode": "0x60806040523480156200001157600080fd5b50620000366000801b6200002a620000f360201b60201c565b620000fb60201b60201c565b620000777fd01a726e3c29a8c3f1e11dc604364fc90e918d0d6a4c81583749a60ca06abd166200006b620000f360201b60201c565b620000fb60201b60201c565b620000b87fd01a726e3c29a8c3f1e11dc604364fc90e918d0d6a4c81583749a60ca06abd16620000ac620000f360201b60201c565b620000fb60201b60201c565b620000ed6000801b7fd01a726e3c29a8c3f1e11dc604364fc90e918d0d6a4c81583749a60ca06abd166200011160201b60201c565b620002eb565b600033905090565b6200010d82826200017360201b60201c565b5050565b8060008084815260200190815260200160002060020154837fbd79b86ffe0ab8e8776151514217cd7cacd52c909f66475c3af44e129f0b00ff60405160405180910390a480600080848152602001908152602001600020600201819055505050565b620001a1816000808581526020019081526020016000206000016200021660201b620005d21790919060201c565b156200021257620001b7620000f360201b60201c565b73ffffffffffffffffffffffffffffffffffffffff168173ffffffffffffffffffffffffffffffffffffffff16837f2f8788117e7eff1d82e926ec794901d17c78024a50270940304540a733656f0d60405160405180910390a45b5050565b600062000246836000018373ffffffffffffffffffffffffffffffffffffffff1660001b6200024e60201b60201c565b905092915050565b6000620002628383620002c860201b60201c565b620002bd578260000182908060018154018082558091505060019003906000526020600020016000909190919091505582600001805490508360010160008481526020019081526020016000208190555060019050620002c2565b600090505b92915050565b600080836001016000848152602001908152602001600020541415905092915050565b610ab480620002fb6000396000f3fe608060405234801561001057600080fd5b506004361061009e5760003560e01c806391d148541161006657806391d1485414610201578063a217fddf14610265578063ca15c87314610283578063d547741f146102c5578063ff490d5e146103135761009e565b8063248a9ca3146100a35780632f2ff15d146100e557806336568abe14610133578063512df161146101815780639010d07c1461019f575b600080fd5b6100cf600480360360208110156100b957600080fd5b8101908080359060200190929190505050610331565b6040518082815260200191505060405180910390f35b610131600480360360408110156100fb57600080fd5b8101908080359060200190929190803573ffffffffffffffffffffffffffffffffffffffff169060200190929190505050610350565b005b61017f6004803603604081101561014957600080fd5b8101908080359060200190929190803573ffffffffffffffffffffffffffffffffffffffff1690602001909291905050506103d9565b005b610189610472565b6040518082815260200191505060405180910390f35b6101d5600480360360408110156101b557600080fd5b810190808035906020019092919080359060200190929190505050610496565b604051808273ffffffffffffffffffffffffffffffffffffffff16815260200191505060405180910390f35b61024d6004803603604081101561021757600080fd5b8101908080359060200190929190803573ffffffffffffffffffffffffffffffffffffffff1690602001909291905050506104c7565b60405180821515815260200191505060405180910390f35b61026d6104f8565b6040518082815260200191505060405180910390f35b6102af6004803603602081101561029957600080fd5b81019080803590602001909291905050506104ff565b6040518082815260200191505060405180910390f35b610311600480360360408110156102db57600080fd5b8101908080359060200190929190803573ffffffffffffffffffffffffffffffffffffffff169060200190929190505050610525565b005b61031b6105ae565b6040518082815260200191505060405180910390f35b6000806000838152602001908152602001600020600201549050919050565b61037660008084815260200190815260200160002060020154610371610602565b6104c7565b6103cb576040517f08c379a000000000000000000000000000000000000000000000000000000000815260040180806020018281038252602f8152602001806109f1602f913960400191505060405180910390fd5b6103d5828261060a565b5050565b6103e1610602565b73ffffffffffffffffffffffffffffffffffffffff168173ffffffffffffffffffffffffffffffffffffffff1614610464576040517f08c379a000000000000000000000000000000000000000000000000000000000815260040180806020018281038252602f815260200180610a50602f913960400191505060405180910390fd5b61046e828261069d565b5050565b7fd01a726e3c29a8c3f1e11dc604364fc90e918d0d6a4c81583749a60ca06abd1681565b60006104bf8260008086815260200190815260200160002060000161073090919063ffffffff16565b905092915050565b60006104f08260008086815260200190815260200160002060000161074a90919063ffffffff16565b905092915050565b6000801b81565b600061051e60008084815260200190815260200160002060000161077a565b9050919050565b61054b60008084815260200190815260200160002060020154610546610602565b6104c7565b6105a0576040517f08c379a0000000000000000000000000000000000000000000000000000000008152600401808060200182810382526030815260200180610a206030913960400191505060405180910390fd5b6105aa828261069d565b5050565b7fd01a726e3c29a8c3f1e11dc604364fc90e918d0d6a4c81583749a60ca06abd1681565b60006105fa836000018373ffffffffffffffffffffffffffffffffffffffff1660001b61078f565b905092915050565b600033905090565b610631816000808581526020019081526020016000206000016105d290919063ffffffff16565b156106995761063e610602565b73ffffffffffffffffffffffffffffffffffffffff168173ffffffffffffffffffffffffffffffffffffffff16837f2f8788117e7eff1d82e926ec794901d17c78024a50270940304540a733656f0d60405160405180910390a45b5050565b6106c4816000808581526020019081526020016000206000016107ff90919063ffffffff16565b1561072c576106d1610602565b73ffffffffffffffffffffffffffffffffffffffff168173ffffffffffffffffffffffffffffffffffffffff16837ff6391f5c32d9c69d2a47ea670b442974b53935d1edc7fd64eb21e047a839171b60405160405180910390a45b5050565b600061073f836000018361082f565b60001c905092915050565b6000610772836000018373ffffffffffffffffffffffffffffffffffffffff1660001b6108b2565b905092915050565b6000610788826000016108d5565b9050919050565b600061079b83836108b2565b6107f45782600001829080600181540180825580915050600190039060005260206000200160009091909190915055826000018054905083600101600084815260200190815260200160002081905550600190506107f9565b600090505b92915050565b6000610827836000018373ffffffffffffffffffffffffffffffffffffffff1660001b6108e6565b905092915050565b600081836000018054905011610890576040517f08c379a00000000000000000000000000000000000000000000000000000000081526004018080602001828103825260228152602001806109cf6022913960400191505060405180910390fd5b82600001828154811061089f57fe5b9060005260206000200154905092915050565b600080836001016000848152602001908152602001600020541415905092915050565b600081600001805490509050919050565b600080836001016000848152602001908152602001600020549050600081146109c2576000600182039050600060018660000180549050039050600086600001828154811061093157fe5b906000526020600020015490508087600001848154811061094e57fe5b906000526020600020018190555060018301876001016000838152602001908152602001600020819055508660000180548061098657fe5b600190038181906000526020600020016000905590558660010160008781526020019081526020016000206000905560019450505050506109c8565b60009150505b9291505056fe456e756d657261626c655365743a20696e646578206f7574206f6620626f756e6473416363657373436f6e74726f6c3a2073656e646572206d75737420626520616e2061646d696e20746f206772616e74416363657373436f6e74726f6c3a2073656e646572206d75737420626520616e2061646d696e20746f207265766f6b65416363657373436f6e74726f6c3a2063616e206f6e6c792072656e6f756e636520726f6c657320666f722073656c66a2646970667358221220c808848027697d1382590bf22f3446d930cb048f8ac621dd369e48b7bedce38964736f6c63430007030033",
  "linkReferences": {},
  "deployedLinkReferences": {}
}