{
  "_format": "hh-sol-artifact-1",
  "contractName": "LANDRegistry",
  "sourceName": "contracts/LANDRegistry.sol",
  "abi": [
    {
      "inputs": [],
      "stateMutability": "nonpayable",
      "type": "constructor"
    },
    {
      "anonymous": false,
      "inputs": [
        {
          "indexed": true,
          "internalType": "address",
          "name": "owner",
          "type": "address"
        },
        {
          "indexed": true,
          "internalType": "address",
          "name": "approved",
          "type": "address"
        },
        {
          "indexed": true,
          "internalType": "uint256",
          "name": "tokenId",
          "type": "uint256"
        }
      ],
      "name": "Approval",
      "type": "event"
    },
    {
      "anonymous": false,
      "inputs": [
        {
          "indexed": true,
          "internalType": "address",
          "name": "owner",
          "type": "address"
        },
        {
          "indexed": true,
          "internalType": "address",
          "name": "operator",
          "type": "address"
        },
        {
          "indexed": false,
          "internalType": "bool",
          "name": "approved",
          "type": "bool"
        }
      ],
      "name": "ApprovalForAll",
      "type": "event"
    },
    {
      "anonymous": false,
      "inputs": [
        {
          "indexed": true,
          "internalType": "bytes32",
          "name": "role",
          "type": "bytes32"
        },
        {
          "indexed": true,
          "internalType": "bytes32",
          "name": "previousAdminRole",
          "type": "bytes32"
        },
        {
          "indexed": true,
          "internalType": "bytes32",
          "name": "newAdminRole",
          "type": "bytes32"
        }
      ],
      "name": "RoleAdminChanged",
      "type": "event"
    },
    {
      "anonymous": false,
      "inputs": [
        {
          "indexed": true,
          "internalType": "bytes32",
          "name": "role",
          "type": "bytes32"
        },
        {
          "indexed": true,
          "internalType": "address",
          "name": "account",
          "type": "address"
        },
        {
          "indexed": true,
          "internalType": "address",
          "name": "sender",
          "type": "address"
        }
      ],
      "name": "RoleGranted",
      "type": "event"
    },
    {
      "anonymous": false,
      "inputs": [
        {
          "indexed": true,
          "internalType": "bytes32",
          "name": "role",
          "type": "bytes32"
        },
        {
          "indexed": true,
          "internalType": "address",
          "name": "account",
          "type": "address"
        },
        {
          "indexed": true,
          "internalType": "address",
          "name": "sender",
          "type": "address"
        }
      ],
      "name": "RoleRevoked",
      "type": "event"
    },
    {
      "anonymous": false,
      "inputs": [
        {
          "indexed": true,
          "internalType": "address",
          "name": "from",
          "type": "address"
        },
        {
          "indexed": true,
          "internalType": "address",
          "name": "to",
          "type": "address"
        },
        {
          "indexed": true,
          "internalType": "uint256",
          "name": "tokenId",
          "type": "uint256"
        }
      ],
      "name": "Transfer",
      "type": "event"
    },
    {
      "inputs": [],
      "name": "DEFAULT_ADMIN_ROLE",
      "outputs": [
        {
          "internalType": "bytes32",
          "name": "",
          "type": "bytes32"
        }
      ],
      "stateMutability": "view",
      "type": "function"
    },
    {
      "inputs": [],
      "name": "METAVERSE_ADMIN",
      "outputs": [
        {
          "internalType": "bytes32",
          "name": "",
          "type": "bytes32"
        }
      ],
      "stateMutability": "view",
      "type": "function"
    },
    {
      "inputs": [],
      "name": "UPDATE_ADMIN",
      "outputs": [
        {
          "internalType": "bytes32",
          "name": "",
          "type": "bytes32"
        }
      ],
      "stateMutability": "view",
      "type": "function"
    },
    {
      "inputs": [
        {
          "internalType": "address",
          "name": "to",
          "type": "address"
        },
        {
          "internalType": "uint256",
          "name": "tokenId",
          "type": "uint256"
        }
      ],
      "name": "approve",
      "outputs": [],
      "stateMutability": "nonpayable",
      "type": "function"
    },
    {
      "inputs": [
        {
          "internalType": "int256[]",
          "name": "x",
          "type": "int256[]"
        },
        {
          "internalType": "int256[]",
          "name": "y",
          "type": "int256[]"
        },
        {
          "internalType": "uint256",
          "name": "w",
          "type": "uint256"
        },
        {
          "internalType": "address",
          "name": "beneficiary",
          "type": "address"
        }
      ],
      "name": "assignMultipleParcels",
      "outputs": [],
      "stateMutability": "nonpayable",
      "type": "function"
    },
    {
      "inputs": [
        {
          "internalType": "int256",
          "name": "x",
          "type": "int256"
        },
        {
          "internalType": "int256",
          "name": "y",
          "type": "int256"
        },
        {
          "internalType": "uint256",
          "name": "w",
          "type": "uint256"
        },
        {
          "internalType": "address",
          "name": "beneficiary",
          "type": "address"
        }
      ],
      "name": "assignNewParcel",
      "outputs": [],
      "stateMutability": "nonpayable",
      "type": "function"
    },
    {
      "inputs": [
        {
          "internalType": "address",
          "name": "owner",
          "type": "address"
        }
      ],
      "name": "balanceOf",
      "outputs": [
        {
          "internalType": "uint256",
          "name": "",
          "type": "uint256"
        }
      ],
      "stateMutability": "view",
      "type": "function"
    },
    {
      "inputs": [],
      "name": "baseURI",
      "outputs": [
        {
          "internalType": "string",
          "name": "",
          "type": "string"
        }
      ],
      "stateMutability": "view",
      "type": "function"
    },
    {
      "inputs": [
        {
          "internalType": "uint256",
          "name": "id",
          "type": "uint256"
        }
      ],
      "name": "decodeTokenId",
      "outputs": [
        {
          "internalType": "int256",
          "name": "x",
          "type": "int256"
        },
        {
          "internalType": "int256",
          "name": "y",
          "type": "int256"
        },
        {
          "internalType": "uint256",
          "name": "w",
          "type": "uint256"
        }
      ],
      "stateMutability": "view",
      "type": "function"
    },
    {
      "inputs": [
        {
          "internalType": "int256",
          "name": "x",
          "type": "int256"
        },
        {
          "internalType": "int256",
          "name": "y",
          "type": "int256"
        },
        {
          "internalType": "uint256",
          "name": "w",
          "type": "uint256"
        }
      ],
      "name": "encodeTokenId",
      "outputs": [
        {
          "internalType": "uint256",
          "name": "encodedId",
          "type": "uint256"
        }
      ],
      "stateMutability": "view",
      "type": "function"
    },
    {
      "inputs": [
        {
          "internalType": "int256",
          "name": "x",
          "type": "int256"
        },
        {
          "internalType": "int256",
          "name": "y",
          "type": "int256"
        },
        {
          "internalType": "uint256",
          "name": "w",
          "type": "uint256"
        }
      ],
      "name": "exists",
      "outputs": [
        {
          "internalType": "bool",
          "name": "",
          "type": "bool"
        }
      ],
      "stateMutability": "view",
      "type": "function"
    },
    {
      "inputs": [
        {
          "internalType": "uint256",
          "name": "tokenId",
          "type": "uint256"
        }
      ],
      "name": "getApproved",
      "outputs": [
        {
          "internalType": "address",
          "name": "",
          "type": "address"
        }
      ],
      "stateMutability": "view",
      "type": "function"
    },
    {
      "inputs": [
        {
          "internalType": "bytes32",
          "name": "role",
          "type": "bytes32"
        }
      ],
      "name": "getRoleAdmin",
      "outputs": [
        {
          "internalType": "bytes32",
          "name": "",
          "type": "bytes32"
        }
      ],
      "stateMutability": "view",
      "type": "function"
    },
    {
      "inputs": [
        {
          "internalType": "bytes32",
          "name": "role",
          "type": "bytes32"
        },
        {
          "internalType": "uint256",
          "name": "index",
          "type": "uint256"
        }
      ],
      "name": "getRoleMember",
      "outputs": [
        {
          "internalType": "address",
          "name": "",
          "type": "address"
        }
      ],
      "stateMutability": "view",
      "type": "function"
    },
    {
      "inputs": [
        {
          "internalType": "bytes32",
          "name": "role",
          "type": "bytes32"
        }
      ],
      "name": "getRoleMemberCount",
      "outputs": [
        {
          "internalType": "uint256",
          "name": "",
          "type": "uint256"
        }
      ],
      "stateMutability": "view",
      "type": "function"
    },
    {
      "inputs": [
        {
          "internalType": "bytes32",
          "name": "role",
          "type": "bytes32"
        },
        {
          "internalType": "address",
          "name": "account",
          "type": "address"
        }
      ],
      "name": "grantRole",
      "outputs": [],
      "stateMutability": "nonpayable",
      "type": "function"
    },
    {
      "inputs": [
        {
          "internalType": "bytes32",
          "name": "role",
          "type": "bytes32"
        },
        {
          "internalType": "address",
          "name": "account",
          "type": "address"
        }
      ],
      "name": "hasRole",
      "outputs": [
        {
          "internalType": "bool",
          "name": "",
          "type": "bool"
        }
      ],
      "stateMutability": "view",
      "type": "function"
    },
    {
      "inputs": [
        {
          "internalType": "address",
          "name": "owner",
          "type": "address"
        },
        {
          "internalType": "address",
          "name": "operator",
          "type": "address"
        }
      ],
      "name": "isApprovedForAll",
      "outputs": [
        {
          "internalType": "bool",
          "name": "",
          "type": "bool"
        }
      ],
      "stateMutability": "view",
      "type": "function"
    },
    {
      "inputs": [
        {
          "internalType": "int256",
          "name": "x",
          "type": "int256"
        },
        {
          "internalType": "int256",
          "name": "y",
          "type": "int256"
        },
        {
          "internalType": "uint256",
          "name": "w",
          "type": "uint256"
        }
      ],
      "name": "landData",
      "outputs": [
        {
          "internalType": "string",
          "name": "",
          "type": "string"
        }
      ],
      "stateMutability": "view",
      "type": "function"
    },
    {
      "inputs": [
        {
          "internalType": "address",
          "name": "owner",
          "type": "address"
        },
        {
          "internalType": "uint256",
          "name": "w",
          "type": "uint256"
        }
      ],
      "name": "landOf",
      "outputs": [
        {
          "internalType": "int256[]",
          "name": "x",
          "type": "int256[]"
        },
        {
          "internalType": "int256[]",
          "name": "y",
          "type": "int256[]"
        }
      ],
      "stateMutability": "view",
      "type": "function"
    },
    {
      "inputs": [],
      "name": "name",
      "outputs": [
        {
          "internalType": "string",
          "name": "",
          "type": "string"
        }
      ],
      "stateMutability": "view",
      "type": "function"
    },
    {
      "inputs": [
        {
          "internalType": "uint256",
          "name": "tokenId",
          "type": "uint256"
        }
      ],
      "name": "ownerOf",
      "outputs": [
        {
          "internalType": "address",
          "name": "",
          "type": "address"
        }
      ],
      "stateMutability": "view",
      "type": "function"
    },
    {
      "inputs": [
        {
          "internalType": "int256",
          "name": "x",
          "type": "int256"
        },
        {
          "internalType": "int256",
          "name": "y",
          "type": "int256"
        },
        {
          "internalType": "uint256",
          "name": "w",
          "type": "uint256"
        }
      ],
      "name": "ownerOfLand",
      "outputs": [
        {
          "internalType": "address",
          "name": "",
          "type": "address"
        }
      ],
      "stateMutability": "view",
      "type": "function"
    },
    {
      "inputs": [
        {
          "internalType": "int256[]",
          "name": "x",
          "type": "int256[]"
        },
        {
          "internalType": "int256[]",
          "name": "y",
          "type": "int256[]"
        },
        {
          "internalType": "uint256",
          "name": "w",
          "type": "uint256"
        }
      ],
      "name": "ownerOfLandMany",
      "outputs": [
        {
          "internalType": "address[]",
          "name": "",
          "type": "address[]"
        }
      ],
      "stateMutability": "view",
      "type": "function"
    },
    {
      "inputs": [
        {
          "internalType": "bytes32",
          "name": "role",
          "type": "bytes32"
        },
        {
          "internalType": "address",
          "name": "account",
          "type": "address"
        }
      ],
      "name": "renounceRole",
      "outputs": [],
      "stateMutability": "nonpayable",
      "type": "function"
    },
    {
      "inputs": [
        {
          "internalType": "bytes32",
          "name": "role",
          "type": "bytes32"
        },
        {
          "internalType": "address",
          "name": "account",
          "type": "address"
        }
      ],
      "name": "revokeRole",
      "outputs": [],
      "stateMutability": "nonpayable",
      "type": "function"
    },
    {
      "inputs": [
        {
          "internalType": "address",
          "name": "from",
          "type": "address"
        },
        {
          "internalType": "address",
          "name": "to",
          "type": "address"
        },
        {
          "internalType": "uint256",
          "name": "tokenId",
          "type": "uint256"
        }
      ],
      "name": "safeTransferFrom",
      "outputs": [],
      "stateMutability": "nonpayable",
      "type": "function"
    },
    {
      "inputs": [
        {
          "internalType": "address",
          "name": "from",
          "type": "address"
        },
        {
          "internalType": "address",
          "name": "to",
          "type": "address"
        },
        {
          "internalType": "uint256",
          "name": "tokenId",
          "type": "uint256"
        },
        {
          "internalType": "bytes",
          "name": "_data",
          "type": "bytes"
        }
      ],
      "name": "safeTransferFrom",
      "outputs": [],
      "stateMutability": "nonpayable",
      "type": "function"
    },
    {
      "inputs": [
        {
          "internalType": "address",
          "name": "operator",
          "type": "address"
        },
        {
          "internalType": "bool",
          "name": "approved",
          "type": "bool"
        }
      ],
      "name": "setApprovalForAll",
      "outputs": [],
      "stateMutability": "nonpayable",
      "type": "function"
    },
    {
      "inputs": [
        {
          "internalType": "address",
          "name": "_owner",
          "type": "address"
        },
        {
          "internalType": "address",
          "name": "_operator",
          "type": "address"
        },
        {
          "internalType": "bool",
          "name": "_approved",
          "type": "bool"
        }
      ],
      "name": "setUpdateManager",
      "outputs": [],
      "stateMutability": "nonpayable",
      "type": "function"
    },
    {
      "inputs": [
        {
          "internalType": "bytes4",
          "name": "interfaceId",
          "type": "bytes4"
        }
      ],
      "name": "supportsInterface",
      "outputs": [
        {
          "internalType": "bool",
          "name": "",
          "type": "bool"
        }
      ],
      "stateMutability": "view",
      "type": "function"
    },
    {
      "inputs": [],
      "name": "symbol",
      "outputs": [
        {
          "internalType": "string",
          "name": "",
          "type": "string"
        }
      ],
      "stateMutability": "view",
      "type": "function"
    },
    {
      "inputs": [
        {
          "internalType": "uint256",
          "name": "index",
          "type": "uint256"
        }
      ],
      "name": "tokenByIndex",
      "outputs": [
        {
          "internalType": "uint256",
          "name": "",
          "type": "uint256"
        }
      ],
      "stateMutability": "view",
      "type": "function"
    },
    {
      "inputs": [
        {
          "internalType": "address",
          "name": "owner",
          "type": "address"
        },
        {
          "internalType": "uint256",
          "name": "index",
          "type": "uint256"
        }
      ],
      "name": "tokenOfOwnerByIndex",
      "outputs": [
        {
          "internalType": "uint256",
          "name": "",
          "type": "uint256"
        }
      ],
      "stateMutability": "view",
      "type": "function"
    },
    {
      "inputs": [
        {
          "internalType": "uint256",
          "name": "tokenId",
          "type": "uint256"
        }
      ],
      "name": "tokenURI",
      "outputs": [
        {
          "internalType": "string",
          "name": "",
          "type": "string"
        }
      ],
      "stateMutability": "view",
      "type": "function"
    },
    {
      "inputs": [],
      "name": "totalSupply",
      "outputs": [
        {
          "internalType": "uint256",
          "name": "",
          "type": "uint256"
        }
      ],
      "stateMutability": "view",
      "type": "function"
    },
    {
      "inputs": [
        {
          "internalType": "address",
          "name": "from",
          "type": "address"
        },
        {
          "internalType": "address",
          "name": "to",
          "type": "address"
        },
        {
          "internalType": "uint256",
          "name": "tokenId",
          "type": "uint256"
        }
      ],
      "name": "transferFrom",
      "outputs": [],
      "stateMutability": "nonpayable",
      "type": "function"
    },
    {
      "inputs": [
        {
          "internalType": "int256",
          "name": "x",
          "type": "int256"
        },
        {
          "internalType": "int256",
          "name": "y",
          "type": "int256"
        },
        {
          "internalType": "uint256",
          "name": "w",
          "type": "uint256"
        },
        {
          "internalType": "address",
          "name": "to",
          "type": "address"
        }
      ],
      "name": "transferLand",
      "outputs": [],
      "stateMutability": "nonpayable",
      "type": "function"
    },
    {
      "inputs": [
        {
          "internalType": "int256[]",
          "name": "x",
          "type": "int256[]"
        },
        {
          "internalType": "int256[]",
          "name": "y",
          "type": "int256[]"
        },
        {
          "internalType": "uint256[]",
          "name": "w",
          "type": "uint256[]"
        },
        {
          "internalType": "address",
          "name": "to",
          "type": "address"
        }
      ],
      "name": "transferManyLand",
      "outputs": [],
      "stateMutability": "nonpayable",
      "type": "function"
    },
    {
      "inputs": [
        {
          "internalType": "int256",
          "name": "x",
          "type": "int256"
        },
        {
          "internalType": "int256",
          "name": "y",
          "type": "int256"
        },
        {
          "internalType": "uint256",
          "name": "w",
          "type": "uint256"
        },
        {
          "internalType": "string",
          "name": "data",
          "type": "string"
        }
      ],
      "name": "updateLandData",
      "outputs": [],
      "stateMutability": "nonpayable",
      "type": "function"
    },
    {
      "inputs": [
        {
          "internalType": "int256[]",
          "name": "x",
          "type": "int256[]"
        },
        {
          "internalType": "int256[]",
          "name": "y",
          "type": "int256[]"
        },
        {
          "internalType": "uint256",
          "name": "w",
          "type": "uint256"
        },
        {
          "internalType": "string",
          "name": "data",
          "type": "string"
        }
      ],
      "name": "updateManyLandData",
      "outputs": [],
      "stateMutability": "nonpayable",
      "type": "function"
    }
  ],
  "bytecode": "0x60806040523480156200001157600080fd5b506040518060400160405280600481526020017f4c414e44000000000000000000000000000000000000000000000000000000008152506040518060400160405280600281526020017f4c44000000000000000000000000000000000000000000000000000000000000815250620000966301ffc9a760e01b620001f360201b60201c565b8160069080519060200190620000ae929190620004f7565b508060079080519060200190620000c7929190620004f7565b50620000e06380ac58cd60e01b620001f360201b60201c565b620000f8635b5e139f60e01b620001f360201b60201c565b6200011063780e9d6360e01b620001f360201b60201c565b5050620001366000801b6200012a620002fc60201b60201c565b6200030460201b60201c565b620001777fd01a726e3c29a8c3f1e11dc604364fc90e918d0d6a4c81583749a60ca06abd166200016b620002fc60201b60201c565b6200030460201b60201c565b620001b87fd01a726e3c29a8c3f1e11dc604364fc90e918d0d6a4c81583749a60ca06abd16620001ac620002fc60201b60201c565b6200030460201b60201c565b620001ed6000801b7fd01a726e3c29a8c3f1e11dc604364fc90e918d0d6a4c81583749a60ca06abd166200031a60201b60201c565b6200059d565b63ffffffff60e01b817bffffffffffffffffffffffffffffffffffffffffffffffffffffffff1916141562000290576040517f08c379a000000000000000000000000000000000000000000000000000000000815260040180806020018281038252601c8152602001807f4552433136353a20696e76616c696420696e746572666163652069640000000081525060200191505060405180910390fd5b6001600080837bffffffffffffffffffffffffffffffffffffffffffffffffffffffff19167bffffffffffffffffffffffffffffffffffffffffffffffffffffffff1916815260200190815260200160002060006101000a81548160ff02191690831515021790555050565b600033905090565b6200031682826200037e60201b60201c565b5050565b80600a600084815260200190815260200160002060020154837fbd79b86ffe0ab8e8776151514217cd7cacd52c909f66475c3af44e129f0b00ff60405160405180910390a480600a6000848152602001908152602001600020600201819055505050565b620003ad81600a60008581526020019081526020016000206000016200042260201b62002d501790919060201c565b156200041e57620003c3620002fc60201b60201c565b73ffffffffffffffffffffffffffffffffffffffff168173ffffffffffffffffffffffffffffffffffffffff16837f2f8788117e7eff1d82e926ec794901d17c78024a50270940304540a733656f0d60405160405180910390a45b5050565b600062000452836000018373ffffffffffffffffffffffffffffffffffffffff1660001b6200045a60201b60201c565b905092915050565b60006200046e8383620004d460201b60201c565b620004c9578260000182908060018154018082558091505060019003906000526020600020016000909190919091505582600001805490508360010160008481526020019081526020016000208190555060019050620004ce565b600090505b92915050565b600080836001016000848152602001908152602001600020541415905092915050565b828054600181600116156101000203166002900490600052602060002090601f016020900481019282601f106200053a57805160ff19168380011785556200056b565b828001600101855582156200056b579182015b828111156200056a5782518255916020019190600101906200054d565b5b5090506200057a91906200057e565b5090565b5b80821115620005995760008160009055506001016200057f565b5090565b6146f580620005ad6000396000f3fe608060405234801561001057600080fd5b50600436106102535760003560e01c806370a0823111610146578063b88d4fde116100c3578063d61ae1e611610087578063d61ae1e614611248578063e4d22f4614611340578063e985e9c5146113fb578063ef1db76214611475578063f36e38b8146114e5578063ff490d5e146115d057610253565b8063b88d4fde14610ec9578063c87b56dd14610fce578063ca15c87314611075578063ce8fe85c146110b7578063d547741f146111fa57610253565b806391d148541161010a57806391d1485414610d1257806395d89b4114610d76578063a217fddf14610df9578063a22cb46514610e17578063b815035214610e6757610253565b806370a0823114610a6f57806370fa844d14610ac75780637efd911214610bf4578063875cdcfe14610c445780639010d07c14610cb057610253565b806336568abe116101d45780635ef25e69116101985780635ef25e691461080d5780636352211e146108e6578063692805bc1461093e5780636c0360eb146109965780636f8fac0b14610a1957610253565b806336568abe1461068f5780633f65363d146106dd57806342842e0e1461073f5780634f6ccce7146107ad578063512df161146107ef57610253565b806318160ddd1161021b57806318160ddd1461051157806323b872dd1461052f578063248a9ca31461059d5780632f2ff15d146105df5780632f745c591461062d57610253565b806301ffc9a71461025857806306fdde03146102bb578063081812fc1461033e578063095ea7b3146103965780630d13f258146103e4575b600080fd5b6102a36004803603602081101561026e57600080fd5b8101908080357bffffffffffffffffffffffffffffffffffffffffffffffffffffffff191690602001909291905050506115ee565b60405180821515815260200191505060405180910390f35b6102c3611655565b6040518080602001828103825283818151815260200191508051906020019080838360005b838110156103035780820151818401526020810190506102e8565b50505050905090810190601f1680156103305780820380516001836020036101000a031916815260200191505b509250505060405180910390f35b61036a6004803603602081101561035457600080fd5b81019080803590602001909291905050506116f7565b604051808273ffffffffffffffffffffffffffffffffffffffff16815260200191505060405180910390f35b6103e2600480360360408110156103ac57600080fd5b81019080803573ffffffffffffffffffffffffffffffffffffffff16906020019092919080359060200190929190505050611792565b005b6104ba600480360360608110156103fa57600080fd5b810190808035906020019064010000000081111561041757600080fd5b82018360208201111561042957600080fd5b8035906020019184602083028401116401000000008311171561044b57600080fd5b90919293919293908035906020019064010000000081111561046c57600080fd5b82018360208201111561047e57600080fd5b803590602001918460208302840111640100000000831117156104a057600080fd5b9091929391929390803590602001909291905050506118d6565b6040518080602001828103825283818151815260200191508051906020019060200280838360005b838110156104fd5780820151818401526020810190506104e2565b505050509050019250505060405180910390f35b6105196119d6565b6040518082815260200191505060405180910390f35b61059b6004803603606081101561054557600080fd5b81019080803573ffffffffffffffffffffffffffffffffffffffff169060200190929190803573ffffffffffffffffffffffffffffffffffffffff169060200190929190803590602001909291905050506119e7565b005b6105c9600480360360208110156105b357600080fd5b8101908080359060200190929190505050611a5d565b6040518082815260200191505060405180910390f35b61062b600480360360408110156105f557600080fd5b8101908080359060200190929190803573ffffffffffffffffffffffffffffffffffffffff169060200190929190505050611a7d565b005b6106796004803603604081101561064357600080fd5b81019080803573ffffffffffffffffffffffffffffffffffffffff16906020019092919080359060200190929190505050611b07565b6040518082815260200191505060405180910390f35b6106db600480360360408110156106a557600080fd5b8101908080359060200190929190803573ffffffffffffffffffffffffffffffffffffffff169060200190929190505050611b62565b005b61073d600480360360808110156106f357600080fd5b81019080803590602001909291908035906020019092919080359060200190929190803573ffffffffffffffffffffffffffffffffffffffff169060200190929190505050611bfb565b005b6107ab6004803603606081101561075557600080fd5b81019080803573ffffffffffffffffffffffffffffffffffffffff169060200190929190803573ffffffffffffffffffffffffffffffffffffffff16906020019092919080359060200190929190505050611c1c565b005b6107d9600480360360208110156107c357600080fd5b8101908080359060200190929190505050611c3c565b6040518082815260200191505060405180910390f35b6107f7611c5f565b6040518082815260200191505060405180910390f35b6108e46004803603608081101561082357600080fd5b810190808035906020019092919080359060200190929190803590602001909291908035906020019064010000000081111561085e57600080fd5b82018360208201111561087057600080fd5b8035906020019184600183028401116401000000008311171561089257600080fd5b91908080601f016020809104026020016040519081016040528093929190818152602001838380828437600081840152601f19601f820116905080830192505050505050509192919290505050611c83565b005b610912600480360360208110156108fc57600080fd5b8101908080359060200190929190505050611d5c565b604051808273ffffffffffffffffffffffffffffffffffffffff16815260200191505060405180910390f35b61097e6004803603606081101561095457600080fd5b81019080803590602001909291908035906020019092919080359060200190929190505050611d93565b60405180821515815260200191505060405180910390f35b61099e611db1565b6040518080602001828103825283818151815260200191508051906020019080838360005b838110156109de5780820151818401526020810190506109c3565b50505050905090810190601f168015610a0b5780820380516001836020036101000a031916815260200191505b509250505060405180910390f35b610a5960048036036060811015610a2f57600080fd5b81019080803590602001909291908035906020019092919080359060200190929190505050611e53565b6040518082815260200191505060405180910390f35b610ab160048036036020811015610a8557600080fd5b81019080803573ffffffffffffffffffffffffffffffffffffffff169060200190929190505050611fd5565b6040518082815260200191505060405180910390f35b610bf260048036036080811015610add57600080fd5b8101908080359060200190640100000000811115610afa57600080fd5b820183602082011115610b0c57600080fd5b80359060200191846020830284011164010000000083111715610b2e57600080fd5b909192939192939080359060200190640100000000811115610b4f57600080fd5b820183602082011115610b6157600080fd5b80359060200191846020830284011164010000000083111715610b8357600080fd5b90919293919293908035906020019092919080359060200190640100000000811115610bae57600080fd5b820183602082011115610bc057600080fd5b80359060200191846001830284011164010000000083111715610be257600080fd5b90919293919293905050506120aa565b005b610c2060048036036020811015610c0a57600080fd5b81019080803590602001909291905050506121a1565b60405180848152602001838152602001828152602001935050505060405180910390f35b610c8460048036036060811015610c5a57600080fd5b810190808035906020019092919080359060200190929190803590602001909291905050506122d5565b604051808273ffffffffffffffffffffffffffffffffffffffff16815260200191505060405180910390f35b610ce660048036036040811015610cc657600080fd5b8101908080359060200190929190803590602001909291905050506122f3565b604051808273ffffffffffffffffffffffffffffffffffffffff16815260200191505060405180910390f35b610d5e60048036036040811015610d2857600080fd5b8101908080359060200190929190803573ffffffffffffffffffffffffffffffffffffffff169060200190929190505050612325565b60405180821515815260200191505060405180910390f35b610d7e612357565b6040518080602001828103825283818151815260200191508051906020019080838360005b83811015610dbe578082015181840152602081019050610da3565b50505050905090810190601f168015610deb5780820380516001836020036101000a031916815260200191505b509250505060405180910390f35b610e016123f9565b6040518082815260200191505060405180910390f35b610e6560048036036040811015610e2d57600080fd5b81019080803573ffffffffffffffffffffffffffffffffffffffff169060200190929190803515159060200190929190505050612400565b005b610ec760048036036080811015610e7d57600080fd5b81019080803590602001909291908035906020019092919080359060200190929190803573ffffffffffffffffffffffffffffffffffffffff1690602001909291905050506125b6565b005b610fcc60048036036080811015610edf57600080fd5b81019080803573ffffffffffffffffffffffffffffffffffffffff169060200190929190803573ffffffffffffffffffffffffffffffffffffffff1690602001909291908035906020019092919080359060200190640100000000811115610f4657600080fd5b820183602082011115610f5857600080fd5b80359060200191846001830284011164010000000083111715610f7a57600080fd5b91908080601f016020809104026020016040519081016040528093929190818152602001838380828437600081840152601f19601f8201169050808301925050505050505091929192905050506125f7565b005b610ffa60048036036020811015610fe457600080fd5b810190808035906020019092919050505061266f565b6040518080602001828103825283818151815260200191508051906020019080838360005b8381101561103a57808201518184015260208101905061101f565b50505050905090810190601f1680156110675780820380516001836020036101000a031916815260200191505b509250505060405180910390f35b6110a16004803603602081101561108b57600080fd5b8101908080359060200190929190505050612958565b6040518082815260200191505060405180910390f35b6111f8600480360360808110156110cd57600080fd5b81019080803590602001906401000000008111156110ea57600080fd5b8201836020820111156110fc57600080fd5b8035906020019184602083028401116401000000008311171561111e57600080fd5b90919293919293908035906020019064010000000081111561113f57600080fd5b82018360208201111561115157600080fd5b8035906020019184602083028401116401000000008311171561117357600080fd5b90919293919293908035906020019064010000000081111561119457600080fd5b8201836020820111156111a657600080fd5b803590602001918460208302840111640100000000831117156111c857600080fd5b9091929391929390803573ffffffffffffffffffffffffffffffffffffffff16906020019092919050505061297f565b005b6112466004803603604081101561121057600080fd5b8101908080359060200190929190803573ffffffffffffffffffffffffffffffffffffffff169060200190929190505050612a44565b005b61133e6004803603608081101561125e57600080fd5b810190808035906020019064010000000081111561127b57600080fd5b82018360208201111561128d57600080fd5b803590602001918460208302840111640100000000831117156112af57600080fd5b9091929391929390803590602001906401000000008111156112d057600080fd5b8201836020820111156112e257600080fd5b8035906020019184602083028401116401000000008311171561130457600080fd5b909192939192939080359060200190929190803573ffffffffffffffffffffffffffffffffffffffff169060200190929190505050612ace565b005b6113806004803603606081101561135657600080fd5b81019080803590602001909291908035906020019092919080359060200190929190505050612b80565b6040518080602001828103825283818151815260200191508051906020019080838360005b838110156113c05780820151818401526020810190506113a5565b50505050905090810190601f1680156113ed5780820380516001836020036101000a031916815260200191505b509250505060405180910390f35b61145d6004803603604081101561141157600080fd5b81019080803573ffffffffffffffffffffffffffffffffffffffff169060200190929190803573ffffffffffffffffffffffffffffffffffffffff169060200190929190505050612ba4565b60405180821515815260200191505060405180910390f35b6114e36004803603606081101561148b57600080fd5b81019080803573ffffffffffffffffffffffffffffffffffffffff169060200190929190803573ffffffffffffffffffffffffffffffffffffffff169060200190929190803515159060200190929190505050612c38565b005b611531600480360360408110156114fb57600080fd5b81019080803573ffffffffffffffffffffffffffffffffffffffff16906020019092919080359060200190929190505050612ca3565b604051808060200180602001838103835285818151815260200191508051906020019060200280838360005b8381101561157857808201518184015260208101905061155d565b50505050905001838103825284818151815260200191508051906020019060200280838360005b838110156115ba57808201518184015260208101905061159f565b5050505090500194505050505060405180910390f35b6115d8612d2c565b6040518082815260200191505060405180910390f35b6000806000837bffffffffffffffffffffffffffffffffffffffffffffffffffffffff19167bffffffffffffffffffffffffffffffffffffffffffffffffffffffff1916815260200190815260200160002060009054906101000a900460ff169050919050565b606060068054600181600116156101000203166002900480601f0160208091040260200160405190810160405280929190818152602001828054600181600116156101000203166002900480156116ed5780601f106116c2576101008083540402835291602001916116ed565b820191906000526020600020905b8154815290600101906020018083116116d057829003601f168201915b5050505050905090565b600061170282612d80565b611757576040517f08c379a000000000000000000000000000000000000000000000000000000000815260040180806020018281038252602c815260200180614545602c913960400191505060405180910390fd5b6004600083815260200190815260200160002060009054906101000a900473ffffffffffffffffffffffffffffffffffffffff169050919050565b600061179d82611d5c565b90508073ffffffffffffffffffffffffffffffffffffffff168373ffffffffffffffffffffffffffffffffffffffff161415611824576040517f08c379a00000000000000000000000000000000000000000000000000000000081526004018080602001828103825260218152602001806146186021913960400191505060405180910390fd5b8073ffffffffffffffffffffffffffffffffffffffff16611843612d9d565b73ffffffffffffffffffffffffffffffffffffffff16148061187257506118718161186c612d9d565b612ba4565b5b6118c7576040517f08c379a00000000000000000000000000000000000000000000000000000000081526004018080602001828103825260388152602001806144986038913960400191505060405180910390fd5b6118d18383612da5565b505050565b6060838390508686905014611936576040517f08c379a000000000000000000000000000000000000000000000000000000000815260040180806020018281038252602381526020018061459d6023913960400191505060405180910390fd5b606060005b878790508110156119c85761197588888381811061195557fe5b9050602002013587878481811061196857fe5b90506020020135866122d5565b82828151811061198157fe5b602002602001019073ffffffffffffffffffffffffffffffffffffffff16908173ffffffffffffffffffffffffffffffffffffffff1681525050808060010191505061193b565b508091505095945050505050565b60006119e26002612e5e565b905090565b6119f86119f2612d9d565b82612e73565b611a4d576040517f08c379a00000000000000000000000000000000000000000000000000000000081526004018080602001828103825260318152602001806146396031913960400191505060405180910390fd5b611a58838383612f67565b505050565b6000600a6000838152602001908152602001600020600201549050919050565b611aa4600a600084815260200190815260200160002060020154611a9f612d9d565b612325565b611af9576040517f08c379a000000000000000000000000000000000000000000000000000000000815260040180806020018281038252602f815260200180614391602f913960400191505060405180910390fd5b611b0382826131aa565b5050565b6000611b5a82600160008673ffffffffffffffffffffffffffffffffffffffff1673ffffffffffffffffffffffffffffffffffffffff16815260200190815260200160002061323e90919063ffffffff16565b905092915050565b611b6a612d9d565b73ffffffffffffffffffffffffffffffffffffffff168173ffffffffffffffffffffffffffffffffffffffff1614611bed576040517f08c379a000000000000000000000000000000000000000000000000000000000815260040180806020018281038252602f815260200180614691602f913960400191505060405180910390fd5b611bf78282613258565b5050565b6000611c08858585611e53565b9050611c153383836119e7565b5050505050565b611c37838383604051806020016040528060008152506125f7565b505050565b600080611c538360026132ec90919063ffffffff16565b50905080915050919050565b7fd01a726e3c29a8c3f1e11dc604364fc90e918d0d6a4c81583749a60ca06abd1681565b33611cae7fd01a726e3c29a8c3f1e11dc604364fc90e918d0d6a4c81583749a60ca06abd1682612325565b611cb757600080fd5b60011515611cc6868686611d93565b151514611d3b576040517f08c379a000000000000000000000000000000000000000000000000000000000815260040180806020018281038252600f8152602001807f6c616e64206d757374206578697374000000000000000000000000000000000081525060200191505060405180910390fd5b6000611d48868686611e53565b9050611d548184613318565b505050505050565b6000611d8c826040518060600160405280602981526020016144fa6029913960026133a29092919063ffffffff16565b9050919050565b6000611da8611da3858585611e53565b612d80565b90509392505050565b606060098054600181600116156101000203166002900480601f016020809104026020016040519081016040528092919081815260200182805460018160011615610100020316600290048015611e495780601f10611e1e57610100808354040283529160200191611e49565b820191906000526020600020905b815481529060010190602001808311611e2c57829003601f168201915b5050505050905090565b60007ffffffffffffffffffffffffffffffffffffffffffffffffffffffffffffffc188412158015611ea557507ffffffffffffffffffffffffffffffffffffffffffffffffffffffffffffffc188312155b611f17576040517f08c379a00000000000000000000000000000000000000000000000000000000081526004018080602001828103825260198152602001807f696e76616c696420636f6f7264696e6174652076616c7565730000000000000081525060200191505060405180910390fd5b60006103e88501905060006103e885019050620f424084108015611f3c57506107d086125b8015611f4957506107d085125b611fbb576040517f08c379a00000000000000000000000000000000000000000000000000000000081526004018080602001828103825260198152602001807f696e76616c696420636f6f7264696e6174652076616c7565730000000000000081525060200191505060405180910390fd5b8061271083026305f5e10086020101925050509392505050565b60008073ffffffffffffffffffffffffffffffffffffffff168273ffffffffffffffffffffffffffffffffffffffff16141561205c576040517f08c379a000000000000000000000000000000000000000000000000000000000815260040180806020018281038252602a8152602001806144d0602a913960400191505060405180910390fd5b6120a3600160008473ffffffffffffffffffffffffffffffffffffffff1673ffffffffffffffffffffffffffffffffffffffff1681526020019081526020016000206133c1565b9050919050565b848490508787905014612108576040517f08c379a000000000000000000000000000000000000000000000000000000000815260040180806020018281038252602381526020018061459d6023913960400191505060405180910390fd5b60005b878790508110156121975761218a88888381811061212557fe5b9050602002013587878481811061213857fe5b905060200201358686868080601f016020809104026020016040519081016040528093929190818152602001838380828437600081840152601f19601f82011690508083019250505050505050611c83565b808060010191505061210b565b5050505050505050565b60008060006305f5e10084816121b357fe5b0490506121bf816133d6565b60006305f5e10085816121ce57fe5b0690506121da816133d6565b6103e861271082816121e857fe5b040393506103e861271082816121fa57fe5b06039250620f4240821080156122305750837ffffffffffffffffffffffffffffffffffffffffffffffffffffffffffffffc1813155b801561223e57506103e88413155b801561226a5750827ffffffffffffffffffffffffffffffffffffffffffffffffffffffffffffffc1813155b801561227857506103e88313155b6122cd576040517f08c379a000000000000000000000000000000000000000000000000000000000815260040180806020018281038252602781526020018061466a6027913960400191505060405180910390fd5b509193909250565b60006122ea6122e5858585611e53565b611d5c565b90509392505050565b600061231d82600a600086815260200190815260200160002060000161346f90919063ffffffff16565b905092915050565b600061234f82600a600086815260200190815260200160002060000161348990919063ffffffff16565b905092915050565b606060078054600181600116156101000203166002900480601f0160208091040260200160405190810160405280929190818152602001828054600181600116156101000203166002900480156123ef5780601f106123c4576101008083540402835291602001916123ef565b820191906000526020600020905b8154815290600101906020018083116123d257829003601f168201915b5050505050905090565b6000801b81565b612408612d9d565b73ffffffffffffffffffffffffffffffffffffffff168273ffffffffffffffffffffffffffffffffffffffff1614156124a9576040517f08c379a00000000000000000000000000000000000000000000000000000000081526004018080602001828103825260198152602001807f4552433732313a20617070726f766520746f2063616c6c65720000000000000081525060200191505060405180910390fd5b80600560006124b6612d9d565b73ffffffffffffffffffffffffffffffffffffffff1673ffffffffffffffffffffffffffffffffffffffff16815260200190815260200160002060008473ffffffffffffffffffffffffffffffffffffffff1673ffffffffffffffffffffffffffffffffffffffff16815260200190815260200160002060006101000a81548160ff0219169083151502179055508173ffffffffffffffffffffffffffffffffffffffff16612563612d9d565b73ffffffffffffffffffffffffffffffffffffffff167f17307eab39ab6107e8899845ad3d59bd9653f200f220920489ca2b5937696c318360405180821515815260200191505060405180910390a35050565b838383600015156125c8848484611d93565b1515146125d457600080fd5b60006125e1888888611e53565b90506125ed85826134b9565b5050505050505050565b612608612602612d9d565b83612e73565b61265d576040517f08c379a00000000000000000000000000000000000000000000000000000000081526004018080602001828103825260318152602001806146396031913960400191505060405180910390fd5b612669848484846136ad565b50505050565b606061267a82612d80565b6126cf576040517f08c379a000000000000000000000000000000000000000000000000000000000815260040180806020018281038252602f8152602001806145e9602f913960400191505060405180910390fd5b6060600860008481526020019081526020016000208054600181600116156101000203166002900480601f0160208091040260200160405190810160405280929190818152602001828054600181600116156101000203166002900480156127785780601f1061274d57610100808354040283529160200191612778565b820191906000526020600020905b81548152906001019060200180831161275b57829003601f168201915b505050505090506000600980546001816001161561010002031660029004905014156127a75780915050612953565b6000815111156128805760098160405160200180838054600181600116156101000203166002900480156128125780601f106127f0576101008083540402835291820191612812565b820191906000526020600020905b8154815290600101906020018083116127fe575b505082805190602001908083835b602083106128435780518252602082019150602081019050602083039250612820565b6001836020036101000a03801982511681845116808217855250505050505090500192505050604051602081830303815290604052915050612953565b600961288b8461371f565b60405160200180838054600181600116156101000203166002900480156128e95780601f106128c75761010080835404028352918201916128e9565b820191906000526020600020905b8154815290600101906020018083116128d5575b505082805190602001908083835b6020831061291a57805182526020820191506020810190506020830392506128f7565b6001836020036101000a038019825116818451168082178552505050505050905001925050506040516020818303038152906040529150505b919050565b6000612978600a6000848152602001908152602001600020600001613866565b9050919050565b8484905087879050146129dd576040517f08c379a000000000000000000000000000000000000000000000000000000000815260040180806020018281038252602381526020018061459d6023913960400191505060405180910390fd5b60005b87879050811015612a3a57612a2d8888838181106129fa57fe5b90506020020135878784818110612a0d57fe5b90506020020135868685818110612a2057fe5b9050602002013585611bfb565b80806001019150506129e0565b5050505050505050565b612a6b600a600084815260200190815260200160002060020154612a66612d9d565b612325565b612ac0576040517f08c379a00000000000000000000000000000000000000000000000000000000081526004018080602001828103825260308152602001806144686030913960400191505060405180910390fd5b612aca8282613258565b5050565b838390508686905014612b2c576040517f08c379a000000000000000000000000000000000000000000000000000000000815260040180806020018281038252602381526020018061459d6023913960400191505060405180910390fd5b60005b86869050811015612b7757612b6a878783818110612b4957fe5b90506020020135868684818110612b5c57fe5b9050602002013585856125b6565b8080600101915050612b2f565b50505050505050565b60606000612b8f858585611e53565b9050612b9a8161266f565b9150509392505050565b6000600560008473ffffffffffffffffffffffffffffffffffffffff1673ffffffffffffffffffffffffffffffffffffffff16815260200190815260200160002060008373ffffffffffffffffffffffffffffffffffffffff1673ffffffffffffffffffffffffffffffffffffffff16815260200190815260200160002060009054906101000a900460ff16905092915050565b33612c637fd01a726e3c29a8c3f1e11dc604364fc90e918d0d6a4c81583749a60ca06abd1682612325565b612c6c57600080fd5b612c9d7fd01a726e3c29a8c3f1e11dc604364fc90e918d0d6a4c81583749a60ca06abd16612c98612d9d565b61387b565b50505050565b6060806000612cb185611fd5565b905060005b81811015612d23576000612cca8783611b07565b90506000806000612cda846121a1565b92509250925082888681518110612ced57fe5b60200260200101818152505081878681518110612d0657fe5b602002602001018181525050505050508080600101915050612cb6565b50509250929050565b7fd01a726e3c29a8c3f1e11dc604364fc90e918d0d6a4c81583749a60ca06abd1681565b6000612d78836000018373ffffffffffffffffffffffffffffffffffffffff1660001b613889565b905092915050565b6000612d968260026138f990919063ffffffff16565b9050919050565b600033905090565b816004600083815260200190815260200160002060006101000a81548173ffffffffffffffffffffffffffffffffffffffff021916908373ffffffffffffffffffffffffffffffffffffffff160217905550808273ffffffffffffffffffffffffffffffffffffffff16612e1883611d5c565b73ffffffffffffffffffffffffffffffffffffffff167f8c5be1e5ebec7d5bd14f71427d1e84f3dd0314c0f7b2291e5b200ac8c7c3b92560405160405180910390a45050565b6000612e6c82600001613913565b9050919050565b6000612e7e82612d80565b612ed3576040517f08c379a000000000000000000000000000000000000000000000000000000000815260040180806020018281038252602c81526020018061443c602c913960400191505060405180910390fd5b6000612ede83611d5c565b90508073ffffffffffffffffffffffffffffffffffffffff168473ffffffffffffffffffffffffffffffffffffffff161480612f4d57508373ffffffffffffffffffffffffffffffffffffffff16612f35846116f7565b73ffffffffffffffffffffffffffffffffffffffff16145b80612f5e5750612f5d8185612ba4565b5b91505092915050565b8273ffffffffffffffffffffffffffffffffffffffff16612f8782611d5c565b73ffffffffffffffffffffffffffffffffffffffff1614612ff3576040517f08c379a00000000000000000000000000000000000000000000000000000000081526004018080602001828103825260298152602001806145c06029913960400191505060405180910390fd5b600073ffffffffffffffffffffffffffffffffffffffff168273ffffffffffffffffffffffffffffffffffffffff161415613079576040517f08c379a00000000000000000000000000000000000000000000000000000000081526004018080602001828103825260248152602001806143f26024913960400191505060405180910390fd5b613084838383613924565b61308f600082612da5565b6130e081600160008673ffffffffffffffffffffffffffffffffffffffff1673ffffffffffffffffffffffffffffffffffffffff16815260200190815260200160002061392990919063ffffffff16565b5061313281600160008573ffffffffffffffffffffffffffffffffffffffff1673ffffffffffffffffffffffffffffffffffffffff16815260200190815260200160002061394390919063ffffffff16565b506131498183600261395d9092919063ffffffff16565b50808273ffffffffffffffffffffffffffffffffffffffff168473ffffffffffffffffffffffffffffffffffffffff167fddf252ad1be2c89b69c2b068fc378daa952ba7f163c4a11628f55a4df523b3ef60405160405180910390a4505050565b6131d281600a6000858152602001908152602001600020600001612d5090919063ffffffff16565b1561323a576131df612d9d565b73ffffffffffffffffffffffffffffffffffffffff168173ffffffffffffffffffffffffffffffffffffffff16837f2f8788117e7eff1d82e926ec794901d17c78024a50270940304540a733656f0d60405160405180910390a45b5050565b600061324d8360000183613992565b60001c905092915050565b61328081600a6000858152602001908152602001600020600001613a1590919063ffffffff16565b156132e85761328d612d9d565b73ffffffffffffffffffffffffffffffffffffffff168173ffffffffffffffffffffffffffffffffffffffff16837ff6391f5c32d9c69d2a47ea670b442974b53935d1edc7fd64eb21e047a839171b60405160405180910390a45b5050565b6000806000806132ff8660000186613a45565b915091508160001c8160001c9350935050509250929050565b61332182612d80565b613376576040517f08c379a000000000000000000000000000000000000000000000000000000000815260040180806020018281038252602c815260200180614571602c913960400191505060405180910390fd5b8060086000848152602001908152602001600020908051906020019061339d9291906142d1565b505050565b60006133b5846000018460001b84613ade565b60001c90509392505050565b60006133cf82600001613bd4565b9050919050565b61346c81604051602401808281526020019150506040516020818303038152906040527ff5b1bba9000000000000000000000000000000000000000000000000000000007bffffffffffffffffffffffffffffffffffffffffffffffffffffffff19166020820180517bffffffffffffffffffffffffffffffffffffffffffffffffffffffff8381831617835250505050613be5565b50565b600061347e8360000183613992565b60001c905092915050565b60006134b1836000018373ffffffffffffffffffffffffffffffffffffffff1660001b613c0e565b905092915050565b600073ffffffffffffffffffffffffffffffffffffffff168273ffffffffffffffffffffffffffffffffffffffff16141561355c576040517f08c379a00000000000000000000000000000000000000000000000000000000081526004018080602001828103825260208152602001807f4552433732313a206d696e7420746f20746865207a65726f206164647265737381525060200191505060405180910390fd5b61356581612d80565b156135d8576040517f08c379a000000000000000000000000000000000000000000000000000000000815260040180806020018281038252601c8152602001807f4552433732313a20746f6b656e20616c7265616479206d696e7465640000000081525060200191505060405180910390fd5b6135e460008383613924565b61363581600160008573ffffffffffffffffffffffffffffffffffffffff1673ffffffffffffffffffffffffffffffffffffffff16815260200190815260200160002061394390919063ffffffff16565b5061364c8183600261395d9092919063ffffffff16565b50808273ffffffffffffffffffffffffffffffffffffffff16600073ffffffffffffffffffffffffffffffffffffffff167fddf252ad1be2c89b69c2b068fc378daa952ba7f163c4a11628f55a4df523b3ef60405160405180910390a45050565b6136b8848484612f67565b6136c484848484613c31565b613719576040517f08c379a00000000000000000000000000000000000000000000000000000000081526004018080602001828103825260328152602001806143c06032913960400191505060405180910390fd5b50505050565b60606000821415613767576040518060400160405280600181526020017f30000000000000000000000000000000000000000000000000000000000000008152509050613861565b600082905060005b60008214613791578080600101915050600a828161378957fe5b04915061376f565b60608167ffffffffffffffff811180156137aa57600080fd5b506040519080825280601f01601f1916602001820160405280156137dd5781602001600182028036833780820191505090505b50905060006001830390508593505b6000841461385957600a84816137fe57fe5b0660300160f81b8282806001900393508151811061381857fe5b60200101907effffffffffffffffffffffffffffffffffffffffffffffffffffffffffffff1916908160001a905350600a848161385157fe5b0493506137ec565b819450505050505b919050565b600061387482600001613bd4565b9050919050565b61388582826131aa565b5050565b60006138958383613c0e565b6138ee5782600001829080600181540180825580915050600190039060005260206000200160009091909190915055826000018054905083600101600084815260200190815260200160002081905550600190506138f3565b600090505b92915050565b600061390b836000018360001b613e4a565b905092915050565b600081600001805490509050919050565b505050565b600061393b836000018360001b613e6d565b905092915050565b6000613955836000018360001b613889565b905092915050565b6000613989846000018460001b8473ffffffffffffffffffffffffffffffffffffffff1660001b613f55565b90509392505050565b6000818360000180549050116139f3576040517f08c379a000000000000000000000000000000000000000000000000000000000815260040180806020018281038252602281526020018061436f6022913960400191505060405180910390fd5b826000018281548110613a0257fe5b9060005260206000200154905092915050565b6000613a3d836000018373ffffffffffffffffffffffffffffffffffffffff1660001b613e6d565b905092915050565b60008082846000018054905011613aa7576040517f08c379a00000000000000000000000000000000000000000000000000000000081526004018080602001828103825260228152602001806145236022913960400191505060405180910390fd5b6000846000018481548110613ab857fe5b906000526020600020906002020190508060000154816001015492509250509250929050565b60008084600101600085815260200190815260200160002054905060008114158390613ba5576040517f08c379a00000000000000000000000000000000000000000000000000000000081526004018080602001828103825283818151815260200191508051906020019080838360005b83811015613b6a578082015181840152602081019050613b4f565b50505050905090810190601f168015613b975780820380516001836020036101000a031916815260200191505b509250505060405180910390fd5b50846000016001820381548110613bb857fe5b9060005260206000209060020201600101549150509392505050565b600081600001805490509050919050565b60008151905060006a636f6e736f6c652e6c6f679050602083016000808483855afa5050505050565b600080836001016000848152602001908152602001600020541415905092915050565b6000613c528473ffffffffffffffffffffffffffffffffffffffff16614031565b613c5f5760019050613e42565b6060613dc963150b7a0260e01b613c74612d9d565b888787604051602401808573ffffffffffffffffffffffffffffffffffffffff1681526020018473ffffffffffffffffffffffffffffffffffffffff16815260200183815260200180602001828103825283818151815260200191508051906020019080838360005b83811015613cf8578082015181840152602081019050613cdd565b50505050905090810190601f168015613d255780820380516001836020036101000a031916815260200191505b5095505050505050604051602081830303815290604052907bffffffffffffffffffffffffffffffffffffffffffffffffffffffff19166020820180517bffffffffffffffffffffffffffffffffffffffffffffffffffffffff83818316178352505050506040518060600160405280603281526020016143c0603291398773ffffffffffffffffffffffffffffffffffffffff166140449092919063ffffffff16565b90506000818060200190516020811015613de257600080fd5b8101908080519060200190929190505050905063150b7a0260e01b7bffffffffffffffffffffffffffffffffffffffffffffffffffffffff1916817bffffffffffffffffffffffffffffffffffffffffffffffffffffffff191614925050505b949350505050565b600080836001016000848152602001908152602001600020541415905092915050565b60008083600101600084815260200190815260200160002054905060008114613f495760006001820390506000600186600001805490500390506000866000018281548110613eb857fe5b9060005260206000200154905080876000018481548110613ed557fe5b9060005260206000200181905550600183018760010160008381526020019081526020016000208190555086600001805480613f0d57fe5b60019003818190600052602060002001600090559055866001016000878152602001908152602001600020600090556001945050505050613f4f565b60009150505b92915050565b6000808460010160008581526020019081526020016000205490506000811415613ffc5784600001604051806040016040528086815260200185815250908060018154018082558091505060019003906000526020600020906002020160009091909190915060008201518160000155602082015181600101555050846000018054905085600101600086815260200190815260200160002081905550600191505061402a565b8285600001600183038154811061400f57fe5b90600052602060002090600202016001018190555060009150505b9392505050565b600080823b905060008111915050919050565b6060614053848460008561405c565b90509392505050565b6060824710156140b7576040517f08c379a00000000000000000000000000000000000000000000000000000000081526004018080602001828103825260268152602001806144166026913960400191505060405180910390fd5b6140c085614031565b614132576040517f08c379a000000000000000000000000000000000000000000000000000000000815260040180806020018281038252601d8152602001807f416464726573733a2063616c6c20746f206e6f6e2d636f6e747261637400000081525060200191505060405180910390fd5b600060608673ffffffffffffffffffffffffffffffffffffffff1685876040518082805190602001908083835b60208310614182578051825260208201915060208101905060208303925061415f565b6001836020036101000a03801982511681845116808217855250505050505090500191505060006040518083038185875af1925050503d80600081146141e4576040519150601f19603f3d011682016040523d82523d6000602084013e6141e9565b606091505b50915091506141f9828286614205565b92505050949350505050565b60608315614215578290506142ca565b6000835111156142285782518084602001fd5b816040517f08c379a00000000000000000000000000000000000000000000000000000000081526004018080602001828103825283818151815260200191508051906020019080838360005b8381101561428f578082015181840152602081019050614274565b50505050905090810190601f1680156142bc5780820380516001836020036101000a031916815260200191505b509250505060405180910390fd5b9392505050565b828054600181600116156101000203166002900490600052602060002090601f016020900481019282601f1061431257805160ff1916838001178555614340565b82800160010185558215614340579182015b8281111561433f578251825591602001919060010190614324565b5b50905061434d9190614351565b5090565b5b8082111561436a576000816000905550600101614352565b509056fe456e756d657261626c655365743a20696e646578206f7574206f6620626f756e6473416363657373436f6e74726f6c3a2073656e646572206d75737420626520616e2061646d696e20746f206772616e744552433732313a207472616e7366657220746f206e6f6e20455243373231526563656976657220696d706c656d656e7465724552433732313a207472616e7366657220746f20746865207a65726f2061646472657373416464726573733a20696e73756666696369656e742062616c616e636520666f722063616c6c4552433732313a206f70657261746f7220717565727920666f72206e6f6e6578697374656e7420746f6b656e416363657373436f6e74726f6c3a2073656e646572206d75737420626520616e2061646d696e20746f207265766f6b654552433732313a20617070726f76652063616c6c6572206973206e6f74206f776e6572206e6f7220617070726f76656420666f7220616c6c4552433732313a2062616c616e636520717565727920666f7220746865207a65726f20616464726573734552433732313a206f776e657220717565727920666f72206e6f6e6578697374656e7420746f6b656e456e756d657261626c654d61703a20696e646578206f7574206f6620626f756e64734552433732313a20617070726f76656420717565727920666f72206e6f6e6578697374656e7420746f6b656e4552433732314d657461646174613a2055524920736574206f66206e6f6e6578697374656e7420746f6b656e636f6f7264696e617465206c656e67746873206d757374206265207468652073616d654552433732313a207472616e73666572206f6620746f6b656e2074686174206973206e6f74206f776e4552433732314d657461646174613a2055524920717565727920666f72206e6f6e6578697374656e7420746f6b656e4552433732313a20617070726f76616c20746f2063757272656e74206f776e65724552433732313a207472616e736665722063616c6c6572206973206e6f74206f776e6572206e6f7220617070726f76656454686520636f6f7264696e617465732073686f756c6420626520696e7369646520626f756e6473416363657373436f6e74726f6c3a2063616e206f6e6c792072656e6f756e636520726f6c657320666f722073656c66a2646970667358221220429ad142162acb4e7e1d6a4d8c6953014eaf580a64bf05ab03165659f2596a6b64736f6c63430007030033",
  "linkReferences": {},
  "deployedLinkReferences": {}
}