{
  "_format": "hh-sol-artifact-1",
  "contractName": "TimelockController",
  "sourceName": "contracts/openzeppelin/contracts/access/TimelockController.sol",
  "abi": [
    {
      "inputs": [
        {
          "internalType": "uint256",
          "name": "minDelay",
          "type": "uint256"
        },
        {
          "internalType": "address[]",
          "name": "proposers",
          "type": "address[]"
        },
        {
          "internalType": "address[]",
          "name": "executors",
          "type": "address[]"
        }
      ],
      "stateMutability": "nonpayable",
      "type": "constructor"
    },
    {
      "anonymous": false,
      "inputs": [
        {
          "indexed": true,
          "internalType": "bytes32",
          "name": "id",
          "type": "bytes32"
        },
        {
          "indexed": true,
          "internalType": "uint256",
          "name": "index",
          "type": "uint256"
        },
        {
          "indexed": false,
          "internalType": "address",
          "name": "target",
          "type": "address"
        },
        {
          "indexed": false,
          "internalType": "uint256",
          "name": "value",
          "type": "uint256"
        },
        {
          "indexed": false,
          "internalType": "bytes",
          "name": "data",
          "type": "bytes"
        }
      ],
      "name": "CallExecuted",
      "type": "event"
    },
    {
      "anonymous": false,
      "inputs": [
        {
          "indexed": true,
          "internalType": "bytes32",
          "name": "id",
          "type": "bytes32"
        },
        {
          "indexed": true,
          "internalType": "uint256",
          "name": "index",
          "type": "uint256"
        },
        {
          "indexed": false,
          "internalType": "address",
          "name": "target",
          "type": "address"
        },
        {
          "indexed": false,
          "internalType": "uint256",
          "name": "value",
          "type": "uint256"
        },
        {
          "indexed": false,
          "internalType": "bytes",
          "name": "data",
          "type": "bytes"
        },
        {
          "indexed": false,
          "internalType": "bytes32",
          "name": "predecessor",
          "type": "bytes32"
        },
        {
          "indexed": false,
          "internalType": "uint256",
          "name": "delay",
          "type": "uint256"
        }
      ],
      "name": "CallScheduled",
      "type": "event"
    },
    {
      "anonymous": false,
      "inputs": [
        {
          "indexed": true,
          "internalType": "bytes32",
          "name": "id",
          "type": "bytes32"
        }
      ],
      "name": "Cancelled",
      "type": "event"
    },
    {
      "anonymous": false,
      "inputs": [
        {
          "indexed": false,
          "internalType": "uint256",
          "name": "oldDuration",
          "type": "uint256"
        },
        {
          "indexed": false,
          "internalType": "uint256",
          "name": "newDuration",
          "type": "uint256"
        }
      ],
      "name": "MinDelayChange",
      "type": "event"
    },
    {
      "anonymous": false,
      "inputs": [
        {
          "indexed": true,
          "internalType": "bytes32",
          "name": "role",
          "type": "bytes32"
        },
        {
          "indexed": true,
          "internalType": "bytes32",
          "name": "previousAdminRole",
          "type": "bytes32"
        },
        {
          "indexed": true,
          "internalType": "bytes32",
          "name": "newAdminRole",
          "type": "bytes32"
        }
      ],
      "name": "RoleAdminChanged",
      "type": "event"
    },
    {
      "anonymous": false,
      "inputs": [
        {
          "indexed": true,
          "internalType": "bytes32",
          "name": "role",
          "type": "bytes32"
        },
        {
          "indexed": true,
          "internalType": "address",
          "name": "account",
          "type": "address"
        },
        {
          "indexed": true,
          "internalType": "address",
          "name": "sender",
          "type": "address"
        }
      ],
      "name": "RoleGranted",
      "type": "event"
    },
    {
      "anonymous": false,
      "inputs": [
        {
          "indexed": true,
          "internalType": "bytes32",
          "name": "role",
          "type": "bytes32"
        },
        {
          "indexed": true,
          "internalType": "address",
          "name": "account",
          "type": "address"
        },
        {
          "indexed": true,
          "internalType": "address",
          "name": "sender",
          "type": "address"
        }
      ],
      "name": "RoleRevoked",
      "type": "event"
    },
    {
      "inputs": [],
      "name": "DEFAULT_ADMIN_ROLE",
      "outputs": [
        {
          "internalType": "bytes32",
          "name": "",
          "type": "bytes32"
        }
      ],
      "stateMutability": "view",
      "type": "function"
    },
    {
      "inputs": [],
      "name": "EXECUTOR_ROLE",
      "outputs": [
        {
          "internalType": "bytes32",
          "name": "",
          "type": "bytes32"
        }
      ],
      "stateMutability": "view",
      "type": "function"
    },
    {
      "inputs": [],
      "name": "PROPOSER_ROLE",
      "outputs": [
        {
          "internalType": "bytes32",
          "name": "",
          "type": "bytes32"
        }
      ],
      "stateMutability": "view",
      "type": "function"
    },
    {
      "inputs": [],
      "name": "TIMELOCK_ADMIN_ROLE",
      "outputs": [
        {
          "internalType": "bytes32",
          "name": "",
          "type": "bytes32"
        }
      ],
      "stateMutability": "view",
      "type": "function"
    },
    {
      "inputs": [
        {
          "internalType": "bytes32",
          "name": "id",
          "type": "bytes32"
        }
      ],
      "name": "cancel",
      "outputs": [],
      "stateMutability": "nonpayable",
      "type": "function"
    },
    {
      "inputs": [
        {
          "internalType": "address",
          "name": "target",
          "type": "address"
        },
        {
          "internalType": "uint256",
          "name": "value",
          "type": "uint256"
        },
        {
          "internalType": "bytes",
          "name": "data",
          "type": "bytes"
        },
        {
          "internalType": "bytes32",
          "name": "predecessor",
          "type": "bytes32"
        },
        {
          "internalType": "bytes32",
          "name": "salt",
          "type": "bytes32"
        }
      ],
      "name": "execute",
      "outputs": [],
      "stateMutability": "payable",
      "type": "function"
    },
    {
      "inputs": [
        {
          "internalType": "address[]",
          "name": "targets",
          "type": "address[]"
        },
        {
          "internalType": "uint256[]",
          "name": "values",
          "type": "uint256[]"
        },
        {
          "internalType": "bytes[]",
          "name": "datas",
          "type": "bytes[]"
        },
        {
          "internalType": "bytes32",
          "name": "predecessor",
          "type": "bytes32"
        },
        {
          "internalType": "bytes32",
          "name": "salt",
          "type": "bytes32"
        }
      ],
      "name": "executeBatch",
      "outputs": [],
      "stateMutability": "payable",
      "type": "function"
    },
    {
      "inputs": [],
      "name": "getMinDelay",
      "outputs": [
        {
          "internalType": "uint256",
          "name": "duration",
          "type": "uint256"
        }
      ],
      "stateMutability": "view",
      "type": "function"
    },
    {
      "inputs": [
        {
          "internalType": "bytes32",
          "name": "role",
          "type": "bytes32"
        }
      ],
      "name": "getRoleAdmin",
      "outputs": [
        {
          "internalType": "bytes32",
          "name": "",
          "type": "bytes32"
        }
      ],
      "stateMutability": "view",
      "type": "function"
    },
    {
      "inputs": [
        {
          "internalType": "bytes32",
          "name": "role",
          "type": "bytes32"
        },
        {
          "internalType": "uint256",
          "name": "index",
          "type": "uint256"
        }
      ],
      "name": "getRoleMember",
      "outputs": [
        {
          "internalType": "address",
          "name": "",
          "type": "address"
        }
      ],
      "stateMutability": "view",
      "type": "function"
    },
    {
      "inputs": [
        {
          "internalType": "bytes32",
          "name": "role",
          "type": "bytes32"
        }
      ],
      "name": "getRoleMemberCount",
      "outputs": [
        {
          "internalType": "uint256",
          "name": "",
          "type": "uint256"
        }
      ],
      "stateMutability": "view",
      "type": "function"
    },
    {
      "inputs": [
        {
          "internalType": "bytes32",
          "name": "id",
          "type": "bytes32"
        }
      ],
      "name": "getTimestamp",
      "outputs": [
        {
          "internalType": "uint256",
          "name": "timestamp",
          "type": "uint256"
        }
      ],
      "stateMutability": "view",
      "type": "function"
    },
    {
      "inputs": [
        {
          "internalType": "bytes32",
          "name": "role",
          "type": "bytes32"
        },
        {
          "internalType": "address",
          "name": "account",
          "type": "address"
        }
      ],
      "name": "grantRole",
      "outputs": [],
      "stateMutability": "nonpayable",
      "type": "function"
    },
    {
      "inputs": [
        {
          "internalType": "bytes32",
          "name": "role",
          "type": "bytes32"
        },
        {
          "internalType": "address",
          "name": "account",
          "type": "address"
        }
      ],
      "name": "hasRole",
      "outputs": [
        {
          "internalType": "bool",
          "name": "",
          "type": "bool"
        }
      ],
      "stateMutability": "view",
      "type": "function"
    },
    {
      "inputs": [
        {
          "internalType": "address",
          "name": "target",
          "type": "address"
        },
        {
          "internalType": "uint256",
          "name": "value",
          "type": "uint256"
        },
        {
          "internalType": "bytes",
          "name": "data",
          "type": "bytes"
        },
        {
          "internalType": "bytes32",
          "name": "predecessor",
          "type": "bytes32"
        },
        {
          "internalType": "bytes32",
          "name": "salt",
          "type": "bytes32"
        }
      ],
      "name": "hashOperation",
      "outputs": [
        {
          "internalType": "bytes32",
          "name": "hash",
          "type": "bytes32"
        }
      ],
      "stateMutability": "pure",
      "type": "function"
    },
    {
      "inputs": [
        {
          "internalType": "address[]",
          "name": "targets",
          "type": "address[]"
        },
        {
          "internalType": "uint256[]",
          "name": "values",
          "type": "uint256[]"
        },
        {
          "internalType": "bytes[]",
          "name": "datas",
          "type": "bytes[]"
        },
        {
          "internalType": "bytes32",
          "name": "predecessor",
          "type": "bytes32"
        },
        {
          "internalType": "bytes32",
          "name": "salt",
          "type": "bytes32"
        }
      ],
      "name": "hashOperationBatch",
      "outputs": [
        {
          "internalType": "bytes32",
          "name": "hash",
          "type": "bytes32"
        }
      ],
      "stateMutability": "pure",
      "type": "function"
    },
    {
      "inputs": [
        {
          "internalType": "bytes32",
          "name": "id",
          "type": "bytes32"
        }
      ],
      "name": "isOperationDone",
      "outputs": [
        {
          "internalType": "bool",
          "name": "done",
          "type": "bool"
        }
      ],
      "stateMutability": "view",
      "type": "function"
    },
    {
      "inputs": [
        {
          "internalType": "bytes32",
          "name": "id",
          "type": "bytes32"
        }
      ],
      "name": "isOperationPending",
      "outputs": [
        {
          "internalType": "bool",
          "name": "pending",
          "type": "bool"
        }
      ],
      "stateMutability": "view",
      "type": "function"
    },
    {
      "inputs": [
        {
          "internalType": "bytes32",
          "name": "id",
          "type": "bytes32"
        }
      ],
      "name": "isOperationReady",
      "outputs": [
        {
          "internalType": "bool",
          "name": "ready",
          "type": "bool"
        }
      ],
      "stateMutability": "view",
      "type": "function"
    },
    {
      "inputs": [
        {
          "internalType": "bytes32",
          "name": "role",
          "type": "bytes32"
        },
        {
          "internalType": "address",
          "name": "account",
          "type": "address"
        }
      ],
      "name": "renounceRole",
      "outputs": [],
      "stateMutability": "nonpayable",
      "type": "function"
    },
    {
      "inputs": [
        {
          "internalType": "bytes32",
          "name": "role",
          "type": "bytes32"
        },
        {
          "internalType": "address",
          "name": "account",
          "type": "address"
        }
      ],
      "name": "revokeRole",
      "outputs": [],
      "stateMutability": "nonpayable",
      "type": "function"
    },
    {
      "inputs": [
        {
          "internalType": "address",
          "name": "target",
          "type": "address"
        },
        {
          "internalType": "uint256",
          "name": "value",
          "type": "uint256"
        },
        {
          "internalType": "bytes",
          "name": "data",
          "type": "bytes"
        },
        {
          "internalType": "bytes32",
          "name": "predecessor",
          "type": "bytes32"
        },
        {
          "internalType": "bytes32",
          "name": "salt",
          "type": "bytes32"
        },
        {
          "internalType": "uint256",
          "name": "delay",
          "type": "uint256"
        }
      ],
      "name": "schedule",
      "outputs": [],
      "stateMutability": "nonpayable",
      "type": "function"
    },
    {
      "inputs": [
        {
          "internalType": "address[]",
          "name": "targets",
          "type": "address[]"
        },
        {
          "internalType": "uint256[]",
          "name": "values",
          "type": "uint256[]"
        },
        {
          "internalType": "bytes[]",
          "name": "datas",
          "type": "bytes[]"
        },
        {
          "internalType": "bytes32",
          "name": "predecessor",
          "type": "bytes32"
        },
        {
          "internalType": "bytes32",
          "name": "salt",
          "type": "bytes32"
        },
        {
          "internalType": "uint256",
          "name": "delay",
          "type": "uint256"
        }
      ],
      "name": "scheduleBatch",
      "outputs": [],
      "stateMutability": "nonpayable",
      "type": "function"
    },
    {
      "inputs": [
        {
          "internalType": "uint256",
          "name": "newDelay",
          "type": "uint256"
        }
      ],
      "name": "updateDelay",
      "outputs": [],
      "stateMutability": "nonpayable",
      "type": "function"
    },
    {
      "stateMutability": "payable",
      "type": "receive"
    }
  ],
  "bytecode": "0x60806040523480156200001157600080fd5b5060405162001ece38038062001ece8339810160408190526200003491620003d1565b6200004f60008051602062001e6e83398151915280620001b1565b6200007960008051602062001e8e83398151915260008051602062001e6e833981519152620001b1565b620000a360008051602062001eae83398151915260008051602062001e6e833981519152620001b1565b620000c760008051602062001e6e833981519152620000c162000203565b62000207565b620000e260008051602062001e6e8339815191523062000207565b60005b82518110156200012d576200012460008051602062001e8e8339815191528483815181106200011057fe5b60200260200101516200020760201b60201c565b600101620000e5565b5060005b815181101562000165576200015c60008051602062001eae8339815191528383815181106200011057fe5b60010162000131565b5060028390556040517f11c24f4ead16507c69ac467fbd5e4eed5fb5c699626d2cc6d66421df253886d590620001a090600090869062000442565b60405180910390a150505062000450565b600082815260208190526040808220600201549051839285917fbd79b86ffe0ab8e8776151514217cd7cacd52c909f66475c3af44e129f0b00ff9190a460009182526020829052604090912060020155565b3390565b62000213828262000217565b5050565b6000828152602081815260409091206200023c91839062000bab62000290821b17901c565b1562000213576200024c62000203565b6001600160a01b0316816001600160a01b0316837f2f8788117e7eff1d82e926ec794901d17c78024a50270940304540a733656f0d60405160405180910390a45050565b6000620002a7836001600160a01b038416620002b0565b90505b92915050565b6000620002be8383620002ff565b620002f657508154600181810184556000848152602080822090930184905584548482528286019093526040902091909155620002aa565b506000620002aa565b60009081526001919091016020526040902054151590565b80516001600160a01b03811681146200032f57600080fd5b919050565b600082601f83011262000345578081fd5b81516001600160401b03808211156200035a57fe5b6020808302604051828282010181811085821117156200037657fe5b6040528481529450818501925085820181870183018810156200039857600080fd5b600091505b84821015620003c657620003b18162000317565b8452928201926001919091019082016200039d565b505050505092915050565b600080600060608486031215620003e6578283fd5b835160208501519093506001600160401b038082111562000405578384fd5b620004138783880162000334565b9350604086015191508082111562000429578283fd5b50620004388682870162000334565b9150509250925092565b918252602082015260400190565b611a0e80620004606000396000f3fe60806040526004361061014f5760003560e01c80638f2a0bb0116100b6578063c4d252f51161006f578063c4d252f514610394578063ca15c873146103b4578063d45c4435146103d4578063d547741f146103f4578063e38335e514610414578063f27a0c921461042757610156565b80638f2a0bb0146102dd5780638f61f4f5146102fd5780639010d07c1461031257806391d148541461033f578063a217fddf1461035f578063b1c5f4271461037457610156565b80632ab0f529116101085780632ab0f5291461021d5780632f2ff15d1461023d57806336568abe1461025d578063584b153e1461027d57806364d623531461029d5780638065657f146102bd57610156565b806301d5062a1461015b57806307bd02651461017d5780630d3cf6fc146101a8578063134008d3146101bd57806313bc9f20146101d0578063248a9ca3146101fd57610156565b3661015657005b600080fd5b34801561016757600080fd5b5061017b610176366004611130565b61043c565b005b34801561018957600080fd5b506101926104f8565b60405161019f9190611550565b60405180910390f35b3480156101b457600080fd5b5061019261051c565b61017b6101cb3660046110c6565b610540565b3480156101dc57600080fd5b506101f06101eb3660046112f6565b6105d7565b60405161019f9190611545565b34801561020957600080fd5b506101926102183660046112f6565b61060b565b34801561022957600080fd5b506101f06102383660046112f6565b610620565b34801561024957600080fd5b5061017b61025836600461130e565b610636565b34801561026957600080fd5b5061017b61027836600461130e565b61067e565b34801561028957600080fd5b506101f06102983660046112f6565b6106c0565b3480156102a957600080fd5b5061017b6102b83660046112f6565b6106d6565b3480156102c957600080fd5b506101926102d83660046110c6565b610735565b3480156102e957600080fd5b5061017b6102f8366004611248565b610774565b34801561030957600080fd5b506101926108ca565b34801561031e57600080fd5b5061033261032d366004611339565b6108dc565b60405161019f919061141d565b34801561034b57600080fd5b506101f061035a36600461130e565b6108fd565b34801561036b57600080fd5b50610192610915565b34801561038057600080fd5b5061019261038f3660046111a3565b61091a565b3480156103a057600080fd5b5061017b6103af3660046112f6565b61095f565b3480156103c057600080fd5b506101926103cf3660046112f6565b610a08565b3480156103e057600080fd5b506101926103ef3660046112f6565b610a1f565b34801561040057600080fd5b5061017b61040f36600461130e565b610a31565b61017b6104223660046111a3565b610a6b565b34801561043357600080fd5b50610192610ba5565b6000805160206119b98339815191526104578161035a610bc0565b8061046857506104688160006108fd565b61048d5760405162461bcd60e51b815260040161048490611673565b60405180910390fd5b600061049d898989898989610735565b90506104a98184610bc4565b6000817f4cf4410cc57040e44862ef0f45f3dd5a5e02db8eb8add648d4b0e236f1d07dca8b8b8b8b8b8a6040516104e596959493929190611463565b60405180910390a3505050505050505050565b7fd8aa0f3194971a2a116679f7c2090f6939c8d4e01a2a8d7e41d55e5351469e6381565b7f5f58e3a2316349923ce3780f8d587db2d72378aed66a8261c916544fa6846ca581565b7fd8aa0f3194971a2a116679f7c2090f6939c8d4e01a2a8d7e41d55e5351469e6361056d8161035a610bc0565b8061057e575061057e8160006108fd565b61059a5760405162461bcd60e51b815260040161048490611673565b60006105aa888888888888610735565b90506105b584610c32565b6105c48160008a8a8a8a610c62565b6105cd81610d2a565b5050505050505050565b600081815260016020819052604082205411801561060357506000828152600160205260409020544210155b90505b919050565b60009081526020819052604090206002015490565b6000908152600160208190526040909120541490565b6000828152602081905260409020600201546106549061035a610bc0565b6106705760405162461bcd60e51b8152600401610484906115e1565b61067a8282610d63565b5050565b610686610bc0565b6001600160a01b0316816001600160a01b0316146106b65760405162461bcd60e51b8152600401610484906118c3565b61067a8282610dcc565b6000908152600160208190526040909120541190565b3330146106f55760405162461bcd60e51b815260040161048490611878565b7f11c24f4ead16507c69ac467fbd5e4eed5fb5c699626d2cc6d66421df253886d560025482604051610728929190611965565b60405180910390a1600255565b600086868686868660405160200161075296959493929190611463565b6040516020818303038152906040528051906020012090509695505050505050565b6000805160206119b983398151915261078f8161035a610bc0565b806107a057506107a08160006108fd565b6107bc5760405162461bcd60e51b815260040161048490611673565b8887146107db5760405162461bcd60e51b815260040161048490611630565b8885146107fa5760405162461bcd60e51b815260040161048490611630565b600061080c8b8b8b8b8b8b8b8b61091a565b90506108188184610bc4565b60005b8a8110156108bc5780827f4cf4410cc57040e44862ef0f45f3dd5a5e02db8eb8add648d4b0e236f1d07dca8e8e8581811061085257fe5b905060200201602081019061086791906110ac565b8d8d8681811061087357fe5b905060200201358c8c8781811061088657fe5b90506020028101906108989190611973565b8c8b6040516108ac96959493929190611463565b60405180910390a360010161081b565b505050505050505050505050565b6000805160206119b983398151915281565b60008281526020819052604081206108f49083610e35565b90505b92915050565b60008281526020819052604081206108f49083610e41565b600081565b6000888888888888888860405160200161093b9897969594939291906114a0565b60405160208183030381529060405280519060200120905098975050505050505050565b6000805160206119b983398151915261097a8161035a610bc0565b8061098b575061098b8160006108fd565b6109a75760405162461bcd60e51b815260040161048490611673565b6109b0826106c0565b6109cc5760405162461bcd60e51b815260040161048490611827565b6000828152600160205260408082208290555183917fbaa1eb22f2a492ba1a5fea61b8df4d27c6c8b5f3971e63bb58fa14ff72eedb7091a25050565b600081815260208190526040812061060390610e56565b60009081526001602052604090205490565b600082815260208190526040902060020154610a4f9061035a610bc0565b6106b65760405162461bcd60e51b8152600401610484906116f8565b7fd8aa0f3194971a2a116679f7c2090f6939c8d4e01a2a8d7e41d55e5351469e63610a988161035a610bc0565b80610aa95750610aa98160006108fd565b610ac55760405162461bcd60e51b815260040161048490611673565b878614610ae45760405162461bcd60e51b815260040161048490611630565b878414610b035760405162461bcd60e51b815260040161048490611630565b6000610b158a8a8a8a8a8a8a8a61091a565b9050610b2084610c32565b60005b89811015610b8f57610b8782828d8d85818110610b3c57fe5b9050602002016020810190610b5191906110ac565b8c8c86818110610b5d57fe5b905060200201358b8b87818110610b7057fe5b9050602002810190610b829190611973565b610c62565b600101610b23565b50610b9981610d2a565b50505050505050505050565b60025490565b60006108f4836001600160a01b038416610e61565b3390565b60008281526001602052604090205415610bf05760405162461bcd60e51b81526004016104849061178e565b600254811015610c125760405162461bcd60e51b815260040161048490611748565b610c1c4282610eab565b6000928352600160205260409092209190915550565b801580610c435750610c4381610620565b610c5f5760405162461bcd60e51b81526004016104849061159b565b50565b6000846001600160a01b0316848484604051610c7f92919061140d565b60006040518083038185875af1925050503d8060008114610cbc576040519150601f19603f3d011682016040523d82523d6000602084013e610cc1565b606091505b5050905080610ce25760405162461bcd60e51b815260040161048490611912565b85877fc2617efa69bab66782fa219543714338489c4e9e178271560a91b82c3f612b5887878787604051610d199493929190611431565b60405180910390a350505050505050565b610d33816105d7565b610d4f5760405162461bcd60e51b8152600401610484906117dd565b600090815260016020819052604090912055565b6000828152602081905260409020610d7b9082610bab565b1561067a57610d88610bc0565b6001600160a01b0316816001600160a01b0316837f2f8788117e7eff1d82e926ec794901d17c78024a50270940304540a733656f0d60405160405180910390a45050565b6000828152602081905260409020610de49082610ed0565b1561067a57610df1610bc0565b6001600160a01b0316816001600160a01b0316837ff6391f5c32d9c69d2a47ea670b442974b53935d1edc7fd64eb21e047a839171b60405160405180910390a45050565b60006108f48383610ee5565b60006108f4836001600160a01b038416610f2a565b600061060382610f42565b6000610e6d8383610f2a565b610ea3575081546001818101845560008481526020808220909301849055845484825282860190935260409020919091556108f7565b5060006108f7565b6000828201838110156108f45760405162461bcd60e51b8152600401610484906116c1565b60006108f4836001600160a01b038416610f46565b81546000908210610f085760405162461bcd60e51b815260040161048490611559565b826000018281548110610f1757fe5b9060005260206000200154905092915050565b60009081526001919091016020526040902054151590565b5490565b600081815260018301602052604081205480156110025783546000198083019190810190600090879083908110610f7957fe5b9060005260206000200154905080876000018481548110610f9657fe5b600091825260208083209091019290925582815260018981019092526040902090840190558654879080610fc657fe5b600190038181906000526020600020016000905590558660010160008781526020019081526020016000206000905560019450505050506108f7565b60009150506108f7565b80356001600160a01b038116811461060657600080fd5b60008083601f840112611034578182fd5b50813567ffffffffffffffff81111561104b578182fd5b602083019150836020808302850101111561106557600080fd5b9250929050565b60008083601f84011261107d578182fd5b50813567ffffffffffffffff811115611094578182fd5b60208301915083602082850101111561106557600080fd5b6000602082840312156110bd578081fd5b6108f48261100c565b60008060008060008060a087890312156110de578182fd5b6110e78761100c565b955060208701359450604087013567ffffffffffffffff811115611109578283fd5b61111589828a0161106c565b979a9699509760608101359660809091013595509350505050565b600080600080600080600060c0888a03121561114a578081fd5b6111538861100c565b965060208801359550604088013567ffffffffffffffff811115611175578182fd5b6111818a828b0161106c565b989b979a50986060810135976080820135975060a09091013595509350505050565b60008060008060008060008060a0898b0312156111be578081fd5b883567ffffffffffffffff808211156111d5578283fd5b6111e18c838d01611023565b909a50985060208b01359150808211156111f9578283fd5b6112058c838d01611023565b909850965060408b013591508082111561121d578283fd5b5061122a8b828c01611023565b999c989b509699959896976060870135966080013595509350505050565b600080600080600080600080600060c08a8c031215611265578081fd5b893567ffffffffffffffff8082111561127c578283fd5b6112888d838e01611023565b909b50995060208c01359150808211156112a0578283fd5b6112ac8d838e01611023565b909950975060408c01359150808211156112c4578283fd5b506112d18c828d01611023565b9a9d999c50979a969997986060880135976080810135975060a0013595509350505050565b600060208284031215611307578081fd5b5035919050565b60008060408385031215611320578182fd5b823591506113306020840161100c565b90509250929050565b6000806040838503121561134b578182fd5b50508035926020909101359150565b60008284526020808501945084818502860184845b878110156113d65783830389528135601e1988360301811261138f578687fd5b8701803567ffffffffffffffff8111156113a7578788fd5b8036038913156113b5578788fd5b6113c285828985016113e3565b9a87019a945050509084019060010161136f565b5090979650505050505050565b60008284528282602086013780602084860101526020601f19601f85011685010190509392505050565b6000828483379101908152919050565b6001600160a01b0391909116815260200190565b600060018060a01b0386168252846020830152606060408301526114596060830184866113e3565b9695505050505050565b600060018060a01b038816825286602083015260a0604083015261148b60a0830186886113e3565b60608301949094525060800152949350505050565b60a0808252810188905260008960c08301825b8b8110156114e1576001600160a01b036114cc8461100c565b168252602092830192909101906001016114b3565b5083810360208501528881526001600160fb1b03891115611500578283fd5b602089029150818a6020830137016020818101838152848303909101604085015261152c81888a61135a565b6060850196909652505050608001529695505050505050565b901515815260200190565b90815260200190565b60208082526022908201527f456e756d657261626c655365743a20696e646578206f7574206f6620626f756e604082015261647360f01b606082015260800190565b60208082526026908201527f54696d656c6f636b436f6e74726f6c6c65723a206d697373696e6720646570656040820152656e64656e637960d01b606082015260800190565b6020808252602f908201527f416363657373436f6e74726f6c3a2073656e646572206d75737420626520616e60408201526e0818591b5a5b881d1bc819dc985b9d608a1b606082015260800190565b60208082526023908201527f54696d656c6f636b436f6e74726f6c6c65723a206c656e677468206d69736d616040820152620e8c6d60eb1b606082015260800190565b6020808252602e908201527f54696d656c6f636b436f6e74726f6c6c65723a2073656e64657220726571756960408201526d3932b9903832b936b4b9b9b4b7b760911b606082015260800190565b6020808252601b908201527f536166654d6174683a206164646974696f6e206f766572666c6f770000000000604082015260600190565b60208082526030908201527f416363657373436f6e74726f6c3a2073656e646572206d75737420626520616e60408201526f2061646d696e20746f207265766f6b6560801b606082015260800190565b60208082526026908201527f54696d656c6f636b436f6e74726f6c6c65723a20696e73756666696369656e746040820152652064656c617960d01b606082015260800190565b6020808252602f908201527f54696d656c6f636b436f6e74726f6c6c65723a206f7065726174696f6e20616c60408201526e1c9958591e481cd8da19591d5b1959608a1b606082015260800190565b6020808252602a908201527f54696d656c6f636b436f6e74726f6c6c65723a206f7065726174696f6e206973604082015269206e6f7420726561647960b01b606082015260800190565b60208082526031908201527f54696d656c6f636b436f6e74726f6c6c65723a206f7065726174696f6e2063616040820152701b9b9bdd0818994818d85b98d95b1b1959607a1b606082015260800190565b6020808252602b908201527f54696d656c6f636b436f6e74726f6c6c65723a2063616c6c6572206d7573742060408201526a62652074696d656c6f636b60a81b606082015260800190565b6020808252602f908201527f416363657373436f6e74726f6c3a2063616e206f6e6c792072656e6f756e636560408201526e103937b632b9903337b91039b2b63360891b606082015260800190565b60208082526033908201527f54696d656c6f636b436f6e74726f6c6c65723a20756e6465726c79696e6720746040820152721c985b9cd858dd1a5bdb881c995d995c9d1959606a1b606082015260800190565b918252602082015260400190565b6000808335601e19843603018112611989578283fd5b83018035915067ffffffffffffffff8211156119a3578283fd5b60200191503681900382131561106557600080fdfeb09aa5aeb3702cfd50b6b62bc4532604938f21248a27a1d5ca736082b6819cc1a2646970667358221220e9f1547dfaff2577415acd3adcb090e0af1b8e915ab2452e26d5a8d6c97aedad64736f6c634300070300335f58e3a2316349923ce3780f8d587db2d72378aed66a8261c916544fa6846ca5b09aa5aeb3702cfd50b6b62bc4532604938f21248a27a1d5ca736082b6819cc1d8aa0f3194971a2a116679f7c2090f6939c8d4e01a2a8d7e41d55e5351469e63",
  "linkReferences": {},
  "deployedLinkReferences": {}
}