{
  "_format": "hh-sol-artifact-1",
  "contractName": "WorldAdmin",
  "sourceName": "contracts/WorldAdmin.sol",
  "abi": [
    {
      "inputs": [],
      "stateMutability": "nonpayable",
      "type": "constructor"
    },
    {
      "anonymous": false,
      "inputs": [
        {
          "indexed": true,
          "internalType": "bytes32",
          "name": "role",
          "type": "bytes32"
        },
        {
          "indexed": true,
          "internalType": "bytes32",
          "name": "previousAdminRole",
          "type": "bytes32"
        },
        {
          "indexed": true,
          "internalType": "bytes32",
          "name": "newAdminRole",
          "type": "bytes32"
        }
      ],
      "name": "RoleAdminChanged",
      "type": "event"
    },
    {
      "anonymous": false,
      "inputs": [
        {
          "indexed": true,
          "internalType": "bytes32",
          "name": "role",
          "type": "bytes32"
        },
        {
          "indexed": true,
          "internalType": "address",
          "name": "account",
          "type": "address"
        },
        {
          "indexed": true,
          "internalType": "address",
          "name": "sender",
          "type": "address"
        }
      ],
      "name": "RoleGranted",
      "type": "event"
    },
    {
      "anonymous": false,
      "inputs": [
        {
          "indexed": true,
          "internalType": "bytes32",
          "name": "role",
          "type": "bytes32"
        },
        {
          "indexed": true,
          "internalType": "address",
          "name": "account",
          "type": "address"
        },
        {
          "indexed": true,
          "internalType": "address",
          "name": "sender",
          "type": "address"
        }
      ],
      "name": "RoleRevoked",
      "type": "event"
    },
    {
      "inputs": [],
      "name": "DEFAULT_ADMIN_ROLE",
      "outputs": [
        {
          "internalType": "bytes32",
          "name": "",
          "type": "bytes32"
        }
      ],
      "stateMutability": "view",
      "type": "function"
    },
    {
      "inputs": [],
      "name": "METAVERSE_ADMIN",
      "outputs": [
        {
          "internalType": "bytes32",
          "name": "",
          "type": "bytes32"
        }
      ],
      "stateMutability": "view",
      "type": "function"
    },
    {
      "inputs": [
        {
          "internalType": "bytes32",
          "name": "role",
          "type": "bytes32"
        }
      ],
      "name": "getRoleAdmin",
      "outputs": [
        {
          "internalType": "bytes32",
          "name": "",
          "type": "bytes32"
        }
      ],
      "stateMutability": "view",
      "type": "function"
    },
    {
      "inputs": [
        {
          "internalType": "bytes32",
          "name": "role",
          "type": "bytes32"
        },
        {
          "internalType": "uint256",
          "name": "index",
          "type": "uint256"
        }
      ],
      "name": "getRoleMember",
      "outputs": [
        {
          "internalType": "address",
          "name": "",
          "type": "address"
        }
      ],
      "stateMutability": "view",
      "type": "function"
    },
    {
      "inputs": [
        {
          "internalType": "bytes32",
          "name": "role",
          "type": "bytes32"
        }
      ],
      "name": "getRoleMemberCount",
      "outputs": [
        {
          "internalType": "uint256",
          "name": "",
          "type": "uint256"
        }
      ],
      "stateMutability": "view",
      "type": "function"
    },
    {
      "inputs": [
        {
          "internalType": "bytes32",
          "name": "role",
          "type": "bytes32"
        },
        {
          "internalType": "address",
          "name": "account",
          "type": "address"
        }
      ],
      "name": "grantRole",
      "outputs": [],
      "stateMutability": "nonpayable",
      "type": "function"
    },
    {
      "inputs": [
        {
          "internalType": "bytes32",
          "name": "role",
          "type": "bytes32"
        },
        {
          "internalType": "address",
          "name": "account",
          "type": "address"
        }
      ],
      "name": "hasRole",
      "outputs": [
        {
          "internalType": "bool",
          "name": "",
          "type": "bool"
        }
      ],
      "stateMutability": "view",
      "type": "function"
    },
    {
      "inputs": [
        {
          "internalType": "bytes32",
          "name": "role",
          "type": "bytes32"
        },
        {
          "internalType": "address",
          "name": "account",
          "type": "address"
        }
      ],
      "name": "renounceRole",
      "outputs": [],
      "stateMutability": "nonpayable",
      "type": "function"
    },
    {
      "inputs": [
        {
          "internalType": "bytes32",
          "name": "role",
          "type": "bytes32"
        },
        {
          "internalType": "address",
          "name": "account",
          "type": "address"
        }
      ],
      "name": "revokeRole",
      "outputs": [],
      "stateMutability": "nonpayable",
      "type": "function"
    }
  ],
  "bytecode": "0x60806040523480156200001157600080fd5b50620000366000801b6200002a620000b260201b60201c565b620000ba60201b60201c565b620000777fd01a726e3c29a8c3f1e11dc604364fc90e918d0d6a4c81583749a60ca06abd166200006b620000b260201b60201c565b620000ba60201b60201c565b620000ac6000801b7fd01a726e3c29a8c3f1e11dc604364fc90e918d0d6a4c81583749a60ca06abd16620000d060201b60201c565b620002aa565b600033905090565b620000cc82826200013260201b60201c565b5050565b8060008084815260200190815260200160002060020154837fbd79b86ffe0ab8e8776151514217cd7cacd52c909f66475c3af44e129f0b00ff60405160405180910390a480600080848152602001908152602001600020600201819055505050565b6200016081600080858152602001908152602001600020600001620001d560201b620005851790919060201c565b15620001d15762000176620000b260201b60201c565b73ffffffffffffffffffffffffffffffffffffffff168173ffffffffffffffffffffffffffffffffffffffff16837f2f8788117e7eff1d82e926ec794901d17c78024a50270940304540a733656f0d60405160405180910390a45b5050565b600062000205836000018373ffffffffffffffffffffffffffffffffffffffff1660001b6200020d60201b60201c565b905092915050565b60006200022183836200028760201b60201c565b6200027c57826000018290806001815401808255809150506001900390600052602060002001600090919091909150558260000180549050836001016000848152602001908152602001600020819055506001905062000281565b600090505b92915050565b600080836001016000848152602001908152602001600020541415905092915050565b610a6780620002ba6000396000f3fe608060405234801561001057600080fd5b50600436106100935760003560e01c806391d148541161006657806391d14854146101d8578063a217fddf1461023c578063ca15c8731461025a578063d547741f1461029c578063ff490d5e146102ea57610093565b8063248a9ca3146100985780632f2ff15d146100da57806336568abe146101285780639010d07c14610176575b600080fd5b6100c4600480360360208110156100ae57600080fd5b8101908080359060200190929190505050610308565b6040518082815260200191505060405180910390f35b610126600480360360408110156100f057600080fd5b8101908080359060200190929190803573ffffffffffffffffffffffffffffffffffffffff169060200190929190505050610327565b005b6101746004803603604081101561013e57600080fd5b8101908080359060200190929190803573ffffffffffffffffffffffffffffffffffffffff1690602001909291905050506103b0565b005b6101ac6004803603604081101561018c57600080fd5b810190808035906020019092919080359060200190929190505050610449565b604051808273ffffffffffffffffffffffffffffffffffffffff16815260200191505060405180910390f35b610224600480360360408110156101ee57600080fd5b8101908080359060200190929190803573ffffffffffffffffffffffffffffffffffffffff16906020019092919050505061047a565b60405180821515815260200191505060405180910390f35b6102446104ab565b6040518082815260200191505060405180910390f35b6102866004803603602081101561027057600080fd5b81019080803590602001909291905050506104b2565b6040518082815260200191505060405180910390f35b6102e8600480360360408110156102b257600080fd5b8101908080359060200190929190803573ffffffffffffffffffffffffffffffffffffffff1690602001909291905050506104d8565b005b6102f2610561565b6040518082815260200191505060405180910390f35b6000806000838152602001908152602001600020600201549050919050565b61034d600080848152602001908152602001600020600201546103486105b5565b61047a565b6103a2576040517f08c379a000000000000000000000000000000000000000000000000000000000815260040180806020018281038252602f8152602001806109a4602f913960400191505060405180910390fd5b6103ac82826105bd565b5050565b6103b86105b5565b73ffffffffffffffffffffffffffffffffffffffff168173ffffffffffffffffffffffffffffffffffffffff161461043b576040517f08c379a000000000000000000000000000000000000000000000000000000000815260040180806020018281038252602f815260200180610a03602f913960400191505060405180910390fd5b6104458282610650565b5050565b6000610472826000808681526020019081526020016000206000016106e390919063ffffffff16565b905092915050565b60006104a3826000808681526020019081526020016000206000016106fd90919063ffffffff16565b905092915050565b6000801b81565b60006104d160008084815260200190815260200160002060000161072d565b9050919050565b6104fe600080848152602001908152602001600020600201546104f96105b5565b61047a565b610553576040517f08c379a00000000000000000000000000000000000000000000000000000000081526004018080602001828103825260308152602001806109d36030913960400191505060405180910390fd5b61055d8282610650565b5050565b7fd01a726e3c29a8c3f1e11dc604364fc90e918d0d6a4c81583749a60ca06abd1681565b60006105ad836000018373ffffffffffffffffffffffffffffffffffffffff1660001b610742565b905092915050565b600033905090565b6105e48160008085815260200190815260200160002060000161058590919063ffffffff16565b1561064c576105f16105b5565b73ffffffffffffffffffffffffffffffffffffffff168173ffffffffffffffffffffffffffffffffffffffff16837f2f8788117e7eff1d82e926ec794901d17c78024a50270940304540a733656f0d60405160405180910390a45b5050565b610677816000808581526020019081526020016000206000016107b290919063ffffffff16565b156106df576106846105b5565b73ffffffffffffffffffffffffffffffffffffffff168173ffffffffffffffffffffffffffffffffffffffff16837ff6391f5c32d9c69d2a47ea670b442974b53935d1edc7fd64eb21e047a839171b60405160405180910390a45b5050565b60006106f283600001836107e2565b60001c905092915050565b6000610725836000018373ffffffffffffffffffffffffffffffffffffffff1660001b610865565b905092915050565b600061073b82600001610888565b9050919050565b600061074e8383610865565b6107a75782600001829080600181540180825580915050600190039060005260206000200160009091909190915055826000018054905083600101600084815260200190815260200160002081905550600190506107ac565b600090505b92915050565b60006107da836000018373ffffffffffffffffffffffffffffffffffffffff1660001b610899565b905092915050565b600081836000018054905011610843576040517f08c379a00000000000000000000000000000000000000000000000000000000081526004018080602001828103825260228152602001806109826022913960400191505060405180910390fd5b82600001828154811061085257fe5b9060005260206000200154905092915050565b600080836001016000848152602001908152602001600020541415905092915050565b600081600001805490509050919050565b6000808360010160008481526020019081526020016000205490506000811461097557600060018203905060006001866000018054905003905060008660000182815481106108e457fe5b906000526020600020015490508087600001848154811061090157fe5b906000526020600020018190555060018301876001016000838152602001908152602001600020819055508660000180548061093957fe5b6001900381819060005260206000200160009055905586600101600087815260200190815260200160002060009055600194505050505061097b565b60009150505b9291505056fe456e756d657261626c655365743a20696e646578206f7574206f6620626f756e6473416363657373436f6e74726f6c3a2073656e646572206d75737420626520616e2061646d696e20746f206772616e74416363657373436f6e74726f6c3a2073656e646572206d75737420626520616e2061646d696e20746f207265766f6b65416363657373436f6e74726f6c3a2063616e206f6e6c792072656e6f756e636520726f6c657320666f722073656c66a26469706673582212203b75c55e6724dfc4c5c7b67a48b6204507ce96c6732590cf57ad6dc9818ed0a664736f6c63430007030033",
  "linkReferences": {},
  "deployedLinkReferences": {}
}