{
  "_format": "hh-sol-artifact-1",
  "contractName": "mockAdmin",
  "sourceName": "contracts/mocks/mockAdmin.sol",
  "abi": [
    {
      "inputs": [
        {
          "internalType": "uint256",
          "name": "c",
          "type": "uint256"
        },
        {
          "internalType": "address",
          "name": "account_",
          "type": "address"
        }
      ],
      "name": "isOperatorOrMinion",
      "outputs": [
        {
          "internalType": "bool",
          "name": "",
          "type": "bool"
        }
      ],
      "stateMutability": "view",
      "type": "function"
    }
  ],
  "bytecode": "0x6080604052348015600f57600080fd5b5060a88061001e6000396000f3fe6080604052348015600f57600080fd5b506004361060285760003560e01c80634ba3d74814602d575b600080fd5b605660048036036040811015604157600080fd5b50803590602001356001600160a01b0316606a565b604080519115158252519081900360200190f35b60019291505056fea2646970667358221220e5766e0b12f5247a8103304603d93534579b78af2a2f7dd21518f6dfd89f28ce64736f6c63430007030033",
  "linkReferences": {},
  "deployedLinkReferences": {}
}