{
  "_format": "hh-sol-artifact-1",
  "contractName": "mockAdmin",
  "sourceName": "contracts/mocks/mockAdmin.sol",
  "abi": [
    {
      "inputs": [
        {
          "internalType": "address",
          "name": "a",
          "type": "address"
        }
      ],
      "name": "addOperator",
      "outputs": [],
      "stateMutability": "nonpayable",
      "type": "function"
    },
    {
      "inputs": [
        {
          "internalType": "uint256",
          "name": "c",
          "type": "uint256"
        },
        {
          "internalType": "address",
          "name": "account_",
          "type": "address"
        }
      ],
      "name": "isOperatorOrMinion",
      "outputs": [
        {
          "internalType": "bool",
          "name": "",
          "type": "bool"
        }
      ],
      "stateMutability": "view",
      "type": "function"
    },
    {
      "inputs": [
        {
          "internalType": "address",
          "name": "",
          "type": "address"
        }
      ],
      "name": "operators",
      "outputs": [
        {
          "internalType": "bool",
          "name": "",
          "type": "bool"
        }
      ],
      "stateMutability": "view",
      "type": "function"
    }
  ],
  "bytecode": "0x608060405234801561001057600080fd5b50610163806100206000396000f3fe608060405234801561001057600080fd5b50600436106100415760003560e01c806313e7c9d8146100465780634ba3d748146100805780639870d7fe146100ac575b600080fd5b61006c6004803603602081101561005c57600080fd5b50356001600160a01b03166100d4565b604080519115158252519081900360200190f35b61006c6004803603604081101561009657600080fd5b50803590602001356001600160a01b03166100e9565b6100d2600480360360208110156100c257600080fd5b50356001600160a01b0316610109565b005b60006020819052908152604090205460ff1681565b6001600160a01b031660009081526020819052604090205460ff16919050565b6001600160a01b03166000908152602081905260409020805460ff1916600117905556fea264697066735822122053c12755a7615cd1e822cd0b6a2e9efa90158cbd7067305c6d1bc57998b5300d64736f6c63430007030033",
  "linkReferences": {},
  "deployedLinkReferences": {}
}