{
  "_format": "hh-sol-artifact-1",
  "contractName": "mockAdmin",
  "sourceName": "contracts/mocks/mockAdmin.sol",
  "abi": [
    {
      "inputs": [
        {
          "internalType": "address",
          "name": "account_",
          "type": "address"
        }
      ],
      "name": "isWorkerOrMinion",
      "outputs": [
        {
          "internalType": "bool",
          "name": "",
          "type": "bool"
        }
      ],
      "stateMutability": "view",
      "type": "function"
    }
  ],
  "bytecode": "0x6080604052348015600f57600080fd5b5060a08061001e6000396000f3fe6080604052348015600f57600080fd5b506004361060285760003560e01c8063c2babfd714602d575b600080fd5b605060048036036020811015604157600080fd5b50356001600160a01b03166064565b604080519115158252519081900360200190f35b5060019056fea26469706673582212207a9403ad15e054e5bb91b3a6dbd92f07be984dfd487cbcdf7ca9f0f80953a2f764736f6c63430007030033",
  "linkReferences": {},
  "deployedLinkReferences": {}
}