{
  "contractName": "bondingSale",
  "abi": [
    {
      "inputs": [
        {
          "internalType": "address",
          "name": "_gameToken",
          "type": "address"
        },
        {
          "internalType": "address",
          "name": "_gameAdmin",
          "type": "address"
        },
        {
          "internalType": "address",
          "name": "_gameMaster",
          "type": "address"
        }
      ],
      "stateMutability": "nonpayable",
      "type": "constructor"
    },
    {
      "anonymous": false,
      "inputs": [
        {
          "indexed": true,
          "internalType": "address",
          "name": "account",
          "type": "address"
        },
        {
          "indexed": true,
          "internalType": "address",
          "name": "operator",
          "type": "address"
        },
        {
          "indexed": false,
          "internalType": "bool",
          "name": "approved",
          "type": "bool"
        }
      ],
      "name": "ApprovalForAll",
      "type": "event"
    },
    {
      "anonymous": false,
      "inputs": [
        {
          "indexed": false,
          "internalType": "address",
          "name": "userAddress",
          "type": "address"
        },
        {
          "indexed": false,
          "internalType": "address payable",
          "name": "relayerAddress",
          "type": "address"
        },
        {
          "indexed": false,
          "internalType": "bytes",
          "name": "functionSignature",
          "type": "bytes"
        }
      ],
      "name": "MetaTransactionExecuted",
      "type": "event"
    },
    {
      "anonymous": false,
      "inputs": [
        {
          "indexed": true,
          "internalType": "bytes32",
          "name": "role",
          "type": "bytes32"
        },
        {
          "indexed": true,
          "internalType": "bytes32",
          "name": "previousAdminRole",
          "type": "bytes32"
        },
        {
          "indexed": true,
          "internalType": "bytes32",
          "name": "newAdminRole",
          "type": "bytes32"
        }
      ],
      "name": "RoleAdminChanged",
      "type": "event"
    },
    {
      "anonymous": false,
      "inputs": [
        {
          "indexed": true,
          "internalType": "bytes32",
          "name": "role",
          "type": "bytes32"
        },
        {
          "indexed": true,
          "internalType": "address",
          "name": "account",
          "type": "address"
        },
        {
          "indexed": true,
          "internalType": "address",
          "name": "sender",
          "type": "address"
        }
      ],
      "name": "RoleGranted",
      "type": "event"
    },
    {
      "anonymous": false,
      "inputs": [
        {
          "indexed": true,
          "internalType": "bytes32",
          "name": "role",
          "type": "bytes32"
        },
        {
          "indexed": true,
          "internalType": "address",
          "name": "account",
          "type": "address"
        },
        {
          "indexed": true,
          "internalType": "address",
          "name": "sender",
          "type": "address"
        }
      ],
      "name": "RoleRevoked",
      "type": "event"
    },
    {
      "anonymous": false,
      "inputs": [
        {
          "indexed": true,
          "internalType": "address",
          "name": "to",
          "type": "address"
        },
        {
          "indexed": false,
          "internalType": "uint256",
          "name": "id",
          "type": "uint256"
        },
        {
          "indexed": false,
          "internalType": "uint256",
          "name": "pricePaid",
          "type": "uint256"
        },
        {
          "indexed": false,
          "internalType": "uint256",
          "name": "nextPrintPrice",
          "type": "uint256"
        },
        {
          "indexed": false,
          "internalType": "uint256",
          "name": "nextBurnPrice",
          "type": "uint256"
        },
        {
          "indexed": false,
          "internalType": "uint256",
          "name": "tokenSupply",
          "type": "uint256"
        },
        {
          "indexed": false,
          "internalType": "uint256",
          "name": "royaltyPaid",
          "type": "uint256"
        },
        {
          "indexed": false,
          "internalType": "uint256",
          "name": "reserve",
          "type": "uint256"
        },
        {
          "indexed": true,
          "internalType": "address",
          "name": "royaltyRecipient",
          "type": "address"
        }
      ],
      "name": "TokenBought",
      "type": "event"
    },
    {
      "anonymous": false,
      "inputs": [
        {
          "indexed": true,
          "internalType": "address",
          "name": "to",
          "type": "address"
        },
        {
          "indexed": false,
          "internalType": "uint256",
          "name": "id",
          "type": "uint256"
        },
        {
          "indexed": false,
          "internalType": "uint256",
          "name": "priceReceived",
          "type": "uint256"
        },
        {
          "indexed": false,
          "internalType": "uint256",
          "name": "nextPrintPrice",
          "type": "uint256"
        },
        {
          "indexed": false,
          "internalType": "uint256",
          "name": "nextBurnPrice",
          "type": "uint256"
        },
        {
          "indexed": false,
          "internalType": "uint256",
          "name": "printsSupply",
          "type": "uint256"
        },
        {
          "indexed": false,
          "internalType": "uint256",
          "name": "reserve",
          "type": "uint256"
        }
      ],
      "name": "TokenBurned",
      "type": "event"
    },
    {
      "anonymous": false,
      "inputs": [
        {
          "indexed": false,
          "internalType": "uint256",
          "name": "tokenId",
          "type": "uint256"
        },
        {
          "indexed": false,
          "internalType": "string",
          "name": "json",
          "type": "string"
        },
        {
          "indexed": false,
          "internalType": "uint256",
          "name": "curve",
          "type": "uint256"
        },
        {
          "indexed": false,
          "internalType": "uint256",
          "name": "multiplier",
          "type": "uint256"
        }
      ],
      "name": "TokenData",
      "type": "event"
    },
    {
      "anonymous": false,
      "inputs": [
        {
          "indexed": false,
          "internalType": "uint256",
          "name": "id",
          "type": "uint256"
        },
        {
          "indexed": false,
          "internalType": "uint256",
          "name": "date",
          "type": "uint256"
        }
      ],
      "name": "TokenOnSale",
      "type": "event"
    },
    {
      "anonymous": false,
      "inputs": [
        {
          "indexed": true,
          "internalType": "address",
          "name": "operator",
          "type": "address"
        },
        {
          "indexed": true,
          "internalType": "address",
          "name": "from",
          "type": "address"
        },
        {
          "indexed": true,
          "internalType": "address",
          "name": "to",
          "type": "address"
        },
        {
          "indexed": false,
          "internalType": "uint256[]",
          "name": "ids",
          "type": "uint256[]"
        },
        {
          "indexed": false,
          "internalType": "uint256[]",
          "name": "values",
          "type": "uint256[]"
        }
      ],
      "name": "TransferBatch",
      "type": "event"
    },
    {
      "anonymous": false,
      "inputs": [
        {
          "indexed": true,
          "internalType": "address",
          "name": "operator",
          "type": "address"
        },
        {
          "indexed": true,
          "internalType": "address",
          "name": "from",
          "type": "address"
        },
        {
          "indexed": true,
          "internalType": "address",
          "name": "to",
          "type": "address"
        },
        {
          "indexed": false,
          "internalType": "uint256",
          "name": "id",
          "type": "uint256"
        },
        {
          "indexed": false,
          "internalType": "uint256",
          "name": "value",
          "type": "uint256"
        }
      ],
      "name": "TransferSingle",
      "type": "event"
    },
    {
      "anonymous": false,
      "inputs": [
        {
          "indexed": false,
          "internalType": "string",
          "name": "value",
          "type": "string"
        },
        {
          "indexed": true,
          "internalType": "uint256",
          "name": "id",
          "type": "uint256"
        }
      ],
      "name": "URI",
      "type": "event"
    },
    {
      "inputs": [],
      "name": "BURNER",
      "outputs": [
        {
          "internalType": "bytes32",
          "name": "",
          "type": "bytes32"
        }
      ],
      "stateMutability": "view",
      "type": "function"
    },
    {
      "inputs": [],
      "name": "CONTRACT_ERC712_NAME",
      "outputs": [
        {
          "internalType": "string",
          "name": "",
          "type": "string"
        }
      ],
      "stateMutability": "view",
      "type": "function"
    },
    {
      "inputs": [],
      "name": "CONTRACT_ERC712_VERSION",
      "outputs": [
        {
          "internalType": "string",
          "name": "",
          "type": "string"
        }
      ],
      "stateMutability": "view",
      "type": "function"
    },
    {
      "inputs": [],
      "name": "DEFAULT_ADMIN_ROLE",
      "outputs": [
        {
          "internalType": "bytes32",
          "name": "",
          "type": "bytes32"
        }
      ],
      "stateMutability": "view",
      "type": "function"
    },
    {
      "inputs": [],
      "name": "EIP712_DOMAIN_TYPEHASH",
      "outputs": [
        {
          "internalType": "bytes32",
          "name": "",
          "type": "bytes32"
        }
      ],
      "stateMutability": "view",
      "type": "function"
    },
    {
      "inputs": [],
      "name": "MAX_PRICE",
      "outputs": [
        {
          "internalType": "uint256",
          "name": "",
          "type": "uint256"
        }
      ],
      "stateMutability": "view",
      "type": "function"
    },
    {
      "inputs": [],
      "name": "METADATA_ADMIN",
      "outputs": [
        {
          "internalType": "bytes32",
          "name": "",
          "type": "bytes32"
        }
      ],
      "stateMutability": "view",
      "type": "function"
    },
    {
      "inputs": [],
      "name": "MINTER",
      "outputs": [
        {
          "internalType": "bytes32",
          "name": "",
          "type": "bytes32"
        }
      ],
      "stateMutability": "view",
      "type": "function"
    },
    {
      "inputs": [
        {
          "internalType": "uint256",
          "name": "",
          "type": "uint256"
        }
      ],
      "name": "TokenSupply",
      "outputs": [
        {
          "internalType": "uint256",
          "name": "",
          "type": "uint256"
        }
      ],
      "stateMutability": "view",
      "type": "function"
    },
    {
      "inputs": [
        {
          "internalType": "uint256",
          "name": "",
          "type": "uint256"
        }
      ],
      "name": "_tokenURIs",
      "outputs": [
        {
          "internalType": "string",
          "name": "",
          "type": "string"
        }
      ],
      "stateMutability": "view",
      "type": "function"
    },
    {
      "inputs": [
        {
          "internalType": "address",
          "name": "account",
          "type": "address"
        },
        {
          "internalType": "uint256",
          "name": "id",
          "type": "uint256"
        }
      ],
      "name": "balanceOf",
      "outputs": [
        {
          "internalType": "uint256",
          "name": "",
          "type": "uint256"
        }
      ],
      "stateMutability": "view",
      "type": "function"
    },
    {
      "inputs": [
        {
          "internalType": "address[]",
          "name": "accounts",
          "type": "address[]"
        },
        {
          "internalType": "uint256[]",
          "name": "ids",
          "type": "uint256[]"
        }
      ],
      "name": "balanceOfBatch",
      "outputs": [
        {
          "internalType": "uint256[]",
          "name": "",
          "type": "uint256[]"
        }
      ],
      "stateMutability": "view",
      "type": "function"
    },
    {
      "inputs": [],
      "name": "burningActive",
      "outputs": [
        {
          "internalType": "bool",
          "name": "",
          "type": "bool"
        }
      ],
      "stateMutability": "view",
      "type": "function"
    },
    {
      "inputs": [
        {
          "internalType": "uint256",
          "name": "",
          "type": "uint256"
        }
      ],
      "name": "curves",
      "outputs": [
        {
          "internalType": "uint256",
          "name": "",
          "type": "uint256"
        }
      ],
      "stateMutability": "view",
      "type": "function"
    },
    {
      "inputs": [
        {
          "internalType": "string",
          "name": "name",
          "type": "string"
        },
        {
          "internalType": "string",
          "name": "version",
          "type": "string"
        }
      ],
      "name": "encodeDomainSeperator",
      "outputs": [
        {
          "internalType": "bytes32",
          "name": "",
          "type": "bytes32"
        }
      ],
      "stateMutability": "view",
      "type": "function"
    },
    {
      "inputs": [
        {
          "internalType": "string",
          "name": "name",
          "type": "string"
        },
        {
          "internalType": "string",
          "name": "version",
          "type": "string"
        }
      ],
      "name": "encodeWorkerDomainSeperator",
      "outputs": [
        {
          "internalType": "bytes32",
          "name": "",
          "type": "bytes32"
        }
      ],
      "stateMutability": "view",
      "type": "function"
    },
    {
      "inputs": [
        {
          "internalType": "address",
          "name": "userAddress",
          "type": "address"
        },
        {
          "internalType": "bytes",
          "name": "functionSignature",
          "type": "bytes"
        },
        {
          "internalType": "bytes32",
          "name": "sigR",
          "type": "bytes32"
        },
        {
          "internalType": "bytes32",
          "name": "sigS",
          "type": "bytes32"
        },
        {
          "internalType": "uint8",
          "name": "sigV",
          "type": "uint8"
        }
      ],
      "name": "executeMetaTransaction",
      "outputs": [
        {
          "internalType": "bytes",
          "name": "",
          "type": "bytes"
        }
      ],
      "stateMutability": "payable",
      "type": "function"
    },
    {
      "inputs": [],
      "name": "gameAdmin",
      "outputs": [
        {
          "internalType": "contract iGAME_Game",
          "name": "",
          "type": "address"
        }
      ],
      "stateMutability": "view",
      "type": "function"
    },
    {
      "inputs": [],
      "name": "gameToken",
      "outputs": [
        {
          "internalType": "contract iGAME_ERC20",
          "name": "",
          "type": "address"
        }
      ],
      "stateMutability": "view",
      "type": "function"
    },
    {
      "inputs": [],
      "name": "getChainId",
      "outputs": [
        {
          "internalType": "uint256",
          "name": "",
          "type": "uint256"
        }
      ],
      "stateMutability": "pure",
      "type": "function"
    },
    {
      "inputs": [],
      "name": "getDomainSeperator",
      "outputs": [
        {
          "internalType": "bytes32",
          "name": "",
          "type": "bytes32"
        }
      ],
      "stateMutability": "view",
      "type": "function"
    },
    {
      "inputs": [
        {
          "internalType": "address",
          "name": "user",
          "type": "address"
        }
      ],
      "name": "getNonce",
      "outputs": [
        {
          "internalType": "uint256",
          "name": "nonce",
          "type": "uint256"
        }
      ],
      "stateMutability": "view",
      "type": "function"
    },
    {
      "inputs": [
        {
          "internalType": "bytes32",
          "name": "role",
          "type": "bytes32"
        }
      ],
      "name": "getRoleAdmin",
      "outputs": [
        {
          "internalType": "bytes32",
          "name": "",
          "type": "bytes32"
        }
      ],
      "stateMutability": "view",
      "type": "function"
    },
    {
      "inputs": [
        {
          "internalType": "bytes32",
          "name": "role",
          "type": "bytes32"
        },
        {
          "internalType": "uint256",
          "name": "index",
          "type": "uint256"
        }
      ],
      "name": "getRoleMember",
      "outputs": [
        {
          "internalType": "address",
          "name": "",
          "type": "address"
        }
      ],
      "stateMutability": "view",
      "type": "function"
    },
    {
      "inputs": [
        {
          "internalType": "bytes32",
          "name": "role",
          "type": "bytes32"
        }
      ],
      "name": "getRoleMemberCount",
      "outputs": [
        {
          "internalType": "uint256",
          "name": "",
          "type": "uint256"
        }
      ],
      "stateMutability": "view",
      "type": "function"
    },
    {
      "inputs": [],
      "name": "getWorkerDomainSeperator",
      "outputs": [
        {
          "internalType": "bytes32",
          "name": "",
          "type": "bytes32"
        }
      ],
      "stateMutability": "view",
      "type": "function"
    },
    {
      "inputs": [
        {
          "internalType": "bytes32",
          "name": "role",
          "type": "bytes32"
        },
        {
          "internalType": "address",
          "name": "account",
          "type": "address"
        }
      ],
      "name": "grantRole",
      "outputs": [],
      "stateMutability": "nonpayable",
      "type": "function"
    },
    {
      "inputs": [
        {
          "internalType": "uint256",
          "name": "id",
          "type": "uint256"
        }
      ],
      "name": "hasMinted",
      "outputs": [
        {
          "internalType": "bool",
          "name": "",
          "type": "bool"
        }
      ],
      "stateMutability": "view",
      "type": "function"
    },
    {
      "inputs": [
        {
          "internalType": "bytes32",
          "name": "role",
          "type": "bytes32"
        },
        {
          "internalType": "address",
          "name": "account",
          "type": "address"
        }
      ],
      "name": "hasRole",
      "outputs": [
        {
          "internalType": "bool",
          "name": "",
          "type": "bool"
        }
      ],
      "stateMutability": "view",
      "type": "function"
    },
    {
      "inputs": [
        {
          "internalType": "address",
          "name": "account",
          "type": "address"
        },
        {
          "internalType": "address",
          "name": "operator",
          "type": "address"
        }
      ],
      "name": "isApprovedForAll",
      "outputs": [
        {
          "internalType": "bool",
          "name": "",
          "type": "bool"
        }
      ],
      "stateMutability": "view",
      "type": "function"
    },
    {
      "inputs": [],
      "name": "isLocalContract",
      "outputs": [
        {
          "internalType": "bool",
          "name": "",
          "type": "bool"
        }
      ],
      "stateMutability": "pure",
      "type": "function"
    },
    {
      "inputs": [],
      "name": "masterContract",
      "outputs": [
        {
          "internalType": "contract iGAME_Master",
          "name": "",
          "type": "address"
        }
      ],
      "stateMutability": "view",
      "type": "function"
    },
    {
      "inputs": [],
      "name": "mintingActive",
      "outputs": [
        {
          "internalType": "bool",
          "name": "",
          "type": "bool"
        }
      ],
      "stateMutability": "view",
      "type": "function"
    },
    {
      "inputs": [],
      "name": "multiple",
      "outputs": [
        {
          "internalType": "uint256",
          "name": "",
          "type": "uint256"
        }
      ],
      "stateMutability": "view",
      "type": "function"
    },
    {
      "inputs": [
        {
          "internalType": "uint256",
          "name": "",
          "type": "uint256"
        }
      ],
      "name": "multipliers",
      "outputs": [
        {
          "internalType": "uint256",
          "name": "",
          "type": "uint256"
        }
      ],
      "stateMutability": "view",
      "type": "function"
    },
    {
      "inputs": [
        {
          "internalType": "uint256",
          "name": "",
          "type": "uint256"
        }
      ],
      "name": "nextTokenIDs",
      "outputs": [
        {
          "internalType": "uint256",
          "name": "",
          "type": "uint256"
        }
      ],
      "stateMutability": "view",
      "type": "function"
    },
    {
      "inputs": [
        {
          "internalType": "bytes32",
          "name": "role",
          "type": "bytes32"
        },
        {
          "internalType": "address",
          "name": "account",
          "type": "address"
        }
      ],
      "name": "renounceRole",
      "outputs": [],
      "stateMutability": "nonpayable",
      "type": "function"
    },
    {
      "inputs": [
        {
          "internalType": "bytes32",
          "name": "role",
          "type": "bytes32"
        },
        {
          "internalType": "address",
          "name": "account",
          "type": "address"
        }
      ],
      "name": "revokeRole",
      "outputs": [],
      "stateMutability": "nonpayable",
      "type": "function"
    },
    {
      "inputs": [
        {
          "internalType": "address",
          "name": "from",
          "type": "address"
        },
        {
          "internalType": "address",
          "name": "to",
          "type": "address"
        },
        {
          "internalType": "uint256[]",
          "name": "ids",
          "type": "uint256[]"
        },
        {
          "internalType": "uint256[]",
          "name": "amounts",
          "type": "uint256[]"
        },
        {
          "internalType": "bytes",
          "name": "data",
          "type": "bytes"
        }
      ],
      "name": "safeBatchTransferFrom",
      "outputs": [],
      "stateMutability": "nonpayable",
      "type": "function"
    },
    {
      "inputs": [
        {
          "internalType": "address",
          "name": "from",
          "type": "address"
        },
        {
          "internalType": "address",
          "name": "to",
          "type": "address"
        },
        {
          "internalType": "uint256",
          "name": "id",
          "type": "uint256"
        },
        {
          "internalType": "uint256",
          "name": "amount",
          "type": "uint256"
        },
        {
          "internalType": "bytes",
          "name": "data",
          "type": "bytes"
        }
      ],
      "name": "safeTransferFrom",
      "outputs": [],
      "stateMutability": "nonpayable",
      "type": "function"
    },
    {
      "inputs": [
        {
          "internalType": "uint256",
          "name": "",
          "type": "uint256"
        }
      ],
      "name": "saleStarts",
      "outputs": [
        {
          "internalType": "uint256",
          "name": "",
          "type": "uint256"
        }
      ],
      "stateMutability": "view",
      "type": "function"
    },
    {
      "inputs": [
        {
          "internalType": "address",
          "name": "operator",
          "type": "address"
        },
        {
          "internalType": "bool",
          "name": "approved",
          "type": "bool"
        }
      ],
      "name": "setApprovalForAll",
      "outputs": [],
      "stateMutability": "nonpayable",
      "type": "function"
    },
    {
      "inputs": [
        {
          "internalType": "string",
          "name": "newuri",
          "type": "string"
        }
      ],
      "name": "setBaseURI",
      "outputs": [],
      "stateMutability": "nonpayable",
      "type": "function"
    },
    {
      "inputs": [
        {
          "internalType": "string",
          "name": "newuri",
          "type": "string"
        },
        {
          "internalType": "uint256",
          "name": "id",
          "type": "uint256"
        }
      ],
      "name": "setURI",
      "outputs": [],
      "stateMutability": "nonpayable",
      "type": "function"
    },
    {
      "inputs": [
        {
          "internalType": "bytes4",
          "name": "interfaceId",
          "type": "bytes4"
        }
      ],
      "name": "supportsInterface",
      "outputs": [
        {
          "internalType": "bool",
          "name": "",
          "type": "bool"
        }
      ],
      "stateMutability": "view",
      "type": "function"
    },
    {
      "inputs": [
        {
          "internalType": "uint256",
          "name": "tokenid",
          "type": "uint256"
        }
      ],
      "name": "uri",
      "outputs": [
        {
          "internalType": "string",
          "name": "",
          "type": "string"
        }
      ],
      "stateMutability": "view",
      "type": "function"
    },
    {
      "inputs": [
        {
          "internalType": "address",
          "name": "userAddress_",
          "type": "address"
        },
        {
          "internalType": "bytes32",
          "name": "replayPrevention_",
          "type": "bytes32"
        },
        {
          "internalType": "bytes",
          "name": "functionSignature_",
          "type": "bytes"
        },
        {
          "internalType": "bytes32",
          "name": "sigR_",
          "type": "bytes32"
        },
        {
          "internalType": "bytes32",
          "name": "sigS_",
          "type": "bytes32"
        },
        {
          "internalType": "uint8",
          "name": "sigV_",
          "type": "uint8"
        }
      ],
      "name": "workerExecuteMetaTransaction",
      "outputs": [
        {
          "internalType": "bytes",
          "name": "",
          "type": "bytes"
        }
      ],
      "stateMutability": "payable",
      "type": "function"
    },
    {
      "inputs": [],
      "name": "toggleTokenMinting",
      "outputs": [],
      "stateMutability": "nonpayable",
      "type": "function"
    },
    {
      "inputs": [
        {
          "internalType": "address",
          "name": "contract_",
          "type": "address"
        },
        {
          "internalType": "bool",
          "name": "isLocal_",
          "type": "bool"
        }
      ],
      "name": "updateLocalContract",
      "outputs": [],
      "stateMutability": "nonpayable",
      "type": "function"
    },
    {
      "inputs": [],
      "name": "toggleTokenBurning",
      "outputs": [],
      "stateMutability": "nonpayable",
      "type": "function"
    },
    {
      "inputs": [
        {
          "internalType": "uint256",
          "name": "creator",
          "type": "uint256"
        }
      ],
      "name": "getNextTokenID",
      "outputs": [
        {
          "internalType": "uint256",
          "name": "",
          "type": "uint256"
        }
      ],
      "stateMutability": "view",
      "type": "function"
    },
    {
      "inputs": [
        {
          "internalType": "uint256",
          "name": "_creatorID",
          "type": "uint256"
        },
        {
          "internalType": "uint256",
          "name": "token",
          "type": "uint256"
        }
      ],
      "name": "getTokenID",
      "outputs": [
        {
          "internalType": "uint256",
          "name": "",
          "type": "uint256"
        }
      ],
      "stateMutability": "view",
      "type": "function"
    },
    {
      "inputs": [
        {
          "internalType": "address",
          "name": "a",
          "type": "address"
        }
      ],
      "name": "setFEERECEIVER",
      "outputs": [],
      "stateMutability": "nonpayable",
      "type": "function"
    },
    {
      "inputs": [
        {
          "internalType": "uint256",
          "name": "tokenId",
          "type": "uint256"
        }
      ],
      "name": "getBuyPrice",
      "outputs": [
        {
          "internalType": "uint256",
          "name": "",
          "type": "uint256"
        }
      ],
      "stateMutability": "view",
      "type": "function"
    },
    {
      "inputs": [
        {
          "internalType": "uint256",
          "name": "tokenId",
          "type": "uint256"
        }
      ],
      "name": "getSellPrice",
      "outputs": [
        {
          "internalType": "uint256",
          "name": "",
          "type": "uint256"
        }
      ],
      "stateMutability": "view",
      "type": "function"
    },
    {
      "inputs": [
        {
          "internalType": "uint256",
          "name": "tokenId",
          "type": "uint256"
        },
        {
          "internalType": "uint256",
          "name": "printNumber",
          "type": "uint256"
        }
      ],
      "name": "getPrintPrice",
      "outputs": [
        {
          "internalType": "uint256",
          "name": "",
          "type": "uint256"
        }
      ],
      "stateMutability": "view",
      "type": "function"
    },
    {
      "inputs": [
        {
          "internalType": "uint256",
          "name": "creatorId",
          "type": "uint256"
        },
        {
          "internalType": "string",
          "name": "json",
          "type": "string"
        },
        {
          "internalType": "uint256",
          "name": "curve",
          "type": "uint256"
        },
        {
          "internalType": "uint256",
          "name": "multiplier",
          "type": "uint256"
        }
      ],
      "name": "CreateToken",
      "outputs": [],
      "stateMutability": "nonpayable",
      "type": "function"
    },
    {
      "inputs": [
        {
          "internalType": "uint256",
          "name": "tokenId",
          "type": "uint256"
        },
        {
          "internalType": "string",
          "name": "json",
          "type": "string"
        },
        {
          "internalType": "uint256",
          "name": "curve",
          "type": "uint256"
        },
        {
          "internalType": "uint256",
          "name": "multiplier",
          "type": "uint256"
        }
      ],
      "name": "UpdateTokenData",
      "outputs": [],
      "stateMutability": "nonpayable",
      "type": "function"
    },
    {
      "inputs": [
        {
          "internalType": "uint256",
          "name": "tokenId",
          "type": "uint256"
        },
        {
          "internalType": "uint256",
          "name": "onSaleDate",
          "type": "uint256"
        }
      ],
      "name": "SetTokenOnSaleDate",
      "outputs": [],
      "stateMutability": "nonpayable",
      "type": "function"
    },
    {
      "inputs": [
        {
          "internalType": "uint256",
          "name": "tokenId",
          "type": "uint256"
        },
        {
          "internalType": "uint256",
          "name": "maxPrice",
          "type": "uint256"
        }
      ],
      "name": "buyNFTwithGAME",
      "outputs": [],
      "stateMutability": "nonpayable",
      "type": "function"
    },
    {
      "inputs": [
        {
          "internalType": "uint256",
          "name": "tokenId",
          "type": "uint256"
        }
      ],
      "name": "burn",
      "outputs": [],
      "stateMutability": "nonpayable",
      "type": "function"
    }
  ],
  "bytecode": "0x60806040526003600f55670de0b6b3a76400006010556ec097ce7bc90715b34b9f100000000060115562989680601c553480156200003c57600080fd5b5060405162005e6b38038062005e6b833981810160405260608110156200006257600080fd5b50805160208083015160409384015184518086018652601381527f47414d4520426f6e64696e672043757276657300000000000000000000000000818501528551808701875260018152603160f81b81860152865180880190975260048752631d195cdd60e21b94870194909452939491939092909182908290620000ee6301ffc9a760e01b62000245565b62000100636cdb3d1360e11b62000245565b620001126303a24d0760e21b62000245565b62000128600062000122620002ca565b620002ce565b6200014660008051602062005df983398151915262000122620002ca565b6200016460008051602062005dd983398151915262000122620002ca565b62000180600060008051602062005dd9833981519152620002de565b6200019c600060008051602062005df9833981519152620002de565b8051620001b1906006906020840190620005aa565b50620001c09050828262000330565b600855620001cf828262000409565b60095550508051620001e990600b906020840190620005aa565b508151620001ff90600c906020850190620005aa565b5050601380546001600160a01b039586166001600160a01b0319918216179091556014805494861694821694909417909355506015805491909316911617905562000646565b6001600160e01b03198082161415620002a5576040805162461bcd60e51b815260206004820152601c60248201527f4552433136353a20696e76616c696420696e7465726661636520696400000000604482015290519081900360640190fd5b6001600160e01b0319166000908152602081905260409020805460ff19166001179055565b3390565b620002da8282620004a6565b5050565b600082815260056020526040808220600201549051839285917fbd79b86ffe0ab8e8776151514217cd7cacd52c909f66475c3af44e129f0b00ff9190a460009182526005602052604090912060020155565b6000806200033d62000521565b90508062000392576040805162461bcd60e51b815260206004820152601960248201527f636861696e204944206d757374206e6f74206265207a65726f00000000000000604482015290519081900360640190fd5b60405180608001604052806052815260200162005e19605291398051602091820120855186830120855186840120604080518086019490945283810192909252606083015260808201939093523060a0808301919091528351808303909101815260c0909101909252815191012090505b92915050565b6000806200041662000521565b90508060891480620004285750806001145b6200044a578062013881146200044157617a6962000444565b60055b6200044d565b60015b61ffff1690508062000392576040805162461bcd60e51b815260206004820152601960248201527f636861696e204944206d757374206e6f74206265207a65726f00000000000000604482015290519081900360640190fd5b6000828152600560209081526040909120620004cd9183906200403662000525821b17901c565b15620002da57620004dd620002ca565b6001600160a01b0316816001600160a01b0316837f2f8788117e7eff1d82e926ec794901d17c78024a50270940304540a733656f0d60405160405180910390a45050565b4690565b60006200053c836001600160a01b03841662000543565b9392505050565b600062000551838362000592565b620005895750815460018181018455600084815260208082209093018490558454848252828601909352604090209190915562000403565b50600062000403565b60009081526001919091016020526040902054151590565b828054600181600116156101000203166002900490600052602060002090601f016020900481019282601f10620005ed57805160ff19168380011785556200061d565b828001600101855582156200061d579182015b828111156200061d57825182559160200191906001019062000600565b506200062b9291506200062f565b5090565b5b808211156200062b576000815560010162000630565b61578380620006566000396000f3fe6080604052600436106103a15760003560e01c80634e1273f4116101e7578063b1de303e1161010d578063d547741f116100a0578063ec7982571161006f578063ec798257146115aa578063f242432a146115d4578063f40c96ab146116ac578063fe6d8124146116c1576103a1565b8063d547741f146114f7578063e1a1a66c14611530578063e5b9559514611545578063e985e9c51461156f576103a1565b8063c707562d116100dc578063c707562d14611473578063c7977be7146114a3578063ca15c873146114b8578063cd446e22146114e2576103a1565b8063b1de303e14611360578063ba730e5314611375578063ba84be071461139f578063c3dfdae61461145e576103a1565b806376adcba511610185578063a217fddf11610154578063a217fddf1461121d578063a22cb46514611232578063ac7fc2631461126d578063ad2ded2b14611297576103a1565b806376adcba5146111595780638749474f1461118a5780639010d07c146111b457806391d14854146111e4576103a1565b8063654d1333116101c1578063654d133314610e9657806367db3b8f14610f555780636d4b99e01461100a578063765d6cce14611144576103a1565b80634e1273f414610c2457806355f804b314610da85780635958b30114610e5b576103a1565b806321c7cf4d116102cc5780632f2ff15d1161026a5780633d242655116102395780633d24265514610b915780633f89730014610bbb57806342966c6814610be5578063437a8ae614610c0f576103a1565b80632f2ff15d14610af557806331f9c91914610b2e5780633408e47014610b4357806336568abe14610b58576103a1565b806327430a42116102a657806327430a42146107845780632b606d2c146108be5780632d0335ab146108ee5780632eb2c2d614610921576103a1565b806321c7cf4d14610730578063248a9ca31461074557806326150e951461076f576103a1565b8063118c4f13116103445780631bf7d749116103135780631bf7d749146106a95780631c7c2598146106d35780631d84003f146106e857806320379ee51461071b576103a1565b8063118c4f131461061d5780631490185c14610632578063161e650d14610662578063186d443214610677576103a1565b806308d4db141161038057806308d4db14146104665780630bb78ec1146104905780630c53c51c1461052f5780630e89341c146105f3576103a1565b8062fdd58e146103a657806301c11d96146103f157806301ffc9a714610406575b600080fd5b3480156103b257600080fd5b506103df600480360360408110156103c957600080fd5b506001600160a01b0381351690602001356116d6565b60408051918252519081900360200190f35b3480156103fd57600080fd5b506103df611748565b34801561041257600080fd5b506104526004803603602081101561042957600080fd5b50357fffffffff000000000000000000000000000000000000000000000000000000001661174e565b604080519115158252519081900360200190f35b34801561047257600080fd5b506103df6004803603602081101561048957600080fd5b5035611789565b34801561049c57600080fd5b506104ba600480360360208110156104b357600080fd5b50356117ac565b6040805160208082528351818301528351919283929083019185019080838360005b838110156104f45781810151838201526020016104dc565b50505050905090810190601f1680156105215780820380516001836020036101000a031916815260200191505b509250505060405180910390f35b6104ba600480360360a081101561054557600080fd5b6001600160a01b03823516919081019060408101602082013564010000000081111561057057600080fd5b82018360208201111561058257600080fd5b803590602001918460018302840111640100000000831117156105a457600080fd5b91908080601f016020809104026020016040519081016040528093929190818152602001838380828437600092019190915250929550508235935050506020810135906040013560ff16611847565b3480156105ff57600080fd5b506104ba6004803603602081101561061657600080fd5b5035611b54565b34801561062957600080fd5b506103df611db8565b34801561063e57600080fd5b506103df6004803603604081101561065557600080fd5b5080359060200135611ddc565b34801561066e57600080fd5b506103df611de7565b34801561068357600080fd5b506106a76004803603604081101561069a57600080fd5b5080359060200135611dee565b005b3480156106b557600080fd5b506103df600480360360208110156106cc57600080fd5b50356122e6565b3480156106df57600080fd5b506104526122f8565b3480156106f457600080fd5b506106a76004803603602081101561070b57600080fd5b50356001600160a01b0316612306565b34801561072757600080fd5b506103df612354565b34801561073c57600080fd5b506106a761235a565b34801561075157600080fd5b506103df6004803603602081101561076857600080fd5b50356123a8565b34801561077b57600080fd5b506106a76123bd565b34801561079057600080fd5b506103df600480360360408110156107a757600080fd5b8101906020810181356401000000008111156107c257600080fd5b8201836020820111156107d457600080fd5b803590602001918460018302840111640100000000831117156107f657600080fd5b91908080601f016020809104026020016040519081016040528093929190818152602001838380828437600092019190915250929594936020810193503591505064010000000081111561084957600080fd5b82018360208201111561085b57600080fd5b8035906020019184600183028401116401000000008311171561087d57600080fd5b91908080601f016020809104026020016040519081016040528093929190818152602001838380828437600092019190915250929550612403945050505050565b3480156108ca57600080fd5b506103df600480360360408110156108e157600080fd5b508035906020013561250d565b3480156108fa57600080fd5b506103df6004803603602081101561091157600080fd5b50356001600160a01b03166125a2565b34801561092d57600080fd5b506106a7600480360360a081101561094457600080fd5b6001600160a01b03823581169260208101359091169181019060608101604082013564010000000081111561097857600080fd5b82018360208201111561098a57600080fd5b803590602001918460208302840111640100000000831117156109ac57600080fd5b91908080602002602001604051908101604052809392919081815260200183836020028082843760009201919091525092959493602081019350359150506401000000008111156109fc57600080fd5b820183602082011115610a0e57600080fd5b80359060200191846020830284011164010000000083111715610a3057600080fd5b9190808060200260200160405190810160405280939291908181526020018383602002808284376000920191909152509295949360208101935035915050640100000000811115610a8057600080fd5b820183602082011115610a9257600080fd5b80359060200191846001830284011164010000000083111715610ab457600080fd5b91908080601f0160208091040260200160405190810160405280939291908181526020018383808284376000920191909152509295506125bd945050505050565b348015610b0157600080fd5b506106a760048036036040811015610b1857600080fd5b50803590602001356001600160a01b03166128bb565b348015610b3a57600080fd5b50610452612927565b348015610b4f57600080fd5b506103df612930565b348015610b6457600080fd5b506106a760048036036040811015610b7b57600080fd5b50803590602001356001600160a01b0316612934565b348015610b9d57600080fd5b506103df60048036036020811015610bb457600080fd5b5035612995565b348015610bc757600080fd5b506103df60048036036020811015610bde57600080fd5b50356129a7565b348015610bf157600080fd5b506106a760048036036020811015610c0857600080fd5b50356129b9565b348015610c1b57600080fd5b506103df612c2e565b348015610c3057600080fd5b50610d5860048036036040811015610c4757600080fd5b810190602081018135640100000000811115610c6257600080fd5b820183602082011115610c7457600080fd5b80359060200191846020830284011164010000000083111715610c9657600080fd5b9190808060200260200160405190810160405280939291908181526020018383602002808284376000920191909152509295949360208101935035915050640100000000811115610ce657600080fd5b820183602082011115610cf857600080fd5b80359060200191846020830284011164010000000083111715610d1a57600080fd5b919080806020026020016040519081016040528093929190818152602001838360200280828437600092019190915250929550612c34945050505050565b60408051602080825283518183015283519192839290830191858101910280838360005b83811015610d94578181015183820152602001610d7c565b505050509050019250505060405180910390f35b348015610db457600080fd5b506106a760048036036020811015610dcb57600080fd5b810190602081018135640100000000811115610de657600080fd5b820183602082011115610df857600080fd5b80359060200191846001830284011164010000000083111715610e1a57600080fd5b91908080601f016020809104026020016040519081016040528093929190818152602001838380828437600092019190915250929550612db2945050505050565b348015610e6757600080fd5b506106a760048036036040811015610e7e57600080fd5b506001600160a01b0381351690602001351515612923565b348015610ea257600080fd5b506106a760048036036080811015610eb957600080fd5b81359190810190604081016020820135640100000000811115610edb57600080fd5b820183602082011115610eed57600080fd5b80359060200191846001830284011164010000000083111715610f0f57600080fd5b91908080601f0160208091040260200160405190810160405280939291908181526020018383808284376000920191909152509295505082359350505060200135612df8565b348015610f6157600080fd5b506106a760048036036040811015610f7857600080fd5b810190602081018135640100000000811115610f9357600080fd5b820183602082011115610fa557600080fd5b80359060200191846001830284011164010000000083111715610fc757600080fd5b91908080601f016020809104026020016040519081016040528093929190818152602001838380828437600092019190915250929550509135925061311b915050565b34801561101657600080fd5b506103df6004803603604081101561102d57600080fd5b81019060208101813564010000000081111561104857600080fd5b82018360208201111561105a57600080fd5b8035906020019184600183028401116401000000008311171561107c57600080fd5b91908080601f01602080910402602001604051908101604052809392919081815260200183838082843760009201919091525092959493602081019350359150506401000000008111156110cf57600080fd5b8201836020820111156110e157600080fd5b8035906020019184600183028401116401000000008311171561110357600080fd5b91908080601f016020809104026020016040519081016040528093929190818152602001838380828437600092019190915250929550613172945050505050565b34801561115057600080fd5b506104526131d1565b34801561116557600080fd5b5061116e6131d6565b604080516001600160a01b039092168252519081900360200190f35b34801561119657600080fd5b506103df600480360360208110156111ad57600080fd5b50356131e5565b3480156111c057600080fd5b5061116e600480360360408110156111d757600080fd5b50803590602001356131f7565b3480156111f057600080fd5b506104526004803603604081101561120757600080fd5b50803590602001356001600160a01b031661320f565b34801561122957600080fd5b506103df613227565b34801561123e57600080fd5b506106a76004803603604081101561125557600080fd5b506001600160a01b038135169060200135151561322c565b34801561127957600080fd5b506103df6004803603602081101561129057600080fd5b5035613339565b6104ba600480360360c08110156112ad57600080fd5b6001600160a01b03823516916020810135918101906060810160408201356401000000008111156112dd57600080fd5b8201836020820111156112ef57600080fd5b8035906020019184600183028401116401000000008311171561131157600080fd5b91908080601f016020809104026020016040519081016040528093929190818152602001838380828437600092019190915250929550508235935050506020810135906040013560ff1661334b565b34801561136c57600080fd5b506103df6136fa565b34801561138157600080fd5b506103df6004803603602081101561139857600080fd5b503561371e565b3480156113ab57600080fd5b506106a7600480360360808110156113c257600080fd5b813591908101906040810160208201356401000000008111156113e457600080fd5b8201836020820111156113f657600080fd5b8035906020019184600183028401116401000000008311171561141857600080fd5b91908080601f0160208091040260200160405190810160405280939291908181526020018383808284376000920191909152509295505082359350505060200135613741565b34801561146a57600080fd5b5061116e613a88565b34801561147f57600080fd5b506106a76004803603604081101561149657600080fd5b5080359060200135613a97565b3480156114af57600080fd5b506103df613c9a565b3480156114c457600080fd5b506103df600480360360208110156114db57600080fd5b5035613cbd565b3480156114ee57600080fd5b5061116e613cd4565b34801561150357600080fd5b506106a76004803603604081101561151a57600080fd5b50803590602001356001600160a01b0316613ce3565b34801561153c57600080fd5b506104ba613d3c565b34801561155157600080fd5b506104526004803603602081101561156857600080fd5b5035613d97565b34801561157b57600080fd5b506104526004803603604081101561159257600080fd5b506001600160a01b0381358116916020013516613dac565b3480156115b657600080fd5b506103df600480360360208110156115cd57600080fd5b5035613dda565b3480156115e057600080fd5b506106a7600480360360a08110156115f757600080fd5b6001600160a01b03823581169260208101359091169160408201359160608101359181019060a08101608082013564010000000081111561163757600080fd5b82018360208201111561164957600080fd5b8035906020019184600183028401116401000000008311171561166b57600080fd5b91908080601f016020809104026020016040519081016040528093929190818152602001838380828437600092019190915250929550613dec945050505050565b3480156116b857600080fd5b506104ba613fb7565b3480156116cd57600080fd5b506103df614012565b60006001600160a01b03831661171d5760405162461bcd60e51b815260040180806020018281038252602b815260200180615377602b913960400191505060405180910390fd5b5060008181526001602090815260408083206001600160a01b03861684529091529020545b92915050565b60115481565b7fffffffff00000000000000000000000000000000000000000000000000000000811660009081526020819052604090205460ff165b919050565b6000818152601860205260408120546117a5836001830161250d565b9392505050565b60076020908152600091825260409182902080548351601f60026000196101006001861615020190931692909204918201849004840281018401909452808452909183018282801561183f5780601f106118145761010080835404028352916020019161183f565b820191906000526020600020905b81548152906001019060200180831161182257829003601f168201915b505050505081565b6060611851615103565b50604080516060810182526001600160a01b0388166000818152600a60209081529084902054835282015290810186905261188f878287878761404b565b6118ca5760405162461bcd60e51b81526004018080602001828103825260218152602001806156216021913960400191505060405180910390fd5b6001600160a01b0387166000908152600a60205260409020546118ee9060016140f3565b600a6000896001600160a01b03166001600160a01b03168152602001908152602001600020819055507f5845892132946850460bff5a0083f71031bc5bf9aadcd40f1de79423eac9b10b87338860405180846001600160a01b03168152602001836001600160a01b0316815260200180602001828103825283818151815260200191508051906020019080838360005b8381101561199657818101518382015260200161197e565b50505050905090810190601f1680156119c35780820380516001836020036101000a031916815260200191505b5094505050505060405180910390a160006060306001600160a01b0316888a6040516020018083805190602001908083835b60208310611a145780518252601f1990920191602091820191016119f5565b6001836020036101000a038019825116818451168082178552505050505050905001826001600160a01b031660601b8152601401925050506040516020818303038152906040526040518082805190602001908083835b60208310611a8a5780518252601f199092019160209182019101611a6b565b6001836020036101000a0380198251168184511680821785525050505050509050019150506000604051808303816000865af19150503d8060008114611aec576040519150601f19603f3d011682016040523d82523d6000602084013e611af1565b606091505b509150915081611b48576040805162461bcd60e51b815260206004820152601c60248201527f46756e6374696f6e2063616c6c206e6f74207375636365737366756c00000000604482015290519081900360640190fd5b98975050505050505050565b6000818152600760209081526040918290208054835160026001831615610100026000190190921691909104601f81018490048402820184019094528381526060938493919291830182828015611bec5780601f10611bc157610100808354040283529160200191611bec565b820191906000526020600020905b815481529060010190602001808311611bcf57829003601f168201915b505060065493945050505060026000196101006001841615020190911604611c15579050611784565b805115611ce6576006816040516020018083805460018160011615610100020316600290048015611c7d5780601f10611c5b576101008083540402835291820191611c7d565b820191906000526020600020905b815481529060010190602001808311611c69575b5050825160208401908083835b60208310611ca95780518252601f199092019160209182019101611c8a565b6001836020036101000a03801982511681845116808217855250505050505090500192505050604051602081830303815290604052915050611784565b6006611cf18461414d565b6040516020018083805460018160011615610100020316600290048015611d4f5780601f10611d2d576101008083540402835291820191611d4f565b820191906000526020600020905b815481529060010190602001808311611d3b575b5050825160208401908083835b60208310611d7b5780518252601f199092019160209182019101611d5c565b6001836020036101000a03801982511681845116808217855250505050505090500192505050604051602081830303815290604052915050919050565b7f9667e80708b6eeeb0053fa0cca44e028ff548e2a9f029edfeac87c118b08b7c881565b601054919091020190565b6009545b90565b600e5460ff16611e45576040805162461bcd60e51b815260206004820152601560248201527f6d696e74696e67206973206e6f74206163746976650000000000000000000000604482015290519081900360640190fd5b60008281526017602052604090205442118015611e6f575060008281526017602052604090205415155b611ec0576040805162461bcd60e51b815260206004820152601860248201527f73616c6520686173206e6f742073746172746564207965740000000000000000604482015290519081900360640190fd5b43601b6000611ecd61425c565b6001600160a01b03166001600160a01b031681526020019081526020016000205410611ef857600080fd5b43601b6000611f0561425c565b6001600160a01b03166001600160a01b031681526020019081526020016000208190555060006010548381611f3657fe5b0490506000611f4484611789565b9050600081118015611f565750828111155b611fa7576040805162461bcd60e51b815260206004820152600d60248201527f696e76616c696420707269636500000000000000000000000000000000000000604482015290519081900360640190fd5b6000848152601860205260409020805460010190556013546001600160a01b031663e2b8e7d3611fd561425c565b30846040518463ffffffff1660e01b815260040180846001600160a01b03168152602001836001600160a01b031681526020018281526020019350505050600060405180830381600087803b15801561202d57600080fd5b505af1158015612041573d6000803e3d6000fd5b50505050600061205b60328361426090919063ffffffff16565b90506000612075606461206f8560086142a2565b90614260565b905061209a61208261425c565b876001604051806020016040528060008152506142fb565b836001600160a01b03166120ac61425c565b6001600160a01b03167fa8f60c2735df0121f6c1fb70fdc37e927e3b21f7266de2beeace3ed35b8634d088866120e18b611789565b6120ea8c61371e565b60008d8152601860209081526040918290205460135483517f70a08231000000000000000000000000000000000000000000000000000000008152306004820152935191938c936001600160a01b03909216926370a0823192602480840193919291829003018186803b15801561216057600080fd5b505afa158015612174573d6000803e3d6000fd5b505050506040513d602081101561218a57600080fd5b5051604080519788526020880196909652868601949094526060860192909252608085015260a084015260c0830152519081900360e00190a3601354601254604080517fe2b8e7d30000000000000000000000000000000000000000000000000000000081523060048201526001600160a01b039283166024820152604481018690529051919092169163e2b8e7d391606480830192600092919082900301818387803b15801561223a57600080fd5b505af115801561224e573d6000803e3d6000fd5b5050601354604080517fe2b8e7d30000000000000000000000000000000000000000000000000000000081523060048201526001600160a01b03898116602483015260448201879052915191909216935063e2b8e7d39250606480830192600092919082900301818387803b1580156122c657600080fd5b505af11580156122da573d6000803e3d6000fd5b50505050505050505050565b60166020526000908152604090205481565b600e54610100900460ff1681565b61231160003361320f565b61231a57600080fd5b601280547fffffffffffffffffffffffff0000000000000000000000000000000000000000166001600160a01b0392909216919091179055565b60085490565b61236560003361320f565b61236e57600080fd5b600e80547fffffffffffffffffffffffffffffffffffffffffffffffffffffffffffff00ff81166101009182900460ff1615909102179055565b60009081526005602052604090206002015490565b6123c860003361320f565b6123d157600080fd5b600e80547fffffffffffffffffffffffffffffffffffffffffffffffffffffffffffffff00811660ff90911615179055565b60008061240e612930565b9050806089148061241f5750806001145b61243d5780620138811461243557617a69612438565b60055b612440565b60015b61ffff16905080612498576040805162461bcd60e51b815260206004820152601960248201527f636861696e204944206d757374206e6f74206265207a65726f00000000000000604482015290519081900360640190fd5b604051806080016040528060528152602001615537605291398051602091820120855186830120855186840120604080518086019490945283810192909252606083015260808201939093523060a0808301919091528351808303909101815260c09091019092528151910120905092915050565b6000828152601660209081526040808320546019909252822054600f54600a0a603284612545600986900a61206f60038a0a866142a2565b905061255f6125588661206f8a876142a2565b82906140f3565b905061256e61255883856142a2565b905061258a6103e861206f86612584858a614260565b906142a2565b9050611b488361206f83670de0b6b3a76400006142a2565b6001600160a01b03166000908152600a602052604090205490565b81518351146125fd5760405162461bcd60e51b81526004018080602001828103825260288152602001806156d66028913960400191505060405180910390fd5b6001600160a01b0384166126425760405162461bcd60e51b81526004018080602001828103825260258152602001806154936025913960400191505060405180910390fd5b61264a61425c565b6001600160a01b0316856001600160a01b0316148061267557506126758561267061425c565b613dac565b6126b05760405162461bcd60e51b81526004018080602001828103825260328152602001806154b86032913960400191505060405180910390fd5b60006126ba61425c565b90506126ca818787878787614451565b60005b84518110156127cb5760008582815181106126e457fe5b6020026020010151905060008583815181106126fc57fe5b60200260200101519050612769816040518060600160405280602a815260200161550d602a91396001600086815260200190815260200160002060008d6001600160a01b03166001600160a01b03168152602001908152602001600020546145699092919063ffffffff16565b60008381526001602090815260408083206001600160a01b038e811685529252808320939093558a16815220546127a090826140f3565b60009283526001602081815260408086206001600160a01b038d1687529091529093205550016126cd565b50846001600160a01b0316866001600160a01b0316826001600160a01b03167f4a39dc06d4c0dbc64b70af90fd698a233a518aa5d07e595d983b8c0526c8f7fb8787604051808060200180602001838103835285818151815260200191508051906020019060200280838360005b83811015612851578181015183820152602001612839565b50505050905001838103825284818151815260200191508051906020019060200280838360005b83811015612890578181015183820152602001612878565b5050505090500194505050505060405180910390a46128b3818787878787614600565b505050505050565b6000828152600560205260409020600201546128de906128d961425c565b61320f565b6129195760405162461bcd60e51b815260040180806020018281038252602f815260200180615327602f913960400191505060405180910390fd5b61292382826148a7565b5050565b600e5460ff1681565b4690565b61293c61425c565b6001600160a01b0316816001600160a01b03161461298b5760405162461bcd60e51b815260040180806020018281038252602f81526020018061571f602f913960400191505060405180910390fd5b6129238282614910565b60186020526000908152604090205481565b601a6020526000908152604090205481565b600e54610100900460ff16612a15576040805162461bcd60e51b815260206004820152601560248201527f6275726e696e67206973206e6f74206163746976650000000000000000000000604482015290519081900360640190fd5b6001612a2133836116d6565b1015612a5e5760405162461bcd60e51b81526004018080602001828103825260238152602001806155896023913960400191505060405180910390fd5b6000612a698261371e565b600083815260186020526040902080546000190190559050612a94612a8c61425c565b836001614979565b612a9c61425c565b6001600160a01b03167f7f189ad2df0843ce2bba34028497b567ecb15a53dbfb381e8b7a3f1d5ca87d718383612ad186611789565b612ada8761371e565b6000888152601860209081526040918290205460135483517f70a08231000000000000000000000000000000000000000000000000000000008152306004820152935191936001600160a01b03909116926370a0823192602480840193829003018186803b158015612b4b57600080fd5b505afa158015612b5f573d6000803e3d6000fd5b505050506040513d6020811015612b7557600080fd5b5051604080519687526020870195909552858501939093526060850191909152608084015260a0830152519081900360c00190a26013546001600160a01b031663e2b8e7d330612bc361425c565b846040518463ffffffff1660e01b815260040180846001600160a01b03168152602001836001600160a01b031681526020018281526020019350505050600060405180830381600087803b158015612c1a57600080fd5b505af11580156128b3573d6000803e3d6000fd5b601c5481565b60608151835114612c765760405162461bcd60e51b81526004018080602001828103825260298152602001806156ad6029913960400191505060405180910390fd5b6060835167ffffffffffffffff81118015612c9057600080fd5b50604051908082528060200260200182016040528015612cba578160200160208202803683370190505b50905060005b8451811015612daa5760006001600160a01b0316858281518110612ce057fe5b60200260200101516001600160a01b03161415612d2e5760405162461bcd60e51b81526004018080602001828103825260318152602001806153a26031913960400191505060405180910390fd5b60016000858381518110612d3e57fe5b602002602001015181526020019081526020016000206000868381518110612d6257fe5b60200260200101516001600160a01b03166001600160a01b0316815260200190815260200160002054828281518110612d9757fe5b6020908102919091010152600101612cc0565b509392505050565b612ddc7ff6e33f9720e4529cb1c710e3344dc00830589a3239198ffa39b07117085d250e3361320f565b612de557600080fd5b805161292390600690602084019061512d565b6000848152601a6020526040812080546001019055612e16856131e5565b9050620f42408110612e6f576040805162461bcd60e51b815260206004820152601460248201527f6d617820746f6b656e206f662031303030303030000000000000000000000000604482015290519081900360640190fd5b600083118015612e80575060148311155b8015612e8c5750600082115b8015612e9b5750620f42408211155b612eec576040805162461bcd60e51b815260206004820152601b60248201527f76616c696420637572766520616e64206d756c7469706c696572730000000000604482015290519081900360640190fd5b6001845111612f42576040805162461bcd60e51b815260206004820152601260248201527f6a736f6e206d757374206e6f6e206e756c6c0000000000000000000000000000604482015290519081900360640190fd5b6014546001600160a01b0316634ba3d74886612f5c61425c565b6040518363ffffffff1660e01b815260040180838152602001826001600160a01b0316815260200192505050602060405180830381600087803b158015612fa257600080fd5b505af1158015612fb6573d6000803e3d6000fd5b505050506040513d6020811015612fcc57600080fd5b50511515600114613024576040805162461bcd60e51b815260206004820152601f60248201527f73656e646572206d757374206265206d696e696f6e206f7220776f726b657200604482015290519081900360640190fd5b60006130308683611ddc565b90508360166000838152602001908152602001600020819055508260196000838152602001908152602001600020819055507f855f2403a3717b569ca6483cb3250554954ef4734871df9005e45eb9bffce8cf818686866040518085815260200180602001848152602001838152602001828103825285818151815260200191508051906020019080838360005b838110156130d65781810151838201526020016130be565b50505050905090810190601f1680156131035780820380516001836020036101000a031916815260200191505b509550505050505060405180910390a1505050505050565b6131457ff6e33f9720e4529cb1c710e3344dc00830589a3239198ffa39b07117085d250e3361320f565b61314e57600080fd5b6000818152600760209081526040909120835161316d9285019061512d565b505050565b60008061317d612930565b905080612498576040805162461bcd60e51b815260206004820152601960248201527f636861696e204944206d757374206e6f74206265207a65726f00000000000000604482015290519081900360640190fd5b600190565b6014546001600160a01b031681565b6000908152601a602052604090205490565b60008281526005602052604081206117a59083614aac565b60008281526005602052604081206117a59083614ab8565b600081565b816001600160a01b031661323e61425c565b6001600160a01b031614156132845760405162461bcd60e51b81526004018080602001828103825260298152602001806156846029913960400191505060405180910390fd5b806003600061329161425c565b6001600160a01b0390811682526020808301939093526040918201600090812091871680825291909352912080547fffffffffffffffffffffffffffffffffffffffffffffffffffffffffffffff0016921515929092179091556132f361425c565b6001600160a01b03167f17307eab39ab6107e8899845ad3d59bd9653f200f220920489ca2b5937696c318360405180821515815260200191505060405180910390a35050565b60196020526000908152604090205481565b6060613355614acd565b6133905760405162461bcd60e51b81526004018080602001828103825260428152602001806156426042913960600191505060405180910390fd5b6133986151ab565b50604080516060810182528781526001600160a01b03891660208201529081018690526133c88882878787614b63565b6134035760405162461bcd60e51b81526004018080602001828103825260218152602001806156216021913960400191505060405180910390fd5b6001600160a01b0388166000908152600d602090815260408083208a845290915290205460ff161561347c576040805162461bcd60e51b815260206004820181905260248201527f5245504c4159206f6620612070726576696f7573207472616e73616374696f6e604482015290519081900360640190fd5b6001600160a01b0388166000818152600d602090815260408083208b8452825280832080547fffffffffffffffffffffffffffffffffffffffffffffffffffffffffffffff0016600117905580519384523384830181905260609185018281528b51928601929092528a517f5845892132946850460bff5a0083f71031bc5bf9aadcd40f1de79423eac9b10b958e9592948d94919391926080850192918601918190849084905b8381101561353b578181015183820152602001613523565b50505050905090810190601f1680156135685780820380516001836020036101000a031916815260200191505b5094505050505060405180910390a160006060306001600160a01b0316888b6040516020018083805190602001908083835b602083106135b95780518252601f19909201916020918201910161359a565b6001836020036101000a038019825116818451168082178552505050505050905001826001600160a01b031660601b8152601401925050506040516020818303038152906040526040518082805190602001908083835b6020831061362f5780518252601f199092019160209182019101613610565b6001836020036101000a0380198251168184511680821785525050505050509050019150506000604051808303816000865af19150503d8060008114613691576040519150601f19603f3d011682016040523d82523d6000602084013e613696565b606091505b5091509150816136ed576040805162461bcd60e51b815260206004820152601c60248201527f46756e6374696f6e2063616c6c206e6f74207375636365737366756c00000000604482015290519081900360640190fd5b9998505050505050505050565b7ff6e33f9720e4529cb1c710e3344dc00830589a3239198ffa39b07117085d250e81565b6000818152601860205260408120546117a5606461206f605a612584878661250d565b6000601054858161374e57fe5b04905061375a85613d97565b156137ac576040805162461bcd60e51b815260206004820152601960248201527f746f6b656e20686173206e6f74206265656e206d696e74656400000000000000604482015290519081900360640190fd5b6014546001600160a01b0316634ba3d748826137c661425c565b6040518363ffffffff1660e01b815260040180838152602001826001600160a01b0316815260200192505050602060405180830381600087803b15801561380c57600080fd5b505af1158015613820573d6000803e3d6000fd5b505050506040513d602081101561383657600080fd5b505115156001146138785760405162461bcd60e51b81526004018080602001828103825260218152602001806153566021913960400191505060405180910390fd5b600083118015613889575060148311155b80156138955750600082115b80156138a45750620f42408211155b6138f5576040805162461bcd60e51b815260206004820152601c60248201527f696e76616c6964206375727665206f72206d756c7469706c6965727300000000604482015290519081900360640190fd5b600184511161394b576040805162461bcd60e51b815260206004820152601260248201527f6a736f6e206d757374206e6f6e206e756c6c0000000000000000000000000000604482015290519081900360640190fd5b6000858152601660205260409020546139ab576040805162461bcd60e51b815260206004820152601160248201527f6375727665206d75737420626520736574000000000000000000000000000000604482015290519081900360640190fd5b600085815260166020908152604080832086905560198252808320859055805188815290810186905260608101859052608081830181815288519183019190915287517f855f2403a3717b569ca6483cb3250554954ef4734871df9005e45eb9bffce8cf948a948a948a948a949193909260a0850192908801918190849084905b83811015613a44578181015183820152602001613a2c565b50505050905090810190601f168015613a715780820380516001836020036101000a031916815260200191505b509550505050505060405180910390a15050505050565b6013546001600160a01b031681565b613aa082613d97565b15613af2576040805162461bcd60e51b815260206004820152601960248201527f746f6b656e20686173206e6f74206265656e206d696e74656400000000000000604482015290519081900360640190fd5b600082815260166020526040902054613b52576040805162461bcd60e51b815260206004820152601160248201527f6375727665206d75737420626520736574000000000000000000000000000000604482015290519081900360640190fd5b60006010548381613b5f57fe5b60145491900491506001600160a01b0316634ba3d74882613b7e61425c565b6040518363ffffffff1660e01b815260040180838152602001826001600160a01b0316815260200192505050602060405180830381600087803b158015613bc457600080fd5b505af1158015613bd8573d6000803e3d6000fd5b505050506040513d6020811015613bee57600080fd5b50511515600114613c305760405162461bcd60e51b81526004018080602001828103825260218152602001806153566021913960400191505060405180910390fd5b4282108015613c3f5750600082115b15613c48574291505b600083815260176020908152604091829020849055815185815290810184905281517f6ce538f9e575f548476b624a738c3bc0bdf1ec4e465cacb3f7c67bef3926e20e929181900390910190a1505050565b604051806080016040528060528152602001615537605291398051906020012081565b600081815260056020526040812061174290614b8b565b6015546001600160a01b031681565b600082815260056020526040902060020154613d01906128d961425c565b61298b5760405162461bcd60e51b81526004018080602001828103825260308152602001806154636030913960400191505060405180910390fd5b600c805460408051602060026001851615610100026000190190941693909304601f8101849004840282018401909252818152929183018282801561183f5780601f106118145761010080835404028352916020019161183f565b60009081526002602052604090205460ff1690565b6001600160a01b03918216600090815260036020908152604080832093909416825291909152205460ff1690565b60176020526000908152604090205481565b6001600160a01b038416613e315760405162461bcd60e51b81526004018080602001828103825260258152602001806154936025913960400191505060405180910390fd5b613e3961425c565b6001600160a01b0316856001600160a01b03161480613e5f5750613e5f8561267061425c565b613e9a5760405162461bcd60e51b815260040180806020018281038252602981526020018061543a6029913960400191505060405180910390fd5b6000613ea461425c565b9050613ec4818787613eb588614b96565b613ebe88614b96565b87614451565b613f0b836040518060600160405280602a815260200161550d602a913960008781526001602090815260408083206001600160a01b038d1684529091529020549190614569565b60008581526001602090815260408083206001600160a01b038b81168552925280832093909355871681522054613f4290846140f3565b60008581526001602090815260408083206001600160a01b03808b168086529184529382902094909455805188815291820187905280518a8416938616927fc3d58168c5ae7397731d063d5bbf3d657854427343f4c083240f7aacaa2d0f6292908290030190a46128b3818787878787614bda565b600b805460408051602060026001851615610100026000190190941693909304601f8101849004840282018401909252818152929183018282801561183f5780601f106118145761010080835404028352916020019161183f565b7ff0887ba65ee2024ea881d91b74c2450ef19e1557f03bed3ea9f16b037cbe2dc981565b60006117a5836001600160a01b038416614d7c565b60006001600160a01b038616158015906140e95750600161407361406e87614dc6565b614e49565b83868660405160008152602001604052604051808581526020018460ff1681526020018381526020018281526020019450505050506020604051602081039080840390855afa1580156140ca573d6000803e3d6000fd5b505050602060405103516001600160a01b0316866001600160a01b0316145b9695505050505050565b6000828201838110156117a5576040805162461bcd60e51b815260206004820152601b60248201527f536166654d6174683a206164646974696f6e206f766572666c6f770000000000604482015290519081900360640190fd5b60608161418e575060408051808201909152600181527f30000000000000000000000000000000000000000000000000000000000000006020820152611784565b8160005b81156141a657600101600a82049150614192565b60608167ffffffffffffffff811180156141bf57600080fd5b506040519080825280601f01601f1916602001820160405280156141ea576020820181803683370190505b50859350905060001982015b831561425357600a840660300160f81b8282806001900393508151811061421957fe5b60200101907effffffffffffffffffffffffffffffffffffffffffffffffffffffffffffff1916908160001a905350600a840493506141f6565b50949350505050565b3390565b60006117a583836040518060400160405280601a81526020017f536166654d6174683a206469766973696f6e206279207a65726f000000000000815250614eb0565b6000826142b157506000611742565b828202828482816142be57fe5b04146117a55760405162461bcd60e51b81526004018080602001828103825260218152602001806156006021913960400191505060405180910390fd5b6001600160a01b0384166143405760405162461bcd60e51b81526004018080602001828103825260218152602001806156fe6021913960400191505060405180910390fd5b60008381526002602052604090205460ff1661438e57600083815260026020526040902080547fffffffffffffffffffffffffffffffffffffffffffffffffffffffffffffff001660011790555b600061439861425c565b90506143aa81600087613eb588614b96565b60008481526001602090815260408083206001600160a01b03891684529091529020546143d790846140f3565b60008581526001602090815260408083206001600160a01b03808b16808652918452828520959095558151898152928301889052815190948616927fc3d58168c5ae7397731d063d5bbf3d657854427343f4c083240f7aacaa2d0f6292908290030190a461444a81600087878787614bda565b5050505050565b60005b82518110156144cd5782818151811061446957fe5b60200260200101516001146144c5576040805162461bcd60e51b815260206004820152601260248201527f416d6f756e742073686f756c6420626520310000000000000000000000000000604482015290519081900360640190fd5b600101614454565b506001600160a01b038516156128b35760005b835181101561456057614506858583815181106144f957fe5b60200260200101516116d6565b15614558576040805162461bcd60e51b815260206004820152601f60248201527f746f5f616464726573732073686f756c64206f776e2030206f66206561636800604482015290519081900360640190fd5b6001016144e0565b50505050505050565b600081848411156145f85760405162461bcd60e51b81526004018080602001828103825283818151815260200191508051906020019080838360005b838110156145bd5781810151838201526020016145a5565b50505050905090810190601f1680156145ea5780820380516001836020036101000a031916815260200191505b509250505060405180910390fd5b505050900390565b614612846001600160a01b0316614f15565b156128b357836001600160a01b031663bc197c8187878686866040518663ffffffff1660e01b815260040180866001600160a01b03168152602001856001600160a01b03168152602001806020018060200180602001848103845287818151815260200191508051906020019060200280838360005b838110156146a0578181015183820152602001614688565b50505050905001848103835286818151815260200191508051906020019060200280838360005b838110156146df5781810151838201526020016146c7565b50505050905001848103825285818151815260200191508051906020019080838360005b8381101561471b578181015183820152602001614703565b50505050905090810190601f1680156147485780820380516001836020036101000a031916815260200191505b5098505050505050505050602060405180830381600087803b15801561476d57600080fd5b505af192505050801561479257506040513d602081101561478d57600080fd5b505160015b6148275761479e6151e5565b806147a957506147f0565b60405162461bcd60e51b81526020600482018181528351602484015283518493919283926044019190850190808383600083156145bd5781810151838201526020016145a5565b60405162461bcd60e51b81526004018080602001828103825260348152602001806152a96034913960400191505060405180910390fd5b7fffffffff0000000000000000000000000000000000000000000000000000000081167fbc197c8100000000000000000000000000000000000000000000000000000000146145605760405162461bcd60e51b81526004018080602001828103825260288152602001806152ff6028913960400191505060405180910390fd5b60008281526005602052604090206148bf9082614036565b15612923576148cc61425c565b6001600160a01b0316816001600160a01b0316837f2f8788117e7eff1d82e926ec794901d17c78024a50270940304540a733656f0d60405160405180910390a45050565b60008281526005602052604090206149289082614f1b565b156129235761493561425c565b6001600160a01b0316816001600160a01b0316837ff6391f5c32d9c69d2a47ea670b442974b53935d1edc7fd64eb21e047a839171b60405160405180910390a45050565b6001600160a01b0383166149be5760405162461bcd60e51b81526004018080602001828103825260238152602001806154ea6023913960400191505060405180910390fd5b60006149c861425c565b90506149f8818560006149da87614b96565b6149e387614b96565b60405180602001604052806000815250614451565b614a3f826040518060600160405280602481526020016154166024913960008681526001602090815260408083206001600160a01b038b1684529091529020549190614569565b60008481526001602090815260408083206001600160a01b03808a16808652918452828520959095558151888152928301879052815193949093908616927fc3d58168c5ae7397731d063d5bbf3d657854427343f4c083240f7aacaa2d0f6292908290030190a450505050565b60006117a58383614f30565b60006117a5836001600160a01b038416614f94565b601554604080517f17937a0700000000000000000000000000000000000000000000000000000000815233600482015290516000926001600160a01b0316916317937a0791602480830192602092919082900301818787803b158015614b3257600080fd5b505af1158015614b46573d6000803e3d6000fd5b505050506040513d6020811015614b5c57600080fd5b5051905090565b60006001600160a01b038616158015906140e957506001614073614b8687614fac565b61502f565b600061174282615039565b604080516001808252818301909252606091829190602080830190803683370190505090508281600081518110614bc957fe5b602090810291909101015292915050565b614bec846001600160a01b0316614f15565b156128b357836001600160a01b031663f23a6e6187878686866040518663ffffffff1660e01b815260040180866001600160a01b03168152602001856001600160a01b0316815260200184815260200183815260200180602001828103825283818151815260200191508051906020019080838360005b83811015614c7b578181015183820152602001614c63565b50505050905090810190601f168015614ca85780820380516001836020036101000a031916815260200191505b509650505050505050602060405180830381600087803b158015614ccb57600080fd5b505af1925050508015614cf057506040513d6020811015614ceb57600080fd5b505160015b614cfc5761479e6151e5565b7fffffffff0000000000000000000000000000000000000000000000000000000081167ff23a6e6100000000000000000000000000000000000000000000000000000000146145605760405162461bcd60e51b81526004018080602001828103825260288152602001806152ff6028913960400191505060405180910390fd5b6000614d888383614f94565b614dbe57508154600181810184556000848152602080822090930184905584548482528286019093526040902091909155611742565b506000611742565b60006040518060800160405280604381526020016153d360439139805190602001208260000151836020015184604001518051906020012060405160200180858152602001848152602001836001600160a01b03168152602001828152602001945050505050604051602081830303815290604052805190602001209050919050565b6000614e53612354565b8260405160200180807f190100000000000000000000000000000000000000000000000000000000000081525060020183815260200182815260200192505050604051602081830303815290604052805190602001209050919050565b60008183614eff5760405162461bcd60e51b81526020600482018181528351602484015283519092839260449091019190850190808383600083156145bd5781810151838201526020016145a5565b506000838581614f0b57fe5b0495945050505050565b3b151590565b60006117a5836001600160a01b03841661503d565b81546000908210614f725760405162461bcd60e51b81526004018080602001828103825260228152602001806152dd6022913960400191505060405180910390fd5b826000018281548110614f8157fe5b9060005260206000200154905092915050565b60009081526001919091016020526040902054151590565b60006040518060800160405280605481526020016155ac60549139805190602001208260000151836020015184604001518051906020012060405160200180858152602001848152602001836001600160a01b03168152602001828152602001945050505050604051602081830303815290604052805190602001209050919050565b6000614e53611de7565b5490565b600081815260018301602052604081205480156150f9578354600019808301919081019060009087908390811061507057fe5b906000526020600020015490508087600001848154811061508d57fe5b6000918252602080832090910192909255828152600189810190925260409020908401905586548790806150bd57fe5b60019003818190600052602060002001600090559055866001016000878152602001908152602001600020600090556001945050505050611742565b6000915050611742565b60405180606001604052806000815260200160006001600160a01b03168152602001606081525090565b828054600181600116156101000203166002900490600052602060002090601f016020900481019282601f1061516e57805160ff191683800117855561519b565b8280016001018555821561519b579182015b8281111561519b578251825591602001919060010190615180565b506151a79291506151ca565b5090565b6040805160608082018352600080835260208301529181019190915290565b5b808211156151a757600081556001016151cb565b60e01c90565b600060443d10156151f557611deb565b600481823e6308c379a061520982516151df565b1461521357611deb565b6040517ffffffffffffffffffffffffffffffffffffffffffffffffffffffffffffffffc3d016004823e80513d67ffffffffffffffff81602484011181841117156152615750505050611deb565b8284019250825191508082111561527b5750505050611deb565b503d8301602082840101111561529357505050611deb565b601f01601f191681016020016040529150509056fe455243313135353a207472616e7366657220746f206e6f6e2045524331313535526563656976657220696d706c656d656e746572456e756d657261626c655365743a20696e646578206f7574206f6620626f756e6473455243313135353a204552433131353552656365697665722072656a656374656420746f6b656e73416363657373436f6e74726f6c3a2073656e646572206d75737420626520616e2061646d696e20746f206772616e7473656e646572206d757374206265206f70657261746f72206f7220776f726b6572455243313135353a2062616c616e636520717565727920666f7220746865207a65726f2061646472657373455243313135353a2062617463682062616c616e636520717565727920666f7220746865207a65726f20616464726573734d6574615472616e73616374696f6e2875696e74323536206e6f6e63652c616464726573732066726f6d2c62797465732066756e6374696f6e5369676e617475726529455243313135353a206275726e20616d6f756e7420657863656564732062616c616e6365455243313135353a2063616c6c6572206973206e6f74206f776e6572206e6f7220617070726f766564416363657373436f6e74726f6c3a2073656e646572206d75737420626520616e2061646d696e20746f207265766f6b65455243313135353a207472616e7366657220746f20746865207a65726f2061646472657373455243313135353a207472616e736665722063616c6c6572206973206e6f74206f776e6572206e6f7220617070726f766564455243313135353a206275726e2066726f6d20746865207a65726f2061646472657373455243313135353a20696e73756666696369656e742062616c616e636520666f72207472616e73666572454950373132446f6d61696e28737472696e67206e616d652c737472696e672076657273696f6e2c75696e7432353620636861696e49642c6164647265737320766572696679696e67436f6e74726163742973656e646572206d7573742068617665206174206c65617374206f6e6520746f6b656e576f726b65724d6574615472616e73616374696f6e2862797465733332207265706c617950726576656e74696f6e2c616464726573732066726f6d2c62797465732066756e6374696f6e5369676e617475726529536166654d6174683a206d756c7469706c69636174696f6e206f766572666c6f775369676e657220616e64207369676e617475726520646f206e6f74206d61746368576f726b6572204d6574612d5472616e73616374696f6e2073656e74206279206163636f756e74206f74686572207468616e206120776f726b65722f6d696e696f6e455243313135353a2073657474696e6720617070726f76616c2073746174757320666f722073656c66455243313135353a206163636f756e747320616e6420696473206c656e677468206d69736d61746368455243313135353a2069647320616e6420616d6f756e7473206c656e677468206d69736d61746368455243313135353a206d696e7420746f20746865207a65726f2061646472657373416363657373436f6e74726f6c3a2063616e206f6e6c792072656e6f756e636520726f6c657320666f722073656c66a26469706673582212202350fbd21d2b0041040151de788ed2b706db9d0e86561eb0264068ecf96fdba264736f6c63430007030033f0887ba65ee2024ea881d91b74c2450ef19e1557f03bed3ea9f16b037cbe2dc9f6e33f9720e4529cb1c710e3344dc00830589a3239198ffa39b07117085d250e454950373132446f6d61696e28737472696e67206e616d652c737472696e672076657273696f6e2c75696e7432353620636861696e49642c6164647265737320766572696679696e67436f6e747261637429",
  "immutableReferences": {},
  "source": "// SPDX-License-Identifier: MIT\r\npragma solidity >=0.6.0 <0.8.0;\r\n\r\nimport \"./interfaces/iGAME_ERC20.sol\";\r\n//import \"./openzeppelin/contracts/math/SafeMath.sol\";\r\nimport \"./interfaces/iGAME_Game.sol\";\r\nimport \"./interfaces/iGAME_Master.sol\";\r\nimport \"./NFTbase.sol\";\r\nimport \"./WorkerMetaTransactions.sol\";\r\nimport \"hardhat/console.sol\";\r\n\r\n/// name GameCreditsBondedNFTS\r\n//\"1\"//\r\ncontract bondingSale is NFTbase, WorkerMetaTransactions {\r\n    using SafeMath for uint256;\r\n    bool public mintingActive;\r\n    bool public burningActive;\r\n\r\n    uint256 SIG_DIGITS = 3;\r\n\r\n    uint256 baseTokenDecimals = 10**18;\r\n\r\n    uint256 public MAX_PRICE = 10**18 * 10**18;\r\n\r\n    address GAMEFEE_RECEIVER;\r\n    iGAME_ERC20 public gameToken;\r\n    iGAME_Game public gameAdmin;\r\n    iGAME_Master public masterContract;\r\n    mapping(uint256 => uint256) public curves;\r\n    mapping(uint256 => uint256) public saleStarts;\r\n    mapping(uint256 => uint256) public TokenSupply;\r\n    mapping(uint256 => uint256) public multipliers;\r\n    mapping(uint256 => uint256) public nextTokenIDs;\r\n    mapping(address => uint256) internal userLatestBlock;\r\n\r\n    uint256 public multiple = 10**7;\r\n\r\n    event TokenData(\r\n        uint256 tokenId,\r\n        string json,\r\n        uint256 curve,\r\n        uint256 multiplier\r\n    );\r\n    //event TokensBought();\r\n    event TokenOnSale(uint256 id, uint256 date);\r\n    //event TokenBought(uint256 id, address account, uint256 supply);\r\n    event TokenBought(\r\n        address indexed to,\r\n        uint256 id,\r\n        uint256 pricePaid,\r\n        uint256 nextPrintPrice,\r\n        uint256 nextBurnPrice,\r\n        uint256 tokenSupply,\r\n        uint256 royaltyPaid,\r\n        uint256 reserve,\r\n        address indexed royaltyRecipient\r\n    );\r\n\r\n    /**\r\n     * @dev Emitted when an print is burned\r\n     */\r\n    event TokenBurned(\r\n        address indexed to,\r\n        uint256 id,\r\n        uint256 priceReceived,\r\n        uint256 nextPrintPrice,\r\n        uint256 nextBurnPrice,\r\n        uint256 printsSupply,\r\n        uint256 reserve\r\n    );\r\n\r\n    constructor(\r\n        address _gameToken,\r\n        address _gameAdmin,\r\n        address _gameMaster\r\n    ) NFTbase(\"test\") NetworkAgnostic(\"GAME Bonding Curves\", \"1\") {\r\n        gameToken = iGAME_ERC20(_gameToken);\r\n        gameAdmin = iGAME_Game(_gameAdmin);\r\n        masterContract = iGAME_Master(_gameMaster);\r\n    }\r\n\r\n    function toggleTokenMinting() public isGlobalAdmin() {\r\n        mintingActive = !mintingActive;\r\n    }\r\n\r\n    /**\r\n        Checks to see if call is worker or minion and if they have enough gas to make call\r\n        \r\n     */\r\n    function metaTxSenderIsWorkerOrMinion() internal override returns (bool) {\r\n        return masterContract.makeFundedCall(msg.sender);\r\n    }\r\n\r\n    function _beforeTokenTransfer(\r\n        address operator,\r\n        address from,\r\n        address to,\r\n        uint256[] memory ids,\r\n        uint256[] memory amounts,\r\n        bytes memory data\r\n    ) internal view override {\r\n        for (uint256 i = 0; i < amounts.length; ++i) {\r\n            require(amounts[i] == 1, \"Amount should be 1\");\r\n        }\r\n        if (from != address(0)) {\r\n            for (uint256 i = 0; i < ids.length; ++i) {\r\n                require(\r\n                    balanceOf(to, ids[i]) == 0,\r\n                    \"to_address should own 0 of each\"\r\n                );\r\n            }\r\n        }\r\n    }\r\n\r\n    function updateLocalContract(address contract_, bool isLocal_)\r\n        external\r\n        override\r\n    {\r\n        //require(contract_ != address(masterContract), \"can't reset the master contract\");\r\n        //require(contract_ != address(erc721Contract), \"can't reset the erc721 contract\");\r\n        // require(contract_ != address(0), \"can't be the zero address\");\r\n        //localContracts[contract_] = isLocal_;\r\n    }\r\n\r\n    function toggleTokenBurning() public isGlobalAdmin() {\r\n        burningActive = !burningActive;\r\n    }\r\n\r\n    function getNextTokenID(uint256 creator) public view returns (uint256) {\r\n        return nextTokenIDs[creator];\r\n    }\r\n\r\n    function getTokenID(uint256 _creatorID, uint256 token)\r\n        public\r\n        view\r\n        returns (uint256)\r\n    {\r\n        return baseTokenDecimals * _creatorID + token;\r\n    }\r\n\r\n    function setFEERECEIVER(address a) public isGlobalAdmin() {\r\n        GAMEFEE_RECEIVER = a;\r\n    }\r\n\r\n    function getBuyPrice(uint256 tokenId) public view returns (uint256) {\r\n        uint256 supply = TokenSupply[tokenId];\r\n        return getPrintPrice(tokenId, supply + 1);\r\n    }\r\n\r\n    function getSellPrice(uint256 tokenId) public view returns (uint256) {\r\n        uint256 supply = TokenSupply[tokenId];\r\n        return getPrintPrice(tokenId, supply).mul(90).div(100);\r\n    }\r\n\r\n    function getPrintPrice(uint256 tokenId, uint256 printNumber)\r\n        public\r\n        view\r\n        returns (uint256)\r\n    {\r\n        uint256 C = curves[tokenId];\r\n        // C must be set at between 1 to 16;\r\n        // 0 will throw, and above 16 will cause errors\r\n        uint256 multiplier = multipliers[tokenId];\r\n        // multiplier is 1 to 1000000, and lets us scale from\r\n        // 1000x smaller to 1000x larger.\r\n        uint256 decimals = 10**SIG_DIGITS; // Sig is 3.\r\n        // sig digits ensures that we have more easily readable\r\n        // and accurate numbers\r\n        uint256 n = 50;\r\n        uint256 price = (printNumber**3).mul(decimals).div(9**C);\r\n        //console.log(price);\r\n        price = price.add(printNumber.mul(decimals).div(C));\r\n        //console.log(price);\r\n        price = price.add(n.mul(decimals));\r\n        //console.log(price);\r\n        price = price.div(C).mul(multiplier).div(1000);\r\n        //console.log(price);\r\n\r\n        // with a multiplier between 1 and 1000000\r\n        price = (price.mul(1 ether)).div(decimals);\r\n        return price;\r\n        //console.log(price);\r\n    }\r\n\r\n    // switch isWorkerOrMinion to isOperatorOrMinion\r\n    function CreateToken(\r\n        uint256 creatorId,\r\n        string memory json,\r\n        uint256 curve,\r\n        uint256 multiplier\r\n    ) public {\r\n        nextTokenIDs[creatorId] += 1;\r\n        uint256 nextTokenId = getNextTokenID(creatorId);\r\n\r\n        require(nextTokenId < 1000000, \"max token of 1000000\");\r\n        require(\r\n            curve > 0 && curve <= 20 && multiplier > 0 && multiplier <= 1000000,\r\n            \"valid curve and multipliers\"\r\n        );\r\n        require(bytes(json).length > 1, \"json must non null\");\r\n        require(\r\n            gameAdmin.isOperatorOrMinion(creatorId, _msgSender()) == true,\r\n            \"sender must be minion or worker\"\r\n        );\r\n\r\n        uint256 tokenId = getTokenID(creatorId, nextTokenId);\r\n\r\n        curves[tokenId] = curve;\r\n        multipliers[tokenId] = multiplier;\r\n        emit TokenData(tokenId, json, curve, multiplier);\r\n    }\r\n\r\n    function UpdateTokenData(\r\n        uint256 tokenId,\r\n        string memory json,\r\n        uint256 curve,\r\n        uint256 multiplier\r\n    ) public {\r\n        // require(balanceOf(tokenId)==0 && \"\");\r\n        uint256 creator = tokenId / baseTokenDecimals;\r\n        require(hasMinted(tokenId) == false, \"token has not been minted\");\r\n        //\r\n        require(\r\n            gameAdmin.isOperatorOrMinion(creator, _msgSender()) == true,\r\n            \"sender must be operator or worker\"\r\n        );\r\n        require(\r\n            curve > 0 && curve <= 20 && multiplier > 0 && multiplier <= 1000000,\r\n            \"invalid curve or multipliers\"\r\n        );\r\n        require(bytes(json).length > 1, \"json must non null\");\r\n        require(curves[tokenId] > 0, \"curve must be set\");\r\n        curves[tokenId] = curve;\r\n        multipliers[tokenId] = multiplier;\r\n        emit TokenData(tokenId, json, curve, multiplier);\r\n    }\r\n\r\n    function SetTokenOnSaleDate(uint256 tokenId, uint256 onSaleDate) public {\r\n        require(hasMinted(tokenId) == false, \"token has not been minted\");\r\n        require(curves[tokenId] > 0, \"curve must be set\");\r\n        //require(onSaleDate > 0, \"sale date must be nonzero\");\r\n        uint256 creator = tokenId / baseTokenDecimals;\r\n        require(\r\n            gameAdmin.isOperatorOrMinion(creator, _msgSender()) == true,\r\n            \"sender must be operator or worker\"\r\n        );\r\n        if (onSaleDate < block.timestamp && onSaleDate > 0) {\r\n            onSaleDate = block.timestamp;\r\n        }\r\n        saleStarts[tokenId] = onSaleDate;\r\n        emit TokenOnSale(tokenId, onSaleDate);\r\n    }\r\n\r\n    function buyNFTwithGAME(uint256 tokenId, uint256 maxPrice) public {\r\n        require(mintingActive, \"minting is not active\");\r\n        require(\r\n            block.timestamp > saleStarts[tokenId] && saleStarts[tokenId] > 0,\r\n            \"sale has not started yet\"\r\n        );\r\n        require(userLatestBlock[_msgSender()] < block.number);\r\n        userLatestBlock[_msgSender()] = block.number;\r\n\r\n        uint256 creatorID = tokenId / baseTokenDecimals;\r\n        uint256 price = getBuyPrice(tokenId);\r\n        require(price > 0 && price <= maxPrice, \"invalid price\");\r\n        TokenSupply[tokenId] += 1;\r\n\r\n        gameToken.transferByContract(_msgSender(), address(this), price);\r\n        // console.log(price);\r\n        uint256 gamefee = price.div(50);\r\n        uint256 creatorfee = (price.mul(8)).div(100);\r\n\r\n        _mint(_msgSender(), tokenId, 1, \"\");\r\n\r\n        //emit TokenBought(tokenId, msg.sender, TokenSupply[tokenId]);\r\n        emit TokenBought(\r\n            _msgSender(),\r\n            tokenId,\r\n            price,\r\n            getBuyPrice(tokenId),\r\n            getSellPrice(tokenId),\r\n            TokenSupply[tokenId],\r\n            creatorfee,\r\n            gameToken.balanceOf(address(this)),\r\n            address(creatorID)\r\n        );\r\n        gameToken.transferByContract(address(this), GAMEFEE_RECEIVER, gamefee);\r\n        gameToken.transferByContract(\r\n            address(this),\r\n            address(creatorID),\r\n            creatorfee\r\n        );\r\n    }\r\n\r\n    function burn(uint256 tokenId) public {\r\n        require(burningActive, \"burning is not active\");\r\n        require(\r\n            balanceOf(msg.sender, tokenId) >= 1,\r\n            \"sender must have at least one token\"\r\n        );\r\n        uint256 price = getSellPrice(tokenId);\r\n        TokenSupply[tokenId] -= 1;\r\n        _burn(_msgSender(), tokenId, 1);\r\n        emit TokenBurned(\r\n            _msgSender(),\r\n            tokenId,\r\n            price,\r\n            getBuyPrice(tokenId),\r\n            getSellPrice(tokenId),\r\n            TokenSupply[tokenId],\r\n            gameToken.balanceOf(address(this))\r\n        );\r\n        gameToken.transferByContract(address(this), _msgSender(), price);\r\n    }\r\n}\r\n",
  "sourcePath": "/Volumes/Work/Crypto/GameCredits/bondingcontracts/contracts/bondingSale.sol",
  "compiler": {
    "name": "solc",
    "version": "0.7.3+commit.9bfce1f6.Emscripten.clang"
  },
  "schemaVersion": "3.3.4",
  "updatedAt": "2021-05-14T01:48:59.781Z",
  "devdoc": {
    "events": {
      "TokenBurned(address,uint256,uint256,uint256,uint256,uint256,uint256)": {
        "details": "Emitted when an print is burned"
      }
    },
    "kind": "dev",
    "methods": {
      "balanceOf(address,uint256)": {
        "details": "See {IERC1155-balanceOf}. Requirements: - `account` cannot be the zero address."
      },
      "balanceOfBatch(address[],uint256[])": {
        "details": "See {IERC1155-balanceOfBatch}. Requirements: - `accounts` and `ids` must have the same length."
      },
      "getRoleAdmin(bytes32)": {
        "details": "Returns the admin role that controls `role`. See {grantRole} and {revokeRole}. To change a role's admin, use {_setRoleAdmin}."
      },
      "getRoleMember(bytes32,uint256)": {
        "details": "Returns one of the accounts that have `role`. `index` must be a value between 0 and {getRoleMemberCount}, non-inclusive. Role bearers are not sorted in any particular way, and their ordering may change at any point. WARNING: When using {getRoleMember} and {getRoleMemberCount}, make sure you perform all queries on the same block. See the following https://forum.openzeppelin.com/t/iterating-over-elements-on-enumerableset-in-openzeppelin-contracts/2296[forum post] for more information."
      },
      "getRoleMemberCount(bytes32)": {
        "details": "Returns the number of accounts that have `role`. Can be used together with {getRoleMember} to enumerate all bearers of a role."
      },
      "grantRole(bytes32,address)": {
        "details": "Grants `role` to `account`. If `account` had not been already granted `role`, emits a {RoleGranted} event. Requirements: - the caller must have ``role``'s admin role."
      },
      "hasRole(bytes32,address)": {
        "details": "Returns `true` if `account` has been granted `role`."
      },
      "isApprovedForAll(address,address)": {
        "details": "See {IERC1155-isApprovedForAll}."
      },
      "renounceRole(bytes32,address)": {
        "details": "Revokes `role` from the calling account. Roles are often managed via {grantRole} and {revokeRole}: this function's purpose is to provide a mechanism for accounts to lose their privileges if they are compromised (such as when a trusted device is misplaced). If the calling account had been granted `role`, emits a {RoleRevoked} event. Requirements: - the caller must be `account`."
      },
      "revokeRole(bytes32,address)": {
        "details": "Revokes `role` from `account`. If `account` had been granted `role`, emits a {RoleRevoked} event. Requirements: - the caller must have ``role``'s admin role."
      },
      "safeBatchTransferFrom(address,address,uint256[],uint256[],bytes)": {
        "details": "See {IERC1155-safeBatchTransferFrom}."
      },
      "safeTransferFrom(address,address,uint256,uint256,bytes)": {
        "details": "See {IERC1155-safeTransferFrom}."
      },
      "setApprovalForAll(address,bool)": {
        "details": "See {IERC1155-setApprovalForAll}."
      },
      "supportsInterface(bytes4)": {
        "details": "See {IERC165-supportsInterface}. Time complexity O(1), guaranteed to always use less than 30 000 gas."
      }
    },
    "version": 1
  },
  "userdoc": {
    "kind": "user",
    "methods": {},
    "notice": "name GameCreditsBondedNFTS",
    "version": 1
  }
}