{
  "contractName": "ERC1155",
  "abi": [
    {
      "inputs": [],
      "stateMutability": "nonpayable",
      "type": "constructor"
    },
    {
      "anonymous": false,
      "inputs": [
        {
          "indexed": true,
          "internalType": "address",
          "name": "account",
          "type": "address"
        },
        {
          "indexed": true,
          "internalType": "address",
          "name": "operator",
          "type": "address"
        },
        {
          "indexed": false,
          "internalType": "bool",
          "name": "approved",
          "type": "bool"
        }
      ],
      "name": "ApprovalForAll",
      "type": "event"
    },
    {
      "anonymous": false,
      "inputs": [
        {
          "indexed": true,
          "internalType": "address",
          "name": "operator",
          "type": "address"
        },
        {
          "indexed": true,
          "internalType": "address",
          "name": "from",
          "type": "address"
        },
        {
          "indexed": true,
          "internalType": "address",
          "name": "to",
          "type": "address"
        },
        {
          "indexed": false,
          "internalType": "uint256[]",
          "name": "ids",
          "type": "uint256[]"
        },
        {
          "indexed": false,
          "internalType": "uint256[]",
          "name": "values",
          "type": "uint256[]"
        }
      ],
      "name": "TransferBatch",
      "type": "event"
    },
    {
      "anonymous": false,
      "inputs": [
        {
          "indexed": true,
          "internalType": "address",
          "name": "operator",
          "type": "address"
        },
        {
          "indexed": true,
          "internalType": "address",
          "name": "from",
          "type": "address"
        },
        {
          "indexed": true,
          "internalType": "address",
          "name": "to",
          "type": "address"
        },
        {
          "indexed": false,
          "internalType": "uint256",
          "name": "id",
          "type": "uint256"
        },
        {
          "indexed": false,
          "internalType": "uint256",
          "name": "value",
          "type": "uint256"
        }
      ],
      "name": "TransferSingle",
      "type": "event"
    },
    {
      "anonymous": false,
      "inputs": [
        {
          "indexed": false,
          "internalType": "string",
          "name": "value",
          "type": "string"
        },
        {
          "indexed": true,
          "internalType": "uint256",
          "name": "id",
          "type": "uint256"
        }
      ],
      "name": "URI",
      "type": "event"
    },
    {
      "inputs": [
        {
          "internalType": "bytes4",
          "name": "interfaceId",
          "type": "bytes4"
        }
      ],
      "name": "supportsInterface",
      "outputs": [
        {
          "internalType": "bool",
          "name": "",
          "type": "bool"
        }
      ],
      "stateMutability": "view",
      "type": "function"
    },
    {
      "inputs": [
        {
          "internalType": "address",
          "name": "account",
          "type": "address"
        },
        {
          "internalType": "uint256",
          "name": "id",
          "type": "uint256"
        }
      ],
      "name": "balanceOf",
      "outputs": [
        {
          "internalType": "uint256",
          "name": "",
          "type": "uint256"
        }
      ],
      "stateMutability": "view",
      "type": "function"
    },
    {
      "inputs": [
        {
          "internalType": "uint256",
          "name": "id",
          "type": "uint256"
        }
      ],
      "name": "hasMinted",
      "outputs": [
        {
          "internalType": "bool",
          "name": "",
          "type": "bool"
        }
      ],
      "stateMutability": "view",
      "type": "function"
    },
    {
      "inputs": [
        {
          "internalType": "address[]",
          "name": "accounts",
          "type": "address[]"
        },
        {
          "internalType": "uint256[]",
          "name": "ids",
          "type": "uint256[]"
        }
      ],
      "name": "balanceOfBatch",
      "outputs": [
        {
          "internalType": "uint256[]",
          "name": "",
          "type": "uint256[]"
        }
      ],
      "stateMutability": "view",
      "type": "function"
    },
    {
      "inputs": [
        {
          "internalType": "address",
          "name": "operator",
          "type": "address"
        },
        {
          "internalType": "bool",
          "name": "approved",
          "type": "bool"
        }
      ],
      "name": "setApprovalForAll",
      "outputs": [],
      "stateMutability": "nonpayable",
      "type": "function"
    },
    {
      "inputs": [
        {
          "internalType": "address",
          "name": "account",
          "type": "address"
        },
        {
          "internalType": "address",
          "name": "operator",
          "type": "address"
        }
      ],
      "name": "isApprovedForAll",
      "outputs": [
        {
          "internalType": "bool",
          "name": "",
          "type": "bool"
        }
      ],
      "stateMutability": "view",
      "type": "function"
    },
    {
      "inputs": [
        {
          "internalType": "address",
          "name": "from",
          "type": "address"
        },
        {
          "internalType": "address",
          "name": "to",
          "type": "address"
        },
        {
          "internalType": "uint256",
          "name": "id",
          "type": "uint256"
        },
        {
          "internalType": "uint256",
          "name": "amount",
          "type": "uint256"
        },
        {
          "internalType": "bytes",
          "name": "data",
          "type": "bytes"
        }
      ],
      "name": "safeTransferFrom",
      "outputs": [],
      "stateMutability": "nonpayable",
      "type": "function"
    },
    {
      "inputs": [
        {
          "internalType": "address",
          "name": "from",
          "type": "address"
        },
        {
          "internalType": "address",
          "name": "to",
          "type": "address"
        },
        {
          "internalType": "uint256[]",
          "name": "ids",
          "type": "uint256[]"
        },
        {
          "internalType": "uint256[]",
          "name": "amounts",
          "type": "uint256[]"
        },
        {
          "internalType": "bytes",
          "name": "data",
          "type": "bytes"
        }
      ],
      "name": "safeBatchTransferFrom",
      "outputs": [],
      "stateMutability": "nonpayable",
      "type": "function"
    }
  ],
  "bytecode": "0x608060405234801561001057600080fd5b506100216301ffc9a760e01b610046565b610031636cdb3d1360e11b610046565b6100416303a24d0760e21b610046565b6100ca565b6001600160e01b031980821614156100a5576040805162461bcd60e51b815260206004820152601c60248201527f4552433136353a20696e76616c696420696e7465726661636520696400000000604482015290519081900360640190fd5b6001600160e01b0319166000908152602081905260409020805460ff19166001179055565b611878806100d96000396000f3fe608060405234801561001057600080fd5b50600436106100875760003560e01c8063a22cb4651161005b578063a22cb46514610477578063e5b95595146104b2578063e985e9c5146104cf578063f242432a1461050a57610087565b8062fdd58e1461008c57806301ffc9a7146100d75780632eb2c2d61461012a5780634e1273f414610300575b600080fd5b6100c5600480360360408110156100a257600080fd5b5073ffffffffffffffffffffffffffffffffffffffff81351690602001356105e2565b60408051918252519081900360200190f35b610116600480360360208110156100ed57600080fd5b50357fffffffff000000000000000000000000000000000000000000000000000000001661066b565b604080519115158252519081900360200190f35b6102fe600480360360a081101561014057600080fd5b73ffffffffffffffffffffffffffffffffffffffff823581169260208101359091169181019060608101604082013564010000000081111561018157600080fd5b82018360208201111561019357600080fd5b803590602001918460208302840111640100000000831117156101b557600080fd5b919080806020026020016040519081016040528093929190818152602001838360200280828437600092019190915250929594936020810193503591505064010000000081111561020557600080fd5b82018360208201111561021757600080fd5b8035906020019184602083028401116401000000008311171561023957600080fd5b919080806020026020016040519081016040528093929190818152602001838360200280828437600092019190915250929594936020810193503591505064010000000081111561028957600080fd5b82018360208201111561029b57600080fd5b803590602001918460018302840111640100000000831117156102bd57600080fd5b91908080601f0160208091040260200160405190810160405280939291908181526020018383808284376000920191909152509295506106a2945050505050565b005b6104276004803603604081101561031657600080fd5b81019060208101813564010000000081111561033157600080fd5b82018360208201111561034357600080fd5b8035906020019184602083028401116401000000008311171561036557600080fd5b91908080602002602001604051908101604052809392919081815260200183836020028082843760009201919091525092959493602081019350359150506401000000008111156103b557600080fd5b8201836020820111156103c757600080fd5b803590602001918460208302840111640100000000831117156103e957600080fd5b919080806020026020016040519081016040528093929190818152602001838360200280828437600092019190915250929550610a22945050505050565b60408051602080825283518183015283519192839290830191858101910280838360005b8381101561046357818101518382015260200161044b565b505050509050019250505060405180910390f35b6102fe6004803603604081101561048d57600080fd5b5073ffffffffffffffffffffffffffffffffffffffff81351690602001351515610bd4565b610116600480360360208110156104c857600080fd5b5035610d15565b610116600480360360408110156104e557600080fd5b5073ffffffffffffffffffffffffffffffffffffffff81358116916020013516610d2a565b6102fe600480360360a081101561052057600080fd5b73ffffffffffffffffffffffffffffffffffffffff823581169260208101359091169160408201359160608101359181019060a08101608082013564010000000081111561056d57600080fd5b82018360208201111561057f57600080fd5b803590602001918460018302840111640100000000831117156105a157600080fd5b91908080601f016020809104026020016040519081016040528093929190818152602001838380828437600092019190915250929550610d65945050505050565b600073ffffffffffffffffffffffffffffffffffffffff83166106365760405162461bcd60e51b815260040180806020018281038252602b8152602001806116c3602b913960400191505060405180910390fd5b50600090815260016020908152604080832073ffffffffffffffffffffffffffffffffffffffff949094168352929052205490565b7fffffffff000000000000000000000000000000000000000000000000000000001660009081526020819052604090205460ff1690565b81518351146106e25760405162461bcd60e51b815260040180806020018281038252602881526020018061181b6028913960400191505060405180910390fd5b73ffffffffffffffffffffffffffffffffffffffff84166107345760405162461bcd60e51b81526004018080602001828103825260258152602001806117486025913960400191505060405180910390fd5b61073c610f7e565b73ffffffffffffffffffffffffffffffffffffffff168573ffffffffffffffffffffffffffffffffffffffff16148061078157506107818561077c610f7e565b610d2a565b6107bc5760405162461bcd60e51b815260040180806020018281038252603281526020018061176d6032913960400191505060405180910390fd5b60006107c6610f7e565b90506107d6818787878787610a1a565b60005b845181101561090b5760008582815181106107f057fe5b60200260200101519050600085838151811061080857fe5b6020026020010151905061088f816040518060600160405280602a815260200161179f602a91396001600086815260200190815260200160002060008d73ffffffffffffffffffffffffffffffffffffffff1673ffffffffffffffffffffffffffffffffffffffff16815260200190815260200160002054610f839092919063ffffffff16565b600083815260016020908152604080832073ffffffffffffffffffffffffffffffffffffffff8e811685529252808320939093558a16815220546108d3908261101a565b600092835260016020818152604080862073ffffffffffffffffffffffffffffffffffffffff8d1687529091529093205550016107d9565b508473ffffffffffffffffffffffffffffffffffffffff168673ffffffffffffffffffffffffffffffffffffffff168273ffffffffffffffffffffffffffffffffffffffff167f4a39dc06d4c0dbc64b70af90fd698a233a518aa5d07e595d983b8c0526c8f7fb8787604051808060200180602001838103835285818151815260200191508051906020019060200280838360005b838110156109b85781810151838201526020016109a0565b50505050905001838103825284818151815260200191508051906020019060200280838360005b838110156109f75781810151838201526020016109df565b5050505090500194505050505060405180910390a4610a1a81878787878761107b565b505050505050565b60608151835114610a645760405162461bcd60e51b81526004018080602001828103825260298152602001806117f26029913960400191505060405180910390fd5b6060835167ffffffffffffffff81118015610a7e57600080fd5b50604051908082528060200260200182016040528015610aa8578160200160208202803683370190505b50905060005b8451811015610bcc57600073ffffffffffffffffffffffffffffffffffffffff16858281518110610adb57fe5b602002602001015173ffffffffffffffffffffffffffffffffffffffff161415610b365760405162461bcd60e51b81526004018080602001828103825260318152602001806116ee6031913960400191505060405180910390fd5b60016000858381518110610b4657fe5b602002602001015181526020019081526020016000206000868381518110610b6a57fe5b602002602001015173ffffffffffffffffffffffffffffffffffffffff1673ffffffffffffffffffffffffffffffffffffffff16815260200190815260200160002054828281518110610bb957fe5b6020908102919091010152600101610aae565b509392505050565b8173ffffffffffffffffffffffffffffffffffffffff16610bf3610f7e565b73ffffffffffffffffffffffffffffffffffffffff161415610c465760405162461bcd60e51b81526004018080602001828103825260298152602001806117c96029913960400191505060405180910390fd5b8060036000610c53610f7e565b73ffffffffffffffffffffffffffffffffffffffff90811682526020808301939093526040918201600090812091871680825291909352912080547fffffffffffffffffffffffffffffffffffffffffffffffffffffffffffffff001692151592909217909155610cc2610f7e565b73ffffffffffffffffffffffffffffffffffffffff167f17307eab39ab6107e8899845ad3d59bd9653f200f220920489ca2b5937696c318360405180821515815260200191505060405180910390a35050565b60009081526002602052604090205460ff1690565b73ffffffffffffffffffffffffffffffffffffffff918216600090815260036020908152604080832093909416825291909152205460ff1690565b73ffffffffffffffffffffffffffffffffffffffff8416610db75760405162461bcd60e51b81526004018080602001828103825260258152602001806117486025913960400191505060405180910390fd5b610dbf610f7e565b73ffffffffffffffffffffffffffffffffffffffff168573ffffffffffffffffffffffffffffffffffffffff161480610dff5750610dff8561077c610f7e565b610e3a5760405162461bcd60e51b815260040180806020018281038252602981526020018061171f6029913960400191505060405180910390fd5b6000610e44610f7e565b9050610e64818787610e558861135f565b610e5e8861135f565b87610a1a565b610eb8836040518060600160405280602a815260200161179f602a9139600087815260016020908152604080832073ffffffffffffffffffffffffffffffffffffffff8d1684529091529020549190610f83565b600085815260016020908152604080832073ffffffffffffffffffffffffffffffffffffffff8b81168552925280832093909355871681522054610efc908461101a565b600085815260016020908152604080832073ffffffffffffffffffffffffffffffffffffffff808b168086529184529382902094909455805188815291820187905280518a8416938616927fc3d58168c5ae7397731d063d5bbf3d657854427343f4c083240f7aacaa2d0f6292908290030190a4610a1a8187878787876113a3565b335b90565b600081848411156110125760405162461bcd60e51b81526004018080602001828103825283818151815260200191508051906020019080838360005b83811015610fd7578181015183820152602001610fbf565b50505050905090810190601f1680156110045780820380516001836020036101000a031916815260200191505b509250505060405180910390fd5b505050900390565b600082820183811015611074576040805162461bcd60e51b815260206004820152601b60248201527f536166654d6174683a206164646974696f6e206f766572666c6f770000000000604482015290519081900360640190fd5b9392505050565b61109a8473ffffffffffffffffffffffffffffffffffffffff16611579565b15610a1a578373ffffffffffffffffffffffffffffffffffffffff1663bc197c8187878686866040518663ffffffff1660e01b8152600401808673ffffffffffffffffffffffffffffffffffffffff1681526020018573ffffffffffffffffffffffffffffffffffffffff168152602001806020018060200180602001848103845287818151815260200191508051906020019060200280838360005b8381101561114f578181015183820152602001611137565b50505050905001848103835286818151815260200191508051906020019060200280838360005b8381101561118e578181015183820152602001611176565b50505050905001848103825285818151815260200191508051906020019080838360005b838110156111ca5781810151838201526020016111b2565b50505050905090810190601f1680156111f75780820380516001836020036101000a031916815260200191505b5098505050505050505050602060405180830381600087803b15801561121c57600080fd5b505af192505050801561124157506040513d602081101561123c57600080fd5b505160015b6112d65761124d611585565b80611258575061129f565b60405162461bcd60e51b8152602060048201818152835160248401528351849391928392604401919085019080838360008315610fd7578181015183820152602001610fbf565b60405162461bcd60e51b81526004018080602001828103825260348152602001806116676034913960400191505060405180910390fd5b7fffffffff0000000000000000000000000000000000000000000000000000000081167fbc197c8100000000000000000000000000000000000000000000000000000000146113565760405162461bcd60e51b815260040180806020018281038252602881526020018061169b6028913960400191505060405180910390fd5b50505050505050565b60408051600180825281830190925260609182919060208083019080368337019050509050828160008151811061139257fe5b602090810291909101015292915050565b6113c28473ffffffffffffffffffffffffffffffffffffffff16611579565b15610a1a578373ffffffffffffffffffffffffffffffffffffffff1663f23a6e6187878686866040518663ffffffff1660e01b8152600401808673ffffffffffffffffffffffffffffffffffffffff1681526020018573ffffffffffffffffffffffffffffffffffffffff16815260200184815260200183815260200180602001828103825283818151815260200191508051906020019080838360005b83811015611478578181015183820152602001611460565b50505050905090810190601f1680156114a55780820380516001836020036101000a031916815260200191505b509650505050505050602060405180830381600087803b1580156114c857600080fd5b505af19250505080156114ed57506040513d60208110156114e857600080fd5b505160015b6114f95761124d611585565b7fffffffff0000000000000000000000000000000000000000000000000000000081167ff23a6e6100000000000000000000000000000000000000000000000000000000146113565760405162461bcd60e51b815260040180806020018281038252602881526020018061169b6028913960400191505060405180910390fd5b3b151590565b60e01c90565b600060443d101561159557610f80565b600481823e6308c379a06115a9825161157f565b146115b357610f80565b6040517ffffffffffffffffffffffffffffffffffffffffffffffffffffffffffffffffc3d016004823e80513d67ffffffffffffffff81602484011181841117156116015750505050610f80565b8284019250825191508082111561161b5750505050610f80565b503d8301602082840101111561163357505050610f80565b601f017fffffffffffffffffffffffffffffffffffffffffffffffffffffffffffffffe01681016020016040529150509056fe455243313135353a207472616e7366657220746f206e6f6e2045524331313535526563656976657220696d706c656d656e746572455243313135353a204552433131353552656365697665722072656a656374656420746f6b656e73455243313135353a2062616c616e636520717565727920666f7220746865207a65726f2061646472657373455243313135353a2062617463682062616c616e636520717565727920666f7220746865207a65726f2061646472657373455243313135353a2063616c6c6572206973206e6f74206f776e6572206e6f7220617070726f766564455243313135353a207472616e7366657220746f20746865207a65726f2061646472657373455243313135353a207472616e736665722063616c6c6572206973206e6f74206f776e6572206e6f7220617070726f766564455243313135353a20696e73756666696369656e742062616c616e636520666f72207472616e73666572455243313135353a2073657474696e6720617070726f76616c2073746174757320666f722073656c66455243313135353a206163636f756e747320616e6420696473206c656e677468206d69736d61746368455243313135353a2069647320616e6420616d6f756e7473206c656e677468206d69736d61746368a264697066735822122010c9e8f86606b4f6ef09846cab5db8547852e87003aead07256694eb9b9599ec64736f6c63430007030033",
  "immutableReferences": {},
  "source": "// SPDX-License-Identifier: MIT\n\npragma solidity >=0.6.0 <0.8.0;\n\nimport \"./IERC1155.sol\";\nimport \"./IERC1155MetadataURI.sol\";\nimport \"./IERC1155Receiver.sol\";\nimport \"../../GSN/Context.sol\";\nimport \"../../introspection/ERC165.sol\";\nimport \"../../math/SafeMath.sol\";\nimport \"../../utils/Address.sol\";\n\n/**\n *\n * @dev Implementation of the basic standard multi-token.\n * See https://eips.ethereum.org/EIPS/eip-1155\n * Originally based on code by Enjin: https://github.com/enjin/erc-1155\n *\n * _Available since v3.1._\n */\ncontract ERC1155 is Context, ERC165, IERC1155 {\n    using SafeMath for uint256;\n    using Address for address;\n\n    // Mapping from token ID to account balances\n    mapping (uint256 => mapping(address => uint256)) private _balances;\n    mapping(uint256 =>bool)  private _minted;\n    // Mapping from account to operator approvals\n    mapping (address => mapping(address => bool)) private _operatorApprovals;\n\n    // Used as the URI for all token types by relying on ID substitution, e.g. https://token-cdn-domain/{id}.json\n    string private _uri;\n\n    /*\n     *     bytes4(keccak256('balanceOf(address,uint256)')) == 0x00fdd58e\n     *     bytes4(keccak256('balanceOfBatch(address[],uint256[])')) == 0x4e1273f4\n     *     bytes4(keccak256('setApprovalForAll(address,bool)')) == 0xa22cb465\n     *     bytes4(keccak256('isApprovedForAll(address,address)')) == 0xe985e9c5\n     *     bytes4(keccak256('safeTransferFrom(address,address,uint256,uint256,bytes)')) == 0xf242432a\n     *     bytes4(keccak256('safeBatchTransferFrom(address,address,uint256[],uint256[],bytes)')) == 0x2eb2c2d6\n     *\n     *     => 0x00fdd58e ^ 0x4e1273f4 ^ 0xa22cb465 ^\n     *        0xe985e9c5 ^ 0xf242432a ^ 0x2eb2c2d6 == 0xd9b67a26\n     */\n    bytes4 private constant _INTERFACE_ID_ERC1155 = 0xd9b67a26;\n\n    /*\n     *     bytes4(keccak256('uri(uint256)')) == 0x0e89341c\n     */\n    bytes4 private constant _INTERFACE_ID_ERC1155_METADATA_URI = 0x0e89341c;\n\n    /**\n     * @dev See {_setURI}.\n     */\n    constructor () {\n      //  _setURI(uri_);\n\n        // register the supported interfaces to conform to ERC1155 via ERC165\n        _registerInterface(_INTERFACE_ID_ERC1155);\n\n        // register the supported interfaces to conform to ERC1155MetadataURI via ERC165\n        _registerInterface(_INTERFACE_ID_ERC1155_METADATA_URI);\n    }\n\n    /**\n     * @dev See {IERC1155MetadataURI-uri}.\n     *\n     * This implementation returns the same URI for *all* token types. It relies\n     * on the token type ID substitution mechanism\n     * https://eips.ethereum.org/EIPS/eip-1155#metadata[defined in the EIP].\n     *\n     * Clients calling this function must replace the `\\{id\\}` substring with the\n     * actual token type ID.\n     */\n   \n    /**\n     * @dev See {IERC1155-balanceOf}.\n     *\n     * Requirements:\n     *\n     * - `account` cannot be the zero address.\n     */\n    function balanceOf(address account, uint256 id) public view override returns (uint256) {\n        require(account != address(0), \"ERC1155: balance query for the zero address\");\n        return _balances[id][account];\n    }\n    function hasMinted(uint id) public view returns(bool){\n        return _minted[id];\n    }\n    /**\n     * @dev See {IERC1155-balanceOfBatch}.\n     *\n     * Requirements:\n     *\n     * - `accounts` and `ids` must have the same length.\n     */\n    function balanceOfBatch(\n        address[] memory accounts,\n        uint256[] memory ids\n    )\n        public\n        view\n        override\n        returns (uint256[] memory)\n    {\n        require(accounts.length == ids.length, \"ERC1155: accounts and ids length mismatch\");\n\n        uint256[] memory batchBalances = new uint256[](accounts.length);\n\n        for (uint256 i = 0; i < accounts.length; ++i) {\n            require(accounts[i] != address(0), \"ERC1155: batch balance query for the zero address\");\n            batchBalances[i] = _balances[ids[i]][accounts[i]];\n        }\n\n        return batchBalances;\n    }\n\n    /**\n     * @dev See {IERC1155-setApprovalForAll}.\n     */\n    function setApprovalForAll(address operator, bool approved) public virtual override {\n        require(_msgSender() != operator, \"ERC1155: setting approval status for self\");\n\n        _operatorApprovals[_msgSender()][operator] = approved;\n        emit ApprovalForAll(_msgSender(), operator, approved);\n    }\n\n    /**\n     * @dev See {IERC1155-isApprovedForAll}.\n     */\n    function isApprovedForAll(address account, address operator) public view override returns (bool) {\n        return _operatorApprovals[account][operator];\n    }\n\n    /**\n     * @dev See {IERC1155-safeTransferFrom}.\n     */\n    function safeTransferFrom(\n        address from,\n        address to,\n        uint256 id,\n        uint256 amount,\n        bytes memory data\n    )\n        public\n        virtual\n        override\n    {\n        require(to != address(0), \"ERC1155: transfer to the zero address\");\n        require(\n            from == _msgSender() || isApprovedForAll(from, _msgSender()),\n            \"ERC1155: caller is not owner nor approved\"\n        );\n\n        address operator = _msgSender();\n\n        _beforeTokenTransfer(operator, from, to, _asSingletonArray(id), _asSingletonArray(amount), data);\n\n        _balances[id][from] = _balances[id][from].sub(amount, \"ERC1155: insufficient balance for transfer\");\n        _balances[id][to] = _balances[id][to].add(amount);\n\n        emit TransferSingle(operator, from, to, id, amount);\n\n        _doSafeTransferAcceptanceCheck(operator, from, to, id, amount, data);\n    }\n\n    /**\n     * @dev See {IERC1155-safeBatchTransferFrom}.\n     */\n    function safeBatchTransferFrom(\n        address from,\n        address to,\n        uint256[] memory ids,\n        uint256[] memory amounts,\n        bytes memory data\n    )\n        public\n        virtual\n        override\n    {\n        require(ids.length == amounts.length, \"ERC1155: ids and amounts length mismatch\");\n        require(to != address(0), \"ERC1155: transfer to the zero address\");\n        require(\n            from == _msgSender() || isApprovedForAll(from, _msgSender()),\n            \"ERC1155: transfer caller is not owner nor approved\"\n        );\n\n        address operator = _msgSender();\n\n        _beforeTokenTransfer(operator, from, to, ids, amounts, data);\n\n        for (uint256 i = 0; i < ids.length; ++i) {\n            uint256 id = ids[i];\n            uint256 amount = amounts[i];\n\n            _balances[id][from] = _balances[id][from].sub(\n                amount,\n                \"ERC1155: insufficient balance for transfer\"\n            );\n            _balances[id][to] = _balances[id][to].add(amount);\n        }\n\n        emit TransferBatch(operator, from, to, ids, amounts);\n\n        _doSafeBatchTransferAcceptanceCheck(operator, from, to, ids, amounts, data);\n    }\n\n    /**\n     * @dev Sets a new URI for all token types, by relying on the token type ID\n     * substitution mechanism\n     * https://eips.ethereum.org/EIPS/eip-1155#metadata[defined in the EIP].\n     *\n     * By this mechanism, any occurrence of the `\\{id\\}` substring in either the\n     * URI or any of the amounts in the JSON file at said URI will be replaced by\n     * clients with the token type ID.\n     *\n     * For example, the `https://token-cdn-domain/\\{id\\}.json` URI would be\n     * interpreted by clients as\n     * `https://token-cdn-domain/000000000000000000000000000000000000000000000000000000000004cce0.json`\n     * for token type ID 0x4cce0.\n     *\n     * See {uri}.\n     *\n     * Because these URIs cannot be meaningfully represented by the {URI} event,\n     * this function emits no events.\n     */\n    function _setURI(string memory newuri) internal virtual {\n        _uri = newuri;\n    }\n     function getURI() internal virtual returns(string memory) {\n        return _uri;\n    }\n    /**\n     * @dev Creates `amount` tokens of token type `id`, and assigns them to `account`.\n     *\n     * Emits a {TransferSingle} event.\n     *\n     * Requirements:\n     *\n     * - `account` cannot be the zero address.\n     * - If `to` refers to a smart contract, it must implement {IERC1155Receiver-onERC1155Received} and return the\n     * acceptance magic value.\n     */\n    function _mint(address account, uint256 id, uint256 amount, bytes memory data) internal virtual {\n        require(account != address(0), \"ERC1155: mint to the zero address\");\n        if(_minted[id]==false) _minted[id]=true;\n\n        \n        address operator = _msgSender();\n\n        _beforeTokenTransfer(operator, address(0), account, _asSingletonArray(id), _asSingletonArray(amount), data);\n\n        _balances[id][account] = _balances[id][account].add(amount);\n        emit TransferSingle(operator, address(0), account, id, amount);\n\n        _doSafeTransferAcceptanceCheck(operator, address(0), account, id, amount, data);\n    }\n\n    /**\n     * @dev xref:ROOT:erc1155.adoc#batch-operations[Batched] version of {_mint}.\n     *\n     * Requirements:\n     *\n     * - `ids` and `amounts` must have the same length.\n     * - If `to` refers to a smart contract, it must implement {IERC1155Receiver-onERC1155BatchReceived} and return the\n     * acceptance magic value.\n     */\n    function _mintBatch(address to, uint256[] memory ids, uint256[] memory amounts, bytes memory data) internal virtual {\n        require(to != address(0), \"ERC1155: mint to the zero address\");\n        require(ids.length == amounts.length, \"ERC1155: ids and amounts length mismatch\");\n\n        address operator = _msgSender();\n\n        _beforeTokenTransfer(operator, address(0), to, ids, amounts, data);\n\n        for (uint i = 0; i < ids.length; i++) {\n            if(_minted[ids[i]]==false) _minted[ids[i]]=true;\n            _balances[ids[i]][to] = amounts[i].add(_balances[ids[i]][to]);\n        }\n\n        emit TransferBatch(operator, address(0), to, ids, amounts);\n\n        _doSafeBatchTransferAcceptanceCheck(operator, address(0), to, ids, amounts, data);\n    }\n\n    /**\n     * @dev Destroys `amount` tokens of token type `id` from `account`\n     *\n     * Requirements:\n     *\n     * - `account` cannot be the zero address.\n     * - `account` must have at least `amount` tokens of token type `id`.\n     */\n    function _burn(address account, uint256 id, uint256 amount) internal virtual {\n        require(account != address(0), \"ERC1155: burn from the zero address\");\n\n        address operator = _msgSender();\n\n        _beforeTokenTransfer(operator, account, address(0), _asSingletonArray(id), _asSingletonArray(amount), \"\");\n\n        _balances[id][account] = _balances[id][account].sub(\n            amount,\n            \"ERC1155: burn amount exceeds balance\"\n        );\n\n        emit TransferSingle(operator, account, address(0), id, amount);\n    }\n\n    /**\n     * @dev xref:ROOT:erc1155.adoc#batch-operations[Batched] version of {_burn}.\n     *\n     * Requirements:\n     *\n     * - `ids` and `amounts` must have the same length.\n     */\n    function _burnBatch(address account, uint256[] memory ids, uint256[] memory amounts) internal virtual {\n        require(account != address(0), \"ERC1155: burn from the zero address\");\n        require(ids.length == amounts.length, \"ERC1155: ids and amounts length mismatch\");\n\n        address operator = _msgSender();\n\n        _beforeTokenTransfer(operator, account, address(0), ids, amounts, \"\");\n\n        for (uint i = 0; i < ids.length; i++) {\n            _balances[ids[i]][account] = _balances[ids[i]][account].sub(\n                amounts[i],\n                \"ERC1155: burn amount exceeds balance\"\n            );\n        }\n\n        emit TransferBatch(operator, account, address(0), ids, amounts);\n    }\n\n    /**\n     * @dev Hook that is called before any token transfer. This includes minting\n     * and burning, as well as batched variants.\n     *\n     * The same hook is called on both single and batched variants. For single\n     * transfers, the length of the `id` and `amount` arrays will be 1.\n     *\n     * Calling conditions (for each `id` and `amount` pair):\n     *\n     * - When `from` and `to` are both non-zero, `amount` of ``from``'s tokens\n     * of token type `id` will be  transferred to `to`.\n     * - When `from` is zero, `amount` tokens of token type `id` will be minted\n     * for `to`.\n     * - when `to` is zero, `amount` of ``from``'s tokens of token type `id`\n     * will be burned.\n     * - `from` and `to` are never both zero.\n     * - `ids` and `amounts` have the same, non-zero length.\n     *\n     * To learn more about hooks, head to xref:ROOT:extending-contracts.adoc#using-hooks[Using Hooks].\n     */\n    function _beforeTokenTransfer(\n        address operator,\n        address from,\n        address to,\n        uint256[] memory ids,\n        uint256[] memory amounts,\n        bytes memory data\n    )\n        internal virtual\n    { }\n\n    function _doSafeTransferAcceptanceCheck(\n        address operator,\n        address from,\n        address to,\n        uint256 id,\n        uint256 amount,\n        bytes memory data\n    )\n        private\n    {\n        if (to.isContract()) {\n            try IERC1155Receiver(to).onERC1155Received(operator, from, id, amount, data) returns (bytes4 response) {\n                if (response != IERC1155Receiver(to).onERC1155Received.selector) {\n                    revert(\"ERC1155: ERC1155Receiver rejected tokens\");\n                }\n            } catch Error(string memory reason) {\n                revert(reason);\n            } catch {\n                revert(\"ERC1155: transfer to non ERC1155Receiver implementer\");\n            }\n        }\n    }\n\n    function _doSafeBatchTransferAcceptanceCheck(\n        address operator,\n        address from,\n        address to,\n        uint256[] memory ids,\n        uint256[] memory amounts,\n        bytes memory data\n    )\n        private\n    {\n        if (to.isContract()) {\n            try IERC1155Receiver(to).onERC1155BatchReceived(operator, from, ids, amounts, data) returns (bytes4 response) {\n                if (response != IERC1155Receiver(to).onERC1155BatchReceived.selector) {\n                    revert(\"ERC1155: ERC1155Receiver rejected tokens\");\n                }\n            } catch Error(string memory reason) {\n                revert(reason);\n            } catch {\n                revert(\"ERC1155: transfer to non ERC1155Receiver implementer\");\n            }\n        }\n    }\n\n    function _asSingletonArray(uint256 element) private pure returns (uint256[] memory) {\n        uint256[] memory array = new uint256[](1);\n        array[0] = element;\n\n        return array;\n    }\n}\n",
  "sourcePath": "/Volumes/Work/Crypto/GameCredits/bondingcontracts/contracts/openzeppelin/contracts/token/ERC1155/ERC1155.sol",
  "compiler": {
    "name": "solc",
    "version": "0.7.3+commit.9bfce1f6.Emscripten.clang"
  },
  "schemaVersion": "3.3.4",
  "updatedAt": "2021-05-14T01:48:59.910Z",
  "devdoc": {
    "details": "Implementation of the basic standard multi-token. See https://eips.ethereum.org/EIPS/eip-1155 Originally based on code by Enjin: https://github.com/enjin/erc-1155 _Available since v3.1._",
    "kind": "dev",
    "methods": {
      "balanceOf(address,uint256)": {
        "details": "See {IERC1155-balanceOf}. Requirements: - `account` cannot be the zero address."
      },
      "balanceOfBatch(address[],uint256[])": {
        "details": "See {IERC1155-balanceOfBatch}. Requirements: - `accounts` and `ids` must have the same length."
      },
      "constructor": {
        "details": "See {_setURI}."
      },
      "isApprovedForAll(address,address)": {
        "details": "See {IERC1155-isApprovedForAll}."
      },
      "safeBatchTransferFrom(address,address,uint256[],uint256[],bytes)": {
        "details": "See {IERC1155-safeBatchTransferFrom}."
      },
      "safeTransferFrom(address,address,uint256,uint256,bytes)": {
        "details": "See {IERC1155-safeTransferFrom}."
      },
      "setApprovalForAll(address,bool)": {
        "details": "See {IERC1155-setApprovalForAll}."
      },
      "supportsInterface(bytes4)": {
        "details": "See {IERC165-supportsInterface}. Time complexity O(1), guaranteed to always use less than 30 000 gas."
      }
    },
    "version": 1
  },
  "userdoc": {
    "kind": "user",
    "methods": {},
    "version": 1
  }
}