{
  "contractName": "ProxyAdmin",
  "abi": [
    {
      "anonymous": false,
      "inputs": [
        {
          "indexed": true,
          "internalType": "address",
          "name": "previousOwner",
          "type": "address"
        },
        {
          "indexed": true,
          "internalType": "address",
          "name": "newOwner",
          "type": "address"
        }
      ],
      "name": "OwnershipTransferred",
      "type": "event"
    },
    {
      "inputs": [],
      "name": "owner",
      "outputs": [
        {
          "internalType": "address",
          "name": "",
          "type": "address"
        }
      ],
      "stateMutability": "view",
      "type": "function"
    },
    {
      "inputs": [],
      "name": "renounceOwnership",
      "outputs": [],
      "stateMutability": "nonpayable",
      "type": "function"
    },
    {
      "inputs": [
        {
          "internalType": "address",
          "name": "newOwner",
          "type": "address"
        }
      ],
      "name": "transferOwnership",
      "outputs": [],
      "stateMutability": "nonpayable",
      "type": "function"
    },
    {
      "inputs": [
        {
          "internalType": "contract TransparentUpgradeableProxy",
          "name": "proxy",
          "type": "address"
        }
      ],
      "name": "getProxyImplementation",
      "outputs": [
        {
          "internalType": "address",
          "name": "",
          "type": "address"
        }
      ],
      "stateMutability": "view",
      "type": "function"
    },
    {
      "inputs": [
        {
          "internalType": "contract TransparentUpgradeableProxy",
          "name": "proxy",
          "type": "address"
        }
      ],
      "name": "getProxyAdmin",
      "outputs": [
        {
          "internalType": "address",
          "name": "",
          "type": "address"
        }
      ],
      "stateMutability": "view",
      "type": "function"
    },
    {
      "inputs": [
        {
          "internalType": "contract TransparentUpgradeableProxy",
          "name": "proxy",
          "type": "address"
        },
        {
          "internalType": "address",
          "name": "newAdmin",
          "type": "address"
        }
      ],
      "name": "changeProxyAdmin",
      "outputs": [],
      "stateMutability": "nonpayable",
      "type": "function"
    },
    {
      "inputs": [
        {
          "internalType": "contract TransparentUpgradeableProxy",
          "name": "proxy",
          "type": "address"
        },
        {
          "internalType": "address",
          "name": "implementation",
          "type": "address"
        }
      ],
      "name": "upgrade",
      "outputs": [],
      "stateMutability": "nonpayable",
      "type": "function"
    },
    {
      "inputs": [
        {
          "internalType": "contract TransparentUpgradeableProxy",
          "name": "proxy",
          "type": "address"
        },
        {
          "internalType": "address",
          "name": "implementation",
          "type": "address"
        },
        {
          "internalType": "bytes",
          "name": "data",
          "type": "bytes"
        }
      ],
      "name": "upgradeAndCall",
      "outputs": [],
      "stateMutability": "payable",
      "type": "function"
    }
  ],
  "bytecode": "0x608060405234801561001057600080fd5b50600061001b61006a565b600080546001600160a01b0319166001600160a01b0383169081178255604051929350917f8be0079c531659141344cd1fd0a4f28419497f9722a3daafe3b4186f6b6457e0908290a35061006e565b3390565b610ac68061007d6000396000f3fe60806040526004361061007b5760003560e01c80639623609d1161004e5780639623609d1461015d57806399a88ec414610229578063f2fde38b14610271578063f3b7dead146102b15761007b565b8063204e1c7a14610080578063715018a6146100e95780637eff275e146101005780638da5cb5b14610148575b600080fd5b34801561008c57600080fd5b506100c0600480360360208110156100a357600080fd5b503573ffffffffffffffffffffffffffffffffffffffff166102f1565b6040805173ffffffffffffffffffffffffffffffffffffffff9092168252519081900360200190f35b3480156100f557600080fd5b506100fe6103a9565b005b34801561010c57600080fd5b506100fe6004803603604081101561012357600080fd5b5073ffffffffffffffffffffffffffffffffffffffff813581169160200135166104a9565b34801561015457600080fd5b506100c06105bf565b6100fe6004803603606081101561017357600080fd5b73ffffffffffffffffffffffffffffffffffffffff82358116926020810135909116918101906060810160408201356401000000008111156101b457600080fd5b8201836020820111156101c657600080fd5b803590602001918460018302840111640100000000831117156101e857600080fd5b91908080601f0160208091040260200160405190810160405280939291908181526020018383808284376000920191909152509295506105db945050505050565b34801561023557600080fd5b506100fe6004803603604081101561024c57600080fd5b5073ffffffffffffffffffffffffffffffffffffffff8135811691602001351661075d565b34801561027d57600080fd5b506100fe6004803603602081101561029457600080fd5b503573ffffffffffffffffffffffffffffffffffffffff16610857565b3480156102bd57600080fd5b506100c0600480360360208110156102d457600080fd5b503573ffffffffffffffffffffffffffffffffffffffff166109e1565b60008060608373ffffffffffffffffffffffffffffffffffffffff1660405180807f5c60da1b000000000000000000000000000000000000000000000000000000008152506004019050600060405180830381855afa9150503d8060008114610376576040519150601f19603f3d011682016040523d82523d6000602084013e61037b565b606091505b50915091508161038a57600080fd5b80806020019051602081101561039f57600080fd5b5051949350505050565b6103b1610a66565b60005473ffffffffffffffffffffffffffffffffffffffff90811691161461043a57604080517f08c379a000000000000000000000000000000000000000000000000000000000815260206004820181905260248201527f4f776e61626c653a2063616c6c6572206973206e6f7420746865206f776e6572604482015290519081900360640190fd5b6000805460405173ffffffffffffffffffffffffffffffffffffffff909116907f8be0079c531659141344cd1fd0a4f28419497f9722a3daafe3b4186f6b6457e0908390a3600080547fffffffffffffffffffffffff0000000000000000000000000000000000000000169055565b6104b1610a66565b60005473ffffffffffffffffffffffffffffffffffffffff90811691161461053a57604080517f08c379a000000000000000000000000000000000000000000000000000000000815260206004820181905260248201527f4f776e61626c653a2063616c6c6572206973206e6f7420746865206f776e6572604482015290519081900360640190fd5b8173ffffffffffffffffffffffffffffffffffffffff16638f283970826040518263ffffffff1660e01b8152600401808273ffffffffffffffffffffffffffffffffffffffff168152602001915050600060405180830381600087803b1580156105a357600080fd5b505af11580156105b7573d6000803e3d6000fd5b505050505050565b60005473ffffffffffffffffffffffffffffffffffffffff1690565b6105e3610a66565b60005473ffffffffffffffffffffffffffffffffffffffff90811691161461066c57604080517f08c379a000000000000000000000000000000000000000000000000000000000815260206004820181905260248201527f4f776e61626c653a2063616c6c6572206973206e6f7420746865206f776e6572604482015290519081900360640190fd5b8273ffffffffffffffffffffffffffffffffffffffff16634f1ef2863484846040518463ffffffff1660e01b8152600401808373ffffffffffffffffffffffffffffffffffffffff16815260200180602001828103825283818151815260200191508051906020019080838360005b838110156106f35781810151838201526020016106db565b50505050905090810190601f1680156107205780820380516001836020036101000a031916815260200191505b5093505050506000604051808303818588803b15801561073f57600080fd5b505af1158015610753573d6000803e3d6000fd5b5050505050505050565b610765610a66565b60005473ffffffffffffffffffffffffffffffffffffffff9081169116146107ee57604080517f08c379a000000000000000000000000000000000000000000000000000000000815260206004820181905260248201527f4f776e61626c653a2063616c6c6572206973206e6f7420746865206f776e6572604482015290519081900360640190fd5b8173ffffffffffffffffffffffffffffffffffffffff16633659cfe6826040518263ffffffff1660e01b8152600401808273ffffffffffffffffffffffffffffffffffffffff168152602001915050600060405180830381600087803b1580156105a357600080fd5b61085f610a66565b60005473ffffffffffffffffffffffffffffffffffffffff9081169116146108e857604080517f08c379a000000000000000000000000000000000000000000000000000000000815260206004820181905260248201527f4f776e61626c653a2063616c6c6572206973206e6f7420746865206f776e6572604482015290519081900360640190fd5b73ffffffffffffffffffffffffffffffffffffffff8116610954576040517f08c379a0000000000000000000000000000000000000000000000000000000008152600401808060200182810382526026815260200180610a6b6026913960400191505060405180910390fd5b6000805460405173ffffffffffffffffffffffffffffffffffffffff808516939216917f8be0079c531659141344cd1fd0a4f28419497f9722a3daafe3b4186f6b6457e091a3600080547fffffffffffffffffffffffff00000000000000000000000000000000000000001673ffffffffffffffffffffffffffffffffffffffff92909216919091179055565b60008060608373ffffffffffffffffffffffffffffffffffffffff1660405180807ff851a440000000000000000000000000000000000000000000000000000000008152506004019050600060405180830381855afa9150503d8060008114610376576040519150601f19603f3d011682016040523d82523d6000602084013e61037b565b339056fe4f776e61626c653a206e6577206f776e657220697320746865207a65726f2061646472657373a26469706673582212207a734c884ba2171585b3fe150d351064d2a552a79deb9dd0e826d81840fb06d564736f6c63430007030033",
  "immutableReferences": {},
  "source": "// SPDX-License-Identifier: MIT\n\npragma solidity >=0.6.0 <0.8.0;\n\nimport \"../access/Ownable.sol\";\nimport \"./TransparentUpgradeableProxy.sol\";\n\n/**\n * @dev This is an auxiliary contract meant to be assigned as the admin of a {TransparentUpgradeableProxy}. For an\n * explanation of why you would want to use this see the documentation for {TransparentUpgradeableProxy}.\n */\ncontract ProxyAdmin is Ownable {\n\n    /**\n     * @dev Returns the current implementation of `proxy`.\n     * \n     * Requirements:\n     * \n     * - This contract must be the admin of `proxy`.\n     */\n    function getProxyImplementation(TransparentUpgradeableProxy proxy) public view returns (address) {\n        // We need to manually run the static call since the getter cannot be flagged as view\n        // bytes4(keccak256(\"implementation()\")) == 0x5c60da1b\n        (bool success, bytes memory returndata) = address(proxy).staticcall(hex\"5c60da1b\");\n        require(success);\n        return abi.decode(returndata, (address));\n    }\n\n    /**\n     * @dev Returns the current admin of `proxy`.\n     * \n     * Requirements:\n     * \n     * - This contract must be the admin of `proxy`.\n     */\n    function getProxyAdmin(TransparentUpgradeableProxy proxy) public view returns (address) {\n        // We need to manually run the static call since the getter cannot be flagged as view\n        // bytes4(keccak256(\"admin()\")) == 0xf851a440\n        (bool success, bytes memory returndata) = address(proxy).staticcall(hex\"f851a440\");\n        require(success);\n        return abi.decode(returndata, (address));\n    }\n\n    /**\n     * @dev Changes the admin of `proxy` to `newAdmin`.\n     * \n     * Requirements:\n     * \n     * - This contract must be the current admin of `proxy`.\n     */\n    function changeProxyAdmin(TransparentUpgradeableProxy proxy, address newAdmin) public onlyOwner {\n        proxy.changeAdmin(newAdmin);\n    }\n\n    /**\n     * @dev Upgrades `proxy` to `implementation`. See {TransparentUpgradeableProxy-upgradeTo}.\n     * \n     * Requirements:\n     * \n     * - This contract must be the admin of `proxy`.\n     */\n    function upgrade(TransparentUpgradeableProxy proxy, address implementation) public onlyOwner {\n        proxy.upgradeTo(implementation);\n    }\n\n    /**\n     * @dev Upgrades `proxy` to `implementation` and calls a function on the new implementation. See\n     * {TransparentUpgradeableProxy-upgradeToAndCall}.\n     * \n     * Requirements:\n     * \n     * - This contract must be the admin of `proxy`.\n     */\n    function upgradeAndCall(TransparentUpgradeableProxy proxy, address implementation, bytes memory data) public payable onlyOwner {\n        proxy.upgradeToAndCall{value: msg.value}(implementation, data);\n    }\n}\n",
  "sourcePath": "/Volumes/Work/Crypto/GameCredits/bondingcontracts/contracts/openzeppelin/contracts/proxy/ProxyAdmin.sol",
  "compiler": {
    "name": "solc",
    "version": "0.7.3+commit.9bfce1f6.Emscripten.clang"
  },
  "schemaVersion": "3.3.4",
  "updatedAt": "2021-05-14T01:48:59.903Z",
  "devdoc": {
    "details": "This is an auxiliary contract meant to be assigned as the admin of a {TransparentUpgradeableProxy}. For an explanation of why you would want to use this see the documentation for {TransparentUpgradeableProxy}.",
    "kind": "dev",
    "methods": {
      "changeProxyAdmin(address,address)": {
        "details": "Changes the admin of `proxy` to `newAdmin`.  Requirements:  - This contract must be the current admin of `proxy`."
      },
      "getProxyAdmin(address)": {
        "details": "Returns the current admin of `proxy`.  Requirements:  - This contract must be the admin of `proxy`."
      },
      "getProxyImplementation(address)": {
        "details": "Returns the current implementation of `proxy`.  Requirements:  - This contract must be the admin of `proxy`."
      },
      "owner()": {
        "details": "Returns the address of the current owner."
      },
      "renounceOwnership()": {
        "details": "Leaves the contract without owner. It will not be possible to call `onlyOwner` functions anymore. Can only be called by the current owner. NOTE: Renouncing ownership will leave the contract without an owner, thereby removing any functionality that is only available to the owner."
      },
      "transferOwnership(address)": {
        "details": "Transfers ownership of the contract to a new account (`newOwner`). Can only be called by the current owner."
      },
      "upgrade(address,address)": {
        "details": "Upgrades `proxy` to `implementation`. See {TransparentUpgradeableProxy-upgradeTo}.  Requirements:  - This contract must be the admin of `proxy`."
      },
      "upgradeAndCall(address,address,bytes)": {
        "details": "Upgrades `proxy` to `implementation` and calls a function on the new implementation. See {TransparentUpgradeableProxy-upgradeToAndCall}.  Requirements:  - This contract must be the admin of `proxy`."
      }
    },
    "version": 1
  },
  "userdoc": {
    "kind": "user",
    "methods": {},
    "version": 1
  }
}