{
  "_format": "hh-sol-artifact-1",
  "contractName": "NFTbase",
  "sourceName": "contracts/NFTbase.sol",
  "abi": [
    {
      "inputs": [
        {
          "internalType": "string",
          "name": "uri",
          "type": "string"
        }
      ],
      "stateMutability": "nonpayable",
      "type": "constructor"
    },
    {
      "anonymous": false,
      "inputs": [
        {
          "indexed": true,
          "internalType": "address",
          "name": "account",
          "type": "address"
        },
        {
          "indexed": true,
          "internalType": "address",
          "name": "operator",
          "type": "address"
        },
        {
          "indexed": false,
          "internalType": "bool",
          "name": "approved",
          "type": "bool"
        }
      ],
      "name": "ApprovalForAll",
      "type": "event"
    },
    {
      "anonymous": false,
      "inputs": [
        {
          "indexed": true,
          "internalType": "bytes32",
          "name": "role",
          "type": "bytes32"
        },
        {
          "indexed": true,
          "internalType": "bytes32",
          "name": "previousAdminRole",
          "type": "bytes32"
        },
        {
          "indexed": true,
          "internalType": "bytes32",
          "name": "newAdminRole",
          "type": "bytes32"
        }
      ],
      "name": "RoleAdminChanged",
      "type": "event"
    },
    {
      "anonymous": false,
      "inputs": [
        {
          "indexed": true,
          "internalType": "bytes32",
          "name": "role",
          "type": "bytes32"
        },
        {
          "indexed": true,
          "internalType": "address",
          "name": "account",
          "type": "address"
        },
        {
          "indexed": true,
          "internalType": "address",
          "name": "sender",
          "type": "address"
        }
      ],
      "name": "RoleGranted",
      "type": "event"
    },
    {
      "anonymous": false,
      "inputs": [
        {
          "indexed": true,
          "internalType": "bytes32",
          "name": "role",
          "type": "bytes32"
        },
        {
          "indexed": true,
          "internalType": "address",
          "name": "account",
          "type": "address"
        },
        {
          "indexed": true,
          "internalType": "address",
          "name": "sender",
          "type": "address"
        }
      ],
      "name": "RoleRevoked",
      "type": "event"
    },
    {
      "anonymous": false,
      "inputs": [
        {
          "indexed": true,
          "internalType": "address",
          "name": "operator",
          "type": "address"
        },
        {
          "indexed": true,
          "internalType": "address",
          "name": "from",
          "type": "address"
        },
        {
          "indexed": true,
          "internalType": "address",
          "name": "to",
          "type": "address"
        },
        {
          "indexed": false,
          "internalType": "uint256[]",
          "name": "ids",
          "type": "uint256[]"
        },
        {
          "indexed": false,
          "internalType": "uint256[]",
          "name": "values",
          "type": "uint256[]"
        }
      ],
      "name": "TransferBatch",
      "type": "event"
    },
    {
      "anonymous": false,
      "inputs": [
        {
          "indexed": true,
          "internalType": "address",
          "name": "operator",
          "type": "address"
        },
        {
          "indexed": true,
          "internalType": "address",
          "name": "from",
          "type": "address"
        },
        {
          "indexed": true,
          "internalType": "address",
          "name": "to",
          "type": "address"
        },
        {
          "indexed": false,
          "internalType": "uint256",
          "name": "id",
          "type": "uint256"
        },
        {
          "indexed": false,
          "internalType": "uint256",
          "name": "value",
          "type": "uint256"
        }
      ],
      "name": "TransferSingle",
      "type": "event"
    },
    {
      "anonymous": false,
      "inputs": [
        {
          "indexed": false,
          "internalType": "string",
          "name": "value",
          "type": "string"
        },
        {
          "indexed": true,
          "internalType": "uint256",
          "name": "id",
          "type": "uint256"
        }
      ],
      "name": "URI",
      "type": "event"
    },
    {
      "inputs": [],
      "name": "BURNER",
      "outputs": [
        {
          "internalType": "bytes32",
          "name": "",
          "type": "bytes32"
        }
      ],
      "stateMutability": "view",
      "type": "function"
    },
    {
      "inputs": [],
      "name": "DEFAULT_ADMIN_ROLE",
      "outputs": [
        {
          "internalType": "bytes32",
          "name": "",
          "type": "bytes32"
        }
      ],
      "stateMutability": "view",
      "type": "function"
    },
    {
      "inputs": [],
      "name": "METADATA_ADMIN",
      "outputs": [
        {
          "internalType": "bytes32",
          "name": "",
          "type": "bytes32"
        }
      ],
      "stateMutability": "view",
      "type": "function"
    },
    {
      "inputs": [],
      "name": "MINTER",
      "outputs": [
        {
          "internalType": "bytes32",
          "name": "",
          "type": "bytes32"
        }
      ],
      "stateMutability": "view",
      "type": "function"
    },
    {
      "inputs": [
        {
          "internalType": "uint256",
          "name": "",
          "type": "uint256"
        }
      ],
      "name": "_tokenURIs",
      "outputs": [
        {
          "internalType": "string",
          "name": "",
          "type": "string"
        }
      ],
      "stateMutability": "view",
      "type": "function"
    },
    {
      "inputs": [
        {
          "internalType": "address",
          "name": "account",
          "type": "address"
        },
        {
          "internalType": "uint256",
          "name": "id",
          "type": "uint256"
        }
      ],
      "name": "balanceOf",
      "outputs": [
        {
          "internalType": "uint256",
          "name": "",
          "type": "uint256"
        }
      ],
      "stateMutability": "view",
      "type": "function"
    },
    {
      "inputs": [
        {
          "internalType": "address[]",
          "name": "accounts",
          "type": "address[]"
        },
        {
          "internalType": "uint256[]",
          "name": "ids",
          "type": "uint256[]"
        }
      ],
      "name": "balanceOfBatch",
      "outputs": [
        {
          "internalType": "uint256[]",
          "name": "",
          "type": "uint256[]"
        }
      ],
      "stateMutability": "view",
      "type": "function"
    },
    {
      "inputs": [
        {
          "internalType": "uint256",
          "name": "id",
          "type": "uint256"
        },
        {
          "internalType": "uint256",
          "name": "value",
          "type": "uint256"
        }
      ],
      "name": "burn",
      "outputs": [],
      "stateMutability": "nonpayable",
      "type": "function"
    },
    {
      "inputs": [
        {
          "internalType": "uint256[]",
          "name": "ids",
          "type": "uint256[]"
        },
        {
          "internalType": "uint256[]",
          "name": "values",
          "type": "uint256[]"
        }
      ],
      "name": "burnBatch",
      "outputs": [],
      "stateMutability": "nonpayable",
      "type": "function"
    },
    {
      "inputs": [
        {
          "internalType": "bytes32",
          "name": "role",
          "type": "bytes32"
        }
      ],
      "name": "getRoleAdmin",
      "outputs": [
        {
          "internalType": "bytes32",
          "name": "",
          "type": "bytes32"
        }
      ],
      "stateMutability": "view",
      "type": "function"
    },
    {
      "inputs": [
        {
          "internalType": "bytes32",
          "name": "role",
          "type": "bytes32"
        },
        {
          "internalType": "uint256",
          "name": "index",
          "type": "uint256"
        }
      ],
      "name": "getRoleMember",
      "outputs": [
        {
          "internalType": "address",
          "name": "",
          "type": "address"
        }
      ],
      "stateMutability": "view",
      "type": "function"
    },
    {
      "inputs": [
        {
          "internalType": "bytes32",
          "name": "role",
          "type": "bytes32"
        }
      ],
      "name": "getRoleMemberCount",
      "outputs": [
        {
          "internalType": "uint256",
          "name": "",
          "type": "uint256"
        }
      ],
      "stateMutability": "view",
      "type": "function"
    },
    {
      "inputs": [
        {
          "internalType": "bytes32",
          "name": "role",
          "type": "bytes32"
        },
        {
          "internalType": "address",
          "name": "account",
          "type": "address"
        }
      ],
      "name": "grantRole",
      "outputs": [],
      "stateMutability": "nonpayable",
      "type": "function"
    },
    {
      "inputs": [
        {
          "internalType": "uint256",
          "name": "id",
          "type": "uint256"
        }
      ],
      "name": "hasMinted",
      "outputs": [
        {
          "internalType": "bool",
          "name": "",
          "type": "bool"
        }
      ],
      "stateMutability": "view",
      "type": "function"
    },
    {
      "inputs": [
        {
          "internalType": "bytes32",
          "name": "role",
          "type": "bytes32"
        },
        {
          "internalType": "address",
          "name": "account",
          "type": "address"
        }
      ],
      "name": "hasRole",
      "outputs": [
        {
          "internalType": "bool",
          "name": "",
          "type": "bool"
        }
      ],
      "stateMutability": "view",
      "type": "function"
    },
    {
      "inputs": [
        {
          "internalType": "address",
          "name": "account",
          "type": "address"
        },
        {
          "internalType": "address",
          "name": "operator",
          "type": "address"
        }
      ],
      "name": "isApprovedForAll",
      "outputs": [
        {
          "internalType": "bool",
          "name": "",
          "type": "bool"
        }
      ],
      "stateMutability": "view",
      "type": "function"
    },
    {
      "inputs": [
        {
          "internalType": "address",
          "name": "to",
          "type": "address"
        },
        {
          "internalType": "uint256",
          "name": "id",
          "type": "uint256"
        },
        {
          "internalType": "uint256",
          "name": "value",
          "type": "uint256"
        },
        {
          "internalType": "bytes",
          "name": "data",
          "type": "bytes"
        }
      ],
      "name": "mint",
      "outputs": [],
      "stateMutability": "nonpayable",
      "type": "function"
    },
    {
      "inputs": [
        {
          "internalType": "address",
          "name": "to",
          "type": "address"
        },
        {
          "internalType": "uint256[]",
          "name": "ids",
          "type": "uint256[]"
        },
        {
          "internalType": "uint256[]",
          "name": "values",
          "type": "uint256[]"
        },
        {
          "internalType": "bytes",
          "name": "data",
          "type": "bytes"
        }
      ],
      "name": "mintBatch",
      "outputs": [],
      "stateMutability": "nonpayable",
      "type": "function"
    },
    {
      "inputs": [
        {
          "internalType": "bytes32",
          "name": "role",
          "type": "bytes32"
        },
        {
          "internalType": "address",
          "name": "account",
          "type": "address"
        }
      ],
      "name": "renounceRole",
      "outputs": [],
      "stateMutability": "nonpayable",
      "type": "function"
    },
    {
      "inputs": [
        {
          "internalType": "bytes32",
          "name": "role",
          "type": "bytes32"
        },
        {
          "internalType": "address",
          "name": "account",
          "type": "address"
        }
      ],
      "name": "revokeRole",
      "outputs": [],
      "stateMutability": "nonpayable",
      "type": "function"
    },
    {
      "inputs": [
        {
          "internalType": "address",
          "name": "from",
          "type": "address"
        },
        {
          "internalType": "address",
          "name": "to",
          "type": "address"
        },
        {
          "internalType": "uint256[]",
          "name": "ids",
          "type": "uint256[]"
        },
        {
          "internalType": "uint256[]",
          "name": "amounts",
          "type": "uint256[]"
        },
        {
          "internalType": "bytes",
          "name": "data",
          "type": "bytes"
        }
      ],
      "name": "safeBatchTransferFrom",
      "outputs": [],
      "stateMutability": "nonpayable",
      "type": "function"
    },
    {
      "inputs": [
        {
          "internalType": "address",
          "name": "from",
          "type": "address"
        },
        {
          "internalType": "address",
          "name": "to",
          "type": "address"
        },
        {
          "internalType": "uint256",
          "name": "id",
          "type": "uint256"
        },
        {
          "internalType": "uint256",
          "name": "amount",
          "type": "uint256"
        },
        {
          "internalType": "bytes",
          "name": "data",
          "type": "bytes"
        }
      ],
      "name": "safeTransferFrom",
      "outputs": [],
      "stateMutability": "nonpayable",
      "type": "function"
    },
    {
      "inputs": [
        {
          "internalType": "address",
          "name": "operator",
          "type": "address"
        },
        {
          "internalType": "bool",
          "name": "approved",
          "type": "bool"
        }
      ],
      "name": "setApprovalForAll",
      "outputs": [],
      "stateMutability": "nonpayable",
      "type": "function"
    },
    {
      "inputs": [
        {
          "internalType": "string",
          "name": "newuri",
          "type": "string"
        }
      ],
      "name": "setBaseURI",
      "outputs": [],
      "stateMutability": "nonpayable",
      "type": "function"
    },
    {
      "inputs": [
        {
          "internalType": "string",
          "name": "newuri",
          "type": "string"
        },
        {
          "internalType": "uint256",
          "name": "id",
          "type": "uint256"
        }
      ],
      "name": "setURI",
      "outputs": [],
      "stateMutability": "nonpayable",
      "type": "function"
    },
    {
      "inputs": [
        {
          "internalType": "bytes4",
          "name": "interfaceId",
          "type": "bytes4"
        }
      ],
      "name": "supportsInterface",
      "outputs": [
        {
          "internalType": "bool",
          "name": "",
          "type": "bool"
        }
      ],
      "stateMutability": "view",
      "type": "function"
    },
    {
      "inputs": [
        {
          "internalType": "uint256",
          "name": "tokenid",
          "type": "uint256"
        }
      ],
      "name": "uri",
      "outputs": [
        {
          "internalType": "string",
          "name": "",
          "type": "string"
        }
      ],
      "stateMutability": "view",
      "type": "function"
    }
  ],
  "bytecode": "0x60806040523480156200001157600080fd5b5060405162004afb38038062004afb833981810160405260208110156200003757600080fd5b81019080805160405193929190846401000000008211156200005857600080fd5b838201915060208201858111156200006f57600080fd5b82518660018202830111640100000000821117156200008d57600080fd5b8083526020830192505050908051906020019080838360005b83811015620000c3578082015181840152602081019050620000a6565b50505050905090810190601f168015620000f15780820380516001836020036101000a031916815260200191505b50604052505050620001106301ffc9a760e01b6200027060201b60201c565b6200012863d9b67a2660e01b6200027060201b60201c565b62000140630e89341c60e01b6200027060201b60201c565b620001646000801b620001586200037960201b60201c565b6200038160201b60201c565b620001a57ff6e33f9720e4529cb1c710e3344dc00830589a3239198ffa39b07117085d250e620001996200037960201b60201c565b6200038160201b60201c565b620001e67ff0887ba65ee2024ea881d91b74c2450ef19e1557f03bed3ea9f16b037cbe2dc9620001da6200037960201b60201c565b6200038160201b60201c565b6200021b6000801b7ff0887ba65ee2024ea881d91b74c2450ef19e1557f03bed3ea9f16b037cbe2dc96200039760201b60201c565b620002506000801b7ff6e33f9720e4529cb1c710e3344dc00830589a3239198ffa39b07117085d250e6200039760201b60201c565b80600690805190602001906200026892919062000574565b50506200061a565b63ffffffff60e01b817bffffffffffffffffffffffffffffffffffffffffffffffffffffffff191614156200030d576040517f08c379a000000000000000000000000000000000000000000000000000000000815260040180806020018281038252601c8152602001807f4552433136353a20696e76616c696420696e746572666163652069640000000081525060200191505060405180910390fd5b6001600080837bffffffffffffffffffffffffffffffffffffffffffffffffffffffff19167bffffffffffffffffffffffffffffffffffffffffffffffffffffffff1916815260200190815260200160002060006101000a81548160ff02191690831515021790555050565b600033905090565b620003938282620003fb60201b60201c565b5050565b806005600084815260200190815260200160002060020154837fbd79b86ffe0ab8e8776151514217cd7cacd52c909f66475c3af44e129f0b00ff60405160405180910390a48060056000848152602001908152602001600020600201819055505050565b6200042a81600560008581526020019081526020016000206000016200049f60201b6200272c1790919060201c565b156200049b57620004406200037960201b60201c565b73ffffffffffffffffffffffffffffffffffffffff168173ffffffffffffffffffffffffffffffffffffffff16837f2f8788117e7eff1d82e926ec794901d17c78024a50270940304540a733656f0d60405160405180910390a45b5050565b6000620004cf836000018373ffffffffffffffffffffffffffffffffffffffff1660001b620004d760201b60201c565b905092915050565b6000620004eb83836200055160201b60201c565b620005465782600001829080600181540180825580915050600190039060005260206000200160009091909190915055826000018054905083600101600084815260200190815260200160002081905550600190506200054b565b600090505b92915050565b600080836001016000848152602001908152602001600020541415905092915050565b828054600181600116156101000203166002900490600052602060002090601f016020900481019282601f10620005b757805160ff1916838001178555620005e8565b82800160010185558215620005e8579182015b82811115620005e7578251825591602001919060010190620005ca565b5b509050620005f79190620005fb565b5090565b5b8082111562000616576000816000905550600101620005fc565b5090565b6144d1806200062a6000396000f3fe608060405234801561001057600080fd5b50600436106101a85760003560e01c8063731133e9116100f9578063b390c0ab11610097578063e5b9559511610071578063e5b9559514611058578063e985e9c51461109c578063f242432a14611116578063fe6d812414611225576101a8565b8063b390c0ab14610f90578063ca15c87314610fc8578063d547741f1461100a576101a8565b806391d14854116100d357806391d1485414610ea0578063a217fddf14610f04578063a22cb46514610f22578063b1de303e14610f72576101a8565b8063731133e914610c0357806383ca4b6f14610cf25780639010d07c14610e3e576101a8565b8063248a9ca31161016657806336568abe1161014057806336568abe146108945780634e1273f4146108e257806355f804b314610a8357806367db3b8f14610b3e576101a8565b8063248a9ca3146105e15780632eb2c2d6146106235780632f2ff15d14610846576101a8565b8062fdd58e146101ad57806301ffc9a71461020f5780630bb78ec1146102725780630e89341c14610319578063118c4f13146103c05780631f7fdffa146103de575b600080fd5b6101f9600480360360408110156101c357600080fd5b81019080803573ffffffffffffffffffffffffffffffffffffffff16906020019092919080359060200190929190505050611243565b6040518082815260200191505060405180910390f35b61025a6004803603602081101561022557600080fd5b8101908080357bffffffffffffffffffffffffffffffffffffffffffffffffffffffff19169060200190929190505050611323565b60405180821515815260200191505060405180910390f35b61029e6004803603602081101561028857600080fd5b810190808035906020019092919050505061138a565b6040518080602001828103825283818151815260200191508051906020019080838360005b838110156102de5780820151818401526020810190506102c3565b50505050905090810190601f16801561030b5780820380516001836020036101000a031916815260200191505b509250505060405180910390f35b6103456004803603602081101561032f57600080fd5b810190808035906020019092919050505061143a565b6040518080602001828103825283818151815260200191508051906020019080838360005b8381101561038557808201518184015260208101905061036a565b50505050905090810190601f1680156103b25780820380516001836020036101000a031916815260200191505b509250505060405180910390f35b6103c86116c4565b6040518082815260200191505060405180910390f35b6105df600480360360808110156103f457600080fd5b81019080803573ffffffffffffffffffffffffffffffffffffffff1690602001909291908035906020019064010000000081111561043157600080fd5b82018360208201111561044357600080fd5b8035906020019184602083028401116401000000008311171561046557600080fd5b919080806020026020016040519081016040528093929190818152602001838360200280828437600081840152601f19601f820116905080830192505050505050509192919290803590602001906401000000008111156104c557600080fd5b8201836020820111156104d757600080fd5b803590602001918460208302840111640100000000831117156104f957600080fd5b919080806020026020016040519081016040528093929190818152602001838360200280828437600081840152601f19601f8201169050808301925050505050505091929192908035906020019064010000000081111561055957600080fd5b82018360208201111561056b57600080fd5b8035906020019184600183028401116401000000008311171561058d57600080fd5b91908080601f016020809104026020016040519081016040528093929190818152602001838380828437600081840152601f19601f8201169050808301925050505050505091929192905050506116e8565b005b61060d600480360360208110156105f757600080fd5b810190808035906020019092919050505061172d565b6040518082815260200191505060405180910390f35b610844600480360360a081101561063957600080fd5b81019080803573ffffffffffffffffffffffffffffffffffffffff169060200190929190803573ffffffffffffffffffffffffffffffffffffffff1690602001909291908035906020019064010000000081111561069657600080fd5b8201836020820111156106a857600080fd5b803590602001918460208302840111640100000000831117156106ca57600080fd5b919080806020026020016040519081016040528093929190818152602001838360200280828437600081840152601f19601f8201169050808301925050505050505091929192908035906020019064010000000081111561072a57600080fd5b82018360208201111561073c57600080fd5b8035906020019184602083028401116401000000008311171561075e57600080fd5b919080806020026020016040519081016040528093929190818152602001838360200280828437600081840152601f19601f820116905080830192505050505050509192919290803590602001906401000000008111156107be57600080fd5b8201836020820111156107d057600080fd5b803590602001918460018302840111640100000000831117156107f257600080fd5b91908080601f016020809104026020016040519081016040528093929190818152602001838380828437600081840152601f19601f82011690508083019250505050505050919291929050505061174d565b005b6108926004803603604081101561085c57600080fd5b8101908080359060200190929190803573ffffffffffffffffffffffffffffffffffffffff169060200190929190505050611bd8565b005b6108e0600480360360408110156108aa57600080fd5b8101908080359060200190929190803573ffffffffffffffffffffffffffffffffffffffff169060200190929190505050611c62565b005b610a2c600480360360408110156108f857600080fd5b810190808035906020019064010000000081111561091557600080fd5b82018360208201111561092757600080fd5b8035906020019184602083028401116401000000008311171561094957600080fd5b919080806020026020016040519081016040528093929190818152602001838360200280828437600081840152601f19601f820116905080830192505050505050509192919290803590602001906401000000008111156109a957600080fd5b8201836020820111156109bb57600080fd5b803590602001918460208302840111640100000000831117156109dd57600080fd5b919080806020026020016040519081016040528093929190818152602001838360200280828437600081840152601f19601f820116905080830192505050505050509192919290505050611cfb565b6040518080602001828103825283818151815260200191508051906020019060200280838360005b83811015610a6f578082015181840152602081019050610a54565b505050509050019250505060405180910390f35b610b3c60048036036020811015610a9957600080fd5b8101908080359060200190640100000000811115610ab657600080fd5b820183602082011115610ac857600080fd5b80359060200191846001830284011164010000000083111715610aea57600080fd5b91908080601f016020809104026020016040519081016040528093929190818152602001838380828437600081840152601f19601f820116905080830192505050505050509192919290505050611eed565b005b610c0160048036036040811015610b5457600080fd5b8101908080359060200190640100000000811115610b7157600080fd5b820183602082011115610b8357600080fd5b80359060200191846001830284011164010000000083111715610ba557600080fd5b91908080601f016020809104026020016040519081016040528093929190818152602001838380828437600081840152601f19601f82011690508083019250505050505050919291929080359060200190929190505050611f3a565b005b610cf060048036036080811015610c1957600080fd5b81019080803573ffffffffffffffffffffffffffffffffffffffff169060200190929190803590602001909291908035906020019092919080359060200190640100000000811115610c6a57600080fd5b820183602082011115610c7c57600080fd5b80359060200191846001830284011164010000000083111715610c9e57600080fd5b91908080601f016020809104026020016040519081016040528093929190818152602001838380828437600081840152601f19601f820116905080830192505050505050509192919290505050611f99565b005b610e3c60048036036040811015610d0857600080fd5b8101908080359060200190640100000000811115610d2557600080fd5b820183602082011115610d3757600080fd5b80359060200191846020830284011164010000000083111715610d5957600080fd5b919080806020026020016040519081016040528093929190818152602001838360200280828437600081840152601f19601f82011690508083019250505050505050919291929080359060200190640100000000811115610db957600080fd5b820183602082011115610dcb57600080fd5b80359060200191846020830284011164010000000083111715610ded57600080fd5b919080806020026020016040519081016040528093929190818152602001838360200280828437600081840152601f19601f820116905080830192505050505050509192919290505050611fde565b005b610e7460048036036040811015610e5457600080fd5b810190808035906020019092919080359060200190929190505050611fed565b604051808273ffffffffffffffffffffffffffffffffffffffff16815260200191505060405180910390f35b610eec60048036036040811015610eb657600080fd5b8101908080359060200190929190803573ffffffffffffffffffffffffffffffffffffffff16906020019092919050505061201f565b60405180821515815260200191505060405180910390f35b610f0c612051565b6040518082815260200191505060405180910390f35b610f7060048036036040811015610f3857600080fd5b81019080803573ffffffffffffffffffffffffffffffffffffffff169060200190929190803515159060200190929190505050612058565b005b610f7a6121f1565b6040518082815260200191505060405180910390f35b610fc660048036036040811015610fa657600080fd5b810190808035906020019092919080359060200190929190505050612215565b005b610ff460048036036020811015610fde57600080fd5b8101908080359060200190929190505050612224565b6040518082815260200191505060405180910390f35b6110566004803603604081101561102057600080fd5b8101908080359060200190929190803573ffffffffffffffffffffffffffffffffffffffff16906020019092919050505061224b565b005b6110846004803603602081101561106e57600080fd5b81019080803590602001909291905050506122d5565b60405180821515815260200191505060405180910390f35b6110fe600480360360408110156110b257600080fd5b81019080803573ffffffffffffffffffffffffffffffffffffffff169060200190929190803573ffffffffffffffffffffffffffffffffffffffff1690602001909291905050506122ff565b60405180821515815260200191505060405180910390f35b611223600480360360a081101561112c57600080fd5b81019080803573ffffffffffffffffffffffffffffffffffffffff169060200190929190803573ffffffffffffffffffffffffffffffffffffffff16906020019092919080359060200190929190803590602001909291908035906020019064010000000081111561119d57600080fd5b8201836020820111156111af57600080fd5b803590602001918460018302840111640100000000831117156111d157600080fd5b91908080601f016020809104026020016040519081016040528093929190818152602001838380828437600081840152601f19601f820116905080830192505050505050509192919290505050612393565b005b61122d612708565b6040518082815260200191505060405180910390f35b60008073ffffffffffffffffffffffffffffffffffffffff168373ffffffffffffffffffffffffffffffffffffffff1614156112ca576040517f08c379a000000000000000000000000000000000000000000000000000000000815260040180806020018281038252602b815260200180614255602b913960400191505060405180910390fd5b6001600083815260200190815260200160002060008473ffffffffffffffffffffffffffffffffffffffff1673ffffffffffffffffffffffffffffffffffffffff16815260200190815260200160002054905092915050565b6000806000837bffffffffffffffffffffffffffffffffffffffffffffffffffffffff19167bffffffffffffffffffffffffffffffffffffffffffffffffffffffff1916815260200190815260200160002060009054906101000a900460ff169050919050565b60076020528060005260406000206000915090508054600181600116156101000203166002900480601f0160208091040260200160405190810160405280929190818152602001828054600181600116156101000203166002900480156114325780601f1061140757610100808354040283529160200191611432565b820191906000526020600020905b81548152906001019060200180831161141557829003601f168201915b505050505081565b606080600760008481526020019081526020016000208054600181600116156101000203166002900480601f0160208091040260200160405190810160405280929190818152602001828054600181600116156101000203166002900480156114e45780601f106114b9576101008083540402835291602001916114e4565b820191906000526020600020905b8154815290600101906020018083116114c757829003601f168201915b5050505050905060006006805460018160011615610100020316600290049050141561151357809150506116bf565b6000815111156115ec57600681604051602001808380546001816001161561010002031660029004801561157e5780601f1061155c57610100808354040283529182019161157e565b820191906000526020600020905b81548152906001019060200180831161156a575b505082805190602001908083835b602083106115af578051825260208201915060208101905060208303925061158c565b6001836020036101000a038019825116818451168082178552505050505050905001925050506040516020818303038152906040529150506116bf565b60066115f78461275c565b60405160200180838054600181600116156101000203166002900480156116555780601f10611633576101008083540402835291820191611655565b820191906000526020600020905b815481529060010190602001808311611641575b505082805190602001908083835b602083106116865780518252602082019150602081019050602083039250611663565b6001836020036101000a038019825116818451168082178552505050505050905001925050506040516020818303038152906040529150505b919050565b7f9667e80708b6eeeb0053fa0cca44e028ff548e2a9f029edfeac87c118b08b7c881565b6117127ff0887ba65ee2024ea881d91b74c2450ef19e1557f03bed3ea9f16b037cbe2dc93361201f565b61171b57600080fd5b611727848484846128a3565b50505050565b600060056000838152602001908152602001600020600201549050919050565b81518351146117a7576040517f08c379a00000000000000000000000000000000000000000000000000000000081526004018080602001828103825260288152602001806144246028913960400191505060405180910390fd5b600073ffffffffffffffffffffffffffffffffffffffff168473ffffffffffffffffffffffffffffffffffffffff16141561182d576040517f08c379a000000000000000000000000000000000000000000000000000000000815260040180806020018281038252602581526020018061432e6025913960400191505060405180910390fd5b611835612c45565b73ffffffffffffffffffffffffffffffffffffffff168573ffffffffffffffffffffffffffffffffffffffff16148061187b575061187a85611875612c45565b6122ff565b5b6118d0576040517f08c379a00000000000000000000000000000000000000000000000000000000081526004018080602001828103825260328152602001806143536032913960400191505060405180910390fd5b60006118da612c45565b90506118ea818787878787612c4d565b60005b8451811015611abb57600085828151811061190457fe5b60200260200101519050600085838151811061191c57fe5b602002602001015190506119a3816040518060600160405280602a81526020016143a8602a91396001600086815260200190815260200160002060008d73ffffffffffffffffffffffffffffffffffffffff1673ffffffffffffffffffffffffffffffffffffffff16815260200190815260200160002054612c559092919063ffffffff16565b6001600084815260200190815260200160002060008b73ffffffffffffffffffffffffffffffffffffffff1673ffffffffffffffffffffffffffffffffffffffff16815260200190815260200160002081905550611a5a816001600085815260200190815260200160002060008b73ffffffffffffffffffffffffffffffffffffffff1673ffffffffffffffffffffffffffffffffffffffff16815260200190815260200160002054612d1590919063ffffffff16565b6001600084815260200190815260200160002060008a73ffffffffffffffffffffffffffffffffffffffff1673ffffffffffffffffffffffffffffffffffffffff1681526020019081526020016000208190555050508060010190506118ed565b508473ffffffffffffffffffffffffffffffffffffffff168673ffffffffffffffffffffffffffffffffffffffff168273ffffffffffffffffffffffffffffffffffffffff167f4a39dc06d4c0dbc64b70af90fd698a233a518aa5d07e595d983b8c0526c8f7fb8787604051808060200180602001838103835285818151815260200191508051906020019060200280838360005b83811015611b6b578082015181840152602081019050611b50565b50505050905001838103825284818151815260200191508051906020019060200280838360005b83811015611bad578082015181840152602081019050611b92565b5050505090500194505050505060405180910390a4611bd0818787878787612d9d565b505050505050565b611bff6005600084815260200190815260200160002060020154611bfa612c45565b61201f565b611c54576040517f08c379a000000000000000000000000000000000000000000000000000000000815260040180806020018281038252602f815260200180614226602f913960400191505060405180910390fd5b611c5e828261312c565b5050565b611c6a612c45565b73ffffffffffffffffffffffffffffffffffffffff168173ffffffffffffffffffffffffffffffffffffffff1614611ced576040517f08c379a000000000000000000000000000000000000000000000000000000000815260040180806020018281038252602f81526020018061446d602f913960400191505060405180910390fd5b611cf782826131c0565b5050565b60608151835114611d57576040517f08c379a00000000000000000000000000000000000000000000000000000000081526004018080602001828103825260298152602001806143fb6029913960400191505060405180910390fd5b6060835167ffffffffffffffff81118015611d7157600080fd5b50604051908082528060200260200182016040528015611da05781602001602082028036833780820191505090505b50905060005b8451811015611ee257600073ffffffffffffffffffffffffffffffffffffffff16858281518110611dd357fe5b602002602001015173ffffffffffffffffffffffffffffffffffffffff161415611e48576040517f08c379a00000000000000000000000000000000000000000000000000000000081526004018080602001828103825260318152602001806142806031913960400191505060405180910390fd5b60016000858381518110611e5857fe5b602002602001015181526020019081526020016000206000868381518110611e7c57fe5b602002602001015173ffffffffffffffffffffffffffffffffffffffff1673ffffffffffffffffffffffffffffffffffffffff16815260200190815260200160002054828281518110611ecb57fe5b602002602001018181525050806001019050611da6565b508091505092915050565b611f177ff6e33f9720e4529cb1c710e3344dc00830589a3239198ffa39b07117085d250e3361201f565b611f2057600080fd5b8060069080519060200190611f36929190614036565b5050565b611f647ff6e33f9720e4529cb1c710e3344dc00830589a3239198ffa39b07117085d250e3361201f565b611f6d57600080fd5b81600760008381526020019081526020016000209080519060200190611f94929190614036565b505050565b611fc37ff0887ba65ee2024ea881d91b74c2450ef19e1557f03bed3ea9f16b037cbe2dc93361201f565b611fcc57600080fd5b611fd884848484613254565b50505050565b611fe93383836134b1565b5050565b600061201782600560008681526020019081526020016000206000016137ec90919063ffffffff16565b905092915050565b6000612049826005600086815260200190815260200160002060000161380690919063ffffffff16565b905092915050565b6000801b81565b8173ffffffffffffffffffffffffffffffffffffffff16612077612c45565b73ffffffffffffffffffffffffffffffffffffffff1614156120e4576040517f08c379a00000000000000000000000000000000000000000000000000000000081526004018080602001828103825260298152602001806143d26029913960400191505060405180910390fd5b80600360006120f1612c45565b73ffffffffffffffffffffffffffffffffffffffff1673ffffffffffffffffffffffffffffffffffffffff16815260200190815260200160002060008473ffffffffffffffffffffffffffffffffffffffff1673ffffffffffffffffffffffffffffffffffffffff16815260200190815260200160002060006101000a81548160ff0219169083151502179055508173ffffffffffffffffffffffffffffffffffffffff1661219e612c45565b73ffffffffffffffffffffffffffffffffffffffff167f17307eab39ab6107e8899845ad3d59bd9653f200f220920489ca2b5937696c318360405180821515815260200191505060405180910390a35050565b7ff6e33f9720e4529cb1c710e3344dc00830589a3239198ffa39b07117085d250e81565b612220338383613836565b5050565b600061224460056000848152602001908152602001600020600001613a52565b9050919050565b612272600560008481526020019081526020016000206002015461226d612c45565b61201f565b6122c7576040517f08c379a00000000000000000000000000000000000000000000000000000000081526004018080602001828103825260308152602001806142fe6030913960400191505060405180910390fd5b6122d182826131c0565b5050565b60006002600083815260200190815260200160002060009054906101000a900460ff169050919050565b6000600360008473ffffffffffffffffffffffffffffffffffffffff1673ffffffffffffffffffffffffffffffffffffffff16815260200190815260200160002060008373ffffffffffffffffffffffffffffffffffffffff1673ffffffffffffffffffffffffffffffffffffffff16815260200190815260200160002060009054906101000a900460ff16905092915050565b600073ffffffffffffffffffffffffffffffffffffffff168473ffffffffffffffffffffffffffffffffffffffff161415612419576040517f08c379a000000000000000000000000000000000000000000000000000000000815260040180806020018281038252602581526020018061432e6025913960400191505060405180910390fd5b612421612c45565b73ffffffffffffffffffffffffffffffffffffffff168573ffffffffffffffffffffffffffffffffffffffff161480612467575061246685612461612c45565b6122ff565b5b6124bc576040517f08c379a00000000000000000000000000000000000000000000000000000000081526004018080602001828103825260298152602001806142d56029913960400191505060405180910390fd5b60006124c6612c45565b90506124e68187876124d788613a67565b6124e088613a67565b87612c4d565b612563836040518060600160405280602a81526020016143a8602a91396001600088815260200190815260200160002060008a73ffffffffffffffffffffffffffffffffffffffff1673ffffffffffffffffffffffffffffffffffffffff16815260200190815260200160002054612c559092919063ffffffff16565b6001600086815260200190815260200160002060008873ffffffffffffffffffffffffffffffffffffffff1673ffffffffffffffffffffffffffffffffffffffff1681526020019081526020016000208190555061261a836001600087815260200190815260200160002060008873ffffffffffffffffffffffffffffffffffffffff1673ffffffffffffffffffffffffffffffffffffffff16815260200190815260200160002054612d1590919063ffffffff16565b6001600086815260200190815260200160002060008773ffffffffffffffffffffffffffffffffffffffff1673ffffffffffffffffffffffffffffffffffffffff168152602001908152602001600020819055508473ffffffffffffffffffffffffffffffffffffffff168673ffffffffffffffffffffffffffffffffffffffff168273ffffffffffffffffffffffffffffffffffffffff167fc3d58168c5ae7397731d063d5bbf3d657854427343f4c083240f7aacaa2d0f628787604051808381526020018281526020019250505060405180910390a4612700818787878787613ad7565b505050505050565b7ff0887ba65ee2024ea881d91b74c2450ef19e1557f03bed3ea9f16b037cbe2dc981565b6000612754836000018373ffffffffffffffffffffffffffffffffffffffff1660001b613de4565b905092915050565b606060008214156127a4576040518060400160405280600181526020017f3000000000000000000000000000000000000000000000000000000000000000815250905061289e565b600082905060005b600082146127ce578080600101915050600a82816127c657fe5b0491506127ac565b60608167ffffffffffffffff811180156127e757600080fd5b506040519080825280601f01601f19166020018201604052801561281a5781602001600182028036833780820191505090505b50905060006001830390508593505b6000841461289657600a848161283b57fe5b0660300160f81b8282806001900393508151811061285557fe5b60200101907effffffffffffffffffffffffffffffffffffffffffffffffffffffffffffff1916908160001a905350600a848161288e57fe5b049350612829565b819450505050505b919050565b600073ffffffffffffffffffffffffffffffffffffffff168473ffffffffffffffffffffffffffffffffffffffff161415612929576040517f08c379a000000000000000000000000000000000000000000000000000000000815260040180806020018281038252602181526020018061444c6021913960400191505060405180910390fd5b8151835114612983576040517f08c379a00000000000000000000000000000000000000000000000000000000081526004018080602001828103825260288152602001806144246028913960400191505060405180910390fd5b600061298d612c45565b905061299e81600087878787612c4d565b60005b8451811015612b275760001515600260008784815181106129be57fe5b6020026020010151815260200190815260200160002060009054906101000a900460ff1615151415612a2a576001600260008784815181106129fc57fe5b6020026020010151815260200190815260200160002060006101000a81548160ff0219169083151502179055505b612ab360016000878481518110612a3d57fe5b6020026020010151815260200190815260200160002060008873ffffffffffffffffffffffffffffffffffffffff1673ffffffffffffffffffffffffffffffffffffffff16815260200190815260200160002054858381518110612a9d57fe5b6020026020010151612d1590919063ffffffff16565b60016000878481518110612ac357fe5b6020026020010151815260200190815260200160002060008873ffffffffffffffffffffffffffffffffffffffff1673ffffffffffffffffffffffffffffffffffffffff1681526020019081526020016000208190555080806001019150506129a1565b508473ffffffffffffffffffffffffffffffffffffffff16600073ffffffffffffffffffffffffffffffffffffffff168273ffffffffffffffffffffffffffffffffffffffff167f4a39dc06d4c0dbc64b70af90fd698a233a518aa5d07e595d983b8c0526c8f7fb8787604051808060200180602001838103835285818151815260200191508051906020019060200280838360005b83811015612bd8578082015181840152602081019050612bbd565b50505050905001838103825284818151815260200191508051906020019060200280838360005b83811015612c1a578082015181840152602081019050612bff565b5050505090500194505050505060405180910390a4612c3e81600087878787612d9d565b5050505050565b600033905090565b505050505050565b6000838311158290612d02576040517f08c379a00000000000000000000000000000000000000000000000000000000081526004018080602001828103825283818151815260200191508051906020019080838360005b83811015612cc7578082015181840152602081019050612cac565b50505050905090810190601f168015612cf45780820380516001836020036101000a031916815260200191505b509250505060405180910390fd5b5060008385039050809150509392505050565b600080828401905083811015612d93576040517f08c379a000000000000000000000000000000000000000000000000000000000815260040180806020018281038252601b8152602001807f536166654d6174683a206164646974696f6e206f766572666c6f77000000000081525060200191505060405180910390fd5b8091505092915050565b612dbc8473ffffffffffffffffffffffffffffffffffffffff16613e54565b15613124578373ffffffffffffffffffffffffffffffffffffffff1663bc197c8187878686866040518663ffffffff1660e01b8152600401808673ffffffffffffffffffffffffffffffffffffffff1681526020018573ffffffffffffffffffffffffffffffffffffffff168152602001806020018060200180602001848103845287818151815260200191508051906020019060200280838360005b83811015612e74578082015181840152602081019050612e59565b50505050905001848103835286818151815260200191508051906020019060200280838360005b83811015612eb6578082015181840152602081019050612e9b565b50505050905001848103825285818151815260200191508051906020019080838360005b83811015612ef5578082015181840152602081019050612eda565b50505050905090810190601f168015612f225780820380516001836020036101000a031916815260200191505b5098505050505050505050602060405180830381600087803b158015612f4757600080fd5b505af1925050508015612f7b57506040513d6020811015612f6757600080fd5b810190808051906020019092919050505060015b61308557612f876140f1565b80612f925750613034565b806040517f08c379a00000000000000000000000000000000000000000000000000000000081526004018080602001828103825283818151815260200191508051906020019080838360005b83811015612ff9578082015181840152602081019050612fde565b50505050905090810190601f1680156130265780820380516001836020036101000a031916815260200191505b509250505060405180910390fd5b6040517f08c379a00000000000000000000000000000000000000000000000000000000081526004018080602001828103825260348152602001806141a86034913960400191505060405180910390fd5b63bc197c8160e01b7bffffffffffffffffffffffffffffffffffffffffffffffffffffffff1916817bffffffffffffffffffffffffffffffffffffffffffffffffffffffff191614613122576040517f08c379a00000000000000000000000000000000000000000000000000000000081526004018080602001828103825260288152602001806141fe6028913960400191505060405180910390fd5b505b505050505050565b613154816005600085815260200190815260200160002060000161272c90919063ffffffff16565b156131bc57613161612c45565b73ffffffffffffffffffffffffffffffffffffffff168173ffffffffffffffffffffffffffffffffffffffff16837f2f8788117e7eff1d82e926ec794901d17c78024a50270940304540a733656f0d60405160405180910390a45b5050565b6131e88160056000858152602001908152602001600020600001613e6790919063ffffffff16565b15613250576131f5612c45565b73ffffffffffffffffffffffffffffffffffffffff168173ffffffffffffffffffffffffffffffffffffffff16837ff6391f5c32d9c69d2a47ea670b442974b53935d1edc7fd64eb21e047a839171b60405160405180910390a45b5050565b600073ffffffffffffffffffffffffffffffffffffffff168473ffffffffffffffffffffffffffffffffffffffff1614156132da576040517f08c379a000000000000000000000000000000000000000000000000000000000815260040180806020018281038252602181526020018061444c6021913960400191505060405180910390fd5b600015156002600085815260200190815260200160002060009054906101000a900460ff16151514156133345760016002600085815260200190815260200160002060006101000a81548160ff0219169083151502179055505b600061333e612c45565b905061335f8160008761335088613a67565b61335988613a67565b87612c4d565b6133c2836001600087815260200190815260200160002060008873ffffffffffffffffffffffffffffffffffffffff1673ffffffffffffffffffffffffffffffffffffffff16815260200190815260200160002054612d1590919063ffffffff16565b6001600086815260200190815260200160002060008773ffffffffffffffffffffffffffffffffffffffff1673ffffffffffffffffffffffffffffffffffffffff168152602001908152602001600020819055508473ffffffffffffffffffffffffffffffffffffffff16600073ffffffffffffffffffffffffffffffffffffffff168273ffffffffffffffffffffffffffffffffffffffff167fc3d58168c5ae7397731d063d5bbf3d657854427343f4c083240f7aacaa2d0f628787604051808381526020018281526020019250505060405180910390a46134aa81600087878787613ad7565b5050505050565b600073ffffffffffffffffffffffffffffffffffffffff168373ffffffffffffffffffffffffffffffffffffffff161415613537576040517f08c379a00000000000000000000000000000000000000000000000000000000081526004018080602001828103825260238152602001806143856023913960400191505060405180910390fd5b8051825114613591576040517f08c379a00000000000000000000000000000000000000000000000000000000081526004018080602001828103825260288152602001806144246028913960400191505060405180910390fd5b600061359b612c45565b90506135bb81856000868660405180602001604052806000815250612c4d565b60005b83518110156136de5761366a8382815181106135d657fe5b60200260200101516040518060600160405280602481526020016142b1602491396001600088868151811061360757fe5b6020026020010151815260200190815260200160002060008973ffffffffffffffffffffffffffffffffffffffff1673ffffffffffffffffffffffffffffffffffffffff16815260200190815260200160002054612c559092919063ffffffff16565b6001600086848151811061367a57fe5b6020026020010151815260200190815260200160002060008773ffffffffffffffffffffffffffffffffffffffff1673ffffffffffffffffffffffffffffffffffffffff1681526020019081526020016000208190555080806001019150506135be565b50600073ffffffffffffffffffffffffffffffffffffffff168473ffffffffffffffffffffffffffffffffffffffff168273ffffffffffffffffffffffffffffffffffffffff167f4a39dc06d4c0dbc64b70af90fd698a233a518aa5d07e595d983b8c0526c8f7fb8686604051808060200180602001838103835285818151815260200191508051906020019060200280838360005b8381101561378f578082015181840152602081019050613774565b50505050905001838103825284818151815260200191508051906020019060200280838360005b838110156137d15780820151818401526020810190506137b6565b5050505090500194505050505060405180910390a450505050565b60006137fb8360000183613e97565b60001c905092915050565b600061382e836000018373ffffffffffffffffffffffffffffffffffffffff1660001b613f1a565b905092915050565b600073ffffffffffffffffffffffffffffffffffffffff168373ffffffffffffffffffffffffffffffffffffffff1614156138bc576040517f08c379a00000000000000000000000000000000000000000000000000000000081526004018080602001828103825260238152602001806143856023913960400191505060405180910390fd5b60006138c6612c45565b90506138f6818560006138d887613a67565b6138e187613a67565b60405180602001604052806000815250612c4d565b613973826040518060600160405280602481526020016142b1602491396001600087815260200190815260200160002060008873ffffffffffffffffffffffffffffffffffffffff1673ffffffffffffffffffffffffffffffffffffffff16815260200190815260200160002054612c559092919063ffffffff16565b6001600085815260200190815260200160002060008673ffffffffffffffffffffffffffffffffffffffff1673ffffffffffffffffffffffffffffffffffffffff16815260200190815260200160002081905550600073ffffffffffffffffffffffffffffffffffffffff168473ffffffffffffffffffffffffffffffffffffffff168273ffffffffffffffffffffffffffffffffffffffff167fc3d58168c5ae7397731d063d5bbf3d657854427343f4c083240f7aacaa2d0f628686604051808381526020018281526020019250505060405180910390a450505050565b6000613a6082600001613f3d565b9050919050565b606080600167ffffffffffffffff81118015613a8257600080fd5b50604051908082528060200260200182016040528015613ab15781602001602082028036833780820191505090505b5090508281600081518110613ac257fe5b60200260200101818152505080915050919050565b613af68473ffffffffffffffffffffffffffffffffffffffff16613e54565b15613ddc578373ffffffffffffffffffffffffffffffffffffffff1663f23a6e6187878686866040518663ffffffff1660e01b8152600401808673ffffffffffffffffffffffffffffffffffffffff1681526020018573ffffffffffffffffffffffffffffffffffffffff16815260200184815260200183815260200180602001828103825283818151815260200191508051906020019080838360005b83811015613baf578082015181840152602081019050613b94565b50505050905090810190601f168015613bdc5780820380516001836020036101000a031916815260200191505b509650505050505050602060405180830381600087803b158015613bff57600080fd5b505af1925050508015613c3357506040513d6020811015613c1f57600080fd5b810190808051906020019092919050505060015b613d3d57613c3f6140f1565b80613c4a5750613cec565b806040517f08c379a00000000000000000000000000000000000000000000000000000000081526004018080602001828103825283818151815260200191508051906020019080838360005b83811015613cb1578082015181840152602081019050613c96565b50505050905090810190601f168015613cde5780820380516001836020036101000a031916815260200191505b509250505060405180910390fd5b6040517f08c379a00000000000000000000000000000000000000000000000000000000081526004018080602001828103825260348152602001806141a86034913960400191505060405180910390fd5b63f23a6e6160e01b7bffffffffffffffffffffffffffffffffffffffffffffffffffffffff1916817bffffffffffffffffffffffffffffffffffffffffffffffffffffffff191614613dda576040517f08c379a00000000000000000000000000000000000000000000000000000000081526004018080602001828103825260288152602001806141fe6028913960400191505060405180910390fd5b505b505050505050565b6000613df08383613f1a565b613e49578260000182908060018154018082558091505060019003906000526020600020016000909190919091505582600001805490508360010160008481526020019081526020016000208190555060019050613e4e565b600090505b92915050565b600080823b905060008111915050919050565b6000613e8f836000018373ffffffffffffffffffffffffffffffffffffffff1660001b613f4e565b905092915050565b600081836000018054905011613ef8576040517f08c379a00000000000000000000000000000000000000000000000000000000081526004018080602001828103825260228152602001806141dc6022913960400191505060405180910390fd5b826000018281548110613f0757fe5b9060005260206000200154905092915050565b600080836001016000848152602001908152602001600020541415905092915050565b600081600001805490509050919050565b6000808360010160008481526020019081526020016000205490506000811461402a5760006001820390506000600186600001805490500390506000866000018281548110613f9957fe5b9060005260206000200154905080876000018481548110613fb657fe5b9060005260206000200181905550600183018760010160008381526020019081526020016000208190555086600001805480613fee57fe5b60019003818190600052602060002001600090559055866001016000878152602001908152602001600020600090556001945050505050614030565b60009150505b92915050565b828054600181600116156101000203166002900490600052602060002090601f016020900481019282601f1061407757805160ff19168380011785556140a5565b828001600101855582156140a5579182015b828111156140a4578251825591602001919060010190614089565b5b5090506140b291906140b6565b5090565b5b808211156140cf5760008160009055506001016140b7565b5090565b6000601f19601f8301169050919050565b60008160e01c9050919050565b600060443d1015614101576141a4565b60046000803e6141126000516140e4565b6308c379a0811461412357506141a4565b60405160043d036004823e80513d602482011167ffffffffffffffff8211171561414f575050506141a4565b808201805167ffffffffffffffff81111561416e5750505050506141a4565b8060208301013d8501811115614189575050505050506141a4565b614192826140d3565b60208401016040528296505050505050505b9056fe455243313135353a207472616e7366657220746f206e6f6e2045524331313535526563656976657220696d706c656d656e746572456e756d657261626c655365743a20696e646578206f7574206f6620626f756e6473455243313135353a204552433131353552656365697665722072656a656374656420746f6b656e73416363657373436f6e74726f6c3a2073656e646572206d75737420626520616e2061646d696e20746f206772616e74455243313135353a2062616c616e636520717565727920666f7220746865207a65726f2061646472657373455243313135353a2062617463682062616c616e636520717565727920666f7220746865207a65726f2061646472657373455243313135353a206275726e20616d6f756e7420657863656564732062616c616e6365455243313135353a2063616c6c6572206973206e6f74206f776e6572206e6f7220617070726f766564416363657373436f6e74726f6c3a2073656e646572206d75737420626520616e2061646d696e20746f207265766f6b65455243313135353a207472616e7366657220746f20746865207a65726f2061646472657373455243313135353a207472616e736665722063616c6c6572206973206e6f74206f776e6572206e6f7220617070726f766564455243313135353a206275726e2066726f6d20746865207a65726f2061646472657373455243313135353a20696e73756666696369656e742062616c616e636520666f72207472616e73666572455243313135353a2073657474696e6720617070726f76616c2073746174757320666f722073656c66455243313135353a206163636f756e747320616e6420696473206c656e677468206d69736d61746368455243313135353a2069647320616e6420616d6f756e7473206c656e677468206d69736d61746368455243313135353a206d696e7420746f20746865207a65726f2061646472657373416363657373436f6e74726f6c3a2063616e206f6e6c792072656e6f756e636520726f6c657320666f722073656c66a264697066735822122074c4b0f038e292e7749d677b873460eba599820a5f39c89b6b26f6f62583db3064736f6c63430007030033",
  "linkReferences": {},
  "deployedLinkReferences": {}
}