{
  "_format": "hh-sol-artifact-1",
  "contractName": "NFTbase",
  "sourceName": "contracts/NFTbase.sol",
  "abi": [
    {
      "inputs": [
        {
          "internalType": "string",
          "name": "uri",
          "type": "string"
        }
      ],
      "stateMutability": "nonpayable",
      "type": "constructor"
    },
    {
      "anonymous": false,
      "inputs": [
        {
          "indexed": true,
          "internalType": "address",
          "name": "account",
          "type": "address"
        },
        {
          "indexed": true,
          "internalType": "address",
          "name": "operator",
          "type": "address"
        },
        {
          "indexed": false,
          "internalType": "bool",
          "name": "approved",
          "type": "bool"
        }
      ],
      "name": "ApprovalForAll",
      "type": "event"
    },
    {
      "anonymous": false,
      "inputs": [
        {
          "indexed": true,
          "internalType": "bytes32",
          "name": "role",
          "type": "bytes32"
        },
        {
          "indexed": true,
          "internalType": "bytes32",
          "name": "previousAdminRole",
          "type": "bytes32"
        },
        {
          "indexed": true,
          "internalType": "bytes32",
          "name": "newAdminRole",
          "type": "bytes32"
        }
      ],
      "name": "RoleAdminChanged",
      "type": "event"
    },
    {
      "anonymous": false,
      "inputs": [
        {
          "indexed": true,
          "internalType": "bytes32",
          "name": "role",
          "type": "bytes32"
        },
        {
          "indexed": true,
          "internalType": "address",
          "name": "account",
          "type": "address"
        },
        {
          "indexed": true,
          "internalType": "address",
          "name": "sender",
          "type": "address"
        }
      ],
      "name": "RoleGranted",
      "type": "event"
    },
    {
      "anonymous": false,
      "inputs": [
        {
          "indexed": true,
          "internalType": "bytes32",
          "name": "role",
          "type": "bytes32"
        },
        {
          "indexed": true,
          "internalType": "address",
          "name": "account",
          "type": "address"
        },
        {
          "indexed": true,
          "internalType": "address",
          "name": "sender",
          "type": "address"
        }
      ],
      "name": "RoleRevoked",
      "type": "event"
    },
    {
      "anonymous": false,
      "inputs": [
        {
          "indexed": true,
          "internalType": "address",
          "name": "operator",
          "type": "address"
        },
        {
          "indexed": true,
          "internalType": "address",
          "name": "from",
          "type": "address"
        },
        {
          "indexed": true,
          "internalType": "address",
          "name": "to",
          "type": "address"
        },
        {
          "indexed": false,
          "internalType": "uint256[]",
          "name": "ids",
          "type": "uint256[]"
        },
        {
          "indexed": false,
          "internalType": "uint256[]",
          "name": "values",
          "type": "uint256[]"
        }
      ],
      "name": "TransferBatch",
      "type": "event"
    },
    {
      "anonymous": false,
      "inputs": [
        {
          "indexed": true,
          "internalType": "address",
          "name": "operator",
          "type": "address"
        },
        {
          "indexed": true,
          "internalType": "address",
          "name": "from",
          "type": "address"
        },
        {
          "indexed": true,
          "internalType": "address",
          "name": "to",
          "type": "address"
        },
        {
          "indexed": false,
          "internalType": "uint256",
          "name": "id",
          "type": "uint256"
        },
        {
          "indexed": false,
          "internalType": "uint256",
          "name": "value",
          "type": "uint256"
        }
      ],
      "name": "TransferSingle",
      "type": "event"
    },
    {
      "anonymous": false,
      "inputs": [
        {
          "indexed": false,
          "internalType": "string",
          "name": "value",
          "type": "string"
        },
        {
          "indexed": true,
          "internalType": "uint256",
          "name": "id",
          "type": "uint256"
        }
      ],
      "name": "URI",
      "type": "event"
    },
    {
      "inputs": [],
      "name": "BURNER",
      "outputs": [
        {
          "internalType": "bytes32",
          "name": "",
          "type": "bytes32"
        }
      ],
      "stateMutability": "view",
      "type": "function"
    },
    {
      "inputs": [],
      "name": "DEFAULT_ADMIN_ROLE",
      "outputs": [
        {
          "internalType": "bytes32",
          "name": "",
          "type": "bytes32"
        }
      ],
      "stateMutability": "view",
      "type": "function"
    },
    {
      "inputs": [],
      "name": "METADATA_ADMIN",
      "outputs": [
        {
          "internalType": "bytes32",
          "name": "",
          "type": "bytes32"
        }
      ],
      "stateMutability": "view",
      "type": "function"
    },
    {
      "inputs": [],
      "name": "MINTER",
      "outputs": [
        {
          "internalType": "bytes32",
          "name": "",
          "type": "bytes32"
        }
      ],
      "stateMutability": "view",
      "type": "function"
    },
    {
      "inputs": [
        {
          "internalType": "uint256",
          "name": "",
          "type": "uint256"
        }
      ],
      "name": "_tokenURIs",
      "outputs": [
        {
          "internalType": "string",
          "name": "",
          "type": "string"
        }
      ],
      "stateMutability": "view",
      "type": "function"
    },
    {
      "inputs": [
        {
          "internalType": "address",
          "name": "account",
          "type": "address"
        },
        {
          "internalType": "uint256",
          "name": "id",
          "type": "uint256"
        }
      ],
      "name": "balanceOf",
      "outputs": [
        {
          "internalType": "uint256",
          "name": "",
          "type": "uint256"
        }
      ],
      "stateMutability": "view",
      "type": "function"
    },
    {
      "inputs": [
        {
          "internalType": "address[]",
          "name": "accounts",
          "type": "address[]"
        },
        {
          "internalType": "uint256[]",
          "name": "ids",
          "type": "uint256[]"
        }
      ],
      "name": "balanceOfBatch",
      "outputs": [
        {
          "internalType": "uint256[]",
          "name": "",
          "type": "uint256[]"
        }
      ],
      "stateMutability": "view",
      "type": "function"
    },
    {
      "inputs": [
        {
          "internalType": "uint256",
          "name": "id",
          "type": "uint256"
        },
        {
          "internalType": "uint256",
          "name": "value",
          "type": "uint256"
        }
      ],
      "name": "burn",
      "outputs": [],
      "stateMutability": "nonpayable",
      "type": "function"
    },
    {
      "inputs": [
        {
          "internalType": "uint256[]",
          "name": "ids",
          "type": "uint256[]"
        },
        {
          "internalType": "uint256[]",
          "name": "values",
          "type": "uint256[]"
        }
      ],
      "name": "burnBatch",
      "outputs": [],
      "stateMutability": "nonpayable",
      "type": "function"
    },
    {
      "inputs": [
        {
          "internalType": "bytes32",
          "name": "role",
          "type": "bytes32"
        }
      ],
      "name": "getRoleAdmin",
      "outputs": [
        {
          "internalType": "bytes32",
          "name": "",
          "type": "bytes32"
        }
      ],
      "stateMutability": "view",
      "type": "function"
    },
    {
      "inputs": [
        {
          "internalType": "bytes32",
          "name": "role",
          "type": "bytes32"
        },
        {
          "internalType": "uint256",
          "name": "index",
          "type": "uint256"
        }
      ],
      "name": "getRoleMember",
      "outputs": [
        {
          "internalType": "address",
          "name": "",
          "type": "address"
        }
      ],
      "stateMutability": "view",
      "type": "function"
    },
    {
      "inputs": [
        {
          "internalType": "bytes32",
          "name": "role",
          "type": "bytes32"
        }
      ],
      "name": "getRoleMemberCount",
      "outputs": [
        {
          "internalType": "uint256",
          "name": "",
          "type": "uint256"
        }
      ],
      "stateMutability": "view",
      "type": "function"
    },
    {
      "inputs": [
        {
          "internalType": "bytes32",
          "name": "role",
          "type": "bytes32"
        },
        {
          "internalType": "address",
          "name": "account",
          "type": "address"
        }
      ],
      "name": "grantRole",
      "outputs": [],
      "stateMutability": "nonpayable",
      "type": "function"
    },
    {
      "inputs": [
        {
          "internalType": "uint256",
          "name": "id",
          "type": "uint256"
        }
      ],
      "name": "hasMinted",
      "outputs": [
        {
          "internalType": "bool",
          "name": "",
          "type": "bool"
        }
      ],
      "stateMutability": "view",
      "type": "function"
    },
    {
      "inputs": [
        {
          "internalType": "bytes32",
          "name": "role",
          "type": "bytes32"
        },
        {
          "internalType": "address",
          "name": "account",
          "type": "address"
        }
      ],
      "name": "hasRole",
      "outputs": [
        {
          "internalType": "bool",
          "name": "",
          "type": "bool"
        }
      ],
      "stateMutability": "view",
      "type": "function"
    },
    {
      "inputs": [
        {
          "internalType": "address",
          "name": "account",
          "type": "address"
        },
        {
          "internalType": "address",
          "name": "operator",
          "type": "address"
        }
      ],
      "name": "isApprovedForAll",
      "outputs": [
        {
          "internalType": "bool",
          "name": "",
          "type": "bool"
        }
      ],
      "stateMutability": "view",
      "type": "function"
    },
    {
      "inputs": [
        {
          "internalType": "address",
          "name": "to",
          "type": "address"
        },
        {
          "internalType": "uint256",
          "name": "id",
          "type": "uint256"
        },
        {
          "internalType": "uint256",
          "name": "value",
          "type": "uint256"
        },
        {
          "internalType": "bytes",
          "name": "data",
          "type": "bytes"
        }
      ],
      "name": "mint",
      "outputs": [],
      "stateMutability": "nonpayable",
      "type": "function"
    },
    {
      "inputs": [
        {
          "internalType": "address",
          "name": "to",
          "type": "address"
        },
        {
          "internalType": "uint256[]",
          "name": "ids",
          "type": "uint256[]"
        },
        {
          "internalType": "uint256[]",
          "name": "values",
          "type": "uint256[]"
        },
        {
          "internalType": "bytes",
          "name": "data",
          "type": "bytes"
        }
      ],
      "name": "mintBatch",
      "outputs": [],
      "stateMutability": "nonpayable",
      "type": "function"
    },
    {
      "inputs": [
        {
          "internalType": "bytes32",
          "name": "role",
          "type": "bytes32"
        },
        {
          "internalType": "address",
          "name": "account",
          "type": "address"
        }
      ],
      "name": "renounceRole",
      "outputs": [],
      "stateMutability": "nonpayable",
      "type": "function"
    },
    {
      "inputs": [
        {
          "internalType": "bytes32",
          "name": "role",
          "type": "bytes32"
        },
        {
          "internalType": "address",
          "name": "account",
          "type": "address"
        }
      ],
      "name": "revokeRole",
      "outputs": [],
      "stateMutability": "nonpayable",
      "type": "function"
    },
    {
      "inputs": [
        {
          "internalType": "address",
          "name": "from",
          "type": "address"
        },
        {
          "internalType": "address",
          "name": "to",
          "type": "address"
        },
        {
          "internalType": "uint256[]",
          "name": "ids",
          "type": "uint256[]"
        },
        {
          "internalType": "uint256[]",
          "name": "amounts",
          "type": "uint256[]"
        },
        {
          "internalType": "bytes",
          "name": "data",
          "type": "bytes"
        }
      ],
      "name": "safeBatchTransferFrom",
      "outputs": [],
      "stateMutability": "nonpayable",
      "type": "function"
    },
    {
      "inputs": [
        {
          "internalType": "address",
          "name": "from",
          "type": "address"
        },
        {
          "internalType": "address",
          "name": "to",
          "type": "address"
        },
        {
          "internalType": "uint256",
          "name": "id",
          "type": "uint256"
        },
        {
          "internalType": "uint256",
          "name": "amount",
          "type": "uint256"
        },
        {
          "internalType": "bytes",
          "name": "data",
          "type": "bytes"
        }
      ],
      "name": "safeTransferFrom",
      "outputs": [],
      "stateMutability": "nonpayable",
      "type": "function"
    },
    {
      "inputs": [
        {
          "internalType": "address",
          "name": "operator",
          "type": "address"
        },
        {
          "internalType": "bool",
          "name": "approved",
          "type": "bool"
        }
      ],
      "name": "setApprovalForAll",
      "outputs": [],
      "stateMutability": "nonpayable",
      "type": "function"
    },
    {
      "inputs": [
        {
          "internalType": "string",
          "name": "newuri",
          "type": "string"
        }
      ],
      "name": "setBaseURI",
      "outputs": [],
      "stateMutability": "nonpayable",
      "type": "function"
    },
    {
      "inputs": [
        {
          "internalType": "string",
          "name": "newuri",
          "type": "string"
        },
        {
          "internalType": "uint256",
          "name": "id",
          "type": "uint256"
        }
      ],
      "name": "setURI",
      "outputs": [],
      "stateMutability": "nonpayable",
      "type": "function"
    },
    {
      "inputs": [
        {
          "internalType": "bytes4",
          "name": "interfaceId",
          "type": "bytes4"
        }
      ],
      "name": "supportsInterface",
      "outputs": [
        {
          "internalType": "bool",
          "name": "",
          "type": "bool"
        }
      ],
      "stateMutability": "view",
      "type": "function"
    },
    {
      "inputs": [
        {
          "internalType": "uint256",
          "name": "tokenid",
          "type": "uint256"
        }
      ],
      "name": "uri",
      "outputs": [
        {
          "internalType": "string",
          "name": "",
          "type": "string"
        }
      ],
      "stateMutability": "view",
      "type": "function"
    }
  ],
  "bytecode": "0x60806040523480156200001157600080fd5b506040516200354538038062003545833981810160405260208110156200003757600080fd5b81019080805160405193929190846401000000008211156200005857600080fd5b9083019060208201858111156200006e57600080fd5b82516401000000008111828201881017156200008957600080fd5b82525081516020918201929091019080838360005b83811015620000b85781810151838201526020016200009e565b50505050905090810190601f168015620000e65780820380516001836020036101000a031916815260200191505b50604052506200010191506301ffc9a760e01b9050620001cc565b62000113636cdb3d1360e11b620001cc565b620001256303a24d0760e21b620001cc565b6200013b60006200013562000251565b62000255565b62000159600080516020620035258339815191526200013562000251565b62000177600080516020620035058339815191526200013562000251565b6200019360006000805160206200350583398151915262000265565b620001af60006000805160206200352583398151915262000265565b8051620001c4906006906020840190620003b9565b505062000455565b6001600160e01b031980821614156200022c576040805162461bcd60e51b815260206004820152601c60248201527f4552433136353a20696e76616c696420696e7465726661636520696400000000604482015290519081900360640190fd5b6001600160e01b0319166000908152602081905260409020805460ff19166001179055565b3390565b620002618282620002b7565b5050565b600082815260056020526040808220600201549051839285917fbd79b86ffe0ab8e8776151514217cd7cacd52c909f66475c3af44e129f0b00ff9190a460009182526005602052604090912060020155565b6000828152600560209081526040909120620002de91839062001bdc62000332821b17901c565b156200026157620002ee62000251565b6001600160a01b0316816001600160a01b0316837f2f8788117e7eff1d82e926ec794901d17c78024a50270940304540a733656f0d60405160405180910390a45050565b600062000349836001600160a01b03841662000352565b90505b92915050565b6000620003608383620003a1565b62000398575081546001818101845560008481526020808220909301849055845484825282860190935260409020919091556200034c565b5060006200034c565b60009081526001919091016020526040902054151590565b828054600181600116156101000203166002900490600052602060002090601f016020900481019282601f10620003fc57805160ff19168380011785556200042c565b828001600101855582156200042c579182015b828111156200042c5782518255916020019190600101906200040f565b506200043a9291506200043e565b5090565b5b808211156200043a57600081556001016200043f565b6130a080620004656000396000f3fe608060405234801561001057600080fd5b50600436106101a85760003560e01c8063731133e9116100f9578063b390c0ab11610097578063e5b9559511610071578063e5b9559514610c82578063e985e9c514610c9f578063f242432a14610ccd578063fe6d812414610d96576101a8565b8063b390c0ab14610c16578063ca15c87314610c39578063d547741f14610c56576101a8565b806391d14854116100d357806391d1485414610bac578063a217fddf14610bd8578063a22cb46514610be0578063b1de303e14610c0e576101a8565b8063731133e91461098a57806383ca4b6f14610a4a5780639010d07c14610b6d576101a8565b8063248a9ca31161016657806336568abe1161014057806336568abe146106a15780634e1273f4146106cd57806355f804b31461084057806367db3b8f146108e4576101a8565b8063248a9ca3146104975780632eb2c2d6146104b45780632f2ff15d14610675576101a8565b8062fdd58e146101ad57806301ffc9a7146101eb5780630bb78ec1146102265780630e89341c146102b8578063118c4f13146102d55780631f7fdffa146102dd575b600080fd5b6101d9600480360360408110156101c357600080fd5b506001600160a01b038135169060200135610d9e565b60408051918252519081900360200190f35b6102126004803603602081101561020157600080fd5b50356001600160e01b031916610e10565b604080519115158252519081900360200190f35b6102436004803603602081101561023c57600080fd5b5035610e33565b6040805160208082528351818301528351919283929083019185019080838360005b8381101561027d578181015183820152602001610265565b50505050905090810190601f1680156102aa5780820380516001836020036101000a031916815260200191505b509250505060405180910390f35b610243600480360360208110156102ce57600080fd5b5035610ece565b6101d9611132565b610495600480360360808110156102f357600080fd5b6001600160a01b038235169190810190604081016020820135600160201b81111561031d57600080fd5b82018360208201111561032f57600080fd5b803590602001918460208302840111600160201b8311171561035057600080fd5b9190808060200260200160405190810160405280939291908181526020018383602002808284376000920191909152509295949360208101935035915050600160201b81111561039f57600080fd5b8201836020820111156103b157600080fd5b803590602001918460208302840111600160201b831117156103d257600080fd5b9190808060200260200160405190810160405280939291908181526020018383602002808284376000920191909152509295949360208101935035915050600160201b81111561042157600080fd5b82018360208201111561043357600080fd5b803590602001918460018302840111600160201b8311171561045457600080fd5b91908080601f016020809104026020016040519081016040528093929190818152602001838380828437600092019190915250929550611156945050505050565b005b6101d9600480360360208110156104ad57600080fd5b503561119b565b610495600480360360a08110156104ca57600080fd5b6001600160a01b038235811692602081013590911691810190606081016040820135600160201b8111156104fd57600080fd5b82018360208201111561050f57600080fd5b803590602001918460208302840111600160201b8311171561053057600080fd5b9190808060200260200160405190810160405280939291908181526020018383602002808284376000920191909152509295949360208101935035915050600160201b81111561057f57600080fd5b82018360208201111561059157600080fd5b803590602001918460208302840111600160201b831117156105b257600080fd5b9190808060200260200160405190810160405280939291908181526020018383602002808284376000920191909152509295949360208101935035915050600160201b81111561060157600080fd5b82018360208201111561061357600080fd5b803590602001918460018302840111600160201b8311171561063457600080fd5b91908080601f0160208091040260200160405190810160405280939291908181526020018383808284376000920191909152509295506111b0945050505050565b6104956004803603604081101561068b57600080fd5b50803590602001356001600160a01b03166114ae565b610495600480360360408110156106b757600080fd5b50803590602001356001600160a01b031661151a565b6107f0600480360360408110156106e357600080fd5b810190602081018135600160201b8111156106fd57600080fd5b82018360208201111561070f57600080fd5b803590602001918460208302840111600160201b8311171561073057600080fd5b9190808060200260200160405190810160405280939291908181526020018383602002808284376000920191909152509295949360208101935035915050600160201b81111561077f57600080fd5b82018360208201111561079157600080fd5b803590602001918460208302840111600160201b831117156107b257600080fd5b91908080602002602001604051908101604052809392919081815260200183836020028082843760009201919091525092955061157b945050505050565b60408051602080825283518183015283519192839290830191858101910280838360005b8381101561082c578181015183820152602001610814565b505050509050019250505060405180910390f35b6104956004803603602081101561085657600080fd5b810190602081018135600160201b81111561087057600080fd5b82018360208201111561088257600080fd5b803590602001918460018302840111600160201b831117156108a357600080fd5b91908080601f0160208091040260200160405190810160405280939291908181526020018383808284376000920191909152509295506116f9945050505050565b610495600480360360408110156108fa57600080fd5b810190602081018135600160201b81111561091457600080fd5b82018360208201111561092657600080fd5b803590602001918460018302840111600160201b8311171561094757600080fd5b91908080601f016020809104026020016040519081016040528093929190818152602001838380828437600092019190915250929550509135925061173f915050565b610495600480360360808110156109a057600080fd5b6001600160a01b038235169160208101359160408201359190810190608081016060820135600160201b8111156109d657600080fd5b8201836020820111156109e857600080fd5b803590602001918460018302840111600160201b83111715610a0957600080fd5b91908080601f016020809104026020016040519081016040528093929190818152602001838380828437600092019190915250929550611796945050505050565b61049560048036036040811015610a6057600080fd5b810190602081018135600160201b811115610a7a57600080fd5b820183602082011115610a8c57600080fd5b803590602001918460208302840111600160201b83111715610aad57600080fd5b9190808060200260200160405190810160405280939291908181526020018383602002808284376000920191909152509295949360208101935035915050600160201b811115610afc57600080fd5b820183602082011115610b0e57600080fd5b803590602001918460208302840111600160201b83111715610b2f57600080fd5b9190808060200260200160405190810160405280939291908181526020018383602002808284376000920191909152509295506117d5945050505050565b610b9060048036036040811015610b8357600080fd5b50803590602001356117e0565b604080516001600160a01b039092168252519081900360200190f35b61021260048036036040811015610bc257600080fd5b50803590602001356001600160a01b03166117ff565b6101d9611817565b61049560048036036040811015610bf657600080fd5b506001600160a01b038135169060200135151561181c565b6101d961190b565b61049560048036036040811015610c2c57600080fd5b508035906020013561192f565b6101d960048036036020811015610c4f57600080fd5b503561193a565b61049560048036036040811015610c6c57600080fd5b50803590602001356001600160a01b0316611951565b61021260048036036020811015610c9857600080fd5b50356119aa565b61021260048036036040811015610cb557600080fd5b506001600160a01b03813581169160200135166119bf565b610495600480360360a0811015610ce357600080fd5b6001600160a01b03823581169260208101359091169160408201359160608101359181019060a081016080820135600160201b811115610d2257600080fd5b820183602082011115610d3457600080fd5b803590602001918460018302840111600160201b83111715610d5557600080fd5b91908080601f0160208091040260200160405190810160405280939291908181526020018383808284376000920191909152509295506119ed945050505050565b6101d9611bb8565b60006001600160a01b038316610de55760405162461bcd60e51b815260040180806020018281038252602b815260200180612e24602b913960400191505060405180910390fd5b5060008181526001602090815260408083206001600160a01b03861684529091529020545b92915050565b6001600160e01b0319811660009081526020819052604090205460ff165b919050565b60076020908152600091825260409182902080548351601f600260001961010060018616150201909316929092049182018490048402810184019094528084529091830182828015610ec65780601f10610e9b57610100808354040283529160200191610ec6565b820191906000526020600020905b815481529060010190602001808311610ea957829003601f168201915b505050505081565b6000818152600760209081526040918290208054835160026001831615610100026000190190921691909104601f81018490048402820184019094528381526060938493919291830182828015610f665780601f10610f3b57610100808354040283529160200191610f66565b820191906000526020600020905b815481529060010190602001808311610f4957829003601f168201915b505060065493945050505060026000196101006001841615020190911604610f8f579050610e2e565b805115611060576006816040516020018083805460018160011615610100020316600290048015610ff75780601f10610fd5576101008083540402835291820191610ff7565b820191906000526020600020905b815481529060010190602001808311610fe3575b5050825160208401908083835b602083106110235780518252601f199092019160209182019101611004565b6001836020036101000a03801982511681845116808217855250505050505090500192505050604051602081830303815290604052915050610e2e565b600661106b84611bf1565b60405160200180838054600181600116156101000203166002900480156110c95780601f106110a75761010080835404028352918201916110c9565b820191906000526020600020905b8154815290600101906020018083116110b5575b5050825160208401908083835b602083106110f55780518252601f1990920191602091820191016110d6565b6001836020036101000a03801982511681845116808217855250505050505090500192505050604051602081830303815290604052915050919050565b7f9667e80708b6eeeb0053fa0cca44e028ff548e2a9f029edfeac87c118b08b7c881565b6111807ff0887ba65ee2024ea881d91b74c2450ef19e1557f03bed3ea9f16b037cbe2dc9336117ff565b61118957600080fd5b61119584848484611ccc565b50505050565b60009081526005602052604090206002015490565b81518351146111f05760405162461bcd60e51b8152600401808060200182810382526028815260200180612ff36028913960400191505060405180910390fd5b6001600160a01b0384166112355760405162461bcd60e51b8152600401808060200182810382526025815260200180612efd6025913960400191505060405180910390fd5b61123d611f93565b6001600160a01b0316856001600160a01b03161480611268575061126885611263611f93565b6119bf565b6112a35760405162461bcd60e51b8152600401808060200182810382526032815260200180612f226032913960400191505060405180910390fd5b60006112ad611f93565b90506112bd8187878787876114a6565b60005b84518110156113be5760008582815181106112d757fe5b6020026020010151905060008583815181106112ef57fe5b6020026020010151905061135c816040518060600160405280602a8152602001612f77602a91396001600086815260200190815260200160002060008d6001600160a01b03166001600160a01b0316815260200190815260200160002054611f989092919063ffffffff16565b60008381526001602090815260408083206001600160a01b038e811685529252808320939093558a1681522054611393908261202f565b60009283526001602081815260408086206001600160a01b038d1687529091529093205550016112c0565b50846001600160a01b0316866001600160a01b0316826001600160a01b03167f4a39dc06d4c0dbc64b70af90fd698a233a518aa5d07e595d983b8c0526c8f7fb8787604051808060200180602001838103835285818151815260200191508051906020019060200280838360005b8381101561144457818101518382015260200161142c565b50505050905001838103825284818151815260200191508051906020019060200280838360005b8381101561148357818101518382015260200161146b565b5050505090500194505050505060405180910390a46114a6818787878787612089565b505050505050565b6000828152600560205260409020600201546114d1906114cc611f93565b6117ff565b61150c5760405162461bcd60e51b815260040180806020018281038252602f815260200180612df5602f913960400191505060405180910390fd5b6115168282612308565b5050565b611522611f93565b6001600160a01b0316816001600160a01b0316146115715760405162461bcd60e51b815260040180806020018281038252602f81526020018061303c602f913960400191505060405180910390fd5b6115168282612371565b606081518351146115bd5760405162461bcd60e51b8152600401808060200182810382526029815260200180612fca6029913960400191505060405180910390fd5b6060835167ffffffffffffffff811180156115d757600080fd5b50604051908082528060200260200182016040528015611601578160200160208202803683370190505b50905060005b84518110156116f15760006001600160a01b031685828151811061162757fe5b60200260200101516001600160a01b031614156116755760405162461bcd60e51b8152600401808060200182810382526031815260200180612e4f6031913960400191505060405180910390fd5b6001600085838151811061168557fe5b6020026020010151815260200190815260200160002060008683815181106116a957fe5b60200260200101516001600160a01b03166001600160a01b03168152602001908152602001600020548282815181106116de57fe5b6020908102919091010152600101611607565b509392505050565b6117237ff6e33f9720e4529cb1c710e3344dc00830589a3239198ffa39b07117085d250e336117ff565b61172c57600080fd5b8051611516906006906020840190612c38565b6117697ff6e33f9720e4529cb1c710e3344dc00830589a3239198ffa39b07117085d250e336117ff565b61177257600080fd5b6000818152600760209081526040909120835161179192850190612c38565b505050565b6117c07ff0887ba65ee2024ea881d91b74c2450ef19e1557f03bed3ea9f16b037cbe2dc9336117ff565b6117c957600080fd5b611195848484846123da565b61151633838361250b565b60008281526005602052604081206117f89083612779565b9392505050565b60008281526005602052604081206117f89083612785565b600081565b816001600160a01b031661182e611f93565b6001600160a01b031614156118745760405162461bcd60e51b8152600401808060200182810382526029815260200180612fa16029913960400191505060405180910390fd5b8060036000611881611f93565b6001600160a01b03908116825260208083019390935260409182016000908120918716808252919093529120805460ff1916921515929092179091556118c5611f93565b6001600160a01b03167f17307eab39ab6107e8899845ad3d59bd9653f200f220920489ca2b5937696c318360405180821515815260200191505060405180910390a35050565b7ff6e33f9720e4529cb1c710e3344dc00830589a3239198ffa39b07117085d250e81565b61151633838361279a565b6000818152600560205260408120610e0a906128cd565b60008281526005602052604090206002015461196f906114cc611f93565b6115715760405162461bcd60e51b8152600401808060200182810382526030815260200180612ecd6030913960400191505060405180910390fd5b60009081526002602052604090205460ff1690565b6001600160a01b03918216600090815260036020908152604080832093909416825291909152205460ff1690565b6001600160a01b038416611a325760405162461bcd60e51b8152600401808060200182810382526025815260200180612efd6025913960400191505060405180910390fd5b611a3a611f93565b6001600160a01b0316856001600160a01b03161480611a605750611a6085611263611f93565b611a9b5760405162461bcd60e51b8152600401808060200182810382526029815260200180612ea46029913960400191505060405180910390fd5b6000611aa5611f93565b9050611ac5818787611ab6886128d8565b611abf886128d8565b876114a6565b611b0c836040518060600160405280602a8152602001612f77602a913960008781526001602090815260408083206001600160a01b038d1684529091529020549190611f98565b60008581526001602090815260408083206001600160a01b038b81168552925280832093909355871681522054611b43908461202f565b60008581526001602090815260408083206001600160a01b03808b168086529184529382902094909455805188815291820187905280518a8416938616927fc3d58168c5ae7397731d063d5bbf3d657854427343f4c083240f7aacaa2d0f6292908290030190a46114a681878787878761291c565b7ff0887ba65ee2024ea881d91b74c2450ef19e1557f03bed3ea9f16b037cbe2dc981565b60006117f8836001600160a01b038416612a8d565b606081611c1657506040805180820190915260018152600360fc1b6020820152610e2e565b8160005b8115611c2e57600101600a82049150611c1a565b60608167ffffffffffffffff81118015611c4757600080fd5b506040519080825280601f01601f191660200182016040528015611c72576020820181803683370190505b50859350905060001982015b8315611cc357600a840660300160f81b82828060019003935081518110611ca157fe5b60200101906001600160f81b031916908160001a905350600a84049350611c7e565b50949350505050565b6001600160a01b038416611d115760405162461bcd60e51b815260040180806020018281038252602181526020018061301b6021913960400191505060405180910390fd5b8151835114611d515760405162461bcd60e51b8152600401808060200182810382526028815260200180612ff36028913960400191505060405180910390fd5b6000611d5b611f93565b9050611d6c816000878787876114a6565b60005b8451811015611ea25760026000868381518110611d8857fe5b60209081029190910181015182528101919091526040016000205460ff16611dea57600160026000878481518110611dbc57fe5b6020026020010151815260200190815260200160002060006101000a81548160ff0219169083151502179055505b611e5960016000878481518110611dfd57fe5b602002602001015181526020019081526020016000206000886001600160a01b03166001600160a01b0316815260200190815260200160002054858381518110611e4357fe5b602002602001015161202f90919063ffffffff16565b60016000878481518110611e6957fe5b602090810291909101810151825281810192909252604090810160009081206001600160a01b038b168252909252902055600101611d6f565b50846001600160a01b031660006001600160a01b0316826001600160a01b03167f4a39dc06d4c0dbc64b70af90fd698a233a518aa5d07e595d983b8c0526c8f7fb8787604051808060200180602001838103835285818151815260200191508051906020019060200280838360005b83811015611f29578181015183820152602001611f11565b50505050905001838103825284818151815260200191508051906020019060200280838360005b83811015611f68578181015183820152602001611f50565b5050505090500194505050505060405180910390a4611f8c81600087878787612089565b5050505050565b335b90565b600081848411156120275760405162461bcd60e51b81526004018080602001828103825283818151815260200191508051906020019080838360005b83811015611fec578181015183820152602001611fd4565b50505050905090810190601f1680156120195780820380516001836020036101000a031916815260200191505b509250505060405180910390fd5b505050900390565b6000828201838110156117f8576040805162461bcd60e51b815260206004820152601b60248201527f536166654d6174683a206164646974696f6e206f766572666c6f770000000000604482015290519081900360640190fd5b61209b846001600160a01b0316612ad7565b156114a657836001600160a01b031663bc197c8187878686866040518663ffffffff1660e01b815260040180866001600160a01b03168152602001856001600160a01b03168152602001806020018060200180602001848103845287818151815260200191508051906020019060200280838360005b83811015612129578181015183820152602001612111565b50505050905001848103835286818151815260200191508051906020019060200280838360005b83811015612168578181015183820152602001612150565b50505050905001848103825285818151815260200191508051906020019080838360005b838110156121a457818101518382015260200161218c565b50505050905090810190601f1680156121d15780820380516001836020036101000a031916815260200191505b5098505050505050505050602060405180830381600087803b1580156121f657600080fd5b505af192505050801561221b57506040513d602081101561221657600080fd5b505160015b6122b057612227612cd1565b806122325750612279565b60405162461bcd60e51b8152602060048201818152835160248401528351849391928392604401919085019080838360008315611fec578181015183820152602001611fd4565b60405162461bcd60e51b8152600401808060200182810382526034815260200180612d776034913960400191505060405180910390fd5b6001600160e01b0319811663bc197c8160e01b146122ff5760405162461bcd60e51b8152600401808060200182810382526028815260200180612dcd6028913960400191505060405180910390fd5b50505050505050565b60008281526005602052604090206123209082611bdc565b156115165761232d611f93565b6001600160a01b0316816001600160a01b0316837f2f8788117e7eff1d82e926ec794901d17c78024a50270940304540a733656f0d60405160405180910390a45050565b60008281526005602052604090206123899082612add565b1561151657612396611f93565b6001600160a01b0316816001600160a01b0316837ff6391f5c32d9c69d2a47ea670b442974b53935d1edc7fd64eb21e047a839171b60405160405180910390a45050565b6001600160a01b03841661241f5760405162461bcd60e51b815260040180806020018281038252602181526020018061301b6021913960400191505060405180910390fd5b60008381526002602052604090205460ff1661244f576000838152600260205260409020805460ff191660011790555b6000612459611f93565b905061246b81600087611ab6886128d8565b60008481526001602090815260408083206001600160a01b0389168452909152902054612498908461202f565b60008581526001602090815260408083206001600160a01b03808b16808652918452828520959095558151898152928301889052815190948616927fc3d58168c5ae7397731d063d5bbf3d657854427343f4c083240f7aacaa2d0f6292908290030190a4611f8c8160008787878761291c565b6001600160a01b0383166125505760405162461bcd60e51b8152600401808060200182810382526023815260200180612f546023913960400191505060405180910390fd5b80518251146125905760405162461bcd60e51b8152600401808060200182810382526028815260200180612ff36028913960400191505060405180910390fd5b600061259a611f93565b90506125ba818560008686604051806020016040528060008152506114a6565b60005b83518110156126985761264f8382815181106125d557fe5b6020026020010151604051806060016040528060248152602001612e80602491396001600088868151811061260657fe5b602002602001015181526020019081526020016000206000896001600160a01b03166001600160a01b0316815260200190815260200160002054611f989092919063ffffffff16565b6001600086848151811061265f57fe5b602090810291909101810151825281810192909252604090810160009081206001600160a01b038a1682529092529020556001016125bd565b5060006001600160a01b0316846001600160a01b0316826001600160a01b03167f4a39dc06d4c0dbc64b70af90fd698a233a518aa5d07e595d983b8c0526c8f7fb8686604051808060200180602001838103835285818151815260200191508051906020019060200280838360005b8381101561271f578181015183820152602001612707565b50505050905001838103825284818151815260200191508051906020019060200280838360005b8381101561275e578181015183820152602001612746565b5050505090500194505050505060405180910390a450505050565b60006117f88383612af2565b60006117f8836001600160a01b038416612b56565b6001600160a01b0383166127df5760405162461bcd60e51b8152600401808060200182810382526023815260200180612f546023913960400191505060405180910390fd5b60006127e9611f93565b9050612819818560006127fb876128d8565b612804876128d8565b604051806020016040528060008152506114a6565b61286082604051806060016040528060248152602001612e806024913960008681526001602090815260408083206001600160a01b038b1684529091529020549190611f98565b60008481526001602090815260408083206001600160a01b03808a16808652918452828520959095558151888152928301879052815193949093908616927fc3d58168c5ae7397731d063d5bbf3d657854427343f4c083240f7aacaa2d0f6292908290030190a450505050565b6000610e0a82612b6e565b60408051600180825281830190925260609182919060208083019080368337019050509050828160008151811061290b57fe5b602090810291909101015292915050565b61292e846001600160a01b0316612ad7565b156114a657836001600160a01b031663f23a6e6187878686866040518663ffffffff1660e01b815260040180866001600160a01b03168152602001856001600160a01b0316815260200184815260200183815260200180602001828103825283818151815260200191508051906020019080838360005b838110156129bd5781810151838201526020016129a5565b50505050905090810190601f1680156129ea5780820380516001836020036101000a031916815260200191505b509650505050505050602060405180830381600087803b158015612a0d57600080fd5b505af1925050508015612a3257506040513d6020811015612a2d57600080fd5b505160015b612a3e57612227612cd1565b6001600160e01b0319811663f23a6e6160e01b146122ff5760405162461bcd60e51b8152600401808060200182810382526028815260200180612dcd6028913960400191505060405180910390fd5b6000612a998383612b56565b612acf57508154600181810184556000848152602080822090930184905584548482528286019093526040902091909155610e0a565b506000610e0a565b3b151590565b60006117f8836001600160a01b038416612b72565b81546000908210612b345760405162461bcd60e51b8152600401808060200182810382526022815260200180612dab6022913960400191505060405180910390fd5b826000018281548110612b4357fe5b9060005260206000200154905092915050565b60009081526001919091016020526040902054151590565b5490565b60008181526001830160205260408120548015612c2e5783546000198083019190810190600090879083908110612ba557fe5b9060005260206000200154905080876000018481548110612bc257fe5b600091825260208083209091019290925582815260018981019092526040902090840190558654879080612bf257fe5b60019003818190600052602060002001600090559055866001016000878152602001908152602001600020600090556001945050505050610e0a565b6000915050610e0a565b828054600181600116156101000203166002900490600052602060002090601f016020900481019282601f10612c7957805160ff1916838001178555612ca6565b82800160010185558215612ca6579182015b82811115612ca6578251825591602001919060010190612c8b565b50612cb2929150612cb6565b5090565b5b80821115612cb25760008155600101612cb7565b60e01c90565b600060443d1015612ce157611f95565b600481823e6308c379a0612cf58251612ccb565b14612cff57611f95565b6040513d600319016004823e80513d67ffffffffffffffff8160248401118184111715612d2f5750505050611f95565b82840192508251915080821115612d495750505050611f95565b503d83016020828401011115612d6157505050611f95565b601f01601f191681016020016040529150509056fe455243313135353a207472616e7366657220746f206e6f6e2045524331313535526563656976657220696d706c656d656e746572456e756d657261626c655365743a20696e646578206f7574206f6620626f756e6473455243313135353a204552433131353552656365697665722072656a656374656420746f6b656e73416363657373436f6e74726f6c3a2073656e646572206d75737420626520616e2061646d696e20746f206772616e74455243313135353a2062616c616e636520717565727920666f7220746865207a65726f2061646472657373455243313135353a2062617463682062616c616e636520717565727920666f7220746865207a65726f2061646472657373455243313135353a206275726e20616d6f756e7420657863656564732062616c616e6365455243313135353a2063616c6c6572206973206e6f74206f776e6572206e6f7220617070726f766564416363657373436f6e74726f6c3a2073656e646572206d75737420626520616e2061646d696e20746f207265766f6b65455243313135353a207472616e7366657220746f20746865207a65726f2061646472657373455243313135353a207472616e736665722063616c6c6572206973206e6f74206f776e6572206e6f7220617070726f766564455243313135353a206275726e2066726f6d20746865207a65726f2061646472657373455243313135353a20696e73756666696369656e742062616c616e636520666f72207472616e73666572455243313135353a2073657474696e6720617070726f76616c2073746174757320666f722073656c66455243313135353a206163636f756e747320616e6420696473206c656e677468206d69736d61746368455243313135353a2069647320616e6420616d6f756e7473206c656e677468206d69736d61746368455243313135353a206d696e7420746f20746865207a65726f2061646472657373416363657373436f6e74726f6c3a2063616e206f6e6c792072656e6f756e636520726f6c657320666f722073656c66a2646970667358221220ca0d29a190fba2618b5ede979cee464844119f7cf5636abab663b96442bd882e64736f6c63430007030033f0887ba65ee2024ea881d91b74c2450ef19e1557f03bed3ea9f16b037cbe2dc9f6e33f9720e4529cb1c710e3344dc00830589a3239198ffa39b07117085d250e",
  "linkReferences": {},
  "deployedLinkReferences": {}
}