{
  "_format": "hh-sol-artifact-1",
  "contractName": "NFTbase",
  "sourceName": "contracts/NFTbase.sol",
  "abi": [
    {
      "inputs": [
        {
          "internalType": "string",
          "name": "uri",
          "type": "string"
        }
      ],
      "stateMutability": "nonpayable",
      "type": "constructor"
    },
    {
      "anonymous": false,
      "inputs": [
        {
          "indexed": true,
          "internalType": "address",
          "name": "account",
          "type": "address"
        },
        {
          "indexed": true,
          "internalType": "address",
          "name": "operator",
          "type": "address"
        },
        {
          "indexed": false,
          "internalType": "bool",
          "name": "approved",
          "type": "bool"
        }
      ],
      "name": "ApprovalForAll",
      "type": "event"
    },
    {
      "anonymous": false,
      "inputs": [
        {
          "indexed": true,
          "internalType": "bytes32",
          "name": "role",
          "type": "bytes32"
        },
        {
          "indexed": true,
          "internalType": "bytes32",
          "name": "previousAdminRole",
          "type": "bytes32"
        },
        {
          "indexed": true,
          "internalType": "bytes32",
          "name": "newAdminRole",
          "type": "bytes32"
        }
      ],
      "name": "RoleAdminChanged",
      "type": "event"
    },
    {
      "anonymous": false,
      "inputs": [
        {
          "indexed": true,
          "internalType": "bytes32",
          "name": "role",
          "type": "bytes32"
        },
        {
          "indexed": true,
          "internalType": "address",
          "name": "account",
          "type": "address"
        },
        {
          "indexed": true,
          "internalType": "address",
          "name": "sender",
          "type": "address"
        }
      ],
      "name": "RoleGranted",
      "type": "event"
    },
    {
      "anonymous": false,
      "inputs": [
        {
          "indexed": true,
          "internalType": "bytes32",
          "name": "role",
          "type": "bytes32"
        },
        {
          "indexed": true,
          "internalType": "address",
          "name": "account",
          "type": "address"
        },
        {
          "indexed": true,
          "internalType": "address",
          "name": "sender",
          "type": "address"
        }
      ],
      "name": "RoleRevoked",
      "type": "event"
    },
    {
      "anonymous": false,
      "inputs": [
        {
          "indexed": true,
          "internalType": "address",
          "name": "operator",
          "type": "address"
        },
        {
          "indexed": true,
          "internalType": "address",
          "name": "from",
          "type": "address"
        },
        {
          "indexed": true,
          "internalType": "address",
          "name": "to",
          "type": "address"
        },
        {
          "indexed": false,
          "internalType": "uint256[]",
          "name": "ids",
          "type": "uint256[]"
        },
        {
          "indexed": false,
          "internalType": "uint256[]",
          "name": "values",
          "type": "uint256[]"
        }
      ],
      "name": "TransferBatch",
      "type": "event"
    },
    {
      "anonymous": false,
      "inputs": [
        {
          "indexed": true,
          "internalType": "address",
          "name": "operator",
          "type": "address"
        },
        {
          "indexed": true,
          "internalType": "address",
          "name": "from",
          "type": "address"
        },
        {
          "indexed": true,
          "internalType": "address",
          "name": "to",
          "type": "address"
        },
        {
          "indexed": false,
          "internalType": "uint256",
          "name": "id",
          "type": "uint256"
        },
        {
          "indexed": false,
          "internalType": "uint256",
          "name": "value",
          "type": "uint256"
        }
      ],
      "name": "TransferSingle",
      "type": "event"
    },
    {
      "anonymous": false,
      "inputs": [
        {
          "indexed": false,
          "internalType": "string",
          "name": "value",
          "type": "string"
        },
        {
          "indexed": true,
          "internalType": "uint256",
          "name": "id",
          "type": "uint256"
        }
      ],
      "name": "URI",
      "type": "event"
    },
    {
      "inputs": [],
      "name": "DEFAULT_ADMIN_ROLE",
      "outputs": [
        {
          "internalType": "bytes32",
          "name": "",
          "type": "bytes32"
        }
      ],
      "stateMutability": "view",
      "type": "function"
    },
    {
      "inputs": [],
      "name": "METADATA_ADMIN",
      "outputs": [
        {
          "internalType": "bytes32",
          "name": "",
          "type": "bytes32"
        }
      ],
      "stateMutability": "view",
      "type": "function"
    },
    {
      "inputs": [
        {
          "internalType": "uint256",
          "name": "",
          "type": "uint256"
        }
      ],
      "name": "_tokenURIs",
      "outputs": [
        {
          "internalType": "string",
          "name": "",
          "type": "string"
        }
      ],
      "stateMutability": "view",
      "type": "function"
    },
    {
      "inputs": [
        {
          "internalType": "address",
          "name": "account",
          "type": "address"
        },
        {
          "internalType": "uint256",
          "name": "id",
          "type": "uint256"
        }
      ],
      "name": "balanceOf",
      "outputs": [
        {
          "internalType": "uint256",
          "name": "",
          "type": "uint256"
        }
      ],
      "stateMutability": "view",
      "type": "function"
    },
    {
      "inputs": [
        {
          "internalType": "address[]",
          "name": "accounts",
          "type": "address[]"
        },
        {
          "internalType": "uint256[]",
          "name": "ids",
          "type": "uint256[]"
        }
      ],
      "name": "balanceOfBatch",
      "outputs": [
        {
          "internalType": "uint256[]",
          "name": "",
          "type": "uint256[]"
        }
      ],
      "stateMutability": "view",
      "type": "function"
    },
    {
      "inputs": [
        {
          "internalType": "bytes32",
          "name": "role",
          "type": "bytes32"
        }
      ],
      "name": "getRoleAdmin",
      "outputs": [
        {
          "internalType": "bytes32",
          "name": "",
          "type": "bytes32"
        }
      ],
      "stateMutability": "view",
      "type": "function"
    },
    {
      "inputs": [
        {
          "internalType": "bytes32",
          "name": "role",
          "type": "bytes32"
        },
        {
          "internalType": "uint256",
          "name": "index",
          "type": "uint256"
        }
      ],
      "name": "getRoleMember",
      "outputs": [
        {
          "internalType": "address",
          "name": "",
          "type": "address"
        }
      ],
      "stateMutability": "view",
      "type": "function"
    },
    {
      "inputs": [
        {
          "internalType": "bytes32",
          "name": "role",
          "type": "bytes32"
        }
      ],
      "name": "getRoleMemberCount",
      "outputs": [
        {
          "internalType": "uint256",
          "name": "",
          "type": "uint256"
        }
      ],
      "stateMutability": "view",
      "type": "function"
    },
    {
      "inputs": [
        {
          "internalType": "bytes32",
          "name": "role",
          "type": "bytes32"
        },
        {
          "internalType": "address",
          "name": "account",
          "type": "address"
        }
      ],
      "name": "grantRole",
      "outputs": [],
      "stateMutability": "nonpayable",
      "type": "function"
    },
    {
      "inputs": [
        {
          "internalType": "uint256",
          "name": "id",
          "type": "uint256"
        }
      ],
      "name": "hasMinted",
      "outputs": [
        {
          "internalType": "bool",
          "name": "",
          "type": "bool"
        }
      ],
      "stateMutability": "view",
      "type": "function"
    },
    {
      "inputs": [
        {
          "internalType": "bytes32",
          "name": "role",
          "type": "bytes32"
        },
        {
          "internalType": "address",
          "name": "account",
          "type": "address"
        }
      ],
      "name": "hasRole",
      "outputs": [
        {
          "internalType": "bool",
          "name": "",
          "type": "bool"
        }
      ],
      "stateMutability": "view",
      "type": "function"
    },
    {
      "inputs": [
        {
          "internalType": "address",
          "name": "account",
          "type": "address"
        },
        {
          "internalType": "address",
          "name": "operator",
          "type": "address"
        }
      ],
      "name": "isApprovedForAll",
      "outputs": [
        {
          "internalType": "bool",
          "name": "",
          "type": "bool"
        }
      ],
      "stateMutability": "view",
      "type": "function"
    },
    {
      "inputs": [
        {
          "internalType": "bytes32",
          "name": "role",
          "type": "bytes32"
        },
        {
          "internalType": "address",
          "name": "account",
          "type": "address"
        }
      ],
      "name": "renounceRole",
      "outputs": [],
      "stateMutability": "nonpayable",
      "type": "function"
    },
    {
      "inputs": [
        {
          "internalType": "bytes32",
          "name": "role",
          "type": "bytes32"
        },
        {
          "internalType": "address",
          "name": "account",
          "type": "address"
        }
      ],
      "name": "revokeRole",
      "outputs": [],
      "stateMutability": "nonpayable",
      "type": "function"
    },
    {
      "inputs": [
        {
          "internalType": "address",
          "name": "from",
          "type": "address"
        },
        {
          "internalType": "address",
          "name": "to",
          "type": "address"
        },
        {
          "internalType": "uint256[]",
          "name": "ids",
          "type": "uint256[]"
        },
        {
          "internalType": "uint256[]",
          "name": "amounts",
          "type": "uint256[]"
        },
        {
          "internalType": "bytes",
          "name": "data",
          "type": "bytes"
        }
      ],
      "name": "safeBatchTransferFrom",
      "outputs": [],
      "stateMutability": "nonpayable",
      "type": "function"
    },
    {
      "inputs": [
        {
          "internalType": "address",
          "name": "from",
          "type": "address"
        },
        {
          "internalType": "address",
          "name": "to",
          "type": "address"
        },
        {
          "internalType": "uint256",
          "name": "id",
          "type": "uint256"
        },
        {
          "internalType": "uint256",
          "name": "amount",
          "type": "uint256"
        },
        {
          "internalType": "bytes",
          "name": "data",
          "type": "bytes"
        }
      ],
      "name": "safeTransferFrom",
      "outputs": [],
      "stateMutability": "nonpayable",
      "type": "function"
    },
    {
      "inputs": [
        {
          "internalType": "address",
          "name": "operator",
          "type": "address"
        },
        {
          "internalType": "bool",
          "name": "approved",
          "type": "bool"
        }
      ],
      "name": "setApprovalForAll",
      "outputs": [],
      "stateMutability": "nonpayable",
      "type": "function"
    },
    {
      "inputs": [
        {
          "internalType": "string",
          "name": "newuri",
          "type": "string"
        }
      ],
      "name": "setBaseURI",
      "outputs": [],
      "stateMutability": "nonpayable",
      "type": "function"
    },
    {
      "inputs": [
        {
          "internalType": "string",
          "name": "newuri",
          "type": "string"
        },
        {
          "internalType": "uint256",
          "name": "id",
          "type": "uint256"
        }
      ],
      "name": "setURI",
      "outputs": [],
      "stateMutability": "nonpayable",
      "type": "function"
    },
    {
      "inputs": [
        {
          "internalType": "bytes4",
          "name": "interfaceId",
          "type": "bytes4"
        }
      ],
      "name": "supportsInterface",
      "outputs": [
        {
          "internalType": "bool",
          "name": "",
          "type": "bool"
        }
      ],
      "stateMutability": "view",
      "type": "function"
    },
    {
      "inputs": [
        {
          "internalType": "uint256",
          "name": "tokenid",
          "type": "uint256"
        }
      ],
      "name": "uri",
      "outputs": [
        {
          "internalType": "string",
          "name": "",
          "type": "string"
        }
      ],
      "stateMutability": "view",
      "type": "function"
    }
  ],
  "bytecode": "0x60806040523480156200001157600080fd5b506040516200280438038062002804833981810160405260208110156200003757600080fd5b81019080805160405193929190846401000000008211156200005857600080fd5b9083019060208201858111156200006e57600080fd5b82516401000000008111828201881017156200008957600080fd5b82525081516020918201929091019080838360005b83811015620000b85781810151838201526020016200009e565b50505050905090810190601f168015620000e65780820380516001836020036101000a031916815260200191505b50604052506200010191506301ffc9a760e01b905062000187565b62000113636cdb3d1360e11b62000187565b620001256303a24d0760e21b62000187565b6200013b6000620001356200020c565b6200026c565b6200016a7ff6e33f9720e4529cb1c710e3344dc00830589a3239198ffa39b07117085d250e620001356200020c565b80516200017f9060069060208401906200037e565b50506200041a565b6001600160e01b03198082161415620001e7576040805162461bcd60e51b815260206004820152601c60248201527f4552433136353a20696e76616c696420696e7465726661636520696400000000604482015290519081900360640190fd5b6001600160e01b0319166000908152602081905260409020805460ff19166001179055565b600033301415620002665760606000368080601f0160208091040260200160405190810160405280939291908181526020018383808284376000920191909152505050503601516001600160a01b03169150620002699050565b50335b90565b6200027882826200027c565b5050565b6000828152600560209081526040909120620002a3918390620016be620002f7821b17901c565b156200027857620002b36200020c565b6001600160a01b0316816001600160a01b0316837f2f8788117e7eff1d82e926ec794901d17c78024a50270940304540a733656f0d60405160405180910390a45050565b60006200030e836001600160a01b03841662000317565b90505b92915050565b600062000325838362000366565b6200035d5750815460018181018455600084815260208082209093018490558454848252828601909352604090209190915562000311565b50600062000311565b60009081526001919091016020526040902054151590565b828054600181600116156101000203166002900490600052602060002090601f016020900481019282601f10620003c157805160ff1916838001178555620003f1565b82800160010185558215620003f1579182015b82811115620003f1578251825591602001919060010190620003d4565b50620003ff92915062000403565b5090565b5b80821115620003ff576000815560010162000404565b6123da806200042a6000396000f3fe608060405234801561001057600080fd5b50600436106101365760003560e01c806367db3b8f116100b8578063b1de303e1161007c578063b1de303e146107f9578063ca15c87314610801578063d547741f1461081e578063e5b955951461084a578063e985e9c514610867578063f242432a1461089557610136565b806367db3b8f146106b25780639010d07c1461075857806391d1485414610797578063a217fddf146107c3578063a22cb465146107cb57610136565b80632eb2c2d6116100ff5780632eb2c2d6146102805780632f2ff15d1461044357806336568abe1461046f5780634e1273f41461049b57806355f804b31461060e57610136565b8062fdd58e1461013b57806301ffc9a7146101795780630bb78ec1146101b45780630e89341c14610246578063248a9ca314610263575b600080fd5b6101676004803603604081101561015157600080fd5b506001600160a01b03813516906020013561095e565b60408051918252519081900360200190f35b6101a06004803603602081101561018f57600080fd5b50356001600160e01b0319166109d0565b604080519115158252519081900360200190f35b6101d1600480360360208110156101ca57600080fd5b50356109f3565b6040805160208082528351818301528351919283929083019185019080838360005b8381101561020b5781810151838201526020016101f3565b50505050905090810190601f1680156102385780820380516001836020036101000a031916815260200191505b509250505060405180910390f35b6101d16004803603602081101561025c57600080fd5b5035610a8e565b6101676004803603602081101561027957600080fd5b5035610cf2565b610441600480360360a081101561029657600080fd5b6001600160a01b038235811692602081013590911691810190606081016040820135600160201b8111156102c957600080fd5b8201836020820111156102db57600080fd5b803590602001918460208302840111600160201b831117156102fc57600080fd5b9190808060200260200160405190810160405280939291908181526020018383602002808284376000920191909152509295949360208101935035915050600160201b81111561034b57600080fd5b82018360208201111561035d57600080fd5b803590602001918460208302840111600160201b8311171561037e57600080fd5b9190808060200260200160405190810160405280939291908181526020018383602002808284376000920191909152509295949360208101935035915050600160201b8111156103cd57600080fd5b8201836020820111156103df57600080fd5b803590602001918460018302840111600160201b8311171561040057600080fd5b91908080601f016020809104026020016040519081016040528093929190818152602001838380828437600092019190915250929550610d07945050505050565b005b6104416004803603604081101561045957600080fd5b50803590602001356001600160a01b0316611005565b6104416004803603604081101561048557600080fd5b50803590602001356001600160a01b0316611071565b6105be600480360360408110156104b157600080fd5b810190602081018135600160201b8111156104cb57600080fd5b8201836020820111156104dd57600080fd5b803590602001918460208302840111600160201b831117156104fe57600080fd5b9190808060200260200160405190810160405280939291908181526020018383602002808284376000920191909152509295949360208101935035915050600160201b81111561054d57600080fd5b82018360208201111561055f57600080fd5b803590602001918460208302840111600160201b8311171561058057600080fd5b9190808060200260200160405190810160405280939291908181526020018383602002808284376000920191909152509295506110d2945050505050565b60408051602080825283518183015283519192839290830191858101910280838360005b838110156105fa5781810151838201526020016105e2565b505050509050019250505060405180910390f35b6104416004803603602081101561062457600080fd5b810190602081018135600160201b81111561063e57600080fd5b82018360208201111561065057600080fd5b803590602001918460018302840111600160201b8311171561067157600080fd5b91908080601f016020809104026020016040519081016040528093929190818152602001838380828437600092019190915250929550611250945050505050565b610441600480360360408110156106c857600080fd5b810190602081018135600160201b8111156106e257600080fd5b8201836020820111156106f457600080fd5b803590602001918460018302840111600160201b8311171561071557600080fd5b91908080601f0160208091040260200160405190810160405280939291908181526020018383808284376000920191909152509295505091359250611298915050565b61077b6004803603604081101561076e57600080fd5b50803590602001356112f1565b604080516001600160a01b039092168252519081900360200190f35b6101a0600480360360408110156107ad57600080fd5b50803590602001356001600160a01b0316611310565b610167611328565b610441600480360360408110156107e157600080fd5b506001600160a01b038135169060200135151561132d565b61016761141c565b6101676004803603602081101561081757600080fd5b5035611440565b6104416004803603604081101561083457600080fd5b50803590602001356001600160a01b0316611457565b6101a06004803603602081101561086057600080fd5b50356114b0565b6101a06004803603604081101561087d57600080fd5b506001600160a01b03813581169160200135166114c5565b610441600480360360a08110156108ab57600080fd5b6001600160a01b03823581169260208101359091169160408201359160608101359181019060a081016080820135600160201b8111156108ea57600080fd5b8201836020820111156108fc57600080fd5b803590602001918460018302840111600160201b8311171561091d57600080fd5b91908080601f0160208091040260200160405190810160405280939291908181526020018383808284376000920191909152509295506114f3945050505050565b60006001600160a01b0383166109a55760405162461bcd60e51b815260040180806020018281038252602b8152602001806121c6602b913960400191505060405180910390fd5b5060008181526001602090815260408083206001600160a01b03861684529091529020545b92915050565b6001600160e01b0319811660009081526020819052604090205460ff165b919050565b60076020908152600091825260409182902080548351601f600260001961010060018616150201909316929092049182018490048402810184019094528084529091830182828015610a865780601f10610a5b57610100808354040283529160200191610a86565b820191906000526020600020905b815481529060010190602001808311610a6957829003601f168201915b505050505081565b6000818152600760209081526040918290208054835160026001831615610100026000190190921691909104601f81018490048402820184019094528381526060938493919291830182828015610b265780601f10610afb57610100808354040283529160200191610b26565b820191906000526020600020905b815481529060010190602001808311610b0957829003601f168201915b505060065493945050505060026000196101006001841615020190911604610b4f5790506109ee565b805115610c20576006816040516020018083805460018160011615610100020316600290048015610bb75780601f10610b95576101008083540402835291820191610bb7565b820191906000526020600020905b815481529060010190602001808311610ba3575b5050825160208401908083835b60208310610be35780518252601f199092019160209182019101610bc4565b6001836020036101000a038019825116818451168082178552505050505050905001925050506040516020818303038152906040529150506109ee565b6006610c2b846116d3565b6040516020018083805460018160011615610100020316600290048015610c895780601f10610c67576101008083540402835291820191610c89565b820191906000526020600020905b815481529060010190602001808311610c75575b5050825160208401908083835b60208310610cb55780518252601f199092019160209182019101610c96565b6001836020036101000a03801982511681845116808217855250505050505090500192505050604051602081830303815290604052915050919050565b60009081526005602052604090206002015490565b8151835114610d475760405162461bcd60e51b815260040180806020018281038252602881526020018061234e6028913960400191505060405180910390fd5b6001600160a01b038416610d8c5760405162461bcd60e51b815260040180806020018281038252602581526020018061227b6025913960400191505060405180910390fd5b610d946117ae565b6001600160a01b0316856001600160a01b03161480610dbf5750610dbf85610dba6117ae565b6114c5565b610dfa5760405162461bcd60e51b81526004018080602001828103825260328152602001806122a06032913960400191505060405180910390fd5b6000610e046117ae565b9050610e14818787878787610ffd565b60005b8451811015610f15576000858281518110610e2e57fe5b602002602001015190506000858381518110610e4657fe5b60200260200101519050610eb3816040518060600160405280602a81526020016122d2602a91396001600086815260200190815260200160002060008d6001600160a01b03166001600160a01b031681526020019081526020016000205461180c9092919063ffffffff16565b60008381526001602090815260408083206001600160a01b038e811685529252808320939093558a1681522054610eea90826118a3565b60009283526001602081815260408086206001600160a01b038d168752909152909320555001610e17565b50846001600160a01b0316866001600160a01b0316826001600160a01b03167f4a39dc06d4c0dbc64b70af90fd698a233a518aa5d07e595d983b8c0526c8f7fb8787604051808060200180602001838103835285818151815260200191508051906020019060200280838360005b83811015610f9b578181015183820152602001610f83565b50505050905001838103825284818151815260200191508051906020019060200280838360005b83811015610fda578181015183820152602001610fc2565b5050505090500194505050505060405180910390a4610ffd8187878787876118fd565b505050505050565b600082815260056020526040902060020154611028906110236117ae565b611310565b6110635760405162461bcd60e51b815260040180806020018281038252602f815260200180612197602f913960400191505060405180910390fd5b61106d8282611b7c565b5050565b6110796117ae565b6001600160a01b0316816001600160a01b0316146110c85760405162461bcd60e51b815260040180806020018281038252602f815260200180612376602f913960400191505060405180910390fd5b61106d8282611be5565b606081518351146111145760405162461bcd60e51b81526004018080602001828103825260298152602001806123256029913960400191505060405180910390fd5b6060835167ffffffffffffffff8111801561112e57600080fd5b50604051908082528060200260200182016040528015611158578160200160208202803683370190505b50905060005b84518110156112485760006001600160a01b031685828151811061117e57fe5b60200260200101516001600160a01b031614156111cc5760405162461bcd60e51b81526004018080602001828103825260318152602001806121f16031913960400191505060405180910390fd5b600160008583815181106111dc57fe5b60200260200101518152602001908152602001600020600086838151811061120057fe5b60200260200101516001600160a01b03166001600160a01b031681526020019081526020016000205482828151811061123557fe5b602090810291909101015260010161115e565b509392505050565b61127c7ff6e33f9720e4529cb1c710e3344dc00830589a3239198ffa39b07117085d250e6110236117ae565b61128557600080fd5b805161106d906006906020840190611fda565b6112c47ff6e33f9720e4529cb1c710e3344dc00830589a3239198ffa39b07117085d250e6110236117ae565b6112cd57600080fd5b600081815260076020908152604090912083516112ec92850190611fda565b505050565b60008281526005602052604081206113099083611c4e565b9392505050565b60008281526005602052604081206113099083611c5a565b600081565b816001600160a01b031661133f6117ae565b6001600160a01b031614156113855760405162461bcd60e51b81526004018080602001828103825260298152602001806122fc6029913960400191505060405180910390fd5b80600360006113926117ae565b6001600160a01b03908116825260208083019390935260409182016000908120918716808252919093529120805460ff1916921515929092179091556113d66117ae565b6001600160a01b03167f17307eab39ab6107e8899845ad3d59bd9653f200f220920489ca2b5937696c318360405180821515815260200191505060405180910390a35050565b7ff6e33f9720e4529cb1c710e3344dc00830589a3239198ffa39b07117085d250e81565b60008181526005602052604081206109ca90611c6f565b600082815260056020526040902060020154611475906110236117ae565b6110c85760405162461bcd60e51b815260040180806020018281038252603081526020018061224b6030913960400191505060405180910390fd5b60009081526002602052604090205460ff1690565b6001600160a01b03918216600090815260036020908152604080832093909416825291909152205460ff1690565b6001600160a01b0384166115385760405162461bcd60e51b815260040180806020018281038252602581526020018061227b6025913960400191505060405180910390fd5b6115406117ae565b6001600160a01b0316856001600160a01b03161480611566575061156685610dba6117ae565b6115a15760405162461bcd60e51b81526004018080602001828103825260298152602001806122226029913960400191505060405180910390fd5b60006115ab6117ae565b90506115cb8187876115bc88611c7a565b6115c588611c7a565b87610ffd565b611612836040518060600160405280602a81526020016122d2602a913960008781526001602090815260408083206001600160a01b038d168452909152902054919061180c565b60008581526001602090815260408083206001600160a01b038b8116855292528083209390935587168152205461164990846118a3565b60008581526001602090815260408083206001600160a01b03808b168086529184529382902094909455805188815291820187905280518a8416938616927fc3d58168c5ae7397731d063d5bbf3d657854427343f4c083240f7aacaa2d0f6292908290030190a4610ffd818787878787611cbe565b6000611309836001600160a01b038416611e2f565b6060816116f857506040805180820190915260018152600360fc1b60208201526109ee565b8160005b811561171057600101600a820491506116fc565b60608167ffffffffffffffff8111801561172957600080fd5b506040519080825280601f01601f191660200182016040528015611754576020820181803683370190505b50859350905060001982015b83156117a557600a840660300160f81b8282806001900393508151811061178357fe5b60200101906001600160f81b031916908160001a905350600a84049350611760565b50949350505050565b6000333014156118065760606000368080601f0160208091040260200160405190810160405280939291908181526020018383808284376000920191909152505050503601516001600160a01b031691506118099050565b50335b90565b6000818484111561189b5760405162461bcd60e51b81526004018080602001828103825283818151815260200191508051906020019080838360005b83811015611860578181015183820152602001611848565b50505050905090810190601f16801561188d5780820380516001836020036101000a031916815260200191505b509250505060405180910390fd5b505050900390565b600082820183811015611309576040805162461bcd60e51b815260206004820152601b60248201527f536166654d6174683a206164646974696f6e206f766572666c6f770000000000604482015290519081900360640190fd5b61190f846001600160a01b0316611e79565b15610ffd57836001600160a01b031663bc197c8187878686866040518663ffffffff1660e01b815260040180866001600160a01b03168152602001856001600160a01b03168152602001806020018060200180602001848103845287818151815260200191508051906020019060200280838360005b8381101561199d578181015183820152602001611985565b50505050905001848103835286818151815260200191508051906020019060200280838360005b838110156119dc5781810151838201526020016119c4565b50505050905001848103825285818151815260200191508051906020019080838360005b83811015611a18578181015183820152602001611a00565b50505050905090810190601f168015611a455780820380516001836020036101000a031916815260200191505b5098505050505050505050602060405180830381600087803b158015611a6a57600080fd5b505af1925050508015611a8f57506040513d6020811015611a8a57600080fd5b505160015b611b2457611a9b612073565b80611aa65750611aed565b60405162461bcd60e51b8152602060048201818152835160248401528351849391928392604401919085019080838360008315611860578181015183820152602001611848565b60405162461bcd60e51b81526004018080602001828103825260348152602001806121196034913960400191505060405180910390fd5b6001600160e01b0319811663bc197c8160e01b14611b735760405162461bcd60e51b815260040180806020018281038252602881526020018061216f6028913960400191505060405180910390fd5b50505050505050565b6000828152600560205260409020611b9490826116be565b1561106d57611ba16117ae565b6001600160a01b0316816001600160a01b0316837f2f8788117e7eff1d82e926ec794901d17c78024a50270940304540a733656f0d60405160405180910390a45050565b6000828152600560205260409020611bfd9082611e7f565b1561106d57611c0a6117ae565b6001600160a01b0316816001600160a01b0316837ff6391f5c32d9c69d2a47ea670b442974b53935d1edc7fd64eb21e047a839171b60405160405180910390a45050565b60006113098383611e94565b6000611309836001600160a01b038416611ef8565b60006109ca82611f10565b604080516001808252818301909252606091829190602080830190803683370190505090508281600081518110611cad57fe5b602090810291909101015292915050565b611cd0846001600160a01b0316611e79565b15610ffd57836001600160a01b031663f23a6e6187878686866040518663ffffffff1660e01b815260040180866001600160a01b03168152602001856001600160a01b0316815260200184815260200183815260200180602001828103825283818151815260200191508051906020019080838360005b83811015611d5f578181015183820152602001611d47565b50505050905090810190601f168015611d8c5780820380516001836020036101000a031916815260200191505b509650505050505050602060405180830381600087803b158015611daf57600080fd5b505af1925050508015611dd457506040513d6020811015611dcf57600080fd5b505160015b611de057611a9b612073565b6001600160e01b0319811663f23a6e6160e01b14611b735760405162461bcd60e51b815260040180806020018281038252602881526020018061216f6028913960400191505060405180910390fd5b6000611e3b8383611ef8565b611e71575081546001818101845560008481526020808220909301849055845484825282860190935260409020919091556109ca565b5060006109ca565b3b151590565b6000611309836001600160a01b038416611f14565b81546000908210611ed65760405162461bcd60e51b815260040180806020018281038252602281526020018061214d6022913960400191505060405180910390fd5b826000018281548110611ee557fe5b9060005260206000200154905092915050565b60009081526001919091016020526040902054151590565b5490565b60008181526001830160205260408120548015611fd05783546000198083019190810190600090879083908110611f4757fe5b9060005260206000200154905080876000018481548110611f6457fe5b600091825260208083209091019290925582815260018981019092526040902090840190558654879080611f9457fe5b600190038181906000526020600020016000905590558660010160008781526020019081526020016000206000905560019450505050506109ca565b60009150506109ca565b828054600181600116156101000203166002900490600052602060002090601f016020900481019282601f1061201b57805160ff1916838001178555612048565b82800160010185558215612048579182015b8281111561204857825182559160200191906001019061202d565b50612054929150612058565b5090565b5b808211156120545760008155600101612059565b60e01c90565b600060443d101561208357611809565b600481823e6308c379a0612097825161206d565b146120a157611809565b6040513d600319016004823e80513d67ffffffffffffffff81602484011181841117156120d15750505050611809565b828401925082519150808211156120eb5750505050611809565b503d8301602082840101111561210357505050611809565b601f01601f191681016020016040529150509056fe455243313135353a207472616e7366657220746f206e6f6e2045524331313535526563656976657220696d706c656d656e746572456e756d657261626c655365743a20696e646578206f7574206f6620626f756e6473455243313135353a204552433131353552656365697665722072656a656374656420746f6b656e73416363657373436f6e74726f6c3a2073656e646572206d75737420626520616e2061646d696e20746f206772616e74455243313135353a2062616c616e636520717565727920666f7220746865207a65726f2061646472657373455243313135353a2062617463682062616c616e636520717565727920666f7220746865207a65726f2061646472657373455243313135353a2063616c6c6572206973206e6f74206f776e6572206e6f7220617070726f766564416363657373436f6e74726f6c3a2073656e646572206d75737420626520616e2061646d696e20746f207265766f6b65455243313135353a207472616e7366657220746f20746865207a65726f2061646472657373455243313135353a207472616e736665722063616c6c6572206973206e6f74206f776e6572206e6f7220617070726f766564455243313135353a20696e73756666696369656e742062616c616e636520666f72207472616e73666572455243313135353a2073657474696e6720617070726f76616c2073746174757320666f722073656c66455243313135353a206163636f756e747320616e6420696473206c656e677468206d69736d61746368455243313135353a2069647320616e6420616d6f756e7473206c656e677468206d69736d61746368416363657373436f6e74726f6c3a2063616e206f6e6c792072656e6f756e636520726f6c657320666f722073656c66a26469706673582212207b488816ab80a8fa62d09d5d796f7731f70cb2f32ea62d0aa5510d03427529ca64736f6c63430007030033",
  "linkReferences": {},
  "deployedLinkReferences": {}
}