{
  "_format": "hh-sol-artifact-1",
  "contractName": "NFTbase",
  "sourceName": "contracts/NFTbase.sol",
  "abi": [
    {
      "inputs": [
        {
          "internalType": "string",
          "name": "uri",
          "type": "string"
        }
      ],
      "stateMutability": "nonpayable",
      "type": "constructor"
    },
    {
      "anonymous": false,
      "inputs": [
        {
          "indexed": true,
          "internalType": "address",
          "name": "account",
          "type": "address"
        },
        {
          "indexed": true,
          "internalType": "address",
          "name": "operator",
          "type": "address"
        },
        {
          "indexed": false,
          "internalType": "bool",
          "name": "approved",
          "type": "bool"
        }
      ],
      "name": "ApprovalForAll",
      "type": "event"
    },
    {
      "anonymous": false,
      "inputs": [
        {
          "indexed": true,
          "internalType": "bytes32",
          "name": "role",
          "type": "bytes32"
        },
        {
          "indexed": true,
          "internalType": "bytes32",
          "name": "previousAdminRole",
          "type": "bytes32"
        },
        {
          "indexed": true,
          "internalType": "bytes32",
          "name": "newAdminRole",
          "type": "bytes32"
        }
      ],
      "name": "RoleAdminChanged",
      "type": "event"
    },
    {
      "anonymous": false,
      "inputs": [
        {
          "indexed": true,
          "internalType": "bytes32",
          "name": "role",
          "type": "bytes32"
        },
        {
          "indexed": true,
          "internalType": "address",
          "name": "account",
          "type": "address"
        },
        {
          "indexed": true,
          "internalType": "address",
          "name": "sender",
          "type": "address"
        }
      ],
      "name": "RoleGranted",
      "type": "event"
    },
    {
      "anonymous": false,
      "inputs": [
        {
          "indexed": true,
          "internalType": "bytes32",
          "name": "role",
          "type": "bytes32"
        },
        {
          "indexed": true,
          "internalType": "address",
          "name": "account",
          "type": "address"
        },
        {
          "indexed": true,
          "internalType": "address",
          "name": "sender",
          "type": "address"
        }
      ],
      "name": "RoleRevoked",
      "type": "event"
    },
    {
      "anonymous": false,
      "inputs": [
        {
          "indexed": true,
          "internalType": "address",
          "name": "operator",
          "type": "address"
        },
        {
          "indexed": true,
          "internalType": "address",
          "name": "from",
          "type": "address"
        },
        {
          "indexed": true,
          "internalType": "address",
          "name": "to",
          "type": "address"
        },
        {
          "indexed": false,
          "internalType": "uint256[]",
          "name": "ids",
          "type": "uint256[]"
        },
        {
          "indexed": false,
          "internalType": "uint256[]",
          "name": "values",
          "type": "uint256[]"
        }
      ],
      "name": "TransferBatch",
      "type": "event"
    },
    {
      "anonymous": false,
      "inputs": [
        {
          "indexed": true,
          "internalType": "address",
          "name": "operator",
          "type": "address"
        },
        {
          "indexed": true,
          "internalType": "address",
          "name": "from",
          "type": "address"
        },
        {
          "indexed": true,
          "internalType": "address",
          "name": "to",
          "type": "address"
        },
        {
          "indexed": false,
          "internalType": "uint256",
          "name": "id",
          "type": "uint256"
        },
        {
          "indexed": false,
          "internalType": "uint256",
          "name": "value",
          "type": "uint256"
        }
      ],
      "name": "TransferSingle",
      "type": "event"
    },
    {
      "anonymous": false,
      "inputs": [
        {
          "indexed": false,
          "internalType": "string",
          "name": "value",
          "type": "string"
        },
        {
          "indexed": true,
          "internalType": "uint256",
          "name": "id",
          "type": "uint256"
        }
      ],
      "name": "URI",
      "type": "event"
    },
    {
      "inputs": [],
      "name": "BURNER",
      "outputs": [
        {
          "internalType": "bytes32",
          "name": "",
          "type": "bytes32"
        }
      ],
      "stateMutability": "view",
      "type": "function"
    },
    {
      "inputs": [],
      "name": "DEFAULT_ADMIN_ROLE",
      "outputs": [
        {
          "internalType": "bytes32",
          "name": "",
          "type": "bytes32"
        }
      ],
      "stateMutability": "view",
      "type": "function"
    },
    {
      "inputs": [],
      "name": "METADATA_ADMIN",
      "outputs": [
        {
          "internalType": "bytes32",
          "name": "",
          "type": "bytes32"
        }
      ],
      "stateMutability": "view",
      "type": "function"
    },
    {
      "inputs": [],
      "name": "MINTER",
      "outputs": [
        {
          "internalType": "bytes32",
          "name": "",
          "type": "bytes32"
        }
      ],
      "stateMutability": "view",
      "type": "function"
    },
    {
      "inputs": [
        {
          "internalType": "uint256",
          "name": "",
          "type": "uint256"
        }
      ],
      "name": "_tokenURIs",
      "outputs": [
        {
          "internalType": "string",
          "name": "",
          "type": "string"
        }
      ],
      "stateMutability": "view",
      "type": "function"
    },
    {
      "inputs": [
        {
          "internalType": "address",
          "name": "account",
          "type": "address"
        },
        {
          "internalType": "uint256",
          "name": "id",
          "type": "uint256"
        }
      ],
      "name": "balanceOf",
      "outputs": [
        {
          "internalType": "uint256",
          "name": "",
          "type": "uint256"
        }
      ],
      "stateMutability": "view",
      "type": "function"
    },
    {
      "inputs": [
        {
          "internalType": "address[]",
          "name": "accounts",
          "type": "address[]"
        },
        {
          "internalType": "uint256[]",
          "name": "ids",
          "type": "uint256[]"
        }
      ],
      "name": "balanceOfBatch",
      "outputs": [
        {
          "internalType": "uint256[]",
          "name": "",
          "type": "uint256[]"
        }
      ],
      "stateMutability": "view",
      "type": "function"
    },
    {
      "inputs": [
        {
          "internalType": "bytes32",
          "name": "role",
          "type": "bytes32"
        }
      ],
      "name": "getRoleAdmin",
      "outputs": [
        {
          "internalType": "bytes32",
          "name": "",
          "type": "bytes32"
        }
      ],
      "stateMutability": "view",
      "type": "function"
    },
    {
      "inputs": [
        {
          "internalType": "bytes32",
          "name": "role",
          "type": "bytes32"
        },
        {
          "internalType": "uint256",
          "name": "index",
          "type": "uint256"
        }
      ],
      "name": "getRoleMember",
      "outputs": [
        {
          "internalType": "address",
          "name": "",
          "type": "address"
        }
      ],
      "stateMutability": "view",
      "type": "function"
    },
    {
      "inputs": [
        {
          "internalType": "bytes32",
          "name": "role",
          "type": "bytes32"
        }
      ],
      "name": "getRoleMemberCount",
      "outputs": [
        {
          "internalType": "uint256",
          "name": "",
          "type": "uint256"
        }
      ],
      "stateMutability": "view",
      "type": "function"
    },
    {
      "inputs": [
        {
          "internalType": "bytes32",
          "name": "role",
          "type": "bytes32"
        },
        {
          "internalType": "address",
          "name": "account",
          "type": "address"
        }
      ],
      "name": "grantRole",
      "outputs": [],
      "stateMutability": "nonpayable",
      "type": "function"
    },
    {
      "inputs": [
        {
          "internalType": "uint256",
          "name": "id",
          "type": "uint256"
        }
      ],
      "name": "hasMinted",
      "outputs": [
        {
          "internalType": "bool",
          "name": "",
          "type": "bool"
        }
      ],
      "stateMutability": "view",
      "type": "function"
    },
    {
      "inputs": [
        {
          "internalType": "bytes32",
          "name": "role",
          "type": "bytes32"
        },
        {
          "internalType": "address",
          "name": "account",
          "type": "address"
        }
      ],
      "name": "hasRole",
      "outputs": [
        {
          "internalType": "bool",
          "name": "",
          "type": "bool"
        }
      ],
      "stateMutability": "view",
      "type": "function"
    },
    {
      "inputs": [
        {
          "internalType": "address",
          "name": "account",
          "type": "address"
        },
        {
          "internalType": "address",
          "name": "operator",
          "type": "address"
        }
      ],
      "name": "isApprovedForAll",
      "outputs": [
        {
          "internalType": "bool",
          "name": "",
          "type": "bool"
        }
      ],
      "stateMutability": "view",
      "type": "function"
    },
    {
      "inputs": [
        {
          "internalType": "bytes32",
          "name": "role",
          "type": "bytes32"
        },
        {
          "internalType": "address",
          "name": "account",
          "type": "address"
        }
      ],
      "name": "renounceRole",
      "outputs": [],
      "stateMutability": "nonpayable",
      "type": "function"
    },
    {
      "inputs": [
        {
          "internalType": "bytes32",
          "name": "role",
          "type": "bytes32"
        },
        {
          "internalType": "address",
          "name": "account",
          "type": "address"
        }
      ],
      "name": "revokeRole",
      "outputs": [],
      "stateMutability": "nonpayable",
      "type": "function"
    },
    {
      "inputs": [
        {
          "internalType": "address",
          "name": "from",
          "type": "address"
        },
        {
          "internalType": "address",
          "name": "to",
          "type": "address"
        },
        {
          "internalType": "uint256[]",
          "name": "ids",
          "type": "uint256[]"
        },
        {
          "internalType": "uint256[]",
          "name": "amounts",
          "type": "uint256[]"
        },
        {
          "internalType": "bytes",
          "name": "data",
          "type": "bytes"
        }
      ],
      "name": "safeBatchTransferFrom",
      "outputs": [],
      "stateMutability": "nonpayable",
      "type": "function"
    },
    {
      "inputs": [
        {
          "internalType": "address",
          "name": "from",
          "type": "address"
        },
        {
          "internalType": "address",
          "name": "to",
          "type": "address"
        },
        {
          "internalType": "uint256",
          "name": "id",
          "type": "uint256"
        },
        {
          "internalType": "uint256",
          "name": "amount",
          "type": "uint256"
        },
        {
          "internalType": "bytes",
          "name": "data",
          "type": "bytes"
        }
      ],
      "name": "safeTransferFrom",
      "outputs": [],
      "stateMutability": "nonpayable",
      "type": "function"
    },
    {
      "inputs": [
        {
          "internalType": "address",
          "name": "operator",
          "type": "address"
        },
        {
          "internalType": "bool",
          "name": "approved",
          "type": "bool"
        }
      ],
      "name": "setApprovalForAll",
      "outputs": [],
      "stateMutability": "nonpayable",
      "type": "function"
    },
    {
      "inputs": [
        {
          "internalType": "string",
          "name": "newuri",
          "type": "string"
        }
      ],
      "name": "setBaseURI",
      "outputs": [],
      "stateMutability": "nonpayable",
      "type": "function"
    },
    {
      "inputs": [
        {
          "internalType": "string",
          "name": "newuri",
          "type": "string"
        },
        {
          "internalType": "uint256",
          "name": "id",
          "type": "uint256"
        }
      ],
      "name": "setURI",
      "outputs": [],
      "stateMutability": "nonpayable",
      "type": "function"
    },
    {
      "inputs": [
        {
          "internalType": "bytes4",
          "name": "interfaceId",
          "type": "bytes4"
        }
      ],
      "name": "supportsInterface",
      "outputs": [
        {
          "internalType": "bool",
          "name": "",
          "type": "bool"
        }
      ],
      "stateMutability": "view",
      "type": "function"
    },
    {
      "inputs": [
        {
          "internalType": "uint256",
          "name": "tokenid",
          "type": "uint256"
        }
      ],
      "name": "uri",
      "outputs": [
        {
          "internalType": "string",
          "name": "",
          "type": "string"
        }
      ],
      "stateMutability": "view",
      "type": "function"
    }
  ],
  "bytecode": "0x60806040523480156200001157600080fd5b506040516200289038038062002890833981810160405260208110156200003757600080fd5b81019080805160405193929190846401000000008211156200005857600080fd5b9083019060208201858111156200006e57600080fd5b82516401000000008111828201881017156200008957600080fd5b82525081516020918201929091019080838360005b83811015620000b85781810151838201526020016200009e565b50505050905090810190601f168015620000e65780820380516001836020036101000a031916815260200191505b50604052506200010191506301ffc9a760e01b9050620001cc565b62000113636cdb3d1360e11b620001cc565b620001256303a24d0760e21b620001cc565b6200013b60006200013562000251565b62000255565b62000159600080516020620028708339815191526200013562000251565b62000177600080516020620028508339815191526200013562000251565b6200019360008051602062002850833981519152600062000265565b620001af60008051602062002870833981519152600062000265565b8051620001c4906006906020840190620003b9565b505062000455565b6001600160e01b031980821614156200022c576040805162461bcd60e51b815260206004820152601c60248201527f4552433136353a20696e76616c696420696e7465726661636520696400000000604482015290519081900360640190fd5b6001600160e01b0319166000908152602081905260409020805460ff19166001179055565b3390565b620002618282620002b7565b5050565b600082815260056020526040808220600201549051839285917fbd79b86ffe0ab8e8776151514217cd7cacd52c909f66475c3af44e129f0b00ff9190a460009182526005602052604090912060020155565b6000828152600560209081526040909120620002de9183906200172862000332821b17901c565b156200026157620002ee62000251565b6001600160a01b0316816001600160a01b0316837f2f8788117e7eff1d82e926ec794901d17c78024a50270940304540a733656f0d60405160405180910390a45050565b600062000349836001600160a01b03841662000352565b90505b92915050565b6000620003608383620003a1565b62000398575081546001818101845560008481526020808220909301849055845484825282860190935260409020919091556200034c565b5060006200034c565b60009081526001919091016020526040902054151590565b828054600181600116156101000203166002900490600052602060002090601f016020900481019282601f10620003fc57805160ff19168380011785556200042c565b828001600101855582156200042c579182015b828111156200042c5782518255916020019190600101906200040f565b506200043a9291506200043e565b5090565b5b808211156200043a57600081556001016200043f565b6123eb80620004656000396000f3fe608060405234801561001057600080fd5b506004361061014c5760003560e01c806367db3b8f116100c3578063ca15c8731161007c578063ca15c8731461081f578063d547741f1461083c578063e5b9559514610868578063e985e9c514610885578063f242432a146108b3578063fe6d81241461097c5761014c565b806367db3b8f146106d05780639010d07c1461077657806391d14854146107b5578063a217fddf146107e1578063a22cb465146107e9578063b1de303e146108175761014c565b8063248a9ca311610115578063248a9ca3146102815780632eb2c2d61461029e5780632f2ff15d1461046157806336568abe1461048d5780634e1273f4146104b957806355f804b31461062c5761014c565b8062fdd58e1461015157806301ffc9a71461018f5780630bb78ec1146101ca5780630e89341c1461025c578063118c4f1314610279575b600080fd5b61017d6004803603604081101561016757600080fd5b506001600160a01b038135169060200135610984565b60408051918252519081900360200190f35b6101b6600480360360208110156101a557600080fd5b50356001600160e01b0319166109f6565b604080519115158252519081900360200190f35b6101e7600480360360208110156101e057600080fd5b5035610a19565b6040805160208082528351818301528351919283929083019185019080838360005b83811015610221578181015183820152602001610209565b50505050905090810190601f16801561024e5780820380516001836020036101000a031916815260200191505b509250505060405180910390f35b6101e76004803603602081101561027257600080fd5b5035610ab4565b61017d610d18565b61017d6004803603602081101561029757600080fd5b5035610d3c565b61045f600480360360a08110156102b457600080fd5b6001600160a01b038235811692602081013590911691810190606081016040820135600160201b8111156102e757600080fd5b8201836020820111156102f957600080fd5b803590602001918460208302840111600160201b8311171561031a57600080fd5b9190808060200260200160405190810160405280939291908181526020018383602002808284376000920191909152509295949360208101935035915050600160201b81111561036957600080fd5b82018360208201111561037b57600080fd5b803590602001918460208302840111600160201b8311171561039c57600080fd5b9190808060200260200160405190810160405280939291908181526020018383602002808284376000920191909152509295949360208101935035915050600160201b8111156103eb57600080fd5b8201836020820111156103fd57600080fd5b803590602001918460018302840111600160201b8311171561041e57600080fd5b91908080601f016020809104026020016040519081016040528093929190818152602001838380828437600092019190915250929550610d51945050505050565b005b61045f6004803603604081101561047757600080fd5b50803590602001356001600160a01b031661104f565b61045f600480360360408110156104a357600080fd5b50803590602001356001600160a01b03166110bb565b6105dc600480360360408110156104cf57600080fd5b810190602081018135600160201b8111156104e957600080fd5b8201836020820111156104fb57600080fd5b803590602001918460208302840111600160201b8311171561051c57600080fd5b9190808060200260200160405190810160405280939291908181526020018383602002808284376000920191909152509295949360208101935035915050600160201b81111561056b57600080fd5b82018360208201111561057d57600080fd5b803590602001918460208302840111600160201b8311171561059e57600080fd5b91908080602002602001604051908101604052809392919081815260200183836020028082843760009201919091525092955061111c945050505050565b60408051602080825283518183015283519192839290830191858101910280838360005b83811015610618578181015183820152602001610600565b505050509050019250505060405180910390f35b61045f6004803603602081101561064257600080fd5b810190602081018135600160201b81111561065c57600080fd5b82018360208201111561066e57600080fd5b803590602001918460018302840111600160201b8311171561068f57600080fd5b91908080601f01602080910402602001604051908101604052809392919081815260200183838082843760009201919091525092955061129a945050505050565b61045f600480360360408110156106e657600080fd5b810190602081018135600160201b81111561070057600080fd5b82018360208201111561071257600080fd5b803590602001918460018302840111600160201b8311171561073357600080fd5b91908080601f01602080910402602001604051908101604052809392919081815260200183838082843760009201919091525092955050913592506112e0915050565b6107996004803603604081101561078c57600080fd5b5080359060200135611337565b604080516001600160a01b039092168252519081900360200190f35b6101b6600480360360408110156107cb57600080fd5b50803590602001356001600160a01b0316611356565b61017d61136e565b61045f600480360360408110156107ff57600080fd5b506001600160a01b0381351690602001351515611373565b61017d611462565b61017d6004803603602081101561083557600080fd5b5035611486565b61045f6004803603604081101561085257600080fd5b50803590602001356001600160a01b031661149d565b6101b66004803603602081101561087e57600080fd5b50356114f6565b6101b66004803603604081101561089b57600080fd5b506001600160a01b038135811691602001351661150b565b61045f600480360360a08110156108c957600080fd5b6001600160a01b03823581169260208101359091169160408201359160608101359181019060a081016080820135600160201b81111561090857600080fd5b82018360208201111561091a57600080fd5b803590602001918460018302840111600160201b8311171561093b57600080fd5b91908080601f016020809104026020016040519081016040528093929190818152602001838380828437600092019190915250929550611539945050505050565b61017d611704565b60006001600160a01b0383166109cb5760405162461bcd60e51b815260040180806020018281038252602b8152602001806121d7602b913960400191505060405180910390fd5b5060008181526001602090815260408083206001600160a01b03861684529091529020545b92915050565b6001600160e01b0319811660009081526020819052604090205460ff165b919050565b60076020908152600091825260409182902080548351601f600260001961010060018616150201909316929092049182018490048402810184019094528084529091830182828015610aac5780601f10610a8157610100808354040283529160200191610aac565b820191906000526020600020905b815481529060010190602001808311610a8f57829003601f168201915b505050505081565b6000818152600760209081526040918290208054835160026001831615610100026000190190921691909104601f81018490048402820184019094528381526060938493919291830182828015610b4c5780601f10610b2157610100808354040283529160200191610b4c565b820191906000526020600020905b815481529060010190602001808311610b2f57829003601f168201915b505060065493945050505060026000196101006001841615020190911604610b75579050610a14565b805115610c46576006816040516020018083805460018160011615610100020316600290048015610bdd5780601f10610bbb576101008083540402835291820191610bdd565b820191906000526020600020905b815481529060010190602001808311610bc9575b5050825160208401908083835b60208310610c095780518252601f199092019160209182019101610bea565b6001836020036101000a03801982511681845116808217855250505050505090500192505050604051602081830303815290604052915050610a14565b6006610c518461173d565b6040516020018083805460018160011615610100020316600290048015610caf5780601f10610c8d576101008083540402835291820191610caf565b820191906000526020600020905b815481529060010190602001808311610c9b575b5050825160208401908083835b60208310610cdb5780518252601f199092019160209182019101610cbc565b6001836020036101000a03801982511681845116808217855250505050505090500192505050604051602081830303815290604052915050919050565b7f9667e80708b6eeeb0053fa0cca44e028ff548e2a9f029edfeac87c118b08b7c881565b60009081526005602052604090206002015490565b8151835114610d915760405162461bcd60e51b815260040180806020018281038252602881526020018061235f6028913960400191505060405180910390fd5b6001600160a01b038416610dd65760405162461bcd60e51b815260040180806020018281038252602581526020018061228c6025913960400191505060405180910390fd5b610dde611818565b6001600160a01b0316856001600160a01b03161480610e095750610e0985610e04611818565b61150b565b610e445760405162461bcd60e51b81526004018080602001828103825260328152602001806122b16032913960400191505060405180910390fd5b6000610e4e611818565b9050610e5e818787878787611047565b60005b8451811015610f5f576000858281518110610e7857fe5b602002602001015190506000858381518110610e9057fe5b60200260200101519050610efd816040518060600160405280602a81526020016122e3602a91396001600086815260200190815260200160002060008d6001600160a01b03166001600160a01b031681526020019081526020016000205461181d9092919063ffffffff16565b60008381526001602090815260408083206001600160a01b038e811685529252808320939093558a1681522054610f3490826118b4565b60009283526001602081815260408086206001600160a01b038d168752909152909320555001610e61565b50846001600160a01b0316866001600160a01b0316826001600160a01b03167f4a39dc06d4c0dbc64b70af90fd698a233a518aa5d07e595d983b8c0526c8f7fb8787604051808060200180602001838103835285818151815260200191508051906020019060200280838360005b83811015610fe5578181015183820152602001610fcd565b50505050905001838103825284818151815260200191508051906020019060200280838360005b8381101561102457818101518382015260200161100c565b5050505090500194505050505060405180910390a461104781878787878761190e565b505050505050565b6000828152600560205260409020600201546110729061106d611818565b611356565b6110ad5760405162461bcd60e51b815260040180806020018281038252602f8152602001806121a8602f913960400191505060405180910390fd5b6110b78282611b8d565b5050565b6110c3611818565b6001600160a01b0316816001600160a01b0316146111125760405162461bcd60e51b815260040180806020018281038252602f815260200180612387602f913960400191505060405180910390fd5b6110b78282611bf6565b6060815183511461115e5760405162461bcd60e51b81526004018080602001828103825260298152602001806123366029913960400191505060405180910390fd5b6060835167ffffffffffffffff8111801561117857600080fd5b506040519080825280602002602001820160405280156111a2578160200160208202803683370190505b50905060005b84518110156112925760006001600160a01b03168582815181106111c857fe5b60200260200101516001600160a01b031614156112165760405162461bcd60e51b81526004018080602001828103825260318152602001806122026031913960400191505060405180910390fd5b6001600085838151811061122657fe5b60200260200101518152602001908152602001600020600086838151811061124a57fe5b60200260200101516001600160a01b03166001600160a01b031681526020019081526020016000205482828151811061127f57fe5b60209081029190910101526001016111a8565b509392505050565b6112c47ff6e33f9720e4529cb1c710e3344dc00830589a3239198ffa39b07117085d250e33611356565b6112cd57600080fd5b80516110b7906006906020840190611feb565b61130a7ff6e33f9720e4529cb1c710e3344dc00830589a3239198ffa39b07117085d250e33611356565b61131357600080fd5b6000818152600760209081526040909120835161133292850190611feb565b505050565b600082815260056020526040812061134f9083611c5f565b9392505050565b600082815260056020526040812061134f9083611c6b565b600081565b816001600160a01b0316611385611818565b6001600160a01b031614156113cb5760405162461bcd60e51b815260040180806020018281038252602981526020018061230d6029913960400191505060405180910390fd5b80600360006113d8611818565b6001600160a01b03908116825260208083019390935260409182016000908120918716808252919093529120805460ff19169215159290921790915561141c611818565b6001600160a01b03167f17307eab39ab6107e8899845ad3d59bd9653f200f220920489ca2b5937696c318360405180821515815260200191505060405180910390a35050565b7ff6e33f9720e4529cb1c710e3344dc00830589a3239198ffa39b07117085d250e81565b60008181526005602052604081206109f090611c80565b6000828152600560205260409020600201546114bb9061106d611818565b6111125760405162461bcd60e51b815260040180806020018281038252603081526020018061225c6030913960400191505060405180910390fd5b60009081526002602052604090205460ff1690565b6001600160a01b03918216600090815260036020908152604080832093909416825291909152205460ff1690565b6001600160a01b03841661157e5760405162461bcd60e51b815260040180806020018281038252602581526020018061228c6025913960400191505060405180910390fd5b611586611818565b6001600160a01b0316856001600160a01b031614806115ac57506115ac85610e04611818565b6115e75760405162461bcd60e51b81526004018080602001828103825260298152602001806122336029913960400191505060405180910390fd5b60006115f1611818565b905061161181878761160288611c8b565b61160b88611c8b565b87611047565b611658836040518060600160405280602a81526020016122e3602a913960008781526001602090815260408083206001600160a01b038d168452909152902054919061181d565b60008581526001602090815260408083206001600160a01b038b8116855292528083209390935587168152205461168f90846118b4565b60008581526001602090815260408083206001600160a01b03808b168086529184529382902094909455805188815291820187905280518a8416938616927fc3d58168c5ae7397731d063d5bbf3d657854427343f4c083240f7aacaa2d0f6292908290030190a4611047818787878787611ccf565b7ff0887ba65ee2024ea881d91b74c2450ef19e1557f03bed3ea9f16b037cbe2dc981565b600061134f836001600160a01b038416611e40565b60608161176257506040805180820190915260018152600360fc1b6020820152610a14565b8160005b811561177a57600101600a82049150611766565b60608167ffffffffffffffff8111801561179357600080fd5b506040519080825280601f01601f1916602001820160405280156117be576020820181803683370190505b50859350905060001982015b831561180f57600a840660300160f81b828280600190039350815181106117ed57fe5b60200101906001600160f81b031916908160001a905350600a840493506117ca565b50949350505050565b335b90565b600081848411156118ac5760405162461bcd60e51b81526004018080602001828103825283818151815260200191508051906020019080838360005b83811015611871578181015183820152602001611859565b50505050905090810190601f16801561189e5780820380516001836020036101000a031916815260200191505b509250505060405180910390fd5b505050900390565b60008282018381101561134f576040805162461bcd60e51b815260206004820152601b60248201527f536166654d6174683a206164646974696f6e206f766572666c6f770000000000604482015290519081900360640190fd5b611920846001600160a01b0316611e8a565b1561104757836001600160a01b031663bc197c8187878686866040518663ffffffff1660e01b815260040180866001600160a01b03168152602001856001600160a01b03168152602001806020018060200180602001848103845287818151815260200191508051906020019060200280838360005b838110156119ae578181015183820152602001611996565b50505050905001848103835286818151815260200191508051906020019060200280838360005b838110156119ed5781810151838201526020016119d5565b50505050905001848103825285818151815260200191508051906020019080838360005b83811015611a29578181015183820152602001611a11565b50505050905090810190601f168015611a565780820380516001836020036101000a031916815260200191505b5098505050505050505050602060405180830381600087803b158015611a7b57600080fd5b505af1925050508015611aa057506040513d6020811015611a9b57600080fd5b505160015b611b3557611aac612084565b80611ab75750611afe565b60405162461bcd60e51b8152602060048201818152835160248401528351849391928392604401919085019080838360008315611871578181015183820152602001611859565b60405162461bcd60e51b815260040180806020018281038252603481526020018061212a6034913960400191505060405180910390fd5b6001600160e01b0319811663bc197c8160e01b14611b845760405162461bcd60e51b81526004018080602001828103825260288152602001806121806028913960400191505060405180910390fd5b50505050505050565b6000828152600560205260409020611ba59082611728565b156110b757611bb2611818565b6001600160a01b0316816001600160a01b0316837f2f8788117e7eff1d82e926ec794901d17c78024a50270940304540a733656f0d60405160405180910390a45050565b6000828152600560205260409020611c0e9082611e90565b156110b757611c1b611818565b6001600160a01b0316816001600160a01b0316837ff6391f5c32d9c69d2a47ea670b442974b53935d1edc7fd64eb21e047a839171b60405160405180910390a45050565b600061134f8383611ea5565b600061134f836001600160a01b038416611f09565b60006109f082611f21565b604080516001808252818301909252606091829190602080830190803683370190505090508281600081518110611cbe57fe5b602090810291909101015292915050565b611ce1846001600160a01b0316611e8a565b1561104757836001600160a01b031663f23a6e6187878686866040518663ffffffff1660e01b815260040180866001600160a01b03168152602001856001600160a01b0316815260200184815260200183815260200180602001828103825283818151815260200191508051906020019080838360005b83811015611d70578181015183820152602001611d58565b50505050905090810190601f168015611d9d5780820380516001836020036101000a031916815260200191505b509650505050505050602060405180830381600087803b158015611dc057600080fd5b505af1925050508015611de557506040513d6020811015611de057600080fd5b505160015b611df157611aac612084565b6001600160e01b0319811663f23a6e6160e01b14611b845760405162461bcd60e51b81526004018080602001828103825260288152602001806121806028913960400191505060405180910390fd5b6000611e4c8383611f09565b611e82575081546001818101845560008481526020808220909301849055845484825282860190935260409020919091556109f0565b5060006109f0565b3b151590565b600061134f836001600160a01b038416611f25565b81546000908210611ee75760405162461bcd60e51b815260040180806020018281038252602281526020018061215e6022913960400191505060405180910390fd5b826000018281548110611ef657fe5b9060005260206000200154905092915050565b60009081526001919091016020526040902054151590565b5490565b60008181526001830160205260408120548015611fe15783546000198083019190810190600090879083908110611f5857fe5b9060005260206000200154905080876000018481548110611f7557fe5b600091825260208083209091019290925582815260018981019092526040902090840190558654879080611fa557fe5b600190038181906000526020600020016000905590558660010160008781526020019081526020016000206000905560019450505050506109f0565b60009150506109f0565b828054600181600116156101000203166002900490600052602060002090601f016020900481019282601f1061202c57805160ff1916838001178555612059565b82800160010185558215612059579182015b8281111561205957825182559160200191906001019061203e565b50612065929150612069565b5090565b5b80821115612065576000815560010161206a565b60e01c90565b600060443d10156120945761181a565b600481823e6308c379a06120a8825161207e565b146120b25761181a565b6040513d600319016004823e80513d67ffffffffffffffff81602484011181841117156120e2575050505061181a565b828401925082519150808211156120fc575050505061181a565b503d830160208284010111156121145750505061181a565b601f01601f191681016020016040529150509056fe455243313135353a207472616e7366657220746f206e6f6e2045524331313535526563656976657220696d706c656d656e746572456e756d657261626c655365743a20696e646578206f7574206f6620626f756e6473455243313135353a204552433131353552656365697665722072656a656374656420746f6b656e73416363657373436f6e74726f6c3a2073656e646572206d75737420626520616e2061646d696e20746f206772616e74455243313135353a2062616c616e636520717565727920666f7220746865207a65726f2061646472657373455243313135353a2062617463682062616c616e636520717565727920666f7220746865207a65726f2061646472657373455243313135353a2063616c6c6572206973206e6f74206f776e6572206e6f7220617070726f766564416363657373436f6e74726f6c3a2073656e646572206d75737420626520616e2061646d696e20746f207265766f6b65455243313135353a207472616e7366657220746f20746865207a65726f2061646472657373455243313135353a207472616e736665722063616c6c6572206973206e6f74206f776e6572206e6f7220617070726f766564455243313135353a20696e73756666696369656e742062616c616e636520666f72207472616e73666572455243313135353a2073657474696e6720617070726f76616c2073746174757320666f722073656c66455243313135353a206163636f756e747320616e6420696473206c656e677468206d69736d61746368455243313135353a2069647320616e6420616d6f756e7473206c656e677468206d69736d61746368416363657373436f6e74726f6c3a2063616e206f6e6c792072656e6f756e636520726f6c657320666f722073656c66a264697066735822122093398eb1f24c81cffb7e207f52c7cf9d66fab47540c5657b1d5d81ef1f37935764736f6c63430007030033f0887ba65ee2024ea881d91b74c2450ef19e1557f03bed3ea9f16b037cbe2dc9f6e33f9720e4529cb1c710e3344dc00830589a3239198ffa39b07117085d250e",
  "linkReferences": {},
  "deployedLinkReferences": {}
}